{
	"contracts/Manager.sol": {
		"Manager": {
			"abi": [
				{
					"inputs": [],
					"stateMutability": "nonpayable",
					"type": "constructor"
				},
				{
					"anonymous": false,
					"inputs": [
						{
							"indexed": false,
							"internalType": "uint8",
							"name": "newAlg",
							"type": "uint8"
						}
					],
					"name": "ChangedAlgorithm",
					"type": "event"
				},
				{
					"anonymous": false,
					"inputs": [
						{
							"indexed": false,
							"internalType": "address",
							"name": "newAddress",
							"type": "address"
						}
					],
					"name": "ChangedOracle",
					"type": "event"
				},
				{
					"anonymous": false,
					"inputs": [
						{
							"indexed": false,
							"internalType": "uint256",
							"name": "id",
							"type": "uint256"
						},
						{
							"indexed": false,
							"internalType": "uint8",
							"name": "shardId",
							"type": "uint8"
						},
						{
							"indexed": false,
							"internalType": "string",
							"name": "shard",
							"type": "string"
						},
						{
							"indexed": false,
							"internalType": "bytes20",
							"name": "addr",
							"type": "bytes20"
						},
						{
							"indexed": false,
							"internalType": "string",
							"name": "name",
							"type": "string"
						}
					],
					"name": "DeleteConfirmed",
					"type": "event"
				},
				{
					"anonymous": false,
					"inputs": [
						{
							"indexed": false,
							"internalType": "uint256",
							"name": "id",
							"type": "uint256"
						},
						{
							"indexed": false,
							"internalType": "uint8",
							"name": "shardId",
							"type": "uint8"
						},
						{
							"indexed": false,
							"internalType": "string",
							"name": "shard",
							"type": "string"
						},
						{
							"indexed": false,
							"internalType": "bytes20",
							"name": "addr",
							"type": "bytes20"
						},
						{
							"indexed": false,
							"internalType": "string",
							"name": "name",
							"type": "string"
						}
					],
					"name": "DeleteDeclared",
					"type": "event"
				},
				{
					"anonymous": false,
					"inputs": [
						{
							"indexed": false,
							"internalType": "uint256",
							"name": "id",
							"type": "uint256"
						},
						{
							"indexed": false,
							"internalType": "uint8",
							"name": "shardId",
							"type": "uint8"
						},
						{
							"indexed": false,
							"internalType": "string",
							"name": "shard",
							"type": "string"
						},
						{
							"indexed": false,
							"internalType": "bytes20",
							"name": "addr",
							"type": "bytes20"
						},
						{
							"indexed": false,
							"internalType": "string",
							"name": "name",
							"type": "string"
						}
					],
					"name": "DeleteNotConfirmed",
					"type": "event"
				},
				{
					"anonymous": false,
					"inputs": [
						{
							"indexed": false,
							"internalType": "uint256",
							"name": "id",
							"type": "uint256"
						},
						{
							"indexed": false,
							"internalType": "uint8",
							"name": "shardId",
							"type": "uint8"
						},
						{
							"indexed": false,
							"internalType": "string",
							"name": "shard",
							"type": "string"
						},
						{
							"indexed": false,
							"internalType": "bytes20",
							"name": "addr",
							"type": "bytes20"
						},
						{
							"indexed": false,
							"internalType": "string",
							"name": "name",
							"type": "string"
						}
					],
					"name": "DeployConfirmed",
					"type": "event"
				},
				{
					"anonymous": false,
					"inputs": [
						{
							"indexed": false,
							"internalType": "uint256",
							"name": "id",
							"type": "uint256"
						},
						{
							"indexed": false,
							"internalType": "uint8",
							"name": "shardId",
							"type": "uint8"
						},
						{
							"indexed": false,
							"internalType": "string",
							"name": "shard",
							"type": "string"
						},
						{
							"indexed": false,
							"internalType": "bytes20",
							"name": "addr",
							"type": "bytes20"
						},
						{
							"indexed": false,
							"internalType": "string",
							"name": "name",
							"type": "string"
						}
					],
					"name": "DeployDeclared",
					"type": "event"
				},
				{
					"anonymous": false,
					"inputs": [
						{
							"indexed": false,
							"internalType": "uint256",
							"name": "id",
							"type": "uint256"
						},
						{
							"indexed": false,
							"internalType": "uint8",
							"name": "shardId",
							"type": "uint8"
						},
						{
							"indexed": false,
							"internalType": "string",
							"name": "shard",
							"type": "string"
						},
						{
							"indexed": false,
							"internalType": "bytes20",
							"name": "addr",
							"type": "bytes20"
						},
						{
							"indexed": false,
							"internalType": "string",
							"name": "name",
							"type": "string"
						}
					],
					"name": "DeployNotConfirmed",
					"type": "event"
				},
				{
					"anonymous": false,
					"inputs": [
						{
							"indexed": false,
							"internalType": "uint256",
							"name": "id",
							"type": "uint256"
						},
						{
							"indexed": false,
							"internalType": "uint8",
							"name": "shardId",
							"type": "uint8"
						},
						{
							"indexed": false,
							"internalType": "string",
							"name": "shard",
							"type": "string"
						}
					],
					"name": "DeployReserved",
					"type": "event"
				},
				{
					"anonymous": false,
					"inputs": [
						{
							"indexed": true,
							"internalType": "address",
							"name": "previousOwner",
							"type": "address"
						},
						{
							"indexed": true,
							"internalType": "address",
							"name": "newOwner",
							"type": "address"
						}
					],
					"name": "OwnershipTransferred",
					"type": "event"
				},
				{
					"anonymous": false,
					"inputs": [
						{
							"indexed": false,
							"internalType": "uint8",
							"name": "shardId",
							"type": "uint8"
						},
						{
							"indexed": false,
							"internalType": "string",
							"name": "shard",
							"type": "string"
						}
					],
					"name": "ShardAdded",
					"type": "event"
				},
				{
					"inputs": [
						{
							"internalType": "string",
							"name": "url",
							"type": "string"
						},
						{
							"internalType": "bool",
							"name": "active",
							"type": "bool"
						}
					],
					"name": "addShard",
					"outputs": [],
					"stateMutability": "nonpayable",
					"type": "function"
				},
				{
					"inputs": [],
					"name": "contractId",
					"outputs": [
						{
							"internalType": "uint256",
							"name": "",
							"type": "uint256"
						}
					],
					"stateMutability": "view",
					"type": "function"
				},
				{
					"inputs": [
						{
							"internalType": "uint256",
							"name": "id",
							"type": "uint256"
						}
					],
					"name": "declareDel",
					"outputs": [],
					"stateMutability": "nonpayable",
					"type": "function"
				},
				{
					"inputs": [
						{
							"internalType": "uint256",
							"name": "id",
							"type": "uint256"
						},
						{
							"internalType": "bytes20",
							"name": "addr",
							"type": "bytes20"
						},
						{
							"internalType": "string",
							"name": "name",
							"type": "string"
						}
					],
					"name": "declareDeploy",
					"outputs": [],
					"stateMutability": "nonpayable",
					"type": "function"
				},
				{
					"inputs": [
						{
							"internalType": "uint256",
							"name": "",
							"type": "uint256"
						}
					],
					"name": "deployMap",
					"outputs": [
						{
							"internalType": "uint8",
							"name": "shardId",
							"type": "uint8"
						},
						{
							"internalType": "bytes20",
							"name": "addr",
							"type": "bytes20"
						},
						{
							"internalType": "string",
							"name": "name",
							"type": "string"
						},
						{
							"internalType": "address",
							"name": "user",
							"type": "address"
						},
						{
							"internalType": "uint256",
							"name": "deployTime",
							"type": "uint256"
						},
						{
							"internalType": "enum AbstractManager.Status",
							"name": "status",
							"type": "uint8"
						}
					],
					"stateMutability": "view",
					"type": "function"
				},
				{
					"inputs": [
						{
							"internalType": "uint256",
							"name": "id",
							"type": "uint256"
						},
						{
							"internalType": "bool",
							"name": "result",
							"type": "bool"
						}
					],
					"name": "fullfillDelete",
					"outputs": [],
					"stateMutability": "nonpayable",
					"type": "function"
				},
				{
					"inputs": [
						{
							"internalType": "uint256",
							"name": "id",
							"type": "uint256"
						},
						{
							"internalType": "bool",
							"name": "result",
							"type": "bool"
						}
					],
					"name": "fullfillDeploy",
					"outputs": [],
					"stateMutability": "nonpayable",
					"type": "function"
				},
				{
					"inputs": [],
					"name": "owner",
					"outputs": [
						{
							"internalType": "address",
							"name": "",
							"type": "address"
						}
					],
					"stateMutability": "view",
					"type": "function"
				},
				{
					"inputs": [],
					"name": "renounceOwnership",
					"outputs": [],
					"stateMutability": "nonpayable",
					"type": "function"
				},
				{
					"inputs": [],
					"name": "reserveDeploy",
					"outputs": [
						{
							"internalType": "uint256",
							"name": "",
							"type": "uint256"
						},
						{
							"internalType": "string",
							"name": "",
							"type": "string"
						}
					],
					"stateMutability": "nonpayable",
					"type": "function"
				},
				{
					"inputs": [
						{
							"internalType": "uint8",
							"name": "newAlg",
							"type": "uint8"
						}
					],
					"name": "setAlg",
					"outputs": [],
					"stateMutability": "nonpayable",
					"type": "function"
				},
				{
					"inputs": [
						{
							"internalType": "address",
							"name": "newAddress",
							"type": "address"
						}
					],
					"name": "setOracle",
					"outputs": [],
					"stateMutability": "nonpayable",
					"type": "function"
				},
				{
					"inputs": [
						{
							"internalType": "uint8",
							"name": "shardId",
							"type": "uint8"
						},
						{
							"internalType": "bool",
							"name": "status",
							"type": "bool"
						}
					],
					"name": "setShardStatus",
					"outputs": [],
					"stateMutability": "nonpayable",
					"type": "function"
				},
				{
					"inputs": [
						{
							"internalType": "uint256",
							"name": "",
							"type": "uint256"
						}
					],
					"name": "shardList",
					"outputs": [
						{
							"internalType": "string",
							"name": "url",
							"type": "string"
						},
						{
							"internalType": "bool",
							"name": "active",
							"type": "bool"
						},
						{
							"internalType": "uint256",
							"name": "numDeploy",
							"type": "uint256"
						}
					],
					"stateMutability": "view",
					"type": "function"
				},
				{
					"inputs": [
						{
							"internalType": "address",
							"name": "newOwner",
							"type": "address"
						}
					],
					"name": "transferOwnership",
					"outputs": [],
					"stateMutability": "nonpayable",
					"type": "function"
				}
			],
			"devdoc": {
				"kind": "dev",
				"methods": {
					"owner()": {
						"details": "Returns the address of the current owner."
					},
					"renounceOwnership()": {
						"details": "Leaves the contract without owner. It will not be possible to call `onlyOwner` functions anymore. Can only be called by the current owner. NOTE: Renouncing ownership will leave the contract without an owner, thereby removing any functionality that is only available to the owner."
					},
					"transferOwnership(address)": {
						"details": "Transfers ownership of the contract to a new account (`newOwner`). Can only be called by the current owner."
					}
				},
				"version": 1
			},
			"evm": {
				"assembly": "    /* \"contracts/Manager.sol\":110:1403  contract Manager is AbstractManager{... */\n  mstore(0x40, 0x80)\n    /* \"contracts/Manager.sol\":156:227  constructor() AbstractManager(){... */\n  callvalue\n  dup1\n  iszero\n  tag_1\n  jumpi\n  0x00\n  dup1\n  revert\ntag_1:\n  pop\n    /* \"@openzeppelin/contracts/access/Ownable.sol\":936:968  _transferOwnership(_msgSender()) */\n  tag_6\n    /* \"@openzeppelin/contracts/access/Ownable.sol\":955:967  _msgSender() */\n  tag_7\n    /* \"@openzeppelin/contracts/access/Ownable.sol\":955:965  _msgSender */\n  shl(0x20, tag_8)\n    /* \"@openzeppelin/contracts/access/Ownable.sol\":955:967  _msgSender() */\n  0x20\n  shr\n  jump\t// in\ntag_7:\n    /* \"@openzeppelin/contracts/access/Ownable.sol\":936:954  _transferOwnership */\n  shl(0x20, tag_9)\n    /* \"@openzeppelin/contracts/access/Ownable.sol\":936:968  _transferOwnership(_msgSender()) */\n  0x20\n  shr\n  jump\t// in\ntag_6:\n    /* \"contracts/AbstractManager.sol\":1402:1403  0 */\n  0x00\n    /* \"contracts/AbstractManager.sol\":1389:1399  currentAlg */\n  0x03\n  0x00\n    /* \"contracts/AbstractManager.sol\":1389:1403  currentAlg = 0 */\n  0x0100\n  exp\n  dup2\n  sload\n  dup2\n  0xff\n  mul\n  not\n  and\n  swap1\n  dup4\n  0xff\n  and\n  mul\n  or\n  swap1\n  sstore\n  pop\n    /* \"contracts/AbstractManager.sol\":1426:1427  0 */\n  0x00\n    /* \"contracts/AbstractManager.sol\":1413:1423  contractId */\n  0x06\n    /* \"contracts/AbstractManager.sol\":1413:1427  contractId = 0 */\n  dup2\n  swap1\n  sstore\n  pop\n    /* \"contracts/AbstractManager.sol\":1448:1450  10 */\n  0x0a\n    /* \"contracts/AbstractManager.sol\":1437:1445  maxShard */\n  0x07\n  0x00\n    /* \"contracts/AbstractManager.sol\":1437:1450  maxShard = 10 */\n  0x0100\n  exp\n  dup2\n  sload\n  dup2\n  0xff\n  mul\n  not\n  and\n  swap1\n  dup4\n  0xff\n  and\n  mul\n  or\n  swap1\n  sstore\n  pop\n    /* \"contracts/AbstractManager.sol\":1460:1464  algs */\n  0x04\n    /* \"contracts/AbstractManager.sol\":1470:1480  defaultAlg */\n  or(tag_0_79, shl(0x20, tag_11))\n    /* \"contracts/AbstractManager.sol\":1460:1481  algs.push(defaultAlg) */\n  swap1\n  dup1\n  0x01\n  dup2\n  sload\n  add\n  dup1\n  dup3\n  sstore\n  dup1\n  swap2\n  pop\n  pop\n  0x01\n  swap1\n  sub\n  swap1\n  0x00\n  mstore\n  keccak256(0x00, 0x20)\n  swap1\n  0x04\n  swap2\n  dup3\n  dup3\n  div\n  add\n  swap2\n  swap1\n  mod\n  0x08\n  mul\n  swap1\n  swap2\n  swap1\n  swap2\n  swap1\n  swap2\n  0x0100\n  exp\n  dup2\n  sload\n  dup2\n  0xffffffffffffffff\n  mul\n  not\n  and\n  swap1\n  dup4\n  0xffffffffffffffff\n  and\n  mul\n  or\n  swap1\n  sstore\n  pop\n    /* \"contracts/Manager.sol\":197:201  algs */\n  0x04\n    /* \"contracts/Manager.sol\":207:219  minDeployAlg */\n  or(tag_0_80, shl(0x20, tag_14))\n    /* \"contracts/Manager.sol\":197:220  algs.push(minDeployAlg) */\n  swap1\n  dup1\n  0x01\n  dup2\n  sload\n  add\n  dup1\n  dup3\n  sstore\n  dup1\n  swap2\n  pop\n  pop\n  0x01\n  swap1\n  sub\n  swap1\n  0x00\n  mstore\n  keccak256(0x00, 0x20)\n  swap1\n  0x04\n  swap2\n  dup3\n  dup3\n  div\n  add\n  swap2\n  swap1\n  mod\n  0x08\n  mul\n  swap1\n  swap2\n  swap1\n  swap2\n  swap1\n  swap2\n  0x0100\n  exp\n  dup2\n  sload\n  dup2\n  0xffffffffffffffff\n  mul\n  not\n  and\n  swap1\n  dup4\n  0xffffffffffffffff\n  and\n  mul\n  or\n  swap1\n  sstore\n  pop\n    /* \"contracts/Manager.sol\":110:1403  contract Manager is AbstractManager{... */\n  jump(tag_16)\n    /* \"@openzeppelin/contracts/utils/Context.sol\":640:736  function _msgSender() internal view virtual returns (address) {... */\ntag_8:\n    /* \"@openzeppelin/contracts/utils/Context.sol\":693:700  address */\n  0x00\n    /* \"@openzeppelin/contracts/utils/Context.sol\":719:729  msg.sender */\n  caller\n    /* \"@openzeppelin/contracts/utils/Context.sol\":712:729  return msg.sender */\n  swap1\n  pop\n    /* \"@openzeppelin/contracts/utils/Context.sol\":640:736  function _msgSender() internal view virtual returns (address) {... */\n  swap1\n  jump\t// out\n    /* \"@openzeppelin/contracts/access/Ownable.sol\":2433:2620  function _transferOwnership(address newOwner) internal virtual {... */\ntag_9:\n    /* \"@openzeppelin/contracts/access/Ownable.sol\":2506:2522  address oldOwner */\n  0x00\n    /* \"@openzeppelin/contracts/access/Ownable.sol\":2525:2531  _owner */\n  dup1\n  0x00\n  swap1\n  sload\n  swap1\n  0x0100\n  exp\n  swap1\n  div\n  0xffffffffffffffffffffffffffffffffffffffff\n  and\n    /* \"@openzeppelin/contracts/access/Ownable.sol\":2506:2531  address oldOwner = _owner */\n  swap1\n  pop\n    /* \"@openzeppelin/contracts/access/Ownable.sol\":2550:2558  newOwner */\n  dup2\n    /* \"@openzeppelin/contracts/access/Ownable.sol\":2541:2547  _owner */\n  0x00\n  dup1\n    /* \"@openzeppelin/contracts/access/Ownable.sol\":2541:2558  _owner = newOwner */\n  0x0100\n  exp\n  dup2\n  sload\n  dup2\n  0xffffffffffffffffffffffffffffffffffffffff\n  mul\n  not\n  and\n  swap1\n  dup4\n  0xffffffffffffffffffffffffffffffffffffffff\n  and\n  mul\n  or\n  swap1\n  sstore\n  pop\n    /* \"@openzeppelin/contracts/access/Ownable.sol\":2604:2612  newOwner */\n  dup2\n    /* \"@openzeppelin/contracts/access/Ownable.sol\":2573:2613  OwnershipTransferred(oldOwner, newOwner) */\n  0xffffffffffffffffffffffffffffffffffffffff\n  and\n    /* \"@openzeppelin/contracts/access/Ownable.sol\":2594:2602  oldOwner */\n  dup2\n    /* \"@openzeppelin/contracts/access/Ownable.sol\":2573:2613  OwnershipTransferred(oldOwner, newOwner) */\n  0xffffffffffffffffffffffffffffffffffffffff\n  and\n  0x8be0079c531659141344cd1fd0a4f28419497f9722a3daafe3b4186f6b6457e0\n  mload(0x40)\n  mload(0x40)\n  dup1\n  swap2\n  sub\n  swap1\n  log3\n    /* \"@openzeppelin/contracts/access/Ownable.sol\":2496:2620  {... */\n  pop\n    /* \"@openzeppelin/contracts/access/Ownable.sol\":2433:2620  function _transferOwnership(address newOwner) internal virtual {... */\n  pop\n  jump\t// out\n    /* \"contracts/Manager.sol\":233:729  function defaultAlg() internal override returns(uint8) {... */\ntag_11:\n    /* \"contracts/Manager.sol\":281:286  uint8 */\n  0x00\n    /* \"contracts/Manager.sol\":300:315  uint8 loopShard */\n  dup1\n    /* \"contracts/Manager.sol\":364:373  shardList */\n  0x02\n    /* \"contracts/Manager.sol\":364:380  shardList.length */\n  dup1\n  sload\n  swap1\n  pop\n    /* \"contracts/Manager.sol\":359:360  1 */\n  0x01\n    /* \"contracts/Manager.sol\":340:349  shardList */\n  0x02\n    /* \"contracts/Manager.sol\":340:356  shardList.length */\n  dup1\n  sload\n  swap1\n  pop\n    /* \"contracts/Manager.sol\":325:337  currentShard */\n  0x03\n  0x01\n  swap1\n  sload\n  swap1\n  0x0100\n  exp\n  swap1\n  div\n  0xff\n  and\n    /* \"contracts/Manager.sol\":325:356  currentShard + shardList.length */\n  0xff\n  and\n  tag_20\n  swap2\n  swap1\n  tag_21\n  jump\t// in\ntag_20:\n    /* \"contracts/Manager.sol\":325:360  currentShard + shardList.length - 1 */\n  tag_22\n  swap2\n  swap1\n  tag_23\n  jump\t// in\ntag_22:\n    /* \"contracts/Manager.sol\":324:380  (currentShard + shardList.length - 1) % shardList.length */\n  tag_24\n  swap2\n  swap1\n  tag_25\n  jump\t// in\ntag_24:\n    /* \"contracts/Manager.sol\":300:381  uint8 loopShard = uint8((currentShard + shardList.length - 1) % shardList.length) */\n  swap1\n  pop\n    /* \"contracts/Manager.sol\":393:545  while(currentShard != loopShard && !shardList[currentShard].active){... */\ntag_26:\n    /* \"contracts/Manager.sol\":415:424  loopShard */\n  dup1\n    /* \"contracts/Manager.sol\":399:424  currentShard != loopShard */\n  0xff\n  and\n    /* \"contracts/Manager.sol\":399:411  currentShard */\n  0x03\n  0x01\n  swap1\n  sload\n  swap1\n  0x0100\n  exp\n  swap1\n  div\n  0xff\n  and\n    /* \"contracts/Manager.sol\":399:424  currentShard != loopShard */\n  0xff\n  and\n  eq\n  iszero\n    /* \"contracts/Manager.sol\":399:459  currentShard != loopShard && !shardList[currentShard].active */\n  dup1\n  iszero\n  tag_28\n  jumpi\n  pop\n    /* \"contracts/Manager.sol\":429:438  shardList */\n  0x02\n    /* \"contracts/Manager.sol\":439:451  currentShard */\n  0x03\n  0x01\n  swap1\n  sload\n  swap1\n  0x0100\n  exp\n  swap1\n  div\n  0xff\n  and\n    /* \"contracts/Manager.sol\":429:452  shardList[currentShard] */\n  0xff\n  and\n  dup2\n  sload\n  dup2\n  lt\n  tag_29\n  jumpi\n  tag_30\n  tag_31\n  jump\t// in\ntag_30:\ntag_29:\n  swap1\n  0x00\n  mstore\n  keccak256(0x00, 0x20)\n  swap1\n  0x03\n  mul\n  add\n    /* \"contracts/Manager.sol\":429:459  shardList[currentShard].active */\n  0x01\n  add\n  0x00\n  swap1\n  sload\n  swap1\n  0x0100\n  exp\n  swap1\n  div\n  0xff\n  and\n    /* \"contracts/Manager.sol\":428:459  !shardList[currentShard].active */\n  iszero\n    /* \"contracts/Manager.sol\":399:459  currentShard != loopShard && !shardList[currentShard].active */\ntag_28:\n    /* \"contracts/Manager.sol\":393:545  while(currentShard != loopShard && !shardList[currentShard].active){... */\n  iszero\n  tag_27\n  jumpi\n    /* \"contracts/Manager.sol\":516:525  shardList */\n  0x02\n    /* \"contracts/Manager.sol\":516:532  shardList.length */\n  dup1\n  sload\n  swap1\n  pop\n    /* \"contracts/Manager.sol\":511:512  1 */\n  0x01\n    /* \"contracts/Manager.sol\":496:508  currentShard */\n  0x03\n  0x01\n  swap1\n  sload\n  swap1\n  0x0100\n  exp\n  swap1\n  div\n  0xff\n  and\n    /* \"contracts/Manager.sol\":496:512  currentShard + 1 */\n  tag_33\n  swap2\n  swap1\n  tag_34\n  jump\t// in\ntag_33:\n    /* \"contracts/Manager.sol\":495:532  (currentShard + 1) % shardList.length */\n  0xff\n  and\n  tag_35\n  swap2\n  swap1\n  tag_25\n  jump\t// in\ntag_35:\n    /* \"contracts/Manager.sol\":474:486  currentShard */\n  0x03\n  0x01\n    /* \"contracts/Manager.sol\":474:533  currentShard = uint8((currentShard + 1) % shardList.length) */\n  0x0100\n  exp\n  dup2\n  sload\n  dup2\n  0xff\n  mul\n  not\n  and\n  swap1\n  dup4\n  0xff\n  and\n  mul\n  or\n  swap1\n  sstore\n  pop\n    /* \"contracts/Manager.sol\":393:545  while(currentShard != loopShard && !shardList[currentShard].active){... */\n  jump(tag_26)\ntag_27:\n    /* \"contracts/Manager.sol\":556:569  uint8 shardId */\n  0x00\n    /* \"contracts/Manager.sol\":572:581  shardList */\n  0x02\n    /* \"contracts/Manager.sol\":582:594  currentShard */\n  0x03\n  0x01\n  swap1\n  sload\n  swap1\n  0x0100\n  exp\n  swap1\n  div\n  0xff\n  and\n    /* \"contracts/Manager.sol\":572:595  shardList[currentShard] */\n  0xff\n  and\n  dup2\n  sload\n  dup2\n  lt\n  tag_36\n  jumpi\n  tag_37\n  tag_31\n  jump\t// in\ntag_37:\ntag_36:\n  swap1\n  0x00\n  mstore\n  keccak256(0x00, 0x20)\n  swap1\n  0x03\n  mul\n  add\n    /* \"contracts/Manager.sol\":572:602  shardList[currentShard].active */\n  0x01\n  add\n  0x00\n  swap1\n  sload\n  swap1\n  0x0100\n  exp\n  swap1\n  div\n  0xff\n  and\n    /* \"contracts/Manager.sol\":572:627  shardList[currentShard].active? currentShard : maxShard */\n  tag_39\n  jumpi\n    /* \"contracts/Manager.sol\":619:627  maxShard */\n  0x07\n  0x00\n  swap1\n  sload\n  swap1\n  0x0100\n  exp\n  swap1\n  div\n  0xff\n  and\n    /* \"contracts/Manager.sol\":572:627  shardList[currentShard].active? currentShard : maxShard */\n  jump(tag_40)\ntag_39:\n    /* \"contracts/Manager.sol\":604:616  currentShard */\n  0x03\n  0x01\n  swap1\n  sload\n  swap1\n  0x0100\n  exp\n  swap1\n  div\n  0xff\n  and\n    /* \"contracts/Manager.sol\":572:627  shardList[currentShard].active? currentShard : maxShard */\ntag_40:\n    /* \"contracts/Manager.sol\":556:627  uint8 shardId = shardList[currentShard].active? currentShard : maxShard */\n  swap1\n  pop\n    /* \"contracts/Manager.sol\":680:689  shardList */\n  0x02\n    /* \"contracts/Manager.sol\":680:696  shardList.length */\n  dup1\n  sload\n  swap1\n  pop\n    /* \"contracts/Manager.sol\":675:676  1 */\n  0x01\n    /* \"contracts/Manager.sol\":660:672  currentShard */\n  0x03\n  0x01\n  swap1\n  sload\n  swap1\n  0x0100\n  exp\n  swap1\n  div\n  0xff\n  and\n    /* \"contracts/Manager.sol\":660:676  currentShard + 1 */\n  tag_41\n  swap2\n  swap1\n  tag_34\n  jump\t// in\ntag_41:\n    /* \"contracts/Manager.sol\":659:696  (currentShard + 1) % shardList.length */\n  0xff\n  and\n  tag_42\n  swap2\n  swap1\n  tag_25\n  jump\t// in\ntag_42:\n    /* \"contracts/Manager.sol\":638:650  currentShard */\n  0x03\n  0x01\n    /* \"contracts/Manager.sol\":638:697  currentShard = uint8((currentShard + 1) % shardList.length) */\n  0x0100\n  exp\n  dup2\n  sload\n  dup2\n  0xff\n  mul\n  not\n  and\n  swap1\n  dup4\n  0xff\n  and\n  mul\n  or\n  swap1\n  sstore\n  pop\n    /* \"contracts/Manager.sol\":715:722  shardId */\n  dup1\n    /* \"contracts/Manager.sol\":708:722  return shardId */\n  swap3\n  pop\n  pop\n  pop\n    /* \"contracts/Manager.sol\":233:729  function defaultAlg() internal override returns(uint8) {... */\n  swap1\n  jump\t// out\n    /* \"contracts/Manager.sol\":735:1373  function minDeployAlg() internal view returns(uint8) {... */\ntag_14:\n    /* \"contracts/Manager.sol\":781:786  uint8 */\n  0x00\n    /* \"contracts/Manager.sol\":798:815  uint256 minDeploy */\n  dup1\n    /* \"contracts/Manager.sol\":825:838  uint8 shardId */\n  0x00\n    /* \"contracts/Manager.sol\":841:849  maxShard */\n  0x07\n  0x00\n  swap1\n  sload\n  swap1\n  0x0100\n  exp\n  swap1\n  div\n  0xff\n  and\n    /* \"contracts/Manager.sol\":825:849  uint8 shardId = maxShard */\n  swap1\n  pop\n    /* \"contracts/Manager.sol\":859:866  uint8 i */\n  0x00\n    /* \"contracts/Manager.sol\":877:964  for(i = 0; i < shardList.length && !shardList[i].active; i++){... */\ntag_44:\n    /* \"contracts/Manager.sol\":892:901  shardList */\n  0x02\n    /* \"contracts/Manager.sol\":892:908  shardList.length */\n  dup1\n  sload\n  swap1\n  pop\n    /* \"contracts/Manager.sol\":888:889  i */\n  dup2\n    /* \"contracts/Manager.sol\":888:908  i < shardList.length */\n  0xff\n  and\n  lt\n    /* \"contracts/Manager.sol\":888:932  i < shardList.length && !shardList[i].active */\n  dup1\n  iszero\n  tag_47\n  jumpi\n  pop\n    /* \"contracts/Manager.sol\":913:922  shardList */\n  0x02\n    /* \"contracts/Manager.sol\":923:924  i */\n  dup2\n    /* \"contracts/Manager.sol\":913:925  shardList[i] */\n  0xff\n  and\n  dup2\n  sload\n  dup2\n  lt\n  tag_48\n  jumpi\n  tag_49\n  tag_31\n  jump\t// in\ntag_49:\ntag_48:\n  swap1\n  0x00\n  mstore\n  keccak256(0x00, 0x20)\n  swap1\n  0x03\n  mul\n  add\n    /* \"contracts/Manager.sol\":913:932  shardList[i].active */\n  0x01\n  add\n  0x00\n  swap1\n  sload\n  swap1\n  0x0100\n  exp\n  swap1\n  div\n  0xff\n  and\n    /* \"contracts/Manager.sol\":912:932  !shardList[i].active */\n  iszero\n    /* \"contracts/Manager.sol\":888:932  i < shardList.length && !shardList[i].active */\ntag_47:\n    /* \"contracts/Manager.sol\":877:964  for(i = 0; i < shardList.length && !shardList[i].active; i++){... */\n  iszero\n  tag_45\n  jumpi\n    /* \"contracts/Manager.sol\":934:937  i++ */\n  dup1\n  dup1\n  tag_51\n  swap1\n  tag_52\n  jump\t// in\ntag_51:\n  swap2\n  pop\n  pop\n    /* \"contracts/Manager.sol\":877:964  for(i = 0; i < shardList.length && !shardList[i].active; i++){... */\n  jump(tag_44)\ntag_45:\n    /* \"contracts/Manager.sol\":981:990  shardList */\n  0x02\n    /* \"contracts/Manager.sol\":981:997  shardList.length */\n  dup1\n  sload\n  swap1\n  pop\n    /* \"contracts/Manager.sol\":977:978  i */\n  dup2\n    /* \"contracts/Manager.sol\":977:997  i < shardList.length */\n  0xff\n  and\n  lt\n    /* \"contracts/Manager.sol\":974:1342  if(i < shardList.length){... */\n  iszero\n  tag_53\n  jumpi\n    /* \"contracts/Manager.sol\":1022:1023  i */\n  dup1\n    /* \"contracts/Manager.sol\":1012:1023  shardId = i */\n  swap2\n  pop\n    /* \"contracts/Manager.sol\":1049:1058  shardList */\n  0x02\n    /* \"contracts/Manager.sol\":1059:1060  i */\n  dup2\n    /* \"contracts/Manager.sol\":1049:1061  shardList[i] */\n  0xff\n  and\n  dup2\n  sload\n  dup2\n  lt\n  tag_54\n  jumpi\n  tag_55\n  tag_31\n  jump\t// in\ntag_55:\ntag_54:\n  swap1\n  0x00\n  mstore\n  keccak256(0x00, 0x20)\n  swap1\n  0x03\n  mul\n  add\n    /* \"contracts/Manager.sol\":1049:1071  shardList[i].numDeploy */\n  0x02\n  add\n  sload\n    /* \"contracts/Manager.sol\":1037:1071  minDeploy = shardList[i].numDeploy */\n  swap3\n  pop\n    /* \"contracts/Manager.sol\":1090:1097  uint8 j */\n  0x00\n    /* \"contracts/Manager.sol\":1102:1103  1 */\n  0x01\n    /* \"contracts/Manager.sol\":1100:1101  i */\n  dup3\n    /* \"contracts/Manager.sol\":1100:1103  i+1 */\n  tag_60\n  swap2\n  swap1\n  tag_34\n  jump\t// in\ntag_60:\n    /* \"contracts/Manager.sol\":1090:1103  uint8 j = i+1 */\n  swap1\n  pop\n    /* \"contracts/Manager.sol\":1086:1332  for(uint8 j = i+1; j < shardList.length; j++){... */\ntag_57:\n    /* \"contracts/Manager.sol\":1109:1118  shardList */\n  0x02\n    /* \"contracts/Manager.sol\":1109:1125  shardList.length */\n  dup1\n  sload\n  swap1\n  pop\n    /* \"contracts/Manager.sol\":1105:1106  j */\n  dup2\n    /* \"contracts/Manager.sol\":1105:1125  j < shardList.length */\n  0xff\n  and\n  lt\n    /* \"contracts/Manager.sol\":1086:1332  for(uint8 j = i+1; j < shardList.length; j++){... */\n  iszero\n  tag_58\n  jumpi\n    /* \"contracts/Manager.sol\":1152:1161  shardList */\n  0x02\n    /* \"contracts/Manager.sol\":1162:1163  j */\n  dup2\n    /* \"contracts/Manager.sol\":1152:1164  shardList[j] */\n  0xff\n  and\n  dup2\n  sload\n  dup2\n  lt\n  tag_61\n  jumpi\n  tag_62\n  tag_31\n  jump\t// in\ntag_62:\ntag_61:\n  swap1\n  0x00\n  mstore\n  keccak256(0x00, 0x20)\n  swap1\n  0x03\n  mul\n  add\n    /* \"contracts/Manager.sol\":1152:1171  shardList[j].active */\n  0x01\n  add\n  0x00\n  swap1\n  sload\n  swap1\n  0x0100\n  exp\n  swap1\n  div\n  0xff\n  and\n    /* \"contracts/Manager.sol\":1152:1209  shardList[j].active && shardList[j].numDeploy < minDeploy */\n  dup1\n  iszero\n  tag_64\n  jumpi\n  pop\n    /* \"contracts/Manager.sol\":1200:1209  minDeploy */\n  dup4\n    /* \"contracts/Manager.sol\":1175:1184  shardList */\n  0x02\n    /* \"contracts/Manager.sol\":1185:1186  j */\n  dup3\n    /* \"contracts/Manager.sol\":1175:1187  shardList[j] */\n  0xff\n  and\n  dup2\n  sload\n  dup2\n  lt\n  tag_65\n  jumpi\n  tag_66\n  tag_31\n  jump\t// in\ntag_66:\ntag_65:\n  swap1\n  0x00\n  mstore\n  keccak256(0x00, 0x20)\n  swap1\n  0x03\n  mul\n  add\n    /* \"contracts/Manager.sol\":1175:1197  shardList[j].numDeploy */\n  0x02\n  add\n  sload\n    /* \"contracts/Manager.sol\":1175:1209  shardList[j].numDeploy < minDeploy */\n  lt\n    /* \"contracts/Manager.sol\":1152:1209  shardList[j].active && shardList[j].numDeploy < minDeploy */\ntag_64:\n    /* \"contracts/Manager.sol\":1149:1318  if(shardList[j].active && shardList[j].numDeploy < minDeploy){... */\n  iszero\n  tag_68\n  jumpi\n    /* \"contracts/Manager.sol\":1242:1243  j */\n  dup1\n    /* \"contracts/Manager.sol\":1232:1243  shardId = j */\n  swap3\n  pop\n    /* \"contracts/Manager.sol\":1277:1286  shardList */\n  0x02\n    /* \"contracts/Manager.sol\":1287:1288  j */\n  dup2\n    /* \"contracts/Manager.sol\":1277:1289  shardList[j] */\n  0xff\n  and\n  dup2\n  sload\n  dup2\n  lt\n  tag_69\n  jumpi\n  tag_70\n  tag_31\n  jump\t// in\ntag_70:\ntag_69:\n  swap1\n  0x00\n  mstore\n  keccak256(0x00, 0x20)\n  swap1\n  0x03\n  mul\n  add\n    /* \"contracts/Manager.sol\":1277:1299  shardList[j].numDeploy */\n  0x02\n  add\n  sload\n    /* \"contracts/Manager.sol\":1265:1299  minDeploy = shardList[j].numDeploy */\n  swap4\n  pop\n    /* \"contracts/Manager.sol\":1149:1318  if(shardList[j].active && shardList[j].numDeploy < minDeploy){... */\ntag_68:\n    /* \"contracts/Manager.sol\":1127:1130  j++ */\n  dup1\n  dup1\n  tag_72\n  swap1\n  tag_52\n  jump\t// in\ntag_72:\n  swap2\n  pop\n  pop\n    /* \"contracts/Manager.sol\":1086:1332  for(uint8 j = i+1; j < shardList.length; j++){... */\n  jump(tag_57)\ntag_58:\n  pop\n    /* \"contracts/Manager.sol\":974:1342  if(i < shardList.length){... */\ntag_53:\n    /* \"contracts/Manager.sol\":1359:1366  shardId */\n  dup2\n    /* \"contracts/Manager.sol\":1352:1366  return shardId */\n  swap4\n  pop\n  pop\n  pop\n  pop\n    /* \"contracts/Manager.sol\":735:1373  function minDeployAlg() internal view returns(uint8) {... */\n  swap1\n  jump\t// out\n    /* \"#utility.yul\":7:84   */\ntag_73:\n    /* \"#utility.yul\":44:51   */\n  0x00\n    /* \"#utility.yul\":73:78   */\n  dup2\n    /* \"#utility.yul\":62:78   */\n  swap1\n  pop\n    /* \"#utility.yul\":7:84   */\n  swap2\n  swap1\n  pop\n  jump\t// out\n    /* \"#utility.yul\":90:270   */\ntag_74:\n    /* \"#utility.yul\":138:215   */\n  0x4e487b7100000000000000000000000000000000000000000000000000000000\n    /* \"#utility.yul\":135:136   */\n  0x00\n    /* \"#utility.yul\":128:216   */\n  mstore\n    /* \"#utility.yul\":235:239   */\n  0x11\n    /* \"#utility.yul\":232:233   */\n  0x04\n    /* \"#utility.yul\":225:240   */\n  mstore\n    /* \"#utility.yul\":259:263   */\n  0x24\n    /* \"#utility.yul\":256:257   */\n  0x00\n    /* \"#utility.yul\":249:264   */\n  revert\n    /* \"#utility.yul\":276:467   */\ntag_21:\n    /* \"#utility.yul\":316:319   */\n  0x00\n    /* \"#utility.yul\":335:355   */\n  tag_81\n    /* \"#utility.yul\":353:354   */\n  dup3\n    /* \"#utility.yul\":335:355   */\n  tag_73\n  jump\t// in\ntag_81:\n    /* \"#utility.yul\":330:355   */\n  swap2\n  pop\n    /* \"#utility.yul\":369:389   */\n  tag_82\n    /* \"#utility.yul\":387:388   */\n  dup4\n    /* \"#utility.yul\":369:389   */\n  tag_73\n  jump\t// in\ntag_82:\n    /* \"#utility.yul\":364:389   */\n  swap3\n  pop\n    /* \"#utility.yul\":412:413   */\n  dup3\n    /* \"#utility.yul\":409:410   */\n  dup3\n    /* \"#utility.yul\":405:414   */\n  add\n    /* \"#utility.yul\":398:414   */\n  swap1\n  pop\n    /* \"#utility.yul\":433:436   */\n  dup1\n    /* \"#utility.yul\":430:431   */\n  dup3\n    /* \"#utility.yul\":427:437   */\n  gt\n    /* \"#utility.yul\":424:460   */\n  iszero\n  tag_83\n  jumpi\n    /* \"#utility.yul\":440:458   */\n  tag_84\n  tag_74\n  jump\t// in\ntag_84:\n    /* \"#utility.yul\":424:460   */\ntag_83:\n    /* \"#utility.yul\":276:467   */\n  swap3\n  swap2\n  pop\n  pop\n  jump\t// out\n    /* \"#utility.yul\":473:667   */\ntag_23:\n    /* \"#utility.yul\":513:517   */\n  0x00\n    /* \"#utility.yul\":533:553   */\n  tag_86\n    /* \"#utility.yul\":551:552   */\n  dup3\n    /* \"#utility.yul\":533:553   */\n  tag_73\n  jump\t// in\ntag_86:\n    /* \"#utility.yul\":528:553   */\n  swap2\n  pop\n    /* \"#utility.yul\":567:587   */\n  tag_87\n    /* \"#utility.yul\":585:586   */\n  dup4\n    /* \"#utility.yul\":567:587   */\n  tag_73\n  jump\t// in\ntag_87:\n    /* \"#utility.yul\":562:587   */\n  swap3\n  pop\n    /* \"#utility.yul\":611:612   */\n  dup3\n    /* \"#utility.yul\":608:609   */\n  dup3\n    /* \"#utility.yul\":604:613   */\n  sub\n    /* \"#utility.yul\":596:613   */\n  swap1\n  pop\n    /* \"#utility.yul\":635:636   */\n  dup2\n    /* \"#utility.yul\":629:633   */\n  dup2\n    /* \"#utility.yul\":626:637   */\n  gt\n    /* \"#utility.yul\":623:660   */\n  iszero\n  tag_88\n  jumpi\n    /* \"#utility.yul\":640:658   */\n  tag_89\n  tag_74\n  jump\t// in\ntag_89:\n    /* \"#utility.yul\":623:660   */\ntag_88:\n    /* \"#utility.yul\":473:667   */\n  swap3\n  swap2\n  pop\n  pop\n  jump\t// out\n    /* \"#utility.yul\":673:853   */\ntag_75:\n    /* \"#utility.yul\":721:798   */\n  0x4e487b7100000000000000000000000000000000000000000000000000000000\n    /* \"#utility.yul\":718:719   */\n  0x00\n    /* \"#utility.yul\":711:799   */\n  mstore\n    /* \"#utility.yul\":818:822   */\n  0x12\n    /* \"#utility.yul\":815:816   */\n  0x04\n    /* \"#utility.yul\":808:823   */\n  mstore\n    /* \"#utility.yul\":842:846   */\n  0x24\n    /* \"#utility.yul\":839:840   */\n  0x00\n    /* \"#utility.yul\":832:847   */\n  revert\n    /* \"#utility.yul\":859:1035   */\ntag_25:\n    /* \"#utility.yul\":891:892   */\n  0x00\n    /* \"#utility.yul\":908:928   */\n  tag_92\n    /* \"#utility.yul\":926:927   */\n  dup3\n    /* \"#utility.yul\":908:928   */\n  tag_73\n  jump\t// in\ntag_92:\n    /* \"#utility.yul\":903:928   */\n  swap2\n  pop\n    /* \"#utility.yul\":942:962   */\n  tag_93\n    /* \"#utility.yul\":960:961   */\n  dup4\n    /* \"#utility.yul\":942:962   */\n  tag_73\n  jump\t// in\ntag_93:\n    /* \"#utility.yul\":937:962   */\n  swap3\n  pop\n    /* \"#utility.yul\":981:982   */\n  dup3\n    /* \"#utility.yul\":971:1006   */\n  tag_94\n  jumpi\n    /* \"#utility.yul\":986:1004   */\n  tag_95\n  tag_75\n  jump\t// in\ntag_95:\n    /* \"#utility.yul\":971:1006   */\ntag_94:\n    /* \"#utility.yul\":1027:1028   */\n  dup3\n    /* \"#utility.yul\":1024:1025   */\n  dup3\n    /* \"#utility.yul\":1020:1029   */\n  mod\n    /* \"#utility.yul\":1015:1029   */\n  swap1\n  pop\n    /* \"#utility.yul\":859:1035   */\n  swap3\n  swap2\n  pop\n  pop\n  jump\t// out\n    /* \"#utility.yul\":1041:1221   */\ntag_31:\n    /* \"#utility.yul\":1089:1166   */\n  0x4e487b7100000000000000000000000000000000000000000000000000000000\n    /* \"#utility.yul\":1086:1087   */\n  0x00\n    /* \"#utility.yul\":1079:1167   */\n  mstore\n    /* \"#utility.yul\":1186:1190   */\n  0x32\n    /* \"#utility.yul\":1183:1184   */\n  0x04\n    /* \"#utility.yul\":1176:1191   */\n  mstore\n    /* \"#utility.yul\":1210:1214   */\n  0x24\n    /* \"#utility.yul\":1207:1208   */\n  0x00\n    /* \"#utility.yul\":1200:1215   */\n  revert\n    /* \"#utility.yul\":1227:1313   */\ntag_76:\n    /* \"#utility.yul\":1262:1269   */\n  0x00\n    /* \"#utility.yul\":1302:1306   */\n  0xff\n    /* \"#utility.yul\":1295:1300   */\n  dup3\n    /* \"#utility.yul\":1291:1307   */\n  and\n    /* \"#utility.yul\":1280:1307   */\n  swap1\n  pop\n    /* \"#utility.yul\":1227:1313   */\n  swap2\n  swap1\n  pop\n  jump\t// out\n    /* \"#utility.yul\":1319:1507   */\ntag_34:\n    /* \"#utility.yul\":1357:1360   */\n  0x00\n    /* \"#utility.yul\":1376:1394   */\n  tag_99\n    /* \"#utility.yul\":1392:1393   */\n  dup3\n    /* \"#utility.yul\":1376:1394   */\n  tag_76\n  jump\t// in\ntag_99:\n    /* \"#utility.yul\":1371:1394   */\n  swap2\n  pop\n    /* \"#utility.yul\":1408:1426   */\n  tag_100\n    /* \"#utility.yul\":1424:1425   */\n  dup4\n    /* \"#utility.yul\":1408:1426   */\n  tag_76\n  jump\t// in\ntag_100:\n    /* \"#utility.yul\":1403:1426   */\n  swap3\n  pop\n    /* \"#utility.yul\":1449:1450   */\n  dup3\n    /* \"#utility.yul\":1446:1447   */\n  dup3\n    /* \"#utility.yul\":1442:1451   */\n  add\n    /* \"#utility.yul\":1435:1451   */\n  swap1\n  pop\n    /* \"#utility.yul\":1472:1476   */\n  0xff\n    /* \"#utility.yul\":1467:1470   */\n  dup2\n    /* \"#utility.yul\":1464:1477   */\n  gt\n    /* \"#utility.yul\":1461:1500   */\n  iszero\n  tag_101\n  jumpi\n    /* \"#utility.yul\":1480:1498   */\n  tag_102\n  tag_74\n  jump\t// in\ntag_102:\n    /* \"#utility.yul\":1461:1500   */\ntag_101:\n    /* \"#utility.yul\":1319:1507   */\n  swap3\n  swap2\n  pop\n  pop\n  jump\t// out\n    /* \"#utility.yul\":1513:1680   */\ntag_52:\n    /* \"#utility.yul\":1550:1553   */\n  0x00\n    /* \"#utility.yul\":1573:1595   */\n  tag_104\n    /* \"#utility.yul\":1589:1594   */\n  dup3\n    /* \"#utility.yul\":1573:1595   */\n  tag_76\n  jump\t// in\ntag_104:\n    /* \"#utility.yul\":1564:1595   */\n  swap2\n  pop\n    /* \"#utility.yul\":1617:1621   */\n  0xff\n    /* \"#utility.yul\":1610:1615   */\n  dup3\n    /* \"#utility.yul\":1607:1622   */\n  sub\n    /* \"#utility.yul\":1604:1645   */\n  tag_105\n  jumpi\n    /* \"#utility.yul\":1625:1643   */\n  tag_106\n  tag_74\n  jump\t// in\ntag_106:\n    /* \"#utility.yul\":1604:1645   */\ntag_105:\n    /* \"#utility.yul\":1672:1673   */\n  0x01\n    /* \"#utility.yul\":1665:1670   */\n  dup3\n    /* \"#utility.yul\":1661:1674   */\n  add\n    /* \"#utility.yul\":1654:1674   */\n  swap1\n  pop\n    /* \"#utility.yul\":1513:1680   */\n  swap2\n  swap1\n  pop\n  jump\t// out\n    /* \"contracts/Manager.sol\":110:1403  contract Manager is AbstractManager{... */\ntag_16:\n  dataSize(sub_0)\n  dup1\n  dataOffset(sub_0)\n  0x00\n  codecopy\n  0x00\n  return\nstop\n\nsub_0: assembly {\n        /* \"contracts/Manager.sol\":110:1403  contract Manager is AbstractManager{... */\n      mstore(0x40, 0x80)\n      callvalue\n      dup1\n      iszero\n      tag_1\n      jumpi\n      0x00\n      dup1\n      revert\n    tag_1:\n      pop\n      jumpi(tag_2, lt(calldatasize, 0x04))\n      shr(0xe0, calldataload(0x00))\n      dup1\n      0x8da5cb5b\n      gt\n      tag_18\n      jumpi\n      dup1\n      0xc0981b26\n      gt\n      tag_19\n      jumpi\n      dup1\n      0xc0981b26\n      eq\n      tag_14\n      jumpi\n      dup1\n      0xca989659\n      eq\n      tag_15\n      jumpi\n      dup1\n      0xf2fde38b\n      eq\n      tag_16\n      jumpi\n      dup1\n      0xf335f7ac\n      eq\n      tag_17\n      jumpi\n      jump(tag_2)\n    tag_19:\n      dup1\n      0x8da5cb5b\n      eq\n      tag_10\n      jumpi\n      dup1\n      0x9552bca7\n      eq\n      tag_11\n      jumpi\n      dup1\n      0x98c20543\n      eq\n      tag_12\n      jumpi\n      dup1\n      0xa07ca635\n      eq\n      tag_13\n      jumpi\n      jump(tag_2)\n    tag_18:\n      dup1\n      0x65a88003\n      gt\n      tag_20\n      jumpi\n      dup1\n      0x65a88003\n      eq\n      tag_6\n      jumpi\n      dup1\n      0x715018a6\n      eq\n      tag_7\n      jumpi\n      dup1\n      0x7adbf973\n      eq\n      tag_8\n      jumpi\n      dup1\n      0x8291286c\n      eq\n      tag_9\n      jumpi\n      jump(tag_2)\n    tag_20:\n      dup1\n      0x19b4a0f9\n      eq\n      tag_3\n      jumpi\n      dup1\n      0x608c2db5\n      eq\n      tag_4\n      jumpi\n      dup1\n      0x613eb17d\n      eq\n      tag_5\n      jumpi\n    tag_2:\n      0x00\n      dup1\n      revert\n        /* \"contracts/AbstractManager.sol\":4510:5158  function fullfillDeploy(uint256 id, bool result) external oracleInitialized onlyOracle ... */\n    tag_3:\n      tag_21\n      0x04\n      dup1\n      calldatasize\n      sub\n      dup2\n      add\n      swap1\n      tag_22\n      swap2\n      swap1\n      tag_23\n      jump\t// in\n    tag_22:\n      tag_24\n      jump\t// in\n    tag_21:\n      stop\n        /* \"contracts/AbstractManager.sol\":1003:1028  Shard [] public shardList */\n    tag_4:\n      tag_25\n      0x04\n      dup1\n      calldatasize\n      sub\n      dup2\n      add\n      swap1\n      tag_26\n      swap2\n      swap1\n      tag_27\n      jump\t// in\n    tag_26:\n      tag_28\n      jump\t// in\n    tag_25:\n      mload(0x40)\n      tag_29\n      swap4\n      swap3\n      swap2\n      swap1\n      tag_30\n      jump\t// in\n    tag_29:\n      mload(0x40)\n      dup1\n      swap2\n      sub\n      swap1\n      return\n        /* \"contracts/AbstractManager.sol\":919:964  mapping(uint256 => Contract) public deployMap */\n    tag_5:\n      tag_31\n      0x04\n      dup1\n      calldatasize\n      sub\n      dup2\n      add\n      swap1\n      tag_32\n      swap2\n      swap1\n      tag_27\n      jump\t// in\n    tag_32:\n      tag_33\n      jump\t// in\n    tag_31:\n      mload(0x40)\n      tag_34\n      swap7\n      swap6\n      swap5\n      swap4\n      swap3\n      swap2\n      swap1\n      tag_35\n      jump\t// in\n    tag_34:\n      mload(0x40)\n      dup1\n      swap2\n      sub\n      swap1\n      return\n        /* \"contracts/AbstractManager.sol\":1690:1968  function addShard(string calldata url, bool active) external onlyOwner maxShards{... */\n    tag_6:\n      tag_36\n      0x04\n      dup1\n      calldatasize\n      sub\n      dup2\n      add\n      swap1\n      tag_37\n      swap2\n      swap1\n      tag_38\n      jump\t// in\n    tag_37:\n      tag_39\n      jump\t// in\n    tag_36:\n      stop\n        /* \"@openzeppelin/contracts/access/Ownable.sol\":1831:1932  function renounceOwnership() public virtual onlyOwner {... */\n    tag_7:\n      tag_40\n      tag_41\n      jump\t// in\n    tag_40:\n      stop\n        /* \"contracts/AbstractManager.sol\":1534:1684  function setOracle(address newAddress) external onlyOwner {... */\n    tag_8:\n      tag_42\n      0x04\n      dup1\n      calldatasize\n      sub\n      dup2\n      add\n      swap1\n      tag_43\n      swap2\n      swap1\n      tag_44\n      jump\t// in\n    tag_43:\n      tag_45\n      jump\t// in\n    tag_42:\n      stop\n        /* \"contracts/AbstractManager.sol\":1303:1328  uint256 public contractId */\n    tag_9:\n      tag_46\n      tag_47\n      jump\t// in\n    tag_46:\n      mload(0x40)\n      tag_48\n      swap2\n      swap1\n      tag_49\n      jump\t// in\n    tag_48:\n      mload(0x40)\n      dup1\n      swap2\n      sub\n      swap1\n      return\n        /* \"@openzeppelin/contracts/access/Ownable.sol\":1201:1286  function owner() public view virtual returns (address) {... */\n    tag_10:\n      tag_50\n      tag_51\n      jump\t// in\n    tag_50:\n      mload(0x40)\n      tag_52\n      swap2\n      swap1\n      tag_53\n      jump\t// in\n    tag_52:\n      mload(0x40)\n      dup1\n      swap2\n      sub\n      swap1\n      return\n        /* \"contracts/AbstractManager.sol\":3975:4439  function declareDel(uint256 id) external oracleInitialized checkDeployReserver(id)... */\n    tag_11:\n      tag_54\n      0x04\n      dup1\n      calldatasize\n      sub\n      dup2\n      add\n      swap1\n      tag_55\n      swap2\n      swap1\n      tag_27\n      jump\t// in\n    tag_55:\n      tag_56\n      jump\t// in\n    tag_54:\n      stop\n        /* \"contracts/AbstractManager.sol\":2002:2143  function setAlg(uint8 newAlg) external onlyOwner algExists(newAlg){... */\n    tag_12:\n      tag_57\n      0x04\n      dup1\n      calldatasize\n      sub\n      dup2\n      add\n      swap1\n      tag_58\n      swap2\n      swap1\n      tag_59\n      jump\t// in\n    tag_58:\n      tag_60\n      jump\t// in\n    tag_57:\n      stop\n        /* \"contracts/AbstractManager.sol\":5235:5813  function fullfillDelete(uint256 id, bool result) external oracleInitialized onlyOracle ... */\n    tag_13:\n      tag_61\n      0x04\n      dup1\n      calldatasize\n      sub\n      dup2\n      add\n      swap1\n      tag_62\n      swap2\n      swap1\n      tag_23\n      jump\t// in\n    tag_62:\n      tag_63\n      jump\t// in\n    tag_61:\n      stop\n        /* \"contracts/AbstractManager.sol\":3358:3939  function declareDeploy(uint256 id, bytes20 addr, string calldata name) external oracleInitialized checkDeployReserver(id)... */\n    tag_14:\n      tag_64\n      0x04\n      dup1\n      calldatasize\n      sub\n      dup2\n      add\n      swap1\n      tag_65\n      swap2\n      swap1\n      tag_66\n      jump\t// in\n    tag_65:\n      tag_67\n      jump\t// in\n    tag_64:\n      stop\n        /* \"contracts/AbstractManager.sol\":2736:3327  function reserveDeploy() external atLeastOneShard returns(uint256, string memory){... */\n    tag_15:\n      tag_68\n      tag_69\n      jump\t// in\n    tag_68:\n      mload(0x40)\n      tag_70\n      swap3\n      swap2\n      swap1\n      tag_71\n      jump\t// in\n    tag_70:\n      mload(0x40)\n      dup1\n      swap2\n      sub\n      swap1\n      return\n        /* \"@openzeppelin/contracts/access/Ownable.sol\":2081:2279  function transferOwnership(address newOwner) public virtual onlyOwner {... */\n    tag_16:\n      tag_72\n      0x04\n      dup1\n      calldatasize\n      sub\n      dup2\n      add\n      swap1\n      tag_73\n      swap2\n      swap1\n      tag_44\n      jump\t// in\n    tag_73:\n      tag_74\n      jump\t// in\n    tag_72:\n      stop\n        /* \"contracts/AbstractManager.sol\":2174:2317  function setShardStatus(uint8 shardId, bool status) external onlyOwner shardExists(shardId) {... */\n    tag_17:\n      tag_75\n      0x04\n      dup1\n      calldatasize\n      sub\n      dup2\n      add\n      swap1\n      tag_76\n      swap2\n      swap1\n      tag_77\n      jump\t// in\n    tag_76:\n      tag_78\n      jump\t// in\n    tag_75:\n      stop\n        /* \"contracts/AbstractManager.sol\":4510:5158  function fullfillDeploy(uint256 id, bool result) external oracleInitialized onlyOracle ... */\n    tag_24:\n        /* \"contracts/AbstractManager.sol\":6500:6501  0 */\n      0x00\n        /* \"contracts/AbstractManager.sol\":6467:6503  oracle != AbstractOracle(address(0)) */\n      0xffffffffffffffffffffffffffffffffffffffff\n      and\n        /* \"contracts/AbstractManager.sol\":6467:6473  oracle */\n      0x05\n      0x00\n      swap1\n      sload\n      swap1\n      0x0100\n      exp\n      swap1\n      div\n      0xffffffffffffffffffffffffffffffffffffffff\n      and\n        /* \"contracts/AbstractManager.sol\":6467:6503  oracle != AbstractOracle(address(0)) */\n      0xffffffffffffffffffffffffffffffffffffffff\n      and\n      sub\n        /* \"contracts/AbstractManager.sol\":6459:6530  require(oracle != AbstractOracle(address(0)), \"Oracle not initialized\") */\n      tag_82\n      jumpi\n      mload(0x40)\n      0x08c379a000000000000000000000000000000000000000000000000000000000\n      dup2\n      mstore\n      0x04\n      add\n      tag_83\n      swap1\n      tag_84\n      jump\t// in\n    tag_83:\n      mload(0x40)\n      dup1\n      swap2\n      sub\n      swap1\n      revert\n    tag_82:\n        /* \"contracts/AbstractManager.sol\":5985:5991  oracle */\n      0x05\n      0x00\n      swap1\n      sload\n      swap1\n      0x0100\n      exp\n      swap1\n      div\n      0xffffffffffffffffffffffffffffffffffffffff\n      and\n        /* \"contracts/AbstractManager.sol\":5963:5992  msg.sender == address(oracle) */\n      0xffffffffffffffffffffffffffffffffffffffff\n      and\n        /* \"contracts/AbstractManager.sol\":5963:5973  msg.sender */\n      caller\n        /* \"contracts/AbstractManager.sol\":5963:5992  msg.sender == address(oracle) */\n      0xffffffffffffffffffffffffffffffffffffffff\n      and\n      eq\n        /* \"contracts/AbstractManager.sol\":5955:6017  require(msg.sender == address(oracle), \"Caller is not oracle\") */\n      tag_86\n      jumpi\n      mload(0x40)\n      0x08c379a000000000000000000000000000000000000000000000000000000000\n      dup2\n      mstore\n      0x04\n      add\n      tag_87\n      swap1\n      tag_88\n      jump\t// in\n    tag_87:\n      mload(0x40)\n      dup1\n      swap2\n      sub\n      swap1\n      revert\n    tag_86:\n        /* \"contracts/AbstractManager.sol\":4628:4630  id */\n      dup2\n        /* \"contracts/AbstractManager.sol\":4631:4652  Status.PENDING_DEPLOY */\n      0x02\n        /* \"contracts/AbstractManager.sol\":6368:6374  status */\n      dup1\n        /* \"contracts/AbstractManager.sol\":6344:6374  deployMap[id].status == status */\n      0x04\n      dup2\n      gt\n      iszero\n      tag_90\n      jumpi\n      tag_91\n      tag_92\n      jump\t// in\n    tag_91:\n    tag_90:\n        /* \"contracts/AbstractManager.sol\":6344:6353  deployMap */\n      0x01\n        /* \"contracts/AbstractManager.sol\":6344:6357  deployMap[id] */\n      0x00\n        /* \"contracts/AbstractManager.sol\":6354:6356  id */\n      dup5\n        /* \"contracts/AbstractManager.sol\":6344:6357  deployMap[id] */\n      dup2\n      mstore\n      0x20\n      add\n      swap1\n      dup2\n      mstore\n      0x20\n      add\n      0x00\n      keccak256\n        /* \"contracts/AbstractManager.sol\":6344:6364  deployMap[id].status */\n      0x04\n      add\n      0x00\n      swap1\n      sload\n      swap1\n      0x0100\n      exp\n      swap1\n      div\n      0xff\n      and\n        /* \"contracts/AbstractManager.sol\":6344:6374  deployMap[id].status == status */\n      0x04\n      dup2\n      gt\n      iszero\n      tag_93\n      jumpi\n      tag_94\n      tag_92\n      jump\t// in\n    tag_94:\n    tag_93:\n      eq\n        /* \"contracts/AbstractManager.sol\":6336:6397  require(deployMap[id].status == status, \"Deploy state error\") */\n      tag_95\n      jumpi\n      mload(0x40)\n      0x08c379a000000000000000000000000000000000000000000000000000000000\n      dup2\n      mstore\n      0x04\n      add\n      tag_96\n      swap1\n      tag_97\n      jump\t// in\n    tag_96:\n      mload(0x40)\n      dup1\n      swap2\n      sub\n      swap1\n      revert\n    tag_95:\n        /* \"contracts/AbstractManager.sol\":4664:4677  uint8 shardId */\n      0x00\n        /* \"contracts/AbstractManager.sol\":4679:4698  string memory shard */\n      dup1\n        /* \"contracts/AbstractManager.sol\":4700:4712  bytes20 addr */\n      0x00\n        /* \"contracts/AbstractManager.sol\":4714:4732  string memory name */\n      dup1\n        /* \"contracts/AbstractManager.sol\":4736:4757  getInfoByDeployId(id) */\n      tag_99\n        /* \"contracts/AbstractManager.sol\":4754:4756  id */\n      dup9\n        /* \"contracts/AbstractManager.sol\":4736:4753  getInfoByDeployId */\n      tag_100\n        /* \"contracts/AbstractManager.sol\":4736:4757  getInfoByDeployId(id) */\n      jump\t// in\n    tag_99:\n        /* \"contracts/AbstractManager.sol\":4663:4757  (uint8 shardId, string memory shard, bytes20 addr, string memory name) = getInfoByDeployId(id) */\n      swap4\n      pop\n      swap4\n      pop\n      swap4\n      pop\n      swap4\n      pop\n        /* \"contracts/AbstractManager.sol\":4770:4776  result */\n      dup7\n        /* \"contracts/AbstractManager.sol\":4767:5152  if(result){... */\n      iszero\n      tag_101\n      jumpi\n        /* \"contracts/AbstractManager.sol\":4814:4829  Status.DEPLOYED */\n      0x03\n        /* \"contracts/AbstractManager.sol\":4791:4800  deployMap */\n      0x01\n        /* \"contracts/AbstractManager.sol\":4791:4804  deployMap[id] */\n      0x00\n        /* \"contracts/AbstractManager.sol\":4801:4803  id */\n      dup11\n        /* \"contracts/AbstractManager.sol\":4791:4804  deployMap[id] */\n      dup2\n      mstore\n      0x20\n      add\n      swap1\n      dup2\n      mstore\n      0x20\n      add\n      0x00\n      keccak256\n        /* \"contracts/AbstractManager.sol\":4791:4811  deployMap[id].status */\n      0x04\n      add\n      0x00\n        /* \"contracts/AbstractManager.sol\":4791:4829  deployMap[id].status = Status.DEPLOYED */\n      0x0100\n      exp\n      dup2\n      sload\n      dup2\n      0xff\n      mul\n      not\n      and\n      swap1\n      dup4\n      0x04\n      dup2\n      gt\n      iszero\n      tag_102\n      jumpi\n      tag_103\n      tag_92\n      jump\t// in\n    tag_103:\n    tag_102:\n      mul\n      or\n      swap1\n      sstore\n      pop\n        /* \"contracts/AbstractManager.sol\":4848:4895  DeployConfirmed(id, shardId, shard, addr, name) */\n      0xfc0e41f3f5d509cf16934162c0fb5020db934ae90a7498d8b479568589ffccd1\n        /* \"contracts/AbstractManager.sol\":4864:4866  id */\n      dup9\n        /* \"contracts/AbstractManager.sol\":4868:4875  shardId */\n      dup6\n        /* \"contracts/AbstractManager.sol\":4877:4882  shard */\n      dup6\n        /* \"contracts/AbstractManager.sol\":4884:4888  addr */\n      dup6\n        /* \"contracts/AbstractManager.sol\":4890:4894  name */\n      dup6\n        /* \"contracts/AbstractManager.sol\":4848:4895  DeployConfirmed(id, shardId, shard, addr, name) */\n      mload(0x40)\n      tag_104\n      swap6\n      swap5\n      swap4\n      swap3\n      swap2\n      swap1\n      tag_105\n      jump\t// in\n    tag_104:\n      mload(0x40)\n      dup1\n      swap2\n      sub\n      swap1\n      log1\n        /* \"contracts/AbstractManager.sol\":4767:5152  if(result){... */\n      jump(tag_106)\n    tag_101:\n        /* \"contracts/AbstractManager.sol\":4940:4949  deployMap */\n      0x01\n        /* \"contracts/AbstractManager.sol\":4940:4953  deployMap[id] */\n      0x00\n        /* \"contracts/AbstractManager.sol\":4950:4952  id */\n      dup10\n        /* \"contracts/AbstractManager.sol\":4940:4953  deployMap[id] */\n      dup2\n      mstore\n      0x20\n      add\n      swap1\n      dup2\n      mstore\n      0x20\n      add\n      0x00\n      keccak256\n      0x00\n        /* \"contracts/AbstractManager.sol\":4933:4953  delete deployMap[id] */\n      dup1\n      dup3\n      add\n      exp(0x0100, 0x00)\n      dup2\n      sload\n      swap1\n      0xff\n      mul\n      not\n      and\n      swap1\n      sstore\n      0x00\n      dup3\n      add\n      exp(0x0100, 0x01)\n      dup2\n      sload\n      swap1\n      0xffffffffffffffffffffffffffffffffffffffff\n      mul\n      not\n      and\n      swap1\n      sstore\n      0x01\n      dup3\n      add\n      0x00\n      tag_107\n      swap2\n      swap1\n      tag_108\n      jump\t// in\n    tag_107:\n      0x02\n      dup3\n      add\n      exp(0x0100, 0x00)\n      dup2\n      sload\n      swap1\n      0xffffffffffffffffffffffffffffffffffffffff\n      mul\n      not\n      and\n      swap1\n      sstore\n      0x03\n      dup3\n      add\n      0x00\n      swap1\n      sstore\n      0x04\n      dup3\n      add\n      exp(0x0100, 0x00)\n      dup2\n      sload\n      swap1\n      0xff\n      mul\n      not\n      and\n      swap1\n      sstore\n      pop\n      pop\n        /* \"contracts/AbstractManager.sol\":5042:5051  shardList */\n      0x02\n        /* \"contracts/AbstractManager.sol\":5052:5059  shardId */\n      dup5\n        /* \"contracts/AbstractManager.sol\":5042:5060  shardList[shardId] */\n      0xff\n      and\n      dup2\n      sload\n      dup2\n      lt\n      tag_109\n      jumpi\n      tag_110\n      tag_111\n      jump\t// in\n    tag_110:\n    tag_109:\n      swap1\n      0x00\n      mstore\n      keccak256(0x00, 0x20)\n      swap1\n      0x03\n      mul\n      add\n        /* \"contracts/AbstractManager.sol\":5042:5070  shardList[shardId].numDeploy */\n      0x02\n      add\n      0x00\n        /* \"contracts/AbstractManager.sol\":5042:5072  shardList[shardId].numDeploy-- */\n      dup2\n      sload\n      dup1\n      swap3\n      swap2\n      swap1\n      tag_113\n      swap1\n      tag_114\n      jump\t// in\n    tag_113:\n      swap2\n      swap1\n      pop\n      sstore\n      pop\n        /* \"contracts/AbstractManager.sol\":5091:5141  DeployNotConfirmed(id, shardId, shard, addr, name) */\n      0x018740aef37e3c4899e9f4d59558109dd1e1dbeb955703c419beebde38696517\n        /* \"contracts/AbstractManager.sol\":5110:5112  id */\n      dup9\n        /* \"contracts/AbstractManager.sol\":5114:5121  shardId */\n      dup6\n        /* \"contracts/AbstractManager.sol\":5123:5128  shard */\n      dup6\n        /* \"contracts/AbstractManager.sol\":5130:5134  addr */\n      dup6\n        /* \"contracts/AbstractManager.sol\":5136:5140  name */\n      dup6\n        /* \"contracts/AbstractManager.sol\":5091:5141  DeployNotConfirmed(id, shardId, shard, addr, name) */\n      mload(0x40)\n      tag_115\n      swap6\n      swap5\n      swap4\n      swap3\n      swap2\n      swap1\n      tag_105\n      jump\t// in\n    tag_115:\n      mload(0x40)\n      dup1\n      swap2\n      sub\n      swap1\n      log1\n        /* \"contracts/AbstractManager.sol\":4767:5152  if(result){... */\n    tag_106:\n        /* \"contracts/AbstractManager.sol\":4653:5158  {... */\n      pop\n      pop\n      pop\n      pop\n        /* \"contracts/AbstractManager.sol\":6027:6028  _ */\n      pop\n      pop\n        /* \"contracts/AbstractManager.sol\":4510:5158  function fullfillDeploy(uint256 id, bool result) external oracleInitialized onlyOracle ... */\n      pop\n      pop\n      jump\t// out\n        /* \"contracts/AbstractManager.sol\":1003:1028  Shard [] public shardList */\n    tag_28:\n      0x02\n      dup2\n      dup2\n      sload\n      dup2\n      lt\n      tag_116\n      jumpi\n      0x00\n      dup1\n      revert\n    tag_116:\n      swap1\n      0x00\n      mstore\n      keccak256(0x00, 0x20)\n      swap1\n      0x03\n      mul\n      add\n      0x00\n      swap2\n      pop\n      swap1\n      pop\n      dup1\n      0x00\n      add\n      dup1\n      sload\n      tag_118\n      swap1\n      tag_119\n      jump\t// in\n    tag_118:\n      dup1\n      0x1f\n      add\n      0x20\n      dup1\n      swap2\n      div\n      mul\n      0x20\n      add\n      mload(0x40)\n      swap1\n      dup2\n      add\n      0x40\n      mstore\n      dup1\n      swap3\n      swap2\n      swap1\n      dup2\n      dup2\n      mstore\n      0x20\n      add\n      dup3\n      dup1\n      sload\n      tag_120\n      swap1\n      tag_119\n      jump\t// in\n    tag_120:\n      dup1\n      iszero\n      tag_121\n      jumpi\n      dup1\n      0x1f\n      lt\n      tag_122\n      jumpi\n      0x0100\n      dup1\n      dup4\n      sload\n      div\n      mul\n      dup4\n      mstore\n      swap2\n      0x20\n      add\n      swap2\n      jump(tag_121)\n    tag_122:\n      dup3\n      add\n      swap2\n      swap1\n      0x00\n      mstore\n      keccak256(0x00, 0x20)\n      swap1\n    tag_123:\n      dup2\n      sload\n      dup2\n      mstore\n      swap1\n      0x01\n      add\n      swap1\n      0x20\n      add\n      dup1\n      dup4\n      gt\n      tag_123\n      jumpi\n      dup3\n      swap1\n      sub\n      0x1f\n      and\n      dup3\n      add\n      swap2\n    tag_121:\n      pop\n      pop\n      pop\n      pop\n      pop\n      swap1\n      dup1\n      0x01\n      add\n      0x00\n      swap1\n      sload\n      swap1\n      0x0100\n      exp\n      swap1\n      div\n      0xff\n      and\n      swap1\n      dup1\n      0x02\n      add\n      sload\n      swap1\n      pop\n      dup4\n      jump\t// out\n        /* \"contracts/AbstractManager.sol\":919:964  mapping(uint256 => Contract) public deployMap */\n    tag_33:\n      mstore(0x20, 0x01)\n      dup1\n      0x00\n      mstore\n      keccak256(0x00, 0x40)\n      0x00\n      swap2\n      pop\n      swap1\n      pop\n      dup1\n      0x00\n      add\n      0x00\n      swap1\n      sload\n      swap1\n      0x0100\n      exp\n      swap1\n      div\n      0xff\n      and\n      swap1\n      dup1\n      0x00\n      add\n      0x01\n      swap1\n      sload\n      swap1\n      0x0100\n      exp\n      swap1\n      div\n      0x60\n      shl\n      swap1\n      dup1\n      0x01\n      add\n      dup1\n      sload\n      tag_124\n      swap1\n      tag_119\n      jump\t// in\n    tag_124:\n      dup1\n      0x1f\n      add\n      0x20\n      dup1\n      swap2\n      div\n      mul\n      0x20\n      add\n      mload(0x40)\n      swap1\n      dup2\n      add\n      0x40\n      mstore\n      dup1\n      swap3\n      swap2\n      swap1\n      dup2\n      dup2\n      mstore\n      0x20\n      add\n      dup3\n      dup1\n      sload\n      tag_125\n      swap1\n      tag_119\n      jump\t// in\n    tag_125:\n      dup1\n      iszero\n      tag_126\n      jumpi\n      dup1\n      0x1f\n      lt\n      tag_127\n      jumpi\n      0x0100\n      dup1\n      dup4\n      sload\n      div\n      mul\n      dup4\n      mstore\n      swap2\n      0x20\n      add\n      swap2\n      jump(tag_126)\n    tag_127:\n      dup3\n      add\n      swap2\n      swap1\n      0x00\n      mstore\n      keccak256(0x00, 0x20)\n      swap1\n    tag_128:\n      dup2\n      sload\n      dup2\n      mstore\n      swap1\n      0x01\n      add\n      swap1\n      0x20\n      add\n      dup1\n      dup4\n      gt\n      tag_128\n      jumpi\n      dup3\n      swap1\n      sub\n      0x1f\n      and\n      dup3\n      add\n      swap2\n    tag_126:\n      pop\n      pop\n      pop\n      pop\n      pop\n      swap1\n      dup1\n      0x02\n      add\n      0x00\n      swap1\n      sload\n      swap1\n      0x0100\n      exp\n      swap1\n      div\n      0xffffffffffffffffffffffffffffffffffffffff\n      and\n      swap1\n      dup1\n      0x03\n      add\n      sload\n      swap1\n      dup1\n      0x04\n      add\n      0x00\n      swap1\n      sload\n      swap1\n      0x0100\n      exp\n      swap1\n      div\n      0xff\n      and\n      swap1\n      pop\n      dup7\n      jump\t// out\n        /* \"contracts/AbstractManager.sol\":1690:1968  function addShard(string calldata url, bool active) external onlyOwner maxShards{... */\n    tag_39:\n        /* \"@openzeppelin/contracts/access/Ownable.sol\":1094:1107  _checkOwner() */\n      tag_130\n        /* \"@openzeppelin/contracts/access/Ownable.sol\":1094:1105  _checkOwner */\n      tag_131\n        /* \"@openzeppelin/contracts/access/Ownable.sol\":1094:1107  _checkOwner() */\n      jump\t// in\n    tag_130:\n        /* \"contracts/AbstractManager.sol\":6211:6219  maxShard */\n      0x07\n      0x00\n      swap1\n      sload\n      swap1\n      0x0100\n      exp\n      swap1\n      div\n      0xff\n      and\n        /* \"contracts/AbstractManager.sol\":6191:6219  shardList.length <= maxShard */\n      0xff\n      and\n        /* \"contracts/AbstractManager.sol\":6191:6200  shardList */\n      0x02\n        /* \"contracts/AbstractManager.sol\":6191:6207  shardList.length */\n      dup1\n      sload\n      swap1\n      pop\n        /* \"contracts/AbstractManager.sol\":6191:6219  shardList.length <= maxShard */\n      gt\n      iszero\n        /* \"contracts/AbstractManager.sol\":6183:6250  require(shardList.length <= maxShard, \"No more shard can be added\") */\n      tag_133\n      jumpi\n      mload(0x40)\n      0x08c379a000000000000000000000000000000000000000000000000000000000\n      dup2\n      mstore\n      0x04\n      add\n      tag_134\n      swap1\n      tag_135\n      jump\t// in\n    tag_134:\n      mload(0x40)\n      dup1\n      swap2\n      sub\n      swap1\n      revert\n    tag_133:\n        /* \"contracts/AbstractManager.sol\":1832:1841  shardList */\n      0x02\n        /* \"contracts/AbstractManager.sol\":1847:1868  Shard(url, active, 0) */\n      mload(0x40)\n      dup1\n      0x60\n      add\n      0x40\n      mstore\n      dup1\n        /* \"contracts/AbstractManager.sol\":1853:1856  url */\n      dup6\n      dup6\n        /* \"contracts/AbstractManager.sol\":1847:1868  Shard(url, active, 0) */\n      dup1\n      dup1\n      0x1f\n      add\n      0x20\n      dup1\n      swap2\n      div\n      mul\n      0x20\n      add\n      mload(0x40)\n      swap1\n      dup2\n      add\n      0x40\n      mstore\n      dup1\n      swap4\n      swap3\n      swap2\n      swap1\n      dup2\n      dup2\n      mstore\n      0x20\n      add\n      dup4\n      dup4\n      dup1\n      dup3\n      dup5\n      calldatacopy\n      0x00\n      dup2\n      dup5\n      add\n      mstore\n      not(0x1f)\n      0x1f\n      dup3\n      add\n      and\n      swap1\n      pop\n      dup1\n      dup4\n      add\n      swap3\n      pop\n      pop\n      pop\n      pop\n      pop\n      pop\n      pop\n      dup2\n      mstore\n      0x20\n      add\n        /* \"contracts/AbstractManager.sol\":1858:1864  active */\n      dup4\n        /* \"contracts/AbstractManager.sol\":1847:1868  Shard(url, active, 0) */\n      iszero\n      iszero\n      dup2\n      mstore\n      0x20\n      add\n        /* \"contracts/AbstractManager.sol\":1866:1867  0 */\n      0x00\n        /* \"contracts/AbstractManager.sol\":1847:1868  Shard(url, active, 0) */\n      dup2\n      mstore\n      pop\n        /* \"contracts/AbstractManager.sol\":1832:1869  shardList.push(Shard(url, active, 0)) */\n      swap1\n      dup1\n      0x01\n      dup2\n      sload\n      add\n      dup1\n      dup3\n      sstore\n      dup1\n      swap2\n      pop\n      pop\n      0x01\n      swap1\n      sub\n      swap1\n      0x00\n      mstore\n      keccak256(0x00, 0x20)\n      swap1\n      0x03\n      mul\n      add\n      0x00\n      swap1\n      swap2\n      swap1\n      swap2\n      swap1\n      swap2\n      pop\n      0x00\n      dup3\n      add\n      mload\n      dup2\n      0x00\n      add\n      swap1\n      dup2\n      tag_138\n      swap2\n      swap1\n      tag_139\n      jump\t// in\n    tag_138:\n      pop\n      0x20\n      dup3\n      add\n      mload\n      dup2\n      0x01\n      add\n      exp(0x0100, 0x00)\n      dup2\n      sload\n      dup2\n      0xff\n      mul\n      not\n      and\n      swap1\n      dup4\n      iszero\n      iszero\n      mul\n      or\n      swap1\n      sstore\n      pop\n      0x40\n      dup3\n      add\n      mload\n      dup2\n      0x02\n      add\n      sstore\n      pop\n      pop\n        /* \"contracts/AbstractManager.sol\":1879:1892  uint8 shardId */\n      0x00\n        /* \"contracts/AbstractManager.sol\":1920:1921  1 */\n      0x01\n        /* \"contracts/AbstractManager.sol\":1901:1910  shardList */\n      0x02\n        /* \"contracts/AbstractManager.sol\":1901:1917  shardList.length */\n      dup1\n      sload\n      swap1\n      pop\n        /* \"contracts/AbstractManager.sol\":1901:1921  shardList.length - 1 */\n      tag_140\n      swap2\n      swap1\n      tag_141\n      jump\t// in\n    tag_140:\n        /* \"contracts/AbstractManager.sol\":1879:1922  uint8 shardId = uint8(shardList.length - 1) */\n      swap1\n      pop\n        /* \"contracts/AbstractManager.sol\":1938:1961  ShardAdded(shardId,url) */\n      0x1def1861d5991921dae7e9520a9201fc401ee5942e01cb2ccffb1bc0c3f0d0c6\n        /* \"contracts/AbstractManager.sol\":1949:1956  shardId */\n      dup2\n        /* \"contracts/AbstractManager.sol\":1957:1960  url */\n      dup6\n      dup6\n        /* \"contracts/AbstractManager.sol\":1938:1961  ShardAdded(shardId,url) */\n      mload(0x40)\n      tag_142\n      swap4\n      swap3\n      swap2\n      swap1\n      tag_143\n      jump\t// in\n    tag_142:\n      mload(0x40)\n      dup1\n      swap2\n      sub\n      swap1\n      log1\n        /* \"contracts/AbstractManager.sol\":1770:1968  {... */\n      pop\n        /* \"contracts/AbstractManager.sol\":1690:1968  function addShard(string calldata url, bool active) external onlyOwner maxShards{... */\n      pop\n      pop\n      pop\n      jump\t// out\n        /* \"@openzeppelin/contracts/access/Ownable.sol\":1831:1932  function renounceOwnership() public virtual onlyOwner {... */\n    tag_41:\n        /* \"@openzeppelin/contracts/access/Ownable.sol\":1094:1107  _checkOwner() */\n      tag_145\n        /* \"@openzeppelin/contracts/access/Ownable.sol\":1094:1105  _checkOwner */\n      tag_131\n        /* \"@openzeppelin/contracts/access/Ownable.sol\":1094:1107  _checkOwner() */\n      jump\t// in\n    tag_145:\n        /* \"@openzeppelin/contracts/access/Ownable.sol\":1895:1925  _transferOwnership(address(0)) */\n      tag_147\n        /* \"@openzeppelin/contracts/access/Ownable.sol\":1922:1923  0 */\n      0x00\n        /* \"@openzeppelin/contracts/access/Ownable.sol\":1895:1913  _transferOwnership */\n      tag_148\n        /* \"@openzeppelin/contracts/access/Ownable.sol\":1895:1925  _transferOwnership(address(0)) */\n      jump\t// in\n    tag_147:\n        /* \"@openzeppelin/contracts/access/Ownable.sol\":1831:1932  function renounceOwnership() public virtual onlyOwner {... */\n      jump\t// out\n        /* \"contracts/AbstractManager.sol\":1534:1684  function setOracle(address newAddress) external onlyOwner {... */\n    tag_45:\n        /* \"@openzeppelin/contracts/access/Ownable.sol\":1094:1107  _checkOwner() */\n      tag_150\n        /* \"@openzeppelin/contracts/access/Ownable.sol\":1094:1105  _checkOwner */\n      tag_131\n        /* \"@openzeppelin/contracts/access/Ownable.sol\":1094:1107  _checkOwner() */\n      jump\t// in\n    tag_150:\n        /* \"contracts/AbstractManager.sol\":1626:1636  newAddress */\n      dup1\n        /* \"contracts/AbstractManager.sol\":1602:1608  oracle */\n      0x05\n      0x00\n        /* \"contracts/AbstractManager.sol\":1602:1637  oracle = AbstractOracle(newAddress) */\n      0x0100\n      exp\n      dup2\n      sload\n      dup2\n      0xffffffffffffffffffffffffffffffffffffffff\n      mul\n      not\n      and\n      swap1\n      dup4\n      0xffffffffffffffffffffffffffffffffffffffff\n      and\n      mul\n      or\n      swap1\n      sstore\n      pop\n        /* \"contracts/AbstractManager.sol\":1652:1677  ChangedOracle(newAddress) */\n      0x807dc19e171652591d023395bfc818727564b07291b9e0b9de995c9138d179f1\n        /* \"contracts/AbstractManager.sol\":1666:1676  newAddress */\n      dup2\n        /* \"contracts/AbstractManager.sol\":1652:1677  ChangedOracle(newAddress) */\n      mload(0x40)\n      tag_152\n      swap2\n      swap1\n      tag_53\n      jump\t// in\n    tag_152:\n      mload(0x40)\n      dup1\n      swap2\n      sub\n      swap1\n      log1\n        /* \"contracts/AbstractManager.sol\":1534:1684  function setOracle(address newAddress) external onlyOwner {... */\n      pop\n      jump\t// out\n        /* \"contracts/AbstractManager.sol\":1303:1328  uint256 public contractId */\n    tag_47:\n      sload(0x06)\n      dup2\n      jump\t// out\n        /* \"@openzeppelin/contracts/access/Ownable.sol\":1201:1286  function owner() public view virtual returns (address) {... */\n    tag_51:\n        /* \"@openzeppelin/contracts/access/Ownable.sol\":1247:1254  address */\n      0x00\n        /* \"@openzeppelin/contracts/access/Ownable.sol\":1273:1279  _owner */\n      dup1\n      0x00\n      swap1\n      sload\n      swap1\n      0x0100\n      exp\n      swap1\n      div\n      0xffffffffffffffffffffffffffffffffffffffff\n      and\n        /* \"@openzeppelin/contracts/access/Ownable.sol\":1266:1279  return _owner */\n      swap1\n      pop\n        /* \"@openzeppelin/contracts/access/Ownable.sol\":1201:1286  function owner() public view virtual returns (address) {... */\n      swap1\n      jump\t// out\n        /* \"contracts/AbstractManager.sol\":3975:4439  function declareDel(uint256 id) external oracleInitialized checkDeployReserver(id)... */\n    tag_56:\n        /* \"contracts/AbstractManager.sol\":6500:6501  0 */\n      0x00\n        /* \"contracts/AbstractManager.sol\":6467:6503  oracle != AbstractOracle(address(0)) */\n      0xffffffffffffffffffffffffffffffffffffffff\n      and\n        /* \"contracts/AbstractManager.sol\":6467:6473  oracle */\n      0x05\n      0x00\n      swap1\n      sload\n      swap1\n      0x0100\n      exp\n      swap1\n      div\n      0xffffffffffffffffffffffffffffffffffffffff\n      and\n        /* \"contracts/AbstractManager.sol\":6467:6503  oracle != AbstractOracle(address(0)) */\n      0xffffffffffffffffffffffffffffffffffffffff\n      and\n      sub\n        /* \"contracts/AbstractManager.sol\":6459:6530  require(oracle != AbstractOracle(address(0)), \"Oracle not initialized\") */\n      tag_155\n      jumpi\n      mload(0x40)\n      0x08c379a000000000000000000000000000000000000000000000000000000000\n      dup2\n      mstore\n      0x04\n      add\n      tag_156\n      swap1\n      tag_84\n      jump\t// in\n    tag_156:\n      mload(0x40)\n      dup1\n      swap2\n      sub\n      swap1\n      revert\n    tag_155:\n        /* \"contracts/AbstractManager.sol\":4054:4056  id */\n      dup1\n        /* \"contracts/AbstractManager.sol\":6885:6895  msg.sender */\n      caller\n        /* \"contracts/AbstractManager.sol\":6863:6895  deployMap[id].user == msg.sender */\n      0xffffffffffffffffffffffffffffffffffffffff\n      and\n        /* \"contracts/AbstractManager.sol\":6863:6872  deployMap */\n      0x01\n        /* \"contracts/AbstractManager.sol\":6863:6876  deployMap[id] */\n      0x00\n        /* \"contracts/AbstractManager.sol\":6873:6875  id */\n      dup4\n        /* \"contracts/AbstractManager.sol\":6863:6876  deployMap[id] */\n      dup2\n      mstore\n      0x20\n      add\n      swap1\n      dup2\n      mstore\n      0x20\n      add\n      0x00\n      keccak256\n        /* \"contracts/AbstractManager.sol\":6863:6881  deployMap[id].user */\n      0x02\n      add\n      0x00\n      swap1\n      sload\n      swap1\n      0x0100\n      exp\n      swap1\n      div\n      0xffffffffffffffffffffffffffffffffffffffff\n      and\n        /* \"contracts/AbstractManager.sol\":6863:6895  deployMap[id].user == msg.sender */\n      0xffffffffffffffffffffffffffffffffffffffff\n      and\n      eq\n        /* \"contracts/AbstractManager.sol\":6855:6929  require(deployMap[id].user == msg.sender, \"Caller is not deploy reserver\") */\n      tag_158\n      jumpi\n      mload(0x40)\n      0x08c379a000000000000000000000000000000000000000000000000000000000\n      dup2\n      mstore\n      0x04\n      add\n      tag_159\n      swap1\n      tag_160\n      jump\t// in\n    tag_159:\n      mload(0x40)\n      dup1\n      swap2\n      sub\n      swap1\n      revert\n    tag_158:\n        /* \"contracts/AbstractManager.sol\":4088:4090  id */\n      dup2\n        /* \"contracts/AbstractManager.sol\":4091:4106  Status.DEPLOYED */\n      0x03\n        /* \"contracts/AbstractManager.sol\":6368:6374  status */\n      dup1\n        /* \"contracts/AbstractManager.sol\":6344:6374  deployMap[id].status == status */\n      0x04\n      dup2\n      gt\n      iszero\n      tag_162\n      jumpi\n      tag_163\n      tag_92\n      jump\t// in\n    tag_163:\n    tag_162:\n        /* \"contracts/AbstractManager.sol\":6344:6353  deployMap */\n      0x01\n        /* \"contracts/AbstractManager.sol\":6344:6357  deployMap[id] */\n      0x00\n        /* \"contracts/AbstractManager.sol\":6354:6356  id */\n      dup5\n        /* \"contracts/AbstractManager.sol\":6344:6357  deployMap[id] */\n      dup2\n      mstore\n      0x20\n      add\n      swap1\n      dup2\n      mstore\n      0x20\n      add\n      0x00\n      keccak256\n        /* \"contracts/AbstractManager.sol\":6344:6364  deployMap[id].status */\n      0x04\n      add\n      0x00\n      swap1\n      sload\n      swap1\n      0x0100\n      exp\n      swap1\n      div\n      0xff\n      and\n        /* \"contracts/AbstractManager.sol\":6344:6374  deployMap[id].status == status */\n      0x04\n      dup2\n      gt\n      iszero\n      tag_164\n      jumpi\n      tag_165\n      tag_92\n      jump\t// in\n    tag_165:\n    tag_164:\n      eq\n        /* \"contracts/AbstractManager.sol\":6336:6397  require(deployMap[id].status == status, \"Deploy state error\") */\n      tag_166\n      jumpi\n      mload(0x40)\n      0x08c379a000000000000000000000000000000000000000000000000000000000\n      dup2\n      mstore\n      0x04\n      add\n      tag_167\n      swap1\n      tag_97\n      jump\t// in\n    tag_167:\n      mload(0x40)\n      dup1\n      swap2\n      sub\n      swap1\n      revert\n    tag_166:\n        /* \"contracts/AbstractManager.sol\":4119:4132  uint8 shardId */\n      0x00\n        /* \"contracts/AbstractManager.sol\":4134:4153  string memory shard */\n      dup1\n        /* \"contracts/AbstractManager.sol\":4155:4167  bytes20 addr */\n      0x00\n        /* \"contracts/AbstractManager.sol\":4169:4187  string memory name */\n      dup1\n        /* \"contracts/AbstractManager.sol\":4191:4212  getInfoByDeployId(id) */\n      tag_169\n        /* \"contracts/AbstractManager.sol\":4209:4211  id */\n      dup9\n        /* \"contracts/AbstractManager.sol\":4191:4208  getInfoByDeployId */\n      tag_100\n        /* \"contracts/AbstractManager.sol\":4191:4212  getInfoByDeployId(id) */\n      jump\t// in\n    tag_169:\n        /* \"contracts/AbstractManager.sol\":4118:4212  (uint8 shardId, string memory shard, bytes20 addr, string memory name) = getInfoByDeployId(id) */\n      swap4\n      pop\n      swap4\n      pop\n      swap4\n      pop\n      swap4\n      pop\n        /* \"contracts/AbstractManager.sol\":4222:4231  shardList */\n      0x02\n        /* \"contracts/AbstractManager.sol\":4232:4239  shardId */\n      dup5\n        /* \"contracts/AbstractManager.sol\":4222:4240  shardList[shardId] */\n      0xff\n      and\n      dup2\n      sload\n      dup2\n      lt\n      tag_170\n      jumpi\n      tag_171\n      tag_111\n      jump\t// in\n    tag_171:\n    tag_170:\n      swap1\n      0x00\n      mstore\n      keccak256(0x00, 0x20)\n      swap1\n      0x03\n      mul\n      add\n        /* \"contracts/AbstractManager.sol\":4222:4250  shardList[shardId].numDeploy */\n      0x02\n      add\n      0x00\n        /* \"contracts/AbstractManager.sol\":4222:4252  shardList[shardId].numDeploy-- */\n      dup2\n      sload\n      dup1\n      swap3\n      swap2\n      swap1\n      tag_173\n      swap1\n      tag_114\n      jump\t// in\n    tag_173:\n      swap2\n      swap1\n      pop\n      sstore\n      pop\n        /* \"contracts/AbstractManager.sol\":4285:4306  Status.PENDING_DELETE */\n      0x04\n        /* \"contracts/AbstractManager.sol\":4262:4271  deployMap */\n      0x01\n        /* \"contracts/AbstractManager.sol\":4262:4275  deployMap[id] */\n      0x00\n        /* \"contracts/AbstractManager.sol\":4272:4274  id */\n      dup11\n        /* \"contracts/AbstractManager.sol\":4262:4275  deployMap[id] */\n      dup2\n      mstore\n      0x20\n      add\n      swap1\n      dup2\n      mstore\n      0x20\n      add\n      0x00\n      keccak256\n        /* \"contracts/AbstractManager.sol\":4262:4282  deployMap[id].status */\n      0x04\n      add\n      0x00\n        /* \"contracts/AbstractManager.sol\":4262:4306  deployMap[id].status = Status.PENDING_DELETE */\n      0x0100\n      exp\n      dup2\n      sload\n      dup2\n      0xff\n      mul\n      not\n      and\n      swap1\n      dup4\n      0x04\n      dup2\n      gt\n      iszero\n      tag_174\n      jumpi\n      tag_175\n      tag_92\n      jump\t// in\n    tag_175:\n    tag_174:\n      mul\n      or\n      swap1\n      sstore\n      pop\n        /* \"contracts/AbstractManager.sol\":4316:4322  oracle */\n      0x05\n      0x00\n      swap1\n      sload\n      swap1\n      0x0100\n      exp\n      swap1\n      div\n      0xffffffffffffffffffffffffffffffffffffffff\n      and\n        /* \"contracts/AbstractManager.sol\":4316:4334  oracle.checkDelete */\n      0xffffffffffffffffffffffffffffffffffffffff\n      and\n      0x08540a2c\n        /* \"contracts/AbstractManager.sol\":4335:4337  id */\n      dup10\n        /* \"contracts/AbstractManager.sol\":4339:4344  shard */\n      dup6\n        /* \"contracts/AbstractManager.sol\":4346:4350  addr */\n      dup6\n        /* \"contracts/AbstractManager.sol\":4352:4361  deployMap */\n      0x01\n        /* \"contracts/AbstractManager.sol\":4352:4365  deployMap[id] */\n      0x00\n        /* \"contracts/AbstractManager.sol\":4362:4364  id */\n      dup15\n        /* \"contracts/AbstractManager.sol\":4352:4365  deployMap[id] */\n      dup2\n      mstore\n      0x20\n      add\n      swap1\n      dup2\n      mstore\n      0x20\n      add\n      0x00\n      keccak256\n        /* \"contracts/AbstractManager.sol\":4352:4370  deployMap[id].user */\n      0x02\n      add\n      0x00\n      swap1\n      sload\n      swap1\n      0x0100\n      exp\n      swap1\n      div\n      0xffffffffffffffffffffffffffffffffffffffff\n      and\n        /* \"contracts/AbstractManager.sol\":4316:4371  oracle.checkDelete(id, shard, addr, deployMap[id].user) */\n      mload(0x40)\n      dup6\n      0xffffffff\n      and\n      0xe0\n      shl\n      dup2\n      mstore\n      0x04\n      add\n      tag_176\n      swap5\n      swap4\n      swap3\n      swap2\n      swap1\n      tag_177\n      jump\t// in\n    tag_176:\n      0x00\n      mload(0x40)\n      dup1\n      dup4\n      sub\n      dup2\n      0x00\n      dup8\n      dup1\n      extcodesize\n      iszero\n      dup1\n      iszero\n      tag_178\n      jumpi\n      0x00\n      dup1\n      revert\n    tag_178:\n      pop\n      gas\n      call\n      iszero\n      dup1\n      iszero\n      tag_180\n      jumpi\n      returndatasize\n      0x00\n      dup1\n      returndatacopy\n      revert(0x00, returndatasize)\n    tag_180:\n      pop\n      pop\n      pop\n      pop\n        /* \"contracts/AbstractManager.sol\":4386:4432  DeleteDeclared(id, shardId, shard, addr, name) */\n      0x628abcdb4e4b579cc58315017cfc6a5853fdb6ac143fca00a6d0b28a73a0f540\n        /* \"contracts/AbstractManager.sol\":4401:4403  id */\n      dup9\n        /* \"contracts/AbstractManager.sol\":4405:4412  shardId */\n      dup6\n        /* \"contracts/AbstractManager.sol\":4414:4419  shard */\n      dup6\n        /* \"contracts/AbstractManager.sol\":4421:4425  addr */\n      dup6\n        /* \"contracts/AbstractManager.sol\":4427:4431  name */\n      dup6\n        /* \"contracts/AbstractManager.sol\":4386:4432  DeleteDeclared(id, shardId, shard, addr, name) */\n      mload(0x40)\n      tag_181\n      swap6\n      swap5\n      swap4\n      swap3\n      swap2\n      swap1\n      tag_105\n      jump\t// in\n    tag_181:\n      mload(0x40)\n      dup1\n      swap2\n      sub\n      swap1\n      log1\n        /* \"contracts/AbstractManager.sol\":4108:4439  {... */\n      pop\n      pop\n      pop\n      pop\n        /* \"contracts/AbstractManager.sol\":6939:6940  _ */\n      pop\n      pop\n        /* \"contracts/AbstractManager.sol\":6540:6541  _ */\n      pop\n        /* \"contracts/AbstractManager.sol\":3975:4439  function declareDel(uint256 id) external oracleInitialized checkDeployReserver(id)... */\n      pop\n      jump\t// out\n        /* \"contracts/AbstractManager.sol\":2002:2143  function setAlg(uint8 newAlg) external onlyOwner algExists(newAlg){... */\n    tag_60:\n        /* \"@openzeppelin/contracts/access/Ownable.sol\":1094:1107  _checkOwner() */\n      tag_183\n        /* \"@openzeppelin/contracts/access/Ownable.sol\":1094:1105  _checkOwner */\n      tag_131\n        /* \"@openzeppelin/contracts/access/Ownable.sol\":1094:1107  _checkOwner() */\n      jump\t// in\n    tag_183:\n        /* \"contracts/AbstractManager.sol\":2061:2067  newAlg */\n      dup1\n        /* \"contracts/AbstractManager.sol\":6741:6745  algs */\n      0x04\n        /* \"contracts/AbstractManager.sol\":6741:6752  algs.length */\n      dup1\n      sload\n      swap1\n      pop\n        /* \"contracts/AbstractManager.sol\":6732:6738  newAlg */\n      dup2\n        /* \"contracts/AbstractManager.sol\":6732:6752  newAlg < algs.length */\n      0xff\n      and\n      lt\n        /* \"contracts/AbstractManager.sol\":6724:6781  require(newAlg < algs.length, \"Algorithm does not exist\") */\n      tag_185\n      jumpi\n      mload(0x40)\n      0x08c379a000000000000000000000000000000000000000000000000000000000\n      dup2\n      mstore\n      0x04\n      add\n      tag_186\n      swap1\n      tag_187\n      jump\t// in\n    tag_186:\n      mload(0x40)\n      dup1\n      swap2\n      sub\n      swap1\n      revert\n    tag_185:\n        /* \"contracts/AbstractManager.sol\":2091:2097  newAlg */\n      dup2\n        /* \"contracts/AbstractManager.sol\":2078:2088  currentAlg */\n      0x03\n      0x00\n        /* \"contracts/AbstractManager.sol\":2078:2097  currentAlg = newAlg */\n      0x0100\n      exp\n      dup2\n      sload\n      dup2\n      0xff\n      mul\n      not\n      and\n      swap1\n      dup4\n      0xff\n      and\n      mul\n      or\n      swap1\n      sstore\n      pop\n        /* \"contracts/AbstractManager.sol\":2112:2136  ChangedAlgorithm(newAlg) */\n      0x987a3408e00935d1eb359fd8812975019ac50bad81a9b01cddfa171579c848ba\n        /* \"contracts/AbstractManager.sol\":2129:2135  newAlg */\n      dup3\n        /* \"contracts/AbstractManager.sol\":2112:2136  ChangedAlgorithm(newAlg) */\n      mload(0x40)\n      tag_189\n      swap2\n      swap1\n      tag_190\n      jump\t// in\n    tag_189:\n      mload(0x40)\n      dup1\n      swap2\n      sub\n      swap1\n      log1\n        /* \"@openzeppelin/contracts/access/Ownable.sol\":1117:1118  _ */\n      pop\n        /* \"contracts/AbstractManager.sol\":2002:2143  function setAlg(uint8 newAlg) external onlyOwner algExists(newAlg){... */\n      pop\n      jump\t// out\n        /* \"contracts/AbstractManager.sol\":5235:5813  function fullfillDelete(uint256 id, bool result) external oracleInitialized onlyOracle ... */\n    tag_63:\n        /* \"contracts/AbstractManager.sol\":6500:6501  0 */\n      0x00\n        /* \"contracts/AbstractManager.sol\":6467:6503  oracle != AbstractOracle(address(0)) */\n      0xffffffffffffffffffffffffffffffffffffffff\n      and\n        /* \"contracts/AbstractManager.sol\":6467:6473  oracle */\n      0x05\n      0x00\n      swap1\n      sload\n      swap1\n      0x0100\n      exp\n      swap1\n      div\n      0xffffffffffffffffffffffffffffffffffffffff\n      and\n        /* \"contracts/AbstractManager.sol\":6467:6503  oracle != AbstractOracle(address(0)) */\n      0xffffffffffffffffffffffffffffffffffffffff\n      and\n      sub\n        /* \"contracts/AbstractManager.sol\":6459:6530  require(oracle != AbstractOracle(address(0)), \"Oracle not initialized\") */\n      tag_192\n      jumpi\n      mload(0x40)\n      0x08c379a000000000000000000000000000000000000000000000000000000000\n      dup2\n      mstore\n      0x04\n      add\n      tag_193\n      swap1\n      tag_84\n      jump\t// in\n    tag_193:\n      mload(0x40)\n      dup1\n      swap2\n      sub\n      swap1\n      revert\n    tag_192:\n        /* \"contracts/AbstractManager.sol\":5985:5991  oracle */\n      0x05\n      0x00\n      swap1\n      sload\n      swap1\n      0x0100\n      exp\n      swap1\n      div\n      0xffffffffffffffffffffffffffffffffffffffff\n      and\n        /* \"contracts/AbstractManager.sol\":5963:5992  msg.sender == address(oracle) */\n      0xffffffffffffffffffffffffffffffffffffffff\n      and\n        /* \"contracts/AbstractManager.sol\":5963:5973  msg.sender */\n      caller\n        /* \"contracts/AbstractManager.sol\":5963:5992  msg.sender == address(oracle) */\n      0xffffffffffffffffffffffffffffffffffffffff\n      and\n      eq\n        /* \"contracts/AbstractManager.sol\":5955:6017  require(msg.sender == address(oracle), \"Caller is not oracle\") */\n      tag_195\n      jumpi\n      mload(0x40)\n      0x08c379a000000000000000000000000000000000000000000000000000000000\n      dup2\n      mstore\n      0x04\n      add\n      tag_196\n      swap1\n      tag_88\n      jump\t// in\n    tag_196:\n      mload(0x40)\n      dup1\n      swap2\n      sub\n      swap1\n      revert\n    tag_195:\n        /* \"contracts/AbstractManager.sol\":5353:5355  id */\n      dup2\n        /* \"contracts/AbstractManager.sol\":5357:5378  Status.PENDING_DELETE */\n      0x04\n        /* \"contracts/AbstractManager.sol\":6368:6374  status */\n      dup1\n        /* \"contracts/AbstractManager.sol\":6344:6374  deployMap[id].status == status */\n      0x04\n      dup2\n      gt\n      iszero\n      tag_198\n      jumpi\n      tag_199\n      tag_92\n      jump\t// in\n    tag_199:\n    tag_198:\n        /* \"contracts/AbstractManager.sol\":6344:6353  deployMap */\n      0x01\n        /* \"contracts/AbstractManager.sol\":6344:6357  deployMap[id] */\n      0x00\n        /* \"contracts/AbstractManager.sol\":6354:6356  id */\n      dup5\n        /* \"contracts/AbstractManager.sol\":6344:6357  deployMap[id] */\n      dup2\n      mstore\n      0x20\n      add\n      swap1\n      dup2\n      mstore\n      0x20\n      add\n      0x00\n      keccak256\n        /* \"contracts/AbstractManager.sol\":6344:6364  deployMap[id].status */\n      0x04\n      add\n      0x00\n      swap1\n      sload\n      swap1\n      0x0100\n      exp\n      swap1\n      div\n      0xff\n      and\n        /* \"contracts/AbstractManager.sol\":6344:6374  deployMap[id].status == status */\n      0x04\n      dup2\n      gt\n      iszero\n      tag_200\n      jumpi\n      tag_201\n      tag_92\n      jump\t// in\n    tag_201:\n    tag_200:\n      eq\n        /* \"contracts/AbstractManager.sol\":6336:6397  require(deployMap[id].status == status, \"Deploy state error\") */\n      tag_202\n      jumpi\n      mload(0x40)\n      0x08c379a000000000000000000000000000000000000000000000000000000000\n      dup2\n      mstore\n      0x04\n      add\n      tag_203\n      swap1\n      tag_97\n      jump\t// in\n    tag_203:\n      mload(0x40)\n      dup1\n      swap2\n      sub\n      swap1\n      revert\n    tag_202:\n        /* \"contracts/AbstractManager.sol\":5390:5403  uint8 shardId */\n      0x00\n        /* \"contracts/AbstractManager.sol\":5405:5424  string memory shard */\n      dup1\n        /* \"contracts/AbstractManager.sol\":5426:5438  bytes20 addr */\n      0x00\n        /* \"contracts/AbstractManager.sol\":5440:5458  string memory name */\n      dup1\n        /* \"contracts/AbstractManager.sol\":5462:5483  getInfoByDeployId(id) */\n      tag_205\n        /* \"contracts/AbstractManager.sol\":5480:5482  id */\n      dup9\n        /* \"contracts/AbstractManager.sol\":5462:5479  getInfoByDeployId */\n      tag_100\n        /* \"contracts/AbstractManager.sol\":5462:5483  getInfoByDeployId(id) */\n      jump\t// in\n    tag_205:\n        /* \"contracts/AbstractManager.sol\":5389:5483  (uint8 shardId, string memory shard, bytes20 addr, string memory name) = getInfoByDeployId(id) */\n      swap4\n      pop\n      swap4\n      pop\n      swap4\n      pop\n      swap4\n      pop\n        /* \"contracts/AbstractManager.sol\":5496:5502  result */\n      dup7\n        /* \"contracts/AbstractManager.sol\":5493:5807  if(result){... */\n      iszero\n      tag_206\n      jumpi\n        /* \"contracts/AbstractManager.sol\":5524:5533  deployMap */\n      0x01\n        /* \"contracts/AbstractManager.sol\":5524:5537  deployMap[id] */\n      0x00\n        /* \"contracts/AbstractManager.sol\":5534:5536  id */\n      dup10\n        /* \"contracts/AbstractManager.sol\":5524:5537  deployMap[id] */\n      dup2\n      mstore\n      0x20\n      add\n      swap1\n      dup2\n      mstore\n      0x20\n      add\n      0x00\n      keccak256\n      0x00\n        /* \"contracts/AbstractManager.sol\":5517:5537  delete deployMap[id] */\n      dup1\n      dup3\n      add\n      exp(0x0100, 0x00)\n      dup2\n      sload\n      swap1\n      0xff\n      mul\n      not\n      and\n      swap1\n      sstore\n      0x00\n      dup3\n      add\n      exp(0x0100, 0x01)\n      dup2\n      sload\n      swap1\n      0xffffffffffffffffffffffffffffffffffffffff\n      mul\n      not\n      and\n      swap1\n      sstore\n      0x01\n      dup3\n      add\n      0x00\n      tag_207\n      swap2\n      swap1\n      tag_108\n      jump\t// in\n    tag_207:\n      0x02\n      dup3\n      add\n      exp(0x0100, 0x00)\n      dup2\n      sload\n      swap1\n      0xffffffffffffffffffffffffffffffffffffffff\n      mul\n      not\n      and\n      swap1\n      sstore\n      0x03\n      dup3\n      add\n      0x00\n      swap1\n      sstore\n      0x04\n      dup3\n      add\n      exp(0x0100, 0x00)\n      dup2\n      sload\n      swap1\n      0xff\n      mul\n      not\n      and\n      swap1\n      sstore\n      pop\n      pop\n        /* \"contracts/AbstractManager.sol\":5556:5603  DeleteConfirmed(id, shardId, shard, addr, name) */\n      0x34f974022181aae39aa96d8758f573cb067a8b910edc151f1c7e4227fda5a3d6\n        /* \"contracts/AbstractManager.sol\":5572:5574  id */\n      dup9\n        /* \"contracts/AbstractManager.sol\":5576:5583  shardId */\n      dup6\n        /* \"contracts/AbstractManager.sol\":5585:5590  shard */\n      dup6\n        /* \"contracts/AbstractManager.sol\":5592:5596  addr */\n      dup6\n        /* \"contracts/AbstractManager.sol\":5598:5602  name */\n      dup6\n        /* \"contracts/AbstractManager.sol\":5556:5603  DeleteConfirmed(id, shardId, shard, addr, name) */\n      mload(0x40)\n      tag_208\n      swap6\n      swap5\n      swap4\n      swap3\n      swap2\n      swap1\n      tag_105\n      jump\t// in\n    tag_208:\n      mload(0x40)\n      dup1\n      swap2\n      sub\n      swap1\n      log1\n        /* \"contracts/AbstractManager.sol\":5493:5807  if(result){... */\n      jump(tag_209)\n    tag_206:\n        /* \"contracts/AbstractManager.sol\":5641:5650  shardList */\n      0x02\n        /* \"contracts/AbstractManager.sol\":5651:5658  shardId */\n      dup5\n        /* \"contracts/AbstractManager.sol\":5641:5659  shardList[shardId] */\n      0xff\n      and\n      dup2\n      sload\n      dup2\n      lt\n      tag_210\n      jumpi\n      tag_211\n      tag_111\n      jump\t// in\n    tag_211:\n    tag_210:\n      swap1\n      0x00\n      mstore\n      keccak256(0x00, 0x20)\n      swap1\n      0x03\n      mul\n      add\n        /* \"contracts/AbstractManager.sol\":5641:5669  shardList[shardId].numDeploy */\n      0x02\n      add\n      0x00\n        /* \"contracts/AbstractManager.sol\":5641:5671  shardList[shardId].numDeploy++ */\n      dup2\n      sload\n      dup1\n      swap3\n      swap2\n      swap1\n      tag_213\n      swap1\n      tag_214\n      jump\t// in\n    tag_213:\n      swap2\n      swap1\n      pop\n      sstore\n      pop\n        /* \"contracts/AbstractManager.sol\":5708:5723  Status.DEPLOYED */\n      0x03\n        /* \"contracts/AbstractManager.sol\":5685:5694  deployMap */\n      0x01\n        /* \"contracts/AbstractManager.sol\":5685:5698  deployMap[id] */\n      0x00\n        /* \"contracts/AbstractManager.sol\":5695:5697  id */\n      dup11\n        /* \"contracts/AbstractManager.sol\":5685:5698  deployMap[id] */\n      dup2\n      mstore\n      0x20\n      add\n      swap1\n      dup2\n      mstore\n      0x20\n      add\n      0x00\n      keccak256\n        /* \"contracts/AbstractManager.sol\":5685:5705  deployMap[id].status */\n      0x04\n      add\n      0x00\n        /* \"contracts/AbstractManager.sol\":5685:5723  deployMap[id].status = Status.DEPLOYED */\n      0x0100\n      exp\n      dup2\n      sload\n      dup2\n      0xff\n      mul\n      not\n      and\n      swap1\n      dup4\n      0x04\n      dup2\n      gt\n      iszero\n      tag_215\n      jumpi\n      tag_216\n      tag_92\n      jump\t// in\n    tag_216:\n    tag_215:\n      mul\n      or\n      swap1\n      sstore\n      pop\n        /* \"contracts/AbstractManager.sol\":5742:5792  DeleteNotConfirmed(id, shardId, shard, addr, name) */\n      0x5d6d4a8afd86aeea9d8f976d1e848289b569d5dd41b052c21bbe97be23d2a339\n        /* \"contracts/AbstractManager.sol\":5761:5763  id */\n      dup9\n        /* \"contracts/AbstractManager.sol\":5765:5772  shardId */\n      dup6\n        /* \"contracts/AbstractManager.sol\":5774:5779  shard */\n      dup6\n        /* \"contracts/AbstractManager.sol\":5781:5785  addr */\n      dup6\n        /* \"contracts/AbstractManager.sol\":5787:5791  name */\n      dup6\n        /* \"contracts/AbstractManager.sol\":5742:5792  DeleteNotConfirmed(id, shardId, shard, addr, name) */\n      mload(0x40)\n      tag_217\n      swap6\n      swap5\n      swap4\n      swap3\n      swap2\n      swap1\n      tag_105\n      jump\t// in\n    tag_217:\n      mload(0x40)\n      dup1\n      swap2\n      sub\n      swap1\n      log1\n        /* \"contracts/AbstractManager.sol\":5493:5807  if(result){... */\n    tag_209:\n        /* \"contracts/AbstractManager.sol\":5379:5813  {... */\n      pop\n      pop\n      pop\n      pop\n        /* \"contracts/AbstractManager.sol\":6027:6028  _ */\n      pop\n      pop\n        /* \"contracts/AbstractManager.sol\":5235:5813  function fullfillDelete(uint256 id, bool result) external oracleInitialized onlyOracle ... */\n      pop\n      pop\n      jump\t// out\n        /* \"contracts/AbstractManager.sol\":3358:3939  function declareDeploy(uint256 id, bytes20 addr, string calldata name) external oracleInitialized checkDeployReserver(id)... */\n    tag_67:\n        /* \"contracts/AbstractManager.sol\":6500:6501  0 */\n      0x00\n        /* \"contracts/AbstractManager.sol\":6467:6503  oracle != AbstractOracle(address(0)) */\n      0xffffffffffffffffffffffffffffffffffffffff\n      and\n        /* \"contracts/AbstractManager.sol\":6467:6473  oracle */\n      0x05\n      0x00\n      swap1\n      sload\n      swap1\n      0x0100\n      exp\n      swap1\n      div\n      0xffffffffffffffffffffffffffffffffffffffff\n      and\n        /* \"contracts/AbstractManager.sol\":6467:6503  oracle != AbstractOracle(address(0)) */\n      0xffffffffffffffffffffffffffffffffffffffff\n      and\n      sub\n        /* \"contracts/AbstractManager.sol\":6459:6530  require(oracle != AbstractOracle(address(0)), \"Oracle not initialized\") */\n      tag_219\n      jumpi\n      mload(0x40)\n      0x08c379a000000000000000000000000000000000000000000000000000000000\n      dup2\n      mstore\n      0x04\n      add\n      tag_220\n      swap1\n      tag_84\n      jump\t// in\n    tag_220:\n      mload(0x40)\n      dup1\n      swap2\n      sub\n      swap1\n      revert\n    tag_219:\n        /* \"contracts/AbstractManager.sol\":3476:3478  id */\n      dup4\n        /* \"contracts/AbstractManager.sol\":6885:6895  msg.sender */\n      caller\n        /* \"contracts/AbstractManager.sol\":6863:6895  deployMap[id].user == msg.sender */\n      0xffffffffffffffffffffffffffffffffffffffff\n      and\n        /* \"contracts/AbstractManager.sol\":6863:6872  deployMap */\n      0x01\n        /* \"contracts/AbstractManager.sol\":6863:6876  deployMap[id] */\n      0x00\n        /* \"contracts/AbstractManager.sol\":6873:6875  id */\n      dup4\n        /* \"contracts/AbstractManager.sol\":6863:6876  deployMap[id] */\n      dup2\n      mstore\n      0x20\n      add\n      swap1\n      dup2\n      mstore\n      0x20\n      add\n      0x00\n      keccak256\n        /* \"contracts/AbstractManager.sol\":6863:6881  deployMap[id].user */\n      0x02\n      add\n      0x00\n      swap1\n      sload\n      swap1\n      0x0100\n      exp\n      swap1\n      div\n      0xffffffffffffffffffffffffffffffffffffffff\n      and\n        /* \"contracts/AbstractManager.sol\":6863:6895  deployMap[id].user == msg.sender */\n      0xffffffffffffffffffffffffffffffffffffffff\n      and\n      eq\n        /* \"contracts/AbstractManager.sol\":6855:6929  require(deployMap[id].user == msg.sender, \"Caller is not deploy reserver\") */\n      tag_222\n      jumpi\n      mload(0x40)\n      0x08c379a000000000000000000000000000000000000000000000000000000000\n      dup2\n      mstore\n      0x04\n      add\n      tag_223\n      swap1\n      tag_160\n      jump\t// in\n    tag_223:\n      mload(0x40)\n      dup1\n      swap2\n      sub\n      swap1\n      revert\n    tag_222:\n        /* \"contracts/AbstractManager.sol\":3510:3512  id */\n      dup5\n        /* \"contracts/AbstractManager.sol\":3513:3528  Status.RESERVED */\n      0x01\n        /* \"contracts/AbstractManager.sol\":6368:6374  status */\n      dup1\n        /* \"contracts/AbstractManager.sol\":6344:6374  deployMap[id].status == status */\n      0x04\n      dup2\n      gt\n      iszero\n      tag_225\n      jumpi\n      tag_226\n      tag_92\n      jump\t// in\n    tag_226:\n    tag_225:\n        /* \"contracts/AbstractManager.sol\":6344:6353  deployMap */\n      0x01\n        /* \"contracts/AbstractManager.sol\":6344:6357  deployMap[id] */\n      0x00\n        /* \"contracts/AbstractManager.sol\":6354:6356  id */\n      dup5\n        /* \"contracts/AbstractManager.sol\":6344:6357  deployMap[id] */\n      dup2\n      mstore\n      0x20\n      add\n      swap1\n      dup2\n      mstore\n      0x20\n      add\n      0x00\n      keccak256\n        /* \"contracts/AbstractManager.sol\":6344:6364  deployMap[id].status */\n      0x04\n      add\n      0x00\n      swap1\n      sload\n      swap1\n      0x0100\n      exp\n      swap1\n      div\n      0xff\n      and\n        /* \"contracts/AbstractManager.sol\":6344:6374  deployMap[id].status == status */\n      0x04\n      dup2\n      gt\n      iszero\n      tag_227\n      jumpi\n      tag_228\n      tag_92\n      jump\t// in\n    tag_228:\n    tag_227:\n      eq\n        /* \"contracts/AbstractManager.sol\":6336:6397  require(deployMap[id].status == status, \"Deploy state error\") */\n      tag_229\n      jumpi\n      mload(0x40)\n      0x08c379a000000000000000000000000000000000000000000000000000000000\n      dup2\n      mstore\n      0x04\n      add\n      tag_230\n      swap1\n      tag_97\n      jump\t// in\n    tag_230:\n      mload(0x40)\n      dup1\n      swap2\n      sub\n      swap1\n      revert\n    tag_229:\n        /* \"contracts/AbstractManager.sol\":3539:3552  uint8 shardId */\n      0x00\n        /* \"contracts/AbstractManager.sol\":3555:3564  deployMap */\n      0x01\n        /* \"contracts/AbstractManager.sol\":3555:3568  deployMap[id] */\n      0x00\n        /* \"contracts/AbstractManager.sol\":3565:3567  id */\n      dup10\n        /* \"contracts/AbstractManager.sol\":3555:3568  deployMap[id] */\n      dup2\n      mstore\n      0x20\n      add\n      swap1\n      dup2\n      mstore\n      0x20\n      add\n      0x00\n      keccak256\n        /* \"contracts/AbstractManager.sol\":3555:3576  deployMap[id].shardId */\n      0x00\n      add\n      0x00\n      swap1\n      sload\n      swap1\n      0x0100\n      exp\n      swap1\n      div\n      0xff\n      and\n        /* \"contracts/AbstractManager.sol\":3539:3576  uint8 shardId = deployMap[id].shardId */\n      swap1\n      pop\n        /* \"contracts/AbstractManager.sol\":3586:3605  string memory shard */\n      0x00\n        /* \"contracts/AbstractManager.sol\":3608:3617  shardList */\n      0x02\n        /* \"contracts/AbstractManager.sol\":3618:3625  shardId */\n      dup3\n        /* \"contracts/AbstractManager.sol\":3608:3626  shardList[shardId] */\n      0xff\n      and\n      dup2\n      sload\n      dup2\n      lt\n      tag_232\n      jumpi\n      tag_233\n      tag_111\n      jump\t// in\n    tag_233:\n    tag_232:\n      swap1\n      0x00\n      mstore\n      keccak256(0x00, 0x20)\n      swap1\n      0x03\n      mul\n      add\n        /* \"contracts/AbstractManager.sol\":3608:3630  shardList[shardId].url */\n      0x00\n      add\n        /* \"contracts/AbstractManager.sol\":3586:3630  string memory shard = shardList[shardId].url */\n      dup1\n      sload\n      tag_235\n      swap1\n      tag_119\n      jump\t// in\n    tag_235:\n      dup1\n      0x1f\n      add\n      0x20\n      dup1\n      swap2\n      div\n      mul\n      0x20\n      add\n      mload(0x40)\n      swap1\n      dup2\n      add\n      0x40\n      mstore\n      dup1\n      swap3\n      swap2\n      swap1\n      dup2\n      dup2\n      mstore\n      0x20\n      add\n      dup3\n      dup1\n      sload\n      tag_236\n      swap1\n      tag_119\n      jump\t// in\n    tag_236:\n      dup1\n      iszero\n      tag_237\n      jumpi\n      dup1\n      0x1f\n      lt\n      tag_238\n      jumpi\n      0x0100\n      dup1\n      dup4\n      sload\n      div\n      mul\n      dup4\n      mstore\n      swap2\n      0x20\n      add\n      swap2\n      jump(tag_237)\n    tag_238:\n      dup3\n      add\n      swap2\n      swap1\n      0x00\n      mstore\n      keccak256(0x00, 0x20)\n      swap1\n    tag_239:\n      dup2\n      sload\n      dup2\n      mstore\n      swap1\n      0x01\n      add\n      swap1\n      0x20\n      add\n      dup1\n      dup4\n      gt\n      tag_239\n      jumpi\n      dup3\n      swap1\n      sub\n      0x1f\n      and\n      dup3\n      add\n      swap2\n    tag_237:\n      pop\n      pop\n      pop\n      pop\n      pop\n      swap1\n      pop\n        /* \"contracts/AbstractManager.sol\":3661:3665  addr */\n      dup8\n        /* \"contracts/AbstractManager.sol\":3640:3649  deployMap */\n      0x01\n        /* \"contracts/AbstractManager.sol\":3640:3653  deployMap[id] */\n      0x00\n        /* \"contracts/AbstractManager.sol\":3650:3652  id */\n      dup12\n        /* \"contracts/AbstractManager.sol\":3640:3653  deployMap[id] */\n      dup2\n      mstore\n      0x20\n      add\n      swap1\n      dup2\n      mstore\n      0x20\n      add\n      0x00\n      keccak256\n        /* \"contracts/AbstractManager.sol\":3640:3658  deployMap[id].addr */\n      0x00\n      add\n      0x01\n        /* \"contracts/AbstractManager.sol\":3640:3665  deployMap[id].addr = addr */\n      0x0100\n      exp\n      dup2\n      sload\n      dup2\n      0xffffffffffffffffffffffffffffffffffffffff\n      mul\n      not\n      and\n      swap1\n      dup4\n      0x60\n      shr\n      mul\n      or\n      swap1\n      sstore\n      pop\n        /* \"contracts/AbstractManager.sol\":3696:3700  name */\n      dup7\n      dup7\n        /* \"contracts/AbstractManager.sol\":3675:3684  deployMap */\n      0x01\n        /* \"contracts/AbstractManager.sol\":3675:3688  deployMap[id] */\n      0x00\n        /* \"contracts/AbstractManager.sol\":3685:3687  id */\n      dup13\n        /* \"contracts/AbstractManager.sol\":3675:3688  deployMap[id] */\n      dup2\n      mstore\n      0x20\n      add\n      swap1\n      dup2\n      mstore\n      0x20\n      add\n      0x00\n      keccak256\n        /* \"contracts/AbstractManager.sol\":3675:3693  deployMap[id].name */\n      0x01\n      add\n        /* \"contracts/AbstractManager.sol\":3675:3700  deployMap[id].name = name */\n      swap2\n      dup3\n      tag_240\n      swap3\n      swap2\n      swap1\n      tag_241\n      jump\t// in\n    tag_240:\n      pop\n        /* \"contracts/AbstractManager.sol\":3737:3752  block.timestamp */\n      timestamp\n        /* \"contracts/AbstractManager.sol\":3710:3719  deployMap */\n      0x01\n        /* \"contracts/AbstractManager.sol\":3710:3723  deployMap[id] */\n      0x00\n        /* \"contracts/AbstractManager.sol\":3720:3722  id */\n      dup12\n        /* \"contracts/AbstractManager.sol\":3710:3723  deployMap[id] */\n      dup2\n      mstore\n      0x20\n      add\n      swap1\n      dup2\n      mstore\n      0x20\n      add\n      0x00\n      keccak256\n        /* \"contracts/AbstractManager.sol\":3710:3734  deployMap[id].deployTime */\n      0x03\n      add\n        /* \"contracts/AbstractManager.sol\":3710:3752  deployMap[id].deployTime = block.timestamp */\n      dup2\n      swap1\n      sstore\n      pop\n        /* \"contracts/AbstractManager.sol\":3785:3806  Status.PENDING_DEPLOY */\n      0x02\n        /* \"contracts/AbstractManager.sol\":3762:3771  deployMap */\n      0x01\n        /* \"contracts/AbstractManager.sol\":3762:3775  deployMap[id] */\n      0x00\n        /* \"contracts/AbstractManager.sol\":3772:3774  id */\n      dup12\n        /* \"contracts/AbstractManager.sol\":3762:3775  deployMap[id] */\n      dup2\n      mstore\n      0x20\n      add\n      swap1\n      dup2\n      mstore\n      0x20\n      add\n      0x00\n      keccak256\n        /* \"contracts/AbstractManager.sol\":3762:3782  deployMap[id].status */\n      0x04\n      add\n      0x00\n        /* \"contracts/AbstractManager.sol\":3762:3806  deployMap[id].status = Status.PENDING_DEPLOY */\n      0x0100\n      exp\n      dup2\n      sload\n      dup2\n      0xff\n      mul\n      not\n      and\n      swap1\n      dup4\n      0x04\n      dup2\n      gt\n      iszero\n      tag_242\n      jumpi\n      tag_243\n      tag_92\n      jump\t// in\n    tag_243:\n    tag_242:\n      mul\n      or\n      swap1\n      sstore\n      pop\n        /* \"contracts/AbstractManager.sol\":3816:3822  oracle */\n      0x05\n      0x00\n      swap1\n      sload\n      swap1\n      0x0100\n      exp\n      swap1\n      div\n      0xffffffffffffffffffffffffffffffffffffffff\n      and\n        /* \"contracts/AbstractManager.sol\":3816:3834  oracle.checkDeploy */\n      0xffffffffffffffffffffffffffffffffffffffff\n      and\n      0x3fda57a2\n        /* \"contracts/AbstractManager.sol\":3835:3837  id */\n      dup11\n        /* \"contracts/AbstractManager.sol\":3839:3844  shard */\n      dup4\n        /* \"contracts/AbstractManager.sol\":3846:3850  addr */\n      dup12\n        /* \"contracts/AbstractManager.sol\":3852:3861  deployMap */\n      0x01\n        /* \"contracts/AbstractManager.sol\":3852:3865  deployMap[id] */\n      0x00\n        /* \"contracts/AbstractManager.sol\":3862:3864  id */\n      dup16\n        /* \"contracts/AbstractManager.sol\":3852:3865  deployMap[id] */\n      dup2\n      mstore\n      0x20\n      add\n      swap1\n      dup2\n      mstore\n      0x20\n      add\n      0x00\n      keccak256\n        /* \"contracts/AbstractManager.sol\":3852:3870  deployMap[id].user */\n      0x02\n      add\n      0x00\n      swap1\n      sload\n      swap1\n      0x0100\n      exp\n      swap1\n      div\n      0xffffffffffffffffffffffffffffffffffffffff\n      and\n        /* \"contracts/AbstractManager.sol\":3816:3871  oracle.checkDeploy(id, shard, addr, deployMap[id].user) */\n      mload(0x40)\n      dup6\n      0xffffffff\n      and\n      0xe0\n      shl\n      dup2\n      mstore\n      0x04\n      add\n      tag_244\n      swap5\n      swap4\n      swap3\n      swap2\n      swap1\n      tag_177\n      jump\t// in\n    tag_244:\n      0x00\n      mload(0x40)\n      dup1\n      dup4\n      sub\n      dup2\n      0x00\n      dup8\n      dup1\n      extcodesize\n      iszero\n      dup1\n      iszero\n      tag_245\n      jumpi\n      0x00\n      dup1\n      revert\n    tag_245:\n      pop\n      gas\n      call\n      iszero\n      dup1\n      iszero\n      tag_247\n      jumpi\n      returndatasize\n      0x00\n      dup1\n      returndatacopy\n      revert(0x00, returndatasize)\n    tag_247:\n      pop\n      pop\n      pop\n      pop\n        /* \"contracts/AbstractManager.sol\":3886:3932  DeployDeclared(id, shardId, shard, addr, name) */\n      0x1c42c890f21ce8a67778dd4a7c3f65f9131aa60fb612e1bcf7a7b7482e88f442\n        /* \"contracts/AbstractManager.sol\":3901:3903  id */\n      dup10\n        /* \"contracts/AbstractManager.sol\":3905:3912  shardId */\n      dup4\n        /* \"contracts/AbstractManager.sol\":3914:3919  shard */\n      dup4\n        /* \"contracts/AbstractManager.sol\":3921:3925  addr */\n      dup12\n        /* \"contracts/AbstractManager.sol\":3927:3931  name */\n      dup12\n      dup12\n        /* \"contracts/AbstractManager.sol\":3886:3932  DeployDeclared(id, shardId, shard, addr, name) */\n      mload(0x40)\n      tag_248\n      swap7\n      swap6\n      swap5\n      swap4\n      swap3\n      swap2\n      swap1\n      tag_249\n      jump\t// in\n    tag_248:\n      mload(0x40)\n      dup1\n      swap2\n      sub\n      swap1\n      log1\n        /* \"contracts/AbstractManager.sol\":3529:3939  {... */\n      pop\n      pop\n        /* \"contracts/AbstractManager.sol\":6939:6940  _ */\n      pop\n      pop\n        /* \"contracts/AbstractManager.sol\":6540:6541  _ */\n      pop\n        /* \"contracts/AbstractManager.sol\":3358:3939  function declareDeploy(uint256 id, bytes20 addr, string calldata name) external oracleInitialized checkDeployReserver(id)... */\n      pop\n      pop\n      pop\n      pop\n      jump\t// out\n        /* \"contracts/AbstractManager.sol\":2736:3327  function reserveDeploy() external atLeastOneShard returns(uint256, string memory){... */\n    tag_69:\n        /* \"contracts/AbstractManager.sol\":2794:2801  uint256 */\n      0x00\n        /* \"contracts/AbstractManager.sol\":2803:2816  string memory */\n      0x60\n        /* \"contracts/AbstractManager.sol\":6104:6105  0 */\n      0x00\n        /* \"contracts/AbstractManager.sol\":6085:6094  shardList */\n      0x02\n        /* \"contracts/AbstractManager.sol\":6085:6101  shardList.length */\n      dup1\n      sload\n      swap1\n      pop\n        /* \"contracts/AbstractManager.sol\":6085:6105  shardList.length > 0 */\n      gt\n        /* \"contracts/AbstractManager.sol\":6077:6129  require(shardList.length > 0, \"No shard registered\") */\n      tag_251\n      jumpi\n      mload(0x40)\n      0x08c379a000000000000000000000000000000000000000000000000000000000\n      dup2\n      mstore\n      0x04\n      add\n      tag_252\n      swap1\n      tag_253\n      jump\t// in\n    tag_252:\n      mload(0x40)\n      dup1\n      swap2\n      sub\n      swap1\n      revert\n    tag_251:\n        /* \"contracts/AbstractManager.sol\":2827:2840  uint8 shardId */\n      0x00\n        /* \"contracts/AbstractManager.sol\":2843:2861  algs[currentAlg]() */\n      tag_255\n        /* \"contracts/AbstractManager.sol\":2843:2847  algs */\n      0x04\n        /* \"contracts/AbstractManager.sol\":2848:2858  currentAlg */\n      0x03\n      0x00\n      swap1\n      sload\n      swap1\n      0x0100\n      exp\n      swap1\n      div\n      0xff\n      and\n        /* \"contracts/AbstractManager.sol\":2843:2859  algs[currentAlg] */\n      0xff\n      and\n      dup2\n      sload\n      dup2\n      lt\n      tag_256\n      jumpi\n      tag_257\n      tag_111\n      jump\t// in\n    tag_257:\n    tag_256:\n      swap1\n      0x00\n      mstore\n      keccak256(0x00, 0x20)\n      swap1\n      0x04\n      swap2\n      dup3\n      dup3\n      div\n      add\n      swap2\n      swap1\n      mod\n      0x08\n      mul\n      swap1\n      sload\n      swap1\n      0x0100\n      exp\n      swap1\n      div\n      dup1\n      iszero\n      tag_259\n      mul\n      or\n      0xffffffffffffffff\n      and\n        /* \"contracts/AbstractManager.sol\":2843:2861  algs[currentAlg]() */\n      0xffffffff\n      and\n      jump\t// in\n    tag_255:\n        /* \"contracts/AbstractManager.sol\":2827:2861  uint8 shardId = algs[currentAlg]() */\n      swap1\n      pop\n        /* \"contracts/AbstractManager.sol\":2871:2888  string memory url */\n      0x00\n        /* \"contracts/AbstractManager.sol\":2871:2893  string memory url = \"\" */\n      mload(0x40)\n      dup1\n      0x20\n      add\n      0x40\n      mstore\n      dup1\n      0x00\n      dup2\n      mstore\n      pop\n      swap1\n      pop\n        /* \"contracts/AbstractManager.sol\":2916:2924  maxShard */\n      0x07\n      0x00\n      swap1\n      sload\n      swap1\n      0x0100\n      exp\n      swap1\n      div\n      0xff\n      and\n        /* \"contracts/AbstractManager.sol\":2906:2924  shardId < maxShard */\n      0xff\n      and\n        /* \"contracts/AbstractManager.sol\":2906:2913  shardId */\n      dup3\n        /* \"contracts/AbstractManager.sol\":2906:2924  shardId < maxShard */\n      0xff\n      and\n      lt\n        /* \"contracts/AbstractManager.sol\":2903:3287  if(shardId < maxShard){... */\n      iszero\n      tag_260\n      jumpi\n        /* \"contracts/AbstractManager.sol\":2945:2954  shardList */\n      0x02\n        /* \"contracts/AbstractManager.sol\":2955:2962  shardId */\n      dup3\n        /* \"contracts/AbstractManager.sol\":2945:2963  shardList[shardId] */\n      0xff\n      and\n      dup2\n      sload\n      dup2\n      lt\n      tag_261\n      jumpi\n      tag_262\n      tag_111\n      jump\t// in\n    tag_262:\n    tag_261:\n      swap1\n      0x00\n      mstore\n      keccak256(0x00, 0x20)\n      swap1\n      0x03\n      mul\n      add\n        /* \"contracts/AbstractManager.sol\":2945:2967  shardList[shardId].url */\n      0x00\n      add\n        /* \"contracts/AbstractManager.sol\":2939:2967  url = shardList[shardId].url */\n      dup1\n      sload\n      tag_264\n      swap1\n      tag_119\n      jump\t// in\n    tag_264:\n      dup1\n      0x1f\n      add\n      0x20\n      dup1\n      swap2\n      div\n      mul\n      0x20\n      add\n      mload(0x40)\n      swap1\n      dup2\n      add\n      0x40\n      mstore\n      dup1\n      swap3\n      swap2\n      swap1\n      dup2\n      dup2\n      mstore\n      0x20\n      add\n      dup3\n      dup1\n      sload\n      tag_265\n      swap1\n      tag_119\n      jump\t// in\n    tag_265:\n      dup1\n      iszero\n      tag_266\n      jumpi\n      dup1\n      0x1f\n      lt\n      tag_267\n      jumpi\n      0x0100\n      dup1\n      dup4\n      sload\n      div\n      mul\n      dup4\n      mstore\n      swap2\n      0x20\n      add\n      swap2\n      jump(tag_266)\n    tag_267:\n      dup3\n      add\n      swap2\n      swap1\n      0x00\n      mstore\n      keccak256(0x00, 0x20)\n      swap1\n    tag_268:\n      dup2\n      sload\n      dup2\n      mstore\n      swap1\n      0x01\n      add\n      swap1\n      0x20\n      add\n      dup1\n      dup4\n      gt\n      tag_268\n      jumpi\n      dup3\n      swap1\n      sub\n      0x1f\n      and\n      dup3\n      add\n      swap2\n    tag_266:\n      pop\n      pop\n      pop\n      pop\n      pop\n      swap1\n      pop\n        /* \"contracts/AbstractManager.sol\":2981:2991  contractId */\n      0x06\n      0x00\n        /* \"contracts/AbstractManager.sol\":2981:2993  contractId++ */\n      dup2\n      sload\n      dup1\n      swap3\n      swap2\n      swap1\n      tag_269\n      swap1\n      tag_214\n      jump\t// in\n    tag_269:\n      swap2\n      swap1\n      pop\n      sstore\n      pop\n        /* \"contracts/AbstractManager.sol\":3031:3096  Contract(shardId, bytes20(0), \"\", msg.sender, 0, Status.RESERVED) */\n      mload(0x40)\n      dup1\n      0xc0\n      add\n      0x40\n      mstore\n      dup1\n        /* \"contracts/AbstractManager.sol\":3040:3047  shardId */\n      dup4\n        /* \"contracts/AbstractManager.sol\":3031:3096  Contract(shardId, bytes20(0), \"\", msg.sender, 0, Status.RESERVED) */\n      0xff\n      and\n      dup2\n      mstore\n      0x20\n      add\n        /* \"contracts/AbstractManager.sol\":3057:3058  0 */\n      0x00\n        /* \"contracts/AbstractManager.sol\":3049:3059  bytes20(0) */\n      0x60\n      shl\n        /* \"contracts/AbstractManager.sol\":3031:3096  Contract(shardId, bytes20(0), \"\", msg.sender, 0, Status.RESERVED) */\n      not(0xffffffffffffffffffffffff)\n      and\n      dup2\n      mstore\n      0x20\n      add\n      mload(0x40)\n      dup1\n      0x20\n      add\n      0x40\n      mstore\n      dup1\n      0x00\n      dup2\n      mstore\n      pop\n      dup2\n      mstore\n      0x20\n      add\n        /* \"contracts/AbstractManager.sol\":3065:3075  msg.sender */\n      caller\n        /* \"contracts/AbstractManager.sol\":3031:3096  Contract(shardId, bytes20(0), \"\", msg.sender, 0, Status.RESERVED) */\n      0xffffffffffffffffffffffffffffffffffffffff\n      and\n      dup2\n      mstore\n      0x20\n      add\n        /* \"contracts/AbstractManager.sol\":3077:3078  0 */\n      0x00\n        /* \"contracts/AbstractManager.sol\":3031:3096  Contract(shardId, bytes20(0), \"\", msg.sender, 0, Status.RESERVED) */\n      dup2\n      mstore\n      0x20\n      add\n        /* \"contracts/AbstractManager.sol\":3080:3095  Status.RESERVED */\n      0x01\n        /* \"contracts/AbstractManager.sol\":3031:3096  Contract(shardId, bytes20(0), \"\", msg.sender, 0, Status.RESERVED) */\n      0x04\n      dup2\n      gt\n      iszero\n      tag_270\n      jumpi\n      tag_271\n      tag_92\n      jump\t// in\n    tag_271:\n    tag_270:\n      dup2\n      mstore\n      pop\n        /* \"contracts/AbstractManager.sol\":3007:3016  deployMap */\n      0x01\n        /* \"contracts/AbstractManager.sol\":3007:3028  deployMap[contractId] */\n      0x00\n        /* \"contracts/AbstractManager.sol\":3017:3027  contractId */\n      sload(0x06)\n        /* \"contracts/AbstractManager.sol\":3007:3028  deployMap[contractId] */\n      dup2\n      mstore\n      0x20\n      add\n      swap1\n      dup2\n      mstore\n      0x20\n      add\n      0x00\n      keccak256\n        /* \"contracts/AbstractManager.sol\":3007:3096  deployMap[contractId] = Contract(shardId, bytes20(0), \"\", msg.sender, 0, Status.RESERVED) */\n      0x00\n      dup3\n      add\n      mload\n      dup2\n      0x00\n      add\n      exp(0x0100, 0x00)\n      dup2\n      sload\n      dup2\n      0xff\n      mul\n      not\n      and\n      swap1\n      dup4\n      0xff\n      and\n      mul\n      or\n      swap1\n      sstore\n      pop\n      0x20\n      dup3\n      add\n      mload\n      dup2\n      0x00\n      add\n      exp(0x0100, 0x01)\n      dup2\n      sload\n      dup2\n      0xffffffffffffffffffffffffffffffffffffffff\n      mul\n      not\n      and\n      swap1\n      dup4\n      0x60\n      shr\n      mul\n      or\n      swap1\n      sstore\n      pop\n      0x40\n      dup3\n      add\n      mload\n      dup2\n      0x01\n      add\n      swap1\n      dup2\n      tag_272\n      swap2\n      swap1\n      tag_139\n      jump\t// in\n    tag_272:\n      pop\n      0x60\n      dup3\n      add\n      mload\n      dup2\n      0x02\n      add\n      exp(0x0100, 0x00)\n      dup2\n      sload\n      dup2\n      0xffffffffffffffffffffffffffffffffffffffff\n      mul\n      not\n      and\n      swap1\n      dup4\n      0xffffffffffffffffffffffffffffffffffffffff\n      and\n      mul\n      or\n      swap1\n      sstore\n      pop\n      0x80\n      dup3\n      add\n      mload\n      dup2\n      0x03\n      add\n      sstore\n      0xa0\n      dup3\n      add\n      mload\n      dup2\n      0x04\n      add\n      exp(0x0100, 0x00)\n      dup2\n      sload\n      dup2\n      0xff\n      mul\n      not\n      and\n      swap1\n      dup4\n      0x04\n      dup2\n      gt\n      iszero\n      tag_273\n      jumpi\n      tag_274\n      tag_92\n      jump\t// in\n    tag_274:\n    tag_273:\n      mul\n      or\n      swap1\n      sstore\n      pop\n      swap1\n      pop\n      pop\n        /* \"contracts/AbstractManager.sol\":3110:3119  shardList */\n      0x02\n        /* \"contracts/AbstractManager.sol\":3120:3127  shardId */\n      dup3\n        /* \"contracts/AbstractManager.sol\":3110:3128  shardList[shardId] */\n      0xff\n      and\n      dup2\n      sload\n      dup2\n      lt\n      tag_275\n      jumpi\n      tag_276\n      tag_111\n      jump\t// in\n    tag_276:\n    tag_275:\n      swap1\n      0x00\n      mstore\n      keccak256(0x00, 0x20)\n      swap1\n      0x03\n      mul\n      add\n        /* \"contracts/AbstractManager.sol\":3110:3138  shardList[shardId].numDeploy */\n      0x02\n      add\n      0x00\n        /* \"contracts/AbstractManager.sol\":3110:3140  shardList[shardId].numDeploy++ */\n      dup2\n      sload\n      dup1\n      swap3\n      swap2\n      swap1\n      tag_278\n      swap1\n      tag_214\n      jump\t// in\n    tag_278:\n      swap2\n      swap1\n      pop\n      sstore\n      pop\n        /* \"contracts/AbstractManager.sol\":3159:3199  DeployReserved(contractId, shardId, url) */\n      0x7bddc540fb75cc1614fe9ca62cb4543cfd8b8e10f91ad21eac54e165e6892587\n        /* \"contracts/AbstractManager.sol\":3174:3184  contractId */\n      sload(0x06)\n        /* \"contracts/AbstractManager.sol\":3186:3193  shardId */\n      dup4\n        /* \"contracts/AbstractManager.sol\":3195:3198  url */\n      dup4\n        /* \"contracts/AbstractManager.sol\":3159:3199  DeployReserved(contractId, shardId, url) */\n      mload(0x40)\n      tag_279\n      swap4\n      swap3\n      swap2\n      swap1\n      tag_280\n      jump\t// in\n    tag_279:\n      mload(0x40)\n      dup1\n      swap2\n      sub\n      swap1\n      log1\n        /* \"contracts/AbstractManager.sol\":2903:3287  if(shardId < maxShard){... */\n      jump(tag_281)\n    tag_260:\n        /* \"contracts/AbstractManager.sol\":3237:3276  revert(\"No shard available for deploy\") */\n      mload(0x40)\n      0x08c379a000000000000000000000000000000000000000000000000000000000\n      dup2\n      mstore\n      0x04\n      add\n      tag_282\n      swap1\n      tag_283\n      jump\t// in\n    tag_282:\n      mload(0x40)\n      dup1\n      swap2\n      sub\n      swap1\n      revert\n        /* \"contracts/AbstractManager.sol\":2903:3287  if(shardId < maxShard){... */\n    tag_281:\n        /* \"contracts/AbstractManager.sol\":3304:3314  contractId */\n      sload(0x06)\n        /* \"contracts/AbstractManager.sol\":3316:3319  url */\n      dup2\n        /* \"contracts/AbstractManager.sol\":3296:3320  return (contractId, url) */\n      swap4\n      pop\n      swap4\n      pop\n      pop\n      pop\n        /* \"contracts/AbstractManager.sol\":2736:3327  function reserveDeploy() external atLeastOneShard returns(uint256, string memory){... */\n      swap1\n      swap2\n      jump\t// out\n        /* \"@openzeppelin/contracts/access/Ownable.sol\":2081:2279  function transferOwnership(address newOwner) public virtual onlyOwner {... */\n    tag_74:\n        /* \"@openzeppelin/contracts/access/Ownable.sol\":1094:1107  _checkOwner() */\n      tag_285\n        /* \"@openzeppelin/contracts/access/Ownable.sol\":1094:1105  _checkOwner */\n      tag_131\n        /* \"@openzeppelin/contracts/access/Ownable.sol\":1094:1107  _checkOwner() */\n      jump\t// in\n    tag_285:\n        /* \"@openzeppelin/contracts/access/Ownable.sol\":2189:2190  0 */\n      0x00\n        /* \"@openzeppelin/contracts/access/Ownable.sol\":2169:2191  newOwner != address(0) */\n      0xffffffffffffffffffffffffffffffffffffffff\n      and\n        /* \"@openzeppelin/contracts/access/Ownable.sol\":2169:2177  newOwner */\n      dup2\n        /* \"@openzeppelin/contracts/access/Ownable.sol\":2169:2191  newOwner != address(0) */\n      0xffffffffffffffffffffffffffffffffffffffff\n      and\n      sub\n        /* \"@openzeppelin/contracts/access/Ownable.sol\":2161:2234  require(newOwner != address(0), \"Ownable: new owner is the zero address\") */\n      tag_287\n      jumpi\n      mload(0x40)\n      0x08c379a000000000000000000000000000000000000000000000000000000000\n      dup2\n      mstore\n      0x04\n      add\n      tag_288\n      swap1\n      tag_289\n      jump\t// in\n    tag_288:\n      mload(0x40)\n      dup1\n      swap2\n      sub\n      swap1\n      revert\n    tag_287:\n        /* \"@openzeppelin/contracts/access/Ownable.sol\":2244:2272  _transferOwnership(newOwner) */\n      tag_290\n        /* \"@openzeppelin/contracts/access/Ownable.sol\":2263:2271  newOwner */\n      dup2\n        /* \"@openzeppelin/contracts/access/Ownable.sol\":2244:2262  _transferOwnership */\n      tag_148\n        /* \"@openzeppelin/contracts/access/Ownable.sol\":2244:2272  _transferOwnership(newOwner) */\n      jump\t// in\n    tag_290:\n        /* \"@openzeppelin/contracts/access/Ownable.sol\":2081:2279  function transferOwnership(address newOwner) public virtual onlyOwner {... */\n      pop\n      jump\t// out\n        /* \"contracts/AbstractManager.sol\":2174:2317  function setShardStatus(uint8 shardId, bool status) external onlyOwner shardExists(shardId) {... */\n    tag_78:\n        /* \"@openzeppelin/contracts/access/Ownable.sol\":1094:1107  _checkOwner() */\n      tag_292\n        /* \"@openzeppelin/contracts/access/Ownable.sol\":1094:1105  _checkOwner */\n      tag_131\n        /* \"@openzeppelin/contracts/access/Ownable.sol\":1094:1107  _checkOwner() */\n      jump\t// in\n    tag_292:\n        /* \"contracts/AbstractManager.sol\":2257:2264  shardId */\n      dup2\n        /* \"contracts/AbstractManager.sol\":6617:6626  shardList */\n      0x02\n        /* \"contracts/AbstractManager.sol\":6617:6633  shardList.length */\n      dup1\n      sload\n      swap1\n      pop\n        /* \"contracts/AbstractManager.sol\":6607:6614  shardId */\n      dup2\n        /* \"contracts/AbstractManager.sol\":6607:6633  shardId < shardList.length */\n      0xff\n      and\n      lt\n        /* \"contracts/AbstractManager.sol\":6599:6658  require(shardId < shardList.length, \"Shard does not exist\") */\n      tag_294\n      jumpi\n      mload(0x40)\n      0x08c379a000000000000000000000000000000000000000000000000000000000\n      dup2\n      mstore\n      0x04\n      add\n      tag_295\n      swap1\n      tag_296\n      jump\t// in\n    tag_295:\n      mload(0x40)\n      dup1\n      swap2\n      sub\n      swap1\n      revert\n    tag_294:\n        /* \"contracts/AbstractManager.sol\":2304:2310  status */\n      dup2\n        /* \"contracts/AbstractManager.sol\":2276:2285  shardList */\n      0x02\n        /* \"contracts/AbstractManager.sol\":2286:2293  shardId */\n      dup5\n        /* \"contracts/AbstractManager.sol\":2276:2294  shardList[shardId] */\n      0xff\n      and\n      dup2\n      sload\n      dup2\n      lt\n      tag_298\n      jumpi\n      tag_299\n      tag_111\n      jump\t// in\n    tag_299:\n    tag_298:\n      swap1\n      0x00\n      mstore\n      keccak256(0x00, 0x20)\n      swap1\n      0x03\n      mul\n      add\n        /* \"contracts/AbstractManager.sol\":2276:2301  shardList[shardId].active */\n      0x01\n      add\n      0x00\n        /* \"contracts/AbstractManager.sol\":2276:2310  shardList[shardId].active = status */\n      0x0100\n      exp\n      dup2\n      sload\n      dup2\n      0xff\n      mul\n      not\n      and\n      swap1\n      dup4\n      iszero\n      iszero\n      mul\n      or\n      swap1\n      sstore\n      pop\n        /* \"@openzeppelin/contracts/access/Ownable.sol\":1117:1118  _ */\n      pop\n        /* \"contracts/AbstractManager.sol\":2174:2317  function setShardStatus(uint8 shardId, bool status) external onlyOwner shardExists(shardId) {... */\n      pop\n      pop\n      jump\t// out\n        /* \"contracts/Manager.sol\":233:729  function defaultAlg() internal override returns(uint8) {... */\n    tag_79:\n        /* \"contracts/Manager.sol\":281:286  uint8 */\n      0x00\n        /* \"contracts/Manager.sol\":300:315  uint8 loopShard */\n      dup1\n        /* \"contracts/Manager.sol\":364:373  shardList */\n      0x02\n        /* \"contracts/Manager.sol\":364:380  shardList.length */\n      dup1\n      sload\n      swap1\n      pop\n        /* \"contracts/Manager.sol\":359:360  1 */\n      0x01\n        /* \"contracts/Manager.sol\":340:349  shardList */\n      0x02\n        /* \"contracts/Manager.sol\":340:356  shardList.length */\n      dup1\n      sload\n      swap1\n      pop\n        /* \"contracts/Manager.sol\":325:337  currentShard */\n      0x03\n      0x01\n      swap1\n      sload\n      swap1\n      0x0100\n      exp\n      swap1\n      div\n      0xff\n      and\n        /* \"contracts/Manager.sol\":325:356  currentShard + shardList.length */\n      0xff\n      and\n      tag_302\n      swap2\n      swap1\n      tag_303\n      jump\t// in\n    tag_302:\n        /* \"contracts/Manager.sol\":325:360  currentShard + shardList.length - 1 */\n      tag_304\n      swap2\n      swap1\n      tag_141\n      jump\t// in\n    tag_304:\n        /* \"contracts/Manager.sol\":324:380  (currentShard + shardList.length - 1) % shardList.length */\n      tag_305\n      swap2\n      swap1\n      tag_306\n      jump\t// in\n    tag_305:\n        /* \"contracts/Manager.sol\":300:381  uint8 loopShard = uint8((currentShard + shardList.length - 1) % shardList.length) */\n      swap1\n      pop\n        /* \"contracts/Manager.sol\":393:545  while(currentShard != loopShard && !shardList[currentShard].active){... */\n    tag_307:\n        /* \"contracts/Manager.sol\":415:424  loopShard */\n      dup1\n        /* \"contracts/Manager.sol\":399:424  currentShard != loopShard */\n      0xff\n      and\n        /* \"contracts/Manager.sol\":399:411  currentShard */\n      0x03\n      0x01\n      swap1\n      sload\n      swap1\n      0x0100\n      exp\n      swap1\n      div\n      0xff\n      and\n        /* \"contracts/Manager.sol\":399:424  currentShard != loopShard */\n      0xff\n      and\n      eq\n      iszero\n        /* \"contracts/Manager.sol\":399:459  currentShard != loopShard && !shardList[currentShard].active */\n      dup1\n      iszero\n      tag_309\n      jumpi\n      pop\n        /* \"contracts/Manager.sol\":429:438  shardList */\n      0x02\n        /* \"contracts/Manager.sol\":439:451  currentShard */\n      0x03\n      0x01\n      swap1\n      sload\n      swap1\n      0x0100\n      exp\n      swap1\n      div\n      0xff\n      and\n        /* \"contracts/Manager.sol\":429:452  shardList[currentShard] */\n      0xff\n      and\n      dup2\n      sload\n      dup2\n      lt\n      tag_310\n      jumpi\n      tag_311\n      tag_111\n      jump\t// in\n    tag_311:\n    tag_310:\n      swap1\n      0x00\n      mstore\n      keccak256(0x00, 0x20)\n      swap1\n      0x03\n      mul\n      add\n        /* \"contracts/Manager.sol\":429:459  shardList[currentShard].active */\n      0x01\n      add\n      0x00\n      swap1\n      sload\n      swap1\n      0x0100\n      exp\n      swap1\n      div\n      0xff\n      and\n        /* \"contracts/Manager.sol\":428:459  !shardList[currentShard].active */\n      iszero\n        /* \"contracts/Manager.sol\":399:459  currentShard != loopShard && !shardList[currentShard].active */\n    tag_309:\n        /* \"contracts/Manager.sol\":393:545  while(currentShard != loopShard && !shardList[currentShard].active){... */\n      iszero\n      tag_308\n      jumpi\n        /* \"contracts/Manager.sol\":516:525  shardList */\n      0x02\n        /* \"contracts/Manager.sol\":516:532  shardList.length */\n      dup1\n      sload\n      swap1\n      pop\n        /* \"contracts/Manager.sol\":511:512  1 */\n      0x01\n        /* \"contracts/Manager.sol\":496:508  currentShard */\n      0x03\n      0x01\n      swap1\n      sload\n      swap1\n      0x0100\n      exp\n      swap1\n      div\n      0xff\n      and\n        /* \"contracts/Manager.sol\":496:512  currentShard + 1 */\n      tag_313\n      swap2\n      swap1\n      tag_314\n      jump\t// in\n    tag_313:\n        /* \"contracts/Manager.sol\":495:532  (currentShard + 1) % shardList.length */\n      0xff\n      and\n      tag_315\n      swap2\n      swap1\n      tag_306\n      jump\t// in\n    tag_315:\n        /* \"contracts/Manager.sol\":474:486  currentShard */\n      0x03\n      0x01\n        /* \"contracts/Manager.sol\":474:533  currentShard = uint8((currentShard + 1) % shardList.length) */\n      0x0100\n      exp\n      dup2\n      sload\n      dup2\n      0xff\n      mul\n      not\n      and\n      swap1\n      dup4\n      0xff\n      and\n      mul\n      or\n      swap1\n      sstore\n      pop\n        /* \"contracts/Manager.sol\":393:545  while(currentShard != loopShard && !shardList[currentShard].active){... */\n      jump(tag_307)\n    tag_308:\n        /* \"contracts/Manager.sol\":556:569  uint8 shardId */\n      0x00\n        /* \"contracts/Manager.sol\":572:581  shardList */\n      0x02\n        /* \"contracts/Manager.sol\":582:594  currentShard */\n      0x03\n      0x01\n      swap1\n      sload\n      swap1\n      0x0100\n      exp\n      swap1\n      div\n      0xff\n      and\n        /* \"contracts/Manager.sol\":572:595  shardList[currentShard] */\n      0xff\n      and\n      dup2\n      sload\n      dup2\n      lt\n      tag_316\n      jumpi\n      tag_317\n      tag_111\n      jump\t// in\n    tag_317:\n    tag_316:\n      swap1\n      0x00\n      mstore\n      keccak256(0x00, 0x20)\n      swap1\n      0x03\n      mul\n      add\n        /* \"contracts/Manager.sol\":572:602  shardList[currentShard].active */\n      0x01\n      add\n      0x00\n      swap1\n      sload\n      swap1\n      0x0100\n      exp\n      swap1\n      div\n      0xff\n      and\n        /* \"contracts/Manager.sol\":572:627  shardList[currentShard].active? currentShard : maxShard */\n      tag_319\n      jumpi\n        /* \"contracts/Manager.sol\":619:627  maxShard */\n      0x07\n      0x00\n      swap1\n      sload\n      swap1\n      0x0100\n      exp\n      swap1\n      div\n      0xff\n      and\n        /* \"contracts/Manager.sol\":572:627  shardList[currentShard].active? currentShard : maxShard */\n      jump(tag_320)\n    tag_319:\n        /* \"contracts/Manager.sol\":604:616  currentShard */\n      0x03\n      0x01\n      swap1\n      sload\n      swap1\n      0x0100\n      exp\n      swap1\n      div\n      0xff\n      and\n        /* \"contracts/Manager.sol\":572:627  shardList[currentShard].active? currentShard : maxShard */\n    tag_320:\n        /* \"contracts/Manager.sol\":556:627  uint8 shardId = shardList[currentShard].active? currentShard : maxShard */\n      swap1\n      pop\n        /* \"contracts/Manager.sol\":680:689  shardList */\n      0x02\n        /* \"contracts/Manager.sol\":680:696  shardList.length */\n      dup1\n      sload\n      swap1\n      pop\n        /* \"contracts/Manager.sol\":675:676  1 */\n      0x01\n        /* \"contracts/Manager.sol\":660:672  currentShard */\n      0x03\n      0x01\n      swap1\n      sload\n      swap1\n      0x0100\n      exp\n      swap1\n      div\n      0xff\n      and\n        /* \"contracts/Manager.sol\":660:676  currentShard + 1 */\n      tag_321\n      swap2\n      swap1\n      tag_314\n      jump\t// in\n    tag_321:\n        /* \"contracts/Manager.sol\":659:696  (currentShard + 1) % shardList.length */\n      0xff\n      and\n      tag_322\n      swap2\n      swap1\n      tag_306\n      jump\t// in\n    tag_322:\n        /* \"contracts/Manager.sol\":638:650  currentShard */\n      0x03\n      0x01\n        /* \"contracts/Manager.sol\":638:697  currentShard = uint8((currentShard + 1) % shardList.length) */\n      0x0100\n      exp\n      dup2\n      sload\n      dup2\n      0xff\n      mul\n      not\n      and\n      swap1\n      dup4\n      0xff\n      and\n      mul\n      or\n      swap1\n      sstore\n      pop\n        /* \"contracts/Manager.sol\":715:722  shardId */\n      dup1\n        /* \"contracts/Manager.sol\":708:722  return shardId */\n      swap3\n      pop\n      pop\n      pop\n        /* \"contracts/Manager.sol\":233:729  function defaultAlg() internal override returns(uint8) {... */\n      swap1\n      jump\t// out\n        /* \"contracts/Manager.sol\":735:1373  function minDeployAlg() internal view returns(uint8) {... */\n    tag_80:\n        /* \"contracts/Manager.sol\":781:786  uint8 */\n      0x00\n        /* \"contracts/Manager.sol\":798:815  uint256 minDeploy */\n      dup1\n        /* \"contracts/Manager.sol\":825:838  uint8 shardId */\n      0x00\n        /* \"contracts/Manager.sol\":841:849  maxShard */\n      0x07\n      0x00\n      swap1\n      sload\n      swap1\n      0x0100\n      exp\n      swap1\n      div\n      0xff\n      and\n        /* \"contracts/Manager.sol\":825:849  uint8 shardId = maxShard */\n      swap1\n      pop\n        /* \"contracts/Manager.sol\":859:866  uint8 i */\n      0x00\n        /* \"contracts/Manager.sol\":877:964  for(i = 0; i < shardList.length && !shardList[i].active; i++){... */\n    tag_324:\n        /* \"contracts/Manager.sol\":892:901  shardList */\n      0x02\n        /* \"contracts/Manager.sol\":892:908  shardList.length */\n      dup1\n      sload\n      swap1\n      pop\n        /* \"contracts/Manager.sol\":888:889  i */\n      dup2\n        /* \"contracts/Manager.sol\":888:908  i < shardList.length */\n      0xff\n      and\n      lt\n        /* \"contracts/Manager.sol\":888:932  i < shardList.length && !shardList[i].active */\n      dup1\n      iszero\n      tag_327\n      jumpi\n      pop\n        /* \"contracts/Manager.sol\":913:922  shardList */\n      0x02\n        /* \"contracts/Manager.sol\":923:924  i */\n      dup2\n        /* \"contracts/Manager.sol\":913:925  shardList[i] */\n      0xff\n      and\n      dup2\n      sload\n      dup2\n      lt\n      tag_328\n      jumpi\n      tag_329\n      tag_111\n      jump\t// in\n    tag_329:\n    tag_328:\n      swap1\n      0x00\n      mstore\n      keccak256(0x00, 0x20)\n      swap1\n      0x03\n      mul\n      add\n        /* \"contracts/Manager.sol\":913:932  shardList[i].active */\n      0x01\n      add\n      0x00\n      swap1\n      sload\n      swap1\n      0x0100\n      exp\n      swap1\n      div\n      0xff\n      and\n        /* \"contracts/Manager.sol\":912:932  !shardList[i].active */\n      iszero\n        /* \"contracts/Manager.sol\":888:932  i < shardList.length && !shardList[i].active */\n    tag_327:\n        /* \"contracts/Manager.sol\":877:964  for(i = 0; i < shardList.length && !shardList[i].active; i++){... */\n      iszero\n      tag_325\n      jumpi\n        /* \"contracts/Manager.sol\":934:937  i++ */\n      dup1\n      dup1\n      tag_331\n      swap1\n      tag_332\n      jump\t// in\n    tag_331:\n      swap2\n      pop\n      pop\n        /* \"contracts/Manager.sol\":877:964  for(i = 0; i < shardList.length && !shardList[i].active; i++){... */\n      jump(tag_324)\n    tag_325:\n        /* \"contracts/Manager.sol\":981:990  shardList */\n      0x02\n        /* \"contracts/Manager.sol\":981:997  shardList.length */\n      dup1\n      sload\n      swap1\n      pop\n        /* \"contracts/Manager.sol\":977:978  i */\n      dup2\n        /* \"contracts/Manager.sol\":977:997  i < shardList.length */\n      0xff\n      and\n      lt\n        /* \"contracts/Manager.sol\":974:1342  if(i < shardList.length){... */\n      iszero\n      tag_333\n      jumpi\n        /* \"contracts/Manager.sol\":1022:1023  i */\n      dup1\n        /* \"contracts/Manager.sol\":1012:1023  shardId = i */\n      swap2\n      pop\n        /* \"contracts/Manager.sol\":1049:1058  shardList */\n      0x02\n        /* \"contracts/Manager.sol\":1059:1060  i */\n      dup2\n        /* \"contracts/Manager.sol\":1049:1061  shardList[i] */\n      0xff\n      and\n      dup2\n      sload\n      dup2\n      lt\n      tag_334\n      jumpi\n      tag_335\n      tag_111\n      jump\t// in\n    tag_335:\n    tag_334:\n      swap1\n      0x00\n      mstore\n      keccak256(0x00, 0x20)\n      swap1\n      0x03\n      mul\n      add\n        /* \"contracts/Manager.sol\":1049:1071  shardList[i].numDeploy */\n      0x02\n      add\n      sload\n        /* \"contracts/Manager.sol\":1037:1071  minDeploy = shardList[i].numDeploy */\n      swap3\n      pop\n        /* \"contracts/Manager.sol\":1090:1097  uint8 j */\n      0x00\n        /* \"contracts/Manager.sol\":1102:1103  1 */\n      0x01\n        /* \"contracts/Manager.sol\":1100:1101  i */\n      dup3\n        /* \"contracts/Manager.sol\":1100:1103  i+1 */\n      tag_340\n      swap2\n      swap1\n      tag_314\n      jump\t// in\n    tag_340:\n        /* \"contracts/Manager.sol\":1090:1103  uint8 j = i+1 */\n      swap1\n      pop\n        /* \"contracts/Manager.sol\":1086:1332  for(uint8 j = i+1; j < shardList.length; j++){... */\n    tag_337:\n        /* \"contracts/Manager.sol\":1109:1118  shardList */\n      0x02\n        /* \"contracts/Manager.sol\":1109:1125  shardList.length */\n      dup1\n      sload\n      swap1\n      pop\n        /* \"contracts/Manager.sol\":1105:1106  j */\n      dup2\n        /* \"contracts/Manager.sol\":1105:1125  j < shardList.length */\n      0xff\n      and\n      lt\n        /* \"contracts/Manager.sol\":1086:1332  for(uint8 j = i+1; j < shardList.length; j++){... */\n      iszero\n      tag_338\n      jumpi\n        /* \"contracts/Manager.sol\":1152:1161  shardList */\n      0x02\n        /* \"contracts/Manager.sol\":1162:1163  j */\n      dup2\n        /* \"contracts/Manager.sol\":1152:1164  shardList[j] */\n      0xff\n      and\n      dup2\n      sload\n      dup2\n      lt\n      tag_341\n      jumpi\n      tag_342\n      tag_111\n      jump\t// in\n    tag_342:\n    tag_341:\n      swap1\n      0x00\n      mstore\n      keccak256(0x00, 0x20)\n      swap1\n      0x03\n      mul\n      add\n        /* \"contracts/Manager.sol\":1152:1171  shardList[j].active */\n      0x01\n      add\n      0x00\n      swap1\n      sload\n      swap1\n      0x0100\n      exp\n      swap1\n      div\n      0xff\n      and\n        /* \"contracts/Manager.sol\":1152:1209  shardList[j].active && shardList[j].numDeploy < minDeploy */\n      dup1\n      iszero\n      tag_344\n      jumpi\n      pop\n        /* \"contracts/Manager.sol\":1200:1209  minDeploy */\n      dup4\n        /* \"contracts/Manager.sol\":1175:1184  shardList */\n      0x02\n        /* \"contracts/Manager.sol\":1185:1186  j */\n      dup3\n        /* \"contracts/Manager.sol\":1175:1187  shardList[j] */\n      0xff\n      and\n      dup2\n      sload\n      dup2\n      lt\n      tag_345\n      jumpi\n      tag_346\n      tag_111\n      jump\t// in\n    tag_346:\n    tag_345:\n      swap1\n      0x00\n      mstore\n      keccak256(0x00, 0x20)\n      swap1\n      0x03\n      mul\n      add\n        /* \"contracts/Manager.sol\":1175:1197  shardList[j].numDeploy */\n      0x02\n      add\n      sload\n        /* \"contracts/Manager.sol\":1175:1209  shardList[j].numDeploy < minDeploy */\n      lt\n        /* \"contracts/Manager.sol\":1152:1209  shardList[j].active && shardList[j].numDeploy < minDeploy */\n    tag_344:\n        /* \"contracts/Manager.sol\":1149:1318  if(shardList[j].active && shardList[j].numDeploy < minDeploy){... */\n      iszero\n      tag_348\n      jumpi\n        /* \"contracts/Manager.sol\":1242:1243  j */\n      dup1\n        /* \"contracts/Manager.sol\":1232:1243  shardId = j */\n      swap3\n      pop\n        /* \"contracts/Manager.sol\":1277:1286  shardList */\n      0x02\n        /* \"contracts/Manager.sol\":1287:1288  j */\n      dup2\n        /* \"contracts/Manager.sol\":1277:1289  shardList[j] */\n      0xff\n      and\n      dup2\n      sload\n      dup2\n      lt\n      tag_349\n      jumpi\n      tag_350\n      tag_111\n      jump\t// in\n    tag_350:\n    tag_349:\n      swap1\n      0x00\n      mstore\n      keccak256(0x00, 0x20)\n      swap1\n      0x03\n      mul\n      add\n        /* \"contracts/Manager.sol\":1277:1299  shardList[j].numDeploy */\n      0x02\n      add\n      sload\n        /* \"contracts/Manager.sol\":1265:1299  minDeploy = shardList[j].numDeploy */\n      swap4\n      pop\n        /* \"contracts/Manager.sol\":1149:1318  if(shardList[j].active && shardList[j].numDeploy < minDeploy){... */\n    tag_348:\n        /* \"contracts/Manager.sol\":1127:1130  j++ */\n      dup1\n      dup1\n      tag_352\n      swap1\n      tag_332\n      jump\t// in\n    tag_352:\n      swap2\n      pop\n      pop\n        /* \"contracts/Manager.sol\":1086:1332  for(uint8 j = i+1; j < shardList.length; j++){... */\n      jump(tag_337)\n    tag_338:\n      pop\n        /* \"contracts/Manager.sol\":974:1342  if(i < shardList.length){... */\n    tag_333:\n        /* \"contracts/Manager.sol\":1359:1366  shardId */\n      dup2\n        /* \"contracts/Manager.sol\":1352:1366  return shardId */\n      swap4\n      pop\n      pop\n      pop\n      pop\n        /* \"contracts/Manager.sol\":735:1373  function minDeployAlg() internal view returns(uint8) {... */\n      swap1\n      jump\t// out\n        /* \"contracts/AbstractManager.sol\":2334:2685  function getInfoByDeployId(uint256 id) internal view returns(uint8, string memory, bytes20, string memory){... */\n    tag_100:\n        /* \"contracts/AbstractManager.sol\":2395:2400  uint8 */\n      0x00\n        /* \"contracts/AbstractManager.sol\":2402:2415  string memory */\n      0x60\n        /* \"contracts/AbstractManager.sol\":2417:2424  bytes20 */\n      0x00\n        /* \"contracts/AbstractManager.sol\":2426:2439  string memory */\n      0x60\n        /* \"contracts/AbstractManager.sol\":2450:2463  uint8 shardId */\n      0x00\n        /* \"contracts/AbstractManager.sol\":2466:2475  deployMap */\n      0x01\n        /* \"contracts/AbstractManager.sol\":2466:2479  deployMap[id] */\n      0x00\n        /* \"contracts/AbstractManager.sol\":2476:2478  id */\n      dup8\n        /* \"contracts/AbstractManager.sol\":2466:2479  deployMap[id] */\n      dup2\n      mstore\n      0x20\n      add\n      swap1\n      dup2\n      mstore\n      0x20\n      add\n      0x00\n      keccak256\n        /* \"contracts/AbstractManager.sol\":2466:2487  deployMap[id].shardId */\n      0x00\n      add\n      0x00\n      swap1\n      sload\n      swap1\n      0x0100\n      exp\n      swap1\n      div\n      0xff\n      and\n        /* \"contracts/AbstractManager.sol\":2450:2487  uint8 shardId = deployMap[id].shardId */\n      swap1\n      pop\n        /* \"contracts/AbstractManager.sol\":2497:2516  string memory shard */\n      0x00\n        /* \"contracts/AbstractManager.sol\":2519:2528  shardList */\n      0x02\n        /* \"contracts/AbstractManager.sol\":2529:2536  shardId */\n      dup3\n        /* \"contracts/AbstractManager.sol\":2519:2537  shardList[shardId] */\n      0xff\n      and\n      dup2\n      sload\n      dup2\n      lt\n      tag_354\n      jumpi\n      tag_355\n      tag_111\n      jump\t// in\n    tag_355:\n    tag_354:\n      swap1\n      0x00\n      mstore\n      keccak256(0x00, 0x20)\n      swap1\n      0x03\n      mul\n      add\n        /* \"contracts/AbstractManager.sol\":2519:2541  shardList[shardId].url */\n      0x00\n      add\n        /* \"contracts/AbstractManager.sol\":2497:2541  string memory shard = shardList[shardId].url */\n      dup1\n      sload\n      tag_357\n      swap1\n      tag_119\n      jump\t// in\n    tag_357:\n      dup1\n      0x1f\n      add\n      0x20\n      dup1\n      swap2\n      div\n      mul\n      0x20\n      add\n      mload(0x40)\n      swap1\n      dup2\n      add\n      0x40\n      mstore\n      dup1\n      swap3\n      swap2\n      swap1\n      dup2\n      dup2\n      mstore\n      0x20\n      add\n      dup3\n      dup1\n      sload\n      tag_358\n      swap1\n      tag_119\n      jump\t// in\n    tag_358:\n      dup1\n      iszero\n      tag_359\n      jumpi\n      dup1\n      0x1f\n      lt\n      tag_360\n      jumpi\n      0x0100\n      dup1\n      dup4\n      sload\n      div\n      mul\n      dup4\n      mstore\n      swap2\n      0x20\n      add\n      swap2\n      jump(tag_359)\n    tag_360:\n      dup3\n      add\n      swap2\n      swap1\n      0x00\n      mstore\n      keccak256(0x00, 0x20)\n      swap1\n    tag_361:\n      dup2\n      sload\n      dup2\n      mstore\n      swap1\n      0x01\n      add\n      swap1\n      0x20\n      add\n      dup1\n      dup4\n      gt\n      tag_361\n      jumpi\n      dup3\n      swap1\n      sub\n      0x1f\n      and\n      dup3\n      add\n      swap2\n    tag_359:\n      pop\n      pop\n      pop\n      pop\n      pop\n      swap1\n      pop\n        /* \"contracts/AbstractManager.sol\":2551:2563  bytes20 addr */\n      0x00\n        /* \"contracts/AbstractManager.sol\":2566:2575  deployMap */\n      0x01\n        /* \"contracts/AbstractManager.sol\":2566:2579  deployMap[id] */\n      0x00\n        /* \"contracts/AbstractManager.sol\":2576:2578  id */\n      dup10\n        /* \"contracts/AbstractManager.sol\":2566:2579  deployMap[id] */\n      dup2\n      mstore\n      0x20\n      add\n      swap1\n      dup2\n      mstore\n      0x20\n      add\n      0x00\n      keccak256\n        /* \"contracts/AbstractManager.sol\":2566:2584  deployMap[id].addr */\n      0x00\n      add\n      0x01\n      swap1\n      sload\n      swap1\n      0x0100\n      exp\n      swap1\n      div\n      0x60\n      shl\n        /* \"contracts/AbstractManager.sol\":2551:2584  bytes20 addr = deployMap[id].addr */\n      swap1\n      pop\n        /* \"contracts/AbstractManager.sol\":2594:2612  string memory name */\n      0x00\n        /* \"contracts/AbstractManager.sol\":2615:2624  deployMap */\n      0x01\n        /* \"contracts/AbstractManager.sol\":2615:2628  deployMap[id] */\n      0x00\n        /* \"contracts/AbstractManager.sol\":2625:2627  id */\n      dup11\n        /* \"contracts/AbstractManager.sol\":2615:2628  deployMap[id] */\n      dup2\n      mstore\n      0x20\n      add\n      swap1\n      dup2\n      mstore\n      0x20\n      add\n      0x00\n      keccak256\n        /* \"contracts/AbstractManager.sol\":2615:2633  deployMap[id].name */\n      0x01\n      add\n        /* \"contracts/AbstractManager.sol\":2594:2633  string memory name = deployMap[id].name */\n      dup1\n      sload\n      tag_362\n      swap1\n      tag_119\n      jump\t// in\n    tag_362:\n      dup1\n      0x1f\n      add\n      0x20\n      dup1\n      swap2\n      div\n      mul\n      0x20\n      add\n      mload(0x40)\n      swap1\n      dup2\n      add\n      0x40\n      mstore\n      dup1\n      swap3\n      swap2\n      swap1\n      dup2\n      dup2\n      mstore\n      0x20\n      add\n      dup3\n      dup1\n      sload\n      tag_363\n      swap1\n      tag_119\n      jump\t// in\n    tag_363:\n      dup1\n      iszero\n      tag_364\n      jumpi\n      dup1\n      0x1f\n      lt\n      tag_365\n      jumpi\n      0x0100\n      dup1\n      dup4\n      sload\n      div\n      mul\n      dup4\n      mstore\n      swap2\n      0x20\n      add\n      swap2\n      jump(tag_364)\n    tag_365:\n      dup3\n      add\n      swap2\n      swap1\n      0x00\n      mstore\n      keccak256(0x00, 0x20)\n      swap1\n    tag_366:\n      dup2\n      sload\n      dup2\n      mstore\n      swap1\n      0x01\n      add\n      swap1\n      0x20\n      add\n      dup1\n      dup4\n      gt\n      tag_366\n      jumpi\n      dup3\n      swap1\n      sub\n      0x1f\n      and\n      dup3\n      add\n      swap2\n    tag_364:\n      pop\n      pop\n      pop\n      pop\n      pop\n      swap1\n      pop\n        /* \"contracts/AbstractManager.sol\":2651:2658  shardId */\n      dup4\n        /* \"contracts/AbstractManager.sol\":2660:2665  shard */\n      dup4\n        /* \"contracts/AbstractManager.sol\":2667:2671  addr */\n      dup4\n        /* \"contracts/AbstractManager.sol\":2673:2677  name */\n      dup4\n        /* \"contracts/AbstractManager.sol\":2643:2678  return (shardId, shard, addr, name) */\n      swap8\n      pop\n      swap8\n      pop\n      swap8\n      pop\n      swap8\n      pop\n      pop\n      pop\n      pop\n      pop\n        /* \"contracts/AbstractManager.sol\":2334:2685  function getInfoByDeployId(uint256 id) internal view returns(uint8, string memory, bytes20, string memory){... */\n      swap2\n      swap4\n      pop\n      swap2\n      swap4\n      jump\t// out\n        /* \"@openzeppelin/contracts/access/Ownable.sol\":1359:1489  function _checkOwner() internal view virtual {... */\n    tag_131:\n        /* \"@openzeppelin/contracts/access/Ownable.sol\":1433:1445  _msgSender() */\n      tag_368\n        /* \"@openzeppelin/contracts/access/Ownable.sol\":1433:1443  _msgSender */\n      tag_369\n        /* \"@openzeppelin/contracts/access/Ownable.sol\":1433:1445  _msgSender() */\n      jump\t// in\n    tag_368:\n        /* \"@openzeppelin/contracts/access/Ownable.sol\":1422:1445  owner() == _msgSender() */\n      0xffffffffffffffffffffffffffffffffffffffff\n      and\n        /* \"@openzeppelin/contracts/access/Ownable.sol\":1422:1429  owner() */\n      tag_370\n        /* \"@openzeppelin/contracts/access/Ownable.sol\":1422:1427  owner */\n      tag_51\n        /* \"@openzeppelin/contracts/access/Ownable.sol\":1422:1429  owner() */\n      jump\t// in\n    tag_370:\n        /* \"@openzeppelin/contracts/access/Ownable.sol\":1422:1445  owner() == _msgSender() */\n      0xffffffffffffffffffffffffffffffffffffffff\n      and\n      eq\n        /* \"@openzeppelin/contracts/access/Ownable.sol\":1414:1482  require(owner() == _msgSender(), \"Ownable: caller is not the owner\") */\n      tag_371\n      jumpi\n      mload(0x40)\n      0x08c379a000000000000000000000000000000000000000000000000000000000\n      dup2\n      mstore\n      0x04\n      add\n      tag_372\n      swap1\n      tag_373\n      jump\t// in\n    tag_372:\n      mload(0x40)\n      dup1\n      swap2\n      sub\n      swap1\n      revert\n    tag_371:\n        /* \"@openzeppelin/contracts/access/Ownable.sol\":1359:1489  function _checkOwner() internal view virtual {... */\n      jump\t// out\n        /* \"@openzeppelin/contracts/access/Ownable.sol\":2433:2620  function _transferOwnership(address newOwner) internal virtual {... */\n    tag_148:\n        /* \"@openzeppelin/contracts/access/Ownable.sol\":2506:2522  address oldOwner */\n      0x00\n        /* \"@openzeppelin/contracts/access/Ownable.sol\":2525:2531  _owner */\n      dup1\n      0x00\n      swap1\n      sload\n      swap1\n      0x0100\n      exp\n      swap1\n      div\n      0xffffffffffffffffffffffffffffffffffffffff\n      and\n        /* \"@openzeppelin/contracts/access/Ownable.sol\":2506:2531  address oldOwner = _owner */\n      swap1\n      pop\n        /* \"@openzeppelin/contracts/access/Ownable.sol\":2550:2558  newOwner */\n      dup2\n        /* \"@openzeppelin/contracts/access/Ownable.sol\":2541:2547  _owner */\n      0x00\n      dup1\n        /* \"@openzeppelin/contracts/access/Ownable.sol\":2541:2558  _owner = newOwner */\n      0x0100\n      exp\n      dup2\n      sload\n      dup2\n      0xffffffffffffffffffffffffffffffffffffffff\n      mul\n      not\n      and\n      swap1\n      dup4\n      0xffffffffffffffffffffffffffffffffffffffff\n      and\n      mul\n      or\n      swap1\n      sstore\n      pop\n        /* \"@openzeppelin/contracts/access/Ownable.sol\":2604:2612  newOwner */\n      dup2\n        /* \"@openzeppelin/contracts/access/Ownable.sol\":2573:2613  OwnershipTransferred(oldOwner, newOwner) */\n      0xffffffffffffffffffffffffffffffffffffffff\n      and\n        /* \"@openzeppelin/contracts/access/Ownable.sol\":2594:2602  oldOwner */\n      dup2\n        /* \"@openzeppelin/contracts/access/Ownable.sol\":2573:2613  OwnershipTransferred(oldOwner, newOwner) */\n      0xffffffffffffffffffffffffffffffffffffffff\n      and\n      0x8be0079c531659141344cd1fd0a4f28419497f9722a3daafe3b4186f6b6457e0\n      mload(0x40)\n      mload(0x40)\n      dup1\n      swap2\n      sub\n      swap1\n      log3\n        /* \"@openzeppelin/contracts/access/Ownable.sol\":2496:2620  {... */\n      pop\n        /* \"@openzeppelin/contracts/access/Ownable.sol\":2433:2620  function _transferOwnership(address newOwner) internal virtual {... */\n      pop\n      jump\t// out\n        /* \"@openzeppelin/contracts/utils/Context.sol\":640:736  function _msgSender() internal view virtual returns (address) {... */\n    tag_369:\n        /* \"@openzeppelin/contracts/utils/Context.sol\":693:700  address */\n      0x00\n        /* \"@openzeppelin/contracts/utils/Context.sol\":719:729  msg.sender */\n      caller\n        /* \"@openzeppelin/contracts/utils/Context.sol\":712:729  return msg.sender */\n      swap1\n      pop\n        /* \"@openzeppelin/contracts/utils/Context.sol\":640:736  function _msgSender() internal view virtual returns (address) {... */\n      swap1\n      jump\t// out\n    tag_108:\n      pop\n      dup1\n      sload\n      tag_376\n      swap1\n      tag_119\n      jump\t// in\n    tag_376:\n      0x00\n      dup3\n      sstore\n      dup1\n      0x1f\n      lt\n      tag_378\n      jumpi\n      pop\n      jump(tag_377)\n    tag_378:\n      0x1f\n      add\n      0x20\n      swap1\n      div\n      swap1\n      0x00\n      mstore\n      keccak256(0x00, 0x20)\n      swap1\n      dup2\n      add\n      swap1\n      tag_379\n      swap2\n      swap1\n      tag_380\n      jump\t// in\n    tag_379:\n    tag_377:\n      pop\n      jump\t// out\n    tag_259:\n      tag_381\n      tag_382\n      jump\t// in\n    tag_381:\n      jump\t// out\n    tag_380:\n    tag_383:\n      dup1\n      dup3\n      gt\n      iszero\n      tag_384\n      jumpi\n      0x00\n      dup2\n      0x00\n      swap1\n      sstore\n      pop\n      0x01\n      add\n      jump(tag_383)\n    tag_384:\n      pop\n      swap1\n      jump\t// out\n        /* \"#utility.yul\":88:205   */\n    tag_386:\n        /* \"#utility.yul\":197:198   */\n      0x00\n        /* \"#utility.yul\":194:195   */\n      dup1\n        /* \"#utility.yul\":187:199   */\n      revert\n        /* \"#utility.yul\":211:328   */\n    tag_387:\n        /* \"#utility.yul\":320:321   */\n      0x00\n        /* \"#utility.yul\":317:318   */\n      dup1\n        /* \"#utility.yul\":310:322   */\n      revert\n        /* \"#utility.yul\":334:411   */\n    tag_388:\n        /* \"#utility.yul\":371:378   */\n      0x00\n        /* \"#utility.yul\":400:405   */\n      dup2\n        /* \"#utility.yul\":389:405   */\n      swap1\n      pop\n        /* \"#utility.yul\":334:411   */\n      swap2\n      swap1\n      pop\n      jump\t// out\n        /* \"#utility.yul\":417:539   */\n    tag_389:\n        /* \"#utility.yul\":490:514   */\n      tag_472\n        /* \"#utility.yul\":508:513   */\n      dup2\n        /* \"#utility.yul\":490:514   */\n      tag_388\n      jump\t// in\n    tag_472:\n        /* \"#utility.yul\":483:488   */\n      dup2\n        /* \"#utility.yul\":480:515   */\n      eq\n        /* \"#utility.yul\":470:533   */\n      tag_473\n      jumpi\n        /* \"#utility.yul\":529:530   */\n      0x00\n        /* \"#utility.yul\":526:527   */\n      dup1\n        /* \"#utility.yul\":519:531   */\n      revert\n        /* \"#utility.yul\":470:533   */\n    tag_473:\n        /* \"#utility.yul\":417:539   */\n      pop\n      jump\t// out\n        /* \"#utility.yul\":545:684   */\n    tag_390:\n        /* \"#utility.yul\":591:596   */\n      0x00\n        /* \"#utility.yul\":629:635   */\n      dup2\n        /* \"#utility.yul\":616:636   */\n      calldataload\n        /* \"#utility.yul\":607:636   */\n      swap1\n      pop\n        /* \"#utility.yul\":645:678   */\n      tag_475\n        /* \"#utility.yul\":672:677   */\n      dup2\n        /* \"#utility.yul\":645:678   */\n      tag_389\n      jump\t// in\n    tag_475:\n        /* \"#utility.yul\":545:684   */\n      swap3\n      swap2\n      pop\n      pop\n      jump\t// out\n        /* \"#utility.yul\":690:780   */\n    tag_391:\n        /* \"#utility.yul\":724:731   */\n      0x00\n        /* \"#utility.yul\":767:772   */\n      dup2\n        /* \"#utility.yul\":760:773   */\n      iszero\n        /* \"#utility.yul\":753:774   */\n      iszero\n        /* \"#utility.yul\":742:774   */\n      swap1\n      pop\n        /* \"#utility.yul\":690:780   */\n      swap2\n      swap1\n      pop\n      jump\t// out\n        /* \"#utility.yul\":786:902   */\n    tag_392:\n        /* \"#utility.yul\":856:877   */\n      tag_478\n        /* \"#utility.yul\":871:876   */\n      dup2\n        /* \"#utility.yul\":856:877   */\n      tag_391\n      jump\t// in\n    tag_478:\n        /* \"#utility.yul\":849:854   */\n      dup2\n        /* \"#utility.yul\":846:878   */\n      eq\n        /* \"#utility.yul\":836:896   */\n      tag_479\n      jumpi\n        /* \"#utility.yul\":892:893   */\n      0x00\n        /* \"#utility.yul\":889:890   */\n      dup1\n        /* \"#utility.yul\":882:894   */\n      revert\n        /* \"#utility.yul\":836:896   */\n    tag_479:\n        /* \"#utility.yul\":786:902   */\n      pop\n      jump\t// out\n        /* \"#utility.yul\":908:1041   */\n    tag_393:\n        /* \"#utility.yul\":951:956   */\n      0x00\n        /* \"#utility.yul\":989:995   */\n      dup2\n        /* \"#utility.yul\":976:996   */\n      calldataload\n        /* \"#utility.yul\":967:996   */\n      swap1\n      pop\n        /* \"#utility.yul\":1005:1035   */\n      tag_481\n        /* \"#utility.yul\":1029:1034   */\n      dup2\n        /* \"#utility.yul\":1005:1035   */\n      tag_392\n      jump\t// in\n    tag_481:\n        /* \"#utility.yul\":908:1041   */\n      swap3\n      swap2\n      pop\n      pop\n      jump\t// out\n        /* \"#utility.yul\":1047:1515   */\n    tag_23:\n        /* \"#utility.yul\":1112:1118   */\n      0x00\n        /* \"#utility.yul\":1120:1126   */\n      dup1\n        /* \"#utility.yul\":1169:1171   */\n      0x40\n        /* \"#utility.yul\":1157:1166   */\n      dup4\n        /* \"#utility.yul\":1148:1155   */\n      dup6\n        /* \"#utility.yul\":1144:1167   */\n      sub\n        /* \"#utility.yul\":1140:1172   */\n      slt\n        /* \"#utility.yul\":1137:1256   */\n      iszero\n      tag_483\n      jumpi\n        /* \"#utility.yul\":1175:1254   */\n      tag_484\n      tag_386\n      jump\t// in\n    tag_484:\n        /* \"#utility.yul\":1137:1256   */\n    tag_483:\n        /* \"#utility.yul\":1295:1296   */\n      0x00\n        /* \"#utility.yul\":1320:1373   */\n      tag_485\n        /* \"#utility.yul\":1365:1372   */\n      dup6\n        /* \"#utility.yul\":1356:1362   */\n      dup3\n        /* \"#utility.yul\":1345:1354   */\n      dup7\n        /* \"#utility.yul\":1341:1363   */\n      add\n        /* \"#utility.yul\":1320:1373   */\n      tag_390\n      jump\t// in\n    tag_485:\n        /* \"#utility.yul\":1310:1373   */\n      swap3\n      pop\n        /* \"#utility.yul\":1266:1383   */\n      pop\n        /* \"#utility.yul\":1422:1424   */\n      0x20\n        /* \"#utility.yul\":1448:1498   */\n      tag_486\n        /* \"#utility.yul\":1490:1497   */\n      dup6\n        /* \"#utility.yul\":1481:1487   */\n      dup3\n        /* \"#utility.yul\":1470:1479   */\n      dup7\n        /* \"#utility.yul\":1466:1488   */\n      add\n        /* \"#utility.yul\":1448:1498   */\n      tag_393\n      jump\t// in\n    tag_486:\n        /* \"#utility.yul\":1438:1498   */\n      swap2\n      pop\n        /* \"#utility.yul\":1393:1508   */\n      pop\n        /* \"#utility.yul\":1047:1515   */\n      swap3\n      pop\n      swap3\n      swap1\n      pop\n      jump\t// out\n        /* \"#utility.yul\":1521:1850   */\n    tag_27:\n        /* \"#utility.yul\":1580:1586   */\n      0x00\n        /* \"#utility.yul\":1629:1631   */\n      0x20\n        /* \"#utility.yul\":1617:1626   */\n      dup3\n        /* \"#utility.yul\":1608:1615   */\n      dup5\n        /* \"#utility.yul\":1604:1627   */\n      sub\n        /* \"#utility.yul\":1600:1632   */\n      slt\n        /* \"#utility.yul\":1597:1716   */\n      iszero\n      tag_488\n      jumpi\n        /* \"#utility.yul\":1635:1714   */\n      tag_489\n      tag_386\n      jump\t// in\n    tag_489:\n        /* \"#utility.yul\":1597:1716   */\n    tag_488:\n        /* \"#utility.yul\":1755:1756   */\n      0x00\n        /* \"#utility.yul\":1780:1833   */\n      tag_490\n        /* \"#utility.yul\":1825:1832   */\n      dup5\n        /* \"#utility.yul\":1816:1822   */\n      dup3\n        /* \"#utility.yul\":1805:1814   */\n      dup6\n        /* \"#utility.yul\":1801:1823   */\n      add\n        /* \"#utility.yul\":1780:1833   */\n      tag_390\n      jump\t// in\n    tag_490:\n        /* \"#utility.yul\":1770:1833   */\n      swap2\n      pop\n        /* \"#utility.yul\":1726:1843   */\n      pop\n        /* \"#utility.yul\":1521:1850   */\n      swap3\n      swap2\n      pop\n      pop\n      jump\t// out\n        /* \"#utility.yul\":1856:1955   */\n    tag_394:\n        /* \"#utility.yul\":1908:1914   */\n      0x00\n        /* \"#utility.yul\":1942:1947   */\n      dup2\n        /* \"#utility.yul\":1936:1948   */\n      mload\n        /* \"#utility.yul\":1926:1948   */\n      swap1\n      pop\n        /* \"#utility.yul\":1856:1955   */\n      swap2\n      swap1\n      pop\n      jump\t// out\n        /* \"#utility.yul\":1961:2130   */\n    tag_395:\n        /* \"#utility.yul\":2045:2056   */\n      0x00\n        /* \"#utility.yul\":2079:2085   */\n      dup3\n        /* \"#utility.yul\":2074:2077   */\n      dup3\n        /* \"#utility.yul\":2067:2086   */\n      mstore\n        /* \"#utility.yul\":2119:2123   */\n      0x20\n        /* \"#utility.yul\":2114:2117   */\n      dup3\n        /* \"#utility.yul\":2110:2124   */\n      add\n        /* \"#utility.yul\":2095:2124   */\n      swap1\n      pop\n        /* \"#utility.yul\":1961:2130   */\n      swap3\n      swap2\n      pop\n      pop\n      jump\t// out\n        /* \"#utility.yul\":2136:2382   */\n    tag_396:\n        /* \"#utility.yul\":2217:2218   */\n      0x00\n        /* \"#utility.yul\":2227:2340   */\n    tag_494:\n        /* \"#utility.yul\":2241:2247   */\n      dup4\n        /* \"#utility.yul\":2238:2239   */\n      dup2\n        /* \"#utility.yul\":2235:2248   */\n      lt\n        /* \"#utility.yul\":2227:2340   */\n      iszero\n      tag_496\n      jumpi\n        /* \"#utility.yul\":2326:2327   */\n      dup1\n        /* \"#utility.yul\":2321:2324   */\n      dup3\n        /* \"#utility.yul\":2317:2328   */\n      add\n        /* \"#utility.yul\":2311:2329   */\n      mload\n        /* \"#utility.yul\":2307:2308   */\n      dup2\n        /* \"#utility.yul\":2302:2305   */\n      dup5\n        /* \"#utility.yul\":2298:2309   */\n      add\n        /* \"#utility.yul\":2291:2330   */\n      mstore\n        /* \"#utility.yul\":2263:2265   */\n      0x20\n        /* \"#utility.yul\":2260:2261   */\n      dup2\n        /* \"#utility.yul\":2256:2266   */\n      add\n        /* \"#utility.yul\":2251:2266   */\n      swap1\n      pop\n        /* \"#utility.yul\":2227:2340   */\n      jump(tag_494)\n    tag_496:\n        /* \"#utility.yul\":2374:2375   */\n      0x00\n        /* \"#utility.yul\":2365:2371   */\n      dup5\n        /* \"#utility.yul\":2360:2363   */\n      dup5\n        /* \"#utility.yul\":2356:2372   */\n      add\n        /* \"#utility.yul\":2349:2376   */\n      mstore\n        /* \"#utility.yul\":2198:2382   */\n      pop\n        /* \"#utility.yul\":2136:2382   */\n      pop\n      pop\n      pop\n      jump\t// out\n        /* \"#utility.yul\":2388:2490   */\n    tag_397:\n        /* \"#utility.yul\":2429:2435   */\n      0x00\n        /* \"#utility.yul\":2480:2482   */\n      0x1f\n        /* \"#utility.yul\":2476:2483   */\n      not\n        /* \"#utility.yul\":2471:2473   */\n      0x1f\n        /* \"#utility.yul\":2464:2469   */\n      dup4\n        /* \"#utility.yul\":2460:2474   */\n      add\n        /* \"#utility.yul\":2456:2484   */\n      and\n        /* \"#utility.yul\":2446:2484   */\n      swap1\n      pop\n        /* \"#utility.yul\":2388:2490   */\n      swap2\n      swap1\n      pop\n      jump\t// out\n        /* \"#utility.yul\":2496:2873   */\n    tag_398:\n        /* \"#utility.yul\":2584:2587   */\n      0x00\n        /* \"#utility.yul\":2612:2651   */\n      tag_499\n        /* \"#utility.yul\":2645:2650   */\n      dup3\n        /* \"#utility.yul\":2612:2651   */\n      tag_394\n      jump\t// in\n    tag_499:\n        /* \"#utility.yul\":2667:2738   */\n      tag_500\n        /* \"#utility.yul\":2731:2737   */\n      dup2\n        /* \"#utility.yul\":2726:2729   */\n      dup6\n        /* \"#utility.yul\":2667:2738   */\n      tag_395\n      jump\t// in\n    tag_500:\n        /* \"#utility.yul\":2660:2738   */\n      swap4\n      pop\n        /* \"#utility.yul\":2747:2812   */\n      tag_501\n        /* \"#utility.yul\":2805:2811   */\n      dup2\n        /* \"#utility.yul\":2800:2803   */\n      dup6\n        /* \"#utility.yul\":2793:2797   */\n      0x20\n        /* \"#utility.yul\":2786:2791   */\n      dup7\n        /* \"#utility.yul\":2782:2798   */\n      add\n        /* \"#utility.yul\":2747:2812   */\n      tag_396\n      jump\t// in\n    tag_501:\n        /* \"#utility.yul\":2837:2866   */\n      tag_502\n        /* \"#utility.yul\":2859:2865   */\n      dup2\n        /* \"#utility.yul\":2837:2866   */\n      tag_397\n      jump\t// in\n    tag_502:\n        /* \"#utility.yul\":2832:2835   */\n      dup5\n        /* \"#utility.yul\":2828:2867   */\n      add\n        /* \"#utility.yul\":2821:2867   */\n      swap2\n      pop\n        /* \"#utility.yul\":2588:2873   */\n      pop\n        /* \"#utility.yul\":2496:2873   */\n      swap3\n      swap2\n      pop\n      pop\n      jump\t// out\n        /* \"#utility.yul\":2879:2988   */\n    tag_399:\n        /* \"#utility.yul\":2960:2981   */\n      tag_504\n        /* \"#utility.yul\":2975:2980   */\n      dup2\n        /* \"#utility.yul\":2960:2981   */\n      tag_391\n      jump\t// in\n    tag_504:\n        /* \"#utility.yul\":2955:2958   */\n      dup3\n        /* \"#utility.yul\":2948:2982   */\n      mstore\n        /* \"#utility.yul\":2879:2988   */\n      pop\n      pop\n      jump\t// out\n        /* \"#utility.yul\":2994:3112   */\n    tag_400:\n        /* \"#utility.yul\":3081:3105   */\n      tag_506\n        /* \"#utility.yul\":3099:3104   */\n      dup2\n        /* \"#utility.yul\":3081:3105   */\n      tag_388\n      jump\t// in\n    tag_506:\n        /* \"#utility.yul\":3076:3079   */\n      dup3\n        /* \"#utility.yul\":3069:3106   */\n      mstore\n        /* \"#utility.yul\":2994:3112   */\n      pop\n      pop\n      jump\t// out\n        /* \"#utility.yul\":3118:3639   */\n    tag_30:\n        /* \"#utility.yul\":3281:3285   */\n      0x00\n        /* \"#utility.yul\":3319:3321   */\n      0x60\n        /* \"#utility.yul\":3308:3317   */\n      dup3\n        /* \"#utility.yul\":3304:3322   */\n      add\n        /* \"#utility.yul\":3296:3322   */\n      swap1\n      pop\n        /* \"#utility.yul\":3368:3377   */\n      dup2\n        /* \"#utility.yul\":3362:3366   */\n      dup2\n        /* \"#utility.yul\":3358:3378   */\n      sub\n        /* \"#utility.yul\":3354:3355   */\n      0x00\n        /* \"#utility.yul\":3343:3352   */\n      dup4\n        /* \"#utility.yul\":3339:3356   */\n      add\n        /* \"#utility.yul\":3332:3379   */\n      mstore\n        /* \"#utility.yul\":3396:3474   */\n      tag_508\n        /* \"#utility.yul\":3469:3473   */\n      dup2\n        /* \"#utility.yul\":3460:3466   */\n      dup7\n        /* \"#utility.yul\":3396:3474   */\n      tag_398\n      jump\t// in\n    tag_508:\n        /* \"#utility.yul\":3388:3474   */\n      swap1\n      pop\n        /* \"#utility.yul\":3484:3550   */\n      tag_509\n        /* \"#utility.yul\":3546:3548   */\n      0x20\n        /* \"#utility.yul\":3535:3544   */\n      dup4\n        /* \"#utility.yul\":3531:3549   */\n      add\n        /* \"#utility.yul\":3522:3528   */\n      dup6\n        /* \"#utility.yul\":3484:3550   */\n      tag_399\n      jump\t// in\n    tag_509:\n        /* \"#utility.yul\":3560:3632   */\n      tag_510\n        /* \"#utility.yul\":3628:3630   */\n      0x40\n        /* \"#utility.yul\":3617:3626   */\n      dup4\n        /* \"#utility.yul\":3613:3631   */\n      add\n        /* \"#utility.yul\":3604:3610   */\n      dup5\n        /* \"#utility.yul\":3560:3632   */\n      tag_400\n      jump\t// in\n    tag_510:\n        /* \"#utility.yul\":3118:3639   */\n      swap5\n      swap4\n      pop\n      pop\n      pop\n      pop\n      jump\t// out\n        /* \"#utility.yul\":3645:3731   */\n    tag_401:\n        /* \"#utility.yul\":3680:3687   */\n      0x00\n        /* \"#utility.yul\":3720:3724   */\n      0xff\n        /* \"#utility.yul\":3713:3718   */\n      dup3\n        /* \"#utility.yul\":3709:3725   */\n      and\n        /* \"#utility.yul\":3698:3725   */\n      swap1\n      pop\n        /* \"#utility.yul\":3645:3731   */\n      swap2\n      swap1\n      pop\n      jump\t// out\n        /* \"#utility.yul\":3737:3849   */\n    tag_402:\n        /* \"#utility.yul\":3820:3842   */\n      tag_513\n        /* \"#utility.yul\":3836:3841   */\n      dup2\n        /* \"#utility.yul\":3820:3842   */\n      tag_401\n      jump\t// in\n    tag_513:\n        /* \"#utility.yul\":3815:3818   */\n      dup3\n        /* \"#utility.yul\":3808:3843   */\n      mstore\n        /* \"#utility.yul\":3737:3849   */\n      pop\n      pop\n      jump\t// out\n        /* \"#utility.yul\":3855:4005   */\n    tag_403:\n        /* \"#utility.yul\":3892:3899   */\n      0x00\n        /* \"#utility.yul\":3932:3998   */\n      0xffffffffffffffffffffffffffffffffffffffff000000000000000000000000\n        /* \"#utility.yul\":3925:3930   */\n      dup3\n        /* \"#utility.yul\":3921:3999   */\n      and\n        /* \"#utility.yul\":3910:3999   */\n      swap1\n      pop\n        /* \"#utility.yul\":3855:4005   */\n      swap2\n      swap1\n      pop\n      jump\t// out\n        /* \"#utility.yul\":4011:4129   */\n    tag_404:\n        /* \"#utility.yul\":4098:4122   */\n      tag_516\n        /* \"#utility.yul\":4116:4121   */\n      dup2\n        /* \"#utility.yul\":4098:4122   */\n      tag_403\n      jump\t// in\n    tag_516:\n        /* \"#utility.yul\":4093:4096   */\n      dup3\n        /* \"#utility.yul\":4086:4123   */\n      mstore\n        /* \"#utility.yul\":4011:4129   */\n      pop\n      pop\n      jump\t// out\n        /* \"#utility.yul\":4135:4261   */\n    tag_405:\n        /* \"#utility.yul\":4172:4179   */\n      0x00\n        /* \"#utility.yul\":4212:4254   */\n      0xffffffffffffffffffffffffffffffffffffffff\n        /* \"#utility.yul\":4205:4210   */\n      dup3\n        /* \"#utility.yul\":4201:4255   */\n      and\n        /* \"#utility.yul\":4190:4255   */\n      swap1\n      pop\n        /* \"#utility.yul\":4135:4261   */\n      swap2\n      swap1\n      pop\n      jump\t// out\n        /* \"#utility.yul\":4267:4363   */\n    tag_406:\n        /* \"#utility.yul\":4304:4311   */\n      0x00\n        /* \"#utility.yul\":4333:4357   */\n      tag_519\n        /* \"#utility.yul\":4351:4356   */\n      dup3\n        /* \"#utility.yul\":4333:4357   */\n      tag_405\n      jump\t// in\n    tag_519:\n        /* \"#utility.yul\":4322:4357   */\n      swap1\n      pop\n        /* \"#utility.yul\":4267:4363   */\n      swap2\n      swap1\n      pop\n      jump\t// out\n        /* \"#utility.yul\":4369:4487   */\n    tag_407:\n        /* \"#utility.yul\":4456:4480   */\n      tag_521\n        /* \"#utility.yul\":4474:4479   */\n      dup2\n        /* \"#utility.yul\":4456:4480   */\n      tag_406\n      jump\t// in\n    tag_521:\n        /* \"#utility.yul\":4451:4454   */\n      dup3\n        /* \"#utility.yul\":4444:4481   */\n      mstore\n        /* \"#utility.yul\":4369:4487   */\n      pop\n      pop\n      jump\t// out\n        /* \"#utility.yul\":4493:4673   */\n    tag_92:\n        /* \"#utility.yul\":4541:4618   */\n      0x4e487b7100000000000000000000000000000000000000000000000000000000\n        /* \"#utility.yul\":4538:4539   */\n      0x00\n        /* \"#utility.yul\":4531:4619   */\n      mstore\n        /* \"#utility.yul\":4638:4642   */\n      0x21\n        /* \"#utility.yul\":4635:4636   */\n      0x04\n        /* \"#utility.yul\":4628:4643   */\n      mstore\n        /* \"#utility.yul\":4662:4666   */\n      0x24\n        /* \"#utility.yul\":4659:4660   */\n      0x00\n        /* \"#utility.yul\":4652:4667   */\n      revert\n        /* \"#utility.yul\":4679:4794   */\n    tag_408:\n        /* \"#utility.yul\":4762:4763   */\n      0x05\n        /* \"#utility.yul\":4755:4760   */\n      dup2\n        /* \"#utility.yul\":4752:4764   */\n      lt\n        /* \"#utility.yul\":4742:4788   */\n      tag_524\n      jumpi\n        /* \"#utility.yul\":4768:4786   */\n      tag_525\n      tag_92\n      jump\t// in\n    tag_525:\n        /* \"#utility.yul\":4742:4788   */\n    tag_524:\n        /* \"#utility.yul\":4679:4794   */\n      pop\n      jump\t// out\n        /* \"#utility.yul\":4800:4931   */\n    tag_409:\n        /* \"#utility.yul\":4847:4854   */\n      0x00\n        /* \"#utility.yul\":4876:4881   */\n      dup2\n        /* \"#utility.yul\":4865:4881   */\n      swap1\n      pop\n        /* \"#utility.yul\":4882:4925   */\n      tag_527\n        /* \"#utility.yul\":4919:4924   */\n      dup3\n        /* \"#utility.yul\":4882:4925   */\n      tag_408\n      jump\t// in\n    tag_527:\n        /* \"#utility.yul\":4800:4931   */\n      swap2\n      swap1\n      pop\n      jump\t// out\n        /* \"#utility.yul\":4937:5068   */\n    tag_410:\n        /* \"#utility.yul\":4995:5004   */\n      0x00\n        /* \"#utility.yul\":5028:5062   */\n      tag_529\n        /* \"#utility.yul\":5056:5061   */\n      dup3\n        /* \"#utility.yul\":5028:5062   */\n      tag_409\n      jump\t// in\n    tag_529:\n        /* \"#utility.yul\":5015:5062   */\n      swap1\n      pop\n        /* \"#utility.yul\":4937:5068   */\n      swap2\n      swap1\n      pop\n      jump\t// out\n        /* \"#utility.yul\":5074:5221   */\n    tag_411:\n        /* \"#utility.yul\":5169:5214   */\n      tag_531\n        /* \"#utility.yul\":5208:5213   */\n      dup2\n        /* \"#utility.yul\":5169:5214   */\n      tag_410\n      jump\t// in\n    tag_531:\n        /* \"#utility.yul\":5164:5167   */\n      dup3\n        /* \"#utility.yul\":5157:5215   */\n      mstore\n        /* \"#utility.yul\":5074:5221   */\n      pop\n      pop\n      jump\t// out\n        /* \"#utility.yul\":5227:6101   */\n    tag_35:\n        /* \"#utility.yul\":5484:5488   */\n      0x00\n        /* \"#utility.yul\":5522:5525   */\n      0xc0\n        /* \"#utility.yul\":5511:5520   */\n      dup3\n        /* \"#utility.yul\":5507:5526   */\n      add\n        /* \"#utility.yul\":5499:5526   */\n      swap1\n      pop\n        /* \"#utility.yul\":5536:5603   */\n      tag_533\n        /* \"#utility.yul\":5600:5601   */\n      0x00\n        /* \"#utility.yul\":5589:5598   */\n      dup4\n        /* \"#utility.yul\":5585:5602   */\n      add\n        /* \"#utility.yul\":5576:5582   */\n      dup10\n        /* \"#utility.yul\":5536:5603   */\n      tag_402\n      jump\t// in\n    tag_533:\n        /* \"#utility.yul\":5613:5685   */\n      tag_534\n        /* \"#utility.yul\":5681:5683   */\n      0x20\n        /* \"#utility.yul\":5670:5679   */\n      dup4\n        /* \"#utility.yul\":5666:5684   */\n      add\n        /* \"#utility.yul\":5657:5663   */\n      dup9\n        /* \"#utility.yul\":5613:5685   */\n      tag_404\n      jump\t// in\n    tag_534:\n        /* \"#utility.yul\":5732:5741   */\n      dup2\n        /* \"#utility.yul\":5726:5730   */\n      dup2\n        /* \"#utility.yul\":5722:5742   */\n      sub\n        /* \"#utility.yul\":5717:5719   */\n      0x40\n        /* \"#utility.yul\":5706:5715   */\n      dup4\n        /* \"#utility.yul\":5702:5720   */\n      add\n        /* \"#utility.yul\":5695:5743   */\n      mstore\n        /* \"#utility.yul\":5760:5838   */\n      tag_535\n        /* \"#utility.yul\":5833:5837   */\n      dup2\n        /* \"#utility.yul\":5824:5830   */\n      dup8\n        /* \"#utility.yul\":5760:5838   */\n      tag_398\n      jump\t// in\n    tag_535:\n        /* \"#utility.yul\":5752:5838   */\n      swap1\n      pop\n        /* \"#utility.yul\":5848:5920   */\n      tag_536\n        /* \"#utility.yul\":5916:5918   */\n      0x60\n        /* \"#utility.yul\":5905:5914   */\n      dup4\n        /* \"#utility.yul\":5901:5919   */\n      add\n        /* \"#utility.yul\":5892:5898   */\n      dup7\n        /* \"#utility.yul\":5848:5920   */\n      tag_407\n      jump\t// in\n    tag_536:\n        /* \"#utility.yul\":5930:6003   */\n      tag_537\n        /* \"#utility.yul\":5998:6001   */\n      0x80\n        /* \"#utility.yul\":5987:5996   */\n      dup4\n        /* \"#utility.yul\":5983:6002   */\n      add\n        /* \"#utility.yul\":5974:5980   */\n      dup6\n        /* \"#utility.yul\":5930:6003   */\n      tag_400\n      jump\t// in\n    tag_537:\n        /* \"#utility.yul\":6013:6094   */\n      tag_538\n        /* \"#utility.yul\":6089:6092   */\n      0xa0\n        /* \"#utility.yul\":6078:6087   */\n      dup4\n        /* \"#utility.yul\":6074:6093   */\n      add\n        /* \"#utility.yul\":6065:6071   */\n      dup5\n        /* \"#utility.yul\":6013:6094   */\n      tag_411\n      jump\t// in\n    tag_538:\n        /* \"#utility.yul\":5227:6101   */\n      swap8\n      swap7\n      pop\n      pop\n      pop\n      pop\n      pop\n      pop\n      pop\n      jump\t// out\n        /* \"#utility.yul\":6107:6224   */\n    tag_412:\n        /* \"#utility.yul\":6216:6217   */\n      0x00\n        /* \"#utility.yul\":6213:6214   */\n      dup1\n        /* \"#utility.yul\":6206:6218   */\n      revert\n        /* \"#utility.yul\":6230:6347   */\n    tag_413:\n        /* \"#utility.yul\":6339:6340   */\n      0x00\n        /* \"#utility.yul\":6336:6337   */\n      dup1\n        /* \"#utility.yul\":6329:6341   */\n      revert\n        /* \"#utility.yul\":6353:6470   */\n    tag_414:\n        /* \"#utility.yul\":6462:6463   */\n      0x00\n        /* \"#utility.yul\":6459:6460   */\n      dup1\n        /* \"#utility.yul\":6452:6464   */\n      revert\n        /* \"#utility.yul\":6490:7043   */\n    tag_415:\n        /* \"#utility.yul\":6548:6556   */\n      0x00\n        /* \"#utility.yul\":6558:6564   */\n      dup1\n        /* \"#utility.yul\":6608:6611   */\n      dup4\n        /* \"#utility.yul\":6601:6605   */\n      0x1f\n        /* \"#utility.yul\":6593:6599   */\n      dup5\n        /* \"#utility.yul\":6589:6606   */\n      add\n        /* \"#utility.yul\":6585:6612   */\n      slt\n        /* \"#utility.yul\":6575:6697   */\n      tag_543\n      jumpi\n        /* \"#utility.yul\":6616:6695   */\n      tag_544\n      tag_412\n      jump\t// in\n    tag_544:\n        /* \"#utility.yul\":6575:6697   */\n    tag_543:\n        /* \"#utility.yul\":6729:6735   */\n      dup3\n        /* \"#utility.yul\":6716:6736   */\n      calldataload\n        /* \"#utility.yul\":6706:6736   */\n      swap1\n      pop\n        /* \"#utility.yul\":6759:6777   */\n      0xffffffffffffffff\n        /* \"#utility.yul\":6751:6757   */\n      dup2\n        /* \"#utility.yul\":6748:6778   */\n      gt\n        /* \"#utility.yul\":6745:6862   */\n      iszero\n      tag_545\n      jumpi\n        /* \"#utility.yul\":6781:6860   */\n      tag_546\n      tag_413\n      jump\t// in\n    tag_546:\n        /* \"#utility.yul\":6745:6862   */\n    tag_545:\n        /* \"#utility.yul\":6895:6899   */\n      0x20\n        /* \"#utility.yul\":6887:6893   */\n      dup4\n        /* \"#utility.yul\":6883:6900   */\n      add\n        /* \"#utility.yul\":6871:6900   */\n      swap2\n      pop\n        /* \"#utility.yul\":6949:6952   */\n      dup4\n        /* \"#utility.yul\":6941:6945   */\n      0x01\n        /* \"#utility.yul\":6933:6939   */\n      dup3\n        /* \"#utility.yul\":6929:6946   */\n      mul\n        /* \"#utility.yul\":6919:6927   */\n      dup4\n        /* \"#utility.yul\":6915:6947   */\n      add\n        /* \"#utility.yul\":6912:6953   */\n      gt\n        /* \"#utility.yul\":6909:7037   */\n      iszero\n      tag_547\n      jumpi\n        /* \"#utility.yul\":6956:7035   */\n      tag_548\n      tag_414\n      jump\t// in\n    tag_548:\n        /* \"#utility.yul\":6909:7037   */\n    tag_547:\n        /* \"#utility.yul\":6490:7043   */\n      swap3\n      pop\n      swap3\n      swap1\n      pop\n      jump\t// out\n        /* \"#utility.yul\":7049:7717   */\n    tag_38:\n        /* \"#utility.yul\":7126:7132   */\n      0x00\n        /* \"#utility.yul\":7134:7140   */\n      dup1\n        /* \"#utility.yul\":7142:7148   */\n      0x00\n        /* \"#utility.yul\":7191:7193   */\n      0x40\n        /* \"#utility.yul\":7179:7188   */\n      dup5\n        /* \"#utility.yul\":7170:7177   */\n      dup7\n        /* \"#utility.yul\":7166:7189   */\n      sub\n        /* \"#utility.yul\":7162:7194   */\n      slt\n        /* \"#utility.yul\":7159:7278   */\n      iszero\n      tag_550\n      jumpi\n        /* \"#utility.yul\":7197:7276   */\n      tag_551\n      tag_386\n      jump\t// in\n    tag_551:\n        /* \"#utility.yul\":7159:7278   */\n    tag_550:\n        /* \"#utility.yul\":7345:7346   */\n      0x00\n        /* \"#utility.yul\":7334:7343   */\n      dup5\n        /* \"#utility.yul\":7330:7347   */\n      add\n        /* \"#utility.yul\":7317:7348   */\n      calldataload\n        /* \"#utility.yul\":7375:7393   */\n      0xffffffffffffffff\n        /* \"#utility.yul\":7367:7373   */\n      dup2\n        /* \"#utility.yul\":7364:7394   */\n      gt\n        /* \"#utility.yul\":7361:7478   */\n      iszero\n      tag_552\n      jumpi\n        /* \"#utility.yul\":7397:7476   */\n      tag_553\n      tag_387\n      jump\t// in\n    tag_553:\n        /* \"#utility.yul\":7361:7478   */\n    tag_552:\n        /* \"#utility.yul\":7510:7575   */\n      tag_554\n        /* \"#utility.yul\":7567:7574   */\n      dup7\n        /* \"#utility.yul\":7558:7564   */\n      dup3\n        /* \"#utility.yul\":7547:7556   */\n      dup8\n        /* \"#utility.yul\":7543:7565   */\n      add\n        /* \"#utility.yul\":7510:7575   */\n      tag_415\n      jump\t// in\n    tag_554:\n        /* \"#utility.yul\":7492:7575   */\n      swap4\n      pop\n      swap4\n      pop\n        /* \"#utility.yul\":7288:7585   */\n      pop\n        /* \"#utility.yul\":7624:7626   */\n      0x20\n        /* \"#utility.yul\":7650:7700   */\n      tag_555\n        /* \"#utility.yul\":7692:7699   */\n      dup7\n        /* \"#utility.yul\":7683:7689   */\n      dup3\n        /* \"#utility.yul\":7672:7681   */\n      dup8\n        /* \"#utility.yul\":7668:7690   */\n      add\n        /* \"#utility.yul\":7650:7700   */\n      tag_393\n      jump\t// in\n    tag_555:\n        /* \"#utility.yul\":7640:7700   */\n      swap2\n      pop\n        /* \"#utility.yul\":7595:7710   */\n      pop\n        /* \"#utility.yul\":7049:7717   */\n      swap3\n      pop\n      swap3\n      pop\n      swap3\n      jump\t// out\n        /* \"#utility.yul\":7723:7845   */\n    tag_416:\n        /* \"#utility.yul\":7796:7820   */\n      tag_557\n        /* \"#utility.yul\":7814:7819   */\n      dup2\n        /* \"#utility.yul\":7796:7820   */\n      tag_406\n      jump\t// in\n    tag_557:\n        /* \"#utility.yul\":7789:7794   */\n      dup2\n        /* \"#utility.yul\":7786:7821   */\n      eq\n        /* \"#utility.yul\":7776:7839   */\n      tag_558\n      jumpi\n        /* \"#utility.yul\":7835:7836   */\n      0x00\n        /* \"#utility.yul\":7832:7833   */\n      dup1\n        /* \"#utility.yul\":7825:7837   */\n      revert\n        /* \"#utility.yul\":7776:7839   */\n    tag_558:\n        /* \"#utility.yul\":7723:7845   */\n      pop\n      jump\t// out\n        /* \"#utility.yul\":7851:7990   */\n    tag_417:\n        /* \"#utility.yul\":7897:7902   */\n      0x00\n        /* \"#utility.yul\":7935:7941   */\n      dup2\n        /* \"#utility.yul\":7922:7942   */\n      calldataload\n        /* \"#utility.yul\":7913:7942   */\n      swap1\n      pop\n        /* \"#utility.yul\":7951:7984   */\n      tag_560\n        /* \"#utility.yul\":7978:7983   */\n      dup2\n        /* \"#utility.yul\":7951:7984   */\n      tag_416\n      jump\t// in\n    tag_560:\n        /* \"#utility.yul\":7851:7990   */\n      swap3\n      swap2\n      pop\n      pop\n      jump\t// out\n        /* \"#utility.yul\":7996:8325   */\n    tag_44:\n        /* \"#utility.yul\":8055:8061   */\n      0x00\n        /* \"#utility.yul\":8104:8106   */\n      0x20\n        /* \"#utility.yul\":8092:8101   */\n      dup3\n        /* \"#utility.yul\":8083:8090   */\n      dup5\n        /* \"#utility.yul\":8079:8102   */\n      sub\n        /* \"#utility.yul\":8075:8107   */\n      slt\n        /* \"#utility.yul\":8072:8191   */\n      iszero\n      tag_562\n      jumpi\n        /* \"#utility.yul\":8110:8189   */\n      tag_563\n      tag_386\n      jump\t// in\n    tag_563:\n        /* \"#utility.yul\":8072:8191   */\n    tag_562:\n        /* \"#utility.yul\":8230:8231   */\n      0x00\n        /* \"#utility.yul\":8255:8308   */\n      tag_564\n        /* \"#utility.yul\":8300:8307   */\n      dup5\n        /* \"#utility.yul\":8291:8297   */\n      dup3\n        /* \"#utility.yul\":8280:8289   */\n      dup6\n        /* \"#utility.yul\":8276:8298   */\n      add\n        /* \"#utility.yul\":8255:8308   */\n      tag_417\n      jump\t// in\n    tag_564:\n        /* \"#utility.yul\":8245:8308   */\n      swap2\n      pop\n        /* \"#utility.yul\":8201:8318   */\n      pop\n        /* \"#utility.yul\":7996:8325   */\n      swap3\n      swap2\n      pop\n      pop\n      jump\t// out\n        /* \"#utility.yul\":8331:8553   */\n    tag_49:\n        /* \"#utility.yul\":8424:8428   */\n      0x00\n        /* \"#utility.yul\":8462:8464   */\n      0x20\n        /* \"#utility.yul\":8451:8460   */\n      dup3\n        /* \"#utility.yul\":8447:8465   */\n      add\n        /* \"#utility.yul\":8439:8465   */\n      swap1\n      pop\n        /* \"#utility.yul\":8475:8546   */\n      tag_566\n        /* \"#utility.yul\":8543:8544   */\n      0x00\n        /* \"#utility.yul\":8532:8541   */\n      dup4\n        /* \"#utility.yul\":8528:8545   */\n      add\n        /* \"#utility.yul\":8519:8525   */\n      dup5\n        /* \"#utility.yul\":8475:8546   */\n      tag_400\n      jump\t// in\n    tag_566:\n        /* \"#utility.yul\":8331:8553   */\n      swap3\n      swap2\n      pop\n      pop\n      jump\t// out\n        /* \"#utility.yul\":8559:8781   */\n    tag_53:\n        /* \"#utility.yul\":8652:8656   */\n      0x00\n        /* \"#utility.yul\":8690:8692   */\n      0x20\n        /* \"#utility.yul\":8679:8688   */\n      dup3\n        /* \"#utility.yul\":8675:8693   */\n      add\n        /* \"#utility.yul\":8667:8693   */\n      swap1\n      pop\n        /* \"#utility.yul\":8703:8774   */\n      tag_568\n        /* \"#utility.yul\":8771:8772   */\n      0x00\n        /* \"#utility.yul\":8760:8769   */\n      dup4\n        /* \"#utility.yul\":8756:8773   */\n      add\n        /* \"#utility.yul\":8747:8753   */\n      dup5\n        /* \"#utility.yul\":8703:8774   */\n      tag_407\n      jump\t// in\n    tag_568:\n        /* \"#utility.yul\":8559:8781   */\n      swap3\n      swap2\n      pop\n      pop\n      jump\t// out\n        /* \"#utility.yul\":8787:8905   */\n    tag_418:\n        /* \"#utility.yul\":8858:8880   */\n      tag_570\n        /* \"#utility.yul\":8874:8879   */\n      dup2\n        /* \"#utility.yul\":8858:8880   */\n      tag_401\n      jump\t// in\n    tag_570:\n        /* \"#utility.yul\":8851:8856   */\n      dup2\n        /* \"#utility.yul\":8848:8881   */\n      eq\n        /* \"#utility.yul\":8838:8899   */\n      tag_571\n      jumpi\n        /* \"#utility.yul\":8895:8896   */\n      0x00\n        /* \"#utility.yul\":8892:8893   */\n      dup1\n        /* \"#utility.yul\":8885:8897   */\n      revert\n        /* \"#utility.yul\":8838:8899   */\n    tag_571:\n        /* \"#utility.yul\":8787:8905   */\n      pop\n      jump\t// out\n        /* \"#utility.yul\":8911:9046   */\n    tag_419:\n        /* \"#utility.yul\":8955:8960   */\n      0x00\n        /* \"#utility.yul\":8993:8999   */\n      dup2\n        /* \"#utility.yul\":8980:9000   */\n      calldataload\n        /* \"#utility.yul\":8971:9000   */\n      swap1\n      pop\n        /* \"#utility.yul\":9009:9040   */\n      tag_573\n        /* \"#utility.yul\":9034:9039   */\n      dup2\n        /* \"#utility.yul\":9009:9040   */\n      tag_418\n      jump\t// in\n    tag_573:\n        /* \"#utility.yul\":8911:9046   */\n      swap3\n      swap2\n      pop\n      pop\n      jump\t// out\n        /* \"#utility.yul\":9052:9377   */\n    tag_59:\n        /* \"#utility.yul\":9109:9115   */\n      0x00\n        /* \"#utility.yul\":9158:9160   */\n      0x20\n        /* \"#utility.yul\":9146:9155   */\n      dup3\n        /* \"#utility.yul\":9137:9144   */\n      dup5\n        /* \"#utility.yul\":9133:9156   */\n      sub\n        /* \"#utility.yul\":9129:9161   */\n      slt\n        /* \"#utility.yul\":9126:9245   */\n      iszero\n      tag_575\n      jumpi\n        /* \"#utility.yul\":9164:9243   */\n      tag_576\n      tag_386\n      jump\t// in\n    tag_576:\n        /* \"#utility.yul\":9126:9245   */\n    tag_575:\n        /* \"#utility.yul\":9284:9285   */\n      0x00\n        /* \"#utility.yul\":9309:9360   */\n      tag_577\n        /* \"#utility.yul\":9352:9359   */\n      dup5\n        /* \"#utility.yul\":9343:9349   */\n      dup3\n        /* \"#utility.yul\":9332:9341   */\n      dup6\n        /* \"#utility.yul\":9328:9350   */\n      add\n        /* \"#utility.yul\":9309:9360   */\n      tag_419\n      jump\t// in\n    tag_577:\n        /* \"#utility.yul\":9299:9360   */\n      swap2\n      pop\n        /* \"#utility.yul\":9255:9370   */\n      pop\n        /* \"#utility.yul\":9052:9377   */\n      swap3\n      swap2\n      pop\n      pop\n      jump\t// out\n        /* \"#utility.yul\":9383:9505   */\n    tag_420:\n        /* \"#utility.yul\":9456:9480   */\n      tag_579\n        /* \"#utility.yul\":9474:9479   */\n      dup2\n        /* \"#utility.yul\":9456:9480   */\n      tag_403\n      jump\t// in\n    tag_579:\n        /* \"#utility.yul\":9449:9454   */\n      dup2\n        /* \"#utility.yul\":9446:9481   */\n      eq\n        /* \"#utility.yul\":9436:9499   */\n      tag_580\n      jumpi\n        /* \"#utility.yul\":9495:9496   */\n      0x00\n        /* \"#utility.yul\":9492:9493   */\n      dup1\n        /* \"#utility.yul\":9485:9497   */\n      revert\n        /* \"#utility.yul\":9436:9499   */\n    tag_580:\n        /* \"#utility.yul\":9383:9505   */\n      pop\n      jump\t// out\n        /* \"#utility.yul\":9511:9650   */\n    tag_421:\n        /* \"#utility.yul\":9557:9562   */\n      0x00\n        /* \"#utility.yul\":9595:9601   */\n      dup2\n        /* \"#utility.yul\":9582:9602   */\n      calldataload\n        /* \"#utility.yul\":9573:9602   */\n      swap1\n      pop\n        /* \"#utility.yul\":9611:9644   */\n      tag_582\n        /* \"#utility.yul\":9638:9643   */\n      dup2\n        /* \"#utility.yul\":9611:9644   */\n      tag_420\n      jump\t// in\n    tag_582:\n        /* \"#utility.yul\":9511:9650   */\n      swap3\n      swap2\n      pop\n      pop\n      jump\t// out\n        /* \"#utility.yul\":9656:10475   */\n    tag_66:\n        /* \"#utility.yul\":9745:9751   */\n      0x00\n        /* \"#utility.yul\":9753:9759   */\n      dup1\n        /* \"#utility.yul\":9761:9767   */\n      0x00\n        /* \"#utility.yul\":9769:9775   */\n      dup1\n        /* \"#utility.yul\":9818:9820   */\n      0x60\n        /* \"#utility.yul\":9806:9815   */\n      dup6\n        /* \"#utility.yul\":9797:9804   */\n      dup8\n        /* \"#utility.yul\":9793:9816   */\n      sub\n        /* \"#utility.yul\":9789:9821   */\n      slt\n        /* \"#utility.yul\":9786:9905   */\n      iszero\n      tag_584\n      jumpi\n        /* \"#utility.yul\":9824:9903   */\n      tag_585\n      tag_386\n      jump\t// in\n    tag_585:\n        /* \"#utility.yul\":9786:9905   */\n    tag_584:\n        /* \"#utility.yul\":9944:9945   */\n      0x00\n        /* \"#utility.yul\":9969:10022   */\n      tag_586\n        /* \"#utility.yul\":10014:10021   */\n      dup8\n        /* \"#utility.yul\":10005:10011   */\n      dup3\n        /* \"#utility.yul\":9994:10003   */\n      dup9\n        /* \"#utility.yul\":9990:10012   */\n      add\n        /* \"#utility.yul\":9969:10022   */\n      tag_390\n      jump\t// in\n    tag_586:\n        /* \"#utility.yul\":9959:10022   */\n      swap5\n      pop\n        /* \"#utility.yul\":9915:10032   */\n      pop\n        /* \"#utility.yul\":10071:10073   */\n      0x20\n        /* \"#utility.yul\":10097:10150   */\n      tag_587\n        /* \"#utility.yul\":10142:10149   */\n      dup8\n        /* \"#utility.yul\":10133:10139   */\n      dup3\n        /* \"#utility.yul\":10122:10131   */\n      dup9\n        /* \"#utility.yul\":10118:10140   */\n      add\n        /* \"#utility.yul\":10097:10150   */\n      tag_421\n      jump\t// in\n    tag_587:\n        /* \"#utility.yul\":10087:10150   */\n      swap4\n      pop\n        /* \"#utility.yul\":10042:10160   */\n      pop\n        /* \"#utility.yul\":10227:10229   */\n      0x40\n        /* \"#utility.yul\":10216:10225   */\n      dup6\n        /* \"#utility.yul\":10212:10230   */\n      add\n        /* \"#utility.yul\":10199:10231   */\n      calldataload\n        /* \"#utility.yul\":10258:10276   */\n      0xffffffffffffffff\n        /* \"#utility.yul\":10250:10256   */\n      dup2\n        /* \"#utility.yul\":10247:10277   */\n      gt\n        /* \"#utility.yul\":10244:10361   */\n      iszero\n      tag_588\n      jumpi\n        /* \"#utility.yul\":10280:10359   */\n      tag_589\n      tag_387\n      jump\t// in\n    tag_589:\n        /* \"#utility.yul\":10244:10361   */\n    tag_588:\n        /* \"#utility.yul\":10393:10458   */\n      tag_590\n        /* \"#utility.yul\":10450:10457   */\n      dup8\n        /* \"#utility.yul\":10441:10447   */\n      dup3\n        /* \"#utility.yul\":10430:10439   */\n      dup9\n        /* \"#utility.yul\":10426:10448   */\n      add\n        /* \"#utility.yul\":10393:10458   */\n      tag_415\n      jump\t// in\n    tag_590:\n        /* \"#utility.yul\":10375:10458   */\n      swap3\n      pop\n      swap3\n      pop\n        /* \"#utility.yul\":10170:10468   */\n      pop\n        /* \"#utility.yul\":9656:10475   */\n      swap3\n      swap6\n      swap2\n      swap5\n      pop\n      swap3\n      pop\n      jump\t// out\n        /* \"#utility.yul\":10481:10904   */\n    tag_71:\n        /* \"#utility.yul\":10622:10626   */\n      0x00\n        /* \"#utility.yul\":10660:10662   */\n      0x40\n        /* \"#utility.yul\":10649:10658   */\n      dup3\n        /* \"#utility.yul\":10645:10663   */\n      add\n        /* \"#utility.yul\":10637:10663   */\n      swap1\n      pop\n        /* \"#utility.yul\":10673:10744   */\n      tag_592\n        /* \"#utility.yul\":10741:10742   */\n      0x00\n        /* \"#utility.yul\":10730:10739   */\n      dup4\n        /* \"#utility.yul\":10726:10743   */\n      add\n        /* \"#utility.yul\":10717:10723   */\n      dup6\n        /* \"#utility.yul\":10673:10744   */\n      tag_400\n      jump\t// in\n    tag_592:\n        /* \"#utility.yul\":10791:10800   */\n      dup2\n        /* \"#utility.yul\":10785:10789   */\n      dup2\n        /* \"#utility.yul\":10781:10801   */\n      sub\n        /* \"#utility.yul\":10776:10778   */\n      0x20\n        /* \"#utility.yul\":10765:10774   */\n      dup4\n        /* \"#utility.yul\":10761:10779   */\n      add\n        /* \"#utility.yul\":10754:10802   */\n      mstore\n        /* \"#utility.yul\":10819:10897   */\n      tag_593\n        /* \"#utility.yul\":10892:10896   */\n      dup2\n        /* \"#utility.yul\":10883:10889   */\n      dup5\n        /* \"#utility.yul\":10819:10897   */\n      tag_398\n      jump\t// in\n    tag_593:\n        /* \"#utility.yul\":10811:10897   */\n      swap1\n      pop\n        /* \"#utility.yul\":10481:10904   */\n      swap4\n      swap3\n      pop\n      pop\n      pop\n      jump\t// out\n        /* \"#utility.yul\":10910:11374   */\n    tag_77:\n        /* \"#utility.yul\":10973:10979   */\n      0x00\n        /* \"#utility.yul\":10981:10987   */\n      dup1\n        /* \"#utility.yul\":11030:11032   */\n      0x40\n        /* \"#utility.yul\":11018:11027   */\n      dup4\n        /* \"#utility.yul\":11009:11016   */\n      dup6\n        /* \"#utility.yul\":11005:11028   */\n      sub\n        /* \"#utility.yul\":11001:11033   */\n      slt\n        /* \"#utility.yul\":10998:11117   */\n      iszero\n      tag_595\n      jumpi\n        /* \"#utility.yul\":11036:11115   */\n      tag_596\n      tag_386\n      jump\t// in\n    tag_596:\n        /* \"#utility.yul\":10998:11117   */\n    tag_595:\n        /* \"#utility.yul\":11156:11157   */\n      0x00\n        /* \"#utility.yul\":11181:11232   */\n      tag_597\n        /* \"#utility.yul\":11224:11231   */\n      dup6\n        /* \"#utility.yul\":11215:11221   */\n      dup3\n        /* \"#utility.yul\":11204:11213   */\n      dup7\n        /* \"#utility.yul\":11200:11222   */\n      add\n        /* \"#utility.yul\":11181:11232   */\n      tag_419\n      jump\t// in\n    tag_597:\n        /* \"#utility.yul\":11171:11232   */\n      swap3\n      pop\n        /* \"#utility.yul\":11127:11242   */\n      pop\n        /* \"#utility.yul\":11281:11283   */\n      0x20\n        /* \"#utility.yul\":11307:11357   */\n      tag_598\n        /* \"#utility.yul\":11349:11356   */\n      dup6\n        /* \"#utility.yul\":11340:11346   */\n      dup3\n        /* \"#utility.yul\":11329:11338   */\n      dup7\n        /* \"#utility.yul\":11325:11347   */\n      add\n        /* \"#utility.yul\":11307:11357   */\n      tag_393\n      jump\t// in\n    tag_598:\n        /* \"#utility.yul\":11297:11357   */\n      swap2\n      pop\n        /* \"#utility.yul\":11252:11367   */\n      pop\n        /* \"#utility.yul\":10910:11374   */\n      swap3\n      pop\n      swap3\n      swap1\n      pop\n      jump\t// out\n        /* \"#utility.yul\":11380:11552   */\n    tag_422:\n        /* \"#utility.yul\":11520:11544   */\n      0x4f7261636c65206e6f7420696e697469616c697a656400000000000000000000\n        /* \"#utility.yul\":11516:11517   */\n      0x00\n        /* \"#utility.yul\":11508:11514   */\n      dup3\n        /* \"#utility.yul\":11504:11518   */\n      add\n        /* \"#utility.yul\":11497:11545   */\n      mstore\n        /* \"#utility.yul\":11380:11552   */\n      pop\n      jump\t// out\n        /* \"#utility.yul\":11558:11924   */\n    tag_423:\n        /* \"#utility.yul\":11700:11703   */\n      0x00\n        /* \"#utility.yul\":11721:11788   */\n      tag_601\n        /* \"#utility.yul\":11785:11787   */\n      0x16\n        /* \"#utility.yul\":11780:11783   */\n      dup4\n        /* \"#utility.yul\":11721:11788   */\n      tag_395\n      jump\t// in\n    tag_601:\n        /* \"#utility.yul\":11714:11788   */\n      swap2\n      pop\n        /* \"#utility.yul\":11797:11890   */\n      tag_602\n        /* \"#utility.yul\":11886:11889   */\n      dup3\n        /* \"#utility.yul\":11797:11890   */\n      tag_422\n      jump\t// in\n    tag_602:\n        /* \"#utility.yul\":11915:11917   */\n      0x20\n        /* \"#utility.yul\":11910:11913   */\n      dup3\n        /* \"#utility.yul\":11906:11918   */\n      add\n        /* \"#utility.yul\":11899:11918   */\n      swap1\n      pop\n        /* \"#utility.yul\":11558:11924   */\n      swap2\n      swap1\n      pop\n      jump\t// out\n        /* \"#utility.yul\":11930:12349   */\n    tag_84:\n        /* \"#utility.yul\":12096:12100   */\n      0x00\n        /* \"#utility.yul\":12134:12136   */\n      0x20\n        /* \"#utility.yul\":12123:12132   */\n      dup3\n        /* \"#utility.yul\":12119:12137   */\n      add\n        /* \"#utility.yul\":12111:12137   */\n      swap1\n      pop\n        /* \"#utility.yul\":12183:12192   */\n      dup2\n        /* \"#utility.yul\":12177:12181   */\n      dup2\n        /* \"#utility.yul\":12173:12193   */\n      sub\n        /* \"#utility.yul\":12169:12170   */\n      0x00\n        /* \"#utility.yul\":12158:12167   */\n      dup4\n        /* \"#utility.yul\":12154:12171   */\n      add\n        /* \"#utility.yul\":12147:12194   */\n      mstore\n        /* \"#utility.yul\":12211:12342   */\n      tag_604\n        /* \"#utility.yul\":12337:12341   */\n      dup2\n        /* \"#utility.yul\":12211:12342   */\n      tag_423\n      jump\t// in\n    tag_604:\n        /* \"#utility.yul\":12203:12342   */\n      swap1\n      pop\n        /* \"#utility.yul\":11930:12349   */\n      swap2\n      swap1\n      pop\n      jump\t// out\n        /* \"#utility.yul\":12355:12525   */\n    tag_424:\n        /* \"#utility.yul\":12495:12517   */\n      0x43616c6c6572206973206e6f74206f7261636c65000000000000000000000000\n        /* \"#utility.yul\":12491:12492   */\n      0x00\n        /* \"#utility.yul\":12483:12489   */\n      dup3\n        /* \"#utility.yul\":12479:12493   */\n      add\n        /* \"#utility.yul\":12472:12518   */\n      mstore\n        /* \"#utility.yul\":12355:12525   */\n      pop\n      jump\t// out\n        /* \"#utility.yul\":12531:12897   */\n    tag_425:\n        /* \"#utility.yul\":12673:12676   */\n      0x00\n        /* \"#utility.yul\":12694:12761   */\n      tag_607\n        /* \"#utility.yul\":12758:12760   */\n      0x14\n        /* \"#utility.yul\":12753:12756   */\n      dup4\n        /* \"#utility.yul\":12694:12761   */\n      tag_395\n      jump\t// in\n    tag_607:\n        /* \"#utility.yul\":12687:12761   */\n      swap2\n      pop\n        /* \"#utility.yul\":12770:12863   */\n      tag_608\n        /* \"#utility.yul\":12859:12862   */\n      dup3\n        /* \"#utility.yul\":12770:12863   */\n      tag_424\n      jump\t// in\n    tag_608:\n        /* \"#utility.yul\":12888:12890   */\n      0x20\n        /* \"#utility.yul\":12883:12886   */\n      dup3\n        /* \"#utility.yul\":12879:12891   */\n      add\n        /* \"#utility.yul\":12872:12891   */\n      swap1\n      pop\n        /* \"#utility.yul\":12531:12897   */\n      swap2\n      swap1\n      pop\n      jump\t// out\n        /* \"#utility.yul\":12903:13322   */\n    tag_88:\n        /* \"#utility.yul\":13069:13073   */\n      0x00\n        /* \"#utility.yul\":13107:13109   */\n      0x20\n        /* \"#utility.yul\":13096:13105   */\n      dup3\n        /* \"#utility.yul\":13092:13110   */\n      add\n        /* \"#utility.yul\":13084:13110   */\n      swap1\n      pop\n        /* \"#utility.yul\":13156:13165   */\n      dup2\n        /* \"#utility.yul\":13150:13154   */\n      dup2\n        /* \"#utility.yul\":13146:13166   */\n      sub\n        /* \"#utility.yul\":13142:13143   */\n      0x00\n        /* \"#utility.yul\":13131:13140   */\n      dup4\n        /* \"#utility.yul\":13127:13144   */\n      add\n        /* \"#utility.yul\":13120:13167   */\n      mstore\n        /* \"#utility.yul\":13184:13315   */\n      tag_610\n        /* \"#utility.yul\":13310:13314   */\n      dup2\n        /* \"#utility.yul\":13184:13315   */\n      tag_425\n      jump\t// in\n    tag_610:\n        /* \"#utility.yul\":13176:13315   */\n      swap1\n      pop\n        /* \"#utility.yul\":12903:13322   */\n      swap2\n      swap1\n      pop\n      jump\t// out\n        /* \"#utility.yul\":13328:13496   */\n    tag_426:\n        /* \"#utility.yul\":13468:13488   */\n      0x4465706c6f79207374617465206572726f720000000000000000000000000000\n        /* \"#utility.yul\":13464:13465   */\n      0x00\n        /* \"#utility.yul\":13456:13462   */\n      dup3\n        /* \"#utility.yul\":13452:13466   */\n      add\n        /* \"#utility.yul\":13445:13489   */\n      mstore\n        /* \"#utility.yul\":13328:13496   */\n      pop\n      jump\t// out\n        /* \"#utility.yul\":13502:13868   */\n    tag_427:\n        /* \"#utility.yul\":13644:13647   */\n      0x00\n        /* \"#utility.yul\":13665:13732   */\n      tag_613\n        /* \"#utility.yul\":13729:13731   */\n      0x12\n        /* \"#utility.yul\":13724:13727   */\n      dup4\n        /* \"#utility.yul\":13665:13732   */\n      tag_395\n      jump\t// in\n    tag_613:\n        /* \"#utility.yul\":13658:13732   */\n      swap2\n      pop\n        /* \"#utility.yul\":13741:13834   */\n      tag_614\n        /* \"#utility.yul\":13830:13833   */\n      dup3\n        /* \"#utility.yul\":13741:13834   */\n      tag_426\n      jump\t// in\n    tag_614:\n        /* \"#utility.yul\":13859:13861   */\n      0x20\n        /* \"#utility.yul\":13854:13857   */\n      dup3\n        /* \"#utility.yul\":13850:13862   */\n      add\n        /* \"#utility.yul\":13843:13862   */\n      swap1\n      pop\n        /* \"#utility.yul\":13502:13868   */\n      swap2\n      swap1\n      pop\n      jump\t// out\n        /* \"#utility.yul\":13874:14293   */\n    tag_97:\n        /* \"#utility.yul\":14040:14044   */\n      0x00\n        /* \"#utility.yul\":14078:14080   */\n      0x20\n        /* \"#utility.yul\":14067:14076   */\n      dup3\n        /* \"#utility.yul\":14063:14081   */\n      add\n        /* \"#utility.yul\":14055:14081   */\n      swap1\n      pop\n        /* \"#utility.yul\":14127:14136   */\n      dup2\n        /* \"#utility.yul\":14121:14125   */\n      dup2\n        /* \"#utility.yul\":14117:14137   */\n      sub\n        /* \"#utility.yul\":14113:14114   */\n      0x00\n        /* \"#utility.yul\":14102:14111   */\n      dup4\n        /* \"#utility.yul\":14098:14115   */\n      add\n        /* \"#utility.yul\":14091:14138   */\n      mstore\n        /* \"#utility.yul\":14155:14286   */\n      tag_616\n        /* \"#utility.yul\":14281:14285   */\n      dup2\n        /* \"#utility.yul\":14155:14286   */\n      tag_427\n      jump\t// in\n    tag_616:\n        /* \"#utility.yul\":14147:14286   */\n      swap1\n      pop\n        /* \"#utility.yul\":13874:14293   */\n      swap2\n      swap1\n      pop\n      jump\t// out\n        /* \"#utility.yul\":14299:15137   */\n    tag_105:\n        /* \"#utility.yul\":14540:14544   */\n      0x00\n        /* \"#utility.yul\":14578:14581   */\n      0xa0\n        /* \"#utility.yul\":14567:14576   */\n      dup3\n        /* \"#utility.yul\":14563:14582   */\n      add\n        /* \"#utility.yul\":14555:14582   */\n      swap1\n      pop\n        /* \"#utility.yul\":14592:14663   */\n      tag_618\n        /* \"#utility.yul\":14660:14661   */\n      0x00\n        /* \"#utility.yul\":14649:14658   */\n      dup4\n        /* \"#utility.yul\":14645:14662   */\n      add\n        /* \"#utility.yul\":14636:14642   */\n      dup9\n        /* \"#utility.yul\":14592:14663   */\n      tag_400\n      jump\t// in\n    tag_618:\n        /* \"#utility.yul\":14673:14741   */\n      tag_619\n        /* \"#utility.yul\":14737:14739   */\n      0x20\n        /* \"#utility.yul\":14726:14735   */\n      dup4\n        /* \"#utility.yul\":14722:14740   */\n      add\n        /* \"#utility.yul\":14713:14719   */\n      dup8\n        /* \"#utility.yul\":14673:14741   */\n      tag_402\n      jump\t// in\n    tag_619:\n        /* \"#utility.yul\":14788:14797   */\n      dup2\n        /* \"#utility.yul\":14782:14786   */\n      dup2\n        /* \"#utility.yul\":14778:14798   */\n      sub\n        /* \"#utility.yul\":14773:14775   */\n      0x40\n        /* \"#utility.yul\":14762:14771   */\n      dup4\n        /* \"#utility.yul\":14758:14776   */\n      add\n        /* \"#utility.yul\":14751:14799   */\n      mstore\n        /* \"#utility.yul\":14816:14894   */\n      tag_620\n        /* \"#utility.yul\":14889:14893   */\n      dup2\n        /* \"#utility.yul\":14880:14886   */\n      dup7\n        /* \"#utility.yul\":14816:14894   */\n      tag_398\n      jump\t// in\n    tag_620:\n        /* \"#utility.yul\":14808:14894   */\n      swap1\n      pop\n        /* \"#utility.yul\":14904:14976   */\n      tag_621\n        /* \"#utility.yul\":14972:14974   */\n      0x60\n        /* \"#utility.yul\":14961:14970   */\n      dup4\n        /* \"#utility.yul\":14957:14975   */\n      add\n        /* \"#utility.yul\":14948:14954   */\n      dup6\n        /* \"#utility.yul\":14904:14976   */\n      tag_404\n      jump\t// in\n    tag_621:\n        /* \"#utility.yul\":15024:15033   */\n      dup2\n        /* \"#utility.yul\":15018:15022   */\n      dup2\n        /* \"#utility.yul\":15014:15034   */\n      sub\n        /* \"#utility.yul\":15008:15011   */\n      0x80\n        /* \"#utility.yul\":14997:15006   */\n      dup4\n        /* \"#utility.yul\":14993:15012   */\n      add\n        /* \"#utility.yul\":14986:15035   */\n      mstore\n        /* \"#utility.yul\":15052:15130   */\n      tag_622\n        /* \"#utility.yul\":15125:15129   */\n      dup2\n        /* \"#utility.yul\":15116:15122   */\n      dup5\n        /* \"#utility.yul\":15052:15130   */\n      tag_398\n      jump\t// in\n    tag_622:\n        /* \"#utility.yul\":15044:15130   */\n      swap1\n      pop\n        /* \"#utility.yul\":14299:15137   */\n      swap7\n      swap6\n      pop\n      pop\n      pop\n      pop\n      pop\n      pop\n      jump\t// out\n        /* \"#utility.yul\":15143:15323   */\n    tag_111:\n        /* \"#utility.yul\":15191:15268   */\n      0x4e487b7100000000000000000000000000000000000000000000000000000000\n        /* \"#utility.yul\":15188:15189   */\n      0x00\n        /* \"#utility.yul\":15181:15269   */\n      mstore\n        /* \"#utility.yul\":15288:15292   */\n      0x32\n        /* \"#utility.yul\":15285:15286   */\n      0x04\n        /* \"#utility.yul\":15278:15293   */\n      mstore\n        /* \"#utility.yul\":15312:15316   */\n      0x24\n        /* \"#utility.yul\":15309:15310   */\n      0x00\n        /* \"#utility.yul\":15302:15317   */\n      revert\n        /* \"#utility.yul\":15329:15509   */\n    tag_428:\n        /* \"#utility.yul\":15377:15454   */\n      0x4e487b7100000000000000000000000000000000000000000000000000000000\n        /* \"#utility.yul\":15374:15375   */\n      0x00\n        /* \"#utility.yul\":15367:15455   */\n      mstore\n        /* \"#utility.yul\":15474:15478   */\n      0x11\n        /* \"#utility.yul\":15471:15472   */\n      0x04\n        /* \"#utility.yul\":15464:15479   */\n      mstore\n        /* \"#utility.yul\":15498:15502   */\n      0x24\n        /* \"#utility.yul\":15495:15496   */\n      0x00\n        /* \"#utility.yul\":15488:15503   */\n      revert\n        /* \"#utility.yul\":15515:15686   */\n    tag_114:\n        /* \"#utility.yul\":15554:15557   */\n      0x00\n        /* \"#utility.yul\":15577:15601   */\n      tag_626\n        /* \"#utility.yul\":15595:15600   */\n      dup3\n        /* \"#utility.yul\":15577:15601   */\n      tag_388\n      jump\t// in\n    tag_626:\n        /* \"#utility.yul\":15568:15601   */\n      swap2\n      pop\n        /* \"#utility.yul\":15623:15627   */\n      0x00\n        /* \"#utility.yul\":15616:15621   */\n      dup3\n        /* \"#utility.yul\":15613:15628   */\n      sub\n        /* \"#utility.yul\":15610:15651   */\n      tag_627\n      jumpi\n        /* \"#utility.yul\":15631:15649   */\n      tag_628\n      tag_428\n      jump\t// in\n    tag_628:\n        /* \"#utility.yul\":15610:15651   */\n    tag_627:\n        /* \"#utility.yul\":15678:15679   */\n      0x01\n        /* \"#utility.yul\":15671:15676   */\n      dup3\n        /* \"#utility.yul\":15667:15680   */\n      sub\n        /* \"#utility.yul\":15660:15680   */\n      swap1\n      pop\n        /* \"#utility.yul\":15515:15686   */\n      swap2\n      swap1\n      pop\n      jump\t// out\n        /* \"#utility.yul\":15692:15872   */\n    tag_429:\n        /* \"#utility.yul\":15740:15817   */\n      0x4e487b7100000000000000000000000000000000000000000000000000000000\n        /* \"#utility.yul\":15737:15738   */\n      0x00\n        /* \"#utility.yul\":15730:15818   */\n      mstore\n        /* \"#utility.yul\":15837:15841   */\n      0x22\n        /* \"#utility.yul\":15834:15835   */\n      0x04\n        /* \"#utility.yul\":15827:15842   */\n      mstore\n        /* \"#utility.yul\":15861:15865   */\n      0x24\n        /* \"#utility.yul\":15858:15859   */\n      0x00\n        /* \"#utility.yul\":15851:15866   */\n      revert\n        /* \"#utility.yul\":15878:16198   */\n    tag_119:\n        /* \"#utility.yul\":15922:15928   */\n      0x00\n        /* \"#utility.yul\":15959:15960   */\n      0x02\n        /* \"#utility.yul\":15953:15957   */\n      dup3\n        /* \"#utility.yul\":15949:15961   */\n      div\n        /* \"#utility.yul\":15939:15961   */\n      swap1\n      pop\n        /* \"#utility.yul\":16006:16007   */\n      0x01\n        /* \"#utility.yul\":16000:16004   */\n      dup3\n        /* \"#utility.yul\":15996:16008   */\n      and\n        /* \"#utility.yul\":16027:16045   */\n      dup1\n        /* \"#utility.yul\":16017:16098   */\n      tag_631\n      jumpi\n        /* \"#utility.yul\":16083:16087   */\n      0x7f\n        /* \"#utility.yul\":16075:16081   */\n      dup3\n        /* \"#utility.yul\":16071:16088   */\n      and\n        /* \"#utility.yul\":16061:16088   */\n      swap2\n      pop\n        /* \"#utility.yul\":16017:16098   */\n    tag_631:\n        /* \"#utility.yul\":16145:16147   */\n      0x20\n        /* \"#utility.yul\":16137:16143   */\n      dup3\n        /* \"#utility.yul\":16134:16148   */\n      lt\n        /* \"#utility.yul\":16114:16132   */\n      dup2\n        /* \"#utility.yul\":16111:16149   */\n      sub\n        /* \"#utility.yul\":16108:16192   */\n      tag_632\n      jumpi\n        /* \"#utility.yul\":16164:16182   */\n      tag_633\n      tag_429\n      jump\t// in\n    tag_633:\n        /* \"#utility.yul\":16108:16192   */\n    tag_632:\n        /* \"#utility.yul\":15929:16198   */\n      pop\n        /* \"#utility.yul\":15878:16198   */\n      swap2\n      swap1\n      pop\n      jump\t// out\n        /* \"#utility.yul\":16204:16380   */\n    tag_430:\n        /* \"#utility.yul\":16344:16372   */\n      0x4e6f206d6f72652073686172642063616e206265206164646564000000000000\n        /* \"#utility.yul\":16340:16341   */\n      0x00\n        /* \"#utility.yul\":16332:16338   */\n      dup3\n        /* \"#utility.yul\":16328:16342   */\n      add\n        /* \"#utility.yul\":16321:16373   */\n      mstore\n        /* \"#utility.yul\":16204:16380   */\n      pop\n      jump\t// out\n        /* \"#utility.yul\":16386:16752   */\n    tag_431:\n        /* \"#utility.yul\":16528:16531   */\n      0x00\n        /* \"#utility.yul\":16549:16616   */\n      tag_636\n        /* \"#utility.yul\":16613:16615   */\n      0x1a\n        /* \"#utility.yul\":16608:16611   */\n      dup4\n        /* \"#utility.yul\":16549:16616   */\n      tag_395\n      jump\t// in\n    tag_636:\n        /* \"#utility.yul\":16542:16616   */\n      swap2\n      pop\n        /* \"#utility.yul\":16625:16718   */\n      tag_637\n        /* \"#utility.yul\":16714:16717   */\n      dup3\n        /* \"#utility.yul\":16625:16718   */\n      tag_430\n      jump\t// in\n    tag_637:\n        /* \"#utility.yul\":16743:16745   */\n      0x20\n        /* \"#utility.yul\":16738:16741   */\n      dup3\n        /* \"#utility.yul\":16734:16746   */\n      add\n        /* \"#utility.yul\":16727:16746   */\n      swap1\n      pop\n        /* \"#utility.yul\":16386:16752   */\n      swap2\n      swap1\n      pop\n      jump\t// out\n        /* \"#utility.yul\":16758:17177   */\n    tag_135:\n        /* \"#utility.yul\":16924:16928   */\n      0x00\n        /* \"#utility.yul\":16962:16964   */\n      0x20\n        /* \"#utility.yul\":16951:16960   */\n      dup3\n        /* \"#utility.yul\":16947:16965   */\n      add\n        /* \"#utility.yul\":16939:16965   */\n      swap1\n      pop\n        /* \"#utility.yul\":17011:17020   */\n      dup2\n        /* \"#utility.yul\":17005:17009   */\n      dup2\n        /* \"#utility.yul\":17001:17021   */\n      sub\n        /* \"#utility.yul\":16997:16998   */\n      0x00\n        /* \"#utility.yul\":16986:16995   */\n      dup4\n        /* \"#utility.yul\":16982:16999   */\n      add\n        /* \"#utility.yul\":16975:17022   */\n      mstore\n        /* \"#utility.yul\":17039:17170   */\n      tag_639\n        /* \"#utility.yul\":17165:17169   */\n      dup2\n        /* \"#utility.yul\":17039:17170   */\n      tag_431\n      jump\t// in\n    tag_639:\n        /* \"#utility.yul\":17031:17170   */\n      swap1\n      pop\n        /* \"#utility.yul\":16758:17177   */\n      swap2\n      swap1\n      pop\n      jump\t// out\n        /* \"#utility.yul\":17183:17363   */\n    tag_432:\n        /* \"#utility.yul\":17231:17308   */\n      0x4e487b7100000000000000000000000000000000000000000000000000000000\n        /* \"#utility.yul\":17228:17229   */\n      0x00\n        /* \"#utility.yul\":17221:17309   */\n      mstore\n        /* \"#utility.yul\":17328:17332   */\n      0x41\n        /* \"#utility.yul\":17325:17326   */\n      0x04\n        /* \"#utility.yul\":17318:17333   */\n      mstore\n        /* \"#utility.yul\":17352:17356   */\n      0x24\n        /* \"#utility.yul\":17349:17350   */\n      0x00\n        /* \"#utility.yul\":17342:17357   */\n      revert\n        /* \"#utility.yul\":17369:17510   */\n    tag_433:\n        /* \"#utility.yul\":17418:17422   */\n      0x00\n        /* \"#utility.yul\":17441:17444   */\n      dup2\n        /* \"#utility.yul\":17433:17444   */\n      swap1\n      pop\n        /* \"#utility.yul\":17464:17467   */\n      dup2\n        /* \"#utility.yul\":17461:17462   */\n      0x00\n        /* \"#utility.yul\":17454:17468   */\n      mstore\n        /* \"#utility.yul\":17498:17502   */\n      0x20\n        /* \"#utility.yul\":17495:17496   */\n      0x00\n        /* \"#utility.yul\":17485:17503   */\n      keccak256\n        /* \"#utility.yul\":17477:17503   */\n      swap1\n      pop\n        /* \"#utility.yul\":17369:17510   */\n      swap2\n      swap1\n      pop\n      jump\t// out\n        /* \"#utility.yul\":17516:17609   */\n    tag_434:\n        /* \"#utility.yul\":17553:17559   */\n      0x00\n        /* \"#utility.yul\":17600:17602   */\n      0x20\n        /* \"#utility.yul\":17595:17597   */\n      0x1f\n        /* \"#utility.yul\":17588:17593   */\n      dup4\n        /* \"#utility.yul\":17584:17598   */\n      add\n        /* \"#utility.yul\":17580:17603   */\n      div\n        /* \"#utility.yul\":17570:17603   */\n      swap1\n      pop\n        /* \"#utility.yul\":17516:17609   */\n      swap2\n      swap1\n      pop\n      jump\t// out\n        /* \"#utility.yul\":17615:17722   */\n    tag_435:\n        /* \"#utility.yul\":17659:17667   */\n      0x00\n        /* \"#utility.yul\":17709:17714   */\n      dup3\n        /* \"#utility.yul\":17703:17707   */\n      dup3\n        /* \"#utility.yul\":17699:17715   */\n      shl\n        /* \"#utility.yul\":17678:17715   */\n      swap1\n      pop\n        /* \"#utility.yul\":17615:17722   */\n      swap3\n      swap2\n      pop\n      pop\n      jump\t// out\n        /* \"#utility.yul\":17728:18121   */\n    tag_436:\n        /* \"#utility.yul\":17797:17803   */\n      0x00\n        /* \"#utility.yul\":17847:17848   */\n      0x08\n        /* \"#utility.yul\":17835:17845   */\n      dup4\n        /* \"#utility.yul\":17831:17849   */\n      mul\n        /* \"#utility.yul\":17870:17967   */\n      tag_645\n        /* \"#utility.yul\":17900:17966   */\n      0xffffffffffffffffffffffffffffffffffffffffffffffffffffffffffffffff\n        /* \"#utility.yul\":17889:17898   */\n      dup3\n        /* \"#utility.yul\":17870:17967   */\n      tag_435\n      jump\t// in\n    tag_645:\n        /* \"#utility.yul\":17988:18027   */\n      tag_646\n        /* \"#utility.yul\":18018:18026   */\n      dup7\n        /* \"#utility.yul\":18007:18016   */\n      dup4\n        /* \"#utility.yul\":17988:18027   */\n      tag_435\n      jump\t// in\n    tag_646:\n        /* \"#utility.yul\":17976:18027   */\n      swap6\n      pop\n        /* \"#utility.yul\":18060:18064   */\n      dup1\n        /* \"#utility.yul\":18056:18065   */\n      not\n        /* \"#utility.yul\":18049:18054   */\n      dup5\n        /* \"#utility.yul\":18045:18066   */\n      and\n        /* \"#utility.yul\":18036:18066   */\n      swap4\n      pop\n        /* \"#utility.yul\":18109:18113   */\n      dup1\n        /* \"#utility.yul\":18099:18107   */\n      dup7\n        /* \"#utility.yul\":18095:18114   */\n      and\n        /* \"#utility.yul\":18088:18093   */\n      dup5\n        /* \"#utility.yul\":18085:18115   */\n      or\n        /* \"#utility.yul\":18075:18115   */\n      swap3\n      pop\n        /* \"#utility.yul\":17804:18121   */\n      pop\n      pop\n        /* \"#utility.yul\":17728:18121   */\n      swap4\n      swap3\n      pop\n      pop\n      pop\n      jump\t// out\n        /* \"#utility.yul\":18127:18187   */\n    tag_437:\n        /* \"#utility.yul\":18155:18158   */\n      0x00\n        /* \"#utility.yul\":18176:18181   */\n      dup2\n        /* \"#utility.yul\":18169:18181   */\n      swap1\n      pop\n        /* \"#utility.yul\":18127:18187   */\n      swap2\n      swap1\n      pop\n      jump\t// out\n        /* \"#utility.yul\":18193:18335   */\n    tag_438:\n        /* \"#utility.yul\":18243:18252   */\n      0x00\n        /* \"#utility.yul\":18276:18329   */\n      tag_649\n        /* \"#utility.yul\":18294:18328   */\n      tag_650\n        /* \"#utility.yul\":18303:18327   */\n      tag_651\n        /* \"#utility.yul\":18321:18326   */\n      dup5\n        /* \"#utility.yul\":18303:18327   */\n      tag_388\n      jump\t// in\n    tag_651:\n        /* \"#utility.yul\":18294:18328   */\n      tag_437\n      jump\t// in\n    tag_650:\n        /* \"#utility.yul\":18276:18329   */\n      tag_388\n      jump\t// in\n    tag_649:\n        /* \"#utility.yul\":18263:18329   */\n      swap1\n      pop\n        /* \"#utility.yul\":18193:18335   */\n      swap2\n      swap1\n      pop\n      jump\t// out\n        /* \"#utility.yul\":18341:18416   */\n    tag_439:\n        /* \"#utility.yul\":18384:18387   */\n      0x00\n        /* \"#utility.yul\":18405:18410   */\n      dup2\n        /* \"#utility.yul\":18398:18410   */\n      swap1\n      pop\n        /* \"#utility.yul\":18341:18416   */\n      swap2\n      swap1\n      pop\n      jump\t// out\n        /* \"#utility.yul\":18422:18691   */\n    tag_440:\n        /* \"#utility.yul\":18532:18571   */\n      tag_654\n        /* \"#utility.yul\":18563:18570   */\n      dup4\n        /* \"#utility.yul\":18532:18571   */\n      tag_438\n      jump\t// in\n    tag_654:\n        /* \"#utility.yul\":18593:18684   */\n      tag_655\n        /* \"#utility.yul\":18642:18683   */\n      tag_656\n        /* \"#utility.yul\":18666:18682   */\n      dup3\n        /* \"#utility.yul\":18642:18683   */\n      tag_439\n      jump\t// in\n    tag_656:\n        /* \"#utility.yul\":18634:18640   */\n      dup5\n        /* \"#utility.yul\":18627:18631   */\n      dup5\n        /* \"#utility.yul\":18621:18632   */\n      sload\n        /* \"#utility.yul\":18593:18684   */\n      tag_436\n      jump\t// in\n    tag_655:\n        /* \"#utility.yul\":18587:18591   */\n      dup3\n        /* \"#utility.yul\":18580:18685   */\n      sstore\n        /* \"#utility.yul\":18498:18691   */\n      pop\n        /* \"#utility.yul\":18422:18691   */\n      pop\n      pop\n      pop\n      jump\t// out\n        /* \"#utility.yul\":18697:18770   */\n    tag_441:\n        /* \"#utility.yul\":18742:18745   */\n      0x00\n        /* \"#utility.yul\":18697:18770   */\n      swap1\n      jump\t// out\n        /* \"#utility.yul\":18776:18965   */\n    tag_442:\n        /* \"#utility.yul\":18853:18885   */\n      tag_659\n      tag_441\n      jump\t// in\n    tag_659:\n        /* \"#utility.yul\":18894:18959   */\n      tag_660\n        /* \"#utility.yul\":18952:18958   */\n      dup2\n        /* \"#utility.yul\":18944:18950   */\n      dup5\n        /* \"#utility.yul\":18938:18942   */\n      dup5\n        /* \"#utility.yul\":18894:18959   */\n      tag_440\n      jump\t// in\n    tag_660:\n        /* \"#utility.yul\":18829:18965   */\n      pop\n        /* \"#utility.yul\":18776:18965   */\n      pop\n      pop\n      jump\t// out\n        /* \"#utility.yul\":18971:19157   */\n    tag_443:\n        /* \"#utility.yul\":19031:19151   */\n    tag_662:\n        /* \"#utility.yul\":19048:19051   */\n      dup2\n        /* \"#utility.yul\":19041:19046   */\n      dup2\n        /* \"#utility.yul\":19038:19052   */\n      lt\n        /* \"#utility.yul\":19031:19151   */\n      iszero\n      tag_664\n      jumpi\n        /* \"#utility.yul\":19102:19141   */\n      tag_665\n        /* \"#utility.yul\":19139:19140   */\n      0x00\n        /* \"#utility.yul\":19132:19137   */\n      dup3\n        /* \"#utility.yul\":19102:19141   */\n      tag_442\n      jump\t// in\n    tag_665:\n        /* \"#utility.yul\":19075:19076   */\n      0x01\n        /* \"#utility.yul\":19068:19073   */\n      dup2\n        /* \"#utility.yul\":19064:19077   */\n      add\n        /* \"#utility.yul\":19055:19077   */\n      swap1\n      pop\n        /* \"#utility.yul\":19031:19151   */\n      jump(tag_662)\n    tag_664:\n        /* \"#utility.yul\":18971:19157   */\n      pop\n      pop\n      jump\t// out\n        /* \"#utility.yul\":19163:19706   */\n    tag_444:\n        /* \"#utility.yul\":19264:19266   */\n      0x1f\n        /* \"#utility.yul\":19259:19262   */\n      dup3\n        /* \"#utility.yul\":19256:19267   */\n      gt\n        /* \"#utility.yul\":19253:19699   */\n      iszero\n      tag_667\n      jumpi\n        /* \"#utility.yul\":19298:19336   */\n      tag_668\n        /* \"#utility.yul\":19330:19335   */\n      dup2\n        /* \"#utility.yul\":19298:19336   */\n      tag_433\n      jump\t// in\n    tag_668:\n        /* \"#utility.yul\":19382:19411   */\n      tag_669\n        /* \"#utility.yul\":19400:19410   */\n      dup5\n        /* \"#utility.yul\":19382:19411   */\n      tag_434\n      jump\t// in\n    tag_669:\n        /* \"#utility.yul\":19372:19380   */\n      dup2\n        /* \"#utility.yul\":19368:19412   */\n      add\n        /* \"#utility.yul\":19565:19567   */\n      0x20\n        /* \"#utility.yul\":19553:19563   */\n      dup6\n        /* \"#utility.yul\":19550:19568   */\n      lt\n        /* \"#utility.yul\":19547:19596   */\n      iszero\n      tag_670\n      jumpi\n        /* \"#utility.yul\":19586:19594   */\n      dup2\n        /* \"#utility.yul\":19571:19594   */\n      swap1\n      pop\n        /* \"#utility.yul\":19547:19596   */\n    tag_670:\n        /* \"#utility.yul\":19609:19689   */\n      tag_671\n        /* \"#utility.yul\":19665:19687   */\n      tag_672\n        /* \"#utility.yul\":19683:19686   */\n      dup6\n        /* \"#utility.yul\":19665:19687   */\n      tag_434\n      jump\t// in\n    tag_672:\n        /* \"#utility.yul\":19655:19663   */\n      dup4\n        /* \"#utility.yul\":19651:19688   */\n      add\n        /* \"#utility.yul\":19638:19649   */\n      dup3\n        /* \"#utility.yul\":19609:19689   */\n      tag_443\n      jump\t// in\n    tag_671:\n        /* \"#utility.yul\":19268:19699   */\n      pop\n      pop\n        /* \"#utility.yul\":19253:19699   */\n    tag_667:\n        /* \"#utility.yul\":19163:19706   */\n      pop\n      pop\n      pop\n      jump\t// out\n        /* \"#utility.yul\":19712:19829   */\n    tag_445:\n        /* \"#utility.yul\":19766:19774   */\n      0x00\n        /* \"#utility.yul\":19816:19821   */\n      dup3\n        /* \"#utility.yul\":19810:19814   */\n      dup3\n        /* \"#utility.yul\":19806:19822   */\n      shr\n        /* \"#utility.yul\":19785:19822   */\n      swap1\n      pop\n        /* \"#utility.yul\":19712:19829   */\n      swap3\n      swap2\n      pop\n      pop\n      jump\t// out\n        /* \"#utility.yul\":19835:20004   */\n    tag_446:\n        /* \"#utility.yul\":19879:19885   */\n      0x00\n        /* \"#utility.yul\":19912:19963   */\n      tag_675\n        /* \"#utility.yul\":19960:19961   */\n      0x00\n        /* \"#utility.yul\":19956:19962   */\n      not\n        /* \"#utility.yul\":19948:19953   */\n      dup5\n        /* \"#utility.yul\":19945:19946   */\n      0x08\n        /* \"#utility.yul\":19941:19954   */\n      mul\n        /* \"#utility.yul\":19912:19963   */\n      tag_445\n      jump\t// in\n    tag_675:\n        /* \"#utility.yul\":19908:19964   */\n      not\n        /* \"#utility.yul\":19993:19997   */\n      dup1\n        /* \"#utility.yul\":19987:19991   */\n      dup4\n        /* \"#utility.yul\":19983:19998   */\n      and\n        /* \"#utility.yul\":19973:19998   */\n      swap2\n      pop\n        /* \"#utility.yul\":19886:20004   */\n      pop\n        /* \"#utility.yul\":19835:20004   */\n      swap3\n      swap2\n      pop\n      pop\n      jump\t// out\n        /* \"#utility.yul\":20009:20304   */\n    tag_447:\n        /* \"#utility.yul\":20085:20089   */\n      0x00\n        /* \"#utility.yul\":20231:20260   */\n      tag_677\n        /* \"#utility.yul\":20256:20259   */\n      dup4\n        /* \"#utility.yul\":20250:20254   */\n      dup4\n        /* \"#utility.yul\":20231:20260   */\n      tag_446\n      jump\t// in\n    tag_677:\n        /* \"#utility.yul\":20223:20260   */\n      swap2\n      pop\n        /* \"#utility.yul\":20293:20296   */\n      dup3\n        /* \"#utility.yul\":20290:20291   */\n      0x02\n        /* \"#utility.yul\":20286:20297   */\n      mul\n        /* \"#utility.yul\":20280:20284   */\n      dup3\n        /* \"#utility.yul\":20277:20298   */\n      or\n        /* \"#utility.yul\":20269:20298   */\n      swap1\n      pop\n        /* \"#utility.yul\":20009:20304   */\n      swap3\n      swap2\n      pop\n      pop\n      jump\t// out\n        /* \"#utility.yul\":20309:21704   */\n    tag_139:\n        /* \"#utility.yul\":20426:20463   */\n      tag_679\n        /* \"#utility.yul\":20459:20462   */\n      dup3\n        /* \"#utility.yul\":20426:20463   */\n      tag_394\n      jump\t// in\n    tag_679:\n        /* \"#utility.yul\":20528:20546   */\n      0xffffffffffffffff\n        /* \"#utility.yul\":20520:20526   */\n      dup2\n        /* \"#utility.yul\":20517:20547   */\n      gt\n        /* \"#utility.yul\":20514:20570   */\n      iszero\n      tag_680\n      jumpi\n        /* \"#utility.yul\":20550:20568   */\n      tag_681\n      tag_432\n      jump\t// in\n    tag_681:\n        /* \"#utility.yul\":20514:20570   */\n    tag_680:\n        /* \"#utility.yul\":20594:20632   */\n      tag_682\n        /* \"#utility.yul\":20626:20630   */\n      dup3\n        /* \"#utility.yul\":20620:20631   */\n      sload\n        /* \"#utility.yul\":20594:20632   */\n      tag_119\n      jump\t// in\n    tag_682:\n        /* \"#utility.yul\":20679:20746   */\n      tag_683\n        /* \"#utility.yul\":20739:20745   */\n      dup3\n        /* \"#utility.yul\":20731:20737   */\n      dup3\n        /* \"#utility.yul\":20725:20729   */\n      dup6\n        /* \"#utility.yul\":20679:20746   */\n      tag_444\n      jump\t// in\n    tag_683:\n        /* \"#utility.yul\":20773:20774   */\n      0x00\n        /* \"#utility.yul\":20797:20801   */\n      0x20\n        /* \"#utility.yul\":20784:20801   */\n      swap1\n      pop\n        /* \"#utility.yul\":20829:20831   */\n      0x1f\n        /* \"#utility.yul\":20821:20827   */\n      dup4\n        /* \"#utility.yul\":20818:20832   */\n      gt\n        /* \"#utility.yul\":20846:20847   */\n      0x01\n        /* \"#utility.yul\":20841:21459   */\n      dup2\n      eq\n      tag_685\n      jumpi\n        /* \"#utility.yul\":21503:21504   */\n      0x00\n        /* \"#utility.yul\":21520:21526   */\n      dup5\n        /* \"#utility.yul\":21517:21594   */\n      iszero\n      tag_686\n      jumpi\n        /* \"#utility.yul\":21569:21578   */\n      dup3\n        /* \"#utility.yul\":21564:21567   */\n      dup8\n        /* \"#utility.yul\":21560:21579   */\n      add\n        /* \"#utility.yul\":21554:21580   */\n      mload\n        /* \"#utility.yul\":21545:21580   */\n      swap1\n      pop\n        /* \"#utility.yul\":21517:21594   */\n    tag_686:\n        /* \"#utility.yul\":21620:21687   */\n      tag_687\n        /* \"#utility.yul\":21680:21686   */\n      dup6\n        /* \"#utility.yul\":21673:21678   */\n      dup3\n        /* \"#utility.yul\":21620:21687   */\n      tag_447\n      jump\t// in\n    tag_687:\n        /* \"#utility.yul\":21614:21618   */\n      dup7\n        /* \"#utility.yul\":21607:21688   */\n      sstore\n        /* \"#utility.yul\":21476:21698   */\n      pop\n        /* \"#utility.yul\":20811:21698   */\n      jump(tag_684)\n        /* \"#utility.yul\":20841:21459   */\n    tag_685:\n        /* \"#utility.yul\":20893:20897   */\n      0x1f\n        /* \"#utility.yul\":20889:20898   */\n      not\n        /* \"#utility.yul\":20881:20887   */\n      dup5\n        /* \"#utility.yul\":20877:20899   */\n      and\n        /* \"#utility.yul\":20927:20964   */\n      tag_688\n        /* \"#utility.yul\":20959:20963   */\n      dup7\n        /* \"#utility.yul\":20927:20964   */\n      tag_433\n      jump\t// in\n    tag_688:\n        /* \"#utility.yul\":20986:20987   */\n      0x00\n        /* \"#utility.yul\":21000:21208   */\n    tag_689:\n        /* \"#utility.yul\":21014:21021   */\n      dup3\n        /* \"#utility.yul\":21011:21012   */\n      dup2\n        /* \"#utility.yul\":21008:21022   */\n      lt\n        /* \"#utility.yul\":21000:21208   */\n      iszero\n      tag_691\n      jumpi\n        /* \"#utility.yul\":21093:21102   */\n      dup5\n        /* \"#utility.yul\":21088:21091   */\n      dup10\n        /* \"#utility.yul\":21084:21103   */\n      add\n        /* \"#utility.yul\":21078:21104   */\n      mload\n        /* \"#utility.yul\":21070:21076   */\n      dup3\n        /* \"#utility.yul\":21063:21105   */\n      sstore\n        /* \"#utility.yul\":21144:21145   */\n      0x01\n        /* \"#utility.yul\":21136:21142   */\n      dup3\n        /* \"#utility.yul\":21132:21146   */\n      add\n        /* \"#utility.yul\":21122:21146   */\n      swap2\n      pop\n        /* \"#utility.yul\":21191:21193   */\n      0x20\n        /* \"#utility.yul\":21180:21189   */\n      dup6\n        /* \"#utility.yul\":21176:21194   */\n      add\n        /* \"#utility.yul\":21163:21194   */\n      swap5\n      pop\n        /* \"#utility.yul\":21037:21041   */\n      0x20\n        /* \"#utility.yul\":21034:21035   */\n      dup2\n        /* \"#utility.yul\":21030:21042   */\n      add\n        /* \"#utility.yul\":21025:21042   */\n      swap1\n      pop\n        /* \"#utility.yul\":21000:21208   */\n      jump(tag_689)\n    tag_691:\n        /* \"#utility.yul\":21236:21242   */\n      dup7\n        /* \"#utility.yul\":21227:21234   */\n      dup4\n        /* \"#utility.yul\":21224:21243   */\n      lt\n        /* \"#utility.yul\":21221:21400   */\n      iszero\n      tag_692\n      jumpi\n        /* \"#utility.yul\":21294:21303   */\n      dup5\n        /* \"#utility.yul\":21289:21292   */\n      dup10\n        /* \"#utility.yul\":21285:21304   */\n      add\n        /* \"#utility.yul\":21279:21305   */\n      mload\n        /* \"#utility.yul\":21337:21385   */\n      tag_693\n        /* \"#utility.yul\":21379:21383   */\n      0x1f\n        /* \"#utility.yul\":21371:21377   */\n      dup10\n        /* \"#utility.yul\":21367:21384   */\n      and\n        /* \"#utility.yul\":21356:21365   */\n      dup3\n        /* \"#utility.yul\":21337:21385   */\n      tag_446\n      jump\t// in\n    tag_693:\n        /* \"#utility.yul\":21329:21335   */\n      dup4\n        /* \"#utility.yul\":21322:21386   */\n      sstore\n        /* \"#utility.yul\":21244:21400   */\n      pop\n        /* \"#utility.yul\":21221:21400   */\n    tag_692:\n        /* \"#utility.yul\":21446:21447   */\n      0x01\n        /* \"#utility.yul\":21442:21443   */\n      0x02\n        /* \"#utility.yul\":21434:21440   */\n      dup9\n        /* \"#utility.yul\":21430:21444   */\n      mul\n        /* \"#utility.yul\":21426:21448   */\n      add\n        /* \"#utility.yul\":21420:21424   */\n      dup9\n        /* \"#utility.yul\":21413:21449   */\n      sstore\n        /* \"#utility.yul\":20848:21459   */\n      pop\n      pop\n      pop\n        /* \"#utility.yul\":20811:21698   */\n    tag_684:\n      pop\n        /* \"#utility.yul\":20401:21704   */\n      pop\n      pop\n      pop\n        /* \"#utility.yul\":20309:21704   */\n      pop\n      pop\n      jump\t// out\n        /* \"#utility.yul\":21710:21904   */\n    tag_141:\n        /* \"#utility.yul\":21750:21754   */\n      0x00\n        /* \"#utility.yul\":21770:21790   */\n      tag_695\n        /* \"#utility.yul\":21788:21789   */\n      dup3\n        /* \"#utility.yul\":21770:21790   */\n      tag_388\n      jump\t// in\n    tag_695:\n        /* \"#utility.yul\":21765:21790   */\n      swap2\n      pop\n        /* \"#utility.yul\":21804:21824   */\n      tag_696\n        /* \"#utility.yul\":21822:21823   */\n      dup4\n        /* \"#utility.yul\":21804:21824   */\n      tag_388\n      jump\t// in\n    tag_696:\n        /* \"#utility.yul\":21799:21824   */\n      swap3\n      pop\n        /* \"#utility.yul\":21848:21849   */\n      dup3\n        /* \"#utility.yul\":21845:21846   */\n      dup3\n        /* \"#utility.yul\":21841:21850   */\n      sub\n        /* \"#utility.yul\":21833:21850   */\n      swap1\n      pop\n        /* \"#utility.yul\":21872:21873   */\n      dup2\n        /* \"#utility.yul\":21866:21870   */\n      dup2\n        /* \"#utility.yul\":21863:21874   */\n      gt\n        /* \"#utility.yul\":21860:21897   */\n      iszero\n      tag_697\n      jumpi\n        /* \"#utility.yul\":21877:21895   */\n      tag_698\n      tag_428\n      jump\t// in\n    tag_698:\n        /* \"#utility.yul\":21860:21897   */\n    tag_697:\n        /* \"#utility.yul\":21710:21904   */\n      swap3\n      swap2\n      pop\n      pop\n      jump\t// out\n        /* \"#utility.yul\":21910:22056   */\n    tag_448:\n        /* \"#utility.yul\":22007:22013   */\n      dup3\n        /* \"#utility.yul\":22002:22005   */\n      dup2\n        /* \"#utility.yul\":21997:22000   */\n      dup4\n        /* \"#utility.yul\":21984:22014   */\n      calldatacopy\n        /* \"#utility.yul\":22048:22049   */\n      0x00\n        /* \"#utility.yul\":22039:22045   */\n      dup4\n        /* \"#utility.yul\":22034:22037   */\n      dup4\n        /* \"#utility.yul\":22030:22046   */\n      add\n        /* \"#utility.yul\":22023:22050   */\n      mstore\n        /* \"#utility.yul\":21910:22056   */\n      pop\n      pop\n      pop\n      jump\t// out\n        /* \"#utility.yul\":22086:22403   */\n    tag_449:\n        /* \"#utility.yul\":22184:22187   */\n      0x00\n        /* \"#utility.yul\":22205:22276   */\n      tag_701\n        /* \"#utility.yul\":22269:22275   */\n      dup4\n        /* \"#utility.yul\":22264:22267   */\n      dup6\n        /* \"#utility.yul\":22205:22276   */\n      tag_395\n      jump\t// in\n    tag_701:\n        /* \"#utility.yul\":22198:22276   */\n      swap4\n      pop\n        /* \"#utility.yul\":22286:22342   */\n      tag_702\n        /* \"#utility.yul\":22335:22341   */\n      dup4\n        /* \"#utility.yul\":22330:22333   */\n      dup6\n        /* \"#utility.yul\":22323:22328   */\n      dup5\n        /* \"#utility.yul\":22286:22342   */\n      tag_448\n      jump\t// in\n    tag_702:\n        /* \"#utility.yul\":22367:22396   */\n      tag_703\n        /* \"#utility.yul\":22389:22395   */\n      dup4\n        /* \"#utility.yul\":22367:22396   */\n      tag_397\n      jump\t// in\n    tag_703:\n        /* \"#utility.yul\":22362:22365   */\n      dup5\n        /* \"#utility.yul\":22358:22397   */\n      add\n        /* \"#utility.yul\":22351:22397   */\n      swap1\n      pop\n        /* \"#utility.yul\":22086:22403   */\n      swap4\n      swap3\n      pop\n      pop\n      pop\n      jump\t// out\n        /* \"#utility.yul\":22409:22844   */\n    tag_143:\n        /* \"#utility.yul\":22556:22560   */\n      0x00\n        /* \"#utility.yul\":22594:22596   */\n      0x40\n        /* \"#utility.yul\":22583:22592   */\n      dup3\n        /* \"#utility.yul\":22579:22597   */\n      add\n        /* \"#utility.yul\":22571:22597   */\n      swap1\n      pop\n        /* \"#utility.yul\":22607:22674   */\n      tag_705\n        /* \"#utility.yul\":22671:22672   */\n      0x00\n        /* \"#utility.yul\":22660:22669   */\n      dup4\n        /* \"#utility.yul\":22656:22673   */\n      add\n        /* \"#utility.yul\":22647:22653   */\n      dup7\n        /* \"#utility.yul\":22607:22674   */\n      tag_402\n      jump\t// in\n    tag_705:\n        /* \"#utility.yul\":22721:22730   */\n      dup2\n        /* \"#utility.yul\":22715:22719   */\n      dup2\n        /* \"#utility.yul\":22711:22731   */\n      sub\n        /* \"#utility.yul\":22706:22708   */\n      0x20\n        /* \"#utility.yul\":22695:22704   */\n      dup4\n        /* \"#utility.yul\":22691:22709   */\n      add\n        /* \"#utility.yul\":22684:22732   */\n      mstore\n        /* \"#utility.yul\":22749:22837   */\n      tag_706\n        /* \"#utility.yul\":22832:22836   */\n      dup2\n        /* \"#utility.yul\":22823:22829   */\n      dup5\n        /* \"#utility.yul\":22815:22821   */\n      dup7\n        /* \"#utility.yul\":22749:22837   */\n      tag_449\n      jump\t// in\n    tag_706:\n        /* \"#utility.yul\":22741:22837   */\n      swap1\n      pop\n        /* \"#utility.yul\":22409:22844   */\n      swap5\n      swap4\n      pop\n      pop\n      pop\n      pop\n      jump\t// out\n        /* \"#utility.yul\":22850:23029   */\n    tag_450:\n        /* \"#utility.yul\":22990:23021   */\n      0x43616c6c6572206973206e6f74206465706c6f79207265736572766572000000\n        /* \"#utility.yul\":22986:22987   */\n      0x00\n        /* \"#utility.yul\":22978:22984   */\n      dup3\n        /* \"#utility.yul\":22974:22988   */\n      add\n        /* \"#utility.yul\":22967:23022   */\n      mstore\n        /* \"#utility.yul\":22850:23029   */\n      pop\n      jump\t// out\n        /* \"#utility.yul\":23035:23401   */\n    tag_451:\n        /* \"#utility.yul\":23177:23180   */\n      0x00\n        /* \"#utility.yul\":23198:23265   */\n      tag_709\n        /* \"#utility.yul\":23262:23264   */\n      0x1d\n        /* \"#utility.yul\":23257:23260   */\n      dup4\n        /* \"#utility.yul\":23198:23265   */\n      tag_395\n      jump\t// in\n    tag_709:\n        /* \"#utility.yul\":23191:23265   */\n      swap2\n      pop\n        /* \"#utility.yul\":23274:23367   */\n      tag_710\n        /* \"#utility.yul\":23363:23366   */\n      dup3\n        /* \"#utility.yul\":23274:23367   */\n      tag_450\n      jump\t// in\n    tag_710:\n        /* \"#utility.yul\":23392:23394   */\n      0x20\n        /* \"#utility.yul\":23387:23390   */\n      dup3\n        /* \"#utility.yul\":23383:23395   */\n      add\n        /* \"#utility.yul\":23376:23395   */\n      swap1\n      pop\n        /* \"#utility.yul\":23035:23401   */\n      swap2\n      swap1\n      pop\n      jump\t// out\n        /* \"#utility.yul\":23407:23826   */\n    tag_160:\n        /* \"#utility.yul\":23573:23577   */\n      0x00\n        /* \"#utility.yul\":23611:23613   */\n      0x20\n        /* \"#utility.yul\":23600:23609   */\n      dup3\n        /* \"#utility.yul\":23596:23614   */\n      add\n        /* \"#utility.yul\":23588:23614   */\n      swap1\n      pop\n        /* \"#utility.yul\":23660:23669   */\n      dup2\n        /* \"#utility.yul\":23654:23658   */\n      dup2\n        /* \"#utility.yul\":23650:23670   */\n      sub\n        /* \"#utility.yul\":23646:23647   */\n      0x00\n        /* \"#utility.yul\":23635:23644   */\n      dup4\n        /* \"#utility.yul\":23631:23648   */\n      add\n        /* \"#utility.yul\":23624:23671   */\n      mstore\n        /* \"#utility.yul\":23688:23819   */\n      tag_712\n        /* \"#utility.yul\":23814:23818   */\n      dup2\n        /* \"#utility.yul\":23688:23819   */\n      tag_451\n      jump\t// in\n    tag_712:\n        /* \"#utility.yul\":23680:23819   */\n      swap1\n      pop\n        /* \"#utility.yul\":23407:23826   */\n      swap2\n      swap1\n      pop\n      jump\t// out\n        /* \"#utility.yul\":23832:24476   */\n    tag_177:\n        /* \"#utility.yul\":24029:24033   */\n      0x00\n        /* \"#utility.yul\":24067:24070   */\n      0x80\n        /* \"#utility.yul\":24056:24065   */\n      dup3\n        /* \"#utility.yul\":24052:24071   */\n      add\n        /* \"#utility.yul\":24044:24071   */\n      swap1\n      pop\n        /* \"#utility.yul\":24081:24152   */\n      tag_714\n        /* \"#utility.yul\":24149:24150   */\n      0x00\n        /* \"#utility.yul\":24138:24147   */\n      dup4\n        /* \"#utility.yul\":24134:24151   */\n      add\n        /* \"#utility.yul\":24125:24131   */\n      dup8\n        /* \"#utility.yul\":24081:24152   */\n      tag_400\n      jump\t// in\n    tag_714:\n        /* \"#utility.yul\":24199:24208   */\n      dup2\n        /* \"#utility.yul\":24193:24197   */\n      dup2\n        /* \"#utility.yul\":24189:24209   */\n      sub\n        /* \"#utility.yul\":24184:24186   */\n      0x20\n        /* \"#utility.yul\":24173:24182   */\n      dup4\n        /* \"#utility.yul\":24169:24187   */\n      add\n        /* \"#utility.yul\":24162:24210   */\n      mstore\n        /* \"#utility.yul\":24227:24305   */\n      tag_715\n        /* \"#utility.yul\":24300:24304   */\n      dup2\n        /* \"#utility.yul\":24291:24297   */\n      dup7\n        /* \"#utility.yul\":24227:24305   */\n      tag_398\n      jump\t// in\n    tag_715:\n        /* \"#utility.yul\":24219:24305   */\n      swap1\n      pop\n        /* \"#utility.yul\":24315:24387   */\n      tag_716\n        /* \"#utility.yul\":24383:24385   */\n      0x40\n        /* \"#utility.yul\":24372:24381   */\n      dup4\n        /* \"#utility.yul\":24368:24386   */\n      add\n        /* \"#utility.yul\":24359:24365   */\n      dup6\n        /* \"#utility.yul\":24315:24387   */\n      tag_404\n      jump\t// in\n    tag_716:\n        /* \"#utility.yul\":24397:24469   */\n      tag_717\n        /* \"#utility.yul\":24465:24467   */\n      0x60\n        /* \"#utility.yul\":24454:24463   */\n      dup4\n        /* \"#utility.yul\":24450:24468   */\n      add\n        /* \"#utility.yul\":24441:24447   */\n      dup5\n        /* \"#utility.yul\":24397:24469   */\n      tag_407\n      jump\t// in\n    tag_717:\n        /* \"#utility.yul\":23832:24476   */\n      swap6\n      swap5\n      pop\n      pop\n      pop\n      pop\n      pop\n      jump\t// out\n        /* \"#utility.yul\":24482:24656   */\n    tag_452:\n        /* \"#utility.yul\":24622:24648   */\n      0x416c676f726974686d20646f6573206e6f742065786973740000000000000000\n        /* \"#utility.yul\":24618:24619   */\n      0x00\n        /* \"#utility.yul\":24610:24616   */\n      dup3\n        /* \"#utility.yul\":24606:24620   */\n      add\n        /* \"#utility.yul\":24599:24649   */\n      mstore\n        /* \"#utility.yul\":24482:24656   */\n      pop\n      jump\t// out\n        /* \"#utility.yul\":24662:25028   */\n    tag_453:\n        /* \"#utility.yul\":24804:24807   */\n      0x00\n        /* \"#utility.yul\":24825:24892   */\n      tag_720\n        /* \"#utility.yul\":24889:24891   */\n      0x18\n        /* \"#utility.yul\":24884:24887   */\n      dup4\n        /* \"#utility.yul\":24825:24892   */\n      tag_395\n      jump\t// in\n    tag_720:\n        /* \"#utility.yul\":24818:24892   */\n      swap2\n      pop\n        /* \"#utility.yul\":24901:24994   */\n      tag_721\n        /* \"#utility.yul\":24990:24993   */\n      dup3\n        /* \"#utility.yul\":24901:24994   */\n      tag_452\n      jump\t// in\n    tag_721:\n        /* \"#utility.yul\":25019:25021   */\n      0x20\n        /* \"#utility.yul\":25014:25017   */\n      dup3\n        /* \"#utility.yul\":25010:25022   */\n      add\n        /* \"#utility.yul\":25003:25022   */\n      swap1\n      pop\n        /* \"#utility.yul\":24662:25028   */\n      swap2\n      swap1\n      pop\n      jump\t// out\n        /* \"#utility.yul\":25034:25453   */\n    tag_187:\n        /* \"#utility.yul\":25200:25204   */\n      0x00\n        /* \"#utility.yul\":25238:25240   */\n      0x20\n        /* \"#utility.yul\":25227:25236   */\n      dup3\n        /* \"#utility.yul\":25223:25241   */\n      add\n        /* \"#utility.yul\":25215:25241   */\n      swap1\n      pop\n        /* \"#utility.yul\":25287:25296   */\n      dup2\n        /* \"#utility.yul\":25281:25285   */\n      dup2\n        /* \"#utility.yul\":25277:25297   */\n      sub\n        /* \"#utility.yul\":25273:25274   */\n      0x00\n        /* \"#utility.yul\":25262:25271   */\n      dup4\n        /* \"#utility.yul\":25258:25275   */\n      add\n        /* \"#utility.yul\":25251:25298   */\n      mstore\n        /* \"#utility.yul\":25315:25446   */\n      tag_723\n        /* \"#utility.yul\":25441:25445   */\n      dup2\n        /* \"#utility.yul\":25315:25446   */\n      tag_453\n      jump\t// in\n    tag_723:\n        /* \"#utility.yul\":25307:25446   */\n      swap1\n      pop\n        /* \"#utility.yul\":25034:25453   */\n      swap2\n      swap1\n      pop\n      jump\t// out\n        /* \"#utility.yul\":25459:25673   */\n    tag_190:\n        /* \"#utility.yul\":25548:25552   */\n      0x00\n        /* \"#utility.yul\":25586:25588   */\n      0x20\n        /* \"#utility.yul\":25575:25584   */\n      dup3\n        /* \"#utility.yul\":25571:25589   */\n      add\n        /* \"#utility.yul\":25563:25589   */\n      swap1\n      pop\n        /* \"#utility.yul\":25599:25666   */\n      tag_725\n        /* \"#utility.yul\":25663:25664   */\n      0x00\n        /* \"#utility.yul\":25652:25661   */\n      dup4\n        /* \"#utility.yul\":25648:25665   */\n      add\n        /* \"#utility.yul\":25639:25645   */\n      dup5\n        /* \"#utility.yul\":25599:25666   */\n      tag_402\n      jump\t// in\n    tag_725:\n        /* \"#utility.yul\":25459:25673   */\n      swap3\n      swap2\n      pop\n      pop\n      jump\t// out\n        /* \"#utility.yul\":25679:25912   */\n    tag_214:\n        /* \"#utility.yul\":25718:25721   */\n      0x00\n        /* \"#utility.yul\":25741:25765   */\n      tag_727\n        /* \"#utility.yul\":25759:25764   */\n      dup3\n        /* \"#utility.yul\":25741:25765   */\n      tag_388\n      jump\t// in\n    tag_727:\n        /* \"#utility.yul\":25732:25765   */\n      swap2\n      pop\n        /* \"#utility.yul\":25787:25853   */\n      0xffffffffffffffffffffffffffffffffffffffffffffffffffffffffffffffff\n        /* \"#utility.yul\":25780:25785   */\n      dup3\n        /* \"#utility.yul\":25777:25854   */\n      sub\n        /* \"#utility.yul\":25774:25877   */\n      tag_728\n      jumpi\n        /* \"#utility.yul\":25857:25875   */\n      tag_729\n      tag_428\n      jump\t// in\n    tag_729:\n        /* \"#utility.yul\":25774:25877   */\n    tag_728:\n        /* \"#utility.yul\":25904:25905   */\n      0x01\n        /* \"#utility.yul\":25897:25902   */\n      dup3\n        /* \"#utility.yul\":25893:25906   */\n      add\n        /* \"#utility.yul\":25886:25906   */\n      swap1\n      pop\n        /* \"#utility.yul\":25679:25912   */\n      swap2\n      swap1\n      pop\n      jump\t// out\n        /* \"#utility.yul\":25918:26015   */\n    tag_454:\n        /* \"#utility.yul\":25977:25983   */\n      0x00\n        /* \"#utility.yul\":26005:26008   */\n      dup3\n        /* \"#utility.yul\":25995:26008   */\n      swap1\n      pop\n        /* \"#utility.yul\":25918:26015   */\n      swap3\n      swap2\n      pop\n      pop\n      jump\t// out\n        /* \"#utility.yul\":26021:27424   */\n    tag_241:\n        /* \"#utility.yul\":26145:26189   */\n      tag_732\n        /* \"#utility.yul\":26185:26188   */\n      dup4\n        /* \"#utility.yul\":26180:26183   */\n      dup4\n        /* \"#utility.yul\":26145:26189   */\n      tag_454\n      jump\t// in\n    tag_732:\n        /* \"#utility.yul\":26254:26272   */\n      0xffffffffffffffff\n        /* \"#utility.yul\":26246:26252   */\n      dup2\n        /* \"#utility.yul\":26243:26273   */\n      gt\n        /* \"#utility.yul\":26240:26296   */\n      iszero\n      tag_733\n      jumpi\n        /* \"#utility.yul\":26276:26294   */\n      tag_734\n      tag_432\n      jump\t// in\n    tag_734:\n        /* \"#utility.yul\":26240:26296   */\n    tag_733:\n        /* \"#utility.yul\":26320:26358   */\n      tag_735\n        /* \"#utility.yul\":26352:26356   */\n      dup3\n        /* \"#utility.yul\":26346:26357   */\n      sload\n        /* \"#utility.yul\":26320:26358   */\n      tag_119\n      jump\t// in\n    tag_735:\n        /* \"#utility.yul\":26405:26472   */\n      tag_736\n        /* \"#utility.yul\":26465:26471   */\n      dup3\n        /* \"#utility.yul\":26457:26463   */\n      dup3\n        /* \"#utility.yul\":26451:26455   */\n      dup6\n        /* \"#utility.yul\":26405:26472   */\n      tag_444\n      jump\t// in\n    tag_736:\n        /* \"#utility.yul\":26499:26500   */\n      0x00\n        /* \"#utility.yul\":26528:26530   */\n      0x1f\n        /* \"#utility.yul\":26520:26526   */\n      dup4\n        /* \"#utility.yul\":26517:26531   */\n      gt\n        /* \"#utility.yul\":26545:26546   */\n      0x01\n        /* \"#utility.yul\":26540:27172   */\n      dup2\n      eq\n      tag_738\n      jumpi\n        /* \"#utility.yul\":27216:27217   */\n      0x00\n        /* \"#utility.yul\":27233:27239   */\n      dup5\n        /* \"#utility.yul\":27230:27314   */\n      iszero\n      tag_739\n      jumpi\n        /* \"#utility.yul\":27289:27298   */\n      dup3\n        /* \"#utility.yul\":27284:27287   */\n      dup8\n        /* \"#utility.yul\":27280:27299   */\n      add\n        /* \"#utility.yul\":27267:27300   */\n      calldataload\n        /* \"#utility.yul\":27258:27300   */\n      swap1\n      pop\n        /* \"#utility.yul\":27230:27314   */\n    tag_739:\n        /* \"#utility.yul\":27340:27407   */\n      tag_740\n        /* \"#utility.yul\":27400:27406   */\n      dup6\n        /* \"#utility.yul\":27393:27398   */\n      dup3\n        /* \"#utility.yul\":27340:27407   */\n      tag_447\n      jump\t// in\n    tag_740:\n        /* \"#utility.yul\":27334:27338   */\n      dup7\n        /* \"#utility.yul\":27327:27408   */\n      sstore\n        /* \"#utility.yul\":27189:27418   */\n      pop\n        /* \"#utility.yul\":26510:27418   */\n      jump(tag_737)\n        /* \"#utility.yul\":26540:27172   */\n    tag_738:\n        /* \"#utility.yul\":26592:26596   */\n      0x1f\n        /* \"#utility.yul\":26588:26597   */\n      not\n        /* \"#utility.yul\":26580:26586   */\n      dup5\n        /* \"#utility.yul\":26576:26598   */\n      and\n        /* \"#utility.yul\":26626:26663   */\n      tag_741\n        /* \"#utility.yul\":26658:26662   */\n      dup7\n        /* \"#utility.yul\":26626:26663   */\n      tag_433\n      jump\t// in\n    tag_741:\n        /* \"#utility.yul\":26685:26686   */\n      0x00\n        /* \"#utility.yul\":26699:26914   */\n    tag_742:\n        /* \"#utility.yul\":26713:26720   */\n      dup3\n        /* \"#utility.yul\":26710:26711   */\n      dup2\n        /* \"#utility.yul\":26707:26721   */\n      lt\n        /* \"#utility.yul\":26699:26914   */\n      iszero\n      tag_744\n      jumpi\n        /* \"#utility.yul\":26799:26808   */\n      dup5\n        /* \"#utility.yul\":26794:26797   */\n      dup10\n        /* \"#utility.yul\":26790:26809   */\n      add\n        /* \"#utility.yul\":26777:26810   */\n      calldataload\n        /* \"#utility.yul\":26769:26775   */\n      dup3\n        /* \"#utility.yul\":26762:26811   */\n      sstore\n        /* \"#utility.yul\":26850:26851   */\n      0x01\n        /* \"#utility.yul\":26842:26848   */\n      dup3\n        /* \"#utility.yul\":26838:26852   */\n      add\n        /* \"#utility.yul\":26828:26852   */\n      swap2\n      pop\n        /* \"#utility.yul\":26897:26899   */\n      0x20\n        /* \"#utility.yul\":26886:26895   */\n      dup6\n        /* \"#utility.yul\":26882:26900   */\n      add\n        /* \"#utility.yul\":26869:26900   */\n      swap5\n      pop\n        /* \"#utility.yul\":26736:26740   */\n      0x20\n        /* \"#utility.yul\":26733:26734   */\n      dup2\n        /* \"#utility.yul\":26729:26741   */\n      add\n        /* \"#utility.yul\":26724:26741   */\n      swap1\n      pop\n        /* \"#utility.yul\":26699:26914   */\n      jump(tag_742)\n    tag_744:\n        /* \"#utility.yul\":26942:26948   */\n      dup7\n        /* \"#utility.yul\":26933:26940   */\n      dup4\n        /* \"#utility.yul\":26930:26949   */\n      lt\n        /* \"#utility.yul\":26927:27113   */\n      iszero\n      tag_745\n      jumpi\n        /* \"#utility.yul\":27007:27016   */\n      dup5\n        /* \"#utility.yul\":27002:27005   */\n      dup10\n        /* \"#utility.yul\":26998:27017   */\n      add\n        /* \"#utility.yul\":26985:27018   */\n      calldataload\n        /* \"#utility.yul\":27050:27098   */\n      tag_746\n        /* \"#utility.yul\":27092:27096   */\n      0x1f\n        /* \"#utility.yul\":27084:27090   */\n      dup10\n        /* \"#utility.yul\":27080:27097   */\n      and\n        /* \"#utility.yul\":27069:27078   */\n      dup3\n        /* \"#utility.yul\":27050:27098   */\n      tag_446\n      jump\t// in\n    tag_746:\n        /* \"#utility.yul\":27042:27048   */\n      dup4\n        /* \"#utility.yul\":27035:27099   */\n      sstore\n        /* \"#utility.yul\":26950:27113   */\n      pop\n        /* \"#utility.yul\":26927:27113   */\n    tag_745:\n        /* \"#utility.yul\":27159:27160   */\n      0x01\n        /* \"#utility.yul\":27155:27156   */\n      0x02\n        /* \"#utility.yul\":27147:27153   */\n      dup9\n        /* \"#utility.yul\":27143:27157   */\n      mul\n        /* \"#utility.yul\":27139:27161   */\n      add\n        /* \"#utility.yul\":27133:27137   */\n      dup9\n        /* \"#utility.yul\":27126:27162   */\n      sstore\n        /* \"#utility.yul\":26547:27172   */\n      pop\n      pop\n      pop\n        /* \"#utility.yul\":26510:27418   */\n    tag_737:\n      pop\n        /* \"#utility.yul\":26120:27424   */\n      pop\n      pop\n      pop\n        /* \"#utility.yul\":26021:27424   */\n      pop\n      pop\n      pop\n      jump\t// out\n        /* \"#utility.yul\":27430:28288   */\n    tag_249:\n        /* \"#utility.yul\":27681:27685   */\n      0x00\n        /* \"#utility.yul\":27719:27722   */\n      0xa0\n        /* \"#utility.yul\":27708:27717   */\n      dup3\n        /* \"#utility.yul\":27704:27723   */\n      add\n        /* \"#utility.yul\":27696:27723   */\n      swap1\n      pop\n        /* \"#utility.yul\":27733:27804   */\n      tag_748\n        /* \"#utility.yul\":27801:27802   */\n      0x00\n        /* \"#utility.yul\":27790:27799   */\n      dup4\n        /* \"#utility.yul\":27786:27803   */\n      add\n        /* \"#utility.yul\":27777:27783   */\n      dup10\n        /* \"#utility.yul\":27733:27804   */\n      tag_400\n      jump\t// in\n    tag_748:\n        /* \"#utility.yul\":27814:27882   */\n      tag_749\n        /* \"#utility.yul\":27878:27880   */\n      0x20\n        /* \"#utility.yul\":27867:27876   */\n      dup4\n        /* \"#utility.yul\":27863:27881   */\n      add\n        /* \"#utility.yul\":27854:27860   */\n      dup9\n        /* \"#utility.yul\":27814:27882   */\n      tag_402\n      jump\t// in\n    tag_749:\n        /* \"#utility.yul\":27929:27938   */\n      dup2\n        /* \"#utility.yul\":27923:27927   */\n      dup2\n        /* \"#utility.yul\":27919:27939   */\n      sub\n        /* \"#utility.yul\":27914:27916   */\n      0x40\n        /* \"#utility.yul\":27903:27912   */\n      dup4\n        /* \"#utility.yul\":27899:27917   */\n      add\n        /* \"#utility.yul\":27892:27940   */\n      mstore\n        /* \"#utility.yul\":27957:28035   */\n      tag_750\n        /* \"#utility.yul\":28030:28034   */\n      dup2\n        /* \"#utility.yul\":28021:28027   */\n      dup8\n        /* \"#utility.yul\":27957:28035   */\n      tag_398\n      jump\t// in\n    tag_750:\n        /* \"#utility.yul\":27949:28035   */\n      swap1\n      pop\n        /* \"#utility.yul\":28045:28117   */\n      tag_751\n        /* \"#utility.yul\":28113:28115   */\n      0x60\n        /* \"#utility.yul\":28102:28111   */\n      dup4\n        /* \"#utility.yul\":28098:28116   */\n      add\n        /* \"#utility.yul\":28089:28095   */\n      dup7\n        /* \"#utility.yul\":28045:28117   */\n      tag_404\n      jump\t// in\n    tag_751:\n        /* \"#utility.yul\":28165:28174   */\n      dup2\n        /* \"#utility.yul\":28159:28163   */\n      dup2\n        /* \"#utility.yul\":28155:28175   */\n      sub\n        /* \"#utility.yul\":28149:28152   */\n      0x80\n        /* \"#utility.yul\":28138:28147   */\n      dup4\n        /* \"#utility.yul\":28134:28153   */\n      add\n        /* \"#utility.yul\":28127:28176   */\n      mstore\n        /* \"#utility.yul\":28193:28281   */\n      tag_752\n        /* \"#utility.yul\":28276:28280   */\n      dup2\n        /* \"#utility.yul\":28267:28273   */\n      dup5\n        /* \"#utility.yul\":28259:28265   */\n      dup7\n        /* \"#utility.yul\":28193:28281   */\n      tag_449\n      jump\t// in\n    tag_752:\n        /* \"#utility.yul\":28185:28281   */\n      swap1\n      pop\n        /* \"#utility.yul\":27430:28288   */\n      swap8\n      swap7\n      pop\n      pop\n      pop\n      pop\n      pop\n      pop\n      pop\n      jump\t// out\n        /* \"#utility.yul\":28294:28463   */\n    tag_455:\n        /* \"#utility.yul\":28434:28455   */\n      0x4e6f207368617264207265676973746572656400000000000000000000000000\n        /* \"#utility.yul\":28430:28431   */\n      0x00\n        /* \"#utility.yul\":28422:28428   */\n      dup3\n        /* \"#utility.yul\":28418:28432   */\n      add\n        /* \"#utility.yul\":28411:28456   */\n      mstore\n        /* \"#utility.yul\":28294:28463   */\n      pop\n      jump\t// out\n        /* \"#utility.yul\":28469:28835   */\n    tag_456:\n        /* \"#utility.yul\":28611:28614   */\n      0x00\n        /* \"#utility.yul\":28632:28699   */\n      tag_755\n        /* \"#utility.yul\":28696:28698   */\n      0x13\n        /* \"#utility.yul\":28691:28694   */\n      dup4\n        /* \"#utility.yul\":28632:28699   */\n      tag_395\n      jump\t// in\n    tag_755:\n        /* \"#utility.yul\":28625:28699   */\n      swap2\n      pop\n        /* \"#utility.yul\":28708:28801   */\n      tag_756\n        /* \"#utility.yul\":28797:28800   */\n      dup3\n        /* \"#utility.yul\":28708:28801   */\n      tag_455\n      jump\t// in\n    tag_756:\n        /* \"#utility.yul\":28826:28828   */\n      0x20\n        /* \"#utility.yul\":28821:28824   */\n      dup3\n        /* \"#utility.yul\":28817:28829   */\n      add\n        /* \"#utility.yul\":28810:28829   */\n      swap1\n      pop\n        /* \"#utility.yul\":28469:28835   */\n      swap2\n      swap1\n      pop\n      jump\t// out\n        /* \"#utility.yul\":28841:29260   */\n    tag_253:\n        /* \"#utility.yul\":29007:29011   */\n      0x00\n        /* \"#utility.yul\":29045:29047   */\n      0x20\n        /* \"#utility.yul\":29034:29043   */\n      dup3\n        /* \"#utility.yul\":29030:29048   */\n      add\n        /* \"#utility.yul\":29022:29048   */\n      swap1\n      pop\n        /* \"#utility.yul\":29094:29103   */\n      dup2\n        /* \"#utility.yul\":29088:29092   */\n      dup2\n        /* \"#utility.yul\":29084:29104   */\n      sub\n        /* \"#utility.yul\":29080:29081   */\n      0x00\n        /* \"#utility.yul\":29069:29078   */\n      dup4\n        /* \"#utility.yul\":29065:29082   */\n      add\n        /* \"#utility.yul\":29058:29105   */\n      mstore\n        /* \"#utility.yul\":29122:29253   */\n      tag_758\n        /* \"#utility.yul\":29248:29252   */\n      dup2\n        /* \"#utility.yul\":29122:29253   */\n      tag_456\n      jump\t// in\n    tag_758:\n        /* \"#utility.yul\":29114:29253   */\n      swap1\n      pop\n        /* \"#utility.yul\":28841:29260   */\n      swap2\n      swap1\n      pop\n      jump\t// out\n        /* \"#utility.yul\":29266:29791   */\n    tag_280:\n        /* \"#utility.yul\":29431:29435   */\n      0x00\n        /* \"#utility.yul\":29469:29471   */\n      0x60\n        /* \"#utility.yul\":29458:29467   */\n      dup3\n        /* \"#utility.yul\":29454:29472   */\n      add\n        /* \"#utility.yul\":29446:29472   */\n      swap1\n      pop\n        /* \"#utility.yul\":29482:29553   */\n      tag_760\n        /* \"#utility.yul\":29550:29551   */\n      0x00\n        /* \"#utility.yul\":29539:29548   */\n      dup4\n        /* \"#utility.yul\":29535:29552   */\n      add\n        /* \"#utility.yul\":29526:29532   */\n      dup7\n        /* \"#utility.yul\":29482:29553   */\n      tag_400\n      jump\t// in\n    tag_760:\n        /* \"#utility.yul\":29563:29631   */\n      tag_761\n        /* \"#utility.yul\":29627:29629   */\n      0x20\n        /* \"#utility.yul\":29616:29625   */\n      dup4\n        /* \"#utility.yul\":29612:29630   */\n      add\n        /* \"#utility.yul\":29603:29609   */\n      dup6\n        /* \"#utility.yul\":29563:29631   */\n      tag_402\n      jump\t// in\n    tag_761:\n        /* \"#utility.yul\":29678:29687   */\n      dup2\n        /* \"#utility.yul\":29672:29676   */\n      dup2\n        /* \"#utility.yul\":29668:29688   */\n      sub\n        /* \"#utility.yul\":29663:29665   */\n      0x40\n        /* \"#utility.yul\":29652:29661   */\n      dup4\n        /* \"#utility.yul\":29648:29666   */\n      add\n        /* \"#utility.yul\":29641:29689   */\n      mstore\n        /* \"#utility.yul\":29706:29784   */\n      tag_762\n        /* \"#utility.yul\":29779:29783   */\n      dup2\n        /* \"#utility.yul\":29770:29776   */\n      dup5\n        /* \"#utility.yul\":29706:29784   */\n      tag_398\n      jump\t// in\n    tag_762:\n        /* \"#utility.yul\":29698:29784   */\n      swap1\n      pop\n        /* \"#utility.yul\":29266:29791   */\n      swap5\n      swap4\n      pop\n      pop\n      pop\n      pop\n      jump\t// out\n        /* \"#utility.yul\":29797:29976   */\n    tag_457:\n        /* \"#utility.yul\":29937:29968   */\n      0x4e6f20736861726420617661696c61626c6520666f72206465706c6f79000000\n        /* \"#utility.yul\":29933:29934   */\n      0x00\n        /* \"#utility.yul\":29925:29931   */\n      dup3\n        /* \"#utility.yul\":29921:29935   */\n      add\n        /* \"#utility.yul\":29914:29969   */\n      mstore\n        /* \"#utility.yul\":29797:29976   */\n      pop\n      jump\t// out\n        /* \"#utility.yul\":29982:30348   */\n    tag_458:\n        /* \"#utility.yul\":30124:30127   */\n      0x00\n        /* \"#utility.yul\":30145:30212   */\n      tag_765\n        /* \"#utility.yul\":30209:30211   */\n      0x1d\n        /* \"#utility.yul\":30204:30207   */\n      dup4\n        /* \"#utility.yul\":30145:30212   */\n      tag_395\n      jump\t// in\n    tag_765:\n        /* \"#utility.yul\":30138:30212   */\n      swap2\n      pop\n        /* \"#utility.yul\":30221:30314   */\n      tag_766\n        /* \"#utility.yul\":30310:30313   */\n      dup3\n        /* \"#utility.yul\":30221:30314   */\n      tag_457\n      jump\t// in\n    tag_766:\n        /* \"#utility.yul\":30339:30341   */\n      0x20\n        /* \"#utility.yul\":30334:30337   */\n      dup3\n        /* \"#utility.yul\":30330:30342   */\n      add\n        /* \"#utility.yul\":30323:30342   */\n      swap1\n      pop\n        /* \"#utility.yul\":29982:30348   */\n      swap2\n      swap1\n      pop\n      jump\t// out\n        /* \"#utility.yul\":30354:30773   */\n    tag_283:\n        /* \"#utility.yul\":30520:30524   */\n      0x00\n        /* \"#utility.yul\":30558:30560   */\n      0x20\n        /* \"#utility.yul\":30547:30556   */\n      dup3\n        /* \"#utility.yul\":30543:30561   */\n      add\n        /* \"#utility.yul\":30535:30561   */\n      swap1\n      pop\n        /* \"#utility.yul\":30607:30616   */\n      dup2\n        /* \"#utility.yul\":30601:30605   */\n      dup2\n        /* \"#utility.yul\":30597:30617   */\n      sub\n        /* \"#utility.yul\":30593:30594   */\n      0x00\n        /* \"#utility.yul\":30582:30591   */\n      dup4\n        /* \"#utility.yul\":30578:30595   */\n      add\n        /* \"#utility.yul\":30571:30618   */\n      mstore\n        /* \"#utility.yul\":30635:30766   */\n      tag_768\n        /* \"#utility.yul\":30761:30765   */\n      dup2\n        /* \"#utility.yul\":30635:30766   */\n      tag_458\n      jump\t// in\n    tag_768:\n        /* \"#utility.yul\":30627:30766   */\n      swap1\n      pop\n        /* \"#utility.yul\":30354:30773   */\n      swap2\n      swap1\n      pop\n      jump\t// out\n        /* \"#utility.yul\":30779:31004   */\n    tag_459:\n        /* \"#utility.yul\":30919:30953   */\n      0x4f776e61626c653a206e6577206f776e657220697320746865207a65726f2061\n        /* \"#utility.yul\":30915:30916   */\n      0x00\n        /* \"#utility.yul\":30907:30913   */\n      dup3\n        /* \"#utility.yul\":30903:30917   */\n      add\n        /* \"#utility.yul\":30896:30954   */\n      mstore\n        /* \"#utility.yul\":30988:30996   */\n      0x6464726573730000000000000000000000000000000000000000000000000000\n        /* \"#utility.yul\":30983:30985   */\n      0x20\n        /* \"#utility.yul\":30975:30981   */\n      dup3\n        /* \"#utility.yul\":30971:30986   */\n      add\n        /* \"#utility.yul\":30964:30997   */\n      mstore\n        /* \"#utility.yul\":30779:31004   */\n      pop\n      jump\t// out\n        /* \"#utility.yul\":31010:31376   */\n    tag_460:\n        /* \"#utility.yul\":31152:31155   */\n      0x00\n        /* \"#utility.yul\":31173:31240   */\n      tag_771\n        /* \"#utility.yul\":31237:31239   */\n      0x26\n        /* \"#utility.yul\":31232:31235   */\n      dup4\n        /* \"#utility.yul\":31173:31240   */\n      tag_395\n      jump\t// in\n    tag_771:\n        /* \"#utility.yul\":31166:31240   */\n      swap2\n      pop\n        /* \"#utility.yul\":31249:31342   */\n      tag_772\n        /* \"#utility.yul\":31338:31341   */\n      dup3\n        /* \"#utility.yul\":31249:31342   */\n      tag_459\n      jump\t// in\n    tag_772:\n        /* \"#utility.yul\":31367:31369   */\n      0x40\n        /* \"#utility.yul\":31362:31365   */\n      dup3\n        /* \"#utility.yul\":31358:31370   */\n      add\n        /* \"#utility.yul\":31351:31370   */\n      swap1\n      pop\n        /* \"#utility.yul\":31010:31376   */\n      swap2\n      swap1\n      pop\n      jump\t// out\n        /* \"#utility.yul\":31382:31801   */\n    tag_289:\n        /* \"#utility.yul\":31548:31552   */\n      0x00\n        /* \"#utility.yul\":31586:31588   */\n      0x20\n        /* \"#utility.yul\":31575:31584   */\n      dup3\n        /* \"#utility.yul\":31571:31589   */\n      add\n        /* \"#utility.yul\":31563:31589   */\n      swap1\n      pop\n        /* \"#utility.yul\":31635:31644   */\n      dup2\n        /* \"#utility.yul\":31629:31633   */\n      dup2\n        /* \"#utility.yul\":31625:31645   */\n      sub\n        /* \"#utility.yul\":31621:31622   */\n      0x00\n        /* \"#utility.yul\":31610:31619   */\n      dup4\n        /* \"#utility.yul\":31606:31623   */\n      add\n        /* \"#utility.yul\":31599:31646   */\n      mstore\n        /* \"#utility.yul\":31663:31794   */\n      tag_774\n        /* \"#utility.yul\":31789:31793   */\n      dup2\n        /* \"#utility.yul\":31663:31794   */\n      tag_460\n      jump\t// in\n    tag_774:\n        /* \"#utility.yul\":31655:31794   */\n      swap1\n      pop\n        /* \"#utility.yul\":31382:31801   */\n      swap2\n      swap1\n      pop\n      jump\t// out\n        /* \"#utility.yul\":31807:31977   */\n    tag_461:\n        /* \"#utility.yul\":31947:31969   */\n      0x536861726420646f6573206e6f74206578697374000000000000000000000000\n        /* \"#utility.yul\":31943:31944   */\n      0x00\n        /* \"#utility.yul\":31935:31941   */\n      dup3\n        /* \"#utility.yul\":31931:31945   */\n      add\n        /* \"#utility.yul\":31924:31970   */\n      mstore\n        /* \"#utility.yul\":31807:31977   */\n      pop\n      jump\t// out\n        /* \"#utility.yul\":31983:32349   */\n    tag_462:\n        /* \"#utility.yul\":32125:32128   */\n      0x00\n        /* \"#utility.yul\":32146:32213   */\n      tag_777\n        /* \"#utility.yul\":32210:32212   */\n      0x14\n        /* \"#utility.yul\":32205:32208   */\n      dup4\n        /* \"#utility.yul\":32146:32213   */\n      tag_395\n      jump\t// in\n    tag_777:\n        /* \"#utility.yul\":32139:32213   */\n      swap2\n      pop\n        /* \"#utility.yul\":32222:32315   */\n      tag_778\n        /* \"#utility.yul\":32311:32314   */\n      dup3\n        /* \"#utility.yul\":32222:32315   */\n      tag_461\n      jump\t// in\n    tag_778:\n        /* \"#utility.yul\":32340:32342   */\n      0x20\n        /* \"#utility.yul\":32335:32338   */\n      dup3\n        /* \"#utility.yul\":32331:32343   */\n      add\n        /* \"#utility.yul\":32324:32343   */\n      swap1\n      pop\n        /* \"#utility.yul\":31983:32349   */\n      swap2\n      swap1\n      pop\n      jump\t// out\n        /* \"#utility.yul\":32355:32774   */\n    tag_296:\n        /* \"#utility.yul\":32521:32525   */\n      0x00\n        /* \"#utility.yul\":32559:32561   */\n      0x20\n        /* \"#utility.yul\":32548:32557   */\n      dup3\n        /* \"#utility.yul\":32544:32562   */\n      add\n        /* \"#utility.yul\":32536:32562   */\n      swap1\n      pop\n        /* \"#utility.yul\":32608:32617   */\n      dup2\n        /* \"#utility.yul\":32602:32606   */\n      dup2\n        /* \"#utility.yul\":32598:32618   */\n      sub\n        /* \"#utility.yul\":32594:32595   */\n      0x00\n        /* \"#utility.yul\":32583:32592   */\n      dup4\n        /* \"#utility.yul\":32579:32596   */\n      add\n        /* \"#utility.yul\":32572:32619   */\n      mstore\n        /* \"#utility.yul\":32636:32767   */\n      tag_780\n        /* \"#utility.yul\":32762:32766   */\n      dup2\n        /* \"#utility.yul\":32636:32767   */\n      tag_462\n      jump\t// in\n    tag_780:\n        /* \"#utility.yul\":32628:32767   */\n      swap1\n      pop\n        /* \"#utility.yul\":32355:32774   */\n      swap2\n      swap1\n      pop\n      jump\t// out\n        /* \"#utility.yul\":32780:32971   */\n    tag_303:\n        /* \"#utility.yul\":32820:32823   */\n      0x00\n        /* \"#utility.yul\":32839:32859   */\n      tag_782\n        /* \"#utility.yul\":32857:32858   */\n      dup3\n        /* \"#utility.yul\":32839:32859   */\n      tag_388\n      jump\t// in\n    tag_782:\n        /* \"#utility.yul\":32834:32859   */\n      swap2\n      pop\n        /* \"#utility.yul\":32873:32893   */\n      tag_783\n        /* \"#utility.yul\":32891:32892   */\n      dup4\n        /* \"#utility.yul\":32873:32893   */\n      tag_388\n      jump\t// in\n    tag_783:\n        /* \"#utility.yul\":32868:32893   */\n      swap3\n      pop\n        /* \"#utility.yul\":32916:32917   */\n      dup3\n        /* \"#utility.yul\":32913:32914   */\n      dup3\n        /* \"#utility.yul\":32909:32918   */\n      add\n        /* \"#utility.yul\":32902:32918   */\n      swap1\n      pop\n        /* \"#utility.yul\":32937:32940   */\n      dup1\n        /* \"#utility.yul\":32934:32935   */\n      dup3\n        /* \"#utility.yul\":32931:32941   */\n      gt\n        /* \"#utility.yul\":32928:32964   */\n      iszero\n      tag_784\n      jumpi\n        /* \"#utility.yul\":32944:32962   */\n      tag_785\n      tag_428\n      jump\t// in\n    tag_785:\n        /* \"#utility.yul\":32928:32964   */\n    tag_784:\n        /* \"#utility.yul\":32780:32971   */\n      swap3\n      swap2\n      pop\n      pop\n      jump\t// out\n        /* \"#utility.yul\":32977:33157   */\n    tag_463:\n        /* \"#utility.yul\":33025:33102   */\n      0x4e487b7100000000000000000000000000000000000000000000000000000000\n        /* \"#utility.yul\":33022:33023   */\n      0x00\n        /* \"#utility.yul\":33015:33103   */\n      mstore\n        /* \"#utility.yul\":33122:33126   */\n      0x12\n        /* \"#utility.yul\":33119:33120   */\n      0x04\n        /* \"#utility.yul\":33112:33127   */\n      mstore\n        /* \"#utility.yul\":33146:33150   */\n      0x24\n        /* \"#utility.yul\":33143:33144   */\n      0x00\n        /* \"#utility.yul\":33136:33151   */\n      revert\n        /* \"#utility.yul\":33163:33339   */\n    tag_306:\n        /* \"#utility.yul\":33195:33196   */\n      0x00\n        /* \"#utility.yul\":33212:33232   */\n      tag_788\n        /* \"#utility.yul\":33230:33231   */\n      dup3\n        /* \"#utility.yul\":33212:33232   */\n      tag_388\n      jump\t// in\n    tag_788:\n        /* \"#utility.yul\":33207:33232   */\n      swap2\n      pop\n        /* \"#utility.yul\":33246:33266   */\n      tag_789\n        /* \"#utility.yul\":33264:33265   */\n      dup4\n        /* \"#utility.yul\":33246:33266   */\n      tag_388\n      jump\t// in\n    tag_789:\n        /* \"#utility.yul\":33241:33266   */\n      swap3\n      pop\n        /* \"#utility.yul\":33285:33286   */\n      dup3\n        /* \"#utility.yul\":33275:33310   */\n      tag_790\n      jumpi\n        /* \"#utility.yul\":33290:33308   */\n      tag_791\n      tag_463\n      jump\t// in\n    tag_791:\n        /* \"#utility.yul\":33275:33310   */\n    tag_790:\n        /* \"#utility.yul\":33331:33332   */\n      dup3\n        /* \"#utility.yul\":33328:33329   */\n      dup3\n        /* \"#utility.yul\":33324:33333   */\n      mod\n        /* \"#utility.yul\":33319:33333   */\n      swap1\n      pop\n        /* \"#utility.yul\":33163:33339   */\n      swap3\n      swap2\n      pop\n      pop\n      jump\t// out\n        /* \"#utility.yul\":33345:33533   */\n    tag_314:\n        /* \"#utility.yul\":33383:33386   */\n      0x00\n        /* \"#utility.yul\":33402:33420   */\n      tag_793\n        /* \"#utility.yul\":33418:33419   */\n      dup3\n        /* \"#utility.yul\":33402:33420   */\n      tag_401\n      jump\t// in\n    tag_793:\n        /* \"#utility.yul\":33397:33420   */\n      swap2\n      pop\n        /* \"#utility.yul\":33434:33452   */\n      tag_794\n        /* \"#utility.yul\":33450:33451   */\n      dup4\n        /* \"#utility.yul\":33434:33452   */\n      tag_401\n      jump\t// in\n    tag_794:\n        /* \"#utility.yul\":33429:33452   */\n      swap3\n      pop\n        /* \"#utility.yul\":33475:33476   */\n      dup3\n        /* \"#utility.yul\":33472:33473   */\n      dup3\n        /* \"#utility.yul\":33468:33477   */\n      add\n        /* \"#utility.yul\":33461:33477   */\n      swap1\n      pop\n        /* \"#utility.yul\":33498:33502   */\n      0xff\n        /* \"#utility.yul\":33493:33496   */\n      dup2\n        /* \"#utility.yul\":33490:33503   */\n      gt\n        /* \"#utility.yul\":33487:33526   */\n      iszero\n      tag_795\n      jumpi\n        /* \"#utility.yul\":33506:33524   */\n      tag_796\n      tag_428\n      jump\t// in\n    tag_796:\n        /* \"#utility.yul\":33487:33526   */\n    tag_795:\n        /* \"#utility.yul\":33345:33533   */\n      swap3\n      swap2\n      pop\n      pop\n      jump\t// out\n        /* \"#utility.yul\":33539:33706   */\n    tag_332:\n        /* \"#utility.yul\":33576:33579   */\n      0x00\n        /* \"#utility.yul\":33599:33621   */\n      tag_798\n        /* \"#utility.yul\":33615:33620   */\n      dup3\n        /* \"#utility.yul\":33599:33621   */\n      tag_401\n      jump\t// in\n    tag_798:\n        /* \"#utility.yul\":33590:33621   */\n      swap2\n      pop\n        /* \"#utility.yul\":33643:33647   */\n      0xff\n        /* \"#utility.yul\":33636:33641   */\n      dup3\n        /* \"#utility.yul\":33633:33648   */\n      sub\n        /* \"#utility.yul\":33630:33671   */\n      tag_799\n      jumpi\n        /* \"#utility.yul\":33651:33669   */\n      tag_800\n      tag_428\n      jump\t// in\n    tag_800:\n        /* \"#utility.yul\":33630:33671   */\n    tag_799:\n        /* \"#utility.yul\":33698:33699   */\n      0x01\n        /* \"#utility.yul\":33691:33696   */\n      dup3\n        /* \"#utility.yul\":33687:33700   */\n      add\n        /* \"#utility.yul\":33680:33700   */\n      swap1\n      pop\n        /* \"#utility.yul\":33539:33706   */\n      swap2\n      swap1\n      pop\n      jump\t// out\n        /* \"#utility.yul\":33712:33894   */\n    tag_464:\n        /* \"#utility.yul\":33852:33886   */\n      0x4f776e61626c653a2063616c6c6572206973206e6f7420746865206f776e6572\n        /* \"#utility.yul\":33848:33849   */\n      0x00\n        /* \"#utility.yul\":33840:33846   */\n      dup3\n        /* \"#utility.yul\":33836:33850   */\n      add\n        /* \"#utility.yul\":33829:33887   */\n      mstore\n        /* \"#utility.yul\":33712:33894   */\n      pop\n      jump\t// out\n        /* \"#utility.yul\":33900:34266   */\n    tag_465:\n        /* \"#utility.yul\":34042:34045   */\n      0x00\n        /* \"#utility.yul\":34063:34130   */\n      tag_803\n        /* \"#utility.yul\":34127:34129   */\n      0x20\n        /* \"#utility.yul\":34122:34125   */\n      dup4\n        /* \"#utility.yul\":34063:34130   */\n      tag_395\n      jump\t// in\n    tag_803:\n        /* \"#utility.yul\":34056:34130   */\n      swap2\n      pop\n        /* \"#utility.yul\":34139:34232   */\n      tag_804\n        /* \"#utility.yul\":34228:34231   */\n      dup3\n        /* \"#utility.yul\":34139:34232   */\n      tag_464\n      jump\t// in\n    tag_804:\n        /* \"#utility.yul\":34257:34259   */\n      0x20\n        /* \"#utility.yul\":34252:34255   */\n      dup3\n        /* \"#utility.yul\":34248:34260   */\n      add\n        /* \"#utility.yul\":34241:34260   */\n      swap1\n      pop\n        /* \"#utility.yul\":33900:34266   */\n      swap2\n      swap1\n      pop\n      jump\t// out\n        /* \"#utility.yul\":34272:34691   */\n    tag_373:\n        /* \"#utility.yul\":34438:34442   */\n      0x00\n        /* \"#utility.yul\":34476:34478   */\n      0x20\n        /* \"#utility.yul\":34465:34474   */\n      dup3\n        /* \"#utility.yul\":34461:34479   */\n      add\n        /* \"#utility.yul\":34453:34479   */\n      swap1\n      pop\n        /* \"#utility.yul\":34525:34534   */\n      dup2\n        /* \"#utility.yul\":34519:34523   */\n      dup2\n        /* \"#utility.yul\":34515:34535   */\n      sub\n        /* \"#utility.yul\":34511:34512   */\n      0x00\n        /* \"#utility.yul\":34500:34509   */\n      dup4\n        /* \"#utility.yul\":34496:34513   */\n      add\n        /* \"#utility.yul\":34489:34536   */\n      mstore\n        /* \"#utility.yul\":34553:34684   */\n      tag_806\n        /* \"#utility.yul\":34679:34683   */\n      dup2\n        /* \"#utility.yul\":34553:34684   */\n      tag_465\n      jump\t// in\n    tag_806:\n        /* \"#utility.yul\":34545:34684   */\n      swap1\n      pop\n        /* \"#utility.yul\":34272:34691   */\n      swap2\n      swap1\n      pop\n      jump\t// out\n        /* \"#utility.yul\":34697:34877   */\n    tag_382:\n        /* \"#utility.yul\":34745:34822   */\n      0x4e487b7100000000000000000000000000000000000000000000000000000000\n        /* \"#utility.yul\":34742:34743   */\n      0x00\n        /* \"#utility.yul\":34735:34823   */\n      mstore\n        /* \"#utility.yul\":34842:34846   */\n      0x51\n        /* \"#utility.yul\":34839:34840   */\n      0x04\n        /* \"#utility.yul\":34832:34847   */\n      mstore\n        /* \"#utility.yul\":34866:34870   */\n      0x24\n        /* \"#utility.yul\":34863:34864   */\n      0x00\n        /* \"#utility.yul\":34856:34871   */\n      revert\n\n    auxdata: 0xa2646970667358221220ce08b8bebf0df13aaa02e95b02c757e353f1f35826c0862e1c8f68e257d37d9764736f6c63430008110033\n}\n",
				"bytecode": {
					"linkReferences": {},
					"object": "60806040523480156200001157600080fd5b5062000032620000266200013a60201b60201c565b6200014260201b60201c565b6000600360006101000a81548160ff021916908360ff1602179055506000600681905550600a600760006101000a81548160ff021916908360ff16021790555060046200020660201b62001b751790806001815401808255809150506001900390600052602060002090600491828204019190066008029091909190916101000a81548167ffffffffffffffff021916908367ffffffffffffffff1602179055506004620003e260201b62001d381790806001815401808255809150506001900390600052602060002090600491828204019190066008029091909190916101000a81548167ffffffffffffffff021916908367ffffffffffffffff16021790555062000752565b600033905090565b60008060009054906101000a900473ffffffffffffffffffffffffffffffffffffffff169050816000806101000a81548173ffffffffffffffffffffffffffffffffffffffff021916908373ffffffffffffffffffffffffffffffffffffffff1602179055508173ffffffffffffffffffffffffffffffffffffffff168173ffffffffffffffffffffffffffffffffffffffff167f8be0079c531659141344cd1fd0a4f28419497f9722a3daafe3b4186f6b6457e060405160405180910390a35050565b6000806002805490506001600280549050600360019054906101000a900460ff1660ff16620002369190620005cf565b6200024291906200060a565b6200024e919062000674565b90505b8060ff16600360019054906101000a900460ff1660ff1614158015620002bc57506002600360019054906101000a900460ff1660ff16815481106200029b576200029a620006ac565b5b906000526020600020906003020160010160009054906101000a900460ff16155b1562000315576002805490506001600360019054906101000a900460ff16620002e69190620006e8565b60ff16620002f5919062000674565b600360016101000a81548160ff021916908360ff16021790555062000251565b60006002600360019054906101000a900460ff1660ff168154811062000340576200033f620006ac565b5b906000526020600020906003020160010160009054906101000a900460ff166200037a57600760009054906101000a900460ff166200038b565b600360019054906101000a900460ff165b90506002805490506001600360019054906101000a900460ff16620003b19190620006e8565b60ff16620003c0919062000674565b600360016101000a81548160ff021916908360ff160217905550809250505090565b6000806000600760009054906101000a900460ff16905060005b6002805490508160ff161080156200044a575060028160ff1681548110620004295762000428620006ac565b5b906000526020600020906003020160010160009054906101000a900460ff16155b15620004665780806200045d9062000724565b915050620003fc565b6002805490508160ff1610156200058d5780915060028160ff1681548110620004945762000493620006ac565b5b90600052602060002090600302016002015492506000600182620004b99190620006e8565b90505b6002805490508160ff1610156200058b5760028160ff1681548110620004e757620004e6620006ac565b5b906000526020600020906003020160010160009054906101000a900460ff1680156200053d57508360028260ff1681548110620005295762000528620006ac565b5b906000526020600020906003020160020154105b15620005755780925060028160ff168154811062000560576200055f620006ac565b5b90600052602060002090600302016002015493505b8080620005829062000724565b915050620004bc565b505b81935050505090565b6000819050919050565b7f4e487b7100000000000000000000000000000000000000000000000000000000600052601160045260246000fd5b6000620005dc8262000596565b9150620005e98362000596565b9250828201905080821115620006045762000603620005a0565b5b92915050565b6000620006178262000596565b9150620006248362000596565b92508282039050818111156200063f576200063e620005a0565b5b92915050565b7f4e487b7100000000000000000000000000000000000000000000000000000000600052601260045260246000fd5b6000620006818262000596565b91506200068e8362000596565b925082620006a157620006a062000645565b5b828206905092915050565b7f4e487b7100000000000000000000000000000000000000000000000000000000600052603260045260246000fd5b600060ff82169050919050565b6000620006f582620006db565b91506200070283620006db565b9250828201905060ff8111156200071e576200071d620005a0565b5b92915050565b60006200073182620006db565b915060ff8203620007475762000746620005a0565b5b600182019050919050565b61352f80620007626000396000f3fe608060405234801561001057600080fd5b50600436106100f55760003560e01c80638da5cb5b11610097578063c0981b2611610066578063c0981b261461024f578063ca9896591461026b578063f2fde38b1461028a578063f335f7ac146102a6576100f5565b80638da5cb5b146101dd5780639552bca7146101fb57806398c2054314610217578063a07ca63514610233576100f5565b806365a88003116100d357806365a880031461017d578063715018a6146101995780637adbf973146101a35780638291286c146101bf576100f5565b806319b4a0f9146100fa578063608c2db514610116578063613eb17d14610148575b600080fd5b610114600480360381019061010f91906122bf565b6102c2565b005b610130600480360381019061012b91906122ff565b61063b565b60405161013f939291906123da565b60405180910390f35b610162600480360381019061015d91906122ff565b61070a565b60405161017496959493929190612527565b60405180910390f35b610197600480360381019061019291906125f4565b610815565b005b6101a161099d565b005b6101bd60048036038101906101b89190612680565b6109b1565b005b6101c7610a34565b6040516101d491906126ad565b60405180910390f35b6101e5610a3a565b6040516101f291906126c8565b60405180910390f35b610215600480360381019061021091906122ff565b610a63565b005b610231600480360381019061022c919061270f565b610dcb565b005b61024d600480360381019061024891906122bf565b610e74565b005b61026960048036038101906102649190612768565b6111ed565b005b610273611663565b6040516102819291906127dc565b60405180910390f35b6102a4600480360381019061029f9190612680565b611a5a565b005b6102c060048036038101906102bb919061280c565b611add565b005b600073ffffffffffffffffffffffffffffffffffffffff16600560009054906101000a900473ffffffffffffffffffffffffffffffffffffffff1673ffffffffffffffffffffffffffffffffffffffff1603610353576040517f08c379a000000000000000000000000000000000000000000000000000000000815260040161034a90612898565b60405180910390fd5b600560009054906101000a900473ffffffffffffffffffffffffffffffffffffffff1673ffffffffffffffffffffffffffffffffffffffff163373ffffffffffffffffffffffffffffffffffffffff16146103e3576040517f08c379a00000000000000000000000000000000000000000000000000000000081526004016103da90612904565b60405180910390fd5b8160028060048111156103f9576103f86124b0565b5b6001600084815260200190815260200160002060040160009054906101000a900460ff16600481111561042f5761042e6124b0565b5b1461046f576040517f08c379a000000000000000000000000000000000000000000000000000000000815260040161046690612970565b60405180910390fd5b60008060008061047e88611ecf565b9350935093509350861561050f576003600160008a815260200190815260200160002060040160006101000a81548160ff021916908360048111156104c6576104c56124b0565b5b02179055507ffc0e41f3f5d509cf16934162c0fb5020db934ae90a7498d8b479568589ffccd18885858585604051610502959493929190612990565b60405180910390a1610631565b60016000898152602001908152602001600020600080820160006101000a81549060ff02191690556000820160016101000a81549073ffffffffffffffffffffffffffffffffffffffff021916905560018201600061056e91906121e0565b6002820160006101000a81549073ffffffffffffffffffffffffffffffffffffffff021916905560038201600090556004820160006101000a81549060ff0219169055505060028460ff16815481106105ca576105c96129f1565b5b906000526020600020906003020160020160008154809291906105ec90612a4f565b91905055507f018740aef37e3c4899e9f4d59558109dd1e1dbeb955703c419beebde386965178885858585604051610628959493929190612990565b60405180910390a15b5050505050505050565b6002818154811061064b57600080fd5b906000526020600020906003020160009150905080600001805461066e90612aa7565b80601f016020809104026020016040519081016040528092919081815260200182805461069a90612aa7565b80156106e75780601f106106bc576101008083540402835291602001916106e7565b820191906000526020600020905b8154815290600101906020018083116106ca57829003601f168201915b5050505050908060010160009054906101000a900460ff16908060020154905083565b60016020528060005260406000206000915090508060000160009054906101000a900460ff16908060000160019054906101000a900460601b9080600101805461075390612aa7565b80601f016020809104026020016040519081016040528092919081815260200182805461077f90612aa7565b80156107cc5780601f106107a1576101008083540402835291602001916107cc565b820191906000526020600020905b8154815290600101906020018083116107af57829003601f168201915b5050505050908060020160009054906101000a900473ffffffffffffffffffffffffffffffffffffffff16908060030154908060040160009054906101000a900460ff16905086565b61081d612096565b600760009054906101000a900460ff1660ff166002805490501115610877576040517f08c379a000000000000000000000000000000000000000000000000000000000815260040161086e90612b24565b60405180910390fd5b6002604051806060016040528085858080601f016020809104026020016040519081016040528093929190818152602001838380828437600081840152601f19601f82011690508083019250505050505050815260200183151581526020016000815250908060018154018082558091505060019003906000526020600020906003020160009091909190915060008201518160000190816109199190612d1f565b5060208201518160010160006101000a81548160ff0219169083151502179055506040820151816002015550506000600160028054905061095a9190612df1565b90507f1def1861d5991921dae7e9520a9201fc401ee5942e01cb2ccffb1bc0c3f0d0c681858560405161098f93929190612e61565b60405180910390a150505050565b6109a5612096565b6109af6000612114565b565b6109b9612096565b80600560006101000a81548173ffffffffffffffffffffffffffffffffffffffff021916908373ffffffffffffffffffffffffffffffffffffffff1602179055507f807dc19e171652591d023395bfc818727564b07291b9e0b9de995c9138d179f181604051610a2991906126c8565b60405180910390a150565b60065481565b60008060009054906101000a900473ffffffffffffffffffffffffffffffffffffffff16905090565b600073ffffffffffffffffffffffffffffffffffffffff16600560009054906101000a900473ffffffffffffffffffffffffffffffffffffffff1673ffffffffffffffffffffffffffffffffffffffff1603610af4576040517f08c379a0000000000000000000000000000000000000000000000000000000008152600401610aeb90612898565b60405180910390fd5b803373ffffffffffffffffffffffffffffffffffffffff166001600083815260200190815260200160002060020160009054906101000a900473ffffffffffffffffffffffffffffffffffffffff1673ffffffffffffffffffffffffffffffffffffffff1614610b99576040517f08c379a0000000000000000000000000000000000000000000000000000000008152600401610b9090612edf565b60405180910390fd5b816003806004811115610baf57610bae6124b0565b5b6001600084815260200190815260200160002060040160009054906101000a900460ff166004811115610be557610be46124b0565b5b14610c25576040517f08c379a0000000000000000000000000000000000000000000000000000000008152600401610c1c90612970565b60405180910390fd5b600080600080610c3488611ecf565b935093509350935060028460ff1681548110610c5357610c526129f1565b5b90600052602060002090600302016002016000815480929190610c7590612a4f565b91905055506004600160008a815260200190815260200160002060040160006101000a81548160ff02191690836004811115610cb457610cb36124b0565b5b0217905550600560009054906101000a900473ffffffffffffffffffffffffffffffffffffffff1673ffffffffffffffffffffffffffffffffffffffff166308540a2c898585600160008e815260200190815260200160002060020160009054906101000a900473ffffffffffffffffffffffffffffffffffffffff166040518563ffffffff1660e01b8152600401610d509493929190612eff565b600060405180830381600087803b158015610d6a57600080fd5b505af1158015610d7e573d6000803e3d6000fd5b505050507f628abcdb4e4b579cc58315017cfc6a5853fdb6ac143fca00a6d0b28a73a0f5408885858585604051610db9959493929190612990565b60405180910390a15050505050505050565b610dd3612096565b806004805490508160ff1610610e1e576040517f08c379a0000000000000000000000000000000000000000000000000000000008152600401610e1590612f97565b60405180910390fd5b81600360006101000a81548160ff021916908360ff1602179055507f987a3408e00935d1eb359fd8812975019ac50bad81a9b01cddfa171579c848ba82604051610e689190612fb7565b60405180910390a15050565b600073ffffffffffffffffffffffffffffffffffffffff16600560009054906101000a900473ffffffffffffffffffffffffffffffffffffffff1673ffffffffffffffffffffffffffffffffffffffff1603610f05576040517f08c379a0000000000000000000000000000000000000000000000000000000008152600401610efc90612898565b60405180910390fd5b600560009054906101000a900473ffffffffffffffffffffffffffffffffffffffff1673ffffffffffffffffffffffffffffffffffffffff163373ffffffffffffffffffffffffffffffffffffffff1614610f95576040517f08c379a0000000000000000000000000000000000000000000000000000000008152600401610f8c90612904565b60405180910390fd5b816004806004811115610fab57610faa6124b0565b5b6001600084815260200190815260200160002060040160009054906101000a900460ff166004811115610fe157610fe06124b0565b5b14611021576040517f08c379a000000000000000000000000000000000000000000000000000000000815260040161101890612970565b60405180910390fd5b60008060008061103088611ecf565b935093509350935086156111265760016000898152602001908152602001600020600080820160006101000a81549060ff02191690556000820160016101000a81549073ffffffffffffffffffffffffffffffffffffffff021916905560018201600061109d91906121e0565b6002820160006101000a81549073ffffffffffffffffffffffffffffffffffffffff021916905560038201600090556004820160006101000a81549060ff021916905550507f34f974022181aae39aa96d8758f573cb067a8b910edc151f1c7e4227fda5a3d68885858585604051611119959493929190612990565b60405180910390a16111e3565b60028460ff168154811061113d5761113c6129f1565b5b9060005260206000209060030201600201600081548092919061115f90612fd2565b91905055506003600160008a815260200190815260200160002060040160006101000a81548160ff0219169083600481111561119e5761119d6124b0565b5b02179055507f5d6d4a8afd86aeea9d8f976d1e848289b569d5dd41b052c21bbe97be23d2a33988858585856040516111da959493929190612990565b60405180910390a15b5050505050505050565b600073ffffffffffffffffffffffffffffffffffffffff16600560009054906101000a900473ffffffffffffffffffffffffffffffffffffffff1673ffffffffffffffffffffffffffffffffffffffff160361127e576040517f08c379a000000000000000000000000000000000000000000000000000000000815260040161127590612898565b60405180910390fd5b833373ffffffffffffffffffffffffffffffffffffffff166001600083815260200190815260200160002060020160009054906101000a900473ffffffffffffffffffffffffffffffffffffffff1673ffffffffffffffffffffffffffffffffffffffff1614611323576040517f08c379a000000000000000000000000000000000000000000000000000000000815260040161131a90612edf565b60405180910390fd5b846001806004811115611339576113386124b0565b5b6001600084815260200190815260200160002060040160009054906101000a900460ff16600481111561136f5761136e6124b0565b5b146113af576040517f08c379a00000000000000000000000000000000000000000000000000000000081526004016113a690612970565b60405180910390fd5b60006001600089815260200190815260200160002060000160009054906101000a900460ff169050600060028260ff16815481106113f0576113ef6129f1565b5b9060005260206000209060030201600001805461140c90612aa7565b80601f016020809104026020016040519081016040528092919081815260200182805461143890612aa7565b80156114855780601f1061145a57610100808354040283529160200191611485565b820191906000526020600020905b81548152906001019060200180831161146857829003601f168201915b5050505050905087600160008b815260200190815260200160002060000160016101000a81548173ffffffffffffffffffffffffffffffffffffffff021916908360601c02179055508686600160008c815260200190815260200160002060010191826114f3929190613025565b5042600160008b8152602001908152602001600020600301819055506002600160008b815260200190815260200160002060040160006101000a81548160ff02191690836004811115611549576115486124b0565b5b0217905550600560009054906101000a900473ffffffffffffffffffffffffffffffffffffffff1673ffffffffffffffffffffffffffffffffffffffff16633fda57a28a838b600160008f815260200190815260200160002060020160009054906101000a900473ffffffffffffffffffffffffffffffffffffffff166040518563ffffffff1660e01b81526004016115e59493929190612eff565b600060405180830381600087803b1580156115ff57600080fd5b505af1158015611613573d6000803e3d6000fd5b505050507f1c42c890f21ce8a67778dd4a7c3f65f9131aa60fb612e1bcf7a7b7482e88f4428983838b8b8b604051611650969594939291906130f5565b60405180910390a1505050505050505050565b600060606000600280549050116116af576040517f08c379a00000000000000000000000000000000000000000000000000000000081526004016116a6906131a4565b60405180910390fd5b60006117136004600360009054906101000a900460ff1660ff16815481106116da576116d96129f1565b5b90600052602060002090600491828204019190066008029054906101000a90048015612220021767ffffffffffffffff1663ffffffff16565b90506000604051806020016040528060008152509050600760009054906101000a900460ff1660ff168260ff161015611a115760028260ff168154811061175d5761175c6129f1565b5b9060005260206000209060030201600001805461177990612aa7565b80601f01602080910402602001604051908101604052809291908181526020018280546117a590612aa7565b80156117f25780601f106117c7576101008083540402835291602001916117f2565b820191906000526020600020905b8154815290600101906020018083116117d557829003601f168201915b505050505090506006600081548092919061180c90612fd2565b91905055506040518060c001604052808360ff168152602001600060601b6bffffffffffffffffffffffff191681526020016040518060200160405280600081525081526020013373ffffffffffffffffffffffffffffffffffffffff168152602001600081526020016001600481111561188a576118896124b0565b5b81525060016000600654815260200190815260200160002060008201518160000160006101000a81548160ff021916908360ff16021790555060208201518160000160016101000a81548173ffffffffffffffffffffffffffffffffffffffff021916908360601c0217905550604082015181600101908161190c9190612d1f565b5060608201518160020160006101000a81548173ffffffffffffffffffffffffffffffffffffffff021916908373ffffffffffffffffffffffffffffffffffffffff1602179055506080820151816003015560a08201518160040160006101000a81548160ff02191690836004811115611989576119886124b0565b5b021790555090505060028260ff16815481106119a8576119a76129f1565b5b906000526020600020906003020160020160008154809291906119ca90612fd2565b91905055507f7bddc540fb75cc1614fe9ca62cb4543cfd8b8e10f91ad21eac54e165e68925876006548383604051611a04939291906131c4565b60405180910390a1611a4c565b6040517f08c379a0000000000000000000000000000000000000000000000000000000008152600401611a439061324e565b60405180910390fd5b600654819350935050509091565b611a62612096565b600073ffffffffffffffffffffffffffffffffffffffff168173ffffffffffffffffffffffffffffffffffffffff1603611ad1576040517f08c379a0000000000000000000000000000000000000000000000000000000008152600401611ac8906132e0565b60405180910390fd5b611ada81612114565b50565b611ae5612096565b816002805490508160ff1610611b30576040517f08c379a0000000000000000000000000000000000000000000000000000000008152600401611b279061334c565b60405180910390fd5b8160028460ff1681548110611b4857611b476129f1565b5b906000526020600020906003020160010160006101000a81548160ff021916908315150217905550505050565b6000806002805490506001600280549050600360019054906101000a900460ff1660ff16611ba3919061336c565b611bad9190612df1565b611bb791906133cf565b90505b8060ff16600360019054906101000a900460ff1660ff1614158015611c2157506002600360019054906101000a900460ff1660ff1681548110611c0057611bff6129f1565b5b906000526020600020906003020160010160009054906101000a900460ff16155b15611c74576002805490506001600360019054906101000a900460ff16611c489190613400565b60ff16611c5591906133cf565b600360016101000a81548160ff021916908360ff160217905550611bba565b60006002600360019054906101000a900460ff1660ff1681548110611c9c57611c9b6129f1565b5b906000526020600020906003020160010160009054906101000a900460ff16611cd457600760009054906101000a900460ff16611ce5565b600360019054906101000a900460ff165b90506002805490506001600360019054906101000a900460ff16611d099190613400565b60ff16611d1691906133cf565b600360016101000a81548160ff021916908360ff160217905550809250505090565b6000806000600760009054906101000a900460ff16905060005b6002805490508160ff16108015611d9c575060028160ff1681548110611d7b57611d7a6129f1565b5b906000526020600020906003020160010160009054906101000a900460ff16155b15611db4578080611dac90613435565b915050611d52565b6002805490508160ff161015611ec65780915060028160ff1681548110611dde57611ddd6129f1565b5b90600052602060002090600302016002015492506000600182611e019190613400565b90505b6002805490508160ff161015611ec45760028160ff1681548110611e2b57611e2a6129f1565b5b906000526020600020906003020160010160009054906101000a900460ff168015611e7d57508360028260ff1681548110611e6957611e686129f1565b5b906000526020600020906003020160020154105b15611eb15780925060028160ff1681548110611e9c57611e9b6129f1565b5b90600052602060002090600302016002015493505b8080611ebc90613435565b915050611e04565b505b81935050505090565b600060606000606060006001600087815260200190815260200160002060000160009054906101000a900460ff169050600060028260ff1681548110611f1857611f176129f1565b5b90600052602060002090600302016000018054611f3490612aa7565b80601f0160208091040260200160405190810160405280929190818152602001828054611f6090612aa7565b8015611fad5780601f10611f8257610100808354040283529160200191611fad565b820191906000526020600020905b815481529060010190602001808311611f9057829003601f168201915b5050505050905060006001600089815260200190815260200160002060000160019054906101000a900460601b90506000600160008a81526020019081526020016000206001018054611fff90612aa7565b80601f016020809104026020016040519081016040528092919081815260200182805461202b90612aa7565b80156120785780601f1061204d57610100808354040283529160200191612078565b820191906000526020600020905b81548152906001019060200180831161205b57829003601f168201915b50505050509050838383839750975097509750505050509193509193565b61209e6121d8565b73ffffffffffffffffffffffffffffffffffffffff166120bc610a3a565b73ffffffffffffffffffffffffffffffffffffffff1614612112576040517f08c379a0000000000000000000000000000000000000000000000000000000008152600401612109906134aa565b60405180910390fd5b565b60008060009054906101000a900473ffffffffffffffffffffffffffffffffffffffff169050816000806101000a81548173ffffffffffffffffffffffffffffffffffffffff021916908373ffffffffffffffffffffffffffffffffffffffff1602179055508173ffffffffffffffffffffffffffffffffffffffff168173ffffffffffffffffffffffffffffffffffffffff167f8be0079c531659141344cd1fd0a4f28419497f9722a3daafe3b4186f6b6457e060405160405180910390a35050565b600033905090565b5080546121ec90612aa7565b6000825580601f106121fe575061221d565b601f01602090049060005260206000209081019061221c919061222a565b5b50565b6122286134ca565b565b5b8082111561224357600081600090555060010161222b565b5090565b600080fd5b600080fd5b6000819050919050565b61226481612251565b811461226f57600080fd5b50565b6000813590506122818161225b565b92915050565b60008115159050919050565b61229c81612287565b81146122a757600080fd5b50565b6000813590506122b981612293565b92915050565b600080604083850312156122d6576122d5612247565b5b60006122e485828601612272565b92505060206122f5858286016122aa565b9150509250929050565b60006020828403121561231557612314612247565b5b600061232384828501612272565b91505092915050565b600081519050919050565b600082825260208201905092915050565b60005b8381101561236657808201518184015260208101905061234b565b60008484015250505050565b6000601f19601f8301169050919050565b600061238e8261232c565b6123988185612337565b93506123a8818560208601612348565b6123b181612372565b840191505092915050565b6123c581612287565b82525050565b6123d481612251565b82525050565b600060608201905081810360008301526123f48186612383565b905061240360208301856123bc565b61241060408301846123cb565b949350505050565b600060ff82169050919050565b61242e81612418565b82525050565b60007fffffffffffffffffffffffffffffffffffffffff00000000000000000000000082169050919050565b61246981612434565b82525050565b600073ffffffffffffffffffffffffffffffffffffffff82169050919050565b600061249a8261246f565b9050919050565b6124aa8161248f565b82525050565b7f4e487b7100000000000000000000000000000000000000000000000000000000600052602160045260246000fd5b600581106124f0576124ef6124b0565b5b50565b6000819050612501826124df565b919050565b6000612511826124f3565b9050919050565b61252181612506565b82525050565b600060c08201905061253c6000830189612425565b6125496020830188612460565b818103604083015261255b8187612383565b905061256a60608301866124a1565b61257760808301856123cb565b61258460a0830184612518565b979650505050505050565b600080fd5b600080fd5b600080fd5b60008083601f8401126125b4576125b361258f565b5b8235905067ffffffffffffffff8111156125d1576125d0612594565b5b6020830191508360018202830111156125ed576125ec612599565b5b9250929050565b60008060006040848603121561260d5761260c612247565b5b600084013567ffffffffffffffff81111561262b5761262a61224c565b5b6126378682870161259e565b9350935050602061264a868287016122aa565b9150509250925092565b61265d8161248f565b811461266857600080fd5b50565b60008135905061267a81612654565b92915050565b60006020828403121561269657612695612247565b5b60006126a48482850161266b565b91505092915050565b60006020820190506126c260008301846123cb565b92915050565b60006020820190506126dd60008301846124a1565b92915050565b6126ec81612418565b81146126f757600080fd5b50565b600081359050612709816126e3565b92915050565b60006020828403121561272557612724612247565b5b6000612733848285016126fa565b91505092915050565b61274581612434565b811461275057600080fd5b50565b6000813590506127628161273c565b92915050565b6000806000806060858703121561278257612781612247565b5b600061279087828801612272565b94505060206127a187828801612753565b935050604085013567ffffffffffffffff8111156127c2576127c161224c565b5b6127ce8782880161259e565b925092505092959194509250565b60006040820190506127f160008301856123cb565b81810360208301526128038184612383565b90509392505050565b6000806040838503121561282357612822612247565b5b6000612831858286016126fa565b9250506020612842858286016122aa565b9150509250929050565b7f4f7261636c65206e6f7420696e697469616c697a656400000000000000000000600082015250565b6000612882601683612337565b915061288d8261284c565b602082019050919050565b600060208201905081810360008301526128b181612875565b9050919050565b7f43616c6c6572206973206e6f74206f7261636c65000000000000000000000000600082015250565b60006128ee601483612337565b91506128f9826128b8565b602082019050919050565b6000602082019050818103600083015261291d816128e1565b9050919050565b7f4465706c6f79207374617465206572726f720000000000000000000000000000600082015250565b600061295a601283612337565b915061296582612924565b602082019050919050565b600060208201905081810360008301526129898161294d565b9050919050565b600060a0820190506129a560008301886123cb565b6129b26020830187612425565b81810360408301526129c48186612383565b90506129d36060830185612460565b81810360808301526129e58184612383565b90509695505050505050565b7f4e487b7100000000000000000000000000000000000000000000000000000000600052603260045260246000fd5b7f4e487b7100000000000000000000000000000000000000000000000000000000600052601160045260246000fd5b6000612a5a82612251565b915060008203612a6d57612a6c612a20565b5b600182039050919050565b7f4e487b7100000000000000000000000000000000000000000000000000000000600052602260045260246000fd5b60006002820490506001821680612abf57607f821691505b602082108103612ad257612ad1612a78565b5b50919050565b7f4e6f206d6f72652073686172642063616e206265206164646564000000000000600082015250565b6000612b0e601a83612337565b9150612b1982612ad8565b602082019050919050565b60006020820190508181036000830152612b3d81612b01565b9050919050565b7f4e487b7100000000000000000000000000000000000000000000000000000000600052604160045260246000fd5b60008190508160005260206000209050919050565b60006020601f8301049050919050565b600082821b905092915050565b600060088302612bd57fffffffffffffffffffffffffffffffffffffffffffffffffffffffffffffffff82612b98565b612bdf8683612b98565b95508019841693508086168417925050509392505050565b6000819050919050565b6000612c1c612c17612c1284612251565b612bf7565b612251565b9050919050565b6000819050919050565b612c3683612c01565b612c4a612c4282612c23565b848454612ba5565b825550505050565b600090565b612c5f612c52565b612c6a818484612c2d565b505050565b5b81811015612c8e57612c83600082612c57565b600181019050612c70565b5050565b601f821115612cd357612ca481612b73565b612cad84612b88565b81016020851015612cbc578190505b612cd0612cc885612b88565b830182612c6f565b50505b505050565b600082821c905092915050565b6000612cf660001984600802612cd8565b1980831691505092915050565b6000612d0f8383612ce5565b9150826002028217905092915050565b612d288261232c565b67ffffffffffffffff811115612d4157612d40612b44565b5b612d4b8254612aa7565b612d56828285612c92565b600060209050601f831160018114612d895760008415612d77578287015190505b612d818582612d03565b865550612de9565b601f198416612d9786612b73565b60005b82811015612dbf57848901518255600182019150602085019450602081019050612d9a565b86831015612ddc5784890151612dd8601f891682612ce5565b8355505b6001600288020188555050505b505050505050565b6000612dfc82612251565b9150612e0783612251565b9250828203905081811115612e1f57612e1e612a20565b5b92915050565b82818337600083830152505050565b6000612e408385612337565b9350612e4d838584612e25565b612e5683612372565b840190509392505050565b6000604082019050612e766000830186612425565b8181036020830152612e89818486612e34565b9050949350505050565b7f43616c6c6572206973206e6f74206465706c6f79207265736572766572000000600082015250565b6000612ec9601d83612337565b9150612ed482612e93565b602082019050919050565b60006020820190508181036000830152612ef881612ebc565b9050919050565b6000608082019050612f1460008301876123cb565b8181036020830152612f268186612383565b9050612f356040830185612460565b612f4260608301846124a1565b95945050505050565b7f416c676f726974686d20646f6573206e6f742065786973740000000000000000600082015250565b6000612f81601883612337565b9150612f8c82612f4b565b602082019050919050565b60006020820190508181036000830152612fb081612f74565b9050919050565b6000602082019050612fcc6000830184612425565b92915050565b6000612fdd82612251565b91507fffffffffffffffffffffffffffffffffffffffffffffffffffffffffffffffff820361300f5761300e612a20565b5b600182019050919050565b600082905092915050565b61302f838361301a565b67ffffffffffffffff81111561304857613047612b44565b5b6130528254612aa7565b61305d828285612c92565b6000601f83116001811461308c576000841561307a578287013590505b6130848582612d03565b8655506130ec565b601f19841661309a86612b73565b60005b828110156130c25784890135825560018201915060208501945060208101905061309d565b868310156130df57848901356130db601f891682612ce5565b8355505b6001600288020188555050505b50505050505050565b600060a08201905061310a60008301896123cb565b6131176020830188612425565b81810360408301526131298187612383565b90506131386060830186612460565b818103608083015261314b818486612e34565b9050979650505050505050565b7f4e6f207368617264207265676973746572656400000000000000000000000000600082015250565b600061318e601383612337565b915061319982613158565b602082019050919050565b600060208201905081810360008301526131bd81613181565b9050919050565b60006060820190506131d960008301866123cb565b6131e66020830185612425565b81810360408301526131f88184612383565b9050949350505050565b7f4e6f20736861726420617661696c61626c6520666f72206465706c6f79000000600082015250565b6000613238601d83612337565b915061324382613202565b602082019050919050565b600060208201905081810360008301526132678161322b565b9050919050565b7f4f776e61626c653a206e6577206f776e657220697320746865207a65726f206160008201527f6464726573730000000000000000000000000000000000000000000000000000602082015250565b60006132ca602683612337565b91506132d58261326e565b604082019050919050565b600060208201905081810360008301526132f9816132bd565b9050919050565b7f536861726420646f6573206e6f74206578697374000000000000000000000000600082015250565b6000613336601483612337565b915061334182613300565b602082019050919050565b6000602082019050818103600083015261336581613329565b9050919050565b600061337782612251565b915061338283612251565b925082820190508082111561339a57613399612a20565b5b92915050565b7f4e487b7100000000000000000000000000000000000000000000000000000000600052601260045260246000fd5b60006133da82612251565b91506133e583612251565b9250826133f5576133f46133a0565b5b828206905092915050565b600061340b82612418565b915061341683612418565b9250828201905060ff81111561342f5761342e612a20565b5b92915050565b600061344082612418565b915060ff820361345357613452612a20565b5b600182019050919050565b7f4f776e61626c653a2063616c6c6572206973206e6f7420746865206f776e6572600082015250565b6000613494602083612337565b915061349f8261345e565b602082019050919050565b600060208201905081810360008301526134c381613487565b9050919050565b7f4e487b7100000000000000000000000000000000000000000000000000000000600052605160045260246000fdfea2646970667358221220ce08b8bebf0df13aaa02e95b02c757e353f1f35826c0862e1c8f68e257d37d9764736f6c63430008110033",
					"opcodes": "PUSH1 0x80 PUSH1 0x40 MSTORE CALLVALUE DUP1 ISZERO PUSH3 0x11 JUMPI PUSH1 0x0 DUP1 REVERT JUMPDEST POP PUSH3 0x32 PUSH3 0x26 PUSH3 0x13A PUSH1 0x20 SHL PUSH1 0x20 SHR JUMP JUMPDEST PUSH3 0x142 PUSH1 0x20 SHL PUSH1 0x20 SHR JUMP JUMPDEST PUSH1 0x0 PUSH1 0x3 PUSH1 0x0 PUSH2 0x100 EXP DUP2 SLOAD DUP2 PUSH1 0xFF MUL NOT AND SWAP1 DUP4 PUSH1 0xFF AND MUL OR SWAP1 SSTORE POP PUSH1 0x0 PUSH1 0x6 DUP2 SWAP1 SSTORE POP PUSH1 0xA PUSH1 0x7 PUSH1 0x0 PUSH2 0x100 EXP DUP2 SLOAD DUP2 PUSH1 0xFF MUL NOT AND SWAP1 DUP4 PUSH1 0xFF AND MUL OR SWAP1 SSTORE POP PUSH1 0x4 PUSH3 0x206 PUSH1 0x20 SHL PUSH3 0x1B75 OR SWAP1 DUP1 PUSH1 0x1 DUP2 SLOAD ADD DUP1 DUP3 SSTORE DUP1 SWAP2 POP POP PUSH1 0x1 SWAP1 SUB SWAP1 PUSH1 0x0 MSTORE PUSH1 0x20 PUSH1 0x0 KECCAK256 SWAP1 PUSH1 0x4 SWAP2 DUP3 DUP3 DIV ADD SWAP2 SWAP1 MOD PUSH1 0x8 MUL SWAP1 SWAP2 SWAP1 SWAP2 SWAP1 SWAP2 PUSH2 0x100 EXP DUP2 SLOAD DUP2 PUSH8 0xFFFFFFFFFFFFFFFF MUL NOT AND SWAP1 DUP4 PUSH8 0xFFFFFFFFFFFFFFFF AND MUL OR SWAP1 SSTORE POP PUSH1 0x4 PUSH3 0x3E2 PUSH1 0x20 SHL PUSH3 0x1D38 OR SWAP1 DUP1 PUSH1 0x1 DUP2 SLOAD ADD DUP1 DUP3 SSTORE DUP1 SWAP2 POP POP PUSH1 0x1 SWAP1 SUB SWAP1 PUSH1 0x0 MSTORE PUSH1 0x20 PUSH1 0x0 KECCAK256 SWAP1 PUSH1 0x4 SWAP2 DUP3 DUP3 DIV ADD SWAP2 SWAP1 MOD PUSH1 0x8 MUL SWAP1 SWAP2 SWAP1 SWAP2 SWAP1 SWAP2 PUSH2 0x100 EXP DUP2 SLOAD DUP2 PUSH8 0xFFFFFFFFFFFFFFFF MUL NOT AND SWAP1 DUP4 PUSH8 0xFFFFFFFFFFFFFFFF AND MUL OR SWAP1 SSTORE POP PUSH3 0x752 JUMP JUMPDEST PUSH1 0x0 CALLER SWAP1 POP SWAP1 JUMP JUMPDEST PUSH1 0x0 DUP1 PUSH1 0x0 SWAP1 SLOAD SWAP1 PUSH2 0x100 EXP SWAP1 DIV PUSH20 0xFFFFFFFFFFFFFFFFFFFFFFFFFFFFFFFFFFFFFFFF AND SWAP1 POP DUP2 PUSH1 0x0 DUP1 PUSH2 0x100 EXP DUP2 SLOAD DUP2 PUSH20 0xFFFFFFFFFFFFFFFFFFFFFFFFFFFFFFFFFFFFFFFF MUL NOT AND SWAP1 DUP4 PUSH20 0xFFFFFFFFFFFFFFFFFFFFFFFFFFFFFFFFFFFFFFFF AND MUL OR SWAP1 SSTORE POP DUP2 PUSH20 0xFFFFFFFFFFFFFFFFFFFFFFFFFFFFFFFFFFFFFFFF AND DUP2 PUSH20 0xFFFFFFFFFFFFFFFFFFFFFFFFFFFFFFFFFFFFFFFF AND PUSH32 0x8BE0079C531659141344CD1FD0A4F28419497F9722A3DAAFE3B4186F6B6457E0 PUSH1 0x40 MLOAD PUSH1 0x40 MLOAD DUP1 SWAP2 SUB SWAP1 LOG3 POP POP JUMP JUMPDEST PUSH1 0x0 DUP1 PUSH1 0x2 DUP1 SLOAD SWAP1 POP PUSH1 0x1 PUSH1 0x2 DUP1 SLOAD SWAP1 POP PUSH1 0x3 PUSH1 0x1 SWAP1 SLOAD SWAP1 PUSH2 0x100 EXP SWAP1 DIV PUSH1 0xFF AND PUSH1 0xFF AND PUSH3 0x236 SWAP2 SWAP1 PUSH3 0x5CF JUMP JUMPDEST PUSH3 0x242 SWAP2 SWAP1 PUSH3 0x60A JUMP JUMPDEST PUSH3 0x24E SWAP2 SWAP1 PUSH3 0x674 JUMP JUMPDEST SWAP1 POP JUMPDEST DUP1 PUSH1 0xFF AND PUSH1 0x3 PUSH1 0x1 SWAP1 SLOAD SWAP1 PUSH2 0x100 EXP SWAP1 DIV PUSH1 0xFF AND PUSH1 0xFF AND EQ ISZERO DUP1 ISZERO PUSH3 0x2BC JUMPI POP PUSH1 0x2 PUSH1 0x3 PUSH1 0x1 SWAP1 SLOAD SWAP1 PUSH2 0x100 EXP SWAP1 DIV PUSH1 0xFF AND PUSH1 0xFF AND DUP2 SLOAD DUP2 LT PUSH3 0x29B JUMPI PUSH3 0x29A PUSH3 0x6AC JUMP JUMPDEST JUMPDEST SWAP1 PUSH1 0x0 MSTORE PUSH1 0x20 PUSH1 0x0 KECCAK256 SWAP1 PUSH1 0x3 MUL ADD PUSH1 0x1 ADD PUSH1 0x0 SWAP1 SLOAD SWAP1 PUSH2 0x100 EXP SWAP1 DIV PUSH1 0xFF AND ISZERO JUMPDEST ISZERO PUSH3 0x315 JUMPI PUSH1 0x2 DUP1 SLOAD SWAP1 POP PUSH1 0x1 PUSH1 0x3 PUSH1 0x1 SWAP1 SLOAD SWAP1 PUSH2 0x100 EXP SWAP1 DIV PUSH1 0xFF AND PUSH3 0x2E6 SWAP2 SWAP1 PUSH3 0x6E8 JUMP JUMPDEST PUSH1 0xFF AND PUSH3 0x2F5 SWAP2 SWAP1 PUSH3 0x674 JUMP JUMPDEST PUSH1 0x3 PUSH1 0x1 PUSH2 0x100 EXP DUP2 SLOAD DUP2 PUSH1 0xFF MUL NOT AND SWAP1 DUP4 PUSH1 0xFF AND MUL OR SWAP1 SSTORE POP PUSH3 0x251 JUMP JUMPDEST PUSH1 0x0 PUSH1 0x2 PUSH1 0x3 PUSH1 0x1 SWAP1 SLOAD SWAP1 PUSH2 0x100 EXP SWAP1 DIV PUSH1 0xFF AND PUSH1 0xFF AND DUP2 SLOAD DUP2 LT PUSH3 0x340 JUMPI PUSH3 0x33F PUSH3 0x6AC JUMP JUMPDEST JUMPDEST SWAP1 PUSH1 0x0 MSTORE PUSH1 0x20 PUSH1 0x0 KECCAK256 SWAP1 PUSH1 0x3 MUL ADD PUSH1 0x1 ADD PUSH1 0x0 SWAP1 SLOAD SWAP1 PUSH2 0x100 EXP SWAP1 DIV PUSH1 0xFF AND PUSH3 0x37A JUMPI PUSH1 0x7 PUSH1 0x0 SWAP1 SLOAD SWAP1 PUSH2 0x100 EXP SWAP1 DIV PUSH1 0xFF AND PUSH3 0x38B JUMP JUMPDEST PUSH1 0x3 PUSH1 0x1 SWAP1 SLOAD SWAP1 PUSH2 0x100 EXP SWAP1 DIV PUSH1 0xFF AND JUMPDEST SWAP1 POP PUSH1 0x2 DUP1 SLOAD SWAP1 POP PUSH1 0x1 PUSH1 0x3 PUSH1 0x1 SWAP1 SLOAD SWAP1 PUSH2 0x100 EXP SWAP1 DIV PUSH1 0xFF AND PUSH3 0x3B1 SWAP2 SWAP1 PUSH3 0x6E8 JUMP JUMPDEST PUSH1 0xFF AND PUSH3 0x3C0 SWAP2 SWAP1 PUSH3 0x674 JUMP JUMPDEST PUSH1 0x3 PUSH1 0x1 PUSH2 0x100 EXP DUP2 SLOAD DUP2 PUSH1 0xFF MUL NOT AND SWAP1 DUP4 PUSH1 0xFF AND MUL OR SWAP1 SSTORE POP DUP1 SWAP3 POP POP POP SWAP1 JUMP JUMPDEST PUSH1 0x0 DUP1 PUSH1 0x0 PUSH1 0x7 PUSH1 0x0 SWAP1 SLOAD SWAP1 PUSH2 0x100 EXP SWAP1 DIV PUSH1 0xFF AND SWAP1 POP PUSH1 0x0 JUMPDEST PUSH1 0x2 DUP1 SLOAD SWAP1 POP DUP2 PUSH1 0xFF AND LT DUP1 ISZERO PUSH3 0x44A JUMPI POP PUSH1 0x2 DUP2 PUSH1 0xFF AND DUP2 SLOAD DUP2 LT PUSH3 0x429 JUMPI PUSH3 0x428 PUSH3 0x6AC JUMP JUMPDEST JUMPDEST SWAP1 PUSH1 0x0 MSTORE PUSH1 0x20 PUSH1 0x0 KECCAK256 SWAP1 PUSH1 0x3 MUL ADD PUSH1 0x1 ADD PUSH1 0x0 SWAP1 SLOAD SWAP1 PUSH2 0x100 EXP SWAP1 DIV PUSH1 0xFF AND ISZERO JUMPDEST ISZERO PUSH3 0x466 JUMPI DUP1 DUP1 PUSH3 0x45D SWAP1 PUSH3 0x724 JUMP JUMPDEST SWAP2 POP POP PUSH3 0x3FC JUMP JUMPDEST PUSH1 0x2 DUP1 SLOAD SWAP1 POP DUP2 PUSH1 0xFF AND LT ISZERO PUSH3 0x58D JUMPI DUP1 SWAP2 POP PUSH1 0x2 DUP2 PUSH1 0xFF AND DUP2 SLOAD DUP2 LT PUSH3 0x494 JUMPI PUSH3 0x493 PUSH3 0x6AC JUMP JUMPDEST JUMPDEST SWAP1 PUSH1 0x0 MSTORE PUSH1 0x20 PUSH1 0x0 KECCAK256 SWAP1 PUSH1 0x3 MUL ADD PUSH1 0x2 ADD SLOAD SWAP3 POP PUSH1 0x0 PUSH1 0x1 DUP3 PUSH3 0x4B9 SWAP2 SWAP1 PUSH3 0x6E8 JUMP JUMPDEST SWAP1 POP JUMPDEST PUSH1 0x2 DUP1 SLOAD SWAP1 POP DUP2 PUSH1 0xFF AND LT ISZERO PUSH3 0x58B JUMPI PUSH1 0x2 DUP2 PUSH1 0xFF AND DUP2 SLOAD DUP2 LT PUSH3 0x4E7 JUMPI PUSH3 0x4E6 PUSH3 0x6AC JUMP JUMPDEST JUMPDEST SWAP1 PUSH1 0x0 MSTORE PUSH1 0x20 PUSH1 0x0 KECCAK256 SWAP1 PUSH1 0x3 MUL ADD PUSH1 0x1 ADD PUSH1 0x0 SWAP1 SLOAD SWAP1 PUSH2 0x100 EXP SWAP1 DIV PUSH1 0xFF AND DUP1 ISZERO PUSH3 0x53D JUMPI POP DUP4 PUSH1 0x2 DUP3 PUSH1 0xFF AND DUP2 SLOAD DUP2 LT PUSH3 0x529 JUMPI PUSH3 0x528 PUSH3 0x6AC JUMP JUMPDEST JUMPDEST SWAP1 PUSH1 0x0 MSTORE PUSH1 0x20 PUSH1 0x0 KECCAK256 SWAP1 PUSH1 0x3 MUL ADD PUSH1 0x2 ADD SLOAD LT JUMPDEST ISZERO PUSH3 0x575 JUMPI DUP1 SWAP3 POP PUSH1 0x2 DUP2 PUSH1 0xFF AND DUP2 SLOAD DUP2 LT PUSH3 0x560 JUMPI PUSH3 0x55F PUSH3 0x6AC JUMP JUMPDEST JUMPDEST SWAP1 PUSH1 0x0 MSTORE PUSH1 0x20 PUSH1 0x0 KECCAK256 SWAP1 PUSH1 0x3 MUL ADD PUSH1 0x2 ADD SLOAD SWAP4 POP JUMPDEST DUP1 DUP1 PUSH3 0x582 SWAP1 PUSH3 0x724 JUMP JUMPDEST SWAP2 POP POP PUSH3 0x4BC JUMP JUMPDEST POP JUMPDEST DUP2 SWAP4 POP POP POP POP SWAP1 JUMP JUMPDEST PUSH1 0x0 DUP2 SWAP1 POP SWAP2 SWAP1 POP JUMP JUMPDEST PUSH32 0x4E487B7100000000000000000000000000000000000000000000000000000000 PUSH1 0x0 MSTORE PUSH1 0x11 PUSH1 0x4 MSTORE PUSH1 0x24 PUSH1 0x0 REVERT JUMPDEST PUSH1 0x0 PUSH3 0x5DC DUP3 PUSH3 0x596 JUMP JUMPDEST SWAP2 POP PUSH3 0x5E9 DUP4 PUSH3 0x596 JUMP JUMPDEST SWAP3 POP DUP3 DUP3 ADD SWAP1 POP DUP1 DUP3 GT ISZERO PUSH3 0x604 JUMPI PUSH3 0x603 PUSH3 0x5A0 JUMP JUMPDEST JUMPDEST SWAP3 SWAP2 POP POP JUMP JUMPDEST PUSH1 0x0 PUSH3 0x617 DUP3 PUSH3 0x596 JUMP JUMPDEST SWAP2 POP PUSH3 0x624 DUP4 PUSH3 0x596 JUMP JUMPDEST SWAP3 POP DUP3 DUP3 SUB SWAP1 POP DUP2 DUP2 GT ISZERO PUSH3 0x63F JUMPI PUSH3 0x63E PUSH3 0x5A0 JUMP JUMPDEST JUMPDEST SWAP3 SWAP2 POP POP JUMP JUMPDEST PUSH32 0x4E487B7100000000000000000000000000000000000000000000000000000000 PUSH1 0x0 MSTORE PUSH1 0x12 PUSH1 0x4 MSTORE PUSH1 0x24 PUSH1 0x0 REVERT JUMPDEST PUSH1 0x0 PUSH3 0x681 DUP3 PUSH3 0x596 JUMP JUMPDEST SWAP2 POP PUSH3 0x68E DUP4 PUSH3 0x596 JUMP JUMPDEST SWAP3 POP DUP3 PUSH3 0x6A1 JUMPI PUSH3 0x6A0 PUSH3 0x645 JUMP JUMPDEST JUMPDEST DUP3 DUP3 MOD SWAP1 POP SWAP3 SWAP2 POP POP JUMP JUMPDEST PUSH32 0x4E487B7100000000000000000000000000000000000000000000000000000000 PUSH1 0x0 MSTORE PUSH1 0x32 PUSH1 0x4 MSTORE PUSH1 0x24 PUSH1 0x0 REVERT JUMPDEST PUSH1 0x0 PUSH1 0xFF DUP3 AND SWAP1 POP SWAP2 SWAP1 POP JUMP JUMPDEST PUSH1 0x0 PUSH3 0x6F5 DUP3 PUSH3 0x6DB JUMP JUMPDEST SWAP2 POP PUSH3 0x702 DUP4 PUSH3 0x6DB JUMP JUMPDEST SWAP3 POP DUP3 DUP3 ADD SWAP1 POP PUSH1 0xFF DUP2 GT ISZERO PUSH3 0x71E JUMPI PUSH3 0x71D PUSH3 0x5A0 JUMP JUMPDEST JUMPDEST SWAP3 SWAP2 POP POP JUMP JUMPDEST PUSH1 0x0 PUSH3 0x731 DUP3 PUSH3 0x6DB JUMP JUMPDEST SWAP2 POP PUSH1 0xFF DUP3 SUB PUSH3 0x747 JUMPI PUSH3 0x746 PUSH3 0x5A0 JUMP JUMPDEST JUMPDEST PUSH1 0x1 DUP3 ADD SWAP1 POP SWAP2 SWAP1 POP JUMP JUMPDEST PUSH2 0x352F DUP1 PUSH3 0x762 PUSH1 0x0 CODECOPY PUSH1 0x0 RETURN INVALID PUSH1 0x80 PUSH1 0x40 MSTORE CALLVALUE DUP1 ISZERO PUSH2 0x10 JUMPI PUSH1 0x0 DUP1 REVERT JUMPDEST POP PUSH1 0x4 CALLDATASIZE LT PUSH2 0xF5 JUMPI PUSH1 0x0 CALLDATALOAD PUSH1 0xE0 SHR DUP1 PUSH4 0x8DA5CB5B GT PUSH2 0x97 JUMPI DUP1 PUSH4 0xC0981B26 GT PUSH2 0x66 JUMPI DUP1 PUSH4 0xC0981B26 EQ PUSH2 0x24F JUMPI DUP1 PUSH4 0xCA989659 EQ PUSH2 0x26B JUMPI DUP1 PUSH4 0xF2FDE38B EQ PUSH2 0x28A JUMPI DUP1 PUSH4 0xF335F7AC EQ PUSH2 0x2A6 JUMPI PUSH2 0xF5 JUMP JUMPDEST DUP1 PUSH4 0x8DA5CB5B EQ PUSH2 0x1DD JUMPI DUP1 PUSH4 0x9552BCA7 EQ PUSH2 0x1FB JUMPI DUP1 PUSH4 0x98C20543 EQ PUSH2 0x217 JUMPI DUP1 PUSH4 0xA07CA635 EQ PUSH2 0x233 JUMPI PUSH2 0xF5 JUMP JUMPDEST DUP1 PUSH4 0x65A88003 GT PUSH2 0xD3 JUMPI DUP1 PUSH4 0x65A88003 EQ PUSH2 0x17D JUMPI DUP1 PUSH4 0x715018A6 EQ PUSH2 0x199 JUMPI DUP1 PUSH4 0x7ADBF973 EQ PUSH2 0x1A3 JUMPI DUP1 PUSH4 0x8291286C EQ PUSH2 0x1BF JUMPI PUSH2 0xF5 JUMP JUMPDEST DUP1 PUSH4 0x19B4A0F9 EQ PUSH2 0xFA JUMPI DUP1 PUSH4 0x608C2DB5 EQ PUSH2 0x116 JUMPI DUP1 PUSH4 0x613EB17D EQ PUSH2 0x148 JUMPI JUMPDEST PUSH1 0x0 DUP1 REVERT JUMPDEST PUSH2 0x114 PUSH1 0x4 DUP1 CALLDATASIZE SUB DUP2 ADD SWAP1 PUSH2 0x10F SWAP2 SWAP1 PUSH2 0x22BF JUMP JUMPDEST PUSH2 0x2C2 JUMP JUMPDEST STOP JUMPDEST PUSH2 0x130 PUSH1 0x4 DUP1 CALLDATASIZE SUB DUP2 ADD SWAP1 PUSH2 0x12B SWAP2 SWAP1 PUSH2 0x22FF JUMP JUMPDEST PUSH2 0x63B JUMP JUMPDEST PUSH1 0x40 MLOAD PUSH2 0x13F SWAP4 SWAP3 SWAP2 SWAP1 PUSH2 0x23DA JUMP JUMPDEST PUSH1 0x40 MLOAD DUP1 SWAP2 SUB SWAP1 RETURN JUMPDEST PUSH2 0x162 PUSH1 0x4 DUP1 CALLDATASIZE SUB DUP2 ADD SWAP1 PUSH2 0x15D SWAP2 SWAP1 PUSH2 0x22FF JUMP JUMPDEST PUSH2 0x70A JUMP JUMPDEST PUSH1 0x40 MLOAD PUSH2 0x174 SWAP7 SWAP6 SWAP5 SWAP4 SWAP3 SWAP2 SWAP1 PUSH2 0x2527 JUMP JUMPDEST PUSH1 0x40 MLOAD DUP1 SWAP2 SUB SWAP1 RETURN JUMPDEST PUSH2 0x197 PUSH1 0x4 DUP1 CALLDATASIZE SUB DUP2 ADD SWAP1 PUSH2 0x192 SWAP2 SWAP1 PUSH2 0x25F4 JUMP JUMPDEST PUSH2 0x815 JUMP JUMPDEST STOP JUMPDEST PUSH2 0x1A1 PUSH2 0x99D JUMP JUMPDEST STOP JUMPDEST PUSH2 0x1BD PUSH1 0x4 DUP1 CALLDATASIZE SUB DUP2 ADD SWAP1 PUSH2 0x1B8 SWAP2 SWAP1 PUSH2 0x2680 JUMP JUMPDEST PUSH2 0x9B1 JUMP JUMPDEST STOP JUMPDEST PUSH2 0x1C7 PUSH2 0xA34 JUMP JUMPDEST PUSH1 0x40 MLOAD PUSH2 0x1D4 SWAP2 SWAP1 PUSH2 0x26AD JUMP JUMPDEST PUSH1 0x40 MLOAD DUP1 SWAP2 SUB SWAP1 RETURN JUMPDEST PUSH2 0x1E5 PUSH2 0xA3A JUMP JUMPDEST PUSH1 0x40 MLOAD PUSH2 0x1F2 SWAP2 SWAP1 PUSH2 0x26C8 JUMP JUMPDEST PUSH1 0x40 MLOAD DUP1 SWAP2 SUB SWAP1 RETURN JUMPDEST PUSH2 0x215 PUSH1 0x4 DUP1 CALLDATASIZE SUB DUP2 ADD SWAP1 PUSH2 0x210 SWAP2 SWAP1 PUSH2 0x22FF JUMP JUMPDEST PUSH2 0xA63 JUMP JUMPDEST STOP JUMPDEST PUSH2 0x231 PUSH1 0x4 DUP1 CALLDATASIZE SUB DUP2 ADD SWAP1 PUSH2 0x22C SWAP2 SWAP1 PUSH2 0x270F JUMP JUMPDEST PUSH2 0xDCB JUMP JUMPDEST STOP JUMPDEST PUSH2 0x24D PUSH1 0x4 DUP1 CALLDATASIZE SUB DUP2 ADD SWAP1 PUSH2 0x248 SWAP2 SWAP1 PUSH2 0x22BF JUMP JUMPDEST PUSH2 0xE74 JUMP JUMPDEST STOP JUMPDEST PUSH2 0x269 PUSH1 0x4 DUP1 CALLDATASIZE SUB DUP2 ADD SWAP1 PUSH2 0x264 SWAP2 SWAP1 PUSH2 0x2768 JUMP JUMPDEST PUSH2 0x11ED JUMP JUMPDEST STOP JUMPDEST PUSH2 0x273 PUSH2 0x1663 JUMP JUMPDEST PUSH1 0x40 MLOAD PUSH2 0x281 SWAP3 SWAP2 SWAP1 PUSH2 0x27DC JUMP JUMPDEST PUSH1 0x40 MLOAD DUP1 SWAP2 SUB SWAP1 RETURN JUMPDEST PUSH2 0x2A4 PUSH1 0x4 DUP1 CALLDATASIZE SUB DUP2 ADD SWAP1 PUSH2 0x29F SWAP2 SWAP1 PUSH2 0x2680 JUMP JUMPDEST PUSH2 0x1A5A JUMP JUMPDEST STOP JUMPDEST PUSH2 0x2C0 PUSH1 0x4 DUP1 CALLDATASIZE SUB DUP2 ADD SWAP1 PUSH2 0x2BB SWAP2 SWAP1 PUSH2 0x280C JUMP JUMPDEST PUSH2 0x1ADD JUMP JUMPDEST STOP JUMPDEST PUSH1 0x0 PUSH20 0xFFFFFFFFFFFFFFFFFFFFFFFFFFFFFFFFFFFFFFFF AND PUSH1 0x5 PUSH1 0x0 SWAP1 SLOAD SWAP1 PUSH2 0x100 EXP SWAP1 DIV PUSH20 0xFFFFFFFFFFFFFFFFFFFFFFFFFFFFFFFFFFFFFFFF AND PUSH20 0xFFFFFFFFFFFFFFFFFFFFFFFFFFFFFFFFFFFFFFFF AND SUB PUSH2 0x353 JUMPI PUSH1 0x40 MLOAD PUSH32 0x8C379A000000000000000000000000000000000000000000000000000000000 DUP2 MSTORE PUSH1 0x4 ADD PUSH2 0x34A SWAP1 PUSH2 0x2898 JUMP JUMPDEST PUSH1 0x40 MLOAD DUP1 SWAP2 SUB SWAP1 REVERT JUMPDEST PUSH1 0x5 PUSH1 0x0 SWAP1 SLOAD SWAP1 PUSH2 0x100 EXP SWAP1 DIV PUSH20 0xFFFFFFFFFFFFFFFFFFFFFFFFFFFFFFFFFFFFFFFF AND PUSH20 0xFFFFFFFFFFFFFFFFFFFFFFFFFFFFFFFFFFFFFFFF AND CALLER PUSH20 0xFFFFFFFFFFFFFFFFFFFFFFFFFFFFFFFFFFFFFFFF AND EQ PUSH2 0x3E3 JUMPI PUSH1 0x40 MLOAD PUSH32 0x8C379A000000000000000000000000000000000000000000000000000000000 DUP2 MSTORE PUSH1 0x4 ADD PUSH2 0x3DA SWAP1 PUSH2 0x2904 JUMP JUMPDEST PUSH1 0x40 MLOAD DUP1 SWAP2 SUB SWAP1 REVERT JUMPDEST DUP2 PUSH1 0x2 DUP1 PUSH1 0x4 DUP2 GT ISZERO PUSH2 0x3F9 JUMPI PUSH2 0x3F8 PUSH2 0x24B0 JUMP JUMPDEST JUMPDEST PUSH1 0x1 PUSH1 0x0 DUP5 DUP2 MSTORE PUSH1 0x20 ADD SWAP1 DUP2 MSTORE PUSH1 0x20 ADD PUSH1 0x0 KECCAK256 PUSH1 0x4 ADD PUSH1 0x0 SWAP1 SLOAD SWAP1 PUSH2 0x100 EXP SWAP1 DIV PUSH1 0xFF AND PUSH1 0x4 DUP2 GT ISZERO PUSH2 0x42F JUMPI PUSH2 0x42E PUSH2 0x24B0 JUMP JUMPDEST JUMPDEST EQ PUSH2 0x46F JUMPI PUSH1 0x40 MLOAD PUSH32 0x8C379A000000000000000000000000000000000000000000000000000000000 DUP2 MSTORE PUSH1 0x4 ADD PUSH2 0x466 SWAP1 PUSH2 0x2970 JUMP JUMPDEST PUSH1 0x40 MLOAD DUP1 SWAP2 SUB SWAP1 REVERT JUMPDEST PUSH1 0x0 DUP1 PUSH1 0x0 DUP1 PUSH2 0x47E DUP9 PUSH2 0x1ECF JUMP JUMPDEST SWAP4 POP SWAP4 POP SWAP4 POP SWAP4 POP DUP7 ISZERO PUSH2 0x50F JUMPI PUSH1 0x3 PUSH1 0x1 PUSH1 0x0 DUP11 DUP2 MSTORE PUSH1 0x20 ADD SWAP1 DUP2 MSTORE PUSH1 0x20 ADD PUSH1 0x0 KECCAK256 PUSH1 0x4 ADD PUSH1 0x0 PUSH2 0x100 EXP DUP2 SLOAD DUP2 PUSH1 0xFF MUL NOT AND SWAP1 DUP4 PUSH1 0x4 DUP2 GT ISZERO PUSH2 0x4C6 JUMPI PUSH2 0x4C5 PUSH2 0x24B0 JUMP JUMPDEST JUMPDEST MUL OR SWAP1 SSTORE POP PUSH32 0xFC0E41F3F5D509CF16934162C0FB5020DB934AE90A7498D8B479568589FFCCD1 DUP9 DUP6 DUP6 DUP6 DUP6 PUSH1 0x40 MLOAD PUSH2 0x502 SWAP6 SWAP5 SWAP4 SWAP3 SWAP2 SWAP1 PUSH2 0x2990 JUMP JUMPDEST PUSH1 0x40 MLOAD DUP1 SWAP2 SUB SWAP1 LOG1 PUSH2 0x631 JUMP JUMPDEST PUSH1 0x1 PUSH1 0x0 DUP10 DUP2 MSTORE PUSH1 0x20 ADD SWAP1 DUP2 MSTORE PUSH1 0x20 ADD PUSH1 0x0 KECCAK256 PUSH1 0x0 DUP1 DUP3 ADD PUSH1 0x0 PUSH2 0x100 EXP DUP2 SLOAD SWAP1 PUSH1 0xFF MUL NOT AND SWAP1 SSTORE PUSH1 0x0 DUP3 ADD PUSH1 0x1 PUSH2 0x100 EXP DUP2 SLOAD SWAP1 PUSH20 0xFFFFFFFFFFFFFFFFFFFFFFFFFFFFFFFFFFFFFFFF MUL NOT AND SWAP1 SSTORE PUSH1 0x1 DUP3 ADD PUSH1 0x0 PUSH2 0x56E SWAP2 SWAP1 PUSH2 0x21E0 JUMP JUMPDEST PUSH1 0x2 DUP3 ADD PUSH1 0x0 PUSH2 0x100 EXP DUP2 SLOAD SWAP1 PUSH20 0xFFFFFFFFFFFFFFFFFFFFFFFFFFFFFFFFFFFFFFFF MUL NOT AND SWAP1 SSTORE PUSH1 0x3 DUP3 ADD PUSH1 0x0 SWAP1 SSTORE PUSH1 0x4 DUP3 ADD PUSH1 0x0 PUSH2 0x100 EXP DUP2 SLOAD SWAP1 PUSH1 0xFF MUL NOT AND SWAP1 SSTORE POP POP PUSH1 0x2 DUP5 PUSH1 0xFF AND DUP2 SLOAD DUP2 LT PUSH2 0x5CA JUMPI PUSH2 0x5C9 PUSH2 0x29F1 JUMP JUMPDEST JUMPDEST SWAP1 PUSH1 0x0 MSTORE PUSH1 0x20 PUSH1 0x0 KECCAK256 SWAP1 PUSH1 0x3 MUL ADD PUSH1 0x2 ADD PUSH1 0x0 DUP2 SLOAD DUP1 SWAP3 SWAP2 SWAP1 PUSH2 0x5EC SWAP1 PUSH2 0x2A4F JUMP JUMPDEST SWAP2 SWAP1 POP SSTORE POP PUSH32 0x18740AEF37E3C4899E9F4D59558109DD1E1DBEB955703C419BEEBDE38696517 DUP9 DUP6 DUP6 DUP6 DUP6 PUSH1 0x40 MLOAD PUSH2 0x628 SWAP6 SWAP5 SWAP4 SWAP3 SWAP2 SWAP1 PUSH2 0x2990 JUMP JUMPDEST PUSH1 0x40 MLOAD DUP1 SWAP2 SUB SWAP1 LOG1 JUMPDEST POP POP POP POP POP POP POP POP JUMP JUMPDEST PUSH1 0x2 DUP2 DUP2 SLOAD DUP2 LT PUSH2 0x64B JUMPI PUSH1 0x0 DUP1 REVERT JUMPDEST SWAP1 PUSH1 0x0 MSTORE PUSH1 0x20 PUSH1 0x0 KECCAK256 SWAP1 PUSH1 0x3 MUL ADD PUSH1 0x0 SWAP2 POP SWAP1 POP DUP1 PUSH1 0x0 ADD DUP1 SLOAD PUSH2 0x66E SWAP1 PUSH2 0x2AA7 JUMP JUMPDEST DUP1 PUSH1 0x1F ADD PUSH1 0x20 DUP1 SWAP2 DIV MUL PUSH1 0x20 ADD PUSH1 0x40 MLOAD SWAP1 DUP2 ADD PUSH1 0x40 MSTORE DUP1 SWAP3 SWAP2 SWAP1 DUP2 DUP2 MSTORE PUSH1 0x20 ADD DUP3 DUP1 SLOAD PUSH2 0x69A SWAP1 PUSH2 0x2AA7 JUMP JUMPDEST DUP1 ISZERO PUSH2 0x6E7 JUMPI DUP1 PUSH1 0x1F LT PUSH2 0x6BC JUMPI PUSH2 0x100 DUP1 DUP4 SLOAD DIV MUL DUP4 MSTORE SWAP2 PUSH1 0x20 ADD SWAP2 PUSH2 0x6E7 JUMP JUMPDEST DUP3 ADD SWAP2 SWAP1 PUSH1 0x0 MSTORE PUSH1 0x20 PUSH1 0x0 KECCAK256 SWAP1 JUMPDEST DUP2 SLOAD DUP2 MSTORE SWAP1 PUSH1 0x1 ADD SWAP1 PUSH1 0x20 ADD DUP1 DUP4 GT PUSH2 0x6CA JUMPI DUP3 SWAP1 SUB PUSH1 0x1F AND DUP3 ADD SWAP2 JUMPDEST POP POP POP POP POP SWAP1 DUP1 PUSH1 0x1 ADD PUSH1 0x0 SWAP1 SLOAD SWAP1 PUSH2 0x100 EXP SWAP1 DIV PUSH1 0xFF AND SWAP1 DUP1 PUSH1 0x2 ADD SLOAD SWAP1 POP DUP4 JUMP JUMPDEST PUSH1 0x1 PUSH1 0x20 MSTORE DUP1 PUSH1 0x0 MSTORE PUSH1 0x40 PUSH1 0x0 KECCAK256 PUSH1 0x0 SWAP2 POP SWAP1 POP DUP1 PUSH1 0x0 ADD PUSH1 0x0 SWAP1 SLOAD SWAP1 PUSH2 0x100 EXP SWAP1 DIV PUSH1 0xFF AND SWAP1 DUP1 PUSH1 0x0 ADD PUSH1 0x1 SWAP1 SLOAD SWAP1 PUSH2 0x100 EXP SWAP1 DIV PUSH1 0x60 SHL SWAP1 DUP1 PUSH1 0x1 ADD DUP1 SLOAD PUSH2 0x753 SWAP1 PUSH2 0x2AA7 JUMP JUMPDEST DUP1 PUSH1 0x1F ADD PUSH1 0x20 DUP1 SWAP2 DIV MUL PUSH1 0x20 ADD PUSH1 0x40 MLOAD SWAP1 DUP2 ADD PUSH1 0x40 MSTORE DUP1 SWAP3 SWAP2 SWAP1 DUP2 DUP2 MSTORE PUSH1 0x20 ADD DUP3 DUP1 SLOAD PUSH2 0x77F SWAP1 PUSH2 0x2AA7 JUMP JUMPDEST DUP1 ISZERO PUSH2 0x7CC JUMPI DUP1 PUSH1 0x1F LT PUSH2 0x7A1 JUMPI PUSH2 0x100 DUP1 DUP4 SLOAD DIV MUL DUP4 MSTORE SWAP2 PUSH1 0x20 ADD SWAP2 PUSH2 0x7CC JUMP JUMPDEST DUP3 ADD SWAP2 SWAP1 PUSH1 0x0 MSTORE PUSH1 0x20 PUSH1 0x0 KECCAK256 SWAP1 JUMPDEST DUP2 SLOAD DUP2 MSTORE SWAP1 PUSH1 0x1 ADD SWAP1 PUSH1 0x20 ADD DUP1 DUP4 GT PUSH2 0x7AF JUMPI DUP3 SWAP1 SUB PUSH1 0x1F AND DUP3 ADD SWAP2 JUMPDEST POP POP POP POP POP SWAP1 DUP1 PUSH1 0x2 ADD PUSH1 0x0 SWAP1 SLOAD SWAP1 PUSH2 0x100 EXP SWAP1 DIV PUSH20 0xFFFFFFFFFFFFFFFFFFFFFFFFFFFFFFFFFFFFFFFF AND SWAP1 DUP1 PUSH1 0x3 ADD SLOAD SWAP1 DUP1 PUSH1 0x4 ADD PUSH1 0x0 SWAP1 SLOAD SWAP1 PUSH2 0x100 EXP SWAP1 DIV PUSH1 0xFF AND SWAP1 POP DUP7 JUMP JUMPDEST PUSH2 0x81D PUSH2 0x2096 JUMP JUMPDEST PUSH1 0x7 PUSH1 0x0 SWAP1 SLOAD SWAP1 PUSH2 0x100 EXP SWAP1 DIV PUSH1 0xFF AND PUSH1 0xFF AND PUSH1 0x2 DUP1 SLOAD SWAP1 POP GT ISZERO PUSH2 0x877 JUMPI PUSH1 0x40 MLOAD PUSH32 0x8C379A000000000000000000000000000000000000000000000000000000000 DUP2 MSTORE PUSH1 0x4 ADD PUSH2 0x86E SWAP1 PUSH2 0x2B24 JUMP JUMPDEST PUSH1 0x40 MLOAD DUP1 SWAP2 SUB SWAP1 REVERT JUMPDEST PUSH1 0x2 PUSH1 0x40 MLOAD DUP1 PUSH1 0x60 ADD PUSH1 0x40 MSTORE DUP1 DUP6 DUP6 DUP1 DUP1 PUSH1 0x1F ADD PUSH1 0x20 DUP1 SWAP2 DIV MUL PUSH1 0x20 ADD PUSH1 0x40 MLOAD SWAP1 DUP2 ADD PUSH1 0x40 MSTORE DUP1 SWAP4 SWAP3 SWAP2 SWAP1 DUP2 DUP2 MSTORE PUSH1 0x20 ADD DUP4 DUP4 DUP1 DUP3 DUP5 CALLDATACOPY PUSH1 0x0 DUP2 DUP5 ADD MSTORE PUSH1 0x1F NOT PUSH1 0x1F DUP3 ADD AND SWAP1 POP DUP1 DUP4 ADD SWAP3 POP POP POP POP POP POP POP DUP2 MSTORE PUSH1 0x20 ADD DUP4 ISZERO ISZERO DUP2 MSTORE PUSH1 0x20 ADD PUSH1 0x0 DUP2 MSTORE POP SWAP1 DUP1 PUSH1 0x1 DUP2 SLOAD ADD DUP1 DUP3 SSTORE DUP1 SWAP2 POP POP PUSH1 0x1 SWAP1 SUB SWAP1 PUSH1 0x0 MSTORE PUSH1 0x20 PUSH1 0x0 KECCAK256 SWAP1 PUSH1 0x3 MUL ADD PUSH1 0x0 SWAP1 SWAP2 SWAP1 SWAP2 SWAP1 SWAP2 POP PUSH1 0x0 DUP3 ADD MLOAD DUP2 PUSH1 0x0 ADD SWAP1 DUP2 PUSH2 0x919 SWAP2 SWAP1 PUSH2 0x2D1F JUMP JUMPDEST POP PUSH1 0x20 DUP3 ADD MLOAD DUP2 PUSH1 0x1 ADD PUSH1 0x0 PUSH2 0x100 EXP DUP2 SLOAD DUP2 PUSH1 0xFF MUL NOT AND SWAP1 DUP4 ISZERO ISZERO MUL OR SWAP1 SSTORE POP PUSH1 0x40 DUP3 ADD MLOAD DUP2 PUSH1 0x2 ADD SSTORE POP POP PUSH1 0x0 PUSH1 0x1 PUSH1 0x2 DUP1 SLOAD SWAP1 POP PUSH2 0x95A SWAP2 SWAP1 PUSH2 0x2DF1 JUMP JUMPDEST SWAP1 POP PUSH32 0x1DEF1861D5991921DAE7E9520A9201FC401EE5942E01CB2CCFFB1BC0C3F0D0C6 DUP2 DUP6 DUP6 PUSH1 0x40 MLOAD PUSH2 0x98F SWAP4 SWAP3 SWAP2 SWAP1 PUSH2 0x2E61 JUMP JUMPDEST PUSH1 0x40 MLOAD DUP1 SWAP2 SUB SWAP1 LOG1 POP POP POP POP JUMP JUMPDEST PUSH2 0x9A5 PUSH2 0x2096 JUMP JUMPDEST PUSH2 0x9AF PUSH1 0x0 PUSH2 0x2114 JUMP JUMPDEST JUMP JUMPDEST PUSH2 0x9B9 PUSH2 0x2096 JUMP JUMPDEST DUP1 PUSH1 0x5 PUSH1 0x0 PUSH2 0x100 EXP DUP2 SLOAD DUP2 PUSH20 0xFFFFFFFFFFFFFFFFFFFFFFFFFFFFFFFFFFFFFFFF MUL NOT AND SWAP1 DUP4 PUSH20 0xFFFFFFFFFFFFFFFFFFFFFFFFFFFFFFFFFFFFFFFF AND MUL OR SWAP1 SSTORE POP PUSH32 0x807DC19E171652591D023395BFC818727564B07291B9E0B9DE995C9138D179F1 DUP2 PUSH1 0x40 MLOAD PUSH2 0xA29 SWAP2 SWAP1 PUSH2 0x26C8 JUMP JUMPDEST PUSH1 0x40 MLOAD DUP1 SWAP2 SUB SWAP1 LOG1 POP JUMP JUMPDEST PUSH1 0x6 SLOAD DUP2 JUMP JUMPDEST PUSH1 0x0 DUP1 PUSH1 0x0 SWAP1 SLOAD SWAP1 PUSH2 0x100 EXP SWAP1 DIV PUSH20 0xFFFFFFFFFFFFFFFFFFFFFFFFFFFFFFFFFFFFFFFF AND SWAP1 POP SWAP1 JUMP JUMPDEST PUSH1 0x0 PUSH20 0xFFFFFFFFFFFFFFFFFFFFFFFFFFFFFFFFFFFFFFFF AND PUSH1 0x5 PUSH1 0x0 SWAP1 SLOAD SWAP1 PUSH2 0x100 EXP SWAP1 DIV PUSH20 0xFFFFFFFFFFFFFFFFFFFFFFFFFFFFFFFFFFFFFFFF AND PUSH20 0xFFFFFFFFFFFFFFFFFFFFFFFFFFFFFFFFFFFFFFFF AND SUB PUSH2 0xAF4 JUMPI PUSH1 0x40 MLOAD PUSH32 0x8C379A000000000000000000000000000000000000000000000000000000000 DUP2 MSTORE PUSH1 0x4 ADD PUSH2 0xAEB SWAP1 PUSH2 0x2898 JUMP JUMPDEST PUSH1 0x40 MLOAD DUP1 SWAP2 SUB SWAP1 REVERT JUMPDEST DUP1 CALLER PUSH20 0xFFFFFFFFFFFFFFFFFFFFFFFFFFFFFFFFFFFFFFFF AND PUSH1 0x1 PUSH1 0x0 DUP4 DUP2 MSTORE PUSH1 0x20 ADD SWAP1 DUP2 MSTORE PUSH1 0x20 ADD PUSH1 0x0 KECCAK256 PUSH1 0x2 ADD PUSH1 0x0 SWAP1 SLOAD SWAP1 PUSH2 0x100 EXP SWAP1 DIV PUSH20 0xFFFFFFFFFFFFFFFFFFFFFFFFFFFFFFFFFFFFFFFF AND PUSH20 0xFFFFFFFFFFFFFFFFFFFFFFFFFFFFFFFFFFFFFFFF AND EQ PUSH2 0xB99 JUMPI PUSH1 0x40 MLOAD PUSH32 0x8C379A000000000000000000000000000000000000000000000000000000000 DUP2 MSTORE PUSH1 0x4 ADD PUSH2 0xB90 SWAP1 PUSH2 0x2EDF JUMP JUMPDEST PUSH1 0x40 MLOAD DUP1 SWAP2 SUB SWAP1 REVERT JUMPDEST DUP2 PUSH1 0x3 DUP1 PUSH1 0x4 DUP2 GT ISZERO PUSH2 0xBAF JUMPI PUSH2 0xBAE PUSH2 0x24B0 JUMP JUMPDEST JUMPDEST PUSH1 0x1 PUSH1 0x0 DUP5 DUP2 MSTORE PUSH1 0x20 ADD SWAP1 DUP2 MSTORE PUSH1 0x20 ADD PUSH1 0x0 KECCAK256 PUSH1 0x4 ADD PUSH1 0x0 SWAP1 SLOAD SWAP1 PUSH2 0x100 EXP SWAP1 DIV PUSH1 0xFF AND PUSH1 0x4 DUP2 GT ISZERO PUSH2 0xBE5 JUMPI PUSH2 0xBE4 PUSH2 0x24B0 JUMP JUMPDEST JUMPDEST EQ PUSH2 0xC25 JUMPI PUSH1 0x40 MLOAD PUSH32 0x8C379A000000000000000000000000000000000000000000000000000000000 DUP2 MSTORE PUSH1 0x4 ADD PUSH2 0xC1C SWAP1 PUSH2 0x2970 JUMP JUMPDEST PUSH1 0x40 MLOAD DUP1 SWAP2 SUB SWAP1 REVERT JUMPDEST PUSH1 0x0 DUP1 PUSH1 0x0 DUP1 PUSH2 0xC34 DUP9 PUSH2 0x1ECF JUMP JUMPDEST SWAP4 POP SWAP4 POP SWAP4 POP SWAP4 POP PUSH1 0x2 DUP5 PUSH1 0xFF AND DUP2 SLOAD DUP2 LT PUSH2 0xC53 JUMPI PUSH2 0xC52 PUSH2 0x29F1 JUMP JUMPDEST JUMPDEST SWAP1 PUSH1 0x0 MSTORE PUSH1 0x20 PUSH1 0x0 KECCAK256 SWAP1 PUSH1 0x3 MUL ADD PUSH1 0x2 ADD PUSH1 0x0 DUP2 SLOAD DUP1 SWAP3 SWAP2 SWAP1 PUSH2 0xC75 SWAP1 PUSH2 0x2A4F JUMP JUMPDEST SWAP2 SWAP1 POP SSTORE POP PUSH1 0x4 PUSH1 0x1 PUSH1 0x0 DUP11 DUP2 MSTORE PUSH1 0x20 ADD SWAP1 DUP2 MSTORE PUSH1 0x20 ADD PUSH1 0x0 KECCAK256 PUSH1 0x4 ADD PUSH1 0x0 PUSH2 0x100 EXP DUP2 SLOAD DUP2 PUSH1 0xFF MUL NOT AND SWAP1 DUP4 PUSH1 0x4 DUP2 GT ISZERO PUSH2 0xCB4 JUMPI PUSH2 0xCB3 PUSH2 0x24B0 JUMP JUMPDEST JUMPDEST MUL OR SWAP1 SSTORE POP PUSH1 0x5 PUSH1 0x0 SWAP1 SLOAD SWAP1 PUSH2 0x100 EXP SWAP1 DIV PUSH20 0xFFFFFFFFFFFFFFFFFFFFFFFFFFFFFFFFFFFFFFFF AND PUSH20 0xFFFFFFFFFFFFFFFFFFFFFFFFFFFFFFFFFFFFFFFF AND PUSH4 0x8540A2C DUP10 DUP6 DUP6 PUSH1 0x1 PUSH1 0x0 DUP15 DUP2 MSTORE PUSH1 0x20 ADD SWAP1 DUP2 MSTORE PUSH1 0x20 ADD PUSH1 0x0 KECCAK256 PUSH1 0x2 ADD PUSH1 0x0 SWAP1 SLOAD SWAP1 PUSH2 0x100 EXP SWAP1 DIV PUSH20 0xFFFFFFFFFFFFFFFFFFFFFFFFFFFFFFFFFFFFFFFF AND PUSH1 0x40 MLOAD DUP6 PUSH4 0xFFFFFFFF AND PUSH1 0xE0 SHL DUP2 MSTORE PUSH1 0x4 ADD PUSH2 0xD50 SWAP5 SWAP4 SWAP3 SWAP2 SWAP1 PUSH2 0x2EFF JUMP JUMPDEST PUSH1 0x0 PUSH1 0x40 MLOAD DUP1 DUP4 SUB DUP2 PUSH1 0x0 DUP8 DUP1 EXTCODESIZE ISZERO DUP1 ISZERO PUSH2 0xD6A JUMPI PUSH1 0x0 DUP1 REVERT JUMPDEST POP GAS CALL ISZERO DUP1 ISZERO PUSH2 0xD7E JUMPI RETURNDATASIZE PUSH1 0x0 DUP1 RETURNDATACOPY RETURNDATASIZE PUSH1 0x0 REVERT JUMPDEST POP POP POP POP PUSH32 0x628ABCDB4E4B579CC58315017CFC6A5853FDB6AC143FCA00A6D0B28A73A0F540 DUP9 DUP6 DUP6 DUP6 DUP6 PUSH1 0x40 MLOAD PUSH2 0xDB9 SWAP6 SWAP5 SWAP4 SWAP3 SWAP2 SWAP1 PUSH2 0x2990 JUMP JUMPDEST PUSH1 0x40 MLOAD DUP1 SWAP2 SUB SWAP1 LOG1 POP POP POP POP POP POP POP POP JUMP JUMPDEST PUSH2 0xDD3 PUSH2 0x2096 JUMP JUMPDEST DUP1 PUSH1 0x4 DUP1 SLOAD SWAP1 POP DUP2 PUSH1 0xFF AND LT PUSH2 0xE1E JUMPI PUSH1 0x40 MLOAD PUSH32 0x8C379A000000000000000000000000000000000000000000000000000000000 DUP2 MSTORE PUSH1 0x4 ADD PUSH2 0xE15 SWAP1 PUSH2 0x2F97 JUMP JUMPDEST PUSH1 0x40 MLOAD DUP1 SWAP2 SUB SWAP1 REVERT JUMPDEST DUP2 PUSH1 0x3 PUSH1 0x0 PUSH2 0x100 EXP DUP2 SLOAD DUP2 PUSH1 0xFF MUL NOT AND SWAP1 DUP4 PUSH1 0xFF AND MUL OR SWAP1 SSTORE POP PUSH32 0x987A3408E00935D1EB359FD8812975019AC50BAD81A9B01CDDFA171579C848BA DUP3 PUSH1 0x40 MLOAD PUSH2 0xE68 SWAP2 SWAP1 PUSH2 0x2FB7 JUMP JUMPDEST PUSH1 0x40 MLOAD DUP1 SWAP2 SUB SWAP1 LOG1 POP POP JUMP JUMPDEST PUSH1 0x0 PUSH20 0xFFFFFFFFFFFFFFFFFFFFFFFFFFFFFFFFFFFFFFFF AND PUSH1 0x5 PUSH1 0x0 SWAP1 SLOAD SWAP1 PUSH2 0x100 EXP SWAP1 DIV PUSH20 0xFFFFFFFFFFFFFFFFFFFFFFFFFFFFFFFFFFFFFFFF AND PUSH20 0xFFFFFFFFFFFFFFFFFFFFFFFFFFFFFFFFFFFFFFFF AND SUB PUSH2 0xF05 JUMPI PUSH1 0x40 MLOAD PUSH32 0x8C379A000000000000000000000000000000000000000000000000000000000 DUP2 MSTORE PUSH1 0x4 ADD PUSH2 0xEFC SWAP1 PUSH2 0x2898 JUMP JUMPDEST PUSH1 0x40 MLOAD DUP1 SWAP2 SUB SWAP1 REVERT JUMPDEST PUSH1 0x5 PUSH1 0x0 SWAP1 SLOAD SWAP1 PUSH2 0x100 EXP SWAP1 DIV PUSH20 0xFFFFFFFFFFFFFFFFFFFFFFFFFFFFFFFFFFFFFFFF AND PUSH20 0xFFFFFFFFFFFFFFFFFFFFFFFFFFFFFFFFFFFFFFFF AND CALLER PUSH20 0xFFFFFFFFFFFFFFFFFFFFFFFFFFFFFFFFFFFFFFFF AND EQ PUSH2 0xF95 JUMPI PUSH1 0x40 MLOAD PUSH32 0x8C379A000000000000000000000000000000000000000000000000000000000 DUP2 MSTORE PUSH1 0x4 ADD PUSH2 0xF8C SWAP1 PUSH2 0x2904 JUMP JUMPDEST PUSH1 0x40 MLOAD DUP1 SWAP2 SUB SWAP1 REVERT JUMPDEST DUP2 PUSH1 0x4 DUP1 PUSH1 0x4 DUP2 GT ISZERO PUSH2 0xFAB JUMPI PUSH2 0xFAA PUSH2 0x24B0 JUMP JUMPDEST JUMPDEST PUSH1 0x1 PUSH1 0x0 DUP5 DUP2 MSTORE PUSH1 0x20 ADD SWAP1 DUP2 MSTORE PUSH1 0x20 ADD PUSH1 0x0 KECCAK256 PUSH1 0x4 ADD PUSH1 0x0 SWAP1 SLOAD SWAP1 PUSH2 0x100 EXP SWAP1 DIV PUSH1 0xFF AND PUSH1 0x4 DUP2 GT ISZERO PUSH2 0xFE1 JUMPI PUSH2 0xFE0 PUSH2 0x24B0 JUMP JUMPDEST JUMPDEST EQ PUSH2 0x1021 JUMPI PUSH1 0x40 MLOAD PUSH32 0x8C379A000000000000000000000000000000000000000000000000000000000 DUP2 MSTORE PUSH1 0x4 ADD PUSH2 0x1018 SWAP1 PUSH2 0x2970 JUMP JUMPDEST PUSH1 0x40 MLOAD DUP1 SWAP2 SUB SWAP1 REVERT JUMPDEST PUSH1 0x0 DUP1 PUSH1 0x0 DUP1 PUSH2 0x1030 DUP9 PUSH2 0x1ECF JUMP JUMPDEST SWAP4 POP SWAP4 POP SWAP4 POP SWAP4 POP DUP7 ISZERO PUSH2 0x1126 JUMPI PUSH1 0x1 PUSH1 0x0 DUP10 DUP2 MSTORE PUSH1 0x20 ADD SWAP1 DUP2 MSTORE PUSH1 0x20 ADD PUSH1 0x0 KECCAK256 PUSH1 0x0 DUP1 DUP3 ADD PUSH1 0x0 PUSH2 0x100 EXP DUP2 SLOAD SWAP1 PUSH1 0xFF MUL NOT AND SWAP1 SSTORE PUSH1 0x0 DUP3 ADD PUSH1 0x1 PUSH2 0x100 EXP DUP2 SLOAD SWAP1 PUSH20 0xFFFFFFFFFFFFFFFFFFFFFFFFFFFFFFFFFFFFFFFF MUL NOT AND SWAP1 SSTORE PUSH1 0x1 DUP3 ADD PUSH1 0x0 PUSH2 0x109D SWAP2 SWAP1 PUSH2 0x21E0 JUMP JUMPDEST PUSH1 0x2 DUP3 ADD PUSH1 0x0 PUSH2 0x100 EXP DUP2 SLOAD SWAP1 PUSH20 0xFFFFFFFFFFFFFFFFFFFFFFFFFFFFFFFFFFFFFFFF MUL NOT AND SWAP1 SSTORE PUSH1 0x3 DUP3 ADD PUSH1 0x0 SWAP1 SSTORE PUSH1 0x4 DUP3 ADD PUSH1 0x0 PUSH2 0x100 EXP DUP2 SLOAD SWAP1 PUSH1 0xFF MUL NOT AND SWAP1 SSTORE POP POP PUSH32 0x34F974022181AAE39AA96D8758F573CB067A8B910EDC151F1C7E4227FDA5A3D6 DUP9 DUP6 DUP6 DUP6 DUP6 PUSH1 0x40 MLOAD PUSH2 0x1119 SWAP6 SWAP5 SWAP4 SWAP3 SWAP2 SWAP1 PUSH2 0x2990 JUMP JUMPDEST PUSH1 0x40 MLOAD DUP1 SWAP2 SUB SWAP1 LOG1 PUSH2 0x11E3 JUMP JUMPDEST PUSH1 0x2 DUP5 PUSH1 0xFF AND DUP2 SLOAD DUP2 LT PUSH2 0x113D JUMPI PUSH2 0x113C PUSH2 0x29F1 JUMP JUMPDEST JUMPDEST SWAP1 PUSH1 0x0 MSTORE PUSH1 0x20 PUSH1 0x0 KECCAK256 SWAP1 PUSH1 0x3 MUL ADD PUSH1 0x2 ADD PUSH1 0x0 DUP2 SLOAD DUP1 SWAP3 SWAP2 SWAP1 PUSH2 0x115F SWAP1 PUSH2 0x2FD2 JUMP JUMPDEST SWAP2 SWAP1 POP SSTORE POP PUSH1 0x3 PUSH1 0x1 PUSH1 0x0 DUP11 DUP2 MSTORE PUSH1 0x20 ADD SWAP1 DUP2 MSTORE PUSH1 0x20 ADD PUSH1 0x0 KECCAK256 PUSH1 0x4 ADD PUSH1 0x0 PUSH2 0x100 EXP DUP2 SLOAD DUP2 PUSH1 0xFF MUL NOT AND SWAP1 DUP4 PUSH1 0x4 DUP2 GT ISZERO PUSH2 0x119E JUMPI PUSH2 0x119D PUSH2 0x24B0 JUMP JUMPDEST JUMPDEST MUL OR SWAP1 SSTORE POP PUSH32 0x5D6D4A8AFD86AEEA9D8F976D1E848289B569D5DD41B052C21BBE97BE23D2A339 DUP9 DUP6 DUP6 DUP6 DUP6 PUSH1 0x40 MLOAD PUSH2 0x11DA SWAP6 SWAP5 SWAP4 SWAP3 SWAP2 SWAP1 PUSH2 0x2990 JUMP JUMPDEST PUSH1 0x40 MLOAD DUP1 SWAP2 SUB SWAP1 LOG1 JUMPDEST POP POP POP POP POP POP POP POP JUMP JUMPDEST PUSH1 0x0 PUSH20 0xFFFFFFFFFFFFFFFFFFFFFFFFFFFFFFFFFFFFFFFF AND PUSH1 0x5 PUSH1 0x0 SWAP1 SLOAD SWAP1 PUSH2 0x100 EXP SWAP1 DIV PUSH20 0xFFFFFFFFFFFFFFFFFFFFFFFFFFFFFFFFFFFFFFFF AND PUSH20 0xFFFFFFFFFFFFFFFFFFFFFFFFFFFFFFFFFFFFFFFF AND SUB PUSH2 0x127E JUMPI PUSH1 0x40 MLOAD PUSH32 0x8C379A000000000000000000000000000000000000000000000000000000000 DUP2 MSTORE PUSH1 0x4 ADD PUSH2 0x1275 SWAP1 PUSH2 0x2898 JUMP JUMPDEST PUSH1 0x40 MLOAD DUP1 SWAP2 SUB SWAP1 REVERT JUMPDEST DUP4 CALLER PUSH20 0xFFFFFFFFFFFFFFFFFFFFFFFFFFFFFFFFFFFFFFFF AND PUSH1 0x1 PUSH1 0x0 DUP4 DUP2 MSTORE PUSH1 0x20 ADD SWAP1 DUP2 MSTORE PUSH1 0x20 ADD PUSH1 0x0 KECCAK256 PUSH1 0x2 ADD PUSH1 0x0 SWAP1 SLOAD SWAP1 PUSH2 0x100 EXP SWAP1 DIV PUSH20 0xFFFFFFFFFFFFFFFFFFFFFFFFFFFFFFFFFFFFFFFF AND PUSH20 0xFFFFFFFFFFFFFFFFFFFFFFFFFFFFFFFFFFFFFFFF AND EQ PUSH2 0x1323 JUMPI PUSH1 0x40 MLOAD PUSH32 0x8C379A000000000000000000000000000000000000000000000000000000000 DUP2 MSTORE PUSH1 0x4 ADD PUSH2 0x131A SWAP1 PUSH2 0x2EDF JUMP JUMPDEST PUSH1 0x40 MLOAD DUP1 SWAP2 SUB SWAP1 REVERT JUMPDEST DUP5 PUSH1 0x1 DUP1 PUSH1 0x4 DUP2 GT ISZERO PUSH2 0x1339 JUMPI PUSH2 0x1338 PUSH2 0x24B0 JUMP JUMPDEST JUMPDEST PUSH1 0x1 PUSH1 0x0 DUP5 DUP2 MSTORE PUSH1 0x20 ADD SWAP1 DUP2 MSTORE PUSH1 0x20 ADD PUSH1 0x0 KECCAK256 PUSH1 0x4 ADD PUSH1 0x0 SWAP1 SLOAD SWAP1 PUSH2 0x100 EXP SWAP1 DIV PUSH1 0xFF AND PUSH1 0x4 DUP2 GT ISZERO PUSH2 0x136F JUMPI PUSH2 0x136E PUSH2 0x24B0 JUMP JUMPDEST JUMPDEST EQ PUSH2 0x13AF JUMPI PUSH1 0x40 MLOAD PUSH32 0x8C379A000000000000000000000000000000000000000000000000000000000 DUP2 MSTORE PUSH1 0x4 ADD PUSH2 0x13A6 SWAP1 PUSH2 0x2970 JUMP JUMPDEST PUSH1 0x40 MLOAD DUP1 SWAP2 SUB SWAP1 REVERT JUMPDEST PUSH1 0x0 PUSH1 0x1 PUSH1 0x0 DUP10 DUP2 MSTORE PUSH1 0x20 ADD SWAP1 DUP2 MSTORE PUSH1 0x20 ADD PUSH1 0x0 KECCAK256 PUSH1 0x0 ADD PUSH1 0x0 SWAP1 SLOAD SWAP1 PUSH2 0x100 EXP SWAP1 DIV PUSH1 0xFF AND SWAP1 POP PUSH1 0x0 PUSH1 0x2 DUP3 PUSH1 0xFF AND DUP2 SLOAD DUP2 LT PUSH2 0x13F0 JUMPI PUSH2 0x13EF PUSH2 0x29F1 JUMP JUMPDEST JUMPDEST SWAP1 PUSH1 0x0 MSTORE PUSH1 0x20 PUSH1 0x0 KECCAK256 SWAP1 PUSH1 0x3 MUL ADD PUSH1 0x0 ADD DUP1 SLOAD PUSH2 0x140C SWAP1 PUSH2 0x2AA7 JUMP JUMPDEST DUP1 PUSH1 0x1F ADD PUSH1 0x20 DUP1 SWAP2 DIV MUL PUSH1 0x20 ADD PUSH1 0x40 MLOAD SWAP1 DUP2 ADD PUSH1 0x40 MSTORE DUP1 SWAP3 SWAP2 SWAP1 DUP2 DUP2 MSTORE PUSH1 0x20 ADD DUP3 DUP1 SLOAD PUSH2 0x1438 SWAP1 PUSH2 0x2AA7 JUMP JUMPDEST DUP1 ISZERO PUSH2 0x1485 JUMPI DUP1 PUSH1 0x1F LT PUSH2 0x145A JUMPI PUSH2 0x100 DUP1 DUP4 SLOAD DIV MUL DUP4 MSTORE SWAP2 PUSH1 0x20 ADD SWAP2 PUSH2 0x1485 JUMP JUMPDEST DUP3 ADD SWAP2 SWAP1 PUSH1 0x0 MSTORE PUSH1 0x20 PUSH1 0x0 KECCAK256 SWAP1 JUMPDEST DUP2 SLOAD DUP2 MSTORE SWAP1 PUSH1 0x1 ADD SWAP1 PUSH1 0x20 ADD DUP1 DUP4 GT PUSH2 0x1468 JUMPI DUP3 SWAP1 SUB PUSH1 0x1F AND DUP3 ADD SWAP2 JUMPDEST POP POP POP POP POP SWAP1 POP DUP8 PUSH1 0x1 PUSH1 0x0 DUP12 DUP2 MSTORE PUSH1 0x20 ADD SWAP1 DUP2 MSTORE PUSH1 0x20 ADD PUSH1 0x0 KECCAK256 PUSH1 0x0 ADD PUSH1 0x1 PUSH2 0x100 EXP DUP2 SLOAD DUP2 PUSH20 0xFFFFFFFFFFFFFFFFFFFFFFFFFFFFFFFFFFFFFFFF MUL NOT AND SWAP1 DUP4 PUSH1 0x60 SHR MUL OR SWAP1 SSTORE POP DUP7 DUP7 PUSH1 0x1 PUSH1 0x0 DUP13 DUP2 MSTORE PUSH1 0x20 ADD SWAP1 DUP2 MSTORE PUSH1 0x20 ADD PUSH1 0x0 KECCAK256 PUSH1 0x1 ADD SWAP2 DUP3 PUSH2 0x14F3 SWAP3 SWAP2 SWAP1 PUSH2 0x3025 JUMP JUMPDEST POP TIMESTAMP PUSH1 0x1 PUSH1 0x0 DUP12 DUP2 MSTORE PUSH1 0x20 ADD SWAP1 DUP2 MSTORE PUSH1 0x20 ADD PUSH1 0x0 KECCAK256 PUSH1 0x3 ADD DUP2 SWAP1 SSTORE POP PUSH1 0x2 PUSH1 0x1 PUSH1 0x0 DUP12 DUP2 MSTORE PUSH1 0x20 ADD SWAP1 DUP2 MSTORE PUSH1 0x20 ADD PUSH1 0x0 KECCAK256 PUSH1 0x4 ADD PUSH1 0x0 PUSH2 0x100 EXP DUP2 SLOAD DUP2 PUSH1 0xFF MUL NOT AND SWAP1 DUP4 PUSH1 0x4 DUP2 GT ISZERO PUSH2 0x1549 JUMPI PUSH2 0x1548 PUSH2 0x24B0 JUMP JUMPDEST JUMPDEST MUL OR SWAP1 SSTORE POP PUSH1 0x5 PUSH1 0x0 SWAP1 SLOAD SWAP1 PUSH2 0x100 EXP SWAP1 DIV PUSH20 0xFFFFFFFFFFFFFFFFFFFFFFFFFFFFFFFFFFFFFFFF AND PUSH20 0xFFFFFFFFFFFFFFFFFFFFFFFFFFFFFFFFFFFFFFFF AND PUSH4 0x3FDA57A2 DUP11 DUP4 DUP12 PUSH1 0x1 PUSH1 0x0 DUP16 DUP2 MSTORE PUSH1 0x20 ADD SWAP1 DUP2 MSTORE PUSH1 0x20 ADD PUSH1 0x0 KECCAK256 PUSH1 0x2 ADD PUSH1 0x0 SWAP1 SLOAD SWAP1 PUSH2 0x100 EXP SWAP1 DIV PUSH20 0xFFFFFFFFFFFFFFFFFFFFFFFFFFFFFFFFFFFFFFFF AND PUSH1 0x40 MLOAD DUP6 PUSH4 0xFFFFFFFF AND PUSH1 0xE0 SHL DUP2 MSTORE PUSH1 0x4 ADD PUSH2 0x15E5 SWAP5 SWAP4 SWAP3 SWAP2 SWAP1 PUSH2 0x2EFF JUMP JUMPDEST PUSH1 0x0 PUSH1 0x40 MLOAD DUP1 DUP4 SUB DUP2 PUSH1 0x0 DUP8 DUP1 EXTCODESIZE ISZERO DUP1 ISZERO PUSH2 0x15FF JUMPI PUSH1 0x0 DUP1 REVERT JUMPDEST POP GAS CALL ISZERO DUP1 ISZERO PUSH2 0x1613 JUMPI RETURNDATASIZE PUSH1 0x0 DUP1 RETURNDATACOPY RETURNDATASIZE PUSH1 0x0 REVERT JUMPDEST POP POP POP POP PUSH32 0x1C42C890F21CE8A67778DD4A7C3F65F9131AA60FB612E1BCF7A7B7482E88F442 DUP10 DUP4 DUP4 DUP12 DUP12 DUP12 PUSH1 0x40 MLOAD PUSH2 0x1650 SWAP7 SWAP6 SWAP5 SWAP4 SWAP3 SWAP2 SWAP1 PUSH2 0x30F5 JUMP JUMPDEST PUSH1 0x40 MLOAD DUP1 SWAP2 SUB SWAP1 LOG1 POP POP POP POP POP POP POP POP POP JUMP JUMPDEST PUSH1 0x0 PUSH1 0x60 PUSH1 0x0 PUSH1 0x2 DUP1 SLOAD SWAP1 POP GT PUSH2 0x16AF JUMPI PUSH1 0x40 MLOAD PUSH32 0x8C379A000000000000000000000000000000000000000000000000000000000 DUP2 MSTORE PUSH1 0x4 ADD PUSH2 0x16A6 SWAP1 PUSH2 0x31A4 JUMP JUMPDEST PUSH1 0x40 MLOAD DUP1 SWAP2 SUB SWAP1 REVERT JUMPDEST PUSH1 0x0 PUSH2 0x1713 PUSH1 0x4 PUSH1 0x3 PUSH1 0x0 SWAP1 SLOAD SWAP1 PUSH2 0x100 EXP SWAP1 DIV PUSH1 0xFF AND PUSH1 0xFF AND DUP2 SLOAD DUP2 LT PUSH2 0x16DA JUMPI PUSH2 0x16D9 PUSH2 0x29F1 JUMP JUMPDEST JUMPDEST SWAP1 PUSH1 0x0 MSTORE PUSH1 0x20 PUSH1 0x0 KECCAK256 SWAP1 PUSH1 0x4 SWAP2 DUP3 DUP3 DIV ADD SWAP2 SWAP1 MOD PUSH1 0x8 MUL SWAP1 SLOAD SWAP1 PUSH2 0x100 EXP SWAP1 DIV DUP1 ISZERO PUSH2 0x2220 MUL OR PUSH8 0xFFFFFFFFFFFFFFFF AND PUSH4 0xFFFFFFFF AND JUMP JUMPDEST SWAP1 POP PUSH1 0x0 PUSH1 0x40 MLOAD DUP1 PUSH1 0x20 ADD PUSH1 0x40 MSTORE DUP1 PUSH1 0x0 DUP2 MSTORE POP SWAP1 POP PUSH1 0x7 PUSH1 0x0 SWAP1 SLOAD SWAP1 PUSH2 0x100 EXP SWAP1 DIV PUSH1 0xFF AND PUSH1 0xFF AND DUP3 PUSH1 0xFF AND LT ISZERO PUSH2 0x1A11 JUMPI PUSH1 0x2 DUP3 PUSH1 0xFF AND DUP2 SLOAD DUP2 LT PUSH2 0x175D JUMPI PUSH2 0x175C PUSH2 0x29F1 JUMP JUMPDEST JUMPDEST SWAP1 PUSH1 0x0 MSTORE PUSH1 0x20 PUSH1 0x0 KECCAK256 SWAP1 PUSH1 0x3 MUL ADD PUSH1 0x0 ADD DUP1 SLOAD PUSH2 0x1779 SWAP1 PUSH2 0x2AA7 JUMP JUMPDEST DUP1 PUSH1 0x1F ADD PUSH1 0x20 DUP1 SWAP2 DIV MUL PUSH1 0x20 ADD PUSH1 0x40 MLOAD SWAP1 DUP2 ADD PUSH1 0x40 MSTORE DUP1 SWAP3 SWAP2 SWAP1 DUP2 DUP2 MSTORE PUSH1 0x20 ADD DUP3 DUP1 SLOAD PUSH2 0x17A5 SWAP1 PUSH2 0x2AA7 JUMP JUMPDEST DUP1 ISZERO PUSH2 0x17F2 JUMPI DUP1 PUSH1 0x1F LT PUSH2 0x17C7 JUMPI PUSH2 0x100 DUP1 DUP4 SLOAD DIV MUL DUP4 MSTORE SWAP2 PUSH1 0x20 ADD SWAP2 PUSH2 0x17F2 JUMP JUMPDEST DUP3 ADD SWAP2 SWAP1 PUSH1 0x0 MSTORE PUSH1 0x20 PUSH1 0x0 KECCAK256 SWAP1 JUMPDEST DUP2 SLOAD DUP2 MSTORE SWAP1 PUSH1 0x1 ADD SWAP1 PUSH1 0x20 ADD DUP1 DUP4 GT PUSH2 0x17D5 JUMPI DUP3 SWAP1 SUB PUSH1 0x1F AND DUP3 ADD SWAP2 JUMPDEST POP POP POP POP POP SWAP1 POP PUSH1 0x6 PUSH1 0x0 DUP2 SLOAD DUP1 SWAP3 SWAP2 SWAP1 PUSH2 0x180C SWAP1 PUSH2 0x2FD2 JUMP JUMPDEST SWAP2 SWAP1 POP SSTORE POP PUSH1 0x40 MLOAD DUP1 PUSH1 0xC0 ADD PUSH1 0x40 MSTORE DUP1 DUP4 PUSH1 0xFF AND DUP2 MSTORE PUSH1 0x20 ADD PUSH1 0x0 PUSH1 0x60 SHL PUSH12 0xFFFFFFFFFFFFFFFFFFFFFFFF NOT AND DUP2 MSTORE PUSH1 0x20 ADD PUSH1 0x40 MLOAD DUP1 PUSH1 0x20 ADD PUSH1 0x40 MSTORE DUP1 PUSH1 0x0 DUP2 MSTORE POP DUP2 MSTORE PUSH1 0x20 ADD CALLER PUSH20 0xFFFFFFFFFFFFFFFFFFFFFFFFFFFFFFFFFFFFFFFF AND DUP2 MSTORE PUSH1 0x20 ADD PUSH1 0x0 DUP2 MSTORE PUSH1 0x20 ADD PUSH1 0x1 PUSH1 0x4 DUP2 GT ISZERO PUSH2 0x188A JUMPI PUSH2 0x1889 PUSH2 0x24B0 JUMP JUMPDEST JUMPDEST DUP2 MSTORE POP PUSH1 0x1 PUSH1 0x0 PUSH1 0x6 SLOAD DUP2 MSTORE PUSH1 0x20 ADD SWAP1 DUP2 MSTORE PUSH1 0x20 ADD PUSH1 0x0 KECCAK256 PUSH1 0x0 DUP3 ADD MLOAD DUP2 PUSH1 0x0 ADD PUSH1 0x0 PUSH2 0x100 EXP DUP2 SLOAD DUP2 PUSH1 0xFF MUL NOT AND SWAP1 DUP4 PUSH1 0xFF AND MUL OR SWAP1 SSTORE POP PUSH1 0x20 DUP3 ADD MLOAD DUP2 PUSH1 0x0 ADD PUSH1 0x1 PUSH2 0x100 EXP DUP2 SLOAD DUP2 PUSH20 0xFFFFFFFFFFFFFFFFFFFFFFFFFFFFFFFFFFFFFFFF MUL NOT AND SWAP1 DUP4 PUSH1 0x60 SHR MUL OR SWAP1 SSTORE POP PUSH1 0x40 DUP3 ADD MLOAD DUP2 PUSH1 0x1 ADD SWAP1 DUP2 PUSH2 0x190C SWAP2 SWAP1 PUSH2 0x2D1F JUMP JUMPDEST POP PUSH1 0x60 DUP3 ADD MLOAD DUP2 PUSH1 0x2 ADD PUSH1 0x0 PUSH2 0x100 EXP DUP2 SLOAD DUP2 PUSH20 0xFFFFFFFFFFFFFFFFFFFFFFFFFFFFFFFFFFFFFFFF MUL NOT AND SWAP1 DUP4 PUSH20 0xFFFFFFFFFFFFFFFFFFFFFFFFFFFFFFFFFFFFFFFF AND MUL OR SWAP1 SSTORE POP PUSH1 0x80 DUP3 ADD MLOAD DUP2 PUSH1 0x3 ADD SSTORE PUSH1 0xA0 DUP3 ADD MLOAD DUP2 PUSH1 0x4 ADD PUSH1 0x0 PUSH2 0x100 EXP DUP2 SLOAD DUP2 PUSH1 0xFF MUL NOT AND SWAP1 DUP4 PUSH1 0x4 DUP2 GT ISZERO PUSH2 0x1989 JUMPI PUSH2 0x1988 PUSH2 0x24B0 JUMP JUMPDEST JUMPDEST MUL OR SWAP1 SSTORE POP SWAP1 POP POP PUSH1 0x2 DUP3 PUSH1 0xFF AND DUP2 SLOAD DUP2 LT PUSH2 0x19A8 JUMPI PUSH2 0x19A7 PUSH2 0x29F1 JUMP JUMPDEST JUMPDEST SWAP1 PUSH1 0x0 MSTORE PUSH1 0x20 PUSH1 0x0 KECCAK256 SWAP1 PUSH1 0x3 MUL ADD PUSH1 0x2 ADD PUSH1 0x0 DUP2 SLOAD DUP1 SWAP3 SWAP2 SWAP1 PUSH2 0x19CA SWAP1 PUSH2 0x2FD2 JUMP JUMPDEST SWAP2 SWAP1 POP SSTORE POP PUSH32 0x7BDDC540FB75CC1614FE9CA62CB4543CFD8B8E10F91AD21EAC54E165E6892587 PUSH1 0x6 SLOAD DUP4 DUP4 PUSH1 0x40 MLOAD PUSH2 0x1A04 SWAP4 SWAP3 SWAP2 SWAP1 PUSH2 0x31C4 JUMP JUMPDEST PUSH1 0x40 MLOAD DUP1 SWAP2 SUB SWAP1 LOG1 PUSH2 0x1A4C JUMP JUMPDEST PUSH1 0x40 MLOAD PUSH32 0x8C379A000000000000000000000000000000000000000000000000000000000 DUP2 MSTORE PUSH1 0x4 ADD PUSH2 0x1A43 SWAP1 PUSH2 0x324E JUMP JUMPDEST PUSH1 0x40 MLOAD DUP1 SWAP2 SUB SWAP1 REVERT JUMPDEST PUSH1 0x6 SLOAD DUP2 SWAP4 POP SWAP4 POP POP POP SWAP1 SWAP2 JUMP JUMPDEST PUSH2 0x1A62 PUSH2 0x2096 JUMP JUMPDEST PUSH1 0x0 PUSH20 0xFFFFFFFFFFFFFFFFFFFFFFFFFFFFFFFFFFFFFFFF AND DUP2 PUSH20 0xFFFFFFFFFFFFFFFFFFFFFFFFFFFFFFFFFFFFFFFF AND SUB PUSH2 0x1AD1 JUMPI PUSH1 0x40 MLOAD PUSH32 0x8C379A000000000000000000000000000000000000000000000000000000000 DUP2 MSTORE PUSH1 0x4 ADD PUSH2 0x1AC8 SWAP1 PUSH2 0x32E0 JUMP JUMPDEST PUSH1 0x40 MLOAD DUP1 SWAP2 SUB SWAP1 REVERT JUMPDEST PUSH2 0x1ADA DUP2 PUSH2 0x2114 JUMP JUMPDEST POP JUMP JUMPDEST PUSH2 0x1AE5 PUSH2 0x2096 JUMP JUMPDEST DUP2 PUSH1 0x2 DUP1 SLOAD SWAP1 POP DUP2 PUSH1 0xFF AND LT PUSH2 0x1B30 JUMPI PUSH1 0x40 MLOAD PUSH32 0x8C379A000000000000000000000000000000000000000000000000000000000 DUP2 MSTORE PUSH1 0x4 ADD PUSH2 0x1B27 SWAP1 PUSH2 0x334C JUMP JUMPDEST PUSH1 0x40 MLOAD DUP1 SWAP2 SUB SWAP1 REVERT JUMPDEST DUP2 PUSH1 0x2 DUP5 PUSH1 0xFF AND DUP2 SLOAD DUP2 LT PUSH2 0x1B48 JUMPI PUSH2 0x1B47 PUSH2 0x29F1 JUMP JUMPDEST JUMPDEST SWAP1 PUSH1 0x0 MSTORE PUSH1 0x20 PUSH1 0x0 KECCAK256 SWAP1 PUSH1 0x3 MUL ADD PUSH1 0x1 ADD PUSH1 0x0 PUSH2 0x100 EXP DUP2 SLOAD DUP2 PUSH1 0xFF MUL NOT AND SWAP1 DUP4 ISZERO ISZERO MUL OR SWAP1 SSTORE POP POP POP POP JUMP JUMPDEST PUSH1 0x0 DUP1 PUSH1 0x2 DUP1 SLOAD SWAP1 POP PUSH1 0x1 PUSH1 0x2 DUP1 SLOAD SWAP1 POP PUSH1 0x3 PUSH1 0x1 SWAP1 SLOAD SWAP1 PUSH2 0x100 EXP SWAP1 DIV PUSH1 0xFF AND PUSH1 0xFF AND PUSH2 0x1BA3 SWAP2 SWAP1 PUSH2 0x336C JUMP JUMPDEST PUSH2 0x1BAD SWAP2 SWAP1 PUSH2 0x2DF1 JUMP JUMPDEST PUSH2 0x1BB7 SWAP2 SWAP1 PUSH2 0x33CF JUMP JUMPDEST SWAP1 POP JUMPDEST DUP1 PUSH1 0xFF AND PUSH1 0x3 PUSH1 0x1 SWAP1 SLOAD SWAP1 PUSH2 0x100 EXP SWAP1 DIV PUSH1 0xFF AND PUSH1 0xFF AND EQ ISZERO DUP1 ISZERO PUSH2 0x1C21 JUMPI POP PUSH1 0x2 PUSH1 0x3 PUSH1 0x1 SWAP1 SLOAD SWAP1 PUSH2 0x100 EXP SWAP1 DIV PUSH1 0xFF AND PUSH1 0xFF AND DUP2 SLOAD DUP2 LT PUSH2 0x1C00 JUMPI PUSH2 0x1BFF PUSH2 0x29F1 JUMP JUMPDEST JUMPDEST SWAP1 PUSH1 0x0 MSTORE PUSH1 0x20 PUSH1 0x0 KECCAK256 SWAP1 PUSH1 0x3 MUL ADD PUSH1 0x1 ADD PUSH1 0x0 SWAP1 SLOAD SWAP1 PUSH2 0x100 EXP SWAP1 DIV PUSH1 0xFF AND ISZERO JUMPDEST ISZERO PUSH2 0x1C74 JUMPI PUSH1 0x2 DUP1 SLOAD SWAP1 POP PUSH1 0x1 PUSH1 0x3 PUSH1 0x1 SWAP1 SLOAD SWAP1 PUSH2 0x100 EXP SWAP1 DIV PUSH1 0xFF AND PUSH2 0x1C48 SWAP2 SWAP1 PUSH2 0x3400 JUMP JUMPDEST PUSH1 0xFF AND PUSH2 0x1C55 SWAP2 SWAP1 PUSH2 0x33CF JUMP JUMPDEST PUSH1 0x3 PUSH1 0x1 PUSH2 0x100 EXP DUP2 SLOAD DUP2 PUSH1 0xFF MUL NOT AND SWAP1 DUP4 PUSH1 0xFF AND MUL OR SWAP1 SSTORE POP PUSH2 0x1BBA JUMP JUMPDEST PUSH1 0x0 PUSH1 0x2 PUSH1 0x3 PUSH1 0x1 SWAP1 SLOAD SWAP1 PUSH2 0x100 EXP SWAP1 DIV PUSH1 0xFF AND PUSH1 0xFF AND DUP2 SLOAD DUP2 LT PUSH2 0x1C9C JUMPI PUSH2 0x1C9B PUSH2 0x29F1 JUMP JUMPDEST JUMPDEST SWAP1 PUSH1 0x0 MSTORE PUSH1 0x20 PUSH1 0x0 KECCAK256 SWAP1 PUSH1 0x3 MUL ADD PUSH1 0x1 ADD PUSH1 0x0 SWAP1 SLOAD SWAP1 PUSH2 0x100 EXP SWAP1 DIV PUSH1 0xFF AND PUSH2 0x1CD4 JUMPI PUSH1 0x7 PUSH1 0x0 SWAP1 SLOAD SWAP1 PUSH2 0x100 EXP SWAP1 DIV PUSH1 0xFF AND PUSH2 0x1CE5 JUMP JUMPDEST PUSH1 0x3 PUSH1 0x1 SWAP1 SLOAD SWAP1 PUSH2 0x100 EXP SWAP1 DIV PUSH1 0xFF AND JUMPDEST SWAP1 POP PUSH1 0x2 DUP1 SLOAD SWAP1 POP PUSH1 0x1 PUSH1 0x3 PUSH1 0x1 SWAP1 SLOAD SWAP1 PUSH2 0x100 EXP SWAP1 DIV PUSH1 0xFF AND PUSH2 0x1D09 SWAP2 SWAP1 PUSH2 0x3400 JUMP JUMPDEST PUSH1 0xFF AND PUSH2 0x1D16 SWAP2 SWAP1 PUSH2 0x33CF JUMP JUMPDEST PUSH1 0x3 PUSH1 0x1 PUSH2 0x100 EXP DUP2 SLOAD DUP2 PUSH1 0xFF MUL NOT AND SWAP1 DUP4 PUSH1 0xFF AND MUL OR SWAP1 SSTORE POP DUP1 SWAP3 POP POP POP SWAP1 JUMP JUMPDEST PUSH1 0x0 DUP1 PUSH1 0x0 PUSH1 0x7 PUSH1 0x0 SWAP1 SLOAD SWAP1 PUSH2 0x100 EXP SWAP1 DIV PUSH1 0xFF AND SWAP1 POP PUSH1 0x0 JUMPDEST PUSH1 0x2 DUP1 SLOAD SWAP1 POP DUP2 PUSH1 0xFF AND LT DUP1 ISZERO PUSH2 0x1D9C JUMPI POP PUSH1 0x2 DUP2 PUSH1 0xFF AND DUP2 SLOAD DUP2 LT PUSH2 0x1D7B JUMPI PUSH2 0x1D7A PUSH2 0x29F1 JUMP JUMPDEST JUMPDEST SWAP1 PUSH1 0x0 MSTORE PUSH1 0x20 PUSH1 0x0 KECCAK256 SWAP1 PUSH1 0x3 MUL ADD PUSH1 0x1 ADD PUSH1 0x0 SWAP1 SLOAD SWAP1 PUSH2 0x100 EXP SWAP1 DIV PUSH1 0xFF AND ISZERO JUMPDEST ISZERO PUSH2 0x1DB4 JUMPI DUP1 DUP1 PUSH2 0x1DAC SWAP1 PUSH2 0x3435 JUMP JUMPDEST SWAP2 POP POP PUSH2 0x1D52 JUMP JUMPDEST PUSH1 0x2 DUP1 SLOAD SWAP1 POP DUP2 PUSH1 0xFF AND LT ISZERO PUSH2 0x1EC6 JUMPI DUP1 SWAP2 POP PUSH1 0x2 DUP2 PUSH1 0xFF AND DUP2 SLOAD DUP2 LT PUSH2 0x1DDE JUMPI PUSH2 0x1DDD PUSH2 0x29F1 JUMP JUMPDEST JUMPDEST SWAP1 PUSH1 0x0 MSTORE PUSH1 0x20 PUSH1 0x0 KECCAK256 SWAP1 PUSH1 0x3 MUL ADD PUSH1 0x2 ADD SLOAD SWAP3 POP PUSH1 0x0 PUSH1 0x1 DUP3 PUSH2 0x1E01 SWAP2 SWAP1 PUSH2 0x3400 JUMP JUMPDEST SWAP1 POP JUMPDEST PUSH1 0x2 DUP1 SLOAD SWAP1 POP DUP2 PUSH1 0xFF AND LT ISZERO PUSH2 0x1EC4 JUMPI PUSH1 0x2 DUP2 PUSH1 0xFF AND DUP2 SLOAD DUP2 LT PUSH2 0x1E2B JUMPI PUSH2 0x1E2A PUSH2 0x29F1 JUMP JUMPDEST JUMPDEST SWAP1 PUSH1 0x0 MSTORE PUSH1 0x20 PUSH1 0x0 KECCAK256 SWAP1 PUSH1 0x3 MUL ADD PUSH1 0x1 ADD PUSH1 0x0 SWAP1 SLOAD SWAP1 PUSH2 0x100 EXP SWAP1 DIV PUSH1 0xFF AND DUP1 ISZERO PUSH2 0x1E7D JUMPI POP DUP4 PUSH1 0x2 DUP3 PUSH1 0xFF AND DUP2 SLOAD DUP2 LT PUSH2 0x1E69 JUMPI PUSH2 0x1E68 PUSH2 0x29F1 JUMP JUMPDEST JUMPDEST SWAP1 PUSH1 0x0 MSTORE PUSH1 0x20 PUSH1 0x0 KECCAK256 SWAP1 PUSH1 0x3 MUL ADD PUSH1 0x2 ADD SLOAD LT JUMPDEST ISZERO PUSH2 0x1EB1 JUMPI DUP1 SWAP3 POP PUSH1 0x2 DUP2 PUSH1 0xFF AND DUP2 SLOAD DUP2 LT PUSH2 0x1E9C JUMPI PUSH2 0x1E9B PUSH2 0x29F1 JUMP JUMPDEST JUMPDEST SWAP1 PUSH1 0x0 MSTORE PUSH1 0x20 PUSH1 0x0 KECCAK256 SWAP1 PUSH1 0x3 MUL ADD PUSH1 0x2 ADD SLOAD SWAP4 POP JUMPDEST DUP1 DUP1 PUSH2 0x1EBC SWAP1 PUSH2 0x3435 JUMP JUMPDEST SWAP2 POP POP PUSH2 0x1E04 JUMP JUMPDEST POP JUMPDEST DUP2 SWAP4 POP POP POP POP SWAP1 JUMP JUMPDEST PUSH1 0x0 PUSH1 0x60 PUSH1 0x0 PUSH1 0x60 PUSH1 0x0 PUSH1 0x1 PUSH1 0x0 DUP8 DUP2 MSTORE PUSH1 0x20 ADD SWAP1 DUP2 MSTORE PUSH1 0x20 ADD PUSH1 0x0 KECCAK256 PUSH1 0x0 ADD PUSH1 0x0 SWAP1 SLOAD SWAP1 PUSH2 0x100 EXP SWAP1 DIV PUSH1 0xFF AND SWAP1 POP PUSH1 0x0 PUSH1 0x2 DUP3 PUSH1 0xFF AND DUP2 SLOAD DUP2 LT PUSH2 0x1F18 JUMPI PUSH2 0x1F17 PUSH2 0x29F1 JUMP JUMPDEST JUMPDEST SWAP1 PUSH1 0x0 MSTORE PUSH1 0x20 PUSH1 0x0 KECCAK256 SWAP1 PUSH1 0x3 MUL ADD PUSH1 0x0 ADD DUP1 SLOAD PUSH2 0x1F34 SWAP1 PUSH2 0x2AA7 JUMP JUMPDEST DUP1 PUSH1 0x1F ADD PUSH1 0x20 DUP1 SWAP2 DIV MUL PUSH1 0x20 ADD PUSH1 0x40 MLOAD SWAP1 DUP2 ADD PUSH1 0x40 MSTORE DUP1 SWAP3 SWAP2 SWAP1 DUP2 DUP2 MSTORE PUSH1 0x20 ADD DUP3 DUP1 SLOAD PUSH2 0x1F60 SWAP1 PUSH2 0x2AA7 JUMP JUMPDEST DUP1 ISZERO PUSH2 0x1FAD JUMPI DUP1 PUSH1 0x1F LT PUSH2 0x1F82 JUMPI PUSH2 0x100 DUP1 DUP4 SLOAD DIV MUL DUP4 MSTORE SWAP2 PUSH1 0x20 ADD SWAP2 PUSH2 0x1FAD JUMP JUMPDEST DUP3 ADD SWAP2 SWAP1 PUSH1 0x0 MSTORE PUSH1 0x20 PUSH1 0x0 KECCAK256 SWAP1 JUMPDEST DUP2 SLOAD DUP2 MSTORE SWAP1 PUSH1 0x1 ADD SWAP1 PUSH1 0x20 ADD DUP1 DUP4 GT PUSH2 0x1F90 JUMPI DUP3 SWAP1 SUB PUSH1 0x1F AND DUP3 ADD SWAP2 JUMPDEST POP POP POP POP POP SWAP1 POP PUSH1 0x0 PUSH1 0x1 PUSH1 0x0 DUP10 DUP2 MSTORE PUSH1 0x20 ADD SWAP1 DUP2 MSTORE PUSH1 0x20 ADD PUSH1 0x0 KECCAK256 PUSH1 0x0 ADD PUSH1 0x1 SWAP1 SLOAD SWAP1 PUSH2 0x100 EXP SWAP1 DIV PUSH1 0x60 SHL SWAP1 POP PUSH1 0x0 PUSH1 0x1 PUSH1 0x0 DUP11 DUP2 MSTORE PUSH1 0x20 ADD SWAP1 DUP2 MSTORE PUSH1 0x20 ADD PUSH1 0x0 KECCAK256 PUSH1 0x1 ADD DUP1 SLOAD PUSH2 0x1FFF SWAP1 PUSH2 0x2AA7 JUMP JUMPDEST DUP1 PUSH1 0x1F ADD PUSH1 0x20 DUP1 SWAP2 DIV MUL PUSH1 0x20 ADD PUSH1 0x40 MLOAD SWAP1 DUP2 ADD PUSH1 0x40 MSTORE DUP1 SWAP3 SWAP2 SWAP1 DUP2 DUP2 MSTORE PUSH1 0x20 ADD DUP3 DUP1 SLOAD PUSH2 0x202B SWAP1 PUSH2 0x2AA7 JUMP JUMPDEST DUP1 ISZERO PUSH2 0x2078 JUMPI DUP1 PUSH1 0x1F LT PUSH2 0x204D JUMPI PUSH2 0x100 DUP1 DUP4 SLOAD DIV MUL DUP4 MSTORE SWAP2 PUSH1 0x20 ADD SWAP2 PUSH2 0x2078 JUMP JUMPDEST DUP3 ADD SWAP2 SWAP1 PUSH1 0x0 MSTORE PUSH1 0x20 PUSH1 0x0 KECCAK256 SWAP1 JUMPDEST DUP2 SLOAD DUP2 MSTORE SWAP1 PUSH1 0x1 ADD SWAP1 PUSH1 0x20 ADD DUP1 DUP4 GT PUSH2 0x205B JUMPI DUP3 SWAP1 SUB PUSH1 0x1F AND DUP3 ADD SWAP2 JUMPDEST POP POP POP POP POP SWAP1 POP DUP4 DUP4 DUP4 DUP4 SWAP8 POP SWAP8 POP SWAP8 POP SWAP8 POP POP POP POP POP SWAP2 SWAP4 POP SWAP2 SWAP4 JUMP JUMPDEST PUSH2 0x209E PUSH2 0x21D8 JUMP JUMPDEST PUSH20 0xFFFFFFFFFFFFFFFFFFFFFFFFFFFFFFFFFFFFFFFF AND PUSH2 0x20BC PUSH2 0xA3A JUMP JUMPDEST PUSH20 0xFFFFFFFFFFFFFFFFFFFFFFFFFFFFFFFFFFFFFFFF AND EQ PUSH2 0x2112 JUMPI PUSH1 0x40 MLOAD PUSH32 0x8C379A000000000000000000000000000000000000000000000000000000000 DUP2 MSTORE PUSH1 0x4 ADD PUSH2 0x2109 SWAP1 PUSH2 0x34AA JUMP JUMPDEST PUSH1 0x40 MLOAD DUP1 SWAP2 SUB SWAP1 REVERT JUMPDEST JUMP JUMPDEST PUSH1 0x0 DUP1 PUSH1 0x0 SWAP1 SLOAD SWAP1 PUSH2 0x100 EXP SWAP1 DIV PUSH20 0xFFFFFFFFFFFFFFFFFFFFFFFFFFFFFFFFFFFFFFFF AND SWAP1 POP DUP2 PUSH1 0x0 DUP1 PUSH2 0x100 EXP DUP2 SLOAD DUP2 PUSH20 0xFFFFFFFFFFFFFFFFFFFFFFFFFFFFFFFFFFFFFFFF MUL NOT AND SWAP1 DUP4 PUSH20 0xFFFFFFFFFFFFFFFFFFFFFFFFFFFFFFFFFFFFFFFF AND MUL OR SWAP1 SSTORE POP DUP2 PUSH20 0xFFFFFFFFFFFFFFFFFFFFFFFFFFFFFFFFFFFFFFFF AND DUP2 PUSH20 0xFFFFFFFFFFFFFFFFFFFFFFFFFFFFFFFFFFFFFFFF AND PUSH32 0x8BE0079C531659141344CD1FD0A4F28419497F9722A3DAAFE3B4186F6B6457E0 PUSH1 0x40 MLOAD PUSH1 0x40 MLOAD DUP1 SWAP2 SUB SWAP1 LOG3 POP POP JUMP JUMPDEST PUSH1 0x0 CALLER SWAP1 POP SWAP1 JUMP JUMPDEST POP DUP1 SLOAD PUSH2 0x21EC SWAP1 PUSH2 0x2AA7 JUMP JUMPDEST PUSH1 0x0 DUP3 SSTORE DUP1 PUSH1 0x1F LT PUSH2 0x21FE JUMPI POP PUSH2 0x221D JUMP JUMPDEST PUSH1 0x1F ADD PUSH1 0x20 SWAP1 DIV SWAP1 PUSH1 0x0 MSTORE PUSH1 0x20 PUSH1 0x0 KECCAK256 SWAP1 DUP2 ADD SWAP1 PUSH2 0x221C SWAP2 SWAP1 PUSH2 0x222A JUMP JUMPDEST JUMPDEST POP JUMP JUMPDEST PUSH2 0x2228 PUSH2 0x34CA JUMP JUMPDEST JUMP JUMPDEST JUMPDEST DUP1 DUP3 GT ISZERO PUSH2 0x2243 JUMPI PUSH1 0x0 DUP2 PUSH1 0x0 SWAP1 SSTORE POP PUSH1 0x1 ADD PUSH2 0x222B JUMP JUMPDEST POP SWAP1 JUMP JUMPDEST PUSH1 0x0 DUP1 REVERT JUMPDEST PUSH1 0x0 DUP1 REVERT JUMPDEST PUSH1 0x0 DUP2 SWAP1 POP SWAP2 SWAP1 POP JUMP JUMPDEST PUSH2 0x2264 DUP2 PUSH2 0x2251 JUMP JUMPDEST DUP2 EQ PUSH2 0x226F JUMPI PUSH1 0x0 DUP1 REVERT JUMPDEST POP JUMP JUMPDEST PUSH1 0x0 DUP2 CALLDATALOAD SWAP1 POP PUSH2 0x2281 DUP2 PUSH2 0x225B JUMP JUMPDEST SWAP3 SWAP2 POP POP JUMP JUMPDEST PUSH1 0x0 DUP2 ISZERO ISZERO SWAP1 POP SWAP2 SWAP1 POP JUMP JUMPDEST PUSH2 0x229C DUP2 PUSH2 0x2287 JUMP JUMPDEST DUP2 EQ PUSH2 0x22A7 JUMPI PUSH1 0x0 DUP1 REVERT JUMPDEST POP JUMP JUMPDEST PUSH1 0x0 DUP2 CALLDATALOAD SWAP1 POP PUSH2 0x22B9 DUP2 PUSH2 0x2293 JUMP JUMPDEST SWAP3 SWAP2 POP POP JUMP JUMPDEST PUSH1 0x0 DUP1 PUSH1 0x40 DUP4 DUP6 SUB SLT ISZERO PUSH2 0x22D6 JUMPI PUSH2 0x22D5 PUSH2 0x2247 JUMP JUMPDEST JUMPDEST PUSH1 0x0 PUSH2 0x22E4 DUP6 DUP3 DUP7 ADD PUSH2 0x2272 JUMP JUMPDEST SWAP3 POP POP PUSH1 0x20 PUSH2 0x22F5 DUP6 DUP3 DUP7 ADD PUSH2 0x22AA JUMP JUMPDEST SWAP2 POP POP SWAP3 POP SWAP3 SWAP1 POP JUMP JUMPDEST PUSH1 0x0 PUSH1 0x20 DUP3 DUP5 SUB SLT ISZERO PUSH2 0x2315 JUMPI PUSH2 0x2314 PUSH2 0x2247 JUMP JUMPDEST JUMPDEST PUSH1 0x0 PUSH2 0x2323 DUP5 DUP3 DUP6 ADD PUSH2 0x2272 JUMP JUMPDEST SWAP2 POP POP SWAP3 SWAP2 POP POP JUMP JUMPDEST PUSH1 0x0 DUP2 MLOAD SWAP1 POP SWAP2 SWAP1 POP JUMP JUMPDEST PUSH1 0x0 DUP3 DUP3 MSTORE PUSH1 0x20 DUP3 ADD SWAP1 POP SWAP3 SWAP2 POP POP JUMP JUMPDEST PUSH1 0x0 JUMPDEST DUP4 DUP2 LT ISZERO PUSH2 0x2366 JUMPI DUP1 DUP3 ADD MLOAD DUP2 DUP5 ADD MSTORE PUSH1 0x20 DUP2 ADD SWAP1 POP PUSH2 0x234B JUMP JUMPDEST PUSH1 0x0 DUP5 DUP5 ADD MSTORE POP POP POP POP JUMP JUMPDEST PUSH1 0x0 PUSH1 0x1F NOT PUSH1 0x1F DUP4 ADD AND SWAP1 POP SWAP2 SWAP1 POP JUMP JUMPDEST PUSH1 0x0 PUSH2 0x238E DUP3 PUSH2 0x232C JUMP JUMPDEST PUSH2 0x2398 DUP2 DUP6 PUSH2 0x2337 JUMP JUMPDEST SWAP4 POP PUSH2 0x23A8 DUP2 DUP6 PUSH1 0x20 DUP7 ADD PUSH2 0x2348 JUMP JUMPDEST PUSH2 0x23B1 DUP2 PUSH2 0x2372 JUMP JUMPDEST DUP5 ADD SWAP2 POP POP SWAP3 SWAP2 POP POP JUMP JUMPDEST PUSH2 0x23C5 DUP2 PUSH2 0x2287 JUMP JUMPDEST DUP3 MSTORE POP POP JUMP JUMPDEST PUSH2 0x23D4 DUP2 PUSH2 0x2251 JUMP JUMPDEST DUP3 MSTORE POP POP JUMP JUMPDEST PUSH1 0x0 PUSH1 0x60 DUP3 ADD SWAP1 POP DUP2 DUP2 SUB PUSH1 0x0 DUP4 ADD MSTORE PUSH2 0x23F4 DUP2 DUP7 PUSH2 0x2383 JUMP JUMPDEST SWAP1 POP PUSH2 0x2403 PUSH1 0x20 DUP4 ADD DUP6 PUSH2 0x23BC JUMP JUMPDEST PUSH2 0x2410 PUSH1 0x40 DUP4 ADD DUP5 PUSH2 0x23CB JUMP JUMPDEST SWAP5 SWAP4 POP POP POP POP JUMP JUMPDEST PUSH1 0x0 PUSH1 0xFF DUP3 AND SWAP1 POP SWAP2 SWAP1 POP JUMP JUMPDEST PUSH2 0x242E DUP2 PUSH2 0x2418 JUMP JUMPDEST DUP3 MSTORE POP POP JUMP JUMPDEST PUSH1 0x0 PUSH32 0xFFFFFFFFFFFFFFFFFFFFFFFFFFFFFFFFFFFFFFFF000000000000000000000000 DUP3 AND SWAP1 POP SWAP2 SWAP1 POP JUMP JUMPDEST PUSH2 0x2469 DUP2 PUSH2 0x2434 JUMP JUMPDEST DUP3 MSTORE POP POP JUMP JUMPDEST PUSH1 0x0 PUSH20 0xFFFFFFFFFFFFFFFFFFFFFFFFFFFFFFFFFFFFFFFF DUP3 AND SWAP1 POP SWAP2 SWAP1 POP JUMP JUMPDEST PUSH1 0x0 PUSH2 0x249A DUP3 PUSH2 0x246F JUMP JUMPDEST SWAP1 POP SWAP2 SWAP1 POP JUMP JUMPDEST PUSH2 0x24AA DUP2 PUSH2 0x248F JUMP JUMPDEST DUP3 MSTORE POP POP JUMP JUMPDEST PUSH32 0x4E487B7100000000000000000000000000000000000000000000000000000000 PUSH1 0x0 MSTORE PUSH1 0x21 PUSH1 0x4 MSTORE PUSH1 0x24 PUSH1 0x0 REVERT JUMPDEST PUSH1 0x5 DUP2 LT PUSH2 0x24F0 JUMPI PUSH2 0x24EF PUSH2 0x24B0 JUMP JUMPDEST JUMPDEST POP JUMP JUMPDEST PUSH1 0x0 DUP2 SWAP1 POP PUSH2 0x2501 DUP3 PUSH2 0x24DF JUMP JUMPDEST SWAP2 SWAP1 POP JUMP JUMPDEST PUSH1 0x0 PUSH2 0x2511 DUP3 PUSH2 0x24F3 JUMP JUMPDEST SWAP1 POP SWAP2 SWAP1 POP JUMP JUMPDEST PUSH2 0x2521 DUP2 PUSH2 0x2506 JUMP JUMPDEST DUP3 MSTORE POP POP JUMP JUMPDEST PUSH1 0x0 PUSH1 0xC0 DUP3 ADD SWAP1 POP PUSH2 0x253C PUSH1 0x0 DUP4 ADD DUP10 PUSH2 0x2425 JUMP JUMPDEST PUSH2 0x2549 PUSH1 0x20 DUP4 ADD DUP9 PUSH2 0x2460 JUMP JUMPDEST DUP2 DUP2 SUB PUSH1 0x40 DUP4 ADD MSTORE PUSH2 0x255B DUP2 DUP8 PUSH2 0x2383 JUMP JUMPDEST SWAP1 POP PUSH2 0x256A PUSH1 0x60 DUP4 ADD DUP7 PUSH2 0x24A1 JUMP JUMPDEST PUSH2 0x2577 PUSH1 0x80 DUP4 ADD DUP6 PUSH2 0x23CB JUMP JUMPDEST PUSH2 0x2584 PUSH1 0xA0 DUP4 ADD DUP5 PUSH2 0x2518 JUMP JUMPDEST SWAP8 SWAP7 POP POP POP POP POP POP POP JUMP JUMPDEST PUSH1 0x0 DUP1 REVERT JUMPDEST PUSH1 0x0 DUP1 REVERT JUMPDEST PUSH1 0x0 DUP1 REVERT JUMPDEST PUSH1 0x0 DUP1 DUP4 PUSH1 0x1F DUP5 ADD SLT PUSH2 0x25B4 JUMPI PUSH2 0x25B3 PUSH2 0x258F JUMP JUMPDEST JUMPDEST DUP3 CALLDATALOAD SWAP1 POP PUSH8 0xFFFFFFFFFFFFFFFF DUP2 GT ISZERO PUSH2 0x25D1 JUMPI PUSH2 0x25D0 PUSH2 0x2594 JUMP JUMPDEST JUMPDEST PUSH1 0x20 DUP4 ADD SWAP2 POP DUP4 PUSH1 0x1 DUP3 MUL DUP4 ADD GT ISZERO PUSH2 0x25ED JUMPI PUSH2 0x25EC PUSH2 0x2599 JUMP JUMPDEST JUMPDEST SWAP3 POP SWAP3 SWAP1 POP JUMP JUMPDEST PUSH1 0x0 DUP1 PUSH1 0x0 PUSH1 0x40 DUP5 DUP7 SUB SLT ISZERO PUSH2 0x260D JUMPI PUSH2 0x260C PUSH2 0x2247 JUMP JUMPDEST JUMPDEST PUSH1 0x0 DUP5 ADD CALLDATALOAD PUSH8 0xFFFFFFFFFFFFFFFF DUP2 GT ISZERO PUSH2 0x262B JUMPI PUSH2 0x262A PUSH2 0x224C JUMP JUMPDEST JUMPDEST PUSH2 0x2637 DUP7 DUP3 DUP8 ADD PUSH2 0x259E JUMP JUMPDEST SWAP4 POP SWAP4 POP POP PUSH1 0x20 PUSH2 0x264A DUP7 DUP3 DUP8 ADD PUSH2 0x22AA JUMP JUMPDEST SWAP2 POP POP SWAP3 POP SWAP3 POP SWAP3 JUMP JUMPDEST PUSH2 0x265D DUP2 PUSH2 0x248F JUMP JUMPDEST DUP2 EQ PUSH2 0x2668 JUMPI PUSH1 0x0 DUP1 REVERT JUMPDEST POP JUMP JUMPDEST PUSH1 0x0 DUP2 CALLDATALOAD SWAP1 POP PUSH2 0x267A DUP2 PUSH2 0x2654 JUMP JUMPDEST SWAP3 SWAP2 POP POP JUMP JUMPDEST PUSH1 0x0 PUSH1 0x20 DUP3 DUP5 SUB SLT ISZERO PUSH2 0x2696 JUMPI PUSH2 0x2695 PUSH2 0x2247 JUMP JUMPDEST JUMPDEST PUSH1 0x0 PUSH2 0x26A4 DUP5 DUP3 DUP6 ADD PUSH2 0x266B JUMP JUMPDEST SWAP2 POP POP SWAP3 SWAP2 POP POP JUMP JUMPDEST PUSH1 0x0 PUSH1 0x20 DUP3 ADD SWAP1 POP PUSH2 0x26C2 PUSH1 0x0 DUP4 ADD DUP5 PUSH2 0x23CB JUMP JUMPDEST SWAP3 SWAP2 POP POP JUMP JUMPDEST PUSH1 0x0 PUSH1 0x20 DUP3 ADD SWAP1 POP PUSH2 0x26DD PUSH1 0x0 DUP4 ADD DUP5 PUSH2 0x24A1 JUMP JUMPDEST SWAP3 SWAP2 POP POP JUMP JUMPDEST PUSH2 0x26EC DUP2 PUSH2 0x2418 JUMP JUMPDEST DUP2 EQ PUSH2 0x26F7 JUMPI PUSH1 0x0 DUP1 REVERT JUMPDEST POP JUMP JUMPDEST PUSH1 0x0 DUP2 CALLDATALOAD SWAP1 POP PUSH2 0x2709 DUP2 PUSH2 0x26E3 JUMP JUMPDEST SWAP3 SWAP2 POP POP JUMP JUMPDEST PUSH1 0x0 PUSH1 0x20 DUP3 DUP5 SUB SLT ISZERO PUSH2 0x2725 JUMPI PUSH2 0x2724 PUSH2 0x2247 JUMP JUMPDEST JUMPDEST PUSH1 0x0 PUSH2 0x2733 DUP5 DUP3 DUP6 ADD PUSH2 0x26FA JUMP JUMPDEST SWAP2 POP POP SWAP3 SWAP2 POP POP JUMP JUMPDEST PUSH2 0x2745 DUP2 PUSH2 0x2434 JUMP JUMPDEST DUP2 EQ PUSH2 0x2750 JUMPI PUSH1 0x0 DUP1 REVERT JUMPDEST POP JUMP JUMPDEST PUSH1 0x0 DUP2 CALLDATALOAD SWAP1 POP PUSH2 0x2762 DUP2 PUSH2 0x273C JUMP JUMPDEST SWAP3 SWAP2 POP POP JUMP JUMPDEST PUSH1 0x0 DUP1 PUSH1 0x0 DUP1 PUSH1 0x60 DUP6 DUP8 SUB SLT ISZERO PUSH2 0x2782 JUMPI PUSH2 0x2781 PUSH2 0x2247 JUMP JUMPDEST JUMPDEST PUSH1 0x0 PUSH2 0x2790 DUP8 DUP3 DUP9 ADD PUSH2 0x2272 JUMP JUMPDEST SWAP5 POP POP PUSH1 0x20 PUSH2 0x27A1 DUP8 DUP3 DUP9 ADD PUSH2 0x2753 JUMP JUMPDEST SWAP4 POP POP PUSH1 0x40 DUP6 ADD CALLDATALOAD PUSH8 0xFFFFFFFFFFFFFFFF DUP2 GT ISZERO PUSH2 0x27C2 JUMPI PUSH2 0x27C1 PUSH2 0x224C JUMP JUMPDEST JUMPDEST PUSH2 0x27CE DUP8 DUP3 DUP9 ADD PUSH2 0x259E JUMP JUMPDEST SWAP3 POP SWAP3 POP POP SWAP3 SWAP6 SWAP2 SWAP5 POP SWAP3 POP JUMP JUMPDEST PUSH1 0x0 PUSH1 0x40 DUP3 ADD SWAP1 POP PUSH2 0x27F1 PUSH1 0x0 DUP4 ADD DUP6 PUSH2 0x23CB JUMP JUMPDEST DUP2 DUP2 SUB PUSH1 0x20 DUP4 ADD MSTORE PUSH2 0x2803 DUP2 DUP5 PUSH2 0x2383 JUMP JUMPDEST SWAP1 POP SWAP4 SWAP3 POP POP POP JUMP JUMPDEST PUSH1 0x0 DUP1 PUSH1 0x40 DUP4 DUP6 SUB SLT ISZERO PUSH2 0x2823 JUMPI PUSH2 0x2822 PUSH2 0x2247 JUMP JUMPDEST JUMPDEST PUSH1 0x0 PUSH2 0x2831 DUP6 DUP3 DUP7 ADD PUSH2 0x26FA JUMP JUMPDEST SWAP3 POP POP PUSH1 0x20 PUSH2 0x2842 DUP6 DUP3 DUP7 ADD PUSH2 0x22AA JUMP JUMPDEST SWAP2 POP POP SWAP3 POP SWAP3 SWAP1 POP JUMP JUMPDEST PUSH32 0x4F7261636C65206E6F7420696E697469616C697A656400000000000000000000 PUSH1 0x0 DUP3 ADD MSTORE POP JUMP JUMPDEST PUSH1 0x0 PUSH2 0x2882 PUSH1 0x16 DUP4 PUSH2 0x2337 JUMP JUMPDEST SWAP2 POP PUSH2 0x288D DUP3 PUSH2 0x284C JUMP JUMPDEST PUSH1 0x20 DUP3 ADD SWAP1 POP SWAP2 SWAP1 POP JUMP JUMPDEST PUSH1 0x0 PUSH1 0x20 DUP3 ADD SWAP1 POP DUP2 DUP2 SUB PUSH1 0x0 DUP4 ADD MSTORE PUSH2 0x28B1 DUP2 PUSH2 0x2875 JUMP JUMPDEST SWAP1 POP SWAP2 SWAP1 POP JUMP JUMPDEST PUSH32 0x43616C6C6572206973206E6F74206F7261636C65000000000000000000000000 PUSH1 0x0 DUP3 ADD MSTORE POP JUMP JUMPDEST PUSH1 0x0 PUSH2 0x28EE PUSH1 0x14 DUP4 PUSH2 0x2337 JUMP JUMPDEST SWAP2 POP PUSH2 0x28F9 DUP3 PUSH2 0x28B8 JUMP JUMPDEST PUSH1 0x20 DUP3 ADD SWAP1 POP SWAP2 SWAP1 POP JUMP JUMPDEST PUSH1 0x0 PUSH1 0x20 DUP3 ADD SWAP1 POP DUP2 DUP2 SUB PUSH1 0x0 DUP4 ADD MSTORE PUSH2 0x291D DUP2 PUSH2 0x28E1 JUMP JUMPDEST SWAP1 POP SWAP2 SWAP1 POP JUMP JUMPDEST PUSH32 0x4465706C6F79207374617465206572726F720000000000000000000000000000 PUSH1 0x0 DUP3 ADD MSTORE POP JUMP JUMPDEST PUSH1 0x0 PUSH2 0x295A PUSH1 0x12 DUP4 PUSH2 0x2337 JUMP JUMPDEST SWAP2 POP PUSH2 0x2965 DUP3 PUSH2 0x2924 JUMP JUMPDEST PUSH1 0x20 DUP3 ADD SWAP1 POP SWAP2 SWAP1 POP JUMP JUMPDEST PUSH1 0x0 PUSH1 0x20 DUP3 ADD SWAP1 POP DUP2 DUP2 SUB PUSH1 0x0 DUP4 ADD MSTORE PUSH2 0x2989 DUP2 PUSH2 0x294D JUMP JUMPDEST SWAP1 POP SWAP2 SWAP1 POP JUMP JUMPDEST PUSH1 0x0 PUSH1 0xA0 DUP3 ADD SWAP1 POP PUSH2 0x29A5 PUSH1 0x0 DUP4 ADD DUP9 PUSH2 0x23CB JUMP JUMPDEST PUSH2 0x29B2 PUSH1 0x20 DUP4 ADD DUP8 PUSH2 0x2425 JUMP JUMPDEST DUP2 DUP2 SUB PUSH1 0x40 DUP4 ADD MSTORE PUSH2 0x29C4 DUP2 DUP7 PUSH2 0x2383 JUMP JUMPDEST SWAP1 POP PUSH2 0x29D3 PUSH1 0x60 DUP4 ADD DUP6 PUSH2 0x2460 JUMP JUMPDEST DUP2 DUP2 SUB PUSH1 0x80 DUP4 ADD MSTORE PUSH2 0x29E5 DUP2 DUP5 PUSH2 0x2383 JUMP JUMPDEST SWAP1 POP SWAP7 SWAP6 POP POP POP POP POP POP JUMP JUMPDEST PUSH32 0x4E487B7100000000000000000000000000000000000000000000000000000000 PUSH1 0x0 MSTORE PUSH1 0x32 PUSH1 0x4 MSTORE PUSH1 0x24 PUSH1 0x0 REVERT JUMPDEST PUSH32 0x4E487B7100000000000000000000000000000000000000000000000000000000 PUSH1 0x0 MSTORE PUSH1 0x11 PUSH1 0x4 MSTORE PUSH1 0x24 PUSH1 0x0 REVERT JUMPDEST PUSH1 0x0 PUSH2 0x2A5A DUP3 PUSH2 0x2251 JUMP JUMPDEST SWAP2 POP PUSH1 0x0 DUP3 SUB PUSH2 0x2A6D JUMPI PUSH2 0x2A6C PUSH2 0x2A20 JUMP JUMPDEST JUMPDEST PUSH1 0x1 DUP3 SUB SWAP1 POP SWAP2 SWAP1 POP JUMP JUMPDEST PUSH32 0x4E487B7100000000000000000000000000000000000000000000000000000000 PUSH1 0x0 MSTORE PUSH1 0x22 PUSH1 0x4 MSTORE PUSH1 0x24 PUSH1 0x0 REVERT JUMPDEST PUSH1 0x0 PUSH1 0x2 DUP3 DIV SWAP1 POP PUSH1 0x1 DUP3 AND DUP1 PUSH2 0x2ABF JUMPI PUSH1 0x7F DUP3 AND SWAP2 POP JUMPDEST PUSH1 0x20 DUP3 LT DUP2 SUB PUSH2 0x2AD2 JUMPI PUSH2 0x2AD1 PUSH2 0x2A78 JUMP JUMPDEST JUMPDEST POP SWAP2 SWAP1 POP JUMP JUMPDEST PUSH32 0x4E6F206D6F72652073686172642063616E206265206164646564000000000000 PUSH1 0x0 DUP3 ADD MSTORE POP JUMP JUMPDEST PUSH1 0x0 PUSH2 0x2B0E PUSH1 0x1A DUP4 PUSH2 0x2337 JUMP JUMPDEST SWAP2 POP PUSH2 0x2B19 DUP3 PUSH2 0x2AD8 JUMP JUMPDEST PUSH1 0x20 DUP3 ADD SWAP1 POP SWAP2 SWAP1 POP JUMP JUMPDEST PUSH1 0x0 PUSH1 0x20 DUP3 ADD SWAP1 POP DUP2 DUP2 SUB PUSH1 0x0 DUP4 ADD MSTORE PUSH2 0x2B3D DUP2 PUSH2 0x2B01 JUMP JUMPDEST SWAP1 POP SWAP2 SWAP1 POP JUMP JUMPDEST PUSH32 0x4E487B7100000000000000000000000000000000000000000000000000000000 PUSH1 0x0 MSTORE PUSH1 0x41 PUSH1 0x4 MSTORE PUSH1 0x24 PUSH1 0x0 REVERT JUMPDEST PUSH1 0x0 DUP2 SWAP1 POP DUP2 PUSH1 0x0 MSTORE PUSH1 0x20 PUSH1 0x0 KECCAK256 SWAP1 POP SWAP2 SWAP1 POP JUMP JUMPDEST PUSH1 0x0 PUSH1 0x20 PUSH1 0x1F DUP4 ADD DIV SWAP1 POP SWAP2 SWAP1 POP JUMP JUMPDEST PUSH1 0x0 DUP3 DUP3 SHL SWAP1 POP SWAP3 SWAP2 POP POP JUMP JUMPDEST PUSH1 0x0 PUSH1 0x8 DUP4 MUL PUSH2 0x2BD5 PUSH32 0xFFFFFFFFFFFFFFFFFFFFFFFFFFFFFFFFFFFFFFFFFFFFFFFFFFFFFFFFFFFFFFFF DUP3 PUSH2 0x2B98 JUMP JUMPDEST PUSH2 0x2BDF DUP7 DUP4 PUSH2 0x2B98 JUMP JUMPDEST SWAP6 POP DUP1 NOT DUP5 AND SWAP4 POP DUP1 DUP7 AND DUP5 OR SWAP3 POP POP POP SWAP4 SWAP3 POP POP POP JUMP JUMPDEST PUSH1 0x0 DUP2 SWAP1 POP SWAP2 SWAP1 POP JUMP JUMPDEST PUSH1 0x0 PUSH2 0x2C1C PUSH2 0x2C17 PUSH2 0x2C12 DUP5 PUSH2 0x2251 JUMP JUMPDEST PUSH2 0x2BF7 JUMP JUMPDEST PUSH2 0x2251 JUMP JUMPDEST SWAP1 POP SWAP2 SWAP1 POP JUMP JUMPDEST PUSH1 0x0 DUP2 SWAP1 POP SWAP2 SWAP1 POP JUMP JUMPDEST PUSH2 0x2C36 DUP4 PUSH2 0x2C01 JUMP JUMPDEST PUSH2 0x2C4A PUSH2 0x2C42 DUP3 PUSH2 0x2C23 JUMP JUMPDEST DUP5 DUP5 SLOAD PUSH2 0x2BA5 JUMP JUMPDEST DUP3 SSTORE POP POP POP POP JUMP JUMPDEST PUSH1 0x0 SWAP1 JUMP JUMPDEST PUSH2 0x2C5F PUSH2 0x2C52 JUMP JUMPDEST PUSH2 0x2C6A DUP2 DUP5 DUP5 PUSH2 0x2C2D JUMP JUMPDEST POP POP POP JUMP JUMPDEST JUMPDEST DUP2 DUP2 LT ISZERO PUSH2 0x2C8E JUMPI PUSH2 0x2C83 PUSH1 0x0 DUP3 PUSH2 0x2C57 JUMP JUMPDEST PUSH1 0x1 DUP2 ADD SWAP1 POP PUSH2 0x2C70 JUMP JUMPDEST POP POP JUMP JUMPDEST PUSH1 0x1F DUP3 GT ISZERO PUSH2 0x2CD3 JUMPI PUSH2 0x2CA4 DUP2 PUSH2 0x2B73 JUMP JUMPDEST PUSH2 0x2CAD DUP5 PUSH2 0x2B88 JUMP JUMPDEST DUP2 ADD PUSH1 0x20 DUP6 LT ISZERO PUSH2 0x2CBC JUMPI DUP2 SWAP1 POP JUMPDEST PUSH2 0x2CD0 PUSH2 0x2CC8 DUP6 PUSH2 0x2B88 JUMP JUMPDEST DUP4 ADD DUP3 PUSH2 0x2C6F JUMP JUMPDEST POP POP JUMPDEST POP POP POP JUMP JUMPDEST PUSH1 0x0 DUP3 DUP3 SHR SWAP1 POP SWAP3 SWAP2 POP POP JUMP JUMPDEST PUSH1 0x0 PUSH2 0x2CF6 PUSH1 0x0 NOT DUP5 PUSH1 0x8 MUL PUSH2 0x2CD8 JUMP JUMPDEST NOT DUP1 DUP4 AND SWAP2 POP POP SWAP3 SWAP2 POP POP JUMP JUMPDEST PUSH1 0x0 PUSH2 0x2D0F DUP4 DUP4 PUSH2 0x2CE5 JUMP JUMPDEST SWAP2 POP DUP3 PUSH1 0x2 MUL DUP3 OR SWAP1 POP SWAP3 SWAP2 POP POP JUMP JUMPDEST PUSH2 0x2D28 DUP3 PUSH2 0x232C JUMP JUMPDEST PUSH8 0xFFFFFFFFFFFFFFFF DUP2 GT ISZERO PUSH2 0x2D41 JUMPI PUSH2 0x2D40 PUSH2 0x2B44 JUMP JUMPDEST JUMPDEST PUSH2 0x2D4B DUP3 SLOAD PUSH2 0x2AA7 JUMP JUMPDEST PUSH2 0x2D56 DUP3 DUP3 DUP6 PUSH2 0x2C92 JUMP JUMPDEST PUSH1 0x0 PUSH1 0x20 SWAP1 POP PUSH1 0x1F DUP4 GT PUSH1 0x1 DUP2 EQ PUSH2 0x2D89 JUMPI PUSH1 0x0 DUP5 ISZERO PUSH2 0x2D77 JUMPI DUP3 DUP8 ADD MLOAD SWAP1 POP JUMPDEST PUSH2 0x2D81 DUP6 DUP3 PUSH2 0x2D03 JUMP JUMPDEST DUP7 SSTORE POP PUSH2 0x2DE9 JUMP JUMPDEST PUSH1 0x1F NOT DUP5 AND PUSH2 0x2D97 DUP7 PUSH2 0x2B73 JUMP JUMPDEST PUSH1 0x0 JUMPDEST DUP3 DUP2 LT ISZERO PUSH2 0x2DBF JUMPI DUP5 DUP10 ADD MLOAD DUP3 SSTORE PUSH1 0x1 DUP3 ADD SWAP2 POP PUSH1 0x20 DUP6 ADD SWAP5 POP PUSH1 0x20 DUP2 ADD SWAP1 POP PUSH2 0x2D9A JUMP JUMPDEST DUP7 DUP4 LT ISZERO PUSH2 0x2DDC JUMPI DUP5 DUP10 ADD MLOAD PUSH2 0x2DD8 PUSH1 0x1F DUP10 AND DUP3 PUSH2 0x2CE5 JUMP JUMPDEST DUP4 SSTORE POP JUMPDEST PUSH1 0x1 PUSH1 0x2 DUP9 MUL ADD DUP9 SSTORE POP POP POP JUMPDEST POP POP POP POP POP POP JUMP JUMPDEST PUSH1 0x0 PUSH2 0x2DFC DUP3 PUSH2 0x2251 JUMP JUMPDEST SWAP2 POP PUSH2 0x2E07 DUP4 PUSH2 0x2251 JUMP JUMPDEST SWAP3 POP DUP3 DUP3 SUB SWAP1 POP DUP2 DUP2 GT ISZERO PUSH2 0x2E1F JUMPI PUSH2 0x2E1E PUSH2 0x2A20 JUMP JUMPDEST JUMPDEST SWAP3 SWAP2 POP POP JUMP JUMPDEST DUP3 DUP2 DUP4 CALLDATACOPY PUSH1 0x0 DUP4 DUP4 ADD MSTORE POP POP POP JUMP JUMPDEST PUSH1 0x0 PUSH2 0x2E40 DUP4 DUP6 PUSH2 0x2337 JUMP JUMPDEST SWAP4 POP PUSH2 0x2E4D DUP4 DUP6 DUP5 PUSH2 0x2E25 JUMP JUMPDEST PUSH2 0x2E56 DUP4 PUSH2 0x2372 JUMP JUMPDEST DUP5 ADD SWAP1 POP SWAP4 SWAP3 POP POP POP JUMP JUMPDEST PUSH1 0x0 PUSH1 0x40 DUP3 ADD SWAP1 POP PUSH2 0x2E76 PUSH1 0x0 DUP4 ADD DUP7 PUSH2 0x2425 JUMP JUMPDEST DUP2 DUP2 SUB PUSH1 0x20 DUP4 ADD MSTORE PUSH2 0x2E89 DUP2 DUP5 DUP7 PUSH2 0x2E34 JUMP JUMPDEST SWAP1 POP SWAP5 SWAP4 POP POP POP POP JUMP JUMPDEST PUSH32 0x43616C6C6572206973206E6F74206465706C6F79207265736572766572000000 PUSH1 0x0 DUP3 ADD MSTORE POP JUMP JUMPDEST PUSH1 0x0 PUSH2 0x2EC9 PUSH1 0x1D DUP4 PUSH2 0x2337 JUMP JUMPDEST SWAP2 POP PUSH2 0x2ED4 DUP3 PUSH2 0x2E93 JUMP JUMPDEST PUSH1 0x20 DUP3 ADD SWAP1 POP SWAP2 SWAP1 POP JUMP JUMPDEST PUSH1 0x0 PUSH1 0x20 DUP3 ADD SWAP1 POP DUP2 DUP2 SUB PUSH1 0x0 DUP4 ADD MSTORE PUSH2 0x2EF8 DUP2 PUSH2 0x2EBC JUMP JUMPDEST SWAP1 POP SWAP2 SWAP1 POP JUMP JUMPDEST PUSH1 0x0 PUSH1 0x80 DUP3 ADD SWAP1 POP PUSH2 0x2F14 PUSH1 0x0 DUP4 ADD DUP8 PUSH2 0x23CB JUMP JUMPDEST DUP2 DUP2 SUB PUSH1 0x20 DUP4 ADD MSTORE PUSH2 0x2F26 DUP2 DUP7 PUSH2 0x2383 JUMP JUMPDEST SWAP1 POP PUSH2 0x2F35 PUSH1 0x40 DUP4 ADD DUP6 PUSH2 0x2460 JUMP JUMPDEST PUSH2 0x2F42 PUSH1 0x60 DUP4 ADD DUP5 PUSH2 0x24A1 JUMP JUMPDEST SWAP6 SWAP5 POP POP POP POP POP JUMP JUMPDEST PUSH32 0x416C676F726974686D20646F6573206E6F742065786973740000000000000000 PUSH1 0x0 DUP3 ADD MSTORE POP JUMP JUMPDEST PUSH1 0x0 PUSH2 0x2F81 PUSH1 0x18 DUP4 PUSH2 0x2337 JUMP JUMPDEST SWAP2 POP PUSH2 0x2F8C DUP3 PUSH2 0x2F4B JUMP JUMPDEST PUSH1 0x20 DUP3 ADD SWAP1 POP SWAP2 SWAP1 POP JUMP JUMPDEST PUSH1 0x0 PUSH1 0x20 DUP3 ADD SWAP1 POP DUP2 DUP2 SUB PUSH1 0x0 DUP4 ADD MSTORE PUSH2 0x2FB0 DUP2 PUSH2 0x2F74 JUMP JUMPDEST SWAP1 POP SWAP2 SWAP1 POP JUMP JUMPDEST PUSH1 0x0 PUSH1 0x20 DUP3 ADD SWAP1 POP PUSH2 0x2FCC PUSH1 0x0 DUP4 ADD DUP5 PUSH2 0x2425 JUMP JUMPDEST SWAP3 SWAP2 POP POP JUMP JUMPDEST PUSH1 0x0 PUSH2 0x2FDD DUP3 PUSH2 0x2251 JUMP JUMPDEST SWAP2 POP PUSH32 0xFFFFFFFFFFFFFFFFFFFFFFFFFFFFFFFFFFFFFFFFFFFFFFFFFFFFFFFFFFFFFFFF DUP3 SUB PUSH2 0x300F JUMPI PUSH2 0x300E PUSH2 0x2A20 JUMP JUMPDEST JUMPDEST PUSH1 0x1 DUP3 ADD SWAP1 POP SWAP2 SWAP1 POP JUMP JUMPDEST PUSH1 0x0 DUP3 SWAP1 POP SWAP3 SWAP2 POP POP JUMP JUMPDEST PUSH2 0x302F DUP4 DUP4 PUSH2 0x301A JUMP JUMPDEST PUSH8 0xFFFFFFFFFFFFFFFF DUP2 GT ISZERO PUSH2 0x3048 JUMPI PUSH2 0x3047 PUSH2 0x2B44 JUMP JUMPDEST JUMPDEST PUSH2 0x3052 DUP3 SLOAD PUSH2 0x2AA7 JUMP JUMPDEST PUSH2 0x305D DUP3 DUP3 DUP6 PUSH2 0x2C92 JUMP JUMPDEST PUSH1 0x0 PUSH1 0x1F DUP4 GT PUSH1 0x1 DUP2 EQ PUSH2 0x308C JUMPI PUSH1 0x0 DUP5 ISZERO PUSH2 0x307A JUMPI DUP3 DUP8 ADD CALLDATALOAD SWAP1 POP JUMPDEST PUSH2 0x3084 DUP6 DUP3 PUSH2 0x2D03 JUMP JUMPDEST DUP7 SSTORE POP PUSH2 0x30EC JUMP JUMPDEST PUSH1 0x1F NOT DUP5 AND PUSH2 0x309A DUP7 PUSH2 0x2B73 JUMP JUMPDEST PUSH1 0x0 JUMPDEST DUP3 DUP2 LT ISZERO PUSH2 0x30C2 JUMPI DUP5 DUP10 ADD CALLDATALOAD DUP3 SSTORE PUSH1 0x1 DUP3 ADD SWAP2 POP PUSH1 0x20 DUP6 ADD SWAP5 POP PUSH1 0x20 DUP2 ADD SWAP1 POP PUSH2 0x309D JUMP JUMPDEST DUP7 DUP4 LT ISZERO PUSH2 0x30DF JUMPI DUP5 DUP10 ADD CALLDATALOAD PUSH2 0x30DB PUSH1 0x1F DUP10 AND DUP3 PUSH2 0x2CE5 JUMP JUMPDEST DUP4 SSTORE POP JUMPDEST PUSH1 0x1 PUSH1 0x2 DUP9 MUL ADD DUP9 SSTORE POP POP POP JUMPDEST POP POP POP POP POP POP POP JUMP JUMPDEST PUSH1 0x0 PUSH1 0xA0 DUP3 ADD SWAP1 POP PUSH2 0x310A PUSH1 0x0 DUP4 ADD DUP10 PUSH2 0x23CB JUMP JUMPDEST PUSH2 0x3117 PUSH1 0x20 DUP4 ADD DUP9 PUSH2 0x2425 JUMP JUMPDEST DUP2 DUP2 SUB PUSH1 0x40 DUP4 ADD MSTORE PUSH2 0x3129 DUP2 DUP8 PUSH2 0x2383 JUMP JUMPDEST SWAP1 POP PUSH2 0x3138 PUSH1 0x60 DUP4 ADD DUP7 PUSH2 0x2460 JUMP JUMPDEST DUP2 DUP2 SUB PUSH1 0x80 DUP4 ADD MSTORE PUSH2 0x314B DUP2 DUP5 DUP7 PUSH2 0x2E34 JUMP JUMPDEST SWAP1 POP SWAP8 SWAP7 POP POP POP POP POP POP POP JUMP JUMPDEST PUSH32 0x4E6F207368617264207265676973746572656400000000000000000000000000 PUSH1 0x0 DUP3 ADD MSTORE POP JUMP JUMPDEST PUSH1 0x0 PUSH2 0x318E PUSH1 0x13 DUP4 PUSH2 0x2337 JUMP JUMPDEST SWAP2 POP PUSH2 0x3199 DUP3 PUSH2 0x3158 JUMP JUMPDEST PUSH1 0x20 DUP3 ADD SWAP1 POP SWAP2 SWAP1 POP JUMP JUMPDEST PUSH1 0x0 PUSH1 0x20 DUP3 ADD SWAP1 POP DUP2 DUP2 SUB PUSH1 0x0 DUP4 ADD MSTORE PUSH2 0x31BD DUP2 PUSH2 0x3181 JUMP JUMPDEST SWAP1 POP SWAP2 SWAP1 POP JUMP JUMPDEST PUSH1 0x0 PUSH1 0x60 DUP3 ADD SWAP1 POP PUSH2 0x31D9 PUSH1 0x0 DUP4 ADD DUP7 PUSH2 0x23CB JUMP JUMPDEST PUSH2 0x31E6 PUSH1 0x20 DUP4 ADD DUP6 PUSH2 0x2425 JUMP JUMPDEST DUP2 DUP2 SUB PUSH1 0x40 DUP4 ADD MSTORE PUSH2 0x31F8 DUP2 DUP5 PUSH2 0x2383 JUMP JUMPDEST SWAP1 POP SWAP5 SWAP4 POP POP POP POP JUMP JUMPDEST PUSH32 0x4E6F20736861726420617661696C61626C6520666F72206465706C6F79000000 PUSH1 0x0 DUP3 ADD MSTORE POP JUMP JUMPDEST PUSH1 0x0 PUSH2 0x3238 PUSH1 0x1D DUP4 PUSH2 0x2337 JUMP JUMPDEST SWAP2 POP PUSH2 0x3243 DUP3 PUSH2 0x3202 JUMP JUMPDEST PUSH1 0x20 DUP3 ADD SWAP1 POP SWAP2 SWAP1 POP JUMP JUMPDEST PUSH1 0x0 PUSH1 0x20 DUP3 ADD SWAP1 POP DUP2 DUP2 SUB PUSH1 0x0 DUP4 ADD MSTORE PUSH2 0x3267 DUP2 PUSH2 0x322B JUMP JUMPDEST SWAP1 POP SWAP2 SWAP1 POP JUMP JUMPDEST PUSH32 0x4F776E61626C653A206E6577206F776E657220697320746865207A65726F2061 PUSH1 0x0 DUP3 ADD MSTORE PUSH32 0x6464726573730000000000000000000000000000000000000000000000000000 PUSH1 0x20 DUP3 ADD MSTORE POP JUMP JUMPDEST PUSH1 0x0 PUSH2 0x32CA PUSH1 0x26 DUP4 PUSH2 0x2337 JUMP JUMPDEST SWAP2 POP PUSH2 0x32D5 DUP3 PUSH2 0x326E JUMP JUMPDEST PUSH1 0x40 DUP3 ADD SWAP1 POP SWAP2 SWAP1 POP JUMP JUMPDEST PUSH1 0x0 PUSH1 0x20 DUP3 ADD SWAP1 POP DUP2 DUP2 SUB PUSH1 0x0 DUP4 ADD MSTORE PUSH2 0x32F9 DUP2 PUSH2 0x32BD JUMP JUMPDEST SWAP1 POP SWAP2 SWAP1 POP JUMP JUMPDEST PUSH32 0x536861726420646F6573206E6F74206578697374000000000000000000000000 PUSH1 0x0 DUP3 ADD MSTORE POP JUMP JUMPDEST PUSH1 0x0 PUSH2 0x3336 PUSH1 0x14 DUP4 PUSH2 0x2337 JUMP JUMPDEST SWAP2 POP PUSH2 0x3341 DUP3 PUSH2 0x3300 JUMP JUMPDEST PUSH1 0x20 DUP3 ADD SWAP1 POP SWAP2 SWAP1 POP JUMP JUMPDEST PUSH1 0x0 PUSH1 0x20 DUP3 ADD SWAP1 POP DUP2 DUP2 SUB PUSH1 0x0 DUP4 ADD MSTORE PUSH2 0x3365 DUP2 PUSH2 0x3329 JUMP JUMPDEST SWAP1 POP SWAP2 SWAP1 POP JUMP JUMPDEST PUSH1 0x0 PUSH2 0x3377 DUP3 PUSH2 0x2251 JUMP JUMPDEST SWAP2 POP PUSH2 0x3382 DUP4 PUSH2 0x2251 JUMP JUMPDEST SWAP3 POP DUP3 DUP3 ADD SWAP1 POP DUP1 DUP3 GT ISZERO PUSH2 0x339A JUMPI PUSH2 0x3399 PUSH2 0x2A20 JUMP JUMPDEST JUMPDEST SWAP3 SWAP2 POP POP JUMP JUMPDEST PUSH32 0x4E487B7100000000000000000000000000000000000000000000000000000000 PUSH1 0x0 MSTORE PUSH1 0x12 PUSH1 0x4 MSTORE PUSH1 0x24 PUSH1 0x0 REVERT JUMPDEST PUSH1 0x0 PUSH2 0x33DA DUP3 PUSH2 0x2251 JUMP JUMPDEST SWAP2 POP PUSH2 0x33E5 DUP4 PUSH2 0x2251 JUMP JUMPDEST SWAP3 POP DUP3 PUSH2 0x33F5 JUMPI PUSH2 0x33F4 PUSH2 0x33A0 JUMP JUMPDEST JUMPDEST DUP3 DUP3 MOD SWAP1 POP SWAP3 SWAP2 POP POP JUMP JUMPDEST PUSH1 0x0 PUSH2 0x340B DUP3 PUSH2 0x2418 JUMP JUMPDEST SWAP2 POP PUSH2 0x3416 DUP4 PUSH2 0x2418 JUMP JUMPDEST SWAP3 POP DUP3 DUP3 ADD SWAP1 POP PUSH1 0xFF DUP2 GT ISZERO PUSH2 0x342F JUMPI PUSH2 0x342E PUSH2 0x2A20 JUMP JUMPDEST JUMPDEST SWAP3 SWAP2 POP POP JUMP JUMPDEST PUSH1 0x0 PUSH2 0x3440 DUP3 PUSH2 0x2418 JUMP JUMPDEST SWAP2 POP PUSH1 0xFF DUP3 SUB PUSH2 0x3453 JUMPI PUSH2 0x3452 PUSH2 0x2A20 JUMP JUMPDEST JUMPDEST PUSH1 0x1 DUP3 ADD SWAP1 POP SWAP2 SWAP1 POP JUMP JUMPDEST PUSH32 0x4F776E61626C653A2063616C6C6572206973206E6F7420746865206F776E6572 PUSH1 0x0 DUP3 ADD MSTORE POP JUMP JUMPDEST PUSH1 0x0 PUSH2 0x3494 PUSH1 0x20 DUP4 PUSH2 0x2337 JUMP JUMPDEST SWAP2 POP PUSH2 0x349F DUP3 PUSH2 0x345E JUMP JUMPDEST PUSH1 0x20 DUP3 ADD SWAP1 POP SWAP2 SWAP1 POP JUMP JUMPDEST PUSH1 0x0 PUSH1 0x20 DUP3 ADD SWAP1 POP DUP2 DUP2 SUB PUSH1 0x0 DUP4 ADD MSTORE PUSH2 0x34C3 DUP2 PUSH2 0x3487 JUMP JUMPDEST SWAP1 POP SWAP2 SWAP1 POP JUMP JUMPDEST PUSH32 0x4E487B7100000000000000000000000000000000000000000000000000000000 PUSH1 0x0 MSTORE PUSH1 0x51 PUSH1 0x4 MSTORE PUSH1 0x24 PUSH1 0x0 REVERT INVALID LOG2 PUSH5 0x6970667358 0x22 SLT KECCAK256 0xCE ADDMOD 0xB8 0xBE 0xBF 0xD CALL GASPRICE 0xAA MUL 0xE9 JUMPDEST MUL 0xC7 JUMPI 0xE3 MSTORE8 CALL RETURN PC 0x26 0xC0 DUP7 0x2E SHR DUP16 PUSH9 0xE257D37D9764736F6C PUSH4 0x43000811 STOP CALLER "
				},
				"gasEstimates": {
					"creation": {
						"codeDepositCost": "2723000",
						"executionCost": "infinite",
						"totalCost": "infinite"
					},
					"external": {
						"addShard(string,bool)": "infinite",
						"contractId()": "2518",
						"declareDel(uint256)": "infinite",
						"declareDeploy(uint256,bytes20,string)": "infinite",
						"deployMap(uint256)": "infinite",
						"fullfillDelete(uint256,bool)": "infinite",
						"fullfillDeploy(uint256,bool)": "infinite",
						"owner()": "2545",
						"renounceOwnership()": "30443",
						"reserveDeploy()": "infinite",
						"setAlg(uint8)": "infinite",
						"setOracle(address)": "infinite",
						"setShardStatus(uint8,bool)": "31555",
						"shardList(uint256)": "infinite",
						"transferOwnership(address)": "30810"
					},
					"internal": {
						"defaultAlg()": "infinite",
						"minDeployAlg()": "infinite"
					}
				},
				"methodIdentifiers": {
					"addShard(string,bool)": "65a88003",
					"contractId()": "8291286c",
					"declareDel(uint256)": "9552bca7",
					"declareDeploy(uint256,bytes20,string)": "c0981b26",
					"deployMap(uint256)": "613eb17d",
					"fullfillDelete(uint256,bool)": "a07ca635",
					"fullfillDeploy(uint256,bool)": "19b4a0f9",
					"owner()": "8da5cb5b",
					"renounceOwnership()": "715018a6",
					"reserveDeploy()": "ca989659",
					"setAlg(uint8)": "98c20543",
					"setOracle(address)": "7adbf973",
					"setShardStatus(uint8,bool)": "f335f7ac",
					"shardList(uint256)": "608c2db5",
					"transferOwnership(address)": "f2fde38b"
				}
			},
			"storageLayout": {
				"storage": [
					{
						"astId": 7,
						"contract": "contracts/Manager.sol:Manager",
						"label": "_owner",
						"offset": 0,
						"slot": "0",
						"type": "t_address"
					},
					{
						"astId": 172,
						"contract": "contracts/Manager.sol:Manager",
						"label": "deployMap",
						"offset": 0,
						"slot": "1",
						"type": "t_mapping(t_uint256,t_struct(Contract)160_storage)"
					},
					{
						"astId": 176,
						"contract": "contracts/Manager.sol:Manager",
						"label": "shardList",
						"offset": 0,
						"slot": "2",
						"type": "t_array(t_struct(Shard)167_storage)dyn_storage"
					},
					{
						"astId": 178,
						"contract": "contracts/Manager.sol:Manager",
						"label": "currentAlg",
						"offset": 0,
						"slot": "3",
						"type": "t_uint8"
					},
					{
						"astId": 180,
						"contract": "contracts/Manager.sol:Manager",
						"label": "currentShard",
						"offset": 1,
						"slot": "3",
						"type": "t_uint8"
					},
					{
						"astId": 187,
						"contract": "contracts/Manager.sol:Manager",
						"label": "algs",
						"offset": 0,
						"slot": "4",
						"type": "t_array(t_function_internal_nonpayable()returns(t_uint8))dyn_storage"
					},
					{
						"astId": 190,
						"contract": "contracts/Manager.sol:Manager",
						"label": "oracle",
						"offset": 0,
						"slot": "5",
						"type": "t_contract(AbstractOracle)964"
					},
					{
						"astId": 192,
						"contract": "contracts/Manager.sol:Manager",
						"label": "contractId",
						"offset": 0,
						"slot": "6",
						"type": "t_uint256"
					},
					{
						"astId": 194,
						"contract": "contracts/Manager.sol:Manager",
						"label": "maxShard",
						"offset": 0,
						"slot": "7",
						"type": "t_uint8"
					}
				],
				"types": {
					"t_address": {
						"encoding": "inplace",
						"label": "address",
						"numberOfBytes": "20"
					},
					"t_array(t_function_internal_nonpayable()returns(t_uint8))dyn_storage": {
						"base": "t_function_internal_nonpayable()returns(t_uint8)",
						"encoding": "dynamic_array",
						"label": "function () returns (uint8)[]",
						"numberOfBytes": "32"
					},
					"t_array(t_struct(Shard)167_storage)dyn_storage": {
						"base": "t_struct(Shard)167_storage",
						"encoding": "dynamic_array",
						"label": "struct AbstractManager.Shard[]",
						"numberOfBytes": "32"
					},
					"t_bool": {
						"encoding": "inplace",
						"label": "bool",
						"numberOfBytes": "1"
					},
					"t_bytes20": {
						"encoding": "inplace",
						"label": "bytes20",
						"numberOfBytes": "20"
					},
					"t_contract(AbstractOracle)964": {
						"encoding": "inplace",
						"label": "contract AbstractOracle",
						"numberOfBytes": "20"
					},
					"t_enum(Status)146": {
						"encoding": "inplace",
						"label": "enum AbstractManager.Status",
						"numberOfBytes": "1"
					},
					"t_function_internal_nonpayable()returns(t_uint8)": {
						"encoding": "inplace",
						"label": "function () returns (uint8)",
						"numberOfBytes": "8"
					},
					"t_mapping(t_uint256,t_struct(Contract)160_storage)": {
						"encoding": "mapping",
						"key": "t_uint256",
						"label": "mapping(uint256 => struct AbstractManager.Contract)",
						"numberOfBytes": "32",
						"value": "t_struct(Contract)160_storage"
					},
					"t_string_storage": {
						"encoding": "bytes",
						"label": "string",
						"numberOfBytes": "32"
					},
					"t_struct(Contract)160_storage": {
						"encoding": "inplace",
						"label": "struct AbstractManager.Contract",
						"members": [
							{
								"astId": 148,
								"contract": "contracts/Manager.sol:Manager",
								"label": "shardId",
								"offset": 0,
								"slot": "0",
								"type": "t_uint8"
							},
							{
								"astId": 150,
								"contract": "contracts/Manager.sol:Manager",
								"label": "addr",
								"offset": 1,
								"slot": "0",
								"type": "t_bytes20"
							},
							{
								"astId": 152,
								"contract": "contracts/Manager.sol:Manager",
								"label": "name",
								"offset": 0,
								"slot": "1",
								"type": "t_string_storage"
							},
							{
								"astId": 154,
								"contract": "contracts/Manager.sol:Manager",
								"label": "user",
								"offset": 0,
								"slot": "2",
								"type": "t_address"
							},
							{
								"astId": 156,
								"contract": "contracts/Manager.sol:Manager",
								"label": "deployTime",
								"offset": 0,
								"slot": "3",
								"type": "t_uint256"
							},
							{
								"astId": 159,
								"contract": "contracts/Manager.sol:Manager",
								"label": "status",
								"offset": 0,
								"slot": "4",
								"type": "t_enum(Status)146"
							}
						],
						"numberOfBytes": "160"
					},
					"t_struct(Shard)167_storage": {
						"encoding": "inplace",
						"label": "struct AbstractManager.Shard",
						"members": [
							{
								"astId": 162,
								"contract": "contracts/Manager.sol:Manager",
								"label": "url",
								"offset": 0,
								"slot": "0",
								"type": "t_string_storage"
							},
							{
								"astId": 164,
								"contract": "contracts/Manager.sol:Manager",
								"label": "active",
								"offset": 0,
								"slot": "1",
								"type": "t_bool"
							},
							{
								"astId": 166,
								"contract": "contracts/Manager.sol:Manager",
								"label": "numDeploy",
								"offset": 0,
								"slot": "2",
								"type": "t_uint256"
							}
						],
						"numberOfBytes": "96"
					},
					"t_uint256": {
						"encoding": "inplace",
						"label": "uint256",
						"numberOfBytes": "32"
					},
					"t_uint8": {
						"encoding": "inplace",
						"label": "uint8",
						"numberOfBytes": "1"
					}
				}
			},
			"userdoc": {
				"kind": "user",
				"methods": {},
				"version": 1
			}
		}
	}
}