{
	"contracts/on_chain_manager/Oracle.sol": {
		"Oracle": {
			"abi": [
				{
					"anonymous": false,
					"inputs": [
						{
							"indexed": false,
							"internalType": "address",
							"name": "newAddress",
							"type": "address"
						}
					],
					"name": "ChangedManager",
					"type": "event"
				},
				{
					"anonymous": false,
					"inputs": [
						{
							"indexed": false,
							"internalType": "uint256",
							"name": "id",
							"type": "uint256"
						},
						{
							"indexed": false,
							"internalType": "string",
							"name": "shard",
							"type": "string"
						},
						{
							"indexed": false,
							"internalType": "bytes20",
							"name": "addr",
							"type": "bytes20"
						}
					],
					"name": "CheckDeleteRequest",
					"type": "event"
				},
				{
					"anonymous": false,
					"inputs": [
						{
							"indexed": false,
							"internalType": "uint256",
							"name": "id",
							"type": "uint256"
						},
						{
							"indexed": false,
							"internalType": "string",
							"name": "shard",
							"type": "string"
						},
						{
							"indexed": false,
							"internalType": "bytes20",
							"name": "addr",
							"type": "bytes20"
						}
					],
					"name": "CheckDeployRequest",
					"type": "event"
				},
				{
					"anonymous": false,
					"inputs": [
						{
							"indexed": true,
							"internalType": "address",
							"name": "previousOwner",
							"type": "address"
						},
						{
							"indexed": true,
							"internalType": "address",
							"name": "newOwner",
							"type": "address"
						}
					],
					"name": "OwnershipTransferred",
					"type": "event"
				},
				{
					"inputs": [
						{
							"internalType": "uint256",
							"name": "id",
							"type": "uint256"
						},
						{
							"internalType": "string",
							"name": "shard",
							"type": "string"
						},
						{
							"internalType": "bytes20",
							"name": "addr",
							"type": "bytes20"
						}
					],
					"name": "checkDelete",
					"outputs": [],
					"stateMutability": "nonpayable",
					"type": "function"
				},
				{
					"inputs": [
						{
							"internalType": "uint256",
							"name": "id",
							"type": "uint256"
						},
						{
							"internalType": "string",
							"name": "shard",
							"type": "string"
						},
						{
							"internalType": "bytes20",
							"name": "addr",
							"type": "bytes20"
						}
					],
					"name": "checkDeploy",
					"outputs": [],
					"stateMutability": "nonpayable",
					"type": "function"
				},
				{
					"inputs": [
						{
							"internalType": "uint256",
							"name": "id",
							"type": "uint256"
						},
						{
							"internalType": "bool",
							"name": "result",
							"type": "bool"
						}
					],
					"name": "deleteChecked",
					"outputs": [],
					"stateMutability": "nonpayable",
					"type": "function"
				},
				{
					"inputs": [
						{
							"internalType": "uint256",
							"name": "id",
							"type": "uint256"
						},
						{
							"internalType": "bool",
							"name": "result",
							"type": "bool"
						}
					],
					"name": "deployChecked",
					"outputs": [],
					"stateMutability": "nonpayable",
					"type": "function"
				},
				{
					"inputs": [],
					"name": "owner",
					"outputs": [
						{
							"internalType": "address",
							"name": "",
							"type": "address"
						}
					],
					"stateMutability": "view",
					"type": "function"
				},
				{
					"inputs": [],
					"name": "renounceOwnership",
					"outputs": [],
					"stateMutability": "nonpayable",
					"type": "function"
				},
				{
					"inputs": [
						{
							"internalType": "address",
							"name": "newAddress",
							"type": "address"
						}
					],
					"name": "setManager",
					"outputs": [],
					"stateMutability": "nonpayable",
					"type": "function"
				},
				{
					"inputs": [
						{
							"internalType": "address",
							"name": "newOwner",
							"type": "address"
						}
					],
					"name": "transferOwnership",
					"outputs": [],
					"stateMutability": "nonpayable",
					"type": "function"
				}
			],
			"devdoc": {
				"kind": "dev",
				"methods": {
					"owner()": {
						"details": "Returns the address of the current owner."
					},
					"renounceOwnership()": {
						"details": "Leaves the contract without owner. It will not be possible to call `onlyOwner` functions anymore. Can only be called by the current owner. NOTE: Renouncing ownership will leave the contract without an owner, thereby removing any functionality that is only available to the owner."
					},
					"transferOwnership(address)": {
						"details": "Transfers ownership of the contract to a new account (`newOwner`). Can only be called by the current owner."
					}
				},
				"version": 1
			},
			"evm": {
				"assembly": "    /* \"contracts/on_chain_manager/Oracle.sol\":133:1474  contract Oracle is AbstractOracle {... */\n  mstore(0x40, 0x80)\n  callvalue\n  dup1\n  iszero\n  tag_1\n  jumpi\n  0x00\n  dup1\n  revert\ntag_1:\n  pop\n    /* \"@openzeppelin/contracts/access/Ownable.sol\":936:968  _transferOwnership(_msgSender()) */\n  tag_4\n    /* \"@openzeppelin/contracts/access/Ownable.sol\":955:967  _msgSender() */\n  tag_5\n    /* \"@openzeppelin/contracts/access/Ownable.sol\":955:965  _msgSender */\n  shl(0x20, tag_6)\n    /* \"@openzeppelin/contracts/access/Ownable.sol\":955:967  _msgSender() */\n  0x20\n  shr\n  jump\t// in\ntag_5:\n    /* \"@openzeppelin/contracts/access/Ownable.sol\":936:954  _transferOwnership */\n  shl(0x20, tag_7)\n    /* \"@openzeppelin/contracts/access/Ownable.sol\":936:968  _transferOwnership(_msgSender()) */\n  0x20\n  shr\n  jump\t// in\ntag_4:\n    /* \"contracts/on_chain_manager/Oracle.sol\":133:1474  contract Oracle is AbstractOracle {... */\n  jump(tag_8)\n    /* \"@openzeppelin/contracts/utils/Context.sol\":640:736  function _msgSender() internal view virtual returns (address) {... */\ntag_6:\n    /* \"@openzeppelin/contracts/utils/Context.sol\":693:700  address */\n  0x00\n    /* \"@openzeppelin/contracts/utils/Context.sol\":719:729  msg.sender */\n  caller\n    /* \"@openzeppelin/contracts/utils/Context.sol\":712:729  return msg.sender */\n  swap1\n  pop\n    /* \"@openzeppelin/contracts/utils/Context.sol\":640:736  function _msgSender() internal view virtual returns (address) {... */\n  swap1\n  jump\t// out\n    /* \"@openzeppelin/contracts/access/Ownable.sol\":2433:2620  function _transferOwnership(address newOwner) internal virtual {... */\ntag_7:\n    /* \"@openzeppelin/contracts/access/Ownable.sol\":2506:2522  address oldOwner */\n  0x00\n    /* \"@openzeppelin/contracts/access/Ownable.sol\":2525:2531  _owner */\n  dup1\n  0x00\n  swap1\n  sload\n  swap1\n  0x0100\n  exp\n  swap1\n  div\n  0xffffffffffffffffffffffffffffffffffffffff\n  and\n    /* \"@openzeppelin/contracts/access/Ownable.sol\":2506:2531  address oldOwner = _owner */\n  swap1\n  pop\n    /* \"@openzeppelin/contracts/access/Ownable.sol\":2550:2558  newOwner */\n  dup2\n    /* \"@openzeppelin/contracts/access/Ownable.sol\":2541:2547  _owner */\n  0x00\n  dup1\n    /* \"@openzeppelin/contracts/access/Ownable.sol\":2541:2558  _owner = newOwner */\n  0x0100\n  exp\n  dup2\n  sload\n  dup2\n  0xffffffffffffffffffffffffffffffffffffffff\n  mul\n  not\n  and\n  swap1\n  dup4\n  0xffffffffffffffffffffffffffffffffffffffff\n  and\n  mul\n  or\n  swap1\n  sstore\n  pop\n    /* \"@openzeppelin/contracts/access/Ownable.sol\":2604:2612  newOwner */\n  dup2\n    /* \"@openzeppelin/contracts/access/Ownable.sol\":2573:2613  OwnershipTransferred(oldOwner, newOwner) */\n  0xffffffffffffffffffffffffffffffffffffffff\n  and\n    /* \"@openzeppelin/contracts/access/Ownable.sol\":2594:2602  oldOwner */\n  dup2\n    /* \"@openzeppelin/contracts/access/Ownable.sol\":2573:2613  OwnershipTransferred(oldOwner, newOwner) */\n  0xffffffffffffffffffffffffffffffffffffffff\n  and\n  0x8be0079c531659141344cd1fd0a4f28419497f9722a3daafe3b4186f6b6457e0\n  mload(0x40)\n  mload(0x40)\n  dup1\n  swap2\n  sub\n  swap1\n  log3\n    /* \"@openzeppelin/contracts/access/Ownable.sol\":2496:2620  {... */\n  pop\n    /* \"@openzeppelin/contracts/access/Ownable.sol\":2433:2620  function _transferOwnership(address newOwner) internal virtual {... */\n  pop\n  jump\t// out\n    /* \"contracts/on_chain_manager/Oracle.sol\":133:1474  contract Oracle is AbstractOracle {... */\ntag_8:\n  dataSize(sub_0)\n  dup1\n  dataOffset(sub_0)\n  0x00\n  codecopy\n  0x00\n  return\nstop\n\nsub_0: assembly {\n        /* \"contracts/on_chain_manager/Oracle.sol\":133:1474  contract Oracle is AbstractOracle {... */\n      mstore(0x40, 0x80)\n      callvalue\n      dup1\n      iszero\n      tag_1\n      jumpi\n      0x00\n      dup1\n      revert\n    tag_1:\n      pop\n      jumpi(tag_2, lt(calldatasize, 0x04))\n      shr(0xe0, calldataload(0x00))\n      dup1\n      0xd0ebdbe7\n      gt\n      tag_11\n      jumpi\n      dup1\n      0xd0ebdbe7\n      eq\n      tag_7\n      jumpi\n      dup1\n      0xd2b6b821\n      eq\n      tag_8\n      jumpi\n      dup1\n      0xf2fde38b\n      eq\n      tag_9\n      jumpi\n      dup1\n      0xf6159ce6\n      eq\n      tag_10\n      jumpi\n      jump(tag_2)\n    tag_11:\n      dup1\n      0x2b0d3a8e\n      eq\n      tag_3\n      jumpi\n      dup1\n      0x715018a6\n      eq\n      tag_4\n      jumpi\n      dup1\n      0x809a875f\n      eq\n      tag_5\n      jumpi\n      dup1\n      0x8da5cb5b\n      eq\n      tag_6\n      jumpi\n    tag_2:\n      0x00\n      dup1\n      revert\n        /* \"contracts/on_chain_manager/Oracle.sol\":681:837  function checkDeploy(uint256 id, string calldata shard, bytes20 addr) external override onlyManager{... */\n    tag_3:\n      tag_12\n      0x04\n      dup1\n      calldatasize\n      sub\n      dup2\n      add\n      swap1\n      tag_13\n      swap2\n      swap1\n      tag_14\n      jump\t// in\n    tag_13:\n      tag_15\n      jump\t// in\n    tag_12:\n      stop\n        /* \"@openzeppelin/contracts/access/Ownable.sol\":1831:1932  function renounceOwnership() public virtual onlyOwner {... */\n    tag_4:\n      tag_16\n      tag_17\n      jump\t// in\n    tag_16:\n      stop\n        /* \"contracts/on_chain_manager/Oracle.sol\":525:661  function deleteChecked(uint256 id, bool result) external onlyOwner managerInitialized{... */\n    tag_5:\n      tag_18\n      0x04\n      dup1\n      calldatasize\n      sub\n      dup2\n      add\n      swap1\n      tag_19\n      swap2\n      swap1\n      tag_20\n      jump\t// in\n    tag_19:\n      tag_21\n      jump\t// in\n    tag_18:\n      stop\n        /* \"@openzeppelin/contracts/access/Ownable.sol\":1201:1286  function owner() public view virtual returns (address) {... */\n    tag_6:\n      tag_22\n      tag_23\n      jump\t// in\n    tag_22:\n      mload(0x40)\n      tag_24\n      swap2\n      swap1\n      tag_25\n      jump\t// in\n    tag_24:\n      mload(0x40)\n      dup1\n      swap2\n      sub\n      swap1\n      return\n        /* \"contracts/on_chain_manager/Oracle.sol\":224:377  function setManager(address newAddress) external onlyOwner{... */\n    tag_7:\n      tag_26\n      0x04\n      dup1\n      calldatasize\n      sub\n      dup2\n      add\n      swap1\n      tag_27\n      swap2\n      swap1\n      tag_28\n      jump\t// in\n    tag_27:\n      tag_29\n      jump\t// in\n    tag_26:\n      stop\n        /* \"contracts/on_chain_manager/Oracle.sol\":383:519  function deployChecked(uint256 id, bool result) external onlyOwner managerInitialized{... */\n    tag_8:\n      tag_30\n      0x04\n      dup1\n      calldatasize\n      sub\n      dup2\n      add\n      swap1\n      tag_31\n      swap2\n      swap1\n      tag_20\n      jump\t// in\n    tag_31:\n      tag_32\n      jump\t// in\n    tag_30:\n      stop\n        /* \"@openzeppelin/contracts/access/Ownable.sol\":2081:2279  function transferOwnership(address newOwner) public virtual onlyOwner {... */\n    tag_9:\n      tag_33\n      0x04\n      dup1\n      calldatasize\n      sub\n      dup2\n      add\n      swap1\n      tag_34\n      swap2\n      swap1\n      tag_28\n      jump\t// in\n    tag_34:\n      tag_35\n      jump\t// in\n    tag_33:\n      stop\n        /* \"contracts/on_chain_manager/Oracle.sol\":843:999  function checkDelete(uint256 id, string calldata shard, bytes20 addr) external override onlyManager{... */\n    tag_10:\n      tag_36\n      0x04\n      dup1\n      calldatasize\n      sub\n      dup2\n      add\n      swap1\n      tag_37\n      swap2\n      swap1\n      tag_14\n      jump\t// in\n    tag_37:\n      tag_38\n      jump\t// in\n    tag_36:\n      stop\n        /* \"contracts/on_chain_manager/Oracle.sol\":681:837  function checkDeploy(uint256 id, string calldata shard, bytes20 addr) external override onlyManager{... */\n    tag_15:\n        /* \"contracts/on_chain_manager/Oracle.sol\":1084:1091  manager */\n      0x01\n      0x00\n      swap1\n      sload\n      swap1\n      0x0100\n      exp\n      swap1\n      div\n      0xffffffffffffffffffffffffffffffffffffffff\n      and\n        /* \"contracts/on_chain_manager/Oracle.sol\":1062:1092  msg.sender == address(manager) */\n      0xffffffffffffffffffffffffffffffffffffffff\n      and\n        /* \"contracts/on_chain_manager/Oracle.sol\":1062:1072  msg.sender */\n      caller\n        /* \"contracts/on_chain_manager/Oracle.sol\":1062:1092  msg.sender == address(manager) */\n      0xffffffffffffffffffffffffffffffffffffffff\n      and\n      eq\n        /* \"contracts/on_chain_manager/Oracle.sol\":1054:1118  require(msg.sender == address(manager), \"Caller is not manager\") */\n      tag_40\n      jumpi\n      mload(0x40)\n      0x08c379a000000000000000000000000000000000000000000000000000000000\n      dup2\n      mstore\n      0x04\n      add\n      tag_41\n      swap1\n      tag_42\n      jump\t// in\n    tag_41:\n      mload(0x40)\n      dup1\n      swap2\n      sub\n      swap1\n      revert\n    tag_40:\n        /* \"contracts/on_chain_manager/Oracle.sol\":795:830  CheckDeployRequest(id, shard, addr) */\n      0xcc4d67a1c85e836c647e4e1fba7e10ba2eb0f53cf4a083d9a999a4a853649ee5\n        /* \"contracts/on_chain_manager/Oracle.sol\":814:816  id */\n      dup5\n        /* \"contracts/on_chain_manager/Oracle.sol\":818:823  shard */\n      dup5\n      dup5\n        /* \"contracts/on_chain_manager/Oracle.sol\":825:829  addr */\n      dup5\n        /* \"contracts/on_chain_manager/Oracle.sol\":795:830  CheckDeployRequest(id, shard, addr) */\n      mload(0x40)\n      tag_44\n      swap5\n      swap4\n      swap3\n      swap2\n      swap1\n      tag_45\n      jump\t// in\n    tag_44:\n      mload(0x40)\n      dup1\n      swap2\n      sub\n      swap1\n      log1\n        /* \"contracts/on_chain_manager/Oracle.sol\":681:837  function checkDeploy(uint256 id, string calldata shard, bytes20 addr) external override onlyManager{... */\n      pop\n      pop\n      pop\n      pop\n      jump\t// out\n        /* \"@openzeppelin/contracts/access/Ownable.sol\":1831:1932  function renounceOwnership() public virtual onlyOwner {... */\n    tag_17:\n        /* \"@openzeppelin/contracts/access/Ownable.sol\":1094:1107  _checkOwner() */\n      tag_47\n        /* \"@openzeppelin/contracts/access/Ownable.sol\":1094:1105  _checkOwner */\n      tag_48\n        /* \"@openzeppelin/contracts/access/Ownable.sol\":1094:1107  _checkOwner() */\n      jump\t// in\n    tag_47:\n        /* \"@openzeppelin/contracts/access/Ownable.sol\":1895:1925  _transferOwnership(address(0)) */\n      tag_50\n        /* \"@openzeppelin/contracts/access/Ownable.sol\":1922:1923  0 */\n      0x00\n        /* \"@openzeppelin/contracts/access/Ownable.sol\":1895:1913  _transferOwnership */\n      tag_51\n        /* \"@openzeppelin/contracts/access/Ownable.sol\":1895:1925  _transferOwnership(address(0)) */\n      jump\t// in\n    tag_50:\n        /* \"@openzeppelin/contracts/access/Ownable.sol\":1831:1932  function renounceOwnership() public virtual onlyOwner {... */\n      jump\t// out\n        /* \"contracts/on_chain_manager/Oracle.sol\":525:661  function deleteChecked(uint256 id, bool result) external onlyOwner managerInitialized{... */\n    tag_21:\n        /* \"@openzeppelin/contracts/access/Ownable.sol\":1094:1107  _checkOwner() */\n      tag_53\n        /* \"@openzeppelin/contracts/access/Ownable.sol\":1094:1105  _checkOwner */\n      tag_48\n        /* \"@openzeppelin/contracts/access/Ownable.sol\":1094:1107  _checkOwner() */\n      jump\t// in\n    tag_53:\n        /* \"contracts/on_chain_manager/Oracle.sol\":1224:1225  0 */\n      0x00\n        /* \"contracts/on_chain_manager/Oracle.sol\":1189:1227  manager != AbstractManager(address(0)) */\n      0xffffffffffffffffffffffffffffffffffffffff\n      and\n        /* \"contracts/on_chain_manager/Oracle.sol\":1189:1196  manager */\n      0x01\n      0x00\n      swap1\n      sload\n      swap1\n      0x0100\n      exp\n      swap1\n      div\n      0xffffffffffffffffffffffffffffffffffffffff\n      and\n        /* \"contracts/on_chain_manager/Oracle.sol\":1189:1227  manager != AbstractManager(address(0)) */\n      0xffffffffffffffffffffffffffffffffffffffff\n      and\n      sub\n        /* \"contracts/on_chain_manager/Oracle.sol\":1181:1255  require(manager != AbstractManager(address(0)), \"Manager not initialized\") */\n      tag_55\n      jumpi\n      mload(0x40)\n      0x08c379a000000000000000000000000000000000000000000000000000000000\n      dup2\n      mstore\n      0x04\n      add\n      tag_56\n      swap1\n      tag_57\n      jump\t// in\n    tag_56:\n      mload(0x40)\n      dup1\n      swap2\n      sub\n      swap1\n      revert\n    tag_55:\n        /* \"contracts/on_chain_manager/Oracle.sol\":620:627  manager */\n      0x01\n      0x00\n      swap1\n      sload\n      swap1\n      0x0100\n      exp\n      swap1\n      div\n      0xffffffffffffffffffffffffffffffffffffffff\n      and\n        /* \"contracts/on_chain_manager/Oracle.sol\":620:642  manager.fullfillDelete */\n      0xffffffffffffffffffffffffffffffffffffffff\n      and\n      0xa07ca635\n        /* \"contracts/on_chain_manager/Oracle.sol\":643:645  id */\n      dup4\n        /* \"contracts/on_chain_manager/Oracle.sol\":647:653  result */\n      dup4\n        /* \"contracts/on_chain_manager/Oracle.sol\":620:654  manager.fullfillDelete(id, result) */\n      mload(0x40)\n      dup4\n      0xffffffff\n      and\n      0xe0\n      shl\n      dup2\n      mstore\n      0x04\n      add\n      tag_59\n      swap3\n      swap2\n      swap1\n      tag_60\n      jump\t// in\n    tag_59:\n      0x00\n      mload(0x40)\n      dup1\n      dup4\n      sub\n      dup2\n      0x00\n      dup8\n      dup1\n      extcodesize\n      iszero\n      dup1\n      iszero\n      tag_61\n      jumpi\n      0x00\n      dup1\n      revert\n    tag_61:\n      pop\n      gas\n      call\n      iszero\n      dup1\n      iszero\n      tag_63\n      jumpi\n      returndatasize\n      0x00\n      dup1\n      returndatacopy\n      revert(0x00, returndatasize)\n    tag_63:\n      pop\n      pop\n      pop\n      pop\n        /* \"contracts/on_chain_manager/Oracle.sol\":525:661  function deleteChecked(uint256 id, bool result) external onlyOwner managerInitialized{... */\n      pop\n      pop\n      jump\t// out\n        /* \"@openzeppelin/contracts/access/Ownable.sol\":1201:1286  function owner() public view virtual returns (address) {... */\n    tag_23:\n        /* \"@openzeppelin/contracts/access/Ownable.sol\":1247:1254  address */\n      0x00\n        /* \"@openzeppelin/contracts/access/Ownable.sol\":1273:1279  _owner */\n      dup1\n      0x00\n      swap1\n      sload\n      swap1\n      0x0100\n      exp\n      swap1\n      div\n      0xffffffffffffffffffffffffffffffffffffffff\n      and\n        /* \"@openzeppelin/contracts/access/Ownable.sol\":1266:1279  return _owner */\n      swap1\n      pop\n        /* \"@openzeppelin/contracts/access/Ownable.sol\":1201:1286  function owner() public view virtual returns (address) {... */\n      swap1\n      jump\t// out\n        /* \"contracts/on_chain_manager/Oracle.sol\":224:377  function setManager(address newAddress) external onlyOwner{... */\n    tag_29:\n        /* \"@openzeppelin/contracts/access/Ownable.sol\":1094:1107  _checkOwner() */\n      tag_66\n        /* \"@openzeppelin/contracts/access/Ownable.sol\":1094:1105  _checkOwner */\n      tag_48\n        /* \"@openzeppelin/contracts/access/Ownable.sol\":1094:1107  _checkOwner() */\n      jump\t// in\n    tag_66:\n        /* \"contracts/on_chain_manager/Oracle.sol\":318:328  newAddress */\n      dup1\n        /* \"contracts/on_chain_manager/Oracle.sol\":292:299  manager */\n      0x01\n      0x00\n        /* \"contracts/on_chain_manager/Oracle.sol\":292:329  manager = AbstractManager(newAddress) */\n      0x0100\n      exp\n      dup2\n      sload\n      dup2\n      0xffffffffffffffffffffffffffffffffffffffff\n      mul\n      not\n      and\n      swap1\n      dup4\n      0xffffffffffffffffffffffffffffffffffffffff\n      and\n      mul\n      or\n      swap1\n      sstore\n      pop\n        /* \"contracts/on_chain_manager/Oracle.sol\":344:370  ChangedManager(newAddress) */\n      0xc88fac1456d5bab0817617b9ef707c5cd4df5450ddf5da5816c584ccd464ac3a\n        /* \"contracts/on_chain_manager/Oracle.sol\":359:369  newAddress */\n      dup2\n        /* \"contracts/on_chain_manager/Oracle.sol\":344:370  ChangedManager(newAddress) */\n      mload(0x40)\n      tag_68\n      swap2\n      swap1\n      tag_25\n      jump\t// in\n    tag_68:\n      mload(0x40)\n      dup1\n      swap2\n      sub\n      swap1\n      log1\n        /* \"contracts/on_chain_manager/Oracle.sol\":224:377  function setManager(address newAddress) external onlyOwner{... */\n      pop\n      jump\t// out\n        /* \"contracts/on_chain_manager/Oracle.sol\":383:519  function deployChecked(uint256 id, bool result) external onlyOwner managerInitialized{... */\n    tag_32:\n        /* \"@openzeppelin/contracts/access/Ownable.sol\":1094:1107  _checkOwner() */\n      tag_70\n        /* \"@openzeppelin/contracts/access/Ownable.sol\":1094:1105  _checkOwner */\n      tag_48\n        /* \"@openzeppelin/contracts/access/Ownable.sol\":1094:1107  _checkOwner() */\n      jump\t// in\n    tag_70:\n        /* \"contracts/on_chain_manager/Oracle.sol\":1224:1225  0 */\n      0x00\n        /* \"contracts/on_chain_manager/Oracle.sol\":1189:1227  manager != AbstractManager(address(0)) */\n      0xffffffffffffffffffffffffffffffffffffffff\n      and\n        /* \"contracts/on_chain_manager/Oracle.sol\":1189:1196  manager */\n      0x01\n      0x00\n      swap1\n      sload\n      swap1\n      0x0100\n      exp\n      swap1\n      div\n      0xffffffffffffffffffffffffffffffffffffffff\n      and\n        /* \"contracts/on_chain_manager/Oracle.sol\":1189:1227  manager != AbstractManager(address(0)) */\n      0xffffffffffffffffffffffffffffffffffffffff\n      and\n      sub\n        /* \"contracts/on_chain_manager/Oracle.sol\":1181:1255  require(manager != AbstractManager(address(0)), \"Manager not initialized\") */\n      tag_72\n      jumpi\n      mload(0x40)\n      0x08c379a000000000000000000000000000000000000000000000000000000000\n      dup2\n      mstore\n      0x04\n      add\n      tag_73\n      swap1\n      tag_57\n      jump\t// in\n    tag_73:\n      mload(0x40)\n      dup1\n      swap2\n      sub\n      swap1\n      revert\n    tag_72:\n        /* \"contracts/on_chain_manager/Oracle.sol\":478:485  manager */\n      0x01\n      0x00\n      swap1\n      sload\n      swap1\n      0x0100\n      exp\n      swap1\n      div\n      0xffffffffffffffffffffffffffffffffffffffff\n      and\n        /* \"contracts/on_chain_manager/Oracle.sol\":478:500  manager.fullfillDeploy */\n      0xffffffffffffffffffffffffffffffffffffffff\n      and\n      0x19b4a0f9\n        /* \"contracts/on_chain_manager/Oracle.sol\":501:503  id */\n      dup4\n        /* \"contracts/on_chain_manager/Oracle.sol\":505:511  result */\n      dup4\n        /* \"contracts/on_chain_manager/Oracle.sol\":478:512  manager.fullfillDeploy(id, result) */\n      mload(0x40)\n      dup4\n      0xffffffff\n      and\n      0xe0\n      shl\n      dup2\n      mstore\n      0x04\n      add\n      tag_75\n      swap3\n      swap2\n      swap1\n      tag_60\n      jump\t// in\n    tag_75:\n      0x00\n      mload(0x40)\n      dup1\n      dup4\n      sub\n      dup2\n      0x00\n      dup8\n      dup1\n      extcodesize\n      iszero\n      dup1\n      iszero\n      tag_76\n      jumpi\n      0x00\n      dup1\n      revert\n    tag_76:\n      pop\n      gas\n      call\n      iszero\n      dup1\n      iszero\n      tag_78\n      jumpi\n      returndatasize\n      0x00\n      dup1\n      returndatacopy\n      revert(0x00, returndatasize)\n    tag_78:\n      pop\n      pop\n      pop\n      pop\n        /* \"contracts/on_chain_manager/Oracle.sol\":383:519  function deployChecked(uint256 id, bool result) external onlyOwner managerInitialized{... */\n      pop\n      pop\n      jump\t// out\n        /* \"@openzeppelin/contracts/access/Ownable.sol\":2081:2279  function transferOwnership(address newOwner) public virtual onlyOwner {... */\n    tag_35:\n        /* \"@openzeppelin/contracts/access/Ownable.sol\":1094:1107  _checkOwner() */\n      tag_80\n        /* \"@openzeppelin/contracts/access/Ownable.sol\":1094:1105  _checkOwner */\n      tag_48\n        /* \"@openzeppelin/contracts/access/Ownable.sol\":1094:1107  _checkOwner() */\n      jump\t// in\n    tag_80:\n        /* \"@openzeppelin/contracts/access/Ownable.sol\":2189:2190  0 */\n      0x00\n        /* \"@openzeppelin/contracts/access/Ownable.sol\":2169:2191  newOwner != address(0) */\n      0xffffffffffffffffffffffffffffffffffffffff\n      and\n        /* \"@openzeppelin/contracts/access/Ownable.sol\":2169:2177  newOwner */\n      dup2\n        /* \"@openzeppelin/contracts/access/Ownable.sol\":2169:2191  newOwner != address(0) */\n      0xffffffffffffffffffffffffffffffffffffffff\n      and\n      sub\n        /* \"@openzeppelin/contracts/access/Ownable.sol\":2161:2234  require(newOwner != address(0), \"Ownable: new owner is the zero address\") */\n      tag_82\n      jumpi\n      mload(0x40)\n      0x08c379a000000000000000000000000000000000000000000000000000000000\n      dup2\n      mstore\n      0x04\n      add\n      tag_83\n      swap1\n      tag_84\n      jump\t// in\n    tag_83:\n      mload(0x40)\n      dup1\n      swap2\n      sub\n      swap1\n      revert\n    tag_82:\n        /* \"@openzeppelin/contracts/access/Ownable.sol\":2244:2272  _transferOwnership(newOwner) */\n      tag_85\n        /* \"@openzeppelin/contracts/access/Ownable.sol\":2263:2271  newOwner */\n      dup2\n        /* \"@openzeppelin/contracts/access/Ownable.sol\":2244:2262  _transferOwnership */\n      tag_51\n        /* \"@openzeppelin/contracts/access/Ownable.sol\":2244:2272  _transferOwnership(newOwner) */\n      jump\t// in\n    tag_85:\n        /* \"@openzeppelin/contracts/access/Ownable.sol\":2081:2279  function transferOwnership(address newOwner) public virtual onlyOwner {... */\n      pop\n      jump\t// out\n        /* \"contracts/on_chain_manager/Oracle.sol\":843:999  function checkDelete(uint256 id, string calldata shard, bytes20 addr) external override onlyManager{... */\n    tag_38:\n        /* \"contracts/on_chain_manager/Oracle.sol\":1084:1091  manager */\n      0x01\n      0x00\n      swap1\n      sload\n      swap1\n      0x0100\n      exp\n      swap1\n      div\n      0xffffffffffffffffffffffffffffffffffffffff\n      and\n        /* \"contracts/on_chain_manager/Oracle.sol\":1062:1092  msg.sender == address(manager) */\n      0xffffffffffffffffffffffffffffffffffffffff\n      and\n        /* \"contracts/on_chain_manager/Oracle.sol\":1062:1072  msg.sender */\n      caller\n        /* \"contracts/on_chain_manager/Oracle.sol\":1062:1092  msg.sender == address(manager) */\n      0xffffffffffffffffffffffffffffffffffffffff\n      and\n      eq\n        /* \"contracts/on_chain_manager/Oracle.sol\":1054:1118  require(msg.sender == address(manager), \"Caller is not manager\") */\n      tag_87\n      jumpi\n      mload(0x40)\n      0x08c379a000000000000000000000000000000000000000000000000000000000\n      dup2\n      mstore\n      0x04\n      add\n      tag_88\n      swap1\n      tag_42\n      jump\t// in\n    tag_88:\n      mload(0x40)\n      dup1\n      swap2\n      sub\n      swap1\n      revert\n    tag_87:\n        /* \"contracts/on_chain_manager/Oracle.sol\":957:992  CheckDeleteRequest(id, shard, addr) */\n      0x88bfce09fb4d893d1ae780a582f87cc3c5a3693f07ed95139a157af2f6dc6ad8\n        /* \"contracts/on_chain_manager/Oracle.sol\":976:978  id */\n      dup5\n        /* \"contracts/on_chain_manager/Oracle.sol\":980:985  shard */\n      dup5\n      dup5\n        /* \"contracts/on_chain_manager/Oracle.sol\":987:991  addr */\n      dup5\n        /* \"contracts/on_chain_manager/Oracle.sol\":957:992  CheckDeleteRequest(id, shard, addr) */\n      mload(0x40)\n      tag_90\n      swap5\n      swap4\n      swap3\n      swap2\n      swap1\n      tag_45\n      jump\t// in\n    tag_90:\n      mload(0x40)\n      dup1\n      swap2\n      sub\n      swap1\n      log1\n        /* \"contracts/on_chain_manager/Oracle.sol\":843:999  function checkDelete(uint256 id, string calldata shard, bytes20 addr) external override onlyManager{... */\n      pop\n      pop\n      pop\n      pop\n      jump\t// out\n        /* \"@openzeppelin/contracts/access/Ownable.sol\":1359:1489  function _checkOwner() internal view virtual {... */\n    tag_48:\n        /* \"@openzeppelin/contracts/access/Ownable.sol\":1433:1445  _msgSender() */\n      tag_92\n        /* \"@openzeppelin/contracts/access/Ownable.sol\":1433:1443  _msgSender */\n      tag_93\n        /* \"@openzeppelin/contracts/access/Ownable.sol\":1433:1445  _msgSender() */\n      jump\t// in\n    tag_92:\n        /* \"@openzeppelin/contracts/access/Ownable.sol\":1422:1445  owner() == _msgSender() */\n      0xffffffffffffffffffffffffffffffffffffffff\n      and\n        /* \"@openzeppelin/contracts/access/Ownable.sol\":1422:1429  owner() */\n      tag_94\n        /* \"@openzeppelin/contracts/access/Ownable.sol\":1422:1427  owner */\n      tag_23\n        /* \"@openzeppelin/contracts/access/Ownable.sol\":1422:1429  owner() */\n      jump\t// in\n    tag_94:\n        /* \"@openzeppelin/contracts/access/Ownable.sol\":1422:1445  owner() == _msgSender() */\n      0xffffffffffffffffffffffffffffffffffffffff\n      and\n      eq\n        /* \"@openzeppelin/contracts/access/Ownable.sol\":1414:1482  require(owner() == _msgSender(), \"Ownable: caller is not the owner\") */\n      tag_95\n      jumpi\n      mload(0x40)\n      0x08c379a000000000000000000000000000000000000000000000000000000000\n      dup2\n      mstore\n      0x04\n      add\n      tag_96\n      swap1\n      tag_97\n      jump\t// in\n    tag_96:\n      mload(0x40)\n      dup1\n      swap2\n      sub\n      swap1\n      revert\n    tag_95:\n        /* \"@openzeppelin/contracts/access/Ownable.sol\":1359:1489  function _checkOwner() internal view virtual {... */\n      jump\t// out\n        /* \"@openzeppelin/contracts/access/Ownable.sol\":2433:2620  function _transferOwnership(address newOwner) internal virtual {... */\n    tag_51:\n        /* \"@openzeppelin/contracts/access/Ownable.sol\":2506:2522  address oldOwner */\n      0x00\n        /* \"@openzeppelin/contracts/access/Ownable.sol\":2525:2531  _owner */\n      dup1\n      0x00\n      swap1\n      sload\n      swap1\n      0x0100\n      exp\n      swap1\n      div\n      0xffffffffffffffffffffffffffffffffffffffff\n      and\n        /* \"@openzeppelin/contracts/access/Ownable.sol\":2506:2531  address oldOwner = _owner */\n      swap1\n      pop\n        /* \"@openzeppelin/contracts/access/Ownable.sol\":2550:2558  newOwner */\n      dup2\n        /* \"@openzeppelin/contracts/access/Ownable.sol\":2541:2547  _owner */\n      0x00\n      dup1\n        /* \"@openzeppelin/contracts/access/Ownable.sol\":2541:2558  _owner = newOwner */\n      0x0100\n      exp\n      dup2\n      sload\n      dup2\n      0xffffffffffffffffffffffffffffffffffffffff\n      mul\n      not\n      and\n      swap1\n      dup4\n      0xffffffffffffffffffffffffffffffffffffffff\n      and\n      mul\n      or\n      swap1\n      sstore\n      pop\n        /* \"@openzeppelin/contracts/access/Ownable.sol\":2604:2612  newOwner */\n      dup2\n        /* \"@openzeppelin/contracts/access/Ownable.sol\":2573:2613  OwnershipTransferred(oldOwner, newOwner) */\n      0xffffffffffffffffffffffffffffffffffffffff\n      and\n        /* \"@openzeppelin/contracts/access/Ownable.sol\":2594:2602  oldOwner */\n      dup2\n        /* \"@openzeppelin/contracts/access/Ownable.sol\":2573:2613  OwnershipTransferred(oldOwner, newOwner) */\n      0xffffffffffffffffffffffffffffffffffffffff\n      and\n      0x8be0079c531659141344cd1fd0a4f28419497f9722a3daafe3b4186f6b6457e0\n      mload(0x40)\n      mload(0x40)\n      dup1\n      swap2\n      sub\n      swap1\n      log3\n        /* \"@openzeppelin/contracts/access/Ownable.sol\":2496:2620  {... */\n      pop\n        /* \"@openzeppelin/contracts/access/Ownable.sol\":2433:2620  function _transferOwnership(address newOwner) internal virtual {... */\n      pop\n      jump\t// out\n        /* \"@openzeppelin/contracts/utils/Context.sol\":640:736  function _msgSender() internal view virtual returns (address) {... */\n    tag_93:\n        /* \"@openzeppelin/contracts/utils/Context.sol\":693:700  address */\n      0x00\n        /* \"@openzeppelin/contracts/utils/Context.sol\":719:729  msg.sender */\n      caller\n        /* \"@openzeppelin/contracts/utils/Context.sol\":712:729  return msg.sender */\n      swap1\n      pop\n        /* \"@openzeppelin/contracts/utils/Context.sol\":640:736  function _msgSender() internal view virtual returns (address) {... */\n      swap1\n      jump\t// out\n        /* \"#utility.yul\":88:205   */\n    tag_101:\n        /* \"#utility.yul\":197:198   */\n      0x00\n        /* \"#utility.yul\":194:195   */\n      dup1\n        /* \"#utility.yul\":187:199   */\n      revert\n        /* \"#utility.yul\":211:328   */\n    tag_102:\n        /* \"#utility.yul\":320:321   */\n      0x00\n        /* \"#utility.yul\":317:318   */\n      dup1\n        /* \"#utility.yul\":310:322   */\n      revert\n        /* \"#utility.yul\":334:411   */\n    tag_103:\n        /* \"#utility.yul\":371:378   */\n      0x00\n        /* \"#utility.yul\":400:405   */\n      dup2\n        /* \"#utility.yul\":389:405   */\n      swap1\n      pop\n        /* \"#utility.yul\":334:411   */\n      swap2\n      swap1\n      pop\n      jump\t// out\n        /* \"#utility.yul\":417:539   */\n    tag_104:\n        /* \"#utility.yul\":490:514   */\n      tag_142\n        /* \"#utility.yul\":508:513   */\n      dup2\n        /* \"#utility.yul\":490:514   */\n      tag_103\n      jump\t// in\n    tag_142:\n        /* \"#utility.yul\":483:488   */\n      dup2\n        /* \"#utility.yul\":480:515   */\n      eq\n        /* \"#utility.yul\":470:533   */\n      tag_143\n      jumpi\n        /* \"#utility.yul\":529:530   */\n      0x00\n        /* \"#utility.yul\":526:527   */\n      dup1\n        /* \"#utility.yul\":519:531   */\n      revert\n        /* \"#utility.yul\":470:533   */\n    tag_143:\n        /* \"#utility.yul\":417:539   */\n      pop\n      jump\t// out\n        /* \"#utility.yul\":545:684   */\n    tag_105:\n        /* \"#utility.yul\":591:596   */\n      0x00\n        /* \"#utility.yul\":629:635   */\n      dup2\n        /* \"#utility.yul\":616:636   */\n      calldataload\n        /* \"#utility.yul\":607:636   */\n      swap1\n      pop\n        /* \"#utility.yul\":645:678   */\n      tag_145\n        /* \"#utility.yul\":672:677   */\n      dup2\n        /* \"#utility.yul\":645:678   */\n      tag_104\n      jump\t// in\n    tag_145:\n        /* \"#utility.yul\":545:684   */\n      swap3\n      swap2\n      pop\n      pop\n      jump\t// out\n        /* \"#utility.yul\":690:807   */\n    tag_106:\n        /* \"#utility.yul\":799:800   */\n      0x00\n        /* \"#utility.yul\":796:797   */\n      dup1\n        /* \"#utility.yul\":789:801   */\n      revert\n        /* \"#utility.yul\":813:930   */\n    tag_107:\n        /* \"#utility.yul\":922:923   */\n      0x00\n        /* \"#utility.yul\":919:920   */\n      dup1\n        /* \"#utility.yul\":912:924   */\n      revert\n        /* \"#utility.yul\":936:1053   */\n    tag_108:\n        /* \"#utility.yul\":1045:1046   */\n      0x00\n        /* \"#utility.yul\":1042:1043   */\n      dup1\n        /* \"#utility.yul\":1035:1047   */\n      revert\n        /* \"#utility.yul\":1073:1626   */\n    tag_109:\n        /* \"#utility.yul\":1131:1139   */\n      0x00\n        /* \"#utility.yul\":1141:1147   */\n      dup1\n        /* \"#utility.yul\":1191:1194   */\n      dup4\n        /* \"#utility.yul\":1184:1188   */\n      0x1f\n        /* \"#utility.yul\":1176:1182   */\n      dup5\n        /* \"#utility.yul\":1172:1189   */\n      add\n        /* \"#utility.yul\":1168:1195   */\n      slt\n        /* \"#utility.yul\":1158:1280   */\n      tag_150\n      jumpi\n        /* \"#utility.yul\":1199:1278   */\n      tag_151\n      tag_106\n      jump\t// in\n    tag_151:\n        /* \"#utility.yul\":1158:1280   */\n    tag_150:\n        /* \"#utility.yul\":1312:1318   */\n      dup3\n        /* \"#utility.yul\":1299:1319   */\n      calldataload\n        /* \"#utility.yul\":1289:1319   */\n      swap1\n      pop\n        /* \"#utility.yul\":1342:1360   */\n      0xffffffffffffffff\n        /* \"#utility.yul\":1334:1340   */\n      dup2\n        /* \"#utility.yul\":1331:1361   */\n      gt\n        /* \"#utility.yul\":1328:1445   */\n      iszero\n      tag_152\n      jumpi\n        /* \"#utility.yul\":1364:1443   */\n      tag_153\n      tag_107\n      jump\t// in\n    tag_153:\n        /* \"#utility.yul\":1328:1445   */\n    tag_152:\n        /* \"#utility.yul\":1478:1482   */\n      0x20\n        /* \"#utility.yul\":1470:1476   */\n      dup4\n        /* \"#utility.yul\":1466:1483   */\n      add\n        /* \"#utility.yul\":1454:1483   */\n      swap2\n      pop\n        /* \"#utility.yul\":1532:1535   */\n      dup4\n        /* \"#utility.yul\":1524:1528   */\n      0x01\n        /* \"#utility.yul\":1516:1522   */\n      dup3\n        /* \"#utility.yul\":1512:1529   */\n      mul\n        /* \"#utility.yul\":1502:1510   */\n      dup4\n        /* \"#utility.yul\":1498:1530   */\n      add\n        /* \"#utility.yul\":1495:1536   */\n      gt\n        /* \"#utility.yul\":1492:1620   */\n      iszero\n      tag_154\n      jumpi\n        /* \"#utility.yul\":1539:1618   */\n      tag_155\n      tag_108\n      jump\t// in\n    tag_155:\n        /* \"#utility.yul\":1492:1620   */\n    tag_154:\n        /* \"#utility.yul\":1073:1626   */\n      swap3\n      pop\n      swap3\n      swap1\n      pop\n      jump\t// out\n        /* \"#utility.yul\":1632:1782   */\n    tag_110:\n        /* \"#utility.yul\":1669:1676   */\n      0x00\n        /* \"#utility.yul\":1709:1775   */\n      0xffffffffffffffffffffffffffffffffffffffff000000000000000000000000\n        /* \"#utility.yul\":1702:1707   */\n      dup3\n        /* \"#utility.yul\":1698:1776   */\n      and\n        /* \"#utility.yul\":1687:1776   */\n      swap1\n      pop\n        /* \"#utility.yul\":1632:1782   */\n      swap2\n      swap1\n      pop\n      jump\t// out\n        /* \"#utility.yul\":1788:1910   */\n    tag_111:\n        /* \"#utility.yul\":1861:1885   */\n      tag_158\n        /* \"#utility.yul\":1879:1884   */\n      dup2\n        /* \"#utility.yul\":1861:1885   */\n      tag_110\n      jump\t// in\n    tag_158:\n        /* \"#utility.yul\":1854:1859   */\n      dup2\n        /* \"#utility.yul\":1851:1886   */\n      eq\n        /* \"#utility.yul\":1841:1904   */\n      tag_159\n      jumpi\n        /* \"#utility.yul\":1900:1901   */\n      0x00\n        /* \"#utility.yul\":1897:1898   */\n      dup1\n        /* \"#utility.yul\":1890:1902   */\n      revert\n        /* \"#utility.yul\":1841:1904   */\n    tag_159:\n        /* \"#utility.yul\":1788:1910   */\n      pop\n      jump\t// out\n        /* \"#utility.yul\":1916:2055   */\n    tag_112:\n        /* \"#utility.yul\":1962:1967   */\n      0x00\n        /* \"#utility.yul\":2000:2006   */\n      dup2\n        /* \"#utility.yul\":1987:2007   */\n      calldataload\n        /* \"#utility.yul\":1978:2007   */\n      swap1\n      pop\n        /* \"#utility.yul\":2016:2049   */\n      tag_161\n        /* \"#utility.yul\":2043:2048   */\n      dup2\n        /* \"#utility.yul\":2016:2049   */\n      tag_111\n      jump\t// in\n    tag_161:\n        /* \"#utility.yul\":1916:2055   */\n      swap3\n      swap2\n      pop\n      pop\n      jump\t// out\n        /* \"#utility.yul\":2061:2880   */\n    tag_14:\n        /* \"#utility.yul\":2150:2156   */\n      0x00\n        /* \"#utility.yul\":2158:2164   */\n      dup1\n        /* \"#utility.yul\":2166:2172   */\n      0x00\n        /* \"#utility.yul\":2174:2180   */\n      dup1\n        /* \"#utility.yul\":2223:2225   */\n      0x60\n        /* \"#utility.yul\":2211:2220   */\n      dup6\n        /* \"#utility.yul\":2202:2209   */\n      dup8\n        /* \"#utility.yul\":2198:2221   */\n      sub\n        /* \"#utility.yul\":2194:2226   */\n      slt\n        /* \"#utility.yul\":2191:2310   */\n      iszero\n      tag_163\n      jumpi\n        /* \"#utility.yul\":2229:2308   */\n      tag_164\n      tag_101\n      jump\t// in\n    tag_164:\n        /* \"#utility.yul\":2191:2310   */\n    tag_163:\n        /* \"#utility.yul\":2349:2350   */\n      0x00\n        /* \"#utility.yul\":2374:2427   */\n      tag_165\n        /* \"#utility.yul\":2419:2426   */\n      dup8\n        /* \"#utility.yul\":2410:2416   */\n      dup3\n        /* \"#utility.yul\":2399:2408   */\n      dup9\n        /* \"#utility.yul\":2395:2417   */\n      add\n        /* \"#utility.yul\":2374:2427   */\n      tag_105\n      jump\t// in\n    tag_165:\n        /* \"#utility.yul\":2364:2427   */\n      swap5\n      pop\n        /* \"#utility.yul\":2320:2437   */\n      pop\n        /* \"#utility.yul\":2504:2506   */\n      0x20\n        /* \"#utility.yul\":2493:2502   */\n      dup6\n        /* \"#utility.yul\":2489:2507   */\n      add\n        /* \"#utility.yul\":2476:2508   */\n      calldataload\n        /* \"#utility.yul\":2535:2553   */\n      0xffffffffffffffff\n        /* \"#utility.yul\":2527:2533   */\n      dup2\n        /* \"#utility.yul\":2524:2554   */\n      gt\n        /* \"#utility.yul\":2521:2638   */\n      iszero\n      tag_166\n      jumpi\n        /* \"#utility.yul\":2557:2636   */\n      tag_167\n      tag_102\n      jump\t// in\n    tag_167:\n        /* \"#utility.yul\":2521:2638   */\n    tag_166:\n        /* \"#utility.yul\":2670:2735   */\n      tag_168\n        /* \"#utility.yul\":2727:2734   */\n      dup8\n        /* \"#utility.yul\":2718:2724   */\n      dup3\n        /* \"#utility.yul\":2707:2716   */\n      dup9\n        /* \"#utility.yul\":2703:2725   */\n      add\n        /* \"#utility.yul\":2670:2735   */\n      tag_109\n      jump\t// in\n    tag_168:\n        /* \"#utility.yul\":2652:2735   */\n      swap4\n      pop\n      swap4\n      pop\n        /* \"#utility.yul\":2447:2745   */\n      pop\n        /* \"#utility.yul\":2784:2786   */\n      0x40\n        /* \"#utility.yul\":2810:2863   */\n      tag_169\n        /* \"#utility.yul\":2855:2862   */\n      dup8\n        /* \"#utility.yul\":2846:2852   */\n      dup3\n        /* \"#utility.yul\":2835:2844   */\n      dup9\n        /* \"#utility.yul\":2831:2853   */\n      add\n        /* \"#utility.yul\":2810:2863   */\n      tag_112\n      jump\t// in\n    tag_169:\n        /* \"#utility.yul\":2800:2863   */\n      swap2\n      pop\n        /* \"#utility.yul\":2755:2873   */\n      pop\n        /* \"#utility.yul\":2061:2880   */\n      swap3\n      swap6\n      swap2\n      swap5\n      pop\n      swap3\n      pop\n      jump\t// out\n        /* \"#utility.yul\":2886:2976   */\n    tag_113:\n        /* \"#utility.yul\":2920:2927   */\n      0x00\n        /* \"#utility.yul\":2963:2968   */\n      dup2\n        /* \"#utility.yul\":2956:2969   */\n      iszero\n        /* \"#utility.yul\":2949:2970   */\n      iszero\n        /* \"#utility.yul\":2938:2970   */\n      swap1\n      pop\n        /* \"#utility.yul\":2886:2976   */\n      swap2\n      swap1\n      pop\n      jump\t// out\n        /* \"#utility.yul\":2982:3098   */\n    tag_114:\n        /* \"#utility.yul\":3052:3073   */\n      tag_172\n        /* \"#utility.yul\":3067:3072   */\n      dup2\n        /* \"#utility.yul\":3052:3073   */\n      tag_113\n      jump\t// in\n    tag_172:\n        /* \"#utility.yul\":3045:3050   */\n      dup2\n        /* \"#utility.yul\":3042:3074   */\n      eq\n        /* \"#utility.yul\":3032:3092   */\n      tag_173\n      jumpi\n        /* \"#utility.yul\":3088:3089   */\n      0x00\n        /* \"#utility.yul\":3085:3086   */\n      dup1\n        /* \"#utility.yul\":3078:3090   */\n      revert\n        /* \"#utility.yul\":3032:3092   */\n    tag_173:\n        /* \"#utility.yul\":2982:3098   */\n      pop\n      jump\t// out\n        /* \"#utility.yul\":3104:3237   */\n    tag_115:\n        /* \"#utility.yul\":3147:3152   */\n      0x00\n        /* \"#utility.yul\":3185:3191   */\n      dup2\n        /* \"#utility.yul\":3172:3192   */\n      calldataload\n        /* \"#utility.yul\":3163:3192   */\n      swap1\n      pop\n        /* \"#utility.yul\":3201:3231   */\n      tag_175\n        /* \"#utility.yul\":3225:3230   */\n      dup2\n        /* \"#utility.yul\":3201:3231   */\n      tag_114\n      jump\t// in\n    tag_175:\n        /* \"#utility.yul\":3104:3237   */\n      swap3\n      swap2\n      pop\n      pop\n      jump\t// out\n        /* \"#utility.yul\":3243:3711   */\n    tag_20:\n        /* \"#utility.yul\":3308:3314   */\n      0x00\n        /* \"#utility.yul\":3316:3322   */\n      dup1\n        /* \"#utility.yul\":3365:3367   */\n      0x40\n        /* \"#utility.yul\":3353:3362   */\n      dup4\n        /* \"#utility.yul\":3344:3351   */\n      dup6\n        /* \"#utility.yul\":3340:3363   */\n      sub\n        /* \"#utility.yul\":3336:3368   */\n      slt\n        /* \"#utility.yul\":3333:3452   */\n      iszero\n      tag_177\n      jumpi\n        /* \"#utility.yul\":3371:3450   */\n      tag_178\n      tag_101\n      jump\t// in\n    tag_178:\n        /* \"#utility.yul\":3333:3452   */\n    tag_177:\n        /* \"#utility.yul\":3491:3492   */\n      0x00\n        /* \"#utility.yul\":3516:3569   */\n      tag_179\n        /* \"#utility.yul\":3561:3568   */\n      dup6\n        /* \"#utility.yul\":3552:3558   */\n      dup3\n        /* \"#utility.yul\":3541:3550   */\n      dup7\n        /* \"#utility.yul\":3537:3559   */\n      add\n        /* \"#utility.yul\":3516:3569   */\n      tag_105\n      jump\t// in\n    tag_179:\n        /* \"#utility.yul\":3506:3569   */\n      swap3\n      pop\n        /* \"#utility.yul\":3462:3579   */\n      pop\n        /* \"#utility.yul\":3618:3620   */\n      0x20\n        /* \"#utility.yul\":3644:3694   */\n      tag_180\n        /* \"#utility.yul\":3686:3693   */\n      dup6\n        /* \"#utility.yul\":3677:3683   */\n      dup3\n        /* \"#utility.yul\":3666:3675   */\n      dup7\n        /* \"#utility.yul\":3662:3684   */\n      add\n        /* \"#utility.yul\":3644:3694   */\n      tag_115\n      jump\t// in\n    tag_180:\n        /* \"#utility.yul\":3634:3694   */\n      swap2\n      pop\n        /* \"#utility.yul\":3589:3704   */\n      pop\n        /* \"#utility.yul\":3243:3711   */\n      swap3\n      pop\n      swap3\n      swap1\n      pop\n      jump\t// out\n        /* \"#utility.yul\":3717:3843   */\n    tag_116:\n        /* \"#utility.yul\":3754:3761   */\n      0x00\n        /* \"#utility.yul\":3794:3836   */\n      0xffffffffffffffffffffffffffffffffffffffff\n        /* \"#utility.yul\":3787:3792   */\n      dup3\n        /* \"#utility.yul\":3783:3837   */\n      and\n        /* \"#utility.yul\":3772:3837   */\n      swap1\n      pop\n        /* \"#utility.yul\":3717:3843   */\n      swap2\n      swap1\n      pop\n      jump\t// out\n        /* \"#utility.yul\":3849:3945   */\n    tag_117:\n        /* \"#utility.yul\":3886:3893   */\n      0x00\n        /* \"#utility.yul\":3915:3939   */\n      tag_183\n        /* \"#utility.yul\":3933:3938   */\n      dup3\n        /* \"#utility.yul\":3915:3939   */\n      tag_116\n      jump\t// in\n    tag_183:\n        /* \"#utility.yul\":3904:3939   */\n      swap1\n      pop\n        /* \"#utility.yul\":3849:3945   */\n      swap2\n      swap1\n      pop\n      jump\t// out\n        /* \"#utility.yul\":3951:4069   */\n    tag_118:\n        /* \"#utility.yul\":4038:4062   */\n      tag_185\n        /* \"#utility.yul\":4056:4061   */\n      dup2\n        /* \"#utility.yul\":4038:4062   */\n      tag_117\n      jump\t// in\n    tag_185:\n        /* \"#utility.yul\":4033:4036   */\n      dup3\n        /* \"#utility.yul\":4026:4063   */\n      mstore\n        /* \"#utility.yul\":3951:4069   */\n      pop\n      pop\n      jump\t// out\n        /* \"#utility.yul\":4075:4297   */\n    tag_25:\n        /* \"#utility.yul\":4168:4172   */\n      0x00\n        /* \"#utility.yul\":4206:4208   */\n      0x20\n        /* \"#utility.yul\":4195:4204   */\n      dup3\n        /* \"#utility.yul\":4191:4209   */\n      add\n        /* \"#utility.yul\":4183:4209   */\n      swap1\n      pop\n        /* \"#utility.yul\":4219:4290   */\n      tag_187\n        /* \"#utility.yul\":4287:4288   */\n      0x00\n        /* \"#utility.yul\":4276:4285   */\n      dup4\n        /* \"#utility.yul\":4272:4289   */\n      add\n        /* \"#utility.yul\":4263:4269   */\n      dup5\n        /* \"#utility.yul\":4219:4290   */\n      tag_118\n      jump\t// in\n    tag_187:\n        /* \"#utility.yul\":4075:4297   */\n      swap3\n      swap2\n      pop\n      pop\n      jump\t// out\n        /* \"#utility.yul\":4303:4425   */\n    tag_119:\n        /* \"#utility.yul\":4376:4400   */\n      tag_189\n        /* \"#utility.yul\":4394:4399   */\n      dup2\n        /* \"#utility.yul\":4376:4400   */\n      tag_117\n      jump\t// in\n    tag_189:\n        /* \"#utility.yul\":4369:4374   */\n      dup2\n        /* \"#utility.yul\":4366:4401   */\n      eq\n        /* \"#utility.yul\":4356:4419   */\n      tag_190\n      jumpi\n        /* \"#utility.yul\":4415:4416   */\n      0x00\n        /* \"#utility.yul\":4412:4413   */\n      dup1\n        /* \"#utility.yul\":4405:4417   */\n      revert\n        /* \"#utility.yul\":4356:4419   */\n    tag_190:\n        /* \"#utility.yul\":4303:4425   */\n      pop\n      jump\t// out\n        /* \"#utility.yul\":4431:4570   */\n    tag_120:\n        /* \"#utility.yul\":4477:4482   */\n      0x00\n        /* \"#utility.yul\":4515:4521   */\n      dup2\n        /* \"#utility.yul\":4502:4522   */\n      calldataload\n        /* \"#utility.yul\":4493:4522   */\n      swap1\n      pop\n        /* \"#utility.yul\":4531:4564   */\n      tag_192\n        /* \"#utility.yul\":4558:4563   */\n      dup2\n        /* \"#utility.yul\":4531:4564   */\n      tag_119\n      jump\t// in\n    tag_192:\n        /* \"#utility.yul\":4431:4570   */\n      swap3\n      swap2\n      pop\n      pop\n      jump\t// out\n        /* \"#utility.yul\":4576:4905   */\n    tag_28:\n        /* \"#utility.yul\":4635:4641   */\n      0x00\n        /* \"#utility.yul\":4684:4686   */\n      0x20\n        /* \"#utility.yul\":4672:4681   */\n      dup3\n        /* \"#utility.yul\":4663:4670   */\n      dup5\n        /* \"#utility.yul\":4659:4682   */\n      sub\n        /* \"#utility.yul\":4655:4687   */\n      slt\n        /* \"#utility.yul\":4652:4771   */\n      iszero\n      tag_194\n      jumpi\n        /* \"#utility.yul\":4690:4769   */\n      tag_195\n      tag_101\n      jump\t// in\n    tag_195:\n        /* \"#utility.yul\":4652:4771   */\n    tag_194:\n        /* \"#utility.yul\":4810:4811   */\n      0x00\n        /* \"#utility.yul\":4835:4888   */\n      tag_196\n        /* \"#utility.yul\":4880:4887   */\n      dup5\n        /* \"#utility.yul\":4871:4877   */\n      dup3\n        /* \"#utility.yul\":4860:4869   */\n      dup6\n        /* \"#utility.yul\":4856:4878   */\n      add\n        /* \"#utility.yul\":4835:4888   */\n      tag_120\n      jump\t// in\n    tag_196:\n        /* \"#utility.yul\":4825:4888   */\n      swap2\n      pop\n        /* \"#utility.yul\":4781:4898   */\n      pop\n        /* \"#utility.yul\":4576:4905   */\n      swap3\n      swap2\n      pop\n      pop\n      jump\t// out\n        /* \"#utility.yul\":4911:5080   */\n    tag_121:\n        /* \"#utility.yul\":4995:5006   */\n      0x00\n        /* \"#utility.yul\":5029:5035   */\n      dup3\n        /* \"#utility.yul\":5024:5027   */\n      dup3\n        /* \"#utility.yul\":5017:5036   */\n      mstore\n        /* \"#utility.yul\":5069:5073   */\n      0x20\n        /* \"#utility.yul\":5064:5067   */\n      dup3\n        /* \"#utility.yul\":5060:5074   */\n      add\n        /* \"#utility.yul\":5045:5074   */\n      swap1\n      pop\n        /* \"#utility.yul\":4911:5080   */\n      swap3\n      swap2\n      pop\n      pop\n      jump\t// out\n        /* \"#utility.yul\":5086:5257   */\n    tag_122:\n        /* \"#utility.yul\":5226:5249   */\n      0x43616c6c6572206973206e6f74206d616e616765720000000000000000000000\n        /* \"#utility.yul\":5222:5223   */\n      0x00\n        /* \"#utility.yul\":5214:5220   */\n      dup3\n        /* \"#utility.yul\":5210:5224   */\n      add\n        /* \"#utility.yul\":5203:5250   */\n      mstore\n        /* \"#utility.yul\":5086:5257   */\n      pop\n      jump\t// out\n        /* \"#utility.yul\":5263:5629   */\n    tag_123:\n        /* \"#utility.yul\":5405:5408   */\n      0x00\n        /* \"#utility.yul\":5426:5493   */\n      tag_200\n        /* \"#utility.yul\":5490:5492   */\n      0x15\n        /* \"#utility.yul\":5485:5488   */\n      dup4\n        /* \"#utility.yul\":5426:5493   */\n      tag_121\n      jump\t// in\n    tag_200:\n        /* \"#utility.yul\":5419:5493   */\n      swap2\n      pop\n        /* \"#utility.yul\":5502:5595   */\n      tag_201\n        /* \"#utility.yul\":5591:5594   */\n      dup3\n        /* \"#utility.yul\":5502:5595   */\n      tag_122\n      jump\t// in\n    tag_201:\n        /* \"#utility.yul\":5620:5622   */\n      0x20\n        /* \"#utility.yul\":5615:5618   */\n      dup3\n        /* \"#utility.yul\":5611:5623   */\n      add\n        /* \"#utility.yul\":5604:5623   */\n      swap1\n      pop\n        /* \"#utility.yul\":5263:5629   */\n      swap2\n      swap1\n      pop\n      jump\t// out\n        /* \"#utility.yul\":5635:6054   */\n    tag_42:\n        /* \"#utility.yul\":5801:5805   */\n      0x00\n        /* \"#utility.yul\":5839:5841   */\n      0x20\n        /* \"#utility.yul\":5828:5837   */\n      dup3\n        /* \"#utility.yul\":5824:5842   */\n      add\n        /* \"#utility.yul\":5816:5842   */\n      swap1\n      pop\n        /* \"#utility.yul\":5888:5897   */\n      dup2\n        /* \"#utility.yul\":5882:5886   */\n      dup2\n        /* \"#utility.yul\":5878:5898   */\n      sub\n        /* \"#utility.yul\":5874:5875   */\n      0x00\n        /* \"#utility.yul\":5863:5872   */\n      dup4\n        /* \"#utility.yul\":5859:5876   */\n      add\n        /* \"#utility.yul\":5852:5899   */\n      mstore\n        /* \"#utility.yul\":5916:6047   */\n      tag_203\n        /* \"#utility.yul\":6042:6046   */\n      dup2\n        /* \"#utility.yul\":5916:6047   */\n      tag_123\n      jump\t// in\n    tag_203:\n        /* \"#utility.yul\":5908:6047   */\n      swap1\n      pop\n        /* \"#utility.yul\":5635:6054   */\n      swap2\n      swap1\n      pop\n      jump\t// out\n        /* \"#utility.yul\":6060:6178   */\n    tag_124:\n        /* \"#utility.yul\":6147:6171   */\n      tag_205\n        /* \"#utility.yul\":6165:6170   */\n      dup2\n        /* \"#utility.yul\":6147:6171   */\n      tag_103\n      jump\t// in\n    tag_205:\n        /* \"#utility.yul\":6142:6145   */\n      dup3\n        /* \"#utility.yul\":6135:6172   */\n      mstore\n        /* \"#utility.yul\":6060:6178   */\n      pop\n      pop\n      jump\t// out\n        /* \"#utility.yul\":6184:6330   */\n    tag_125:\n        /* \"#utility.yul\":6281:6287   */\n      dup3\n        /* \"#utility.yul\":6276:6279   */\n      dup2\n        /* \"#utility.yul\":6271:6274   */\n      dup4\n        /* \"#utility.yul\":6258:6288   */\n      calldatacopy\n        /* \"#utility.yul\":6322:6323   */\n      0x00\n        /* \"#utility.yul\":6313:6319   */\n      dup4\n        /* \"#utility.yul\":6308:6311   */\n      dup4\n        /* \"#utility.yul\":6304:6320   */\n      add\n        /* \"#utility.yul\":6297:6324   */\n      mstore\n        /* \"#utility.yul\":6184:6330   */\n      pop\n      pop\n      pop\n      jump\t// out\n        /* \"#utility.yul\":6336:6438   */\n    tag_126:\n        /* \"#utility.yul\":6377:6383   */\n      0x00\n        /* \"#utility.yul\":6428:6430   */\n      0x1f\n        /* \"#utility.yul\":6424:6431   */\n      not\n        /* \"#utility.yul\":6419:6421   */\n      0x1f\n        /* \"#utility.yul\":6412:6417   */\n      dup4\n        /* \"#utility.yul\":6408:6422   */\n      add\n        /* \"#utility.yul\":6404:6432   */\n      and\n        /* \"#utility.yul\":6394:6432   */\n      swap1\n      pop\n        /* \"#utility.yul\":6336:6438   */\n      swap2\n      swap1\n      pop\n      jump\t// out\n        /* \"#utility.yul\":6468:6785   */\n    tag_127:\n        /* \"#utility.yul\":6566:6569   */\n      0x00\n        /* \"#utility.yul\":6587:6658   */\n      tag_209\n        /* \"#utility.yul\":6651:6657   */\n      dup4\n        /* \"#utility.yul\":6646:6649   */\n      dup6\n        /* \"#utility.yul\":6587:6658   */\n      tag_121\n      jump\t// in\n    tag_209:\n        /* \"#utility.yul\":6580:6658   */\n      swap4\n      pop\n        /* \"#utility.yul\":6668:6724   */\n      tag_210\n        /* \"#utility.yul\":6717:6723   */\n      dup4\n        /* \"#utility.yul\":6712:6715   */\n      dup6\n        /* \"#utility.yul\":6705:6710   */\n      dup5\n        /* \"#utility.yul\":6668:6724   */\n      tag_125\n      jump\t// in\n    tag_210:\n        /* \"#utility.yul\":6749:6778   */\n      tag_211\n        /* \"#utility.yul\":6771:6777   */\n      dup4\n        /* \"#utility.yul\":6749:6778   */\n      tag_126\n      jump\t// in\n    tag_211:\n        /* \"#utility.yul\":6744:6747   */\n      dup5\n        /* \"#utility.yul\":6740:6779   */\n      add\n        /* \"#utility.yul\":6733:6779   */\n      swap1\n      pop\n        /* \"#utility.yul\":6468:6785   */\n      swap4\n      swap3\n      pop\n      pop\n      pop\n      jump\t// out\n        /* \"#utility.yul\":6791:6909   */\n    tag_128:\n        /* \"#utility.yul\":6878:6902   */\n      tag_213\n        /* \"#utility.yul\":6896:6901   */\n      dup2\n        /* \"#utility.yul\":6878:6902   */\n      tag_110\n      jump\t// in\n    tag_213:\n        /* \"#utility.yul\":6873:6876   */\n      dup3\n        /* \"#utility.yul\":6866:6903   */\n      mstore\n        /* \"#utility.yul\":6791:6909   */\n      pop\n      pop\n      jump\t// out\n        /* \"#utility.yul\":6915:7468   */\n    tag_45:\n        /* \"#utility.yul\":7094:7098   */\n      0x00\n        /* \"#utility.yul\":7132:7134   */\n      0x60\n        /* \"#utility.yul\":7121:7130   */\n      dup3\n        /* \"#utility.yul\":7117:7135   */\n      add\n        /* \"#utility.yul\":7109:7135   */\n      swap1\n      pop\n        /* \"#utility.yul\":7145:7216   */\n      tag_215\n        /* \"#utility.yul\":7213:7214   */\n      0x00\n        /* \"#utility.yul\":7202:7211   */\n      dup4\n        /* \"#utility.yul\":7198:7215   */\n      add\n        /* \"#utility.yul\":7189:7195   */\n      dup8\n        /* \"#utility.yul\":7145:7216   */\n      tag_124\n      jump\t// in\n    tag_215:\n        /* \"#utility.yul\":7263:7272   */\n      dup2\n        /* \"#utility.yul\":7257:7261   */\n      dup2\n        /* \"#utility.yul\":7253:7273   */\n      sub\n        /* \"#utility.yul\":7248:7250   */\n      0x20\n        /* \"#utility.yul\":7237:7246   */\n      dup4\n        /* \"#utility.yul\":7233:7251   */\n      add\n        /* \"#utility.yul\":7226:7274   */\n      mstore\n        /* \"#utility.yul\":7291:7379   */\n      tag_216\n        /* \"#utility.yul\":7374:7378   */\n      dup2\n        /* \"#utility.yul\":7365:7371   */\n      dup6\n        /* \"#utility.yul\":7357:7363   */\n      dup8\n        /* \"#utility.yul\":7291:7379   */\n      tag_127\n      jump\t// in\n    tag_216:\n        /* \"#utility.yul\":7283:7379   */\n      swap1\n      pop\n        /* \"#utility.yul\":7389:7461   */\n      tag_217\n        /* \"#utility.yul\":7457:7459   */\n      0x40\n        /* \"#utility.yul\":7446:7455   */\n      dup4\n        /* \"#utility.yul\":7442:7460   */\n      add\n        /* \"#utility.yul\":7433:7439   */\n      dup5\n        /* \"#utility.yul\":7389:7461   */\n      tag_128\n      jump\t// in\n    tag_217:\n        /* \"#utility.yul\":6915:7468   */\n      swap6\n      swap5\n      pop\n      pop\n      pop\n      pop\n      pop\n      jump\t// out\n        /* \"#utility.yul\":7474:7647   */\n    tag_129:\n        /* \"#utility.yul\":7614:7639   */\n      0x4d616e61676572206e6f7420696e697469616c697a6564000000000000000000\n        /* \"#utility.yul\":7610:7611   */\n      0x00\n        /* \"#utility.yul\":7602:7608   */\n      dup3\n        /* \"#utility.yul\":7598:7612   */\n      add\n        /* \"#utility.yul\":7591:7640   */\n      mstore\n        /* \"#utility.yul\":7474:7647   */\n      pop\n      jump\t// out\n        /* \"#utility.yul\":7653:8019   */\n    tag_130:\n        /* \"#utility.yul\":7795:7798   */\n      0x00\n        /* \"#utility.yul\":7816:7883   */\n      tag_220\n        /* \"#utility.yul\":7880:7882   */\n      0x17\n        /* \"#utility.yul\":7875:7878   */\n      dup4\n        /* \"#utility.yul\":7816:7883   */\n      tag_121\n      jump\t// in\n    tag_220:\n        /* \"#utility.yul\":7809:7883   */\n      swap2\n      pop\n        /* \"#utility.yul\":7892:7985   */\n      tag_221\n        /* \"#utility.yul\":7981:7984   */\n      dup3\n        /* \"#utility.yul\":7892:7985   */\n      tag_129\n      jump\t// in\n    tag_221:\n        /* \"#utility.yul\":8010:8012   */\n      0x20\n        /* \"#utility.yul\":8005:8008   */\n      dup3\n        /* \"#utility.yul\":8001:8013   */\n      add\n        /* \"#utility.yul\":7994:8013   */\n      swap1\n      pop\n        /* \"#utility.yul\":7653:8019   */\n      swap2\n      swap1\n      pop\n      jump\t// out\n        /* \"#utility.yul\":8025:8444   */\n    tag_57:\n        /* \"#utility.yul\":8191:8195   */\n      0x00\n        /* \"#utility.yul\":8229:8231   */\n      0x20\n        /* \"#utility.yul\":8218:8227   */\n      dup3\n        /* \"#utility.yul\":8214:8232   */\n      add\n        /* \"#utility.yul\":8206:8232   */\n      swap1\n      pop\n        /* \"#utility.yul\":8278:8287   */\n      dup2\n        /* \"#utility.yul\":8272:8276   */\n      dup2\n        /* \"#utility.yul\":8268:8288   */\n      sub\n        /* \"#utility.yul\":8264:8265   */\n      0x00\n        /* \"#utility.yul\":8253:8262   */\n      dup4\n        /* \"#utility.yul\":8249:8266   */\n      add\n        /* \"#utility.yul\":8242:8289   */\n      mstore\n        /* \"#utility.yul\":8306:8437   */\n      tag_223\n        /* \"#utility.yul\":8432:8436   */\n      dup2\n        /* \"#utility.yul\":8306:8437   */\n      tag_130\n      jump\t// in\n    tag_223:\n        /* \"#utility.yul\":8298:8437   */\n      swap1\n      pop\n        /* \"#utility.yul\":8025:8444   */\n      swap2\n      swap1\n      pop\n      jump\t// out\n        /* \"#utility.yul\":8450:8559   */\n    tag_131:\n        /* \"#utility.yul\":8531:8552   */\n      tag_225\n        /* \"#utility.yul\":8546:8551   */\n      dup2\n        /* \"#utility.yul\":8531:8552   */\n      tag_113\n      jump\t// in\n    tag_225:\n        /* \"#utility.yul\":8526:8529   */\n      dup3\n        /* \"#utility.yul\":8519:8553   */\n      mstore\n        /* \"#utility.yul\":8450:8559   */\n      pop\n      pop\n      jump\t// out\n        /* \"#utility.yul\":8565:8885   */\n    tag_60:\n        /* \"#utility.yul\":8680:8684   */\n      0x00\n        /* \"#utility.yul\":8718:8720   */\n      0x40\n        /* \"#utility.yul\":8707:8716   */\n      dup3\n        /* \"#utility.yul\":8703:8721   */\n      add\n        /* \"#utility.yul\":8695:8721   */\n      swap1\n      pop\n        /* \"#utility.yul\":8731:8802   */\n      tag_227\n        /* \"#utility.yul\":8799:8800   */\n      0x00\n        /* \"#utility.yul\":8788:8797   */\n      dup4\n        /* \"#utility.yul\":8784:8801   */\n      add\n        /* \"#utility.yul\":8775:8781   */\n      dup6\n        /* \"#utility.yul\":8731:8802   */\n      tag_124\n      jump\t// in\n    tag_227:\n        /* \"#utility.yul\":8812:8878   */\n      tag_228\n        /* \"#utility.yul\":8874:8876   */\n      0x20\n        /* \"#utility.yul\":8863:8872   */\n      dup4\n        /* \"#utility.yul\":8859:8877   */\n      add\n        /* \"#utility.yul\":8850:8856   */\n      dup5\n        /* \"#utility.yul\":8812:8878   */\n      tag_131\n      jump\t// in\n    tag_228:\n        /* \"#utility.yul\":8565:8885   */\n      swap4\n      swap3\n      pop\n      pop\n      pop\n      jump\t// out\n        /* \"#utility.yul\":8891:9116   */\n    tag_132:\n        /* \"#utility.yul\":9031:9065   */\n      0x4f776e61626c653a206e6577206f776e657220697320746865207a65726f2061\n        /* \"#utility.yul\":9027:9028   */\n      0x00\n        /* \"#utility.yul\":9019:9025   */\n      dup3\n        /* \"#utility.yul\":9015:9029   */\n      add\n        /* \"#utility.yul\":9008:9066   */\n      mstore\n        /* \"#utility.yul\":9100:9108   */\n      0x6464726573730000000000000000000000000000000000000000000000000000\n        /* \"#utility.yul\":9095:9097   */\n      0x20\n        /* \"#utility.yul\":9087:9093   */\n      dup3\n        /* \"#utility.yul\":9083:9098   */\n      add\n        /* \"#utility.yul\":9076:9109   */\n      mstore\n        /* \"#utility.yul\":8891:9116   */\n      pop\n      jump\t// out\n        /* \"#utility.yul\":9122:9488   */\n    tag_133:\n        /* \"#utility.yul\":9264:9267   */\n      0x00\n        /* \"#utility.yul\":9285:9352   */\n      tag_231\n        /* \"#utility.yul\":9349:9351   */\n      0x26\n        /* \"#utility.yul\":9344:9347   */\n      dup4\n        /* \"#utility.yul\":9285:9352   */\n      tag_121\n      jump\t// in\n    tag_231:\n        /* \"#utility.yul\":9278:9352   */\n      swap2\n      pop\n        /* \"#utility.yul\":9361:9454   */\n      tag_232\n        /* \"#utility.yul\":9450:9453   */\n      dup3\n        /* \"#utility.yul\":9361:9454   */\n      tag_132\n      jump\t// in\n    tag_232:\n        /* \"#utility.yul\":9479:9481   */\n      0x40\n        /* \"#utility.yul\":9474:9477   */\n      dup3\n        /* \"#utility.yul\":9470:9482   */\n      add\n        /* \"#utility.yul\":9463:9482   */\n      swap1\n      pop\n        /* \"#utility.yul\":9122:9488   */\n      swap2\n      swap1\n      pop\n      jump\t// out\n        /* \"#utility.yul\":9494:9913   */\n    tag_84:\n        /* \"#utility.yul\":9660:9664   */\n      0x00\n        /* \"#utility.yul\":9698:9700   */\n      0x20\n        /* \"#utility.yul\":9687:9696   */\n      dup3\n        /* \"#utility.yul\":9683:9701   */\n      add\n        /* \"#utility.yul\":9675:9701   */\n      swap1\n      pop\n        /* \"#utility.yul\":9747:9756   */\n      dup2\n        /* \"#utility.yul\":9741:9745   */\n      dup2\n        /* \"#utility.yul\":9737:9757   */\n      sub\n        /* \"#utility.yul\":9733:9734   */\n      0x00\n        /* \"#utility.yul\":9722:9731   */\n      dup4\n        /* \"#utility.yul\":9718:9735   */\n      add\n        /* \"#utility.yul\":9711:9758   */\n      mstore\n        /* \"#utility.yul\":9775:9906   */\n      tag_234\n        /* \"#utility.yul\":9901:9905   */\n      dup2\n        /* \"#utility.yul\":9775:9906   */\n      tag_133\n      jump\t// in\n    tag_234:\n        /* \"#utility.yul\":9767:9906   */\n      swap1\n      pop\n        /* \"#utility.yul\":9494:9913   */\n      swap2\n      swap1\n      pop\n      jump\t// out\n        /* \"#utility.yul\":9919:10101   */\n    tag_134:\n        /* \"#utility.yul\":10059:10093   */\n      0x4f776e61626c653a2063616c6c6572206973206e6f7420746865206f776e6572\n        /* \"#utility.yul\":10055:10056   */\n      0x00\n        /* \"#utility.yul\":10047:10053   */\n      dup3\n        /* \"#utility.yul\":10043:10057   */\n      add\n        /* \"#utility.yul\":10036:10094   */\n      mstore\n        /* \"#utility.yul\":9919:10101   */\n      pop\n      jump\t// out\n        /* \"#utility.yul\":10107:10473   */\n    tag_135:\n        /* \"#utility.yul\":10249:10252   */\n      0x00\n        /* \"#utility.yul\":10270:10337   */\n      tag_237\n        /* \"#utility.yul\":10334:10336   */\n      0x20\n        /* \"#utility.yul\":10329:10332   */\n      dup4\n        /* \"#utility.yul\":10270:10337   */\n      tag_121\n      jump\t// in\n    tag_237:\n        /* \"#utility.yul\":10263:10337   */\n      swap2\n      pop\n        /* \"#utility.yul\":10346:10439   */\n      tag_238\n        /* \"#utility.yul\":10435:10438   */\n      dup3\n        /* \"#utility.yul\":10346:10439   */\n      tag_134\n      jump\t// in\n    tag_238:\n        /* \"#utility.yul\":10464:10466   */\n      0x20\n        /* \"#utility.yul\":10459:10462   */\n      dup3\n        /* \"#utility.yul\":10455:10467   */\n      add\n        /* \"#utility.yul\":10448:10467   */\n      swap1\n      pop\n        /* \"#utility.yul\":10107:10473   */\n      swap2\n      swap1\n      pop\n      jump\t// out\n        /* \"#utility.yul\":10479:10898   */\n    tag_97:\n        /* \"#utility.yul\":10645:10649   */\n      0x00\n        /* \"#utility.yul\":10683:10685   */\n      0x20\n        /* \"#utility.yul\":10672:10681   */\n      dup3\n        /* \"#utility.yul\":10668:10686   */\n      add\n        /* \"#utility.yul\":10660:10686   */\n      swap1\n      pop\n        /* \"#utility.yul\":10732:10741   */\n      dup2\n        /* \"#utility.yul\":10726:10730   */\n      dup2\n        /* \"#utility.yul\":10722:10742   */\n      sub\n        /* \"#utility.yul\":10718:10719   */\n      0x00\n        /* \"#utility.yul\":10707:10716   */\n      dup4\n        /* \"#utility.yul\":10703:10720   */\n      add\n        /* \"#utility.yul\":10696:10743   */\n      mstore\n        /* \"#utility.yul\":10760:10891   */\n      tag_240\n        /* \"#utility.yul\":10886:10890   */\n      dup2\n        /* \"#utility.yul\":10760:10891   */\n      tag_135\n      jump\t// in\n    tag_240:\n        /* \"#utility.yul\":10752:10891   */\n      swap1\n      pop\n        /* \"#utility.yul\":10479:10898   */\n      swap2\n      swap1\n      pop\n      jump\t// out\n\n    auxdata: 0xa2646970667358221220db9e53def53ad0fec522ee1eef77b2e6ee88acee4a7cc2325affecb4cedf627a64736f6c63430008120033\n}\n",
				"bytecode": {
					"linkReferences": {},
					"object": "608060405234801561001057600080fd5b5061002d61002261003260201b60201c565b61003a60201b60201c565b6100fe565b600033905090565b60008060009054906101000a900473ffffffffffffffffffffffffffffffffffffffff169050816000806101000a81548173ffffffffffffffffffffffffffffffffffffffff021916908373ffffffffffffffffffffffffffffffffffffffff1602179055508173ffffffffffffffffffffffffffffffffffffffff168173ffffffffffffffffffffffffffffffffffffffff167f8be0079c531659141344cd1fd0a4f28419497f9722a3daafe3b4186f6b6457e060405160405180910390a35050565b610d868061010d6000396000f3fe608060405234801561001057600080fd5b50600436106100885760003560e01c8063d0ebdbe71161005b578063d0ebdbe7146100ed578063d2b6b82114610109578063f2fde38b14610125578063f6159ce61461014157610088565b80632b0d3a8e1461008d578063715018a6146100a9578063809a875f146100b35780638da5cb5b146100cf575b600080fd5b6100a760048036038101906100a291906108e5565b61015d565b005b6100b1610230565b005b6100cd60048036038101906100c89190610991565b610244565b005b6100d7610370565b6040516100e49190610a12565b60405180910390f35b61010760048036038101906101029190610a59565b610399565b005b610123600480360381019061011e9190610991565b61041c565b005b61013f600480360381019061013a9190610a59565b610548565b005b61015b600480360381019061015691906108e5565b6105cb565b005b600160009054906101000a900473ffffffffffffffffffffffffffffffffffffffff1673ffffffffffffffffffffffffffffffffffffffff163373ffffffffffffffffffffffffffffffffffffffff16146101ed576040517f08c379a00000000000000000000000000000000000000000000000000000000081526004016101e490610ae3565b60405180910390fd5b7fcc4d67a1c85e836c647e4e1fba7e10ba2eb0f53cf4a083d9a999a4a853649ee5848484846040516102229493929190610b6e565b60405180910390a150505050565b61023861069e565b610242600061071c565b565b61024c61069e565b600073ffffffffffffffffffffffffffffffffffffffff16600160009054906101000a900473ffffffffffffffffffffffffffffffffffffffff1673ffffffffffffffffffffffffffffffffffffffff16036102dd576040517f08c379a00000000000000000000000000000000000000000000000000000000081526004016102d490610bfa565b60405180910390fd5b600160009054906101000a900473ffffffffffffffffffffffffffffffffffffffff1673ffffffffffffffffffffffffffffffffffffffff1663a07ca63583836040518363ffffffff1660e01b815260040161033a929190610c29565b600060405180830381600087803b15801561035457600080fd5b505af1158015610368573d6000803e3d6000fd5b505050505050565b60008060009054906101000a900473ffffffffffffffffffffffffffffffffffffffff16905090565b6103a161069e565b80600160006101000a81548173ffffffffffffffffffffffffffffffffffffffff021916908373ffffffffffffffffffffffffffffffffffffffff1602179055507fc88fac1456d5bab0817617b9ef707c5cd4df5450ddf5da5816c584ccd464ac3a816040516104119190610a12565b60405180910390a150565b61042461069e565b600073ffffffffffffffffffffffffffffffffffffffff16600160009054906101000a900473ffffffffffffffffffffffffffffffffffffffff1673ffffffffffffffffffffffffffffffffffffffff16036104b5576040517f08c379a00000000000000000000000000000000000000000000000000000000081526004016104ac90610bfa565b60405180910390fd5b600160009054906101000a900473ffffffffffffffffffffffffffffffffffffffff1673ffffffffffffffffffffffffffffffffffffffff166319b4a0f983836040518363ffffffff1660e01b8152600401610512929190610c29565b600060405180830381600087803b15801561052c57600080fd5b505af1158015610540573d6000803e3d6000fd5b505050505050565b61055061069e565b600073ffffffffffffffffffffffffffffffffffffffff168173ffffffffffffffffffffffffffffffffffffffff16036105bf576040517f08c379a00000000000000000000000000000000000000000000000000000000081526004016105b690610cc4565b60405180910390fd5b6105c88161071c565b50565b600160009054906101000a900473ffffffffffffffffffffffffffffffffffffffff1673ffffffffffffffffffffffffffffffffffffffff163373ffffffffffffffffffffffffffffffffffffffff161461065b576040517f08c379a000000000000000000000000000000000000000000000000000000000815260040161065290610ae3565b60405180910390fd5b7f88bfce09fb4d893d1ae780a582f87cc3c5a3693f07ed95139a157af2f6dc6ad8848484846040516106909493929190610b6e565b60405180910390a150505050565b6106a66107e0565b73ffffffffffffffffffffffffffffffffffffffff166106c4610370565b73ffffffffffffffffffffffffffffffffffffffff161461071a576040517f08c379a000000000000000000000000000000000000000000000000000000000815260040161071190610d30565b60405180910390fd5b565b60008060009054906101000a900473ffffffffffffffffffffffffffffffffffffffff169050816000806101000a81548173ffffffffffffffffffffffffffffffffffffffff021916908373ffffffffffffffffffffffffffffffffffffffff1602179055508173ffffffffffffffffffffffffffffffffffffffff168173ffffffffffffffffffffffffffffffffffffffff167f8be0079c531659141344cd1fd0a4f28419497f9722a3daafe3b4186f6b6457e060405160405180910390a35050565b600033905090565b600080fd5b600080fd5b6000819050919050565b610805816107f2565b811461081057600080fd5b50565b600081359050610822816107fc565b92915050565b600080fd5b600080fd5b600080fd5b60008083601f84011261084d5761084c610828565b5b8235905067ffffffffffffffff81111561086a5761086961082d565b5b60208301915083600182028301111561088657610885610832565b5b9250929050565b60007fffffffffffffffffffffffffffffffffffffffff00000000000000000000000082169050919050565b6108c28161088d565b81146108cd57600080fd5b50565b6000813590506108df816108b9565b92915050565b600080600080606085870312156108ff576108fe6107e8565b5b600061090d87828801610813565b945050602085013567ffffffffffffffff81111561092e5761092d6107ed565b5b61093a87828801610837565b9350935050604061094d878288016108d0565b91505092959194509250565b60008115159050919050565b61096e81610959565b811461097957600080fd5b50565b60008135905061098b81610965565b92915050565b600080604083850312156109a8576109a76107e8565b5b60006109b685828601610813565b92505060206109c78582860161097c565b9150509250929050565b600073ffffffffffffffffffffffffffffffffffffffff82169050919050565b60006109fc826109d1565b9050919050565b610a0c816109f1565b82525050565b6000602082019050610a276000830184610a03565b92915050565b610a36816109f1565b8114610a4157600080fd5b50565b600081359050610a5381610a2d565b92915050565b600060208284031215610a6f57610a6e6107e8565b5b6000610a7d84828501610a44565b91505092915050565b600082825260208201905092915050565b7f43616c6c6572206973206e6f74206d616e616765720000000000000000000000600082015250565b6000610acd601583610a86565b9150610ad882610a97565b602082019050919050565b60006020820190508181036000830152610afc81610ac0565b9050919050565b610b0c816107f2565b82525050565b82818337600083830152505050565b6000601f19601f8301169050919050565b6000610b3e8385610a86565b9350610b4b838584610b12565b610b5483610b21565b840190509392505050565b610b688161088d565b82525050565b6000606082019050610b836000830187610b03565b8181036020830152610b96818587610b32565b9050610ba56040830184610b5f565b95945050505050565b7f4d616e61676572206e6f7420696e697469616c697a6564000000000000000000600082015250565b6000610be4601783610a86565b9150610bef82610bae565b602082019050919050565b60006020820190508181036000830152610c1381610bd7565b9050919050565b610c2381610959565b82525050565b6000604082019050610c3e6000830185610b03565b610c4b6020830184610c1a565b9392505050565b7f4f776e61626c653a206e6577206f776e657220697320746865207a65726f206160008201527f6464726573730000000000000000000000000000000000000000000000000000602082015250565b6000610cae602683610a86565b9150610cb982610c52565b604082019050919050565b60006020820190508181036000830152610cdd81610ca1565b9050919050565b7f4f776e61626c653a2063616c6c6572206973206e6f7420746865206f776e6572600082015250565b6000610d1a602083610a86565b9150610d2582610ce4565b602082019050919050565b60006020820190508181036000830152610d4981610d0d565b905091905056fea2646970667358221220db9e53def53ad0fec522ee1eef77b2e6ee88acee4a7cc2325affecb4cedf627a64736f6c63430008120033",
					"opcodes": "PUSH1 0x80 PUSH1 0x40 MSTORE CALLVALUE DUP1 ISZERO PUSH2 0x10 JUMPI PUSH1 0x0 DUP1 REVERT JUMPDEST POP PUSH2 0x2D PUSH2 0x22 PUSH2 0x32 PUSH1 0x20 SHL PUSH1 0x20 SHR JUMP JUMPDEST PUSH2 0x3A PUSH1 0x20 SHL PUSH1 0x20 SHR JUMP JUMPDEST PUSH2 0xFE JUMP JUMPDEST PUSH1 0x0 CALLER SWAP1 POP SWAP1 JUMP JUMPDEST PUSH1 0x0 DUP1 PUSH1 0x0 SWAP1 SLOAD SWAP1 PUSH2 0x100 EXP SWAP1 DIV PUSH20 0xFFFFFFFFFFFFFFFFFFFFFFFFFFFFFFFFFFFFFFFF AND SWAP1 POP DUP2 PUSH1 0x0 DUP1 PUSH2 0x100 EXP DUP2 SLOAD DUP2 PUSH20 0xFFFFFFFFFFFFFFFFFFFFFFFFFFFFFFFFFFFFFFFF MUL NOT AND SWAP1 DUP4 PUSH20 0xFFFFFFFFFFFFFFFFFFFFFFFFFFFFFFFFFFFFFFFF AND MUL OR SWAP1 SSTORE POP DUP2 PUSH20 0xFFFFFFFFFFFFFFFFFFFFFFFFFFFFFFFFFFFFFFFF AND DUP2 PUSH20 0xFFFFFFFFFFFFFFFFFFFFFFFFFFFFFFFFFFFFFFFF AND PUSH32 0x8BE0079C531659141344CD1FD0A4F28419497F9722A3DAAFE3B4186F6B6457E0 PUSH1 0x40 MLOAD PUSH1 0x40 MLOAD DUP1 SWAP2 SUB SWAP1 LOG3 POP POP JUMP JUMPDEST PUSH2 0xD86 DUP1 PUSH2 0x10D PUSH1 0x0 CODECOPY PUSH1 0x0 RETURN INVALID PUSH1 0x80 PUSH1 0x40 MSTORE CALLVALUE DUP1 ISZERO PUSH2 0x10 JUMPI PUSH1 0x0 DUP1 REVERT JUMPDEST POP PUSH1 0x4 CALLDATASIZE LT PUSH2 0x88 JUMPI PUSH1 0x0 CALLDATALOAD PUSH1 0xE0 SHR DUP1 PUSH4 0xD0EBDBE7 GT PUSH2 0x5B JUMPI DUP1 PUSH4 0xD0EBDBE7 EQ PUSH2 0xED JUMPI DUP1 PUSH4 0xD2B6B821 EQ PUSH2 0x109 JUMPI DUP1 PUSH4 0xF2FDE38B EQ PUSH2 0x125 JUMPI DUP1 PUSH4 0xF6159CE6 EQ PUSH2 0x141 JUMPI PUSH2 0x88 JUMP JUMPDEST DUP1 PUSH4 0x2B0D3A8E EQ PUSH2 0x8D JUMPI DUP1 PUSH4 0x715018A6 EQ PUSH2 0xA9 JUMPI DUP1 PUSH4 0x809A875F EQ PUSH2 0xB3 JUMPI DUP1 PUSH4 0x8DA5CB5B EQ PUSH2 0xCF JUMPI JUMPDEST PUSH1 0x0 DUP1 REVERT JUMPDEST PUSH2 0xA7 PUSH1 0x4 DUP1 CALLDATASIZE SUB DUP2 ADD SWAP1 PUSH2 0xA2 SWAP2 SWAP1 PUSH2 0x8E5 JUMP JUMPDEST PUSH2 0x15D JUMP JUMPDEST STOP JUMPDEST PUSH2 0xB1 PUSH2 0x230 JUMP JUMPDEST STOP JUMPDEST PUSH2 0xCD PUSH1 0x4 DUP1 CALLDATASIZE SUB DUP2 ADD SWAP1 PUSH2 0xC8 SWAP2 SWAP1 PUSH2 0x991 JUMP JUMPDEST PUSH2 0x244 JUMP JUMPDEST STOP JUMPDEST PUSH2 0xD7 PUSH2 0x370 JUMP JUMPDEST PUSH1 0x40 MLOAD PUSH2 0xE4 SWAP2 SWAP1 PUSH2 0xA12 JUMP JUMPDEST PUSH1 0x40 MLOAD DUP1 SWAP2 SUB SWAP1 RETURN JUMPDEST PUSH2 0x107 PUSH1 0x4 DUP1 CALLDATASIZE SUB DUP2 ADD SWAP1 PUSH2 0x102 SWAP2 SWAP1 PUSH2 0xA59 JUMP JUMPDEST PUSH2 0x399 JUMP JUMPDEST STOP JUMPDEST PUSH2 0x123 PUSH1 0x4 DUP1 CALLDATASIZE SUB DUP2 ADD SWAP1 PUSH2 0x11E SWAP2 SWAP1 PUSH2 0x991 JUMP JUMPDEST PUSH2 0x41C JUMP JUMPDEST STOP JUMPDEST PUSH2 0x13F PUSH1 0x4 DUP1 CALLDATASIZE SUB DUP2 ADD SWAP1 PUSH2 0x13A SWAP2 SWAP1 PUSH2 0xA59 JUMP JUMPDEST PUSH2 0x548 JUMP JUMPDEST STOP JUMPDEST PUSH2 0x15B PUSH1 0x4 DUP1 CALLDATASIZE SUB DUP2 ADD SWAP1 PUSH2 0x156 SWAP2 SWAP1 PUSH2 0x8E5 JUMP JUMPDEST PUSH2 0x5CB JUMP JUMPDEST STOP JUMPDEST PUSH1 0x1 PUSH1 0x0 SWAP1 SLOAD SWAP1 PUSH2 0x100 EXP SWAP1 DIV PUSH20 0xFFFFFFFFFFFFFFFFFFFFFFFFFFFFFFFFFFFFFFFF AND PUSH20 0xFFFFFFFFFFFFFFFFFFFFFFFFFFFFFFFFFFFFFFFF AND CALLER PUSH20 0xFFFFFFFFFFFFFFFFFFFFFFFFFFFFFFFFFFFFFFFF AND EQ PUSH2 0x1ED JUMPI PUSH1 0x40 MLOAD PUSH32 0x8C379A000000000000000000000000000000000000000000000000000000000 DUP2 MSTORE PUSH1 0x4 ADD PUSH2 0x1E4 SWAP1 PUSH2 0xAE3 JUMP JUMPDEST PUSH1 0x40 MLOAD DUP1 SWAP2 SUB SWAP1 REVERT JUMPDEST PUSH32 0xCC4D67A1C85E836C647E4E1FBA7E10BA2EB0F53CF4A083D9A999A4A853649EE5 DUP5 DUP5 DUP5 DUP5 PUSH1 0x40 MLOAD PUSH2 0x222 SWAP5 SWAP4 SWAP3 SWAP2 SWAP1 PUSH2 0xB6E JUMP JUMPDEST PUSH1 0x40 MLOAD DUP1 SWAP2 SUB SWAP1 LOG1 POP POP POP POP JUMP JUMPDEST PUSH2 0x238 PUSH2 0x69E JUMP JUMPDEST PUSH2 0x242 PUSH1 0x0 PUSH2 0x71C JUMP JUMPDEST JUMP JUMPDEST PUSH2 0x24C PUSH2 0x69E JUMP JUMPDEST PUSH1 0x0 PUSH20 0xFFFFFFFFFFFFFFFFFFFFFFFFFFFFFFFFFFFFFFFF AND PUSH1 0x1 PUSH1 0x0 SWAP1 SLOAD SWAP1 PUSH2 0x100 EXP SWAP1 DIV PUSH20 0xFFFFFFFFFFFFFFFFFFFFFFFFFFFFFFFFFFFFFFFF AND PUSH20 0xFFFFFFFFFFFFFFFFFFFFFFFFFFFFFFFFFFFFFFFF AND SUB PUSH2 0x2DD JUMPI PUSH1 0x40 MLOAD PUSH32 0x8C379A000000000000000000000000000000000000000000000000000000000 DUP2 MSTORE PUSH1 0x4 ADD PUSH2 0x2D4 SWAP1 PUSH2 0xBFA JUMP JUMPDEST PUSH1 0x40 MLOAD DUP1 SWAP2 SUB SWAP1 REVERT JUMPDEST PUSH1 0x1 PUSH1 0x0 SWAP1 SLOAD SWAP1 PUSH2 0x100 EXP SWAP1 DIV PUSH20 0xFFFFFFFFFFFFFFFFFFFFFFFFFFFFFFFFFFFFFFFF AND PUSH20 0xFFFFFFFFFFFFFFFFFFFFFFFFFFFFFFFFFFFFFFFF AND PUSH4 0xA07CA635 DUP4 DUP4 PUSH1 0x40 MLOAD DUP4 PUSH4 0xFFFFFFFF AND PUSH1 0xE0 SHL DUP2 MSTORE PUSH1 0x4 ADD PUSH2 0x33A SWAP3 SWAP2 SWAP1 PUSH2 0xC29 JUMP JUMPDEST PUSH1 0x0 PUSH1 0x40 MLOAD DUP1 DUP4 SUB DUP2 PUSH1 0x0 DUP8 DUP1 EXTCODESIZE ISZERO DUP1 ISZERO PUSH2 0x354 JUMPI PUSH1 0x0 DUP1 REVERT JUMPDEST POP GAS CALL ISZERO DUP1 ISZERO PUSH2 0x368 JUMPI RETURNDATASIZE PUSH1 0x0 DUP1 RETURNDATACOPY RETURNDATASIZE PUSH1 0x0 REVERT JUMPDEST POP POP POP POP POP POP JUMP JUMPDEST PUSH1 0x0 DUP1 PUSH1 0x0 SWAP1 SLOAD SWAP1 PUSH2 0x100 EXP SWAP1 DIV PUSH20 0xFFFFFFFFFFFFFFFFFFFFFFFFFFFFFFFFFFFFFFFF AND SWAP1 POP SWAP1 JUMP JUMPDEST PUSH2 0x3A1 PUSH2 0x69E JUMP JUMPDEST DUP1 PUSH1 0x1 PUSH1 0x0 PUSH2 0x100 EXP DUP2 SLOAD DUP2 PUSH20 0xFFFFFFFFFFFFFFFFFFFFFFFFFFFFFFFFFFFFFFFF MUL NOT AND SWAP1 DUP4 PUSH20 0xFFFFFFFFFFFFFFFFFFFFFFFFFFFFFFFFFFFFFFFF AND MUL OR SWAP1 SSTORE POP PUSH32 0xC88FAC1456D5BAB0817617B9EF707C5CD4DF5450DDF5DA5816C584CCD464AC3A DUP2 PUSH1 0x40 MLOAD PUSH2 0x411 SWAP2 SWAP1 PUSH2 0xA12 JUMP JUMPDEST PUSH1 0x40 MLOAD DUP1 SWAP2 SUB SWAP1 LOG1 POP JUMP JUMPDEST PUSH2 0x424 PUSH2 0x69E JUMP JUMPDEST PUSH1 0x0 PUSH20 0xFFFFFFFFFFFFFFFFFFFFFFFFFFFFFFFFFFFFFFFF AND PUSH1 0x1 PUSH1 0x0 SWAP1 SLOAD SWAP1 PUSH2 0x100 EXP SWAP1 DIV PUSH20 0xFFFFFFFFFFFFFFFFFFFFFFFFFFFFFFFFFFFFFFFF AND PUSH20 0xFFFFFFFFFFFFFFFFFFFFFFFFFFFFFFFFFFFFFFFF AND SUB PUSH2 0x4B5 JUMPI PUSH1 0x40 MLOAD PUSH32 0x8C379A000000000000000000000000000000000000000000000000000000000 DUP2 MSTORE PUSH1 0x4 ADD PUSH2 0x4AC SWAP1 PUSH2 0xBFA JUMP JUMPDEST PUSH1 0x40 MLOAD DUP1 SWAP2 SUB SWAP1 REVERT JUMPDEST PUSH1 0x1 PUSH1 0x0 SWAP1 SLOAD SWAP1 PUSH2 0x100 EXP SWAP1 DIV PUSH20 0xFFFFFFFFFFFFFFFFFFFFFFFFFFFFFFFFFFFFFFFF AND PUSH20 0xFFFFFFFFFFFFFFFFFFFFFFFFFFFFFFFFFFFFFFFF AND PUSH4 0x19B4A0F9 DUP4 DUP4 PUSH1 0x40 MLOAD DUP4 PUSH4 0xFFFFFFFF AND PUSH1 0xE0 SHL DUP2 MSTORE PUSH1 0x4 ADD PUSH2 0x512 SWAP3 SWAP2 SWAP1 PUSH2 0xC29 JUMP JUMPDEST PUSH1 0x0 PUSH1 0x40 MLOAD DUP1 DUP4 SUB DUP2 PUSH1 0x0 DUP8 DUP1 EXTCODESIZE ISZERO DUP1 ISZERO PUSH2 0x52C JUMPI PUSH1 0x0 DUP1 REVERT JUMPDEST POP GAS CALL ISZERO DUP1 ISZERO PUSH2 0x540 JUMPI RETURNDATASIZE PUSH1 0x0 DUP1 RETURNDATACOPY RETURNDATASIZE PUSH1 0x0 REVERT JUMPDEST POP POP POP POP POP POP JUMP JUMPDEST PUSH2 0x550 PUSH2 0x69E JUMP JUMPDEST PUSH1 0x0 PUSH20 0xFFFFFFFFFFFFFFFFFFFFFFFFFFFFFFFFFFFFFFFF AND DUP2 PUSH20 0xFFFFFFFFFFFFFFFFFFFFFFFFFFFFFFFFFFFFFFFF AND SUB PUSH2 0x5BF JUMPI PUSH1 0x40 MLOAD PUSH32 0x8C379A000000000000000000000000000000000000000000000000000000000 DUP2 MSTORE PUSH1 0x4 ADD PUSH2 0x5B6 SWAP1 PUSH2 0xCC4 JUMP JUMPDEST PUSH1 0x40 MLOAD DUP1 SWAP2 SUB SWAP1 REVERT JUMPDEST PUSH2 0x5C8 DUP2 PUSH2 0x71C JUMP JUMPDEST POP JUMP JUMPDEST PUSH1 0x1 PUSH1 0x0 SWAP1 SLOAD SWAP1 PUSH2 0x100 EXP SWAP1 DIV PUSH20 0xFFFFFFFFFFFFFFFFFFFFFFFFFFFFFFFFFFFFFFFF AND PUSH20 0xFFFFFFFFFFFFFFFFFFFFFFFFFFFFFFFFFFFFFFFF AND CALLER PUSH20 0xFFFFFFFFFFFFFFFFFFFFFFFFFFFFFFFFFFFFFFFF AND EQ PUSH2 0x65B JUMPI PUSH1 0x40 MLOAD PUSH32 0x8C379A000000000000000000000000000000000000000000000000000000000 DUP2 MSTORE PUSH1 0x4 ADD PUSH2 0x652 SWAP1 PUSH2 0xAE3 JUMP JUMPDEST PUSH1 0x40 MLOAD DUP1 SWAP2 SUB SWAP1 REVERT JUMPDEST PUSH32 0x88BFCE09FB4D893D1AE780A582F87CC3C5A3693F07ED95139A157AF2F6DC6AD8 DUP5 DUP5 DUP5 DUP5 PUSH1 0x40 MLOAD PUSH2 0x690 SWAP5 SWAP4 SWAP3 SWAP2 SWAP1 PUSH2 0xB6E JUMP JUMPDEST PUSH1 0x40 MLOAD DUP1 SWAP2 SUB SWAP1 LOG1 POP POP POP POP JUMP JUMPDEST PUSH2 0x6A6 PUSH2 0x7E0 JUMP JUMPDEST PUSH20 0xFFFFFFFFFFFFFFFFFFFFFFFFFFFFFFFFFFFFFFFF AND PUSH2 0x6C4 PUSH2 0x370 JUMP JUMPDEST PUSH20 0xFFFFFFFFFFFFFFFFFFFFFFFFFFFFFFFFFFFFFFFF AND EQ PUSH2 0x71A JUMPI PUSH1 0x40 MLOAD PUSH32 0x8C379A000000000000000000000000000000000000000000000000000000000 DUP2 MSTORE PUSH1 0x4 ADD PUSH2 0x711 SWAP1 PUSH2 0xD30 JUMP JUMPDEST PUSH1 0x40 MLOAD DUP1 SWAP2 SUB SWAP1 REVERT JUMPDEST JUMP JUMPDEST PUSH1 0x0 DUP1 PUSH1 0x0 SWAP1 SLOAD SWAP1 PUSH2 0x100 EXP SWAP1 DIV PUSH20 0xFFFFFFFFFFFFFFFFFFFFFFFFFFFFFFFFFFFFFFFF AND SWAP1 POP DUP2 PUSH1 0x0 DUP1 PUSH2 0x100 EXP DUP2 SLOAD DUP2 PUSH20 0xFFFFFFFFFFFFFFFFFFFFFFFFFFFFFFFFFFFFFFFF MUL NOT AND SWAP1 DUP4 PUSH20 0xFFFFFFFFFFFFFFFFFFFFFFFFFFFFFFFFFFFFFFFF AND MUL OR SWAP1 SSTORE POP DUP2 PUSH20 0xFFFFFFFFFFFFFFFFFFFFFFFFFFFFFFFFFFFFFFFF AND DUP2 PUSH20 0xFFFFFFFFFFFFFFFFFFFFFFFFFFFFFFFFFFFFFFFF AND PUSH32 0x8BE0079C531659141344CD1FD0A4F28419497F9722A3DAAFE3B4186F6B6457E0 PUSH1 0x40 MLOAD PUSH1 0x40 MLOAD DUP1 SWAP2 SUB SWAP1 LOG3 POP POP JUMP JUMPDEST PUSH1 0x0 CALLER SWAP1 POP SWAP1 JUMP JUMPDEST PUSH1 0x0 DUP1 REVERT JUMPDEST PUSH1 0x0 DUP1 REVERT JUMPDEST PUSH1 0x0 DUP2 SWAP1 POP SWAP2 SWAP1 POP JUMP JUMPDEST PUSH2 0x805 DUP2 PUSH2 0x7F2 JUMP JUMPDEST DUP2 EQ PUSH2 0x810 JUMPI PUSH1 0x0 DUP1 REVERT JUMPDEST POP JUMP JUMPDEST PUSH1 0x0 DUP2 CALLDATALOAD SWAP1 POP PUSH2 0x822 DUP2 PUSH2 0x7FC JUMP JUMPDEST SWAP3 SWAP2 POP POP JUMP JUMPDEST PUSH1 0x0 DUP1 REVERT JUMPDEST PUSH1 0x0 DUP1 REVERT JUMPDEST PUSH1 0x0 DUP1 REVERT JUMPDEST PUSH1 0x0 DUP1 DUP4 PUSH1 0x1F DUP5 ADD SLT PUSH2 0x84D JUMPI PUSH2 0x84C PUSH2 0x828 JUMP JUMPDEST JUMPDEST DUP3 CALLDATALOAD SWAP1 POP PUSH8 0xFFFFFFFFFFFFFFFF DUP2 GT ISZERO PUSH2 0x86A JUMPI PUSH2 0x869 PUSH2 0x82D JUMP JUMPDEST JUMPDEST PUSH1 0x20 DUP4 ADD SWAP2 POP DUP4 PUSH1 0x1 DUP3 MUL DUP4 ADD GT ISZERO PUSH2 0x886 JUMPI PUSH2 0x885 PUSH2 0x832 JUMP JUMPDEST JUMPDEST SWAP3 POP SWAP3 SWAP1 POP JUMP JUMPDEST PUSH1 0x0 PUSH32 0xFFFFFFFFFFFFFFFFFFFFFFFFFFFFFFFFFFFFFFFF000000000000000000000000 DUP3 AND SWAP1 POP SWAP2 SWAP1 POP JUMP JUMPDEST PUSH2 0x8C2 DUP2 PUSH2 0x88D JUMP JUMPDEST DUP2 EQ PUSH2 0x8CD JUMPI PUSH1 0x0 DUP1 REVERT JUMPDEST POP JUMP JUMPDEST PUSH1 0x0 DUP2 CALLDATALOAD SWAP1 POP PUSH2 0x8DF DUP2 PUSH2 0x8B9 JUMP JUMPDEST SWAP3 SWAP2 POP POP JUMP JUMPDEST PUSH1 0x0 DUP1 PUSH1 0x0 DUP1 PUSH1 0x60 DUP6 DUP8 SUB SLT ISZERO PUSH2 0x8FF JUMPI PUSH2 0x8FE PUSH2 0x7E8 JUMP JUMPDEST JUMPDEST PUSH1 0x0 PUSH2 0x90D DUP8 DUP3 DUP9 ADD PUSH2 0x813 JUMP JUMPDEST SWAP5 POP POP PUSH1 0x20 DUP6 ADD CALLDATALOAD PUSH8 0xFFFFFFFFFFFFFFFF DUP2 GT ISZERO PUSH2 0x92E JUMPI PUSH2 0x92D PUSH2 0x7ED JUMP JUMPDEST JUMPDEST PUSH2 0x93A DUP8 DUP3 DUP9 ADD PUSH2 0x837 JUMP JUMPDEST SWAP4 POP SWAP4 POP POP PUSH1 0x40 PUSH2 0x94D DUP8 DUP3 DUP9 ADD PUSH2 0x8D0 JUMP JUMPDEST SWAP2 POP POP SWAP3 SWAP6 SWAP2 SWAP5 POP SWAP3 POP JUMP JUMPDEST PUSH1 0x0 DUP2 ISZERO ISZERO SWAP1 POP SWAP2 SWAP1 POP JUMP JUMPDEST PUSH2 0x96E DUP2 PUSH2 0x959 JUMP JUMPDEST DUP2 EQ PUSH2 0x979 JUMPI PUSH1 0x0 DUP1 REVERT JUMPDEST POP JUMP JUMPDEST PUSH1 0x0 DUP2 CALLDATALOAD SWAP1 POP PUSH2 0x98B DUP2 PUSH2 0x965 JUMP JUMPDEST SWAP3 SWAP2 POP POP JUMP JUMPDEST PUSH1 0x0 DUP1 PUSH1 0x40 DUP4 DUP6 SUB SLT ISZERO PUSH2 0x9A8 JUMPI PUSH2 0x9A7 PUSH2 0x7E8 JUMP JUMPDEST JUMPDEST PUSH1 0x0 PUSH2 0x9B6 DUP6 DUP3 DUP7 ADD PUSH2 0x813 JUMP JUMPDEST SWAP3 POP POP PUSH1 0x20 PUSH2 0x9C7 DUP6 DUP3 DUP7 ADD PUSH2 0x97C JUMP JUMPDEST SWAP2 POP POP SWAP3 POP SWAP3 SWAP1 POP JUMP JUMPDEST PUSH1 0x0 PUSH20 0xFFFFFFFFFFFFFFFFFFFFFFFFFFFFFFFFFFFFFFFF DUP3 AND SWAP1 POP SWAP2 SWAP1 POP JUMP JUMPDEST PUSH1 0x0 PUSH2 0x9FC DUP3 PUSH2 0x9D1 JUMP JUMPDEST SWAP1 POP SWAP2 SWAP1 POP JUMP JUMPDEST PUSH2 0xA0C DUP2 PUSH2 0x9F1 JUMP JUMPDEST DUP3 MSTORE POP POP JUMP JUMPDEST PUSH1 0x0 PUSH1 0x20 DUP3 ADD SWAP1 POP PUSH2 0xA27 PUSH1 0x0 DUP4 ADD DUP5 PUSH2 0xA03 JUMP JUMPDEST SWAP3 SWAP2 POP POP JUMP JUMPDEST PUSH2 0xA36 DUP2 PUSH2 0x9F1 JUMP JUMPDEST DUP2 EQ PUSH2 0xA41 JUMPI PUSH1 0x0 DUP1 REVERT JUMPDEST POP JUMP JUMPDEST PUSH1 0x0 DUP2 CALLDATALOAD SWAP1 POP PUSH2 0xA53 DUP2 PUSH2 0xA2D JUMP JUMPDEST SWAP3 SWAP2 POP POP JUMP JUMPDEST PUSH1 0x0 PUSH1 0x20 DUP3 DUP5 SUB SLT ISZERO PUSH2 0xA6F JUMPI PUSH2 0xA6E PUSH2 0x7E8 JUMP JUMPDEST JUMPDEST PUSH1 0x0 PUSH2 0xA7D DUP5 DUP3 DUP6 ADD PUSH2 0xA44 JUMP JUMPDEST SWAP2 POP POP SWAP3 SWAP2 POP POP JUMP JUMPDEST PUSH1 0x0 DUP3 DUP3 MSTORE PUSH1 0x20 DUP3 ADD SWAP1 POP SWAP3 SWAP2 POP POP JUMP JUMPDEST PUSH32 0x43616C6C6572206973206E6F74206D616E616765720000000000000000000000 PUSH1 0x0 DUP3 ADD MSTORE POP JUMP JUMPDEST PUSH1 0x0 PUSH2 0xACD PUSH1 0x15 DUP4 PUSH2 0xA86 JUMP JUMPDEST SWAP2 POP PUSH2 0xAD8 DUP3 PUSH2 0xA97 JUMP JUMPDEST PUSH1 0x20 DUP3 ADD SWAP1 POP SWAP2 SWAP1 POP JUMP JUMPDEST PUSH1 0x0 PUSH1 0x20 DUP3 ADD SWAP1 POP DUP2 DUP2 SUB PUSH1 0x0 DUP4 ADD MSTORE PUSH2 0xAFC DUP2 PUSH2 0xAC0 JUMP JUMPDEST SWAP1 POP SWAP2 SWAP1 POP JUMP JUMPDEST PUSH2 0xB0C DUP2 PUSH2 0x7F2 JUMP JUMPDEST DUP3 MSTORE POP POP JUMP JUMPDEST DUP3 DUP2 DUP4 CALLDATACOPY PUSH1 0x0 DUP4 DUP4 ADD MSTORE POP POP POP JUMP JUMPDEST PUSH1 0x0 PUSH1 0x1F NOT PUSH1 0x1F DUP4 ADD AND SWAP1 POP SWAP2 SWAP1 POP JUMP JUMPDEST PUSH1 0x0 PUSH2 0xB3E DUP4 DUP6 PUSH2 0xA86 JUMP JUMPDEST SWAP4 POP PUSH2 0xB4B DUP4 DUP6 DUP5 PUSH2 0xB12 JUMP JUMPDEST PUSH2 0xB54 DUP4 PUSH2 0xB21 JUMP JUMPDEST DUP5 ADD SWAP1 POP SWAP4 SWAP3 POP POP POP JUMP JUMPDEST PUSH2 0xB68 DUP2 PUSH2 0x88D JUMP JUMPDEST DUP3 MSTORE POP POP JUMP JUMPDEST PUSH1 0x0 PUSH1 0x60 DUP3 ADD SWAP1 POP PUSH2 0xB83 PUSH1 0x0 DUP4 ADD DUP8 PUSH2 0xB03 JUMP JUMPDEST DUP2 DUP2 SUB PUSH1 0x20 DUP4 ADD MSTORE PUSH2 0xB96 DUP2 DUP6 DUP8 PUSH2 0xB32 JUMP JUMPDEST SWAP1 POP PUSH2 0xBA5 PUSH1 0x40 DUP4 ADD DUP5 PUSH2 0xB5F JUMP JUMPDEST SWAP6 SWAP5 POP POP POP POP POP JUMP JUMPDEST PUSH32 0x4D616E61676572206E6F7420696E697469616C697A6564000000000000000000 PUSH1 0x0 DUP3 ADD MSTORE POP JUMP JUMPDEST PUSH1 0x0 PUSH2 0xBE4 PUSH1 0x17 DUP4 PUSH2 0xA86 JUMP JUMPDEST SWAP2 POP PUSH2 0xBEF DUP3 PUSH2 0xBAE JUMP JUMPDEST PUSH1 0x20 DUP3 ADD SWAP1 POP SWAP2 SWAP1 POP JUMP JUMPDEST PUSH1 0x0 PUSH1 0x20 DUP3 ADD SWAP1 POP DUP2 DUP2 SUB PUSH1 0x0 DUP4 ADD MSTORE PUSH2 0xC13 DUP2 PUSH2 0xBD7 JUMP JUMPDEST SWAP1 POP SWAP2 SWAP1 POP JUMP JUMPDEST PUSH2 0xC23 DUP2 PUSH2 0x959 JUMP JUMPDEST DUP3 MSTORE POP POP JUMP JUMPDEST PUSH1 0x0 PUSH1 0x40 DUP3 ADD SWAP1 POP PUSH2 0xC3E PUSH1 0x0 DUP4 ADD DUP6 PUSH2 0xB03 JUMP JUMPDEST PUSH2 0xC4B PUSH1 0x20 DUP4 ADD DUP5 PUSH2 0xC1A JUMP JUMPDEST SWAP4 SWAP3 POP POP POP JUMP JUMPDEST PUSH32 0x4F776E61626C653A206E6577206F776E657220697320746865207A65726F2061 PUSH1 0x0 DUP3 ADD MSTORE PUSH32 0x6464726573730000000000000000000000000000000000000000000000000000 PUSH1 0x20 DUP3 ADD MSTORE POP JUMP JUMPDEST PUSH1 0x0 PUSH2 0xCAE PUSH1 0x26 DUP4 PUSH2 0xA86 JUMP JUMPDEST SWAP2 POP PUSH2 0xCB9 DUP3 PUSH2 0xC52 JUMP JUMPDEST PUSH1 0x40 DUP3 ADD SWAP1 POP SWAP2 SWAP1 POP JUMP JUMPDEST PUSH1 0x0 PUSH1 0x20 DUP3 ADD SWAP1 POP DUP2 DUP2 SUB PUSH1 0x0 DUP4 ADD MSTORE PUSH2 0xCDD DUP2 PUSH2 0xCA1 JUMP JUMPDEST SWAP1 POP SWAP2 SWAP1 POP JUMP JUMPDEST PUSH32 0x4F776E61626C653A2063616C6C6572206973206E6F7420746865206F776E6572 PUSH1 0x0 DUP3 ADD MSTORE POP JUMP JUMPDEST PUSH1 0x0 PUSH2 0xD1A PUSH1 0x20 DUP4 PUSH2 0xA86 JUMP JUMPDEST SWAP2 POP PUSH2 0xD25 DUP3 PUSH2 0xCE4 JUMP JUMPDEST PUSH1 0x20 DUP3 ADD SWAP1 POP SWAP2 SWAP1 POP JUMP JUMPDEST PUSH1 0x0 PUSH1 0x20 DUP3 ADD SWAP1 POP DUP2 DUP2 SUB PUSH1 0x0 DUP4 ADD MSTORE PUSH2 0xD49 DUP2 PUSH2 0xD0D JUMP JUMPDEST SWAP1 POP SWAP2 SWAP1 POP JUMP INVALID LOG2 PUSH5 0x6970667358 0x22 SLT KECCAK256 0xDB SWAP15 MSTORE8 0xDE CREATE2 GASPRICE 0xD0 INVALID 0xC5 0x22 0xEE 0x1E 0xEF PUSH24 0xB2E6EE88ACEE4A7CC2325AFFECB4CEDF627A64736F6C6343 STOP ADDMOD SLT STOP CALLER "
				},
				"gasEstimates": {
					"creation": {
						"codeDepositCost": "692400",
						"executionCost": "infinite",
						"totalCost": "infinite"
					},
					"external": {
						"checkDelete(uint256,string,bytes20)": "infinite",
						"checkDeploy(uint256,string,bytes20)": "infinite",
						"deleteChecked(uint256,bool)": "infinite",
						"deployChecked(uint256,bool)": "infinite",
						"owner()": "2589",
						"renounceOwnership()": "30421",
						"setManager(address)": "infinite",
						"transferOwnership(address)": "30788"
					}
				},
				"methodIdentifiers": {
					"checkDelete(uint256,string,bytes20)": "f6159ce6",
					"checkDeploy(uint256,string,bytes20)": "2b0d3a8e",
					"deleteChecked(uint256,bool)": "809a875f",
					"deployChecked(uint256,bool)": "d2b6b821",
					"owner()": "8da5cb5b",
					"renounceOwnership()": "715018a6",
					"setManager(address)": "d0ebdbe7",
					"transferOwnership(address)": "f2fde38b"
				}
			},
			"storageLayout": {
				"storage": [
					{
						"astId": 7,
						"contract": "contracts/on_chain_manager/Oracle.sol:Oracle",
						"label": "_owner",
						"offset": 0,
						"slot": "0",
						"type": "t_address"
					},
					{
						"astId": 961,
						"contract": "contracts/on_chain_manager/Oracle.sol:Oracle",
						"label": "manager",
						"offset": 0,
						"slot": "1",
						"type": "t_contract(AbstractManager)928"
					}
				],
				"types": {
					"t_address": {
						"encoding": "inplace",
						"label": "address",
						"numberOfBytes": "20"
					},
					"t_contract(AbstractManager)928": {
						"encoding": "inplace",
						"label": "contract AbstractManager",
						"numberOfBytes": "20"
					}
				}
			},
			"userdoc": {
				"kind": "user",
				"methods": {},
				"version": 1
			}
		}
	}
}