{
	"contracts/on_chain_manager/Manager.sol": {
		"Manager": {
			"abi": [
				{
					"inputs": [],
					"stateMutability": "nonpayable",
					"type": "constructor"
				},
				{
					"anonymous": false,
					"inputs": [
						{
							"indexed": false,
							"internalType": "uint8",
							"name": "newAlg",
							"type": "uint8"
						}
					],
					"name": "ChangedAlgorithm",
					"type": "event"
				},
				{
					"anonymous": false,
					"inputs": [
						{
							"indexed": false,
							"internalType": "address",
							"name": "newAddress",
							"type": "address"
						}
					],
					"name": "ChangedOracle",
					"type": "event"
				},
				{
					"anonymous": false,
					"inputs": [
						{
							"indexed": false,
							"internalType": "uint256",
							"name": "id",
							"type": "uint256"
						},
						{
							"indexed": false,
							"internalType": "uint8",
							"name": "shardId",
							"type": "uint8"
						},
						{
							"indexed": false,
							"internalType": "string",
							"name": "shard",
							"type": "string"
						},
						{
							"indexed": false,
							"internalType": "bytes20",
							"name": "addr",
							"type": "bytes20"
						},
						{
							"indexed": false,
							"internalType": "string",
							"name": "name",
							"type": "string"
						}
					],
					"name": "DeleteConfirmed",
					"type": "event"
				},
				{
					"anonymous": false,
					"inputs": [
						{
							"indexed": false,
							"internalType": "uint256",
							"name": "id",
							"type": "uint256"
						},
						{
							"indexed": false,
							"internalType": "uint8",
							"name": "shardId",
							"type": "uint8"
						},
						{
							"indexed": false,
							"internalType": "string",
							"name": "shard",
							"type": "string"
						},
						{
							"indexed": false,
							"internalType": "bytes20",
							"name": "addr",
							"type": "bytes20"
						},
						{
							"indexed": false,
							"internalType": "string",
							"name": "name",
							"type": "string"
						}
					],
					"name": "DeleteDeclared",
					"type": "event"
				},
				{
					"anonymous": false,
					"inputs": [
						{
							"indexed": false,
							"internalType": "uint256",
							"name": "id",
							"type": "uint256"
						},
						{
							"indexed": false,
							"internalType": "uint8",
							"name": "shardId",
							"type": "uint8"
						},
						{
							"indexed": false,
							"internalType": "string",
							"name": "shard",
							"type": "string"
						},
						{
							"indexed": false,
							"internalType": "bytes20",
							"name": "addr",
							"type": "bytes20"
						},
						{
							"indexed": false,
							"internalType": "string",
							"name": "name",
							"type": "string"
						}
					],
					"name": "DeleteNotConfirmed",
					"type": "event"
				},
				{
					"anonymous": false,
					"inputs": [
						{
							"indexed": false,
							"internalType": "uint256",
							"name": "id",
							"type": "uint256"
						},
						{
							"indexed": false,
							"internalType": "uint8",
							"name": "shardId",
							"type": "uint8"
						},
						{
							"indexed": false,
							"internalType": "string",
							"name": "shard",
							"type": "string"
						},
						{
							"indexed": false,
							"internalType": "bytes20",
							"name": "addr",
							"type": "bytes20"
						},
						{
							"indexed": false,
							"internalType": "string",
							"name": "name",
							"type": "string"
						}
					],
					"name": "DeployConfirmed",
					"type": "event"
				},
				{
					"anonymous": false,
					"inputs": [
						{
							"indexed": false,
							"internalType": "uint256",
							"name": "id",
							"type": "uint256"
						},
						{
							"indexed": false,
							"internalType": "uint8",
							"name": "shardId",
							"type": "uint8"
						},
						{
							"indexed": false,
							"internalType": "string",
							"name": "shard",
							"type": "string"
						},
						{
							"indexed": false,
							"internalType": "bytes20",
							"name": "addr",
							"type": "bytes20"
						},
						{
							"indexed": false,
							"internalType": "string",
							"name": "name",
							"type": "string"
						}
					],
					"name": "DeployDeclared",
					"type": "event"
				},
				{
					"anonymous": false,
					"inputs": [
						{
							"indexed": false,
							"internalType": "uint256",
							"name": "id",
							"type": "uint256"
						},
						{
							"indexed": false,
							"internalType": "uint8",
							"name": "shardId",
							"type": "uint8"
						},
						{
							"indexed": false,
							"internalType": "string",
							"name": "shard",
							"type": "string"
						},
						{
							"indexed": false,
							"internalType": "bytes20",
							"name": "addr",
							"type": "bytes20"
						},
						{
							"indexed": false,
							"internalType": "string",
							"name": "name",
							"type": "string"
						}
					],
					"name": "DeployNotConfirmed",
					"type": "event"
				},
				{
					"anonymous": false,
					"inputs": [
						{
							"indexed": false,
							"internalType": "uint256",
							"name": "id",
							"type": "uint256"
						},
						{
							"indexed": false,
							"internalType": "uint8",
							"name": "shardId",
							"type": "uint8"
						},
						{
							"indexed": false,
							"internalType": "string",
							"name": "shard",
							"type": "string"
						}
					],
					"name": "DeployReserved",
					"type": "event"
				},
				{
					"anonymous": false,
					"inputs": [
						{
							"indexed": true,
							"internalType": "address",
							"name": "previousOwner",
							"type": "address"
						},
						{
							"indexed": true,
							"internalType": "address",
							"name": "newOwner",
							"type": "address"
						}
					],
					"name": "OwnershipTransferred",
					"type": "event"
				},
				{
					"anonymous": false,
					"inputs": [
						{
							"indexed": false,
							"internalType": "uint8",
							"name": "shardId",
							"type": "uint8"
						},
						{
							"indexed": false,
							"internalType": "string",
							"name": "shard",
							"type": "string"
						}
					],
					"name": "ShardAdded",
					"type": "event"
				},
				{
					"inputs": [
						{
							"internalType": "string",
							"name": "url",
							"type": "string"
						},
						{
							"internalType": "bool",
							"name": "active",
							"type": "bool"
						}
					],
					"name": "addShard",
					"outputs": [],
					"stateMutability": "nonpayable",
					"type": "function"
				},
				{
					"inputs": [],
					"name": "contractId",
					"outputs": [
						{
							"internalType": "uint256",
							"name": "",
							"type": "uint256"
						}
					],
					"stateMutability": "view",
					"type": "function"
				},
				{
					"inputs": [
						{
							"internalType": "uint256",
							"name": "id",
							"type": "uint256"
						}
					],
					"name": "declareDel",
					"outputs": [],
					"stateMutability": "nonpayable",
					"type": "function"
				},
				{
					"inputs": [
						{
							"internalType": "uint256",
							"name": "id",
							"type": "uint256"
						},
						{
							"internalType": "bytes20",
							"name": "addr",
							"type": "bytes20"
						},
						{
							"internalType": "string",
							"name": "name",
							"type": "string"
						}
					],
					"name": "declareDeploy",
					"outputs": [],
					"stateMutability": "nonpayable",
					"type": "function"
				},
				{
					"inputs": [
						{
							"internalType": "uint256",
							"name": "",
							"type": "uint256"
						}
					],
					"name": "deployMap",
					"outputs": [
						{
							"internalType": "uint8",
							"name": "shardId",
							"type": "uint8"
						},
						{
							"internalType": "bytes20",
							"name": "addr",
							"type": "bytes20"
						},
						{
							"internalType": "string",
							"name": "name",
							"type": "string"
						},
						{
							"internalType": "address",
							"name": "user",
							"type": "address"
						},
						{
							"internalType": "uint256",
							"name": "deployTime",
							"type": "uint256"
						},
						{
							"internalType": "enum AbstractManager.Status",
							"name": "status",
							"type": "uint8"
						}
					],
					"stateMutability": "view",
					"type": "function"
				},
				{
					"inputs": [
						{
							"internalType": "uint256",
							"name": "id",
							"type": "uint256"
						},
						{
							"internalType": "bool",
							"name": "result",
							"type": "bool"
						}
					],
					"name": "fullfillDelete",
					"outputs": [],
					"stateMutability": "nonpayable",
					"type": "function"
				},
				{
					"inputs": [
						{
							"internalType": "uint256",
							"name": "id",
							"type": "uint256"
						},
						{
							"internalType": "bool",
							"name": "result",
							"type": "bool"
						}
					],
					"name": "fullfillDeploy",
					"outputs": [],
					"stateMutability": "nonpayable",
					"type": "function"
				},
				{
					"inputs": [],
					"name": "owner",
					"outputs": [
						{
							"internalType": "address",
							"name": "",
							"type": "address"
						}
					],
					"stateMutability": "view",
					"type": "function"
				},
				{
					"inputs": [],
					"name": "renounceOwnership",
					"outputs": [],
					"stateMutability": "nonpayable",
					"type": "function"
				},
				{
					"inputs": [],
					"name": "reserveDeploy",
					"outputs": [
						{
							"internalType": "uint256",
							"name": "",
							"type": "uint256"
						},
						{
							"internalType": "string",
							"name": "",
							"type": "string"
						}
					],
					"stateMutability": "nonpayable",
					"type": "function"
				},
				{
					"inputs": [
						{
							"internalType": "uint8",
							"name": "newAlg",
							"type": "uint8"
						}
					],
					"name": "setAlg",
					"outputs": [],
					"stateMutability": "nonpayable",
					"type": "function"
				},
				{
					"inputs": [
						{
							"internalType": "address",
							"name": "newAddress",
							"type": "address"
						}
					],
					"name": "setOracle",
					"outputs": [],
					"stateMutability": "nonpayable",
					"type": "function"
				},
				{
					"inputs": [
						{
							"internalType": "uint8",
							"name": "shardId",
							"type": "uint8"
						},
						{
							"internalType": "bool",
							"name": "status",
							"type": "bool"
						}
					],
					"name": "setShardStatus",
					"outputs": [],
					"stateMutability": "nonpayable",
					"type": "function"
				},
				{
					"inputs": [
						{
							"internalType": "uint256",
							"name": "",
							"type": "uint256"
						}
					],
					"name": "shardList",
					"outputs": [
						{
							"internalType": "string",
							"name": "url",
							"type": "string"
						},
						{
							"internalType": "bool",
							"name": "active",
							"type": "bool"
						},
						{
							"internalType": "uint256",
							"name": "numDeploy",
							"type": "uint256"
						}
					],
					"stateMutability": "view",
					"type": "function"
				},
				{
					"inputs": [
						{
							"internalType": "address",
							"name": "newOwner",
							"type": "address"
						}
					],
					"name": "transferOwnership",
					"outputs": [],
					"stateMutability": "nonpayable",
					"type": "function"
				}
			],
			"devdoc": {
				"kind": "dev",
				"methods": {
					"owner()": {
						"details": "Returns the address of the current owner."
					},
					"renounceOwnership()": {
						"details": "Leaves the contract without owner. It will not be possible to call `onlyOwner` functions anymore. Can only be called by the current owner. NOTE: Renouncing ownership will leave the contract without an owner, thereby removing any functionality that is only available to the owner."
					},
					"transferOwnership(address)": {
						"details": "Transfers ownership of the contract to a new account (`newOwner`). Can only be called by the current owner."
					}
				},
				"version": 1
			},
			"evm": {
				"assembly": "    /* \"contracts/on_chain_manager/Manager.sol\":102:1395  contract Manager is AbstractManager{... */\n  mstore(0x40, 0x80)\n    /* \"contracts/on_chain_manager/Manager.sol\":148:219  constructor() AbstractManager(){... */\n  callvalue\n  dup1\n  iszero\n  tag_1\n  jumpi\n  0x00\n  dup1\n  revert\ntag_1:\n  pop\n    /* \"@openzeppelin/contracts/access/Ownable.sol\":936:968  _transferOwnership(_msgSender()) */\n  tag_6\n    /* \"@openzeppelin/contracts/access/Ownable.sol\":955:967  _msgSender() */\n  tag_7\n    /* \"@openzeppelin/contracts/access/Ownable.sol\":955:965  _msgSender */\n  shl(0x20, tag_8)\n    /* \"@openzeppelin/contracts/access/Ownable.sol\":955:967  _msgSender() */\n  0x20\n  shr\n  jump\t// in\ntag_7:\n    /* \"@openzeppelin/contracts/access/Ownable.sol\":936:954  _transferOwnership */\n  shl(0x20, tag_9)\n    /* \"@openzeppelin/contracts/access/Ownable.sol\":936:968  _transferOwnership(_msgSender()) */\n  0x20\n  shr\n  jump\t// in\ntag_6:\n    /* \"contracts/on_chain_manager/AbstractManager.sol\":1394:1395  0 */\n  0x00\n    /* \"contracts/on_chain_manager/AbstractManager.sol\":1381:1391  currentAlg */\n  0x03\n  0x00\n    /* \"contracts/on_chain_manager/AbstractManager.sol\":1381:1395  currentAlg = 0 */\n  0x0100\n  exp\n  dup2\n  sload\n  dup2\n  0xff\n  mul\n  not\n  and\n  swap1\n  dup4\n  0xff\n  and\n  mul\n  or\n  swap1\n  sstore\n  pop\n    /* \"contracts/on_chain_manager/AbstractManager.sol\":1418:1419  0 */\n  0x00\n    /* \"contracts/on_chain_manager/AbstractManager.sol\":1405:1415  contractId */\n  0x06\n    /* \"contracts/on_chain_manager/AbstractManager.sol\":1405:1419  contractId = 0 */\n  dup2\n  swap1\n  sstore\n  pop\n    /* \"contracts/on_chain_manager/AbstractManager.sol\":1440:1442  10 */\n  0x0a\n    /* \"contracts/on_chain_manager/AbstractManager.sol\":1429:1437  maxShard */\n  0x07\n  0x00\n    /* \"contracts/on_chain_manager/AbstractManager.sol\":1429:1442  maxShard = 10 */\n  0x0100\n  exp\n  dup2\n  sload\n  dup2\n  0xff\n  mul\n  not\n  and\n  swap1\n  dup4\n  0xff\n  and\n  mul\n  or\n  swap1\n  sstore\n  pop\n    /* \"contracts/on_chain_manager/AbstractManager.sol\":1452:1456  algs */\n  0x04\n    /* \"contracts/on_chain_manager/AbstractManager.sol\":1462:1472  defaultAlg */\n  or(tag_0_79, shl(0x20, tag_11))\n    /* \"contracts/on_chain_manager/AbstractManager.sol\":1452:1473  algs.push(defaultAlg) */\n  swap1\n  dup1\n  0x01\n  dup2\n  sload\n  add\n  dup1\n  dup3\n  sstore\n  dup1\n  swap2\n  pop\n  pop\n  0x01\n  swap1\n  sub\n  swap1\n  0x00\n  mstore\n  keccak256(0x00, 0x20)\n  swap1\n  0x04\n  swap2\n  dup3\n  dup3\n  div\n  add\n  swap2\n  swap1\n  mod\n  0x08\n  mul\n  swap1\n  swap2\n  swap1\n  swap2\n  swap1\n  swap2\n  0x0100\n  exp\n  dup2\n  sload\n  dup2\n  0xffffffffffffffff\n  mul\n  not\n  and\n  swap1\n  dup4\n  0xffffffffffffffff\n  and\n  mul\n  or\n  swap1\n  sstore\n  pop\n    /* \"contracts/on_chain_manager/Manager.sol\":189:193  algs */\n  0x04\n    /* \"contracts/on_chain_manager/Manager.sol\":199:211  minDeployAlg */\n  or(tag_0_80, shl(0x20, tag_14))\n    /* \"contracts/on_chain_manager/Manager.sol\":189:212  algs.push(minDeployAlg) */\n  swap1\n  dup1\n  0x01\n  dup2\n  sload\n  add\n  dup1\n  dup3\n  sstore\n  dup1\n  swap2\n  pop\n  pop\n  0x01\n  swap1\n  sub\n  swap1\n  0x00\n  mstore\n  keccak256(0x00, 0x20)\n  swap1\n  0x04\n  swap2\n  dup3\n  dup3\n  div\n  add\n  swap2\n  swap1\n  mod\n  0x08\n  mul\n  swap1\n  swap2\n  swap1\n  swap2\n  swap1\n  swap2\n  0x0100\n  exp\n  dup2\n  sload\n  dup2\n  0xffffffffffffffff\n  mul\n  not\n  and\n  swap1\n  dup4\n  0xffffffffffffffff\n  and\n  mul\n  or\n  swap1\n  sstore\n  pop\n    /* \"contracts/on_chain_manager/Manager.sol\":102:1395  contract Manager is AbstractManager{... */\n  jump(tag_16)\n    /* \"@openzeppelin/contracts/utils/Context.sol\":640:736  function _msgSender() internal view virtual returns (address) {... */\ntag_8:\n    /* \"@openzeppelin/contracts/utils/Context.sol\":693:700  address */\n  0x00\n    /* \"@openzeppelin/contracts/utils/Context.sol\":719:729  msg.sender */\n  caller\n    /* \"@openzeppelin/contracts/utils/Context.sol\":712:729  return msg.sender */\n  swap1\n  pop\n    /* \"@openzeppelin/contracts/utils/Context.sol\":640:736  function _msgSender() internal view virtual returns (address) {... */\n  swap1\n  jump\t// out\n    /* \"@openzeppelin/contracts/access/Ownable.sol\":2433:2620  function _transferOwnership(address newOwner) internal virtual {... */\ntag_9:\n    /* \"@openzeppelin/contracts/access/Ownable.sol\":2506:2522  address oldOwner */\n  0x00\n    /* \"@openzeppelin/contracts/access/Ownable.sol\":2525:2531  _owner */\n  dup1\n  0x00\n  swap1\n  sload\n  swap1\n  0x0100\n  exp\n  swap1\n  div\n  0xffffffffffffffffffffffffffffffffffffffff\n  and\n    /* \"@openzeppelin/contracts/access/Ownable.sol\":2506:2531  address oldOwner = _owner */\n  swap1\n  pop\n    /* \"@openzeppelin/contracts/access/Ownable.sol\":2550:2558  newOwner */\n  dup2\n    /* \"@openzeppelin/contracts/access/Ownable.sol\":2541:2547  _owner */\n  0x00\n  dup1\n    /* \"@openzeppelin/contracts/access/Ownable.sol\":2541:2558  _owner = newOwner */\n  0x0100\n  exp\n  dup2\n  sload\n  dup2\n  0xffffffffffffffffffffffffffffffffffffffff\n  mul\n  not\n  and\n  swap1\n  dup4\n  0xffffffffffffffffffffffffffffffffffffffff\n  and\n  mul\n  or\n  swap1\n  sstore\n  pop\n    /* \"@openzeppelin/contracts/access/Ownable.sol\":2604:2612  newOwner */\n  dup2\n    /* \"@openzeppelin/contracts/access/Ownable.sol\":2573:2613  OwnershipTransferred(oldOwner, newOwner) */\n  0xffffffffffffffffffffffffffffffffffffffff\n  and\n    /* \"@openzeppelin/contracts/access/Ownable.sol\":2594:2602  oldOwner */\n  dup2\n    /* \"@openzeppelin/contracts/access/Ownable.sol\":2573:2613  OwnershipTransferred(oldOwner, newOwner) */\n  0xffffffffffffffffffffffffffffffffffffffff\n  and\n  0x8be0079c531659141344cd1fd0a4f28419497f9722a3daafe3b4186f6b6457e0\n  mload(0x40)\n  mload(0x40)\n  dup1\n  swap2\n  sub\n  swap1\n  log3\n    /* \"@openzeppelin/contracts/access/Ownable.sol\":2496:2620  {... */\n  pop\n    /* \"@openzeppelin/contracts/access/Ownable.sol\":2433:2620  function _transferOwnership(address newOwner) internal virtual {... */\n  pop\n  jump\t// out\n    /* \"contracts/on_chain_manager/Manager.sol\":225:721  function defaultAlg() internal override returns(uint8) {... */\ntag_11:\n    /* \"contracts/on_chain_manager/Manager.sol\":273:278  uint8 */\n  0x00\n    /* \"contracts/on_chain_manager/Manager.sol\":292:307  uint8 loopShard */\n  dup1\n    /* \"contracts/on_chain_manager/Manager.sol\":356:365  shardList */\n  0x02\n    /* \"contracts/on_chain_manager/Manager.sol\":356:372  shardList.length */\n  dup1\n  sload\n  swap1\n  pop\n    /* \"contracts/on_chain_manager/Manager.sol\":351:352  1 */\n  0x01\n    /* \"contracts/on_chain_manager/Manager.sol\":332:341  shardList */\n  0x02\n    /* \"contracts/on_chain_manager/Manager.sol\":332:348  shardList.length */\n  dup1\n  sload\n  swap1\n  pop\n    /* \"contracts/on_chain_manager/Manager.sol\":317:329  currentShard */\n  0x03\n  0x01\n  swap1\n  sload\n  swap1\n  0x0100\n  exp\n  swap1\n  div\n  0xff\n  and\n    /* \"contracts/on_chain_manager/Manager.sol\":317:348  currentShard + shardList.length */\n  0xff\n  and\n  tag_20\n  swap2\n  swap1\n  tag_21\n  jump\t// in\ntag_20:\n    /* \"contracts/on_chain_manager/Manager.sol\":317:352  currentShard + shardList.length - 1 */\n  tag_22\n  swap2\n  swap1\n  tag_23\n  jump\t// in\ntag_22:\n    /* \"contracts/on_chain_manager/Manager.sol\":316:372  (currentShard + shardList.length - 1) % shardList.length */\n  tag_24\n  swap2\n  swap1\n  tag_25\n  jump\t// in\ntag_24:\n    /* \"contracts/on_chain_manager/Manager.sol\":292:373  uint8 loopShard = uint8((currentShard + shardList.length - 1) % shardList.length) */\n  swap1\n  pop\n    /* \"contracts/on_chain_manager/Manager.sol\":385:537  while(currentShard != loopShard && !shardList[currentShard].active){... */\ntag_26:\n    /* \"contracts/on_chain_manager/Manager.sol\":407:416  loopShard */\n  dup1\n    /* \"contracts/on_chain_manager/Manager.sol\":391:416  currentShard != loopShard */\n  0xff\n  and\n    /* \"contracts/on_chain_manager/Manager.sol\":391:403  currentShard */\n  0x03\n  0x01\n  swap1\n  sload\n  swap1\n  0x0100\n  exp\n  swap1\n  div\n  0xff\n  and\n    /* \"contracts/on_chain_manager/Manager.sol\":391:416  currentShard != loopShard */\n  0xff\n  and\n  eq\n  iszero\n    /* \"contracts/on_chain_manager/Manager.sol\":391:451  currentShard != loopShard && !shardList[currentShard].active */\n  dup1\n  iszero\n  tag_28\n  jumpi\n  pop\n    /* \"contracts/on_chain_manager/Manager.sol\":421:430  shardList */\n  0x02\n    /* \"contracts/on_chain_manager/Manager.sol\":431:443  currentShard */\n  0x03\n  0x01\n  swap1\n  sload\n  swap1\n  0x0100\n  exp\n  swap1\n  div\n  0xff\n  and\n    /* \"contracts/on_chain_manager/Manager.sol\":421:444  shardList[currentShard] */\n  0xff\n  and\n  dup2\n  sload\n  dup2\n  lt\n  tag_29\n  jumpi\n  tag_30\n  tag_31\n  jump\t// in\ntag_30:\ntag_29:\n  swap1\n  0x00\n  mstore\n  keccak256(0x00, 0x20)\n  swap1\n  0x03\n  mul\n  add\n    /* \"contracts/on_chain_manager/Manager.sol\":421:451  shardList[currentShard].active */\n  0x01\n  add\n  0x00\n  swap1\n  sload\n  swap1\n  0x0100\n  exp\n  swap1\n  div\n  0xff\n  and\n    /* \"contracts/on_chain_manager/Manager.sol\":420:451  !shardList[currentShard].active */\n  iszero\n    /* \"contracts/on_chain_manager/Manager.sol\":391:451  currentShard != loopShard && !shardList[currentShard].active */\ntag_28:\n    /* \"contracts/on_chain_manager/Manager.sol\":385:537  while(currentShard != loopShard && !shardList[currentShard].active){... */\n  iszero\n  tag_27\n  jumpi\n    /* \"contracts/on_chain_manager/Manager.sol\":508:517  shardList */\n  0x02\n    /* \"contracts/on_chain_manager/Manager.sol\":508:524  shardList.length */\n  dup1\n  sload\n  swap1\n  pop\n    /* \"contracts/on_chain_manager/Manager.sol\":503:504  1 */\n  0x01\n    /* \"contracts/on_chain_manager/Manager.sol\":488:500  currentShard */\n  0x03\n  0x01\n  swap1\n  sload\n  swap1\n  0x0100\n  exp\n  swap1\n  div\n  0xff\n  and\n    /* \"contracts/on_chain_manager/Manager.sol\":488:504  currentShard + 1 */\n  tag_33\n  swap2\n  swap1\n  tag_34\n  jump\t// in\ntag_33:\n    /* \"contracts/on_chain_manager/Manager.sol\":487:524  (currentShard + 1) % shardList.length */\n  0xff\n  and\n  tag_35\n  swap2\n  swap1\n  tag_25\n  jump\t// in\ntag_35:\n    /* \"contracts/on_chain_manager/Manager.sol\":466:478  currentShard */\n  0x03\n  0x01\n    /* \"contracts/on_chain_manager/Manager.sol\":466:525  currentShard = uint8((currentShard + 1) % shardList.length) */\n  0x0100\n  exp\n  dup2\n  sload\n  dup2\n  0xff\n  mul\n  not\n  and\n  swap1\n  dup4\n  0xff\n  and\n  mul\n  or\n  swap1\n  sstore\n  pop\n    /* \"contracts/on_chain_manager/Manager.sol\":385:537  while(currentShard != loopShard && !shardList[currentShard].active){... */\n  jump(tag_26)\ntag_27:\n    /* \"contracts/on_chain_manager/Manager.sol\":548:561  uint8 shardId */\n  0x00\n    /* \"contracts/on_chain_manager/Manager.sol\":564:573  shardList */\n  0x02\n    /* \"contracts/on_chain_manager/Manager.sol\":574:586  currentShard */\n  0x03\n  0x01\n  swap1\n  sload\n  swap1\n  0x0100\n  exp\n  swap1\n  div\n  0xff\n  and\n    /* \"contracts/on_chain_manager/Manager.sol\":564:587  shardList[currentShard] */\n  0xff\n  and\n  dup2\n  sload\n  dup2\n  lt\n  tag_36\n  jumpi\n  tag_37\n  tag_31\n  jump\t// in\ntag_37:\ntag_36:\n  swap1\n  0x00\n  mstore\n  keccak256(0x00, 0x20)\n  swap1\n  0x03\n  mul\n  add\n    /* \"contracts/on_chain_manager/Manager.sol\":564:594  shardList[currentShard].active */\n  0x01\n  add\n  0x00\n  swap1\n  sload\n  swap1\n  0x0100\n  exp\n  swap1\n  div\n  0xff\n  and\n    /* \"contracts/on_chain_manager/Manager.sol\":564:619  shardList[currentShard].active? currentShard : maxShard */\n  tag_39\n  jumpi\n    /* \"contracts/on_chain_manager/Manager.sol\":611:619  maxShard */\n  0x07\n  0x00\n  swap1\n  sload\n  swap1\n  0x0100\n  exp\n  swap1\n  div\n  0xff\n  and\n    /* \"contracts/on_chain_manager/Manager.sol\":564:619  shardList[currentShard].active? currentShard : maxShard */\n  jump(tag_40)\ntag_39:\n    /* \"contracts/on_chain_manager/Manager.sol\":596:608  currentShard */\n  0x03\n  0x01\n  swap1\n  sload\n  swap1\n  0x0100\n  exp\n  swap1\n  div\n  0xff\n  and\n    /* \"contracts/on_chain_manager/Manager.sol\":564:619  shardList[currentShard].active? currentShard : maxShard */\ntag_40:\n    /* \"contracts/on_chain_manager/Manager.sol\":548:619  uint8 shardId = shardList[currentShard].active? currentShard : maxShard */\n  swap1\n  pop\n    /* \"contracts/on_chain_manager/Manager.sol\":672:681  shardList */\n  0x02\n    /* \"contracts/on_chain_manager/Manager.sol\":672:688  shardList.length */\n  dup1\n  sload\n  swap1\n  pop\n    /* \"contracts/on_chain_manager/Manager.sol\":667:668  1 */\n  0x01\n    /* \"contracts/on_chain_manager/Manager.sol\":652:664  currentShard */\n  0x03\n  0x01\n  swap1\n  sload\n  swap1\n  0x0100\n  exp\n  swap1\n  div\n  0xff\n  and\n    /* \"contracts/on_chain_manager/Manager.sol\":652:668  currentShard + 1 */\n  tag_41\n  swap2\n  swap1\n  tag_34\n  jump\t// in\ntag_41:\n    /* \"contracts/on_chain_manager/Manager.sol\":651:688  (currentShard + 1) % shardList.length */\n  0xff\n  and\n  tag_42\n  swap2\n  swap1\n  tag_25\n  jump\t// in\ntag_42:\n    /* \"contracts/on_chain_manager/Manager.sol\":630:642  currentShard */\n  0x03\n  0x01\n    /* \"contracts/on_chain_manager/Manager.sol\":630:689  currentShard = uint8((currentShard + 1) % shardList.length) */\n  0x0100\n  exp\n  dup2\n  sload\n  dup2\n  0xff\n  mul\n  not\n  and\n  swap1\n  dup4\n  0xff\n  and\n  mul\n  or\n  swap1\n  sstore\n  pop\n    /* \"contracts/on_chain_manager/Manager.sol\":707:714  shardId */\n  dup1\n    /* \"contracts/on_chain_manager/Manager.sol\":700:714  return shardId */\n  swap3\n  pop\n  pop\n  pop\n    /* \"contracts/on_chain_manager/Manager.sol\":225:721  function defaultAlg() internal override returns(uint8) {... */\n  swap1\n  jump\t// out\n    /* \"contracts/on_chain_manager/Manager.sol\":727:1365  function minDeployAlg() internal view returns(uint8) {... */\ntag_14:\n    /* \"contracts/on_chain_manager/Manager.sol\":773:778  uint8 */\n  0x00\n    /* \"contracts/on_chain_manager/Manager.sol\":790:807  uint256 minDeploy */\n  dup1\n    /* \"contracts/on_chain_manager/Manager.sol\":817:830  uint8 shardId */\n  0x00\n    /* \"contracts/on_chain_manager/Manager.sol\":833:841  maxShard */\n  0x07\n  0x00\n  swap1\n  sload\n  swap1\n  0x0100\n  exp\n  swap1\n  div\n  0xff\n  and\n    /* \"contracts/on_chain_manager/Manager.sol\":817:841  uint8 shardId = maxShard */\n  swap1\n  pop\n    /* \"contracts/on_chain_manager/Manager.sol\":851:858  uint8 i */\n  0x00\n    /* \"contracts/on_chain_manager/Manager.sol\":869:956  for(i = 0; i < shardList.length && !shardList[i].active; i++){... */\ntag_44:\n    /* \"contracts/on_chain_manager/Manager.sol\":884:893  shardList */\n  0x02\n    /* \"contracts/on_chain_manager/Manager.sol\":884:900  shardList.length */\n  dup1\n  sload\n  swap1\n  pop\n    /* \"contracts/on_chain_manager/Manager.sol\":880:881  i */\n  dup2\n    /* \"contracts/on_chain_manager/Manager.sol\":880:900  i < shardList.length */\n  0xff\n  and\n  lt\n    /* \"contracts/on_chain_manager/Manager.sol\":880:924  i < shardList.length && !shardList[i].active */\n  dup1\n  iszero\n  tag_47\n  jumpi\n  pop\n    /* \"contracts/on_chain_manager/Manager.sol\":905:914  shardList */\n  0x02\n    /* \"contracts/on_chain_manager/Manager.sol\":915:916  i */\n  dup2\n    /* \"contracts/on_chain_manager/Manager.sol\":905:917  shardList[i] */\n  0xff\n  and\n  dup2\n  sload\n  dup2\n  lt\n  tag_48\n  jumpi\n  tag_49\n  tag_31\n  jump\t// in\ntag_49:\ntag_48:\n  swap1\n  0x00\n  mstore\n  keccak256(0x00, 0x20)\n  swap1\n  0x03\n  mul\n  add\n    /* \"contracts/on_chain_manager/Manager.sol\":905:924  shardList[i].active */\n  0x01\n  add\n  0x00\n  swap1\n  sload\n  swap1\n  0x0100\n  exp\n  swap1\n  div\n  0xff\n  and\n    /* \"contracts/on_chain_manager/Manager.sol\":904:924  !shardList[i].active */\n  iszero\n    /* \"contracts/on_chain_manager/Manager.sol\":880:924  i < shardList.length && !shardList[i].active */\ntag_47:\n    /* \"contracts/on_chain_manager/Manager.sol\":869:956  for(i = 0; i < shardList.length && !shardList[i].active; i++){... */\n  iszero\n  tag_45\n  jumpi\n    /* \"contracts/on_chain_manager/Manager.sol\":926:929  i++ */\n  dup1\n  dup1\n  tag_51\n  swap1\n  tag_52\n  jump\t// in\ntag_51:\n  swap2\n  pop\n  pop\n    /* \"contracts/on_chain_manager/Manager.sol\":869:956  for(i = 0; i < shardList.length && !shardList[i].active; i++){... */\n  jump(tag_44)\ntag_45:\n    /* \"contracts/on_chain_manager/Manager.sol\":973:982  shardList */\n  0x02\n    /* \"contracts/on_chain_manager/Manager.sol\":973:989  shardList.length */\n  dup1\n  sload\n  swap1\n  pop\n    /* \"contracts/on_chain_manager/Manager.sol\":969:970  i */\n  dup2\n    /* \"contracts/on_chain_manager/Manager.sol\":969:989  i < shardList.length */\n  0xff\n  and\n  lt\n    /* \"contracts/on_chain_manager/Manager.sol\":966:1334  if(i < shardList.length){... */\n  iszero\n  tag_53\n  jumpi\n    /* \"contracts/on_chain_manager/Manager.sol\":1014:1015  i */\n  dup1\n    /* \"contracts/on_chain_manager/Manager.sol\":1004:1015  shardId = i */\n  swap2\n  pop\n    /* \"contracts/on_chain_manager/Manager.sol\":1041:1050  shardList */\n  0x02\n    /* \"contracts/on_chain_manager/Manager.sol\":1051:1052  i */\n  dup2\n    /* \"contracts/on_chain_manager/Manager.sol\":1041:1053  shardList[i] */\n  0xff\n  and\n  dup2\n  sload\n  dup2\n  lt\n  tag_54\n  jumpi\n  tag_55\n  tag_31\n  jump\t// in\ntag_55:\ntag_54:\n  swap1\n  0x00\n  mstore\n  keccak256(0x00, 0x20)\n  swap1\n  0x03\n  mul\n  add\n    /* \"contracts/on_chain_manager/Manager.sol\":1041:1063  shardList[i].numDeploy */\n  0x02\n  add\n  sload\n    /* \"contracts/on_chain_manager/Manager.sol\":1029:1063  minDeploy = shardList[i].numDeploy */\n  swap3\n  pop\n    /* \"contracts/on_chain_manager/Manager.sol\":1082:1089  uint8 j */\n  0x00\n    /* \"contracts/on_chain_manager/Manager.sol\":1094:1095  1 */\n  0x01\n    /* \"contracts/on_chain_manager/Manager.sol\":1092:1093  i */\n  dup3\n    /* \"contracts/on_chain_manager/Manager.sol\":1092:1095  i+1 */\n  tag_60\n  swap2\n  swap1\n  tag_34\n  jump\t// in\ntag_60:\n    /* \"contracts/on_chain_manager/Manager.sol\":1082:1095  uint8 j = i+1 */\n  swap1\n  pop\n    /* \"contracts/on_chain_manager/Manager.sol\":1078:1324  for(uint8 j = i+1; j < shardList.length; j++){... */\ntag_57:\n    /* \"contracts/on_chain_manager/Manager.sol\":1101:1110  shardList */\n  0x02\n    /* \"contracts/on_chain_manager/Manager.sol\":1101:1117  shardList.length */\n  dup1\n  sload\n  swap1\n  pop\n    /* \"contracts/on_chain_manager/Manager.sol\":1097:1098  j */\n  dup2\n    /* \"contracts/on_chain_manager/Manager.sol\":1097:1117  j < shardList.length */\n  0xff\n  and\n  lt\n    /* \"contracts/on_chain_manager/Manager.sol\":1078:1324  for(uint8 j = i+1; j < shardList.length; j++){... */\n  iszero\n  tag_58\n  jumpi\n    /* \"contracts/on_chain_manager/Manager.sol\":1144:1153  shardList */\n  0x02\n    /* \"contracts/on_chain_manager/Manager.sol\":1154:1155  j */\n  dup2\n    /* \"contracts/on_chain_manager/Manager.sol\":1144:1156  shardList[j] */\n  0xff\n  and\n  dup2\n  sload\n  dup2\n  lt\n  tag_61\n  jumpi\n  tag_62\n  tag_31\n  jump\t// in\ntag_62:\ntag_61:\n  swap1\n  0x00\n  mstore\n  keccak256(0x00, 0x20)\n  swap1\n  0x03\n  mul\n  add\n    /* \"contracts/on_chain_manager/Manager.sol\":1144:1163  shardList[j].active */\n  0x01\n  add\n  0x00\n  swap1\n  sload\n  swap1\n  0x0100\n  exp\n  swap1\n  div\n  0xff\n  and\n    /* \"contracts/on_chain_manager/Manager.sol\":1144:1201  shardList[j].active && shardList[j].numDeploy < minDeploy */\n  dup1\n  iszero\n  tag_64\n  jumpi\n  pop\n    /* \"contracts/on_chain_manager/Manager.sol\":1192:1201  minDeploy */\n  dup4\n    /* \"contracts/on_chain_manager/Manager.sol\":1167:1176  shardList */\n  0x02\n    /* \"contracts/on_chain_manager/Manager.sol\":1177:1178  j */\n  dup3\n    /* \"contracts/on_chain_manager/Manager.sol\":1167:1179  shardList[j] */\n  0xff\n  and\n  dup2\n  sload\n  dup2\n  lt\n  tag_65\n  jumpi\n  tag_66\n  tag_31\n  jump\t// in\ntag_66:\ntag_65:\n  swap1\n  0x00\n  mstore\n  keccak256(0x00, 0x20)\n  swap1\n  0x03\n  mul\n  add\n    /* \"contracts/on_chain_manager/Manager.sol\":1167:1189  shardList[j].numDeploy */\n  0x02\n  add\n  sload\n    /* \"contracts/on_chain_manager/Manager.sol\":1167:1201  shardList[j].numDeploy < minDeploy */\n  lt\n    /* \"contracts/on_chain_manager/Manager.sol\":1144:1201  shardList[j].active && shardList[j].numDeploy < minDeploy */\ntag_64:\n    /* \"contracts/on_chain_manager/Manager.sol\":1141:1310  if(shardList[j].active && shardList[j].numDeploy < minDeploy){... */\n  iszero\n  tag_68\n  jumpi\n    /* \"contracts/on_chain_manager/Manager.sol\":1234:1235  j */\n  dup1\n    /* \"contracts/on_chain_manager/Manager.sol\":1224:1235  shardId = j */\n  swap3\n  pop\n    /* \"contracts/on_chain_manager/Manager.sol\":1269:1278  shardList */\n  0x02\n    /* \"contracts/on_chain_manager/Manager.sol\":1279:1280  j */\n  dup2\n    /* \"contracts/on_chain_manager/Manager.sol\":1269:1281  shardList[j] */\n  0xff\n  and\n  dup2\n  sload\n  dup2\n  lt\n  tag_69\n  jumpi\n  tag_70\n  tag_31\n  jump\t// in\ntag_70:\ntag_69:\n  swap1\n  0x00\n  mstore\n  keccak256(0x00, 0x20)\n  swap1\n  0x03\n  mul\n  add\n    /* \"contracts/on_chain_manager/Manager.sol\":1269:1291  shardList[j].numDeploy */\n  0x02\n  add\n  sload\n    /* \"contracts/on_chain_manager/Manager.sol\":1257:1291  minDeploy = shardList[j].numDeploy */\n  swap4\n  pop\n    /* \"contracts/on_chain_manager/Manager.sol\":1141:1310  if(shardList[j].active && shardList[j].numDeploy < minDeploy){... */\ntag_68:\n    /* \"contracts/on_chain_manager/Manager.sol\":1119:1122  j++ */\n  dup1\n  dup1\n  tag_72\n  swap1\n  tag_52\n  jump\t// in\ntag_72:\n  swap2\n  pop\n  pop\n    /* \"contracts/on_chain_manager/Manager.sol\":1078:1324  for(uint8 j = i+1; j < shardList.length; j++){... */\n  jump(tag_57)\ntag_58:\n  pop\n    /* \"contracts/on_chain_manager/Manager.sol\":966:1334  if(i < shardList.length){... */\ntag_53:\n    /* \"contracts/on_chain_manager/Manager.sol\":1351:1358  shardId */\n  dup2\n    /* \"contracts/on_chain_manager/Manager.sol\":1344:1358  return shardId */\n  swap4\n  pop\n  pop\n  pop\n  pop\n    /* \"contracts/on_chain_manager/Manager.sol\":727:1365  function minDeployAlg() internal view returns(uint8) {... */\n  swap1\n  jump\t// out\n    /* \"#utility.yul\":7:84   */\ntag_73:\n    /* \"#utility.yul\":44:51   */\n  0x00\n    /* \"#utility.yul\":73:78   */\n  dup2\n    /* \"#utility.yul\":62:78   */\n  swap1\n  pop\n    /* \"#utility.yul\":7:84   */\n  swap2\n  swap1\n  pop\n  jump\t// out\n    /* \"#utility.yul\":90:270   */\ntag_74:\n    /* \"#utility.yul\":138:215   */\n  0x4e487b7100000000000000000000000000000000000000000000000000000000\n    /* \"#utility.yul\":135:136   */\n  0x00\n    /* \"#utility.yul\":128:216   */\n  mstore\n    /* \"#utility.yul\":235:239   */\n  0x11\n    /* \"#utility.yul\":232:233   */\n  0x04\n    /* \"#utility.yul\":225:240   */\n  mstore\n    /* \"#utility.yul\":259:263   */\n  0x24\n    /* \"#utility.yul\":256:257   */\n  0x00\n    /* \"#utility.yul\":249:264   */\n  revert\n    /* \"#utility.yul\":276:467   */\ntag_21:\n    /* \"#utility.yul\":316:319   */\n  0x00\n    /* \"#utility.yul\":335:355   */\n  tag_81\n    /* \"#utility.yul\":353:354   */\n  dup3\n    /* \"#utility.yul\":335:355   */\n  tag_73\n  jump\t// in\ntag_81:\n    /* \"#utility.yul\":330:355   */\n  swap2\n  pop\n    /* \"#utility.yul\":369:389   */\n  tag_82\n    /* \"#utility.yul\":387:388   */\n  dup4\n    /* \"#utility.yul\":369:389   */\n  tag_73\n  jump\t// in\ntag_82:\n    /* \"#utility.yul\":364:389   */\n  swap3\n  pop\n    /* \"#utility.yul\":412:413   */\n  dup3\n    /* \"#utility.yul\":409:410   */\n  dup3\n    /* \"#utility.yul\":405:414   */\n  add\n    /* \"#utility.yul\":398:414   */\n  swap1\n  pop\n    /* \"#utility.yul\":433:436   */\n  dup1\n    /* \"#utility.yul\":430:431   */\n  dup3\n    /* \"#utility.yul\":427:437   */\n  gt\n    /* \"#utility.yul\":424:460   */\n  iszero\n  tag_83\n  jumpi\n    /* \"#utility.yul\":440:458   */\n  tag_84\n  tag_74\n  jump\t// in\ntag_84:\n    /* \"#utility.yul\":424:460   */\ntag_83:\n    /* \"#utility.yul\":276:467   */\n  swap3\n  swap2\n  pop\n  pop\n  jump\t// out\n    /* \"#utility.yul\":473:667   */\ntag_23:\n    /* \"#utility.yul\":513:517   */\n  0x00\n    /* \"#utility.yul\":533:553   */\n  tag_86\n    /* \"#utility.yul\":551:552   */\n  dup3\n    /* \"#utility.yul\":533:553   */\n  tag_73\n  jump\t// in\ntag_86:\n    /* \"#utility.yul\":528:553   */\n  swap2\n  pop\n    /* \"#utility.yul\":567:587   */\n  tag_87\n    /* \"#utility.yul\":585:586   */\n  dup4\n    /* \"#utility.yul\":567:587   */\n  tag_73\n  jump\t// in\ntag_87:\n    /* \"#utility.yul\":562:587   */\n  swap3\n  pop\n    /* \"#utility.yul\":611:612   */\n  dup3\n    /* \"#utility.yul\":608:609   */\n  dup3\n    /* \"#utility.yul\":604:613   */\n  sub\n    /* \"#utility.yul\":596:613   */\n  swap1\n  pop\n    /* \"#utility.yul\":635:636   */\n  dup2\n    /* \"#utility.yul\":629:633   */\n  dup2\n    /* \"#utility.yul\":626:637   */\n  gt\n    /* \"#utility.yul\":623:660   */\n  iszero\n  tag_88\n  jumpi\n    /* \"#utility.yul\":640:658   */\n  tag_89\n  tag_74\n  jump\t// in\ntag_89:\n    /* \"#utility.yul\":623:660   */\ntag_88:\n    /* \"#utility.yul\":473:667   */\n  swap3\n  swap2\n  pop\n  pop\n  jump\t// out\n    /* \"#utility.yul\":673:853   */\ntag_75:\n    /* \"#utility.yul\":721:798   */\n  0x4e487b7100000000000000000000000000000000000000000000000000000000\n    /* \"#utility.yul\":718:719   */\n  0x00\n    /* \"#utility.yul\":711:799   */\n  mstore\n    /* \"#utility.yul\":818:822   */\n  0x12\n    /* \"#utility.yul\":815:816   */\n  0x04\n    /* \"#utility.yul\":808:823   */\n  mstore\n    /* \"#utility.yul\":842:846   */\n  0x24\n    /* \"#utility.yul\":839:840   */\n  0x00\n    /* \"#utility.yul\":832:847   */\n  revert\n    /* \"#utility.yul\":859:1035   */\ntag_25:\n    /* \"#utility.yul\":891:892   */\n  0x00\n    /* \"#utility.yul\":908:928   */\n  tag_92\n    /* \"#utility.yul\":926:927   */\n  dup3\n    /* \"#utility.yul\":908:928   */\n  tag_73\n  jump\t// in\ntag_92:\n    /* \"#utility.yul\":903:928   */\n  swap2\n  pop\n    /* \"#utility.yul\":942:962   */\n  tag_93\n    /* \"#utility.yul\":960:961   */\n  dup4\n    /* \"#utility.yul\":942:962   */\n  tag_73\n  jump\t// in\ntag_93:\n    /* \"#utility.yul\":937:962   */\n  swap3\n  pop\n    /* \"#utility.yul\":981:982   */\n  dup3\n    /* \"#utility.yul\":971:1006   */\n  tag_94\n  jumpi\n    /* \"#utility.yul\":986:1004   */\n  tag_95\n  tag_75\n  jump\t// in\ntag_95:\n    /* \"#utility.yul\":971:1006   */\ntag_94:\n    /* \"#utility.yul\":1027:1028   */\n  dup3\n    /* \"#utility.yul\":1024:1025   */\n  dup3\n    /* \"#utility.yul\":1020:1029   */\n  mod\n    /* \"#utility.yul\":1015:1029   */\n  swap1\n  pop\n    /* \"#utility.yul\":859:1035   */\n  swap3\n  swap2\n  pop\n  pop\n  jump\t// out\n    /* \"#utility.yul\":1041:1221   */\ntag_31:\n    /* \"#utility.yul\":1089:1166   */\n  0x4e487b7100000000000000000000000000000000000000000000000000000000\n    /* \"#utility.yul\":1086:1087   */\n  0x00\n    /* \"#utility.yul\":1079:1167   */\n  mstore\n    /* \"#utility.yul\":1186:1190   */\n  0x32\n    /* \"#utility.yul\":1183:1184   */\n  0x04\n    /* \"#utility.yul\":1176:1191   */\n  mstore\n    /* \"#utility.yul\":1210:1214   */\n  0x24\n    /* \"#utility.yul\":1207:1208   */\n  0x00\n    /* \"#utility.yul\":1200:1215   */\n  revert\n    /* \"#utility.yul\":1227:1313   */\ntag_76:\n    /* \"#utility.yul\":1262:1269   */\n  0x00\n    /* \"#utility.yul\":1302:1306   */\n  0xff\n    /* \"#utility.yul\":1295:1300   */\n  dup3\n    /* \"#utility.yul\":1291:1307   */\n  and\n    /* \"#utility.yul\":1280:1307   */\n  swap1\n  pop\n    /* \"#utility.yul\":1227:1313   */\n  swap2\n  swap1\n  pop\n  jump\t// out\n    /* \"#utility.yul\":1319:1507   */\ntag_34:\n    /* \"#utility.yul\":1357:1360   */\n  0x00\n    /* \"#utility.yul\":1376:1394   */\n  tag_99\n    /* \"#utility.yul\":1392:1393   */\n  dup3\n    /* \"#utility.yul\":1376:1394   */\n  tag_76\n  jump\t// in\ntag_99:\n    /* \"#utility.yul\":1371:1394   */\n  swap2\n  pop\n    /* \"#utility.yul\":1408:1426   */\n  tag_100\n    /* \"#utility.yul\":1424:1425   */\n  dup4\n    /* \"#utility.yul\":1408:1426   */\n  tag_76\n  jump\t// in\ntag_100:\n    /* \"#utility.yul\":1403:1426   */\n  swap3\n  pop\n    /* \"#utility.yul\":1449:1450   */\n  dup3\n    /* \"#utility.yul\":1446:1447   */\n  dup3\n    /* \"#utility.yul\":1442:1451   */\n  add\n    /* \"#utility.yul\":1435:1451   */\n  swap1\n  pop\n    /* \"#utility.yul\":1472:1476   */\n  0xff\n    /* \"#utility.yul\":1467:1470   */\n  dup2\n    /* \"#utility.yul\":1464:1477   */\n  gt\n    /* \"#utility.yul\":1461:1500   */\n  iszero\n  tag_101\n  jumpi\n    /* \"#utility.yul\":1480:1498   */\n  tag_102\n  tag_74\n  jump\t// in\ntag_102:\n    /* \"#utility.yul\":1461:1500   */\ntag_101:\n    /* \"#utility.yul\":1319:1507   */\n  swap3\n  swap2\n  pop\n  pop\n  jump\t// out\n    /* \"#utility.yul\":1513:1680   */\ntag_52:\n    /* \"#utility.yul\":1550:1553   */\n  0x00\n    /* \"#utility.yul\":1573:1595   */\n  tag_104\n    /* \"#utility.yul\":1589:1594   */\n  dup3\n    /* \"#utility.yul\":1573:1595   */\n  tag_76\n  jump\t// in\ntag_104:\n    /* \"#utility.yul\":1564:1595   */\n  swap2\n  pop\n    /* \"#utility.yul\":1617:1621   */\n  0xff\n    /* \"#utility.yul\":1610:1615   */\n  dup3\n    /* \"#utility.yul\":1607:1622   */\n  sub\n    /* \"#utility.yul\":1604:1645   */\n  tag_105\n  jumpi\n    /* \"#utility.yul\":1625:1643   */\n  tag_106\n  tag_74\n  jump\t// in\ntag_106:\n    /* \"#utility.yul\":1604:1645   */\ntag_105:\n    /* \"#utility.yul\":1672:1673   */\n  0x01\n    /* \"#utility.yul\":1665:1670   */\n  dup3\n    /* \"#utility.yul\":1661:1674   */\n  add\n    /* \"#utility.yul\":1654:1674   */\n  swap1\n  pop\n    /* \"#utility.yul\":1513:1680   */\n  swap2\n  swap1\n  pop\n  jump\t// out\n    /* \"contracts/on_chain_manager/Manager.sol\":102:1395  contract Manager is AbstractManager{... */\ntag_16:\n  dataSize(sub_0)\n  dup1\n  dataOffset(sub_0)\n  0x00\n  codecopy\n  0x00\n  return\nstop\n\nsub_0: assembly {\n        /* \"contracts/on_chain_manager/Manager.sol\":102:1395  contract Manager is AbstractManager{... */\n      mstore(0x40, 0x80)\n      callvalue\n      dup1\n      iszero\n      tag_1\n      jumpi\n      0x00\n      dup1\n      revert\n    tag_1:\n      pop\n      jumpi(tag_2, lt(calldatasize, 0x04))\n      shr(0xe0, calldataload(0x00))\n      dup1\n      0x8da5cb5b\n      gt\n      tag_18\n      jumpi\n      dup1\n      0xc0981b26\n      gt\n      tag_19\n      jumpi\n      dup1\n      0xc0981b26\n      eq\n      tag_14\n      jumpi\n      dup1\n      0xca989659\n      eq\n      tag_15\n      jumpi\n      dup1\n      0xf2fde38b\n      eq\n      tag_16\n      jumpi\n      dup1\n      0xf335f7ac\n      eq\n      tag_17\n      jumpi\n      jump(tag_2)\n    tag_19:\n      dup1\n      0x8da5cb5b\n      eq\n      tag_10\n      jumpi\n      dup1\n      0x9552bca7\n      eq\n      tag_11\n      jumpi\n      dup1\n      0x98c20543\n      eq\n      tag_12\n      jumpi\n      dup1\n      0xa07ca635\n      eq\n      tag_13\n      jumpi\n      jump(tag_2)\n    tag_18:\n      dup1\n      0x65a88003\n      gt\n      tag_20\n      jumpi\n      dup1\n      0x65a88003\n      eq\n      tag_6\n      jumpi\n      dup1\n      0x715018a6\n      eq\n      tag_7\n      jumpi\n      dup1\n      0x7adbf973\n      eq\n      tag_8\n      jumpi\n      dup1\n      0x8291286c\n      eq\n      tag_9\n      jumpi\n      jump(tag_2)\n    tag_20:\n      dup1\n      0x19b4a0f9\n      eq\n      tag_3\n      jumpi\n      dup1\n      0x608c2db5\n      eq\n      tag_4\n      jumpi\n      dup1\n      0x613eb17d\n      eq\n      tag_5\n      jumpi\n    tag_2:\n      0x00\n      dup1\n      revert\n        /* \"contracts/on_chain_manager/AbstractManager.sol\":4462:5110  function fullfillDeploy(uint256 id, bool result) external oracleInitialized onlyOracle ... */\n    tag_3:\n      tag_21\n      0x04\n      dup1\n      calldatasize\n      sub\n      dup2\n      add\n      swap1\n      tag_22\n      swap2\n      swap1\n      tag_23\n      jump\t// in\n    tag_22:\n      tag_24\n      jump\t// in\n    tag_21:\n      stop\n        /* \"contracts/on_chain_manager/AbstractManager.sol\":995:1020  Shard [] public shardList */\n    tag_4:\n      tag_25\n      0x04\n      dup1\n      calldatasize\n      sub\n      dup2\n      add\n      swap1\n      tag_26\n      swap2\n      swap1\n      tag_27\n      jump\t// in\n    tag_26:\n      tag_28\n      jump\t// in\n    tag_25:\n      mload(0x40)\n      tag_29\n      swap4\n      swap3\n      swap2\n      swap1\n      tag_30\n      jump\t// in\n    tag_29:\n      mload(0x40)\n      dup1\n      swap2\n      sub\n      swap1\n      return\n        /* \"contracts/on_chain_manager/AbstractManager.sol\":911:956  mapping(uint256 => Contract) public deployMap */\n    tag_5:\n      tag_31\n      0x04\n      dup1\n      calldatasize\n      sub\n      dup2\n      add\n      swap1\n      tag_32\n      swap2\n      swap1\n      tag_27\n      jump\t// in\n    tag_32:\n      tag_33\n      jump\t// in\n    tag_31:\n      mload(0x40)\n      tag_34\n      swap7\n      swap6\n      swap5\n      swap4\n      swap3\n      swap2\n      swap1\n      tag_35\n      jump\t// in\n    tag_34:\n      mload(0x40)\n      dup1\n      swap2\n      sub\n      swap1\n      return\n        /* \"contracts/on_chain_manager/AbstractManager.sol\":1682:1960  function addShard(string calldata url, bool active) external onlyOwner maxShards{... */\n    tag_6:\n      tag_36\n      0x04\n      dup1\n      calldatasize\n      sub\n      dup2\n      add\n      swap1\n      tag_37\n      swap2\n      swap1\n      tag_38\n      jump\t// in\n    tag_37:\n      tag_39\n      jump\t// in\n    tag_36:\n      stop\n        /* \"@openzeppelin/contracts/access/Ownable.sol\":1831:1932  function renounceOwnership() public virtual onlyOwner {... */\n    tag_7:\n      tag_40\n      tag_41\n      jump\t// in\n    tag_40:\n      stop\n        /* \"contracts/on_chain_manager/AbstractManager.sol\":1526:1676  function setOracle(address newAddress) external onlyOwner {... */\n    tag_8:\n      tag_42\n      0x04\n      dup1\n      calldatasize\n      sub\n      dup2\n      add\n      swap1\n      tag_43\n      swap2\n      swap1\n      tag_44\n      jump\t// in\n    tag_43:\n      tag_45\n      jump\t// in\n    tag_42:\n      stop\n        /* \"contracts/on_chain_manager/AbstractManager.sol\":1295:1320  uint256 public contractId */\n    tag_9:\n      tag_46\n      tag_47\n      jump\t// in\n    tag_46:\n      mload(0x40)\n      tag_48\n      swap2\n      swap1\n      tag_49\n      jump\t// in\n    tag_48:\n      mload(0x40)\n      dup1\n      swap2\n      sub\n      swap1\n      return\n        /* \"@openzeppelin/contracts/access/Ownable.sol\":1201:1286  function owner() public view virtual returns (address) {... */\n    tag_10:\n      tag_50\n      tag_51\n      jump\t// in\n    tag_50:\n      mload(0x40)\n      tag_52\n      swap2\n      swap1\n      tag_53\n      jump\t// in\n    tag_52:\n      mload(0x40)\n      dup1\n      swap2\n      sub\n      swap1\n      return\n        /* \"contracts/on_chain_manager/AbstractManager.sol\":3947:4391  function declareDel(uint256 id) external oracleInitialized checkDeployReserver(id)... */\n    tag_11:\n      tag_54\n      0x04\n      dup1\n      calldatasize\n      sub\n      dup2\n      add\n      swap1\n      tag_55\n      swap2\n      swap1\n      tag_27\n      jump\t// in\n    tag_55:\n      tag_56\n      jump\t// in\n    tag_54:\n      stop\n        /* \"contracts/on_chain_manager/AbstractManager.sol\":1994:2135  function setAlg(uint8 newAlg) external onlyOwner algExists(newAlg){... */\n    tag_12:\n      tag_57\n      0x04\n      dup1\n      calldatasize\n      sub\n      dup2\n      add\n      swap1\n      tag_58\n      swap2\n      swap1\n      tag_59\n      jump\t// in\n    tag_58:\n      tag_60\n      jump\t// in\n    tag_57:\n      stop\n        /* \"contracts/on_chain_manager/AbstractManager.sol\":5187:5765  function fullfillDelete(uint256 id, bool result) external oracleInitialized onlyOracle ... */\n    tag_13:\n      tag_61\n      0x04\n      dup1\n      calldatasize\n      sub\n      dup2\n      add\n      swap1\n      tag_62\n      swap2\n      swap1\n      tag_23\n      jump\t// in\n    tag_62:\n      tag_63\n      jump\t// in\n    tag_61:\n      stop\n        /* \"contracts/on_chain_manager/AbstractManager.sol\":3350:3911  function declareDeploy(uint256 id, bytes20 addr, string calldata name) external oracleInitialized checkDeployReserver(id)... */\n    tag_14:\n      tag_64\n      0x04\n      dup1\n      calldatasize\n      sub\n      dup2\n      add\n      swap1\n      tag_65\n      swap2\n      swap1\n      tag_66\n      jump\t// in\n    tag_65:\n      tag_67\n      jump\t// in\n    tag_64:\n      stop\n        /* \"contracts/on_chain_manager/AbstractManager.sol\":2728:3319  function reserveDeploy() external atLeastOneShard returns(uint256, string memory){... */\n    tag_15:\n      tag_68\n      tag_69\n      jump\t// in\n    tag_68:\n      mload(0x40)\n      tag_70\n      swap3\n      swap2\n      swap1\n      tag_71\n      jump\t// in\n    tag_70:\n      mload(0x40)\n      dup1\n      swap2\n      sub\n      swap1\n      return\n        /* \"@openzeppelin/contracts/access/Ownable.sol\":2081:2279  function transferOwnership(address newOwner) public virtual onlyOwner {... */\n    tag_16:\n      tag_72\n      0x04\n      dup1\n      calldatasize\n      sub\n      dup2\n      add\n      swap1\n      tag_73\n      swap2\n      swap1\n      tag_44\n      jump\t// in\n    tag_73:\n      tag_74\n      jump\t// in\n    tag_72:\n      stop\n        /* \"contracts/on_chain_manager/AbstractManager.sol\":2166:2309  function setShardStatus(uint8 shardId, bool status) external onlyOwner shardExists(shardId) {... */\n    tag_17:\n      tag_75\n      0x04\n      dup1\n      calldatasize\n      sub\n      dup2\n      add\n      swap1\n      tag_76\n      swap2\n      swap1\n      tag_77\n      jump\t// in\n    tag_76:\n      tag_78\n      jump\t// in\n    tag_75:\n      stop\n        /* \"contracts/on_chain_manager/AbstractManager.sol\":4462:5110  function fullfillDeploy(uint256 id, bool result) external oracleInitialized onlyOracle ... */\n    tag_24:\n        /* \"contracts/on_chain_manager/AbstractManager.sol\":6452:6453  0 */\n      0x00\n        /* \"contracts/on_chain_manager/AbstractManager.sol\":6419:6455  oracle != AbstractOracle(address(0)) */\n      0xffffffffffffffffffffffffffffffffffffffff\n      and\n        /* \"contracts/on_chain_manager/AbstractManager.sol\":6419:6425  oracle */\n      0x05\n      0x00\n      swap1\n      sload\n      swap1\n      0x0100\n      exp\n      swap1\n      div\n      0xffffffffffffffffffffffffffffffffffffffff\n      and\n        /* \"contracts/on_chain_manager/AbstractManager.sol\":6419:6455  oracle != AbstractOracle(address(0)) */\n      0xffffffffffffffffffffffffffffffffffffffff\n      and\n      sub\n        /* \"contracts/on_chain_manager/AbstractManager.sol\":6411:6482  require(oracle != AbstractOracle(address(0)), \"Oracle not initialized\") */\n      tag_82\n      jumpi\n      mload(0x40)\n      0x08c379a000000000000000000000000000000000000000000000000000000000\n      dup2\n      mstore\n      0x04\n      add\n      tag_83\n      swap1\n      tag_84\n      jump\t// in\n    tag_83:\n      mload(0x40)\n      dup1\n      swap2\n      sub\n      swap1\n      revert\n    tag_82:\n        /* \"contracts/on_chain_manager/AbstractManager.sol\":5937:5943  oracle */\n      0x05\n      0x00\n      swap1\n      sload\n      swap1\n      0x0100\n      exp\n      swap1\n      div\n      0xffffffffffffffffffffffffffffffffffffffff\n      and\n        /* \"contracts/on_chain_manager/AbstractManager.sol\":5915:5944  msg.sender == address(oracle) */\n      0xffffffffffffffffffffffffffffffffffffffff\n      and\n        /* \"contracts/on_chain_manager/AbstractManager.sol\":5915:5925  msg.sender */\n      caller\n        /* \"contracts/on_chain_manager/AbstractManager.sol\":5915:5944  msg.sender == address(oracle) */\n      0xffffffffffffffffffffffffffffffffffffffff\n      and\n      eq\n        /* \"contracts/on_chain_manager/AbstractManager.sol\":5907:5969  require(msg.sender == address(oracle), \"Caller is not oracle\") */\n      tag_86\n      jumpi\n      mload(0x40)\n      0x08c379a000000000000000000000000000000000000000000000000000000000\n      dup2\n      mstore\n      0x04\n      add\n      tag_87\n      swap1\n      tag_88\n      jump\t// in\n    tag_87:\n      mload(0x40)\n      dup1\n      swap2\n      sub\n      swap1\n      revert\n    tag_86:\n        /* \"contracts/on_chain_manager/AbstractManager.sol\":4580:4582  id */\n      dup2\n        /* \"contracts/on_chain_manager/AbstractManager.sol\":4583:4604  Status.PENDING_DEPLOY */\n      0x02\n        /* \"contracts/on_chain_manager/AbstractManager.sol\":6320:6326  status */\n      dup1\n        /* \"contracts/on_chain_manager/AbstractManager.sol\":6296:6326  deployMap[id].status == status */\n      0x04\n      dup2\n      gt\n      iszero\n      tag_90\n      jumpi\n      tag_91\n      tag_92\n      jump\t// in\n    tag_91:\n    tag_90:\n        /* \"contracts/on_chain_manager/AbstractManager.sol\":6296:6305  deployMap */\n      0x01\n        /* \"contracts/on_chain_manager/AbstractManager.sol\":6296:6309  deployMap[id] */\n      0x00\n        /* \"contracts/on_chain_manager/AbstractManager.sol\":6306:6308  id */\n      dup5\n        /* \"contracts/on_chain_manager/AbstractManager.sol\":6296:6309  deployMap[id] */\n      dup2\n      mstore\n      0x20\n      add\n      swap1\n      dup2\n      mstore\n      0x20\n      add\n      0x00\n      keccak256\n        /* \"contracts/on_chain_manager/AbstractManager.sol\":6296:6316  deployMap[id].status */\n      0x04\n      add\n      0x00\n      swap1\n      sload\n      swap1\n      0x0100\n      exp\n      swap1\n      div\n      0xff\n      and\n        /* \"contracts/on_chain_manager/AbstractManager.sol\":6296:6326  deployMap[id].status == status */\n      0x04\n      dup2\n      gt\n      iszero\n      tag_93\n      jumpi\n      tag_94\n      tag_92\n      jump\t// in\n    tag_94:\n    tag_93:\n      eq\n        /* \"contracts/on_chain_manager/AbstractManager.sol\":6288:6349  require(deployMap[id].status == status, \"Deploy state error\") */\n      tag_95\n      jumpi\n      mload(0x40)\n      0x08c379a000000000000000000000000000000000000000000000000000000000\n      dup2\n      mstore\n      0x04\n      add\n      tag_96\n      swap1\n      tag_97\n      jump\t// in\n    tag_96:\n      mload(0x40)\n      dup1\n      swap2\n      sub\n      swap1\n      revert\n    tag_95:\n        /* \"contracts/on_chain_manager/AbstractManager.sol\":4616:4629  uint8 shardId */\n      0x00\n        /* \"contracts/on_chain_manager/AbstractManager.sol\":4631:4650  string memory shard */\n      dup1\n        /* \"contracts/on_chain_manager/AbstractManager.sol\":4652:4664  bytes20 addr */\n      0x00\n        /* \"contracts/on_chain_manager/AbstractManager.sol\":4666:4684  string memory name */\n      dup1\n        /* \"contracts/on_chain_manager/AbstractManager.sol\":4688:4709  getInfoByDeployId(id) */\n      tag_99\n        /* \"contracts/on_chain_manager/AbstractManager.sol\":4706:4708  id */\n      dup9\n        /* \"contracts/on_chain_manager/AbstractManager.sol\":4688:4705  getInfoByDeployId */\n      tag_100\n        /* \"contracts/on_chain_manager/AbstractManager.sol\":4688:4709  getInfoByDeployId(id) */\n      jump\t// in\n    tag_99:\n        /* \"contracts/on_chain_manager/AbstractManager.sol\":4615:4709  (uint8 shardId, string memory shard, bytes20 addr, string memory name) = getInfoByDeployId(id) */\n      swap4\n      pop\n      swap4\n      pop\n      swap4\n      pop\n      swap4\n      pop\n        /* \"contracts/on_chain_manager/AbstractManager.sol\":4722:4728  result */\n      dup7\n        /* \"contracts/on_chain_manager/AbstractManager.sol\":4719:5104  if(result){... */\n      iszero\n      tag_101\n      jumpi\n        /* \"contracts/on_chain_manager/AbstractManager.sol\":4766:4781  Status.DEPLOYED */\n      0x03\n        /* \"contracts/on_chain_manager/AbstractManager.sol\":4743:4752  deployMap */\n      0x01\n        /* \"contracts/on_chain_manager/AbstractManager.sol\":4743:4756  deployMap[id] */\n      0x00\n        /* \"contracts/on_chain_manager/AbstractManager.sol\":4753:4755  id */\n      dup11\n        /* \"contracts/on_chain_manager/AbstractManager.sol\":4743:4756  deployMap[id] */\n      dup2\n      mstore\n      0x20\n      add\n      swap1\n      dup2\n      mstore\n      0x20\n      add\n      0x00\n      keccak256\n        /* \"contracts/on_chain_manager/AbstractManager.sol\":4743:4763  deployMap[id].status */\n      0x04\n      add\n      0x00\n        /* \"contracts/on_chain_manager/AbstractManager.sol\":4743:4781  deployMap[id].status = Status.DEPLOYED */\n      0x0100\n      exp\n      dup2\n      sload\n      dup2\n      0xff\n      mul\n      not\n      and\n      swap1\n      dup4\n      0x04\n      dup2\n      gt\n      iszero\n      tag_102\n      jumpi\n      tag_103\n      tag_92\n      jump\t// in\n    tag_103:\n    tag_102:\n      mul\n      or\n      swap1\n      sstore\n      pop\n        /* \"contracts/on_chain_manager/AbstractManager.sol\":4800:4847  DeployConfirmed(id, shardId, shard, addr, name) */\n      0xfc0e41f3f5d509cf16934162c0fb5020db934ae90a7498d8b479568589ffccd1\n        /* \"contracts/on_chain_manager/AbstractManager.sol\":4816:4818  id */\n      dup9\n        /* \"contracts/on_chain_manager/AbstractManager.sol\":4820:4827  shardId */\n      dup6\n        /* \"contracts/on_chain_manager/AbstractManager.sol\":4829:4834  shard */\n      dup6\n        /* \"contracts/on_chain_manager/AbstractManager.sol\":4836:4840  addr */\n      dup6\n        /* \"contracts/on_chain_manager/AbstractManager.sol\":4842:4846  name */\n      dup6\n        /* \"contracts/on_chain_manager/AbstractManager.sol\":4800:4847  DeployConfirmed(id, shardId, shard, addr, name) */\n      mload(0x40)\n      tag_104\n      swap6\n      swap5\n      swap4\n      swap3\n      swap2\n      swap1\n      tag_105\n      jump\t// in\n    tag_104:\n      mload(0x40)\n      dup1\n      swap2\n      sub\n      swap1\n      log1\n        /* \"contracts/on_chain_manager/AbstractManager.sol\":4719:5104  if(result){... */\n      jump(tag_106)\n    tag_101:\n        /* \"contracts/on_chain_manager/AbstractManager.sol\":4892:4901  deployMap */\n      0x01\n        /* \"contracts/on_chain_manager/AbstractManager.sol\":4892:4905  deployMap[id] */\n      0x00\n        /* \"contracts/on_chain_manager/AbstractManager.sol\":4902:4904  id */\n      dup10\n        /* \"contracts/on_chain_manager/AbstractManager.sol\":4892:4905  deployMap[id] */\n      dup2\n      mstore\n      0x20\n      add\n      swap1\n      dup2\n      mstore\n      0x20\n      add\n      0x00\n      keccak256\n      0x00\n        /* \"contracts/on_chain_manager/AbstractManager.sol\":4885:4905  delete deployMap[id] */\n      dup1\n      dup3\n      add\n      exp(0x0100, 0x00)\n      dup2\n      sload\n      swap1\n      0xff\n      mul\n      not\n      and\n      swap1\n      sstore\n      0x00\n      dup3\n      add\n      exp(0x0100, 0x01)\n      dup2\n      sload\n      swap1\n      0xffffffffffffffffffffffffffffffffffffffff\n      mul\n      not\n      and\n      swap1\n      sstore\n      0x01\n      dup3\n      add\n      0x00\n      tag_107\n      swap2\n      swap1\n      tag_108\n      jump\t// in\n    tag_107:\n      0x02\n      dup3\n      add\n      exp(0x0100, 0x00)\n      dup2\n      sload\n      swap1\n      0xffffffffffffffffffffffffffffffffffffffff\n      mul\n      not\n      and\n      swap1\n      sstore\n      0x03\n      dup3\n      add\n      0x00\n      swap1\n      sstore\n      0x04\n      dup3\n      add\n      exp(0x0100, 0x00)\n      dup2\n      sload\n      swap1\n      0xff\n      mul\n      not\n      and\n      swap1\n      sstore\n      pop\n      pop\n        /* \"contracts/on_chain_manager/AbstractManager.sol\":4994:5003  shardList */\n      0x02\n        /* \"contracts/on_chain_manager/AbstractManager.sol\":5004:5011  shardId */\n      dup5\n        /* \"contracts/on_chain_manager/AbstractManager.sol\":4994:5012  shardList[shardId] */\n      0xff\n      and\n      dup2\n      sload\n      dup2\n      lt\n      tag_109\n      jumpi\n      tag_110\n      tag_111\n      jump\t// in\n    tag_110:\n    tag_109:\n      swap1\n      0x00\n      mstore\n      keccak256(0x00, 0x20)\n      swap1\n      0x03\n      mul\n      add\n        /* \"contracts/on_chain_manager/AbstractManager.sol\":4994:5022  shardList[shardId].numDeploy */\n      0x02\n      add\n      0x00\n        /* \"contracts/on_chain_manager/AbstractManager.sol\":4994:5024  shardList[shardId].numDeploy-- */\n      dup2\n      sload\n      dup1\n      swap3\n      swap2\n      swap1\n      tag_113\n      swap1\n      tag_114\n      jump\t// in\n    tag_113:\n      swap2\n      swap1\n      pop\n      sstore\n      pop\n        /* \"contracts/on_chain_manager/AbstractManager.sol\":5043:5093  DeployNotConfirmed(id, shardId, shard, addr, name) */\n      0x018740aef37e3c4899e9f4d59558109dd1e1dbeb955703c419beebde38696517\n        /* \"contracts/on_chain_manager/AbstractManager.sol\":5062:5064  id */\n      dup9\n        /* \"contracts/on_chain_manager/AbstractManager.sol\":5066:5073  shardId */\n      dup6\n        /* \"contracts/on_chain_manager/AbstractManager.sol\":5075:5080  shard */\n      dup6\n        /* \"contracts/on_chain_manager/AbstractManager.sol\":5082:5086  addr */\n      dup6\n        /* \"contracts/on_chain_manager/AbstractManager.sol\":5088:5092  name */\n      dup6\n        /* \"contracts/on_chain_manager/AbstractManager.sol\":5043:5093  DeployNotConfirmed(id, shardId, shard, addr, name) */\n      mload(0x40)\n      tag_115\n      swap6\n      swap5\n      swap4\n      swap3\n      swap2\n      swap1\n      tag_105\n      jump\t// in\n    tag_115:\n      mload(0x40)\n      dup1\n      swap2\n      sub\n      swap1\n      log1\n        /* \"contracts/on_chain_manager/AbstractManager.sol\":4719:5104  if(result){... */\n    tag_106:\n        /* \"contracts/on_chain_manager/AbstractManager.sol\":4605:5110  {... */\n      pop\n      pop\n      pop\n      pop\n        /* \"contracts/on_chain_manager/AbstractManager.sol\":5979:5980  _ */\n      pop\n      pop\n        /* \"contracts/on_chain_manager/AbstractManager.sol\":4462:5110  function fullfillDeploy(uint256 id, bool result) external oracleInitialized onlyOracle ... */\n      pop\n      pop\n      jump\t// out\n        /* \"contracts/on_chain_manager/AbstractManager.sol\":995:1020  Shard [] public shardList */\n    tag_28:\n      0x02\n      dup2\n      dup2\n      sload\n      dup2\n      lt\n      tag_116\n      jumpi\n      0x00\n      dup1\n      revert\n    tag_116:\n      swap1\n      0x00\n      mstore\n      keccak256(0x00, 0x20)\n      swap1\n      0x03\n      mul\n      add\n      0x00\n      swap2\n      pop\n      swap1\n      pop\n      dup1\n      0x00\n      add\n      dup1\n      sload\n      tag_118\n      swap1\n      tag_119\n      jump\t// in\n    tag_118:\n      dup1\n      0x1f\n      add\n      0x20\n      dup1\n      swap2\n      div\n      mul\n      0x20\n      add\n      mload(0x40)\n      swap1\n      dup2\n      add\n      0x40\n      mstore\n      dup1\n      swap3\n      swap2\n      swap1\n      dup2\n      dup2\n      mstore\n      0x20\n      add\n      dup3\n      dup1\n      sload\n      tag_120\n      swap1\n      tag_119\n      jump\t// in\n    tag_120:\n      dup1\n      iszero\n      tag_121\n      jumpi\n      dup1\n      0x1f\n      lt\n      tag_122\n      jumpi\n      0x0100\n      dup1\n      dup4\n      sload\n      div\n      mul\n      dup4\n      mstore\n      swap2\n      0x20\n      add\n      swap2\n      jump(tag_121)\n    tag_122:\n      dup3\n      add\n      swap2\n      swap1\n      0x00\n      mstore\n      keccak256(0x00, 0x20)\n      swap1\n    tag_123:\n      dup2\n      sload\n      dup2\n      mstore\n      swap1\n      0x01\n      add\n      swap1\n      0x20\n      add\n      dup1\n      dup4\n      gt\n      tag_123\n      jumpi\n      dup3\n      swap1\n      sub\n      0x1f\n      and\n      dup3\n      add\n      swap2\n    tag_121:\n      pop\n      pop\n      pop\n      pop\n      pop\n      swap1\n      dup1\n      0x01\n      add\n      0x00\n      swap1\n      sload\n      swap1\n      0x0100\n      exp\n      swap1\n      div\n      0xff\n      and\n      swap1\n      dup1\n      0x02\n      add\n      sload\n      swap1\n      pop\n      dup4\n      jump\t// out\n        /* \"contracts/on_chain_manager/AbstractManager.sol\":911:956  mapping(uint256 => Contract) public deployMap */\n    tag_33:\n      mstore(0x20, 0x01)\n      dup1\n      0x00\n      mstore\n      keccak256(0x00, 0x40)\n      0x00\n      swap2\n      pop\n      swap1\n      pop\n      dup1\n      0x00\n      add\n      0x00\n      swap1\n      sload\n      swap1\n      0x0100\n      exp\n      swap1\n      div\n      0xff\n      and\n      swap1\n      dup1\n      0x00\n      add\n      0x01\n      swap1\n      sload\n      swap1\n      0x0100\n      exp\n      swap1\n      div\n      0x60\n      shl\n      swap1\n      dup1\n      0x01\n      add\n      dup1\n      sload\n      tag_124\n      swap1\n      tag_119\n      jump\t// in\n    tag_124:\n      dup1\n      0x1f\n      add\n      0x20\n      dup1\n      swap2\n      div\n      mul\n      0x20\n      add\n      mload(0x40)\n      swap1\n      dup2\n      add\n      0x40\n      mstore\n      dup1\n      swap3\n      swap2\n      swap1\n      dup2\n      dup2\n      mstore\n      0x20\n      add\n      dup3\n      dup1\n      sload\n      tag_125\n      swap1\n      tag_119\n      jump\t// in\n    tag_125:\n      dup1\n      iszero\n      tag_126\n      jumpi\n      dup1\n      0x1f\n      lt\n      tag_127\n      jumpi\n      0x0100\n      dup1\n      dup4\n      sload\n      div\n      mul\n      dup4\n      mstore\n      swap2\n      0x20\n      add\n      swap2\n      jump(tag_126)\n    tag_127:\n      dup3\n      add\n      swap2\n      swap1\n      0x00\n      mstore\n      keccak256(0x00, 0x20)\n      swap1\n    tag_128:\n      dup2\n      sload\n      dup2\n      mstore\n      swap1\n      0x01\n      add\n      swap1\n      0x20\n      add\n      dup1\n      dup4\n      gt\n      tag_128\n      jumpi\n      dup3\n      swap1\n      sub\n      0x1f\n      and\n      dup3\n      add\n      swap2\n    tag_126:\n      pop\n      pop\n      pop\n      pop\n      pop\n      swap1\n      dup1\n      0x02\n      add\n      0x00\n      swap1\n      sload\n      swap1\n      0x0100\n      exp\n      swap1\n      div\n      0xffffffffffffffffffffffffffffffffffffffff\n      and\n      swap1\n      dup1\n      0x03\n      add\n      sload\n      swap1\n      dup1\n      0x04\n      add\n      0x00\n      swap1\n      sload\n      swap1\n      0x0100\n      exp\n      swap1\n      div\n      0xff\n      and\n      swap1\n      pop\n      dup7\n      jump\t// out\n        /* \"contracts/on_chain_manager/AbstractManager.sol\":1682:1960  function addShard(string calldata url, bool active) external onlyOwner maxShards{... */\n    tag_39:\n        /* \"@openzeppelin/contracts/access/Ownable.sol\":1094:1107  _checkOwner() */\n      tag_130\n        /* \"@openzeppelin/contracts/access/Ownable.sol\":1094:1105  _checkOwner */\n      tag_131\n        /* \"@openzeppelin/contracts/access/Ownable.sol\":1094:1107  _checkOwner() */\n      jump\t// in\n    tag_130:\n        /* \"contracts/on_chain_manager/AbstractManager.sol\":6163:6171  maxShard */\n      0x07\n      0x00\n      swap1\n      sload\n      swap1\n      0x0100\n      exp\n      swap1\n      div\n      0xff\n      and\n        /* \"contracts/on_chain_manager/AbstractManager.sol\":6143:6171  shardList.length <= maxShard */\n      0xff\n      and\n        /* \"contracts/on_chain_manager/AbstractManager.sol\":6143:6152  shardList */\n      0x02\n        /* \"contracts/on_chain_manager/AbstractManager.sol\":6143:6159  shardList.length */\n      dup1\n      sload\n      swap1\n      pop\n        /* \"contracts/on_chain_manager/AbstractManager.sol\":6143:6171  shardList.length <= maxShard */\n      gt\n      iszero\n        /* \"contracts/on_chain_manager/AbstractManager.sol\":6135:6202  require(shardList.length <= maxShard, \"No more shard can be added\") */\n      tag_133\n      jumpi\n      mload(0x40)\n      0x08c379a000000000000000000000000000000000000000000000000000000000\n      dup2\n      mstore\n      0x04\n      add\n      tag_134\n      swap1\n      tag_135\n      jump\t// in\n    tag_134:\n      mload(0x40)\n      dup1\n      swap2\n      sub\n      swap1\n      revert\n    tag_133:\n        /* \"contracts/on_chain_manager/AbstractManager.sol\":1824:1833  shardList */\n      0x02\n        /* \"contracts/on_chain_manager/AbstractManager.sol\":1839:1860  Shard(url, active, 0) */\n      mload(0x40)\n      dup1\n      0x60\n      add\n      0x40\n      mstore\n      dup1\n        /* \"contracts/on_chain_manager/AbstractManager.sol\":1845:1848  url */\n      dup6\n      dup6\n        /* \"contracts/on_chain_manager/AbstractManager.sol\":1839:1860  Shard(url, active, 0) */\n      dup1\n      dup1\n      0x1f\n      add\n      0x20\n      dup1\n      swap2\n      div\n      mul\n      0x20\n      add\n      mload(0x40)\n      swap1\n      dup2\n      add\n      0x40\n      mstore\n      dup1\n      swap4\n      swap3\n      swap2\n      swap1\n      dup2\n      dup2\n      mstore\n      0x20\n      add\n      dup4\n      dup4\n      dup1\n      dup3\n      dup5\n      calldatacopy\n      0x00\n      dup2\n      dup5\n      add\n      mstore\n      not(0x1f)\n      0x1f\n      dup3\n      add\n      and\n      swap1\n      pop\n      dup1\n      dup4\n      add\n      swap3\n      pop\n      pop\n      pop\n      pop\n      pop\n      pop\n      pop\n      dup2\n      mstore\n      0x20\n      add\n        /* \"contracts/on_chain_manager/AbstractManager.sol\":1850:1856  active */\n      dup4\n        /* \"contracts/on_chain_manager/AbstractManager.sol\":1839:1860  Shard(url, active, 0) */\n      iszero\n      iszero\n      dup2\n      mstore\n      0x20\n      add\n        /* \"contracts/on_chain_manager/AbstractManager.sol\":1858:1859  0 */\n      0x00\n        /* \"contracts/on_chain_manager/AbstractManager.sol\":1839:1860  Shard(url, active, 0) */\n      dup2\n      mstore\n      pop\n        /* \"contracts/on_chain_manager/AbstractManager.sol\":1824:1861  shardList.push(Shard(url, active, 0)) */\n      swap1\n      dup1\n      0x01\n      dup2\n      sload\n      add\n      dup1\n      dup3\n      sstore\n      dup1\n      swap2\n      pop\n      pop\n      0x01\n      swap1\n      sub\n      swap1\n      0x00\n      mstore\n      keccak256(0x00, 0x20)\n      swap1\n      0x03\n      mul\n      add\n      0x00\n      swap1\n      swap2\n      swap1\n      swap2\n      swap1\n      swap2\n      pop\n      0x00\n      dup3\n      add\n      mload\n      dup2\n      0x00\n      add\n      swap1\n      dup2\n      tag_138\n      swap2\n      swap1\n      tag_139\n      jump\t// in\n    tag_138:\n      pop\n      0x20\n      dup3\n      add\n      mload\n      dup2\n      0x01\n      add\n      exp(0x0100, 0x00)\n      dup2\n      sload\n      dup2\n      0xff\n      mul\n      not\n      and\n      swap1\n      dup4\n      iszero\n      iszero\n      mul\n      or\n      swap1\n      sstore\n      pop\n      0x40\n      dup3\n      add\n      mload\n      dup2\n      0x02\n      add\n      sstore\n      pop\n      pop\n        /* \"contracts/on_chain_manager/AbstractManager.sol\":1871:1884  uint8 shardId */\n      0x00\n        /* \"contracts/on_chain_manager/AbstractManager.sol\":1912:1913  1 */\n      0x01\n        /* \"contracts/on_chain_manager/AbstractManager.sol\":1893:1902  shardList */\n      0x02\n        /* \"contracts/on_chain_manager/AbstractManager.sol\":1893:1909  shardList.length */\n      dup1\n      sload\n      swap1\n      pop\n        /* \"contracts/on_chain_manager/AbstractManager.sol\":1893:1913  shardList.length - 1 */\n      tag_140\n      swap2\n      swap1\n      tag_141\n      jump\t// in\n    tag_140:\n        /* \"contracts/on_chain_manager/AbstractManager.sol\":1871:1914  uint8 shardId = uint8(shardList.length - 1) */\n      swap1\n      pop\n        /* \"contracts/on_chain_manager/AbstractManager.sol\":1930:1953  ShardAdded(shardId,url) */\n      0x1def1861d5991921dae7e9520a9201fc401ee5942e01cb2ccffb1bc0c3f0d0c6\n        /* \"contracts/on_chain_manager/AbstractManager.sol\":1941:1948  shardId */\n      dup2\n        /* \"contracts/on_chain_manager/AbstractManager.sol\":1949:1952  url */\n      dup6\n      dup6\n        /* \"contracts/on_chain_manager/AbstractManager.sol\":1930:1953  ShardAdded(shardId,url) */\n      mload(0x40)\n      tag_142\n      swap4\n      swap3\n      swap2\n      swap1\n      tag_143\n      jump\t// in\n    tag_142:\n      mload(0x40)\n      dup1\n      swap2\n      sub\n      swap1\n      log1\n        /* \"contracts/on_chain_manager/AbstractManager.sol\":1762:1960  {... */\n      pop\n        /* \"contracts/on_chain_manager/AbstractManager.sol\":1682:1960  function addShard(string calldata url, bool active) external onlyOwner maxShards{... */\n      pop\n      pop\n      pop\n      jump\t// out\n        /* \"@openzeppelin/contracts/access/Ownable.sol\":1831:1932  function renounceOwnership() public virtual onlyOwner {... */\n    tag_41:\n        /* \"@openzeppelin/contracts/access/Ownable.sol\":1094:1107  _checkOwner() */\n      tag_145\n        /* \"@openzeppelin/contracts/access/Ownable.sol\":1094:1105  _checkOwner */\n      tag_131\n        /* \"@openzeppelin/contracts/access/Ownable.sol\":1094:1107  _checkOwner() */\n      jump\t// in\n    tag_145:\n        /* \"@openzeppelin/contracts/access/Ownable.sol\":1895:1925  _transferOwnership(address(0)) */\n      tag_147\n        /* \"@openzeppelin/contracts/access/Ownable.sol\":1922:1923  0 */\n      0x00\n        /* \"@openzeppelin/contracts/access/Ownable.sol\":1895:1913  _transferOwnership */\n      tag_148\n        /* \"@openzeppelin/contracts/access/Ownable.sol\":1895:1925  _transferOwnership(address(0)) */\n      jump\t// in\n    tag_147:\n        /* \"@openzeppelin/contracts/access/Ownable.sol\":1831:1932  function renounceOwnership() public virtual onlyOwner {... */\n      jump\t// out\n        /* \"contracts/on_chain_manager/AbstractManager.sol\":1526:1676  function setOracle(address newAddress) external onlyOwner {... */\n    tag_45:\n        /* \"@openzeppelin/contracts/access/Ownable.sol\":1094:1107  _checkOwner() */\n      tag_150\n        /* \"@openzeppelin/contracts/access/Ownable.sol\":1094:1105  _checkOwner */\n      tag_131\n        /* \"@openzeppelin/contracts/access/Ownable.sol\":1094:1107  _checkOwner() */\n      jump\t// in\n    tag_150:\n        /* \"contracts/on_chain_manager/AbstractManager.sol\":1618:1628  newAddress */\n      dup1\n        /* \"contracts/on_chain_manager/AbstractManager.sol\":1594:1600  oracle */\n      0x05\n      0x00\n        /* \"contracts/on_chain_manager/AbstractManager.sol\":1594:1629  oracle = AbstractOracle(newAddress) */\n      0x0100\n      exp\n      dup2\n      sload\n      dup2\n      0xffffffffffffffffffffffffffffffffffffffff\n      mul\n      not\n      and\n      swap1\n      dup4\n      0xffffffffffffffffffffffffffffffffffffffff\n      and\n      mul\n      or\n      swap1\n      sstore\n      pop\n        /* \"contracts/on_chain_manager/AbstractManager.sol\":1644:1669  ChangedOracle(newAddress) */\n      0x807dc19e171652591d023395bfc818727564b07291b9e0b9de995c9138d179f1\n        /* \"contracts/on_chain_manager/AbstractManager.sol\":1658:1668  newAddress */\n      dup2\n        /* \"contracts/on_chain_manager/AbstractManager.sol\":1644:1669  ChangedOracle(newAddress) */\n      mload(0x40)\n      tag_152\n      swap2\n      swap1\n      tag_53\n      jump\t// in\n    tag_152:\n      mload(0x40)\n      dup1\n      swap2\n      sub\n      swap1\n      log1\n        /* \"contracts/on_chain_manager/AbstractManager.sol\":1526:1676  function setOracle(address newAddress) external onlyOwner {... */\n      pop\n      jump\t// out\n        /* \"contracts/on_chain_manager/AbstractManager.sol\":1295:1320  uint256 public contractId */\n    tag_47:\n      sload(0x06)\n      dup2\n      jump\t// out\n        /* \"@openzeppelin/contracts/access/Ownable.sol\":1201:1286  function owner() public view virtual returns (address) {... */\n    tag_51:\n        /* \"@openzeppelin/contracts/access/Ownable.sol\":1247:1254  address */\n      0x00\n        /* \"@openzeppelin/contracts/access/Ownable.sol\":1273:1279  _owner */\n      dup1\n      0x00\n      swap1\n      sload\n      swap1\n      0x0100\n      exp\n      swap1\n      div\n      0xffffffffffffffffffffffffffffffffffffffff\n      and\n        /* \"@openzeppelin/contracts/access/Ownable.sol\":1266:1279  return _owner */\n      swap1\n      pop\n        /* \"@openzeppelin/contracts/access/Ownable.sol\":1201:1286  function owner() public view virtual returns (address) {... */\n      swap1\n      jump\t// out\n        /* \"contracts/on_chain_manager/AbstractManager.sol\":3947:4391  function declareDel(uint256 id) external oracleInitialized checkDeployReserver(id)... */\n    tag_56:\n        /* \"contracts/on_chain_manager/AbstractManager.sol\":6452:6453  0 */\n      0x00\n        /* \"contracts/on_chain_manager/AbstractManager.sol\":6419:6455  oracle != AbstractOracle(address(0)) */\n      0xffffffffffffffffffffffffffffffffffffffff\n      and\n        /* \"contracts/on_chain_manager/AbstractManager.sol\":6419:6425  oracle */\n      0x05\n      0x00\n      swap1\n      sload\n      swap1\n      0x0100\n      exp\n      swap1\n      div\n      0xffffffffffffffffffffffffffffffffffffffff\n      and\n        /* \"contracts/on_chain_manager/AbstractManager.sol\":6419:6455  oracle != AbstractOracle(address(0)) */\n      0xffffffffffffffffffffffffffffffffffffffff\n      and\n      sub\n        /* \"contracts/on_chain_manager/AbstractManager.sol\":6411:6482  require(oracle != AbstractOracle(address(0)), \"Oracle not initialized\") */\n      tag_155\n      jumpi\n      mload(0x40)\n      0x08c379a000000000000000000000000000000000000000000000000000000000\n      dup2\n      mstore\n      0x04\n      add\n      tag_156\n      swap1\n      tag_84\n      jump\t// in\n    tag_156:\n      mload(0x40)\n      dup1\n      swap2\n      sub\n      swap1\n      revert\n    tag_155:\n        /* \"contracts/on_chain_manager/AbstractManager.sol\":4026:4028  id */\n      dup1\n        /* \"contracts/on_chain_manager/AbstractManager.sol\":6837:6847  msg.sender */\n      caller\n        /* \"contracts/on_chain_manager/AbstractManager.sol\":6815:6847  deployMap[id].user == msg.sender */\n      0xffffffffffffffffffffffffffffffffffffffff\n      and\n        /* \"contracts/on_chain_manager/AbstractManager.sol\":6815:6824  deployMap */\n      0x01\n        /* \"contracts/on_chain_manager/AbstractManager.sol\":6815:6828  deployMap[id] */\n      0x00\n        /* \"contracts/on_chain_manager/AbstractManager.sol\":6825:6827  id */\n      dup4\n        /* \"contracts/on_chain_manager/AbstractManager.sol\":6815:6828  deployMap[id] */\n      dup2\n      mstore\n      0x20\n      add\n      swap1\n      dup2\n      mstore\n      0x20\n      add\n      0x00\n      keccak256\n        /* \"contracts/on_chain_manager/AbstractManager.sol\":6815:6833  deployMap[id].user */\n      0x02\n      add\n      0x00\n      swap1\n      sload\n      swap1\n      0x0100\n      exp\n      swap1\n      div\n      0xffffffffffffffffffffffffffffffffffffffff\n      and\n        /* \"contracts/on_chain_manager/AbstractManager.sol\":6815:6847  deployMap[id].user == msg.sender */\n      0xffffffffffffffffffffffffffffffffffffffff\n      and\n      eq\n        /* \"contracts/on_chain_manager/AbstractManager.sol\":6807:6881  require(deployMap[id].user == msg.sender, \"Caller is not deploy reserver\") */\n      tag_158\n      jumpi\n      mload(0x40)\n      0x08c379a000000000000000000000000000000000000000000000000000000000\n      dup2\n      mstore\n      0x04\n      add\n      tag_159\n      swap1\n      tag_160\n      jump\t// in\n    tag_159:\n      mload(0x40)\n      dup1\n      swap2\n      sub\n      swap1\n      revert\n    tag_158:\n        /* \"contracts/on_chain_manager/AbstractManager.sol\":4060:4062  id */\n      dup2\n        /* \"contracts/on_chain_manager/AbstractManager.sol\":4063:4078  Status.DEPLOYED */\n      0x03\n        /* \"contracts/on_chain_manager/AbstractManager.sol\":6320:6326  status */\n      dup1\n        /* \"contracts/on_chain_manager/AbstractManager.sol\":6296:6326  deployMap[id].status == status */\n      0x04\n      dup2\n      gt\n      iszero\n      tag_162\n      jumpi\n      tag_163\n      tag_92\n      jump\t// in\n    tag_163:\n    tag_162:\n        /* \"contracts/on_chain_manager/AbstractManager.sol\":6296:6305  deployMap */\n      0x01\n        /* \"contracts/on_chain_manager/AbstractManager.sol\":6296:6309  deployMap[id] */\n      0x00\n        /* \"contracts/on_chain_manager/AbstractManager.sol\":6306:6308  id */\n      dup5\n        /* \"contracts/on_chain_manager/AbstractManager.sol\":6296:6309  deployMap[id] */\n      dup2\n      mstore\n      0x20\n      add\n      swap1\n      dup2\n      mstore\n      0x20\n      add\n      0x00\n      keccak256\n        /* \"contracts/on_chain_manager/AbstractManager.sol\":6296:6316  deployMap[id].status */\n      0x04\n      add\n      0x00\n      swap1\n      sload\n      swap1\n      0x0100\n      exp\n      swap1\n      div\n      0xff\n      and\n        /* \"contracts/on_chain_manager/AbstractManager.sol\":6296:6326  deployMap[id].status == status */\n      0x04\n      dup2\n      gt\n      iszero\n      tag_164\n      jumpi\n      tag_165\n      tag_92\n      jump\t// in\n    tag_165:\n    tag_164:\n      eq\n        /* \"contracts/on_chain_manager/AbstractManager.sol\":6288:6349  require(deployMap[id].status == status, \"Deploy state error\") */\n      tag_166\n      jumpi\n      mload(0x40)\n      0x08c379a000000000000000000000000000000000000000000000000000000000\n      dup2\n      mstore\n      0x04\n      add\n      tag_167\n      swap1\n      tag_97\n      jump\t// in\n    tag_167:\n      mload(0x40)\n      dup1\n      swap2\n      sub\n      swap1\n      revert\n    tag_166:\n        /* \"contracts/on_chain_manager/AbstractManager.sol\":4091:4104  uint8 shardId */\n      0x00\n        /* \"contracts/on_chain_manager/AbstractManager.sol\":4106:4125  string memory shard */\n      dup1\n        /* \"contracts/on_chain_manager/AbstractManager.sol\":4127:4139  bytes20 addr */\n      0x00\n        /* \"contracts/on_chain_manager/AbstractManager.sol\":4141:4159  string memory name */\n      dup1\n        /* \"contracts/on_chain_manager/AbstractManager.sol\":4163:4184  getInfoByDeployId(id) */\n      tag_169\n        /* \"contracts/on_chain_manager/AbstractManager.sol\":4181:4183  id */\n      dup9\n        /* \"contracts/on_chain_manager/AbstractManager.sol\":4163:4180  getInfoByDeployId */\n      tag_100\n        /* \"contracts/on_chain_manager/AbstractManager.sol\":4163:4184  getInfoByDeployId(id) */\n      jump\t// in\n    tag_169:\n        /* \"contracts/on_chain_manager/AbstractManager.sol\":4090:4184  (uint8 shardId, string memory shard, bytes20 addr, string memory name) = getInfoByDeployId(id) */\n      swap4\n      pop\n      swap4\n      pop\n      swap4\n      pop\n      swap4\n      pop\n        /* \"contracts/on_chain_manager/AbstractManager.sol\":4194:4203  shardList */\n      0x02\n        /* \"contracts/on_chain_manager/AbstractManager.sol\":4204:4211  shardId */\n      dup5\n        /* \"contracts/on_chain_manager/AbstractManager.sol\":4194:4212  shardList[shardId] */\n      0xff\n      and\n      dup2\n      sload\n      dup2\n      lt\n      tag_170\n      jumpi\n      tag_171\n      tag_111\n      jump\t// in\n    tag_171:\n    tag_170:\n      swap1\n      0x00\n      mstore\n      keccak256(0x00, 0x20)\n      swap1\n      0x03\n      mul\n      add\n        /* \"contracts/on_chain_manager/AbstractManager.sol\":4194:4222  shardList[shardId].numDeploy */\n      0x02\n      add\n      0x00\n        /* \"contracts/on_chain_manager/AbstractManager.sol\":4194:4224  shardList[shardId].numDeploy-- */\n      dup2\n      sload\n      dup1\n      swap3\n      swap2\n      swap1\n      tag_173\n      swap1\n      tag_114\n      jump\t// in\n    tag_173:\n      swap2\n      swap1\n      pop\n      sstore\n      pop\n        /* \"contracts/on_chain_manager/AbstractManager.sol\":4257:4278  Status.PENDING_DELETE */\n      0x04\n        /* \"contracts/on_chain_manager/AbstractManager.sol\":4234:4243  deployMap */\n      0x01\n        /* \"contracts/on_chain_manager/AbstractManager.sol\":4234:4247  deployMap[id] */\n      0x00\n        /* \"contracts/on_chain_manager/AbstractManager.sol\":4244:4246  id */\n      dup11\n        /* \"contracts/on_chain_manager/AbstractManager.sol\":4234:4247  deployMap[id] */\n      dup2\n      mstore\n      0x20\n      add\n      swap1\n      dup2\n      mstore\n      0x20\n      add\n      0x00\n      keccak256\n        /* \"contracts/on_chain_manager/AbstractManager.sol\":4234:4254  deployMap[id].status */\n      0x04\n      add\n      0x00\n        /* \"contracts/on_chain_manager/AbstractManager.sol\":4234:4278  deployMap[id].status = Status.PENDING_DELETE */\n      0x0100\n      exp\n      dup2\n      sload\n      dup2\n      0xff\n      mul\n      not\n      and\n      swap1\n      dup4\n      0x04\n      dup2\n      gt\n      iszero\n      tag_174\n      jumpi\n      tag_175\n      tag_92\n      jump\t// in\n    tag_175:\n    tag_174:\n      mul\n      or\n      swap1\n      sstore\n      pop\n        /* \"contracts/on_chain_manager/AbstractManager.sol\":4288:4294  oracle */\n      0x05\n      0x00\n      swap1\n      sload\n      swap1\n      0x0100\n      exp\n      swap1\n      div\n      0xffffffffffffffffffffffffffffffffffffffff\n      and\n        /* \"contracts/on_chain_manager/AbstractManager.sol\":4288:4306  oracle.checkDelete */\n      0xffffffffffffffffffffffffffffffffffffffff\n      and\n      0xf6159ce6\n        /* \"contracts/on_chain_manager/AbstractManager.sol\":4307:4309  id */\n      dup10\n        /* \"contracts/on_chain_manager/AbstractManager.sol\":4311:4316  shard */\n      dup6\n        /* \"contracts/on_chain_manager/AbstractManager.sol\":4318:4322  addr */\n      dup6\n        /* \"contracts/on_chain_manager/AbstractManager.sol\":4288:4323  oracle.checkDelete(id, shard, addr) */\n      mload(0x40)\n      dup5\n      0xffffffff\n      and\n      0xe0\n      shl\n      dup2\n      mstore\n      0x04\n      add\n      tag_176\n      swap4\n      swap3\n      swap2\n      swap1\n      tag_177\n      jump\t// in\n    tag_176:\n      0x00\n      mload(0x40)\n      dup1\n      dup4\n      sub\n      dup2\n      0x00\n      dup8\n      dup1\n      extcodesize\n      iszero\n      dup1\n      iszero\n      tag_178\n      jumpi\n      0x00\n      dup1\n      revert\n    tag_178:\n      pop\n      gas\n      call\n      iszero\n      dup1\n      iszero\n      tag_180\n      jumpi\n      returndatasize\n      0x00\n      dup1\n      returndatacopy\n      revert(0x00, returndatasize)\n    tag_180:\n      pop\n      pop\n      pop\n      pop\n        /* \"contracts/on_chain_manager/AbstractManager.sol\":4338:4384  DeleteDeclared(id, shardId, shard, addr, name) */\n      0x628abcdb4e4b579cc58315017cfc6a5853fdb6ac143fca00a6d0b28a73a0f540\n        /* \"contracts/on_chain_manager/AbstractManager.sol\":4353:4355  id */\n      dup9\n        /* \"contracts/on_chain_manager/AbstractManager.sol\":4357:4364  shardId */\n      dup6\n        /* \"contracts/on_chain_manager/AbstractManager.sol\":4366:4371  shard */\n      dup6\n        /* \"contracts/on_chain_manager/AbstractManager.sol\":4373:4377  addr */\n      dup6\n        /* \"contracts/on_chain_manager/AbstractManager.sol\":4379:4383  name */\n      dup6\n        /* \"contracts/on_chain_manager/AbstractManager.sol\":4338:4384  DeleteDeclared(id, shardId, shard, addr, name) */\n      mload(0x40)\n      tag_181\n      swap6\n      swap5\n      swap4\n      swap3\n      swap2\n      swap1\n      tag_105\n      jump\t// in\n    tag_181:\n      mload(0x40)\n      dup1\n      swap2\n      sub\n      swap1\n      log1\n        /* \"contracts/on_chain_manager/AbstractManager.sol\":4080:4391  {... */\n      pop\n      pop\n      pop\n      pop\n        /* \"contracts/on_chain_manager/AbstractManager.sol\":6891:6892  _ */\n      pop\n      pop\n        /* \"contracts/on_chain_manager/AbstractManager.sol\":6492:6493  _ */\n      pop\n        /* \"contracts/on_chain_manager/AbstractManager.sol\":3947:4391  function declareDel(uint256 id) external oracleInitialized checkDeployReserver(id)... */\n      pop\n      jump\t// out\n        /* \"contracts/on_chain_manager/AbstractManager.sol\":1994:2135  function setAlg(uint8 newAlg) external onlyOwner algExists(newAlg){... */\n    tag_60:\n        /* \"@openzeppelin/contracts/access/Ownable.sol\":1094:1107  _checkOwner() */\n      tag_183\n        /* \"@openzeppelin/contracts/access/Ownable.sol\":1094:1105  _checkOwner */\n      tag_131\n        /* \"@openzeppelin/contracts/access/Ownable.sol\":1094:1107  _checkOwner() */\n      jump\t// in\n    tag_183:\n        /* \"contracts/on_chain_manager/AbstractManager.sol\":2053:2059  newAlg */\n      dup1\n        /* \"contracts/on_chain_manager/AbstractManager.sol\":6693:6697  algs */\n      0x04\n        /* \"contracts/on_chain_manager/AbstractManager.sol\":6693:6704  algs.length */\n      dup1\n      sload\n      swap1\n      pop\n        /* \"contracts/on_chain_manager/AbstractManager.sol\":6684:6690  newAlg */\n      dup2\n        /* \"contracts/on_chain_manager/AbstractManager.sol\":6684:6704  newAlg < algs.length */\n      0xff\n      and\n      lt\n        /* \"contracts/on_chain_manager/AbstractManager.sol\":6676:6733  require(newAlg < algs.length, \"Algorithm does not exist\") */\n      tag_185\n      jumpi\n      mload(0x40)\n      0x08c379a000000000000000000000000000000000000000000000000000000000\n      dup2\n      mstore\n      0x04\n      add\n      tag_186\n      swap1\n      tag_187\n      jump\t// in\n    tag_186:\n      mload(0x40)\n      dup1\n      swap2\n      sub\n      swap1\n      revert\n    tag_185:\n        /* \"contracts/on_chain_manager/AbstractManager.sol\":2083:2089  newAlg */\n      dup2\n        /* \"contracts/on_chain_manager/AbstractManager.sol\":2070:2080  currentAlg */\n      0x03\n      0x00\n        /* \"contracts/on_chain_manager/AbstractManager.sol\":2070:2089  currentAlg = newAlg */\n      0x0100\n      exp\n      dup2\n      sload\n      dup2\n      0xff\n      mul\n      not\n      and\n      swap1\n      dup4\n      0xff\n      and\n      mul\n      or\n      swap1\n      sstore\n      pop\n        /* \"contracts/on_chain_manager/AbstractManager.sol\":2104:2128  ChangedAlgorithm(newAlg) */\n      0x987a3408e00935d1eb359fd8812975019ac50bad81a9b01cddfa171579c848ba\n        /* \"contracts/on_chain_manager/AbstractManager.sol\":2121:2127  newAlg */\n      dup3\n        /* \"contracts/on_chain_manager/AbstractManager.sol\":2104:2128  ChangedAlgorithm(newAlg) */\n      mload(0x40)\n      tag_189\n      swap2\n      swap1\n      tag_190\n      jump\t// in\n    tag_189:\n      mload(0x40)\n      dup1\n      swap2\n      sub\n      swap1\n      log1\n        /* \"@openzeppelin/contracts/access/Ownable.sol\":1117:1118  _ */\n      pop\n        /* \"contracts/on_chain_manager/AbstractManager.sol\":1994:2135  function setAlg(uint8 newAlg) external onlyOwner algExists(newAlg){... */\n      pop\n      jump\t// out\n        /* \"contracts/on_chain_manager/AbstractManager.sol\":5187:5765  function fullfillDelete(uint256 id, bool result) external oracleInitialized onlyOracle ... */\n    tag_63:\n        /* \"contracts/on_chain_manager/AbstractManager.sol\":6452:6453  0 */\n      0x00\n        /* \"contracts/on_chain_manager/AbstractManager.sol\":6419:6455  oracle != AbstractOracle(address(0)) */\n      0xffffffffffffffffffffffffffffffffffffffff\n      and\n        /* \"contracts/on_chain_manager/AbstractManager.sol\":6419:6425  oracle */\n      0x05\n      0x00\n      swap1\n      sload\n      swap1\n      0x0100\n      exp\n      swap1\n      div\n      0xffffffffffffffffffffffffffffffffffffffff\n      and\n        /* \"contracts/on_chain_manager/AbstractManager.sol\":6419:6455  oracle != AbstractOracle(address(0)) */\n      0xffffffffffffffffffffffffffffffffffffffff\n      and\n      sub\n        /* \"contracts/on_chain_manager/AbstractManager.sol\":6411:6482  require(oracle != AbstractOracle(address(0)), \"Oracle not initialized\") */\n      tag_192\n      jumpi\n      mload(0x40)\n      0x08c379a000000000000000000000000000000000000000000000000000000000\n      dup2\n      mstore\n      0x04\n      add\n      tag_193\n      swap1\n      tag_84\n      jump\t// in\n    tag_193:\n      mload(0x40)\n      dup1\n      swap2\n      sub\n      swap1\n      revert\n    tag_192:\n        /* \"contracts/on_chain_manager/AbstractManager.sol\":5937:5943  oracle */\n      0x05\n      0x00\n      swap1\n      sload\n      swap1\n      0x0100\n      exp\n      swap1\n      div\n      0xffffffffffffffffffffffffffffffffffffffff\n      and\n        /* \"contracts/on_chain_manager/AbstractManager.sol\":5915:5944  msg.sender == address(oracle) */\n      0xffffffffffffffffffffffffffffffffffffffff\n      and\n        /* \"contracts/on_chain_manager/AbstractManager.sol\":5915:5925  msg.sender */\n      caller\n        /* \"contracts/on_chain_manager/AbstractManager.sol\":5915:5944  msg.sender == address(oracle) */\n      0xffffffffffffffffffffffffffffffffffffffff\n      and\n      eq\n        /* \"contracts/on_chain_manager/AbstractManager.sol\":5907:5969  require(msg.sender == address(oracle), \"Caller is not oracle\") */\n      tag_195\n      jumpi\n      mload(0x40)\n      0x08c379a000000000000000000000000000000000000000000000000000000000\n      dup2\n      mstore\n      0x04\n      add\n      tag_196\n      swap1\n      tag_88\n      jump\t// in\n    tag_196:\n      mload(0x40)\n      dup1\n      swap2\n      sub\n      swap1\n      revert\n    tag_195:\n        /* \"contracts/on_chain_manager/AbstractManager.sol\":5305:5307  id */\n      dup2\n        /* \"contracts/on_chain_manager/AbstractManager.sol\":5309:5330  Status.PENDING_DELETE */\n      0x04\n        /* \"contracts/on_chain_manager/AbstractManager.sol\":6320:6326  status */\n      dup1\n        /* \"contracts/on_chain_manager/AbstractManager.sol\":6296:6326  deployMap[id].status == status */\n      0x04\n      dup2\n      gt\n      iszero\n      tag_198\n      jumpi\n      tag_199\n      tag_92\n      jump\t// in\n    tag_199:\n    tag_198:\n        /* \"contracts/on_chain_manager/AbstractManager.sol\":6296:6305  deployMap */\n      0x01\n        /* \"contracts/on_chain_manager/AbstractManager.sol\":6296:6309  deployMap[id] */\n      0x00\n        /* \"contracts/on_chain_manager/AbstractManager.sol\":6306:6308  id */\n      dup5\n        /* \"contracts/on_chain_manager/AbstractManager.sol\":6296:6309  deployMap[id] */\n      dup2\n      mstore\n      0x20\n      add\n      swap1\n      dup2\n      mstore\n      0x20\n      add\n      0x00\n      keccak256\n        /* \"contracts/on_chain_manager/AbstractManager.sol\":6296:6316  deployMap[id].status */\n      0x04\n      add\n      0x00\n      swap1\n      sload\n      swap1\n      0x0100\n      exp\n      swap1\n      div\n      0xff\n      and\n        /* \"contracts/on_chain_manager/AbstractManager.sol\":6296:6326  deployMap[id].status == status */\n      0x04\n      dup2\n      gt\n      iszero\n      tag_200\n      jumpi\n      tag_201\n      tag_92\n      jump\t// in\n    tag_201:\n    tag_200:\n      eq\n        /* \"contracts/on_chain_manager/AbstractManager.sol\":6288:6349  require(deployMap[id].status == status, \"Deploy state error\") */\n      tag_202\n      jumpi\n      mload(0x40)\n      0x08c379a000000000000000000000000000000000000000000000000000000000\n      dup2\n      mstore\n      0x04\n      add\n      tag_203\n      swap1\n      tag_97\n      jump\t// in\n    tag_203:\n      mload(0x40)\n      dup1\n      swap2\n      sub\n      swap1\n      revert\n    tag_202:\n        /* \"contracts/on_chain_manager/AbstractManager.sol\":5342:5355  uint8 shardId */\n      0x00\n        /* \"contracts/on_chain_manager/AbstractManager.sol\":5357:5376  string memory shard */\n      dup1\n        /* \"contracts/on_chain_manager/AbstractManager.sol\":5378:5390  bytes20 addr */\n      0x00\n        /* \"contracts/on_chain_manager/AbstractManager.sol\":5392:5410  string memory name */\n      dup1\n        /* \"contracts/on_chain_manager/AbstractManager.sol\":5414:5435  getInfoByDeployId(id) */\n      tag_205\n        /* \"contracts/on_chain_manager/AbstractManager.sol\":5432:5434  id */\n      dup9\n        /* \"contracts/on_chain_manager/AbstractManager.sol\":5414:5431  getInfoByDeployId */\n      tag_100\n        /* \"contracts/on_chain_manager/AbstractManager.sol\":5414:5435  getInfoByDeployId(id) */\n      jump\t// in\n    tag_205:\n        /* \"contracts/on_chain_manager/AbstractManager.sol\":5341:5435  (uint8 shardId, string memory shard, bytes20 addr, string memory name) = getInfoByDeployId(id) */\n      swap4\n      pop\n      swap4\n      pop\n      swap4\n      pop\n      swap4\n      pop\n        /* \"contracts/on_chain_manager/AbstractManager.sol\":5448:5454  result */\n      dup7\n        /* \"contracts/on_chain_manager/AbstractManager.sol\":5445:5759  if(result){... */\n      iszero\n      tag_206\n      jumpi\n        /* \"contracts/on_chain_manager/AbstractManager.sol\":5476:5485  deployMap */\n      0x01\n        /* \"contracts/on_chain_manager/AbstractManager.sol\":5476:5489  deployMap[id] */\n      0x00\n        /* \"contracts/on_chain_manager/AbstractManager.sol\":5486:5488  id */\n      dup10\n        /* \"contracts/on_chain_manager/AbstractManager.sol\":5476:5489  deployMap[id] */\n      dup2\n      mstore\n      0x20\n      add\n      swap1\n      dup2\n      mstore\n      0x20\n      add\n      0x00\n      keccak256\n      0x00\n        /* \"contracts/on_chain_manager/AbstractManager.sol\":5469:5489  delete deployMap[id] */\n      dup1\n      dup3\n      add\n      exp(0x0100, 0x00)\n      dup2\n      sload\n      swap1\n      0xff\n      mul\n      not\n      and\n      swap1\n      sstore\n      0x00\n      dup3\n      add\n      exp(0x0100, 0x01)\n      dup2\n      sload\n      swap1\n      0xffffffffffffffffffffffffffffffffffffffff\n      mul\n      not\n      and\n      swap1\n      sstore\n      0x01\n      dup3\n      add\n      0x00\n      tag_207\n      swap2\n      swap1\n      tag_108\n      jump\t// in\n    tag_207:\n      0x02\n      dup3\n      add\n      exp(0x0100, 0x00)\n      dup2\n      sload\n      swap1\n      0xffffffffffffffffffffffffffffffffffffffff\n      mul\n      not\n      and\n      swap1\n      sstore\n      0x03\n      dup3\n      add\n      0x00\n      swap1\n      sstore\n      0x04\n      dup3\n      add\n      exp(0x0100, 0x00)\n      dup2\n      sload\n      swap1\n      0xff\n      mul\n      not\n      and\n      swap1\n      sstore\n      pop\n      pop\n        /* \"contracts/on_chain_manager/AbstractManager.sol\":5508:5555  DeleteConfirmed(id, shardId, shard, addr, name) */\n      0x34f974022181aae39aa96d8758f573cb067a8b910edc151f1c7e4227fda5a3d6\n        /* \"contracts/on_chain_manager/AbstractManager.sol\":5524:5526  id */\n      dup9\n        /* \"contracts/on_chain_manager/AbstractManager.sol\":5528:5535  shardId */\n      dup6\n        /* \"contracts/on_chain_manager/AbstractManager.sol\":5537:5542  shard */\n      dup6\n        /* \"contracts/on_chain_manager/AbstractManager.sol\":5544:5548  addr */\n      dup6\n        /* \"contracts/on_chain_manager/AbstractManager.sol\":5550:5554  name */\n      dup6\n        /* \"contracts/on_chain_manager/AbstractManager.sol\":5508:5555  DeleteConfirmed(id, shardId, shard, addr, name) */\n      mload(0x40)\n      tag_208\n      swap6\n      swap5\n      swap4\n      swap3\n      swap2\n      swap1\n      tag_105\n      jump\t// in\n    tag_208:\n      mload(0x40)\n      dup1\n      swap2\n      sub\n      swap1\n      log1\n        /* \"contracts/on_chain_manager/AbstractManager.sol\":5445:5759  if(result){... */\n      jump(tag_209)\n    tag_206:\n        /* \"contracts/on_chain_manager/AbstractManager.sol\":5593:5602  shardList */\n      0x02\n        /* \"contracts/on_chain_manager/AbstractManager.sol\":5603:5610  shardId */\n      dup5\n        /* \"contracts/on_chain_manager/AbstractManager.sol\":5593:5611  shardList[shardId] */\n      0xff\n      and\n      dup2\n      sload\n      dup2\n      lt\n      tag_210\n      jumpi\n      tag_211\n      tag_111\n      jump\t// in\n    tag_211:\n    tag_210:\n      swap1\n      0x00\n      mstore\n      keccak256(0x00, 0x20)\n      swap1\n      0x03\n      mul\n      add\n        /* \"contracts/on_chain_manager/AbstractManager.sol\":5593:5621  shardList[shardId].numDeploy */\n      0x02\n      add\n      0x00\n        /* \"contracts/on_chain_manager/AbstractManager.sol\":5593:5623  shardList[shardId].numDeploy++ */\n      dup2\n      sload\n      dup1\n      swap3\n      swap2\n      swap1\n      tag_213\n      swap1\n      tag_214\n      jump\t// in\n    tag_213:\n      swap2\n      swap1\n      pop\n      sstore\n      pop\n        /* \"contracts/on_chain_manager/AbstractManager.sol\":5660:5675  Status.DEPLOYED */\n      0x03\n        /* \"contracts/on_chain_manager/AbstractManager.sol\":5637:5646  deployMap */\n      0x01\n        /* \"contracts/on_chain_manager/AbstractManager.sol\":5637:5650  deployMap[id] */\n      0x00\n        /* \"contracts/on_chain_manager/AbstractManager.sol\":5647:5649  id */\n      dup11\n        /* \"contracts/on_chain_manager/AbstractManager.sol\":5637:5650  deployMap[id] */\n      dup2\n      mstore\n      0x20\n      add\n      swap1\n      dup2\n      mstore\n      0x20\n      add\n      0x00\n      keccak256\n        /* \"contracts/on_chain_manager/AbstractManager.sol\":5637:5657  deployMap[id].status */\n      0x04\n      add\n      0x00\n        /* \"contracts/on_chain_manager/AbstractManager.sol\":5637:5675  deployMap[id].status = Status.DEPLOYED */\n      0x0100\n      exp\n      dup2\n      sload\n      dup2\n      0xff\n      mul\n      not\n      and\n      swap1\n      dup4\n      0x04\n      dup2\n      gt\n      iszero\n      tag_215\n      jumpi\n      tag_216\n      tag_92\n      jump\t// in\n    tag_216:\n    tag_215:\n      mul\n      or\n      swap1\n      sstore\n      pop\n        /* \"contracts/on_chain_manager/AbstractManager.sol\":5694:5744  DeleteNotConfirmed(id, shardId, shard, addr, name) */\n      0x5d6d4a8afd86aeea9d8f976d1e848289b569d5dd41b052c21bbe97be23d2a339\n        /* \"contracts/on_chain_manager/AbstractManager.sol\":5713:5715  id */\n      dup9\n        /* \"contracts/on_chain_manager/AbstractManager.sol\":5717:5724  shardId */\n      dup6\n        /* \"contracts/on_chain_manager/AbstractManager.sol\":5726:5731  shard */\n      dup6\n        /* \"contracts/on_chain_manager/AbstractManager.sol\":5733:5737  addr */\n      dup6\n        /* \"contracts/on_chain_manager/AbstractManager.sol\":5739:5743  name */\n      dup6\n        /* \"contracts/on_chain_manager/AbstractManager.sol\":5694:5744  DeleteNotConfirmed(id, shardId, shard, addr, name) */\n      mload(0x40)\n      tag_217\n      swap6\n      swap5\n      swap4\n      swap3\n      swap2\n      swap1\n      tag_105\n      jump\t// in\n    tag_217:\n      mload(0x40)\n      dup1\n      swap2\n      sub\n      swap1\n      log1\n        /* \"contracts/on_chain_manager/AbstractManager.sol\":5445:5759  if(result){... */\n    tag_209:\n        /* \"contracts/on_chain_manager/AbstractManager.sol\":5331:5765  {... */\n      pop\n      pop\n      pop\n      pop\n        /* \"contracts/on_chain_manager/AbstractManager.sol\":5979:5980  _ */\n      pop\n      pop\n        /* \"contracts/on_chain_manager/AbstractManager.sol\":5187:5765  function fullfillDelete(uint256 id, bool result) external oracleInitialized onlyOracle ... */\n      pop\n      pop\n      jump\t// out\n        /* \"contracts/on_chain_manager/AbstractManager.sol\":3350:3911  function declareDeploy(uint256 id, bytes20 addr, string calldata name) external oracleInitialized checkDeployReserver(id)... */\n    tag_67:\n        /* \"contracts/on_chain_manager/AbstractManager.sol\":6452:6453  0 */\n      0x00\n        /* \"contracts/on_chain_manager/AbstractManager.sol\":6419:6455  oracle != AbstractOracle(address(0)) */\n      0xffffffffffffffffffffffffffffffffffffffff\n      and\n        /* \"contracts/on_chain_manager/AbstractManager.sol\":6419:6425  oracle */\n      0x05\n      0x00\n      swap1\n      sload\n      swap1\n      0x0100\n      exp\n      swap1\n      div\n      0xffffffffffffffffffffffffffffffffffffffff\n      and\n        /* \"contracts/on_chain_manager/AbstractManager.sol\":6419:6455  oracle != AbstractOracle(address(0)) */\n      0xffffffffffffffffffffffffffffffffffffffff\n      and\n      sub\n        /* \"contracts/on_chain_manager/AbstractManager.sol\":6411:6482  require(oracle != AbstractOracle(address(0)), \"Oracle not initialized\") */\n      tag_219\n      jumpi\n      mload(0x40)\n      0x08c379a000000000000000000000000000000000000000000000000000000000\n      dup2\n      mstore\n      0x04\n      add\n      tag_220\n      swap1\n      tag_84\n      jump\t// in\n    tag_220:\n      mload(0x40)\n      dup1\n      swap2\n      sub\n      swap1\n      revert\n    tag_219:\n        /* \"contracts/on_chain_manager/AbstractManager.sol\":3468:3470  id */\n      dup4\n        /* \"contracts/on_chain_manager/AbstractManager.sol\":6837:6847  msg.sender */\n      caller\n        /* \"contracts/on_chain_manager/AbstractManager.sol\":6815:6847  deployMap[id].user == msg.sender */\n      0xffffffffffffffffffffffffffffffffffffffff\n      and\n        /* \"contracts/on_chain_manager/AbstractManager.sol\":6815:6824  deployMap */\n      0x01\n        /* \"contracts/on_chain_manager/AbstractManager.sol\":6815:6828  deployMap[id] */\n      0x00\n        /* \"contracts/on_chain_manager/AbstractManager.sol\":6825:6827  id */\n      dup4\n        /* \"contracts/on_chain_manager/AbstractManager.sol\":6815:6828  deployMap[id] */\n      dup2\n      mstore\n      0x20\n      add\n      swap1\n      dup2\n      mstore\n      0x20\n      add\n      0x00\n      keccak256\n        /* \"contracts/on_chain_manager/AbstractManager.sol\":6815:6833  deployMap[id].user */\n      0x02\n      add\n      0x00\n      swap1\n      sload\n      swap1\n      0x0100\n      exp\n      swap1\n      div\n      0xffffffffffffffffffffffffffffffffffffffff\n      and\n        /* \"contracts/on_chain_manager/AbstractManager.sol\":6815:6847  deployMap[id].user == msg.sender */\n      0xffffffffffffffffffffffffffffffffffffffff\n      and\n      eq\n        /* \"contracts/on_chain_manager/AbstractManager.sol\":6807:6881  require(deployMap[id].user == msg.sender, \"Caller is not deploy reserver\") */\n      tag_222\n      jumpi\n      mload(0x40)\n      0x08c379a000000000000000000000000000000000000000000000000000000000\n      dup2\n      mstore\n      0x04\n      add\n      tag_223\n      swap1\n      tag_160\n      jump\t// in\n    tag_223:\n      mload(0x40)\n      dup1\n      swap2\n      sub\n      swap1\n      revert\n    tag_222:\n        /* \"contracts/on_chain_manager/AbstractManager.sol\":3502:3504  id */\n      dup5\n        /* \"contracts/on_chain_manager/AbstractManager.sol\":3505:3520  Status.RESERVED */\n      0x01\n        /* \"contracts/on_chain_manager/AbstractManager.sol\":6320:6326  status */\n      dup1\n        /* \"contracts/on_chain_manager/AbstractManager.sol\":6296:6326  deployMap[id].status == status */\n      0x04\n      dup2\n      gt\n      iszero\n      tag_225\n      jumpi\n      tag_226\n      tag_92\n      jump\t// in\n    tag_226:\n    tag_225:\n        /* \"contracts/on_chain_manager/AbstractManager.sol\":6296:6305  deployMap */\n      0x01\n        /* \"contracts/on_chain_manager/AbstractManager.sol\":6296:6309  deployMap[id] */\n      0x00\n        /* \"contracts/on_chain_manager/AbstractManager.sol\":6306:6308  id */\n      dup5\n        /* \"contracts/on_chain_manager/AbstractManager.sol\":6296:6309  deployMap[id] */\n      dup2\n      mstore\n      0x20\n      add\n      swap1\n      dup2\n      mstore\n      0x20\n      add\n      0x00\n      keccak256\n        /* \"contracts/on_chain_manager/AbstractManager.sol\":6296:6316  deployMap[id].status */\n      0x04\n      add\n      0x00\n      swap1\n      sload\n      swap1\n      0x0100\n      exp\n      swap1\n      div\n      0xff\n      and\n        /* \"contracts/on_chain_manager/AbstractManager.sol\":6296:6326  deployMap[id].status == status */\n      0x04\n      dup2\n      gt\n      iszero\n      tag_227\n      jumpi\n      tag_228\n      tag_92\n      jump\t// in\n    tag_228:\n    tag_227:\n      eq\n        /* \"contracts/on_chain_manager/AbstractManager.sol\":6288:6349  require(deployMap[id].status == status, \"Deploy state error\") */\n      tag_229\n      jumpi\n      mload(0x40)\n      0x08c379a000000000000000000000000000000000000000000000000000000000\n      dup2\n      mstore\n      0x04\n      add\n      tag_230\n      swap1\n      tag_97\n      jump\t// in\n    tag_230:\n      mload(0x40)\n      dup1\n      swap2\n      sub\n      swap1\n      revert\n    tag_229:\n        /* \"contracts/on_chain_manager/AbstractManager.sol\":3531:3544  uint8 shardId */\n      0x00\n        /* \"contracts/on_chain_manager/AbstractManager.sol\":3547:3556  deployMap */\n      0x01\n        /* \"contracts/on_chain_manager/AbstractManager.sol\":3547:3560  deployMap[id] */\n      0x00\n        /* \"contracts/on_chain_manager/AbstractManager.sol\":3557:3559  id */\n      dup10\n        /* \"contracts/on_chain_manager/AbstractManager.sol\":3547:3560  deployMap[id] */\n      dup2\n      mstore\n      0x20\n      add\n      swap1\n      dup2\n      mstore\n      0x20\n      add\n      0x00\n      keccak256\n        /* \"contracts/on_chain_manager/AbstractManager.sol\":3547:3568  deployMap[id].shardId */\n      0x00\n      add\n      0x00\n      swap1\n      sload\n      swap1\n      0x0100\n      exp\n      swap1\n      div\n      0xff\n      and\n        /* \"contracts/on_chain_manager/AbstractManager.sol\":3531:3568  uint8 shardId = deployMap[id].shardId */\n      swap1\n      pop\n        /* \"contracts/on_chain_manager/AbstractManager.sol\":3578:3597  string memory shard */\n      0x00\n        /* \"contracts/on_chain_manager/AbstractManager.sol\":3600:3609  shardList */\n      0x02\n        /* \"contracts/on_chain_manager/AbstractManager.sol\":3610:3617  shardId */\n      dup3\n        /* \"contracts/on_chain_manager/AbstractManager.sol\":3600:3618  shardList[shardId] */\n      0xff\n      and\n      dup2\n      sload\n      dup2\n      lt\n      tag_232\n      jumpi\n      tag_233\n      tag_111\n      jump\t// in\n    tag_233:\n    tag_232:\n      swap1\n      0x00\n      mstore\n      keccak256(0x00, 0x20)\n      swap1\n      0x03\n      mul\n      add\n        /* \"contracts/on_chain_manager/AbstractManager.sol\":3600:3622  shardList[shardId].url */\n      0x00\n      add\n        /* \"contracts/on_chain_manager/AbstractManager.sol\":3578:3622  string memory shard = shardList[shardId].url */\n      dup1\n      sload\n      tag_235\n      swap1\n      tag_119\n      jump\t// in\n    tag_235:\n      dup1\n      0x1f\n      add\n      0x20\n      dup1\n      swap2\n      div\n      mul\n      0x20\n      add\n      mload(0x40)\n      swap1\n      dup2\n      add\n      0x40\n      mstore\n      dup1\n      swap3\n      swap2\n      swap1\n      dup2\n      dup2\n      mstore\n      0x20\n      add\n      dup3\n      dup1\n      sload\n      tag_236\n      swap1\n      tag_119\n      jump\t// in\n    tag_236:\n      dup1\n      iszero\n      tag_237\n      jumpi\n      dup1\n      0x1f\n      lt\n      tag_238\n      jumpi\n      0x0100\n      dup1\n      dup4\n      sload\n      div\n      mul\n      dup4\n      mstore\n      swap2\n      0x20\n      add\n      swap2\n      jump(tag_237)\n    tag_238:\n      dup3\n      add\n      swap2\n      swap1\n      0x00\n      mstore\n      keccak256(0x00, 0x20)\n      swap1\n    tag_239:\n      dup2\n      sload\n      dup2\n      mstore\n      swap1\n      0x01\n      add\n      swap1\n      0x20\n      add\n      dup1\n      dup4\n      gt\n      tag_239\n      jumpi\n      dup3\n      swap1\n      sub\n      0x1f\n      and\n      dup3\n      add\n      swap2\n    tag_237:\n      pop\n      pop\n      pop\n      pop\n      pop\n      swap1\n      pop\n        /* \"contracts/on_chain_manager/AbstractManager.sol\":3653:3657  addr */\n      dup8\n        /* \"contracts/on_chain_manager/AbstractManager.sol\":3632:3641  deployMap */\n      0x01\n        /* \"contracts/on_chain_manager/AbstractManager.sol\":3632:3645  deployMap[id] */\n      0x00\n        /* \"contracts/on_chain_manager/AbstractManager.sol\":3642:3644  id */\n      dup12\n        /* \"contracts/on_chain_manager/AbstractManager.sol\":3632:3645  deployMap[id] */\n      dup2\n      mstore\n      0x20\n      add\n      swap1\n      dup2\n      mstore\n      0x20\n      add\n      0x00\n      keccak256\n        /* \"contracts/on_chain_manager/AbstractManager.sol\":3632:3650  deployMap[id].addr */\n      0x00\n      add\n      0x01\n        /* \"contracts/on_chain_manager/AbstractManager.sol\":3632:3657  deployMap[id].addr = addr */\n      0x0100\n      exp\n      dup2\n      sload\n      dup2\n      0xffffffffffffffffffffffffffffffffffffffff\n      mul\n      not\n      and\n      swap1\n      dup4\n      0x60\n      shr\n      mul\n      or\n      swap1\n      sstore\n      pop\n        /* \"contracts/on_chain_manager/AbstractManager.sol\":3688:3692  name */\n      dup7\n      dup7\n        /* \"contracts/on_chain_manager/AbstractManager.sol\":3667:3676  deployMap */\n      0x01\n        /* \"contracts/on_chain_manager/AbstractManager.sol\":3667:3680  deployMap[id] */\n      0x00\n        /* \"contracts/on_chain_manager/AbstractManager.sol\":3677:3679  id */\n      dup13\n        /* \"contracts/on_chain_manager/AbstractManager.sol\":3667:3680  deployMap[id] */\n      dup2\n      mstore\n      0x20\n      add\n      swap1\n      dup2\n      mstore\n      0x20\n      add\n      0x00\n      keccak256\n        /* \"contracts/on_chain_manager/AbstractManager.sol\":3667:3685  deployMap[id].name */\n      0x01\n      add\n        /* \"contracts/on_chain_manager/AbstractManager.sol\":3667:3692  deployMap[id].name = name */\n      swap2\n      dup3\n      tag_240\n      swap3\n      swap2\n      swap1\n      tag_241\n      jump\t// in\n    tag_240:\n      pop\n        /* \"contracts/on_chain_manager/AbstractManager.sol\":3729:3744  block.timestamp */\n      timestamp\n        /* \"contracts/on_chain_manager/AbstractManager.sol\":3702:3711  deployMap */\n      0x01\n        /* \"contracts/on_chain_manager/AbstractManager.sol\":3702:3715  deployMap[id] */\n      0x00\n        /* \"contracts/on_chain_manager/AbstractManager.sol\":3712:3714  id */\n      dup12\n        /* \"contracts/on_chain_manager/AbstractManager.sol\":3702:3715  deployMap[id] */\n      dup2\n      mstore\n      0x20\n      add\n      swap1\n      dup2\n      mstore\n      0x20\n      add\n      0x00\n      keccak256\n        /* \"contracts/on_chain_manager/AbstractManager.sol\":3702:3726  deployMap[id].deployTime */\n      0x03\n      add\n        /* \"contracts/on_chain_manager/AbstractManager.sol\":3702:3744  deployMap[id].deployTime = block.timestamp */\n      dup2\n      swap1\n      sstore\n      pop\n        /* \"contracts/on_chain_manager/AbstractManager.sol\":3777:3798  Status.PENDING_DEPLOY */\n      0x02\n        /* \"contracts/on_chain_manager/AbstractManager.sol\":3754:3763  deployMap */\n      0x01\n        /* \"contracts/on_chain_manager/AbstractManager.sol\":3754:3767  deployMap[id] */\n      0x00\n        /* \"contracts/on_chain_manager/AbstractManager.sol\":3764:3766  id */\n      dup12\n        /* \"contracts/on_chain_manager/AbstractManager.sol\":3754:3767  deployMap[id] */\n      dup2\n      mstore\n      0x20\n      add\n      swap1\n      dup2\n      mstore\n      0x20\n      add\n      0x00\n      keccak256\n        /* \"contracts/on_chain_manager/AbstractManager.sol\":3754:3774  deployMap[id].status */\n      0x04\n      add\n      0x00\n        /* \"contracts/on_chain_manager/AbstractManager.sol\":3754:3798  deployMap[id].status = Status.PENDING_DEPLOY */\n      0x0100\n      exp\n      dup2\n      sload\n      dup2\n      0xff\n      mul\n      not\n      and\n      swap1\n      dup4\n      0x04\n      dup2\n      gt\n      iszero\n      tag_242\n      jumpi\n      tag_243\n      tag_92\n      jump\t// in\n    tag_243:\n    tag_242:\n      mul\n      or\n      swap1\n      sstore\n      pop\n        /* \"contracts/on_chain_manager/AbstractManager.sol\":3808:3814  oracle */\n      0x05\n      0x00\n      swap1\n      sload\n      swap1\n      0x0100\n      exp\n      swap1\n      div\n      0xffffffffffffffffffffffffffffffffffffffff\n      and\n        /* \"contracts/on_chain_manager/AbstractManager.sol\":3808:3826  oracle.checkDeploy */\n      0xffffffffffffffffffffffffffffffffffffffff\n      and\n      0x2b0d3a8e\n        /* \"contracts/on_chain_manager/AbstractManager.sol\":3827:3829  id */\n      dup11\n        /* \"contracts/on_chain_manager/AbstractManager.sol\":3831:3836  shard */\n      dup4\n        /* \"contracts/on_chain_manager/AbstractManager.sol\":3838:3842  addr */\n      dup12\n        /* \"contracts/on_chain_manager/AbstractManager.sol\":3808:3843  oracle.checkDeploy(id, shard, addr) */\n      mload(0x40)\n      dup5\n      0xffffffff\n      and\n      0xe0\n      shl\n      dup2\n      mstore\n      0x04\n      add\n      tag_244\n      swap4\n      swap3\n      swap2\n      swap1\n      tag_177\n      jump\t// in\n    tag_244:\n      0x00\n      mload(0x40)\n      dup1\n      dup4\n      sub\n      dup2\n      0x00\n      dup8\n      dup1\n      extcodesize\n      iszero\n      dup1\n      iszero\n      tag_245\n      jumpi\n      0x00\n      dup1\n      revert\n    tag_245:\n      pop\n      gas\n      call\n      iszero\n      dup1\n      iszero\n      tag_247\n      jumpi\n      returndatasize\n      0x00\n      dup1\n      returndatacopy\n      revert(0x00, returndatasize)\n    tag_247:\n      pop\n      pop\n      pop\n      pop\n        /* \"contracts/on_chain_manager/AbstractManager.sol\":3858:3904  DeployDeclared(id, shardId, shard, addr, name) */\n      0x1c42c890f21ce8a67778dd4a7c3f65f9131aa60fb612e1bcf7a7b7482e88f442\n        /* \"contracts/on_chain_manager/AbstractManager.sol\":3873:3875  id */\n      dup10\n        /* \"contracts/on_chain_manager/AbstractManager.sol\":3877:3884  shardId */\n      dup4\n        /* \"contracts/on_chain_manager/AbstractManager.sol\":3886:3891  shard */\n      dup4\n        /* \"contracts/on_chain_manager/AbstractManager.sol\":3893:3897  addr */\n      dup12\n        /* \"contracts/on_chain_manager/AbstractManager.sol\":3899:3903  name */\n      dup12\n      dup12\n        /* \"contracts/on_chain_manager/AbstractManager.sol\":3858:3904  DeployDeclared(id, shardId, shard, addr, name) */\n      mload(0x40)\n      tag_248\n      swap7\n      swap6\n      swap5\n      swap4\n      swap3\n      swap2\n      swap1\n      tag_249\n      jump\t// in\n    tag_248:\n      mload(0x40)\n      dup1\n      swap2\n      sub\n      swap1\n      log1\n        /* \"contracts/on_chain_manager/AbstractManager.sol\":3521:3911  {... */\n      pop\n      pop\n        /* \"contracts/on_chain_manager/AbstractManager.sol\":6891:6892  _ */\n      pop\n      pop\n        /* \"contracts/on_chain_manager/AbstractManager.sol\":6492:6493  _ */\n      pop\n        /* \"contracts/on_chain_manager/AbstractManager.sol\":3350:3911  function declareDeploy(uint256 id, bytes20 addr, string calldata name) external oracleInitialized checkDeployReserver(id)... */\n      pop\n      pop\n      pop\n      pop\n      jump\t// out\n        /* \"contracts/on_chain_manager/AbstractManager.sol\":2728:3319  function reserveDeploy() external atLeastOneShard returns(uint256, string memory){... */\n    tag_69:\n        /* \"contracts/on_chain_manager/AbstractManager.sol\":2786:2793  uint256 */\n      0x00\n        /* \"contracts/on_chain_manager/AbstractManager.sol\":2795:2808  string memory */\n      0x60\n        /* \"contracts/on_chain_manager/AbstractManager.sol\":6056:6057  0 */\n      0x00\n        /* \"contracts/on_chain_manager/AbstractManager.sol\":6037:6046  shardList */\n      0x02\n        /* \"contracts/on_chain_manager/AbstractManager.sol\":6037:6053  shardList.length */\n      dup1\n      sload\n      swap1\n      pop\n        /* \"contracts/on_chain_manager/AbstractManager.sol\":6037:6057  shardList.length > 0 */\n      gt\n        /* \"contracts/on_chain_manager/AbstractManager.sol\":6029:6081  require(shardList.length > 0, \"No shard registered\") */\n      tag_251\n      jumpi\n      mload(0x40)\n      0x08c379a000000000000000000000000000000000000000000000000000000000\n      dup2\n      mstore\n      0x04\n      add\n      tag_252\n      swap1\n      tag_253\n      jump\t// in\n    tag_252:\n      mload(0x40)\n      dup1\n      swap2\n      sub\n      swap1\n      revert\n    tag_251:\n        /* \"contracts/on_chain_manager/AbstractManager.sol\":2819:2832  uint8 shardId */\n      0x00\n        /* \"contracts/on_chain_manager/AbstractManager.sol\":2835:2853  algs[currentAlg]() */\n      tag_255\n        /* \"contracts/on_chain_manager/AbstractManager.sol\":2835:2839  algs */\n      0x04\n        /* \"contracts/on_chain_manager/AbstractManager.sol\":2840:2850  currentAlg */\n      0x03\n      0x00\n      swap1\n      sload\n      swap1\n      0x0100\n      exp\n      swap1\n      div\n      0xff\n      and\n        /* \"contracts/on_chain_manager/AbstractManager.sol\":2835:2851  algs[currentAlg] */\n      0xff\n      and\n      dup2\n      sload\n      dup2\n      lt\n      tag_256\n      jumpi\n      tag_257\n      tag_111\n      jump\t// in\n    tag_257:\n    tag_256:\n      swap1\n      0x00\n      mstore\n      keccak256(0x00, 0x20)\n      swap1\n      0x04\n      swap2\n      dup3\n      dup3\n      div\n      add\n      swap2\n      swap1\n      mod\n      0x08\n      mul\n      swap1\n      sload\n      swap1\n      0x0100\n      exp\n      swap1\n      div\n      dup1\n      iszero\n      tag_259\n      mul\n      or\n      0xffffffffffffffff\n      and\n        /* \"contracts/on_chain_manager/AbstractManager.sol\":2835:2853  algs[currentAlg]() */\n      0xffffffff\n      and\n      jump\t// in\n    tag_255:\n        /* \"contracts/on_chain_manager/AbstractManager.sol\":2819:2853  uint8 shardId = algs[currentAlg]() */\n      swap1\n      pop\n        /* \"contracts/on_chain_manager/AbstractManager.sol\":2863:2880  string memory url */\n      0x00\n        /* \"contracts/on_chain_manager/AbstractManager.sol\":2863:2885  string memory url = \"\" */\n      mload(0x40)\n      dup1\n      0x20\n      add\n      0x40\n      mstore\n      dup1\n      0x00\n      dup2\n      mstore\n      pop\n      swap1\n      pop\n        /* \"contracts/on_chain_manager/AbstractManager.sol\":2908:2916  maxShard */\n      0x07\n      0x00\n      swap1\n      sload\n      swap1\n      0x0100\n      exp\n      swap1\n      div\n      0xff\n      and\n        /* \"contracts/on_chain_manager/AbstractManager.sol\":2898:2916  shardId < maxShard */\n      0xff\n      and\n        /* \"contracts/on_chain_manager/AbstractManager.sol\":2898:2905  shardId */\n      dup3\n        /* \"contracts/on_chain_manager/AbstractManager.sol\":2898:2916  shardId < maxShard */\n      0xff\n      and\n      lt\n        /* \"contracts/on_chain_manager/AbstractManager.sol\":2895:3279  if(shardId < maxShard){... */\n      iszero\n      tag_260\n      jumpi\n        /* \"contracts/on_chain_manager/AbstractManager.sol\":2937:2946  shardList */\n      0x02\n        /* \"contracts/on_chain_manager/AbstractManager.sol\":2947:2954  shardId */\n      dup3\n        /* \"contracts/on_chain_manager/AbstractManager.sol\":2937:2955  shardList[shardId] */\n      0xff\n      and\n      dup2\n      sload\n      dup2\n      lt\n      tag_261\n      jumpi\n      tag_262\n      tag_111\n      jump\t// in\n    tag_262:\n    tag_261:\n      swap1\n      0x00\n      mstore\n      keccak256(0x00, 0x20)\n      swap1\n      0x03\n      mul\n      add\n        /* \"contracts/on_chain_manager/AbstractManager.sol\":2937:2959  shardList[shardId].url */\n      0x00\n      add\n        /* \"contracts/on_chain_manager/AbstractManager.sol\":2931:2959  url = shardList[shardId].url */\n      dup1\n      sload\n      tag_264\n      swap1\n      tag_119\n      jump\t// in\n    tag_264:\n      dup1\n      0x1f\n      add\n      0x20\n      dup1\n      swap2\n      div\n      mul\n      0x20\n      add\n      mload(0x40)\n      swap1\n      dup2\n      add\n      0x40\n      mstore\n      dup1\n      swap3\n      swap2\n      swap1\n      dup2\n      dup2\n      mstore\n      0x20\n      add\n      dup3\n      dup1\n      sload\n      tag_265\n      swap1\n      tag_119\n      jump\t// in\n    tag_265:\n      dup1\n      iszero\n      tag_266\n      jumpi\n      dup1\n      0x1f\n      lt\n      tag_267\n      jumpi\n      0x0100\n      dup1\n      dup4\n      sload\n      div\n      mul\n      dup4\n      mstore\n      swap2\n      0x20\n      add\n      swap2\n      jump(tag_266)\n    tag_267:\n      dup3\n      add\n      swap2\n      swap1\n      0x00\n      mstore\n      keccak256(0x00, 0x20)\n      swap1\n    tag_268:\n      dup2\n      sload\n      dup2\n      mstore\n      swap1\n      0x01\n      add\n      swap1\n      0x20\n      add\n      dup1\n      dup4\n      gt\n      tag_268\n      jumpi\n      dup3\n      swap1\n      sub\n      0x1f\n      and\n      dup3\n      add\n      swap2\n    tag_266:\n      pop\n      pop\n      pop\n      pop\n      pop\n      swap1\n      pop\n        /* \"contracts/on_chain_manager/AbstractManager.sol\":2973:2983  contractId */\n      0x06\n      0x00\n        /* \"contracts/on_chain_manager/AbstractManager.sol\":2973:2985  contractId++ */\n      dup2\n      sload\n      dup1\n      swap3\n      swap2\n      swap1\n      tag_269\n      swap1\n      tag_214\n      jump\t// in\n    tag_269:\n      swap2\n      swap1\n      pop\n      sstore\n      pop\n        /* \"contracts/on_chain_manager/AbstractManager.sol\":3023:3088  Contract(shardId, bytes20(0), \"\", msg.sender, 0, Status.RESERVED) */\n      mload(0x40)\n      dup1\n      0xc0\n      add\n      0x40\n      mstore\n      dup1\n        /* \"contracts/on_chain_manager/AbstractManager.sol\":3032:3039  shardId */\n      dup4\n        /* \"contracts/on_chain_manager/AbstractManager.sol\":3023:3088  Contract(shardId, bytes20(0), \"\", msg.sender, 0, Status.RESERVED) */\n      0xff\n      and\n      dup2\n      mstore\n      0x20\n      add\n        /* \"contracts/on_chain_manager/AbstractManager.sol\":3049:3050  0 */\n      0x00\n        /* \"contracts/on_chain_manager/AbstractManager.sol\":3041:3051  bytes20(0) */\n      0x60\n      shl\n        /* \"contracts/on_chain_manager/AbstractManager.sol\":3023:3088  Contract(shardId, bytes20(0), \"\", msg.sender, 0, Status.RESERVED) */\n      not(0xffffffffffffffffffffffff)\n      and\n      dup2\n      mstore\n      0x20\n      add\n      mload(0x40)\n      dup1\n      0x20\n      add\n      0x40\n      mstore\n      dup1\n      0x00\n      dup2\n      mstore\n      pop\n      dup2\n      mstore\n      0x20\n      add\n        /* \"contracts/on_chain_manager/AbstractManager.sol\":3057:3067  msg.sender */\n      caller\n        /* \"contracts/on_chain_manager/AbstractManager.sol\":3023:3088  Contract(shardId, bytes20(0), \"\", msg.sender, 0, Status.RESERVED) */\n      0xffffffffffffffffffffffffffffffffffffffff\n      and\n      dup2\n      mstore\n      0x20\n      add\n        /* \"contracts/on_chain_manager/AbstractManager.sol\":3069:3070  0 */\n      0x00\n        /* \"contracts/on_chain_manager/AbstractManager.sol\":3023:3088  Contract(shardId, bytes20(0), \"\", msg.sender, 0, Status.RESERVED) */\n      dup2\n      mstore\n      0x20\n      add\n        /* \"contracts/on_chain_manager/AbstractManager.sol\":3072:3087  Status.RESERVED */\n      0x01\n        /* \"contracts/on_chain_manager/AbstractManager.sol\":3023:3088  Contract(shardId, bytes20(0), \"\", msg.sender, 0, Status.RESERVED) */\n      0x04\n      dup2\n      gt\n      iszero\n      tag_270\n      jumpi\n      tag_271\n      tag_92\n      jump\t// in\n    tag_271:\n    tag_270:\n      dup2\n      mstore\n      pop\n        /* \"contracts/on_chain_manager/AbstractManager.sol\":2999:3008  deployMap */\n      0x01\n        /* \"contracts/on_chain_manager/AbstractManager.sol\":2999:3020  deployMap[contractId] */\n      0x00\n        /* \"contracts/on_chain_manager/AbstractManager.sol\":3009:3019  contractId */\n      sload(0x06)\n        /* \"contracts/on_chain_manager/AbstractManager.sol\":2999:3020  deployMap[contractId] */\n      dup2\n      mstore\n      0x20\n      add\n      swap1\n      dup2\n      mstore\n      0x20\n      add\n      0x00\n      keccak256\n        /* \"contracts/on_chain_manager/AbstractManager.sol\":2999:3088  deployMap[contractId] = Contract(shardId, bytes20(0), \"\", msg.sender, 0, Status.RESERVED) */\n      0x00\n      dup3\n      add\n      mload\n      dup2\n      0x00\n      add\n      exp(0x0100, 0x00)\n      dup2\n      sload\n      dup2\n      0xff\n      mul\n      not\n      and\n      swap1\n      dup4\n      0xff\n      and\n      mul\n      or\n      swap1\n      sstore\n      pop\n      0x20\n      dup3\n      add\n      mload\n      dup2\n      0x00\n      add\n      exp(0x0100, 0x01)\n      dup2\n      sload\n      dup2\n      0xffffffffffffffffffffffffffffffffffffffff\n      mul\n      not\n      and\n      swap1\n      dup4\n      0x60\n      shr\n      mul\n      or\n      swap1\n      sstore\n      pop\n      0x40\n      dup3\n      add\n      mload\n      dup2\n      0x01\n      add\n      swap1\n      dup2\n      tag_272\n      swap2\n      swap1\n      tag_139\n      jump\t// in\n    tag_272:\n      pop\n      0x60\n      dup3\n      add\n      mload\n      dup2\n      0x02\n      add\n      exp(0x0100, 0x00)\n      dup2\n      sload\n      dup2\n      0xffffffffffffffffffffffffffffffffffffffff\n      mul\n      not\n      and\n      swap1\n      dup4\n      0xffffffffffffffffffffffffffffffffffffffff\n      and\n      mul\n      or\n      swap1\n      sstore\n      pop\n      0x80\n      dup3\n      add\n      mload\n      dup2\n      0x03\n      add\n      sstore\n      0xa0\n      dup3\n      add\n      mload\n      dup2\n      0x04\n      add\n      exp(0x0100, 0x00)\n      dup2\n      sload\n      dup2\n      0xff\n      mul\n      not\n      and\n      swap1\n      dup4\n      0x04\n      dup2\n      gt\n      iszero\n      tag_273\n      jumpi\n      tag_274\n      tag_92\n      jump\t// in\n    tag_274:\n    tag_273:\n      mul\n      or\n      swap1\n      sstore\n      pop\n      swap1\n      pop\n      pop\n        /* \"contracts/on_chain_manager/AbstractManager.sol\":3102:3111  shardList */\n      0x02\n        /* \"contracts/on_chain_manager/AbstractManager.sol\":3112:3119  shardId */\n      dup3\n        /* \"contracts/on_chain_manager/AbstractManager.sol\":3102:3120  shardList[shardId] */\n      0xff\n      and\n      dup2\n      sload\n      dup2\n      lt\n      tag_275\n      jumpi\n      tag_276\n      tag_111\n      jump\t// in\n    tag_276:\n    tag_275:\n      swap1\n      0x00\n      mstore\n      keccak256(0x00, 0x20)\n      swap1\n      0x03\n      mul\n      add\n        /* \"contracts/on_chain_manager/AbstractManager.sol\":3102:3130  shardList[shardId].numDeploy */\n      0x02\n      add\n      0x00\n        /* \"contracts/on_chain_manager/AbstractManager.sol\":3102:3132  shardList[shardId].numDeploy++ */\n      dup2\n      sload\n      dup1\n      swap3\n      swap2\n      swap1\n      tag_278\n      swap1\n      tag_214\n      jump\t// in\n    tag_278:\n      swap2\n      swap1\n      pop\n      sstore\n      pop\n        /* \"contracts/on_chain_manager/AbstractManager.sol\":3151:3191  DeployReserved(contractId, shardId, url) */\n      0x7bddc540fb75cc1614fe9ca62cb4543cfd8b8e10f91ad21eac54e165e6892587\n        /* \"contracts/on_chain_manager/AbstractManager.sol\":3166:3176  contractId */\n      sload(0x06)\n        /* \"contracts/on_chain_manager/AbstractManager.sol\":3178:3185  shardId */\n      dup4\n        /* \"contracts/on_chain_manager/AbstractManager.sol\":3187:3190  url */\n      dup4\n        /* \"contracts/on_chain_manager/AbstractManager.sol\":3151:3191  DeployReserved(contractId, shardId, url) */\n      mload(0x40)\n      tag_279\n      swap4\n      swap3\n      swap2\n      swap1\n      tag_280\n      jump\t// in\n    tag_279:\n      mload(0x40)\n      dup1\n      swap2\n      sub\n      swap1\n      log1\n        /* \"contracts/on_chain_manager/AbstractManager.sol\":2895:3279  if(shardId < maxShard){... */\n      jump(tag_281)\n    tag_260:\n        /* \"contracts/on_chain_manager/AbstractManager.sol\":3229:3268  revert(\"No shard available for deploy\") */\n      mload(0x40)\n      0x08c379a000000000000000000000000000000000000000000000000000000000\n      dup2\n      mstore\n      0x04\n      add\n      tag_282\n      swap1\n      tag_283\n      jump\t// in\n    tag_282:\n      mload(0x40)\n      dup1\n      swap2\n      sub\n      swap1\n      revert\n        /* \"contracts/on_chain_manager/AbstractManager.sol\":2895:3279  if(shardId < maxShard){... */\n    tag_281:\n        /* \"contracts/on_chain_manager/AbstractManager.sol\":3296:3306  contractId */\n      sload(0x06)\n        /* \"contracts/on_chain_manager/AbstractManager.sol\":3308:3311  url */\n      dup2\n        /* \"contracts/on_chain_manager/AbstractManager.sol\":3288:3312  return (contractId, url) */\n      swap4\n      pop\n      swap4\n      pop\n      pop\n      pop\n        /* \"contracts/on_chain_manager/AbstractManager.sol\":2728:3319  function reserveDeploy() external atLeastOneShard returns(uint256, string memory){... */\n      swap1\n      swap2\n      jump\t// out\n        /* \"@openzeppelin/contracts/access/Ownable.sol\":2081:2279  function transferOwnership(address newOwner) public virtual onlyOwner {... */\n    tag_74:\n        /* \"@openzeppelin/contracts/access/Ownable.sol\":1094:1107  _checkOwner() */\n      tag_285\n        /* \"@openzeppelin/contracts/access/Ownable.sol\":1094:1105  _checkOwner */\n      tag_131\n        /* \"@openzeppelin/contracts/access/Ownable.sol\":1094:1107  _checkOwner() */\n      jump\t// in\n    tag_285:\n        /* \"@openzeppelin/contracts/access/Ownable.sol\":2189:2190  0 */\n      0x00\n        /* \"@openzeppelin/contracts/access/Ownable.sol\":2169:2191  newOwner != address(0) */\n      0xffffffffffffffffffffffffffffffffffffffff\n      and\n        /* \"@openzeppelin/contracts/access/Ownable.sol\":2169:2177  newOwner */\n      dup2\n        /* \"@openzeppelin/contracts/access/Ownable.sol\":2169:2191  newOwner != address(0) */\n      0xffffffffffffffffffffffffffffffffffffffff\n      and\n      sub\n        /* \"@openzeppelin/contracts/access/Ownable.sol\":2161:2234  require(newOwner != address(0), \"Ownable: new owner is the zero address\") */\n      tag_287\n      jumpi\n      mload(0x40)\n      0x08c379a000000000000000000000000000000000000000000000000000000000\n      dup2\n      mstore\n      0x04\n      add\n      tag_288\n      swap1\n      tag_289\n      jump\t// in\n    tag_288:\n      mload(0x40)\n      dup1\n      swap2\n      sub\n      swap1\n      revert\n    tag_287:\n        /* \"@openzeppelin/contracts/access/Ownable.sol\":2244:2272  _transferOwnership(newOwner) */\n      tag_290\n        /* \"@openzeppelin/contracts/access/Ownable.sol\":2263:2271  newOwner */\n      dup2\n        /* \"@openzeppelin/contracts/access/Ownable.sol\":2244:2262  _transferOwnership */\n      tag_148\n        /* \"@openzeppelin/contracts/access/Ownable.sol\":2244:2272  _transferOwnership(newOwner) */\n      jump\t// in\n    tag_290:\n        /* \"@openzeppelin/contracts/access/Ownable.sol\":2081:2279  function transferOwnership(address newOwner) public virtual onlyOwner {... */\n      pop\n      jump\t// out\n        /* \"contracts/on_chain_manager/AbstractManager.sol\":2166:2309  function setShardStatus(uint8 shardId, bool status) external onlyOwner shardExists(shardId) {... */\n    tag_78:\n        /* \"@openzeppelin/contracts/access/Ownable.sol\":1094:1107  _checkOwner() */\n      tag_292\n        /* \"@openzeppelin/contracts/access/Ownable.sol\":1094:1105  _checkOwner */\n      tag_131\n        /* \"@openzeppelin/contracts/access/Ownable.sol\":1094:1107  _checkOwner() */\n      jump\t// in\n    tag_292:\n        /* \"contracts/on_chain_manager/AbstractManager.sol\":2249:2256  shardId */\n      dup2\n        /* \"contracts/on_chain_manager/AbstractManager.sol\":6569:6578  shardList */\n      0x02\n        /* \"contracts/on_chain_manager/AbstractManager.sol\":6569:6585  shardList.length */\n      dup1\n      sload\n      swap1\n      pop\n        /* \"contracts/on_chain_manager/AbstractManager.sol\":6559:6566  shardId */\n      dup2\n        /* \"contracts/on_chain_manager/AbstractManager.sol\":6559:6585  shardId < shardList.length */\n      0xff\n      and\n      lt\n        /* \"contracts/on_chain_manager/AbstractManager.sol\":6551:6610  require(shardId < shardList.length, \"Shard does not exist\") */\n      tag_294\n      jumpi\n      mload(0x40)\n      0x08c379a000000000000000000000000000000000000000000000000000000000\n      dup2\n      mstore\n      0x04\n      add\n      tag_295\n      swap1\n      tag_296\n      jump\t// in\n    tag_295:\n      mload(0x40)\n      dup1\n      swap2\n      sub\n      swap1\n      revert\n    tag_294:\n        /* \"contracts/on_chain_manager/AbstractManager.sol\":2296:2302  status */\n      dup2\n        /* \"contracts/on_chain_manager/AbstractManager.sol\":2268:2277  shardList */\n      0x02\n        /* \"contracts/on_chain_manager/AbstractManager.sol\":2278:2285  shardId */\n      dup5\n        /* \"contracts/on_chain_manager/AbstractManager.sol\":2268:2286  shardList[shardId] */\n      0xff\n      and\n      dup2\n      sload\n      dup2\n      lt\n      tag_298\n      jumpi\n      tag_299\n      tag_111\n      jump\t// in\n    tag_299:\n    tag_298:\n      swap1\n      0x00\n      mstore\n      keccak256(0x00, 0x20)\n      swap1\n      0x03\n      mul\n      add\n        /* \"contracts/on_chain_manager/AbstractManager.sol\":2268:2293  shardList[shardId].active */\n      0x01\n      add\n      0x00\n        /* \"contracts/on_chain_manager/AbstractManager.sol\":2268:2302  shardList[shardId].active = status */\n      0x0100\n      exp\n      dup2\n      sload\n      dup2\n      0xff\n      mul\n      not\n      and\n      swap1\n      dup4\n      iszero\n      iszero\n      mul\n      or\n      swap1\n      sstore\n      pop\n        /* \"@openzeppelin/contracts/access/Ownable.sol\":1117:1118  _ */\n      pop\n        /* \"contracts/on_chain_manager/AbstractManager.sol\":2166:2309  function setShardStatus(uint8 shardId, bool status) external onlyOwner shardExists(shardId) {... */\n      pop\n      pop\n      jump\t// out\n        /* \"contracts/on_chain_manager/Manager.sol\":225:721  function defaultAlg() internal override returns(uint8) {... */\n    tag_79:\n        /* \"contracts/on_chain_manager/Manager.sol\":273:278  uint8 */\n      0x00\n        /* \"contracts/on_chain_manager/Manager.sol\":292:307  uint8 loopShard */\n      dup1\n        /* \"contracts/on_chain_manager/Manager.sol\":356:365  shardList */\n      0x02\n        /* \"contracts/on_chain_manager/Manager.sol\":356:372  shardList.length */\n      dup1\n      sload\n      swap1\n      pop\n        /* \"contracts/on_chain_manager/Manager.sol\":351:352  1 */\n      0x01\n        /* \"contracts/on_chain_manager/Manager.sol\":332:341  shardList */\n      0x02\n        /* \"contracts/on_chain_manager/Manager.sol\":332:348  shardList.length */\n      dup1\n      sload\n      swap1\n      pop\n        /* \"contracts/on_chain_manager/Manager.sol\":317:329  currentShard */\n      0x03\n      0x01\n      swap1\n      sload\n      swap1\n      0x0100\n      exp\n      swap1\n      div\n      0xff\n      and\n        /* \"contracts/on_chain_manager/Manager.sol\":317:348  currentShard + shardList.length */\n      0xff\n      and\n      tag_302\n      swap2\n      swap1\n      tag_303\n      jump\t// in\n    tag_302:\n        /* \"contracts/on_chain_manager/Manager.sol\":317:352  currentShard + shardList.length - 1 */\n      tag_304\n      swap2\n      swap1\n      tag_141\n      jump\t// in\n    tag_304:\n        /* \"contracts/on_chain_manager/Manager.sol\":316:372  (currentShard + shardList.length - 1) % shardList.length */\n      tag_305\n      swap2\n      swap1\n      tag_306\n      jump\t// in\n    tag_305:\n        /* \"contracts/on_chain_manager/Manager.sol\":292:373  uint8 loopShard = uint8((currentShard + shardList.length - 1) % shardList.length) */\n      swap1\n      pop\n        /* \"contracts/on_chain_manager/Manager.sol\":385:537  while(currentShard != loopShard && !shardList[currentShard].active){... */\n    tag_307:\n        /* \"contracts/on_chain_manager/Manager.sol\":407:416  loopShard */\n      dup1\n        /* \"contracts/on_chain_manager/Manager.sol\":391:416  currentShard != loopShard */\n      0xff\n      and\n        /* \"contracts/on_chain_manager/Manager.sol\":391:403  currentShard */\n      0x03\n      0x01\n      swap1\n      sload\n      swap1\n      0x0100\n      exp\n      swap1\n      div\n      0xff\n      and\n        /* \"contracts/on_chain_manager/Manager.sol\":391:416  currentShard != loopShard */\n      0xff\n      and\n      eq\n      iszero\n        /* \"contracts/on_chain_manager/Manager.sol\":391:451  currentShard != loopShard && !shardList[currentShard].active */\n      dup1\n      iszero\n      tag_309\n      jumpi\n      pop\n        /* \"contracts/on_chain_manager/Manager.sol\":421:430  shardList */\n      0x02\n        /* \"contracts/on_chain_manager/Manager.sol\":431:443  currentShard */\n      0x03\n      0x01\n      swap1\n      sload\n      swap1\n      0x0100\n      exp\n      swap1\n      div\n      0xff\n      and\n        /* \"contracts/on_chain_manager/Manager.sol\":421:444  shardList[currentShard] */\n      0xff\n      and\n      dup2\n      sload\n      dup2\n      lt\n      tag_310\n      jumpi\n      tag_311\n      tag_111\n      jump\t// in\n    tag_311:\n    tag_310:\n      swap1\n      0x00\n      mstore\n      keccak256(0x00, 0x20)\n      swap1\n      0x03\n      mul\n      add\n        /* \"contracts/on_chain_manager/Manager.sol\":421:451  shardList[currentShard].active */\n      0x01\n      add\n      0x00\n      swap1\n      sload\n      swap1\n      0x0100\n      exp\n      swap1\n      div\n      0xff\n      and\n        /* \"contracts/on_chain_manager/Manager.sol\":420:451  !shardList[currentShard].active */\n      iszero\n        /* \"contracts/on_chain_manager/Manager.sol\":391:451  currentShard != loopShard && !shardList[currentShard].active */\n    tag_309:\n        /* \"contracts/on_chain_manager/Manager.sol\":385:537  while(currentShard != loopShard && !shardList[currentShard].active){... */\n      iszero\n      tag_308\n      jumpi\n        /* \"contracts/on_chain_manager/Manager.sol\":508:517  shardList */\n      0x02\n        /* \"contracts/on_chain_manager/Manager.sol\":508:524  shardList.length */\n      dup1\n      sload\n      swap1\n      pop\n        /* \"contracts/on_chain_manager/Manager.sol\":503:504  1 */\n      0x01\n        /* \"contracts/on_chain_manager/Manager.sol\":488:500  currentShard */\n      0x03\n      0x01\n      swap1\n      sload\n      swap1\n      0x0100\n      exp\n      swap1\n      div\n      0xff\n      and\n        /* \"contracts/on_chain_manager/Manager.sol\":488:504  currentShard + 1 */\n      tag_313\n      swap2\n      swap1\n      tag_314\n      jump\t// in\n    tag_313:\n        /* \"contracts/on_chain_manager/Manager.sol\":487:524  (currentShard + 1) % shardList.length */\n      0xff\n      and\n      tag_315\n      swap2\n      swap1\n      tag_306\n      jump\t// in\n    tag_315:\n        /* \"contracts/on_chain_manager/Manager.sol\":466:478  currentShard */\n      0x03\n      0x01\n        /* \"contracts/on_chain_manager/Manager.sol\":466:525  currentShard = uint8((currentShard + 1) % shardList.length) */\n      0x0100\n      exp\n      dup2\n      sload\n      dup2\n      0xff\n      mul\n      not\n      and\n      swap1\n      dup4\n      0xff\n      and\n      mul\n      or\n      swap1\n      sstore\n      pop\n        /* \"contracts/on_chain_manager/Manager.sol\":385:537  while(currentShard != loopShard && !shardList[currentShard].active){... */\n      jump(tag_307)\n    tag_308:\n        /* \"contracts/on_chain_manager/Manager.sol\":548:561  uint8 shardId */\n      0x00\n        /* \"contracts/on_chain_manager/Manager.sol\":564:573  shardList */\n      0x02\n        /* \"contracts/on_chain_manager/Manager.sol\":574:586  currentShard */\n      0x03\n      0x01\n      swap1\n      sload\n      swap1\n      0x0100\n      exp\n      swap1\n      div\n      0xff\n      and\n        /* \"contracts/on_chain_manager/Manager.sol\":564:587  shardList[currentShard] */\n      0xff\n      and\n      dup2\n      sload\n      dup2\n      lt\n      tag_316\n      jumpi\n      tag_317\n      tag_111\n      jump\t// in\n    tag_317:\n    tag_316:\n      swap1\n      0x00\n      mstore\n      keccak256(0x00, 0x20)\n      swap1\n      0x03\n      mul\n      add\n        /* \"contracts/on_chain_manager/Manager.sol\":564:594  shardList[currentShard].active */\n      0x01\n      add\n      0x00\n      swap1\n      sload\n      swap1\n      0x0100\n      exp\n      swap1\n      div\n      0xff\n      and\n        /* \"contracts/on_chain_manager/Manager.sol\":564:619  shardList[currentShard].active? currentShard : maxShard */\n      tag_319\n      jumpi\n        /* \"contracts/on_chain_manager/Manager.sol\":611:619  maxShard */\n      0x07\n      0x00\n      swap1\n      sload\n      swap1\n      0x0100\n      exp\n      swap1\n      div\n      0xff\n      and\n        /* \"contracts/on_chain_manager/Manager.sol\":564:619  shardList[currentShard].active? currentShard : maxShard */\n      jump(tag_320)\n    tag_319:\n        /* \"contracts/on_chain_manager/Manager.sol\":596:608  currentShard */\n      0x03\n      0x01\n      swap1\n      sload\n      swap1\n      0x0100\n      exp\n      swap1\n      div\n      0xff\n      and\n        /* \"contracts/on_chain_manager/Manager.sol\":564:619  shardList[currentShard].active? currentShard : maxShard */\n    tag_320:\n        /* \"contracts/on_chain_manager/Manager.sol\":548:619  uint8 shardId = shardList[currentShard].active? currentShard : maxShard */\n      swap1\n      pop\n        /* \"contracts/on_chain_manager/Manager.sol\":672:681  shardList */\n      0x02\n        /* \"contracts/on_chain_manager/Manager.sol\":672:688  shardList.length */\n      dup1\n      sload\n      swap1\n      pop\n        /* \"contracts/on_chain_manager/Manager.sol\":667:668  1 */\n      0x01\n        /* \"contracts/on_chain_manager/Manager.sol\":652:664  currentShard */\n      0x03\n      0x01\n      swap1\n      sload\n      swap1\n      0x0100\n      exp\n      swap1\n      div\n      0xff\n      and\n        /* \"contracts/on_chain_manager/Manager.sol\":652:668  currentShard + 1 */\n      tag_321\n      swap2\n      swap1\n      tag_314\n      jump\t// in\n    tag_321:\n        /* \"contracts/on_chain_manager/Manager.sol\":651:688  (currentShard + 1) % shardList.length */\n      0xff\n      and\n      tag_322\n      swap2\n      swap1\n      tag_306\n      jump\t// in\n    tag_322:\n        /* \"contracts/on_chain_manager/Manager.sol\":630:642  currentShard */\n      0x03\n      0x01\n        /* \"contracts/on_chain_manager/Manager.sol\":630:689  currentShard = uint8((currentShard + 1) % shardList.length) */\n      0x0100\n      exp\n      dup2\n      sload\n      dup2\n      0xff\n      mul\n      not\n      and\n      swap1\n      dup4\n      0xff\n      and\n      mul\n      or\n      swap1\n      sstore\n      pop\n        /* \"contracts/on_chain_manager/Manager.sol\":707:714  shardId */\n      dup1\n        /* \"contracts/on_chain_manager/Manager.sol\":700:714  return shardId */\n      swap3\n      pop\n      pop\n      pop\n        /* \"contracts/on_chain_manager/Manager.sol\":225:721  function defaultAlg() internal override returns(uint8) {... */\n      swap1\n      jump\t// out\n        /* \"contracts/on_chain_manager/Manager.sol\":727:1365  function minDeployAlg() internal view returns(uint8) {... */\n    tag_80:\n        /* \"contracts/on_chain_manager/Manager.sol\":773:778  uint8 */\n      0x00\n        /* \"contracts/on_chain_manager/Manager.sol\":790:807  uint256 minDeploy */\n      dup1\n        /* \"contracts/on_chain_manager/Manager.sol\":817:830  uint8 shardId */\n      0x00\n        /* \"contracts/on_chain_manager/Manager.sol\":833:841  maxShard */\n      0x07\n      0x00\n      swap1\n      sload\n      swap1\n      0x0100\n      exp\n      swap1\n      div\n      0xff\n      and\n        /* \"contracts/on_chain_manager/Manager.sol\":817:841  uint8 shardId = maxShard */\n      swap1\n      pop\n        /* \"contracts/on_chain_manager/Manager.sol\":851:858  uint8 i */\n      0x00\n        /* \"contracts/on_chain_manager/Manager.sol\":869:956  for(i = 0; i < shardList.length && !shardList[i].active; i++){... */\n    tag_324:\n        /* \"contracts/on_chain_manager/Manager.sol\":884:893  shardList */\n      0x02\n        /* \"contracts/on_chain_manager/Manager.sol\":884:900  shardList.length */\n      dup1\n      sload\n      swap1\n      pop\n        /* \"contracts/on_chain_manager/Manager.sol\":880:881  i */\n      dup2\n        /* \"contracts/on_chain_manager/Manager.sol\":880:900  i < shardList.length */\n      0xff\n      and\n      lt\n        /* \"contracts/on_chain_manager/Manager.sol\":880:924  i < shardList.length && !shardList[i].active */\n      dup1\n      iszero\n      tag_327\n      jumpi\n      pop\n        /* \"contracts/on_chain_manager/Manager.sol\":905:914  shardList */\n      0x02\n        /* \"contracts/on_chain_manager/Manager.sol\":915:916  i */\n      dup2\n        /* \"contracts/on_chain_manager/Manager.sol\":905:917  shardList[i] */\n      0xff\n      and\n      dup2\n      sload\n      dup2\n      lt\n      tag_328\n      jumpi\n      tag_329\n      tag_111\n      jump\t// in\n    tag_329:\n    tag_328:\n      swap1\n      0x00\n      mstore\n      keccak256(0x00, 0x20)\n      swap1\n      0x03\n      mul\n      add\n        /* \"contracts/on_chain_manager/Manager.sol\":905:924  shardList[i].active */\n      0x01\n      add\n      0x00\n      swap1\n      sload\n      swap1\n      0x0100\n      exp\n      swap1\n      div\n      0xff\n      and\n        /* \"contracts/on_chain_manager/Manager.sol\":904:924  !shardList[i].active */\n      iszero\n        /* \"contracts/on_chain_manager/Manager.sol\":880:924  i < shardList.length && !shardList[i].active */\n    tag_327:\n        /* \"contracts/on_chain_manager/Manager.sol\":869:956  for(i = 0; i < shardList.length && !shardList[i].active; i++){... */\n      iszero\n      tag_325\n      jumpi\n        /* \"contracts/on_chain_manager/Manager.sol\":926:929  i++ */\n      dup1\n      dup1\n      tag_331\n      swap1\n      tag_332\n      jump\t// in\n    tag_331:\n      swap2\n      pop\n      pop\n        /* \"contracts/on_chain_manager/Manager.sol\":869:956  for(i = 0; i < shardList.length && !shardList[i].active; i++){... */\n      jump(tag_324)\n    tag_325:\n        /* \"contracts/on_chain_manager/Manager.sol\":973:982  shardList */\n      0x02\n        /* \"contracts/on_chain_manager/Manager.sol\":973:989  shardList.length */\n      dup1\n      sload\n      swap1\n      pop\n        /* \"contracts/on_chain_manager/Manager.sol\":969:970  i */\n      dup2\n        /* \"contracts/on_chain_manager/Manager.sol\":969:989  i < shardList.length */\n      0xff\n      and\n      lt\n        /* \"contracts/on_chain_manager/Manager.sol\":966:1334  if(i < shardList.length){... */\n      iszero\n      tag_333\n      jumpi\n        /* \"contracts/on_chain_manager/Manager.sol\":1014:1015  i */\n      dup1\n        /* \"contracts/on_chain_manager/Manager.sol\":1004:1015  shardId = i */\n      swap2\n      pop\n        /* \"contracts/on_chain_manager/Manager.sol\":1041:1050  shardList */\n      0x02\n        /* \"contracts/on_chain_manager/Manager.sol\":1051:1052  i */\n      dup2\n        /* \"contracts/on_chain_manager/Manager.sol\":1041:1053  shardList[i] */\n      0xff\n      and\n      dup2\n      sload\n      dup2\n      lt\n      tag_334\n      jumpi\n      tag_335\n      tag_111\n      jump\t// in\n    tag_335:\n    tag_334:\n      swap1\n      0x00\n      mstore\n      keccak256(0x00, 0x20)\n      swap1\n      0x03\n      mul\n      add\n        /* \"contracts/on_chain_manager/Manager.sol\":1041:1063  shardList[i].numDeploy */\n      0x02\n      add\n      sload\n        /* \"contracts/on_chain_manager/Manager.sol\":1029:1063  minDeploy = shardList[i].numDeploy */\n      swap3\n      pop\n        /* \"contracts/on_chain_manager/Manager.sol\":1082:1089  uint8 j */\n      0x00\n        /* \"contracts/on_chain_manager/Manager.sol\":1094:1095  1 */\n      0x01\n        /* \"contracts/on_chain_manager/Manager.sol\":1092:1093  i */\n      dup3\n        /* \"contracts/on_chain_manager/Manager.sol\":1092:1095  i+1 */\n      tag_340\n      swap2\n      swap1\n      tag_314\n      jump\t// in\n    tag_340:\n        /* \"contracts/on_chain_manager/Manager.sol\":1082:1095  uint8 j = i+1 */\n      swap1\n      pop\n        /* \"contracts/on_chain_manager/Manager.sol\":1078:1324  for(uint8 j = i+1; j < shardList.length; j++){... */\n    tag_337:\n        /* \"contracts/on_chain_manager/Manager.sol\":1101:1110  shardList */\n      0x02\n        /* \"contracts/on_chain_manager/Manager.sol\":1101:1117  shardList.length */\n      dup1\n      sload\n      swap1\n      pop\n        /* \"contracts/on_chain_manager/Manager.sol\":1097:1098  j */\n      dup2\n        /* \"contracts/on_chain_manager/Manager.sol\":1097:1117  j < shardList.length */\n      0xff\n      and\n      lt\n        /* \"contracts/on_chain_manager/Manager.sol\":1078:1324  for(uint8 j = i+1; j < shardList.length; j++){... */\n      iszero\n      tag_338\n      jumpi\n        /* \"contracts/on_chain_manager/Manager.sol\":1144:1153  shardList */\n      0x02\n        /* \"contracts/on_chain_manager/Manager.sol\":1154:1155  j */\n      dup2\n        /* \"contracts/on_chain_manager/Manager.sol\":1144:1156  shardList[j] */\n      0xff\n      and\n      dup2\n      sload\n      dup2\n      lt\n      tag_341\n      jumpi\n      tag_342\n      tag_111\n      jump\t// in\n    tag_342:\n    tag_341:\n      swap1\n      0x00\n      mstore\n      keccak256(0x00, 0x20)\n      swap1\n      0x03\n      mul\n      add\n        /* \"contracts/on_chain_manager/Manager.sol\":1144:1163  shardList[j].active */\n      0x01\n      add\n      0x00\n      swap1\n      sload\n      swap1\n      0x0100\n      exp\n      swap1\n      div\n      0xff\n      and\n        /* \"contracts/on_chain_manager/Manager.sol\":1144:1201  shardList[j].active && shardList[j].numDeploy < minDeploy */\n      dup1\n      iszero\n      tag_344\n      jumpi\n      pop\n        /* \"contracts/on_chain_manager/Manager.sol\":1192:1201  minDeploy */\n      dup4\n        /* \"contracts/on_chain_manager/Manager.sol\":1167:1176  shardList */\n      0x02\n        /* \"contracts/on_chain_manager/Manager.sol\":1177:1178  j */\n      dup3\n        /* \"contracts/on_chain_manager/Manager.sol\":1167:1179  shardList[j] */\n      0xff\n      and\n      dup2\n      sload\n      dup2\n      lt\n      tag_345\n      jumpi\n      tag_346\n      tag_111\n      jump\t// in\n    tag_346:\n    tag_345:\n      swap1\n      0x00\n      mstore\n      keccak256(0x00, 0x20)\n      swap1\n      0x03\n      mul\n      add\n        /* \"contracts/on_chain_manager/Manager.sol\":1167:1189  shardList[j].numDeploy */\n      0x02\n      add\n      sload\n        /* \"contracts/on_chain_manager/Manager.sol\":1167:1201  shardList[j].numDeploy < minDeploy */\n      lt\n        /* \"contracts/on_chain_manager/Manager.sol\":1144:1201  shardList[j].active && shardList[j].numDeploy < minDeploy */\n    tag_344:\n        /* \"contracts/on_chain_manager/Manager.sol\":1141:1310  if(shardList[j].active && shardList[j].numDeploy < minDeploy){... */\n      iszero\n      tag_348\n      jumpi\n        /* \"contracts/on_chain_manager/Manager.sol\":1234:1235  j */\n      dup1\n        /* \"contracts/on_chain_manager/Manager.sol\":1224:1235  shardId = j */\n      swap3\n      pop\n        /* \"contracts/on_chain_manager/Manager.sol\":1269:1278  shardList */\n      0x02\n        /* \"contracts/on_chain_manager/Manager.sol\":1279:1280  j */\n      dup2\n        /* \"contracts/on_chain_manager/Manager.sol\":1269:1281  shardList[j] */\n      0xff\n      and\n      dup2\n      sload\n      dup2\n      lt\n      tag_349\n      jumpi\n      tag_350\n      tag_111\n      jump\t// in\n    tag_350:\n    tag_349:\n      swap1\n      0x00\n      mstore\n      keccak256(0x00, 0x20)\n      swap1\n      0x03\n      mul\n      add\n        /* \"contracts/on_chain_manager/Manager.sol\":1269:1291  shardList[j].numDeploy */\n      0x02\n      add\n      sload\n        /* \"contracts/on_chain_manager/Manager.sol\":1257:1291  minDeploy = shardList[j].numDeploy */\n      swap4\n      pop\n        /* \"contracts/on_chain_manager/Manager.sol\":1141:1310  if(shardList[j].active && shardList[j].numDeploy < minDeploy){... */\n    tag_348:\n        /* \"contracts/on_chain_manager/Manager.sol\":1119:1122  j++ */\n      dup1\n      dup1\n      tag_352\n      swap1\n      tag_332\n      jump\t// in\n    tag_352:\n      swap2\n      pop\n      pop\n        /* \"contracts/on_chain_manager/Manager.sol\":1078:1324  for(uint8 j = i+1; j < shardList.length; j++){... */\n      jump(tag_337)\n    tag_338:\n      pop\n        /* \"contracts/on_chain_manager/Manager.sol\":966:1334  if(i < shardList.length){... */\n    tag_333:\n        /* \"contracts/on_chain_manager/Manager.sol\":1351:1358  shardId */\n      dup2\n        /* \"contracts/on_chain_manager/Manager.sol\":1344:1358  return shardId */\n      swap4\n      pop\n      pop\n      pop\n      pop\n        /* \"contracts/on_chain_manager/Manager.sol\":727:1365  function minDeployAlg() internal view returns(uint8) {... */\n      swap1\n      jump\t// out\n        /* \"contracts/on_chain_manager/AbstractManager.sol\":2326:2677  function getInfoByDeployId(uint256 id) internal view returns(uint8, string memory, bytes20, string memory){... */\n    tag_100:\n        /* \"contracts/on_chain_manager/AbstractManager.sol\":2387:2392  uint8 */\n      0x00\n        /* \"contracts/on_chain_manager/AbstractManager.sol\":2394:2407  string memory */\n      0x60\n        /* \"contracts/on_chain_manager/AbstractManager.sol\":2409:2416  bytes20 */\n      0x00\n        /* \"contracts/on_chain_manager/AbstractManager.sol\":2418:2431  string memory */\n      0x60\n        /* \"contracts/on_chain_manager/AbstractManager.sol\":2442:2455  uint8 shardId */\n      0x00\n        /* \"contracts/on_chain_manager/AbstractManager.sol\":2458:2467  deployMap */\n      0x01\n        /* \"contracts/on_chain_manager/AbstractManager.sol\":2458:2471  deployMap[id] */\n      0x00\n        /* \"contracts/on_chain_manager/AbstractManager.sol\":2468:2470  id */\n      dup8\n        /* \"contracts/on_chain_manager/AbstractManager.sol\":2458:2471  deployMap[id] */\n      dup2\n      mstore\n      0x20\n      add\n      swap1\n      dup2\n      mstore\n      0x20\n      add\n      0x00\n      keccak256\n        /* \"contracts/on_chain_manager/AbstractManager.sol\":2458:2479  deployMap[id].shardId */\n      0x00\n      add\n      0x00\n      swap1\n      sload\n      swap1\n      0x0100\n      exp\n      swap1\n      div\n      0xff\n      and\n        /* \"contracts/on_chain_manager/AbstractManager.sol\":2442:2479  uint8 shardId = deployMap[id].shardId */\n      swap1\n      pop\n        /* \"contracts/on_chain_manager/AbstractManager.sol\":2489:2508  string memory shard */\n      0x00\n        /* \"contracts/on_chain_manager/AbstractManager.sol\":2511:2520  shardList */\n      0x02\n        /* \"contracts/on_chain_manager/AbstractManager.sol\":2521:2528  shardId */\n      dup3\n        /* \"contracts/on_chain_manager/AbstractManager.sol\":2511:2529  shardList[shardId] */\n      0xff\n      and\n      dup2\n      sload\n      dup2\n      lt\n      tag_354\n      jumpi\n      tag_355\n      tag_111\n      jump\t// in\n    tag_355:\n    tag_354:\n      swap1\n      0x00\n      mstore\n      keccak256(0x00, 0x20)\n      swap1\n      0x03\n      mul\n      add\n        /* \"contracts/on_chain_manager/AbstractManager.sol\":2511:2533  shardList[shardId].url */\n      0x00\n      add\n        /* \"contracts/on_chain_manager/AbstractManager.sol\":2489:2533  string memory shard = shardList[shardId].url */\n      dup1\n      sload\n      tag_357\n      swap1\n      tag_119\n      jump\t// in\n    tag_357:\n      dup1\n      0x1f\n      add\n      0x20\n      dup1\n      swap2\n      div\n      mul\n      0x20\n      add\n      mload(0x40)\n      swap1\n      dup2\n      add\n      0x40\n      mstore\n      dup1\n      swap3\n      swap2\n      swap1\n      dup2\n      dup2\n      mstore\n      0x20\n      add\n      dup3\n      dup1\n      sload\n      tag_358\n      swap1\n      tag_119\n      jump\t// in\n    tag_358:\n      dup1\n      iszero\n      tag_359\n      jumpi\n      dup1\n      0x1f\n      lt\n      tag_360\n      jumpi\n      0x0100\n      dup1\n      dup4\n      sload\n      div\n      mul\n      dup4\n      mstore\n      swap2\n      0x20\n      add\n      swap2\n      jump(tag_359)\n    tag_360:\n      dup3\n      add\n      swap2\n      swap1\n      0x00\n      mstore\n      keccak256(0x00, 0x20)\n      swap1\n    tag_361:\n      dup2\n      sload\n      dup2\n      mstore\n      swap1\n      0x01\n      add\n      swap1\n      0x20\n      add\n      dup1\n      dup4\n      gt\n      tag_361\n      jumpi\n      dup3\n      swap1\n      sub\n      0x1f\n      and\n      dup3\n      add\n      swap2\n    tag_359:\n      pop\n      pop\n      pop\n      pop\n      pop\n      swap1\n      pop\n        /* \"contracts/on_chain_manager/AbstractManager.sol\":2543:2555  bytes20 addr */\n      0x00\n        /* \"contracts/on_chain_manager/AbstractManager.sol\":2558:2567  deployMap */\n      0x01\n        /* \"contracts/on_chain_manager/AbstractManager.sol\":2558:2571  deployMap[id] */\n      0x00\n        /* \"contracts/on_chain_manager/AbstractManager.sol\":2568:2570  id */\n      dup10\n        /* \"contracts/on_chain_manager/AbstractManager.sol\":2558:2571  deployMap[id] */\n      dup2\n      mstore\n      0x20\n      add\n      swap1\n      dup2\n      mstore\n      0x20\n      add\n      0x00\n      keccak256\n        /* \"contracts/on_chain_manager/AbstractManager.sol\":2558:2576  deployMap[id].addr */\n      0x00\n      add\n      0x01\n      swap1\n      sload\n      swap1\n      0x0100\n      exp\n      swap1\n      div\n      0x60\n      shl\n        /* \"contracts/on_chain_manager/AbstractManager.sol\":2543:2576  bytes20 addr = deployMap[id].addr */\n      swap1\n      pop\n        /* \"contracts/on_chain_manager/AbstractManager.sol\":2586:2604  string memory name */\n      0x00\n        /* \"contracts/on_chain_manager/AbstractManager.sol\":2607:2616  deployMap */\n      0x01\n        /* \"contracts/on_chain_manager/AbstractManager.sol\":2607:2620  deployMap[id] */\n      0x00\n        /* \"contracts/on_chain_manager/AbstractManager.sol\":2617:2619  id */\n      dup11\n        /* \"contracts/on_chain_manager/AbstractManager.sol\":2607:2620  deployMap[id] */\n      dup2\n      mstore\n      0x20\n      add\n      swap1\n      dup2\n      mstore\n      0x20\n      add\n      0x00\n      keccak256\n        /* \"contracts/on_chain_manager/AbstractManager.sol\":2607:2625  deployMap[id].name */\n      0x01\n      add\n        /* \"contracts/on_chain_manager/AbstractManager.sol\":2586:2625  string memory name = deployMap[id].name */\n      dup1\n      sload\n      tag_362\n      swap1\n      tag_119\n      jump\t// in\n    tag_362:\n      dup1\n      0x1f\n      add\n      0x20\n      dup1\n      swap2\n      div\n      mul\n      0x20\n      add\n      mload(0x40)\n      swap1\n      dup2\n      add\n      0x40\n      mstore\n      dup1\n      swap3\n      swap2\n      swap1\n      dup2\n      dup2\n      mstore\n      0x20\n      add\n      dup3\n      dup1\n      sload\n      tag_363\n      swap1\n      tag_119\n      jump\t// in\n    tag_363:\n      dup1\n      iszero\n      tag_364\n      jumpi\n      dup1\n      0x1f\n      lt\n      tag_365\n      jumpi\n      0x0100\n      dup1\n      dup4\n      sload\n      div\n      mul\n      dup4\n      mstore\n      swap2\n      0x20\n      add\n      swap2\n      jump(tag_364)\n    tag_365:\n      dup3\n      add\n      swap2\n      swap1\n      0x00\n      mstore\n      keccak256(0x00, 0x20)\n      swap1\n    tag_366:\n      dup2\n      sload\n      dup2\n      mstore\n      swap1\n      0x01\n      add\n      swap1\n      0x20\n      add\n      dup1\n      dup4\n      gt\n      tag_366\n      jumpi\n      dup3\n      swap1\n      sub\n      0x1f\n      and\n      dup3\n      add\n      swap2\n    tag_364:\n      pop\n      pop\n      pop\n      pop\n      pop\n      swap1\n      pop\n        /* \"contracts/on_chain_manager/AbstractManager.sol\":2643:2650  shardId */\n      dup4\n        /* \"contracts/on_chain_manager/AbstractManager.sol\":2652:2657  shard */\n      dup4\n        /* \"contracts/on_chain_manager/AbstractManager.sol\":2659:2663  addr */\n      dup4\n        /* \"contracts/on_chain_manager/AbstractManager.sol\":2665:2669  name */\n      dup4\n        /* \"contracts/on_chain_manager/AbstractManager.sol\":2635:2670  return (shardId, shard, addr, name) */\n      swap8\n      pop\n      swap8\n      pop\n      swap8\n      pop\n      swap8\n      pop\n      pop\n      pop\n      pop\n      pop\n        /* \"contracts/on_chain_manager/AbstractManager.sol\":2326:2677  function getInfoByDeployId(uint256 id) internal view returns(uint8, string memory, bytes20, string memory){... */\n      swap2\n      swap4\n      pop\n      swap2\n      swap4\n      jump\t// out\n        /* \"@openzeppelin/contracts/access/Ownable.sol\":1359:1489  function _checkOwner() internal view virtual {... */\n    tag_131:\n        /* \"@openzeppelin/contracts/access/Ownable.sol\":1433:1445  _msgSender() */\n      tag_368\n        /* \"@openzeppelin/contracts/access/Ownable.sol\":1433:1443  _msgSender */\n      tag_369\n        /* \"@openzeppelin/contracts/access/Ownable.sol\":1433:1445  _msgSender() */\n      jump\t// in\n    tag_368:\n        /* \"@openzeppelin/contracts/access/Ownable.sol\":1422:1445  owner() == _msgSender() */\n      0xffffffffffffffffffffffffffffffffffffffff\n      and\n        /* \"@openzeppelin/contracts/access/Ownable.sol\":1422:1429  owner() */\n      tag_370\n        /* \"@openzeppelin/contracts/access/Ownable.sol\":1422:1427  owner */\n      tag_51\n        /* \"@openzeppelin/contracts/access/Ownable.sol\":1422:1429  owner() */\n      jump\t// in\n    tag_370:\n        /* \"@openzeppelin/contracts/access/Ownable.sol\":1422:1445  owner() == _msgSender() */\n      0xffffffffffffffffffffffffffffffffffffffff\n      and\n      eq\n        /* \"@openzeppelin/contracts/access/Ownable.sol\":1414:1482  require(owner() == _msgSender(), \"Ownable: caller is not the owner\") */\n      tag_371\n      jumpi\n      mload(0x40)\n      0x08c379a000000000000000000000000000000000000000000000000000000000\n      dup2\n      mstore\n      0x04\n      add\n      tag_372\n      swap1\n      tag_373\n      jump\t// in\n    tag_372:\n      mload(0x40)\n      dup1\n      swap2\n      sub\n      swap1\n      revert\n    tag_371:\n        /* \"@openzeppelin/contracts/access/Ownable.sol\":1359:1489  function _checkOwner() internal view virtual {... */\n      jump\t// out\n        /* \"@openzeppelin/contracts/access/Ownable.sol\":2433:2620  function _transferOwnership(address newOwner) internal virtual {... */\n    tag_148:\n        /* \"@openzeppelin/contracts/access/Ownable.sol\":2506:2522  address oldOwner */\n      0x00\n        /* \"@openzeppelin/contracts/access/Ownable.sol\":2525:2531  _owner */\n      dup1\n      0x00\n      swap1\n      sload\n      swap1\n      0x0100\n      exp\n      swap1\n      div\n      0xffffffffffffffffffffffffffffffffffffffff\n      and\n        /* \"@openzeppelin/contracts/access/Ownable.sol\":2506:2531  address oldOwner = _owner */\n      swap1\n      pop\n        /* \"@openzeppelin/contracts/access/Ownable.sol\":2550:2558  newOwner */\n      dup2\n        /* \"@openzeppelin/contracts/access/Ownable.sol\":2541:2547  _owner */\n      0x00\n      dup1\n        /* \"@openzeppelin/contracts/access/Ownable.sol\":2541:2558  _owner = newOwner */\n      0x0100\n      exp\n      dup2\n      sload\n      dup2\n      0xffffffffffffffffffffffffffffffffffffffff\n      mul\n      not\n      and\n      swap1\n      dup4\n      0xffffffffffffffffffffffffffffffffffffffff\n      and\n      mul\n      or\n      swap1\n      sstore\n      pop\n        /* \"@openzeppelin/contracts/access/Ownable.sol\":2604:2612  newOwner */\n      dup2\n        /* \"@openzeppelin/contracts/access/Ownable.sol\":2573:2613  OwnershipTransferred(oldOwner, newOwner) */\n      0xffffffffffffffffffffffffffffffffffffffff\n      and\n        /* \"@openzeppelin/contracts/access/Ownable.sol\":2594:2602  oldOwner */\n      dup2\n        /* \"@openzeppelin/contracts/access/Ownable.sol\":2573:2613  OwnershipTransferred(oldOwner, newOwner) */\n      0xffffffffffffffffffffffffffffffffffffffff\n      and\n      0x8be0079c531659141344cd1fd0a4f28419497f9722a3daafe3b4186f6b6457e0\n      mload(0x40)\n      mload(0x40)\n      dup1\n      swap2\n      sub\n      swap1\n      log3\n        /* \"@openzeppelin/contracts/access/Ownable.sol\":2496:2620  {... */\n      pop\n        /* \"@openzeppelin/contracts/access/Ownable.sol\":2433:2620  function _transferOwnership(address newOwner) internal virtual {... */\n      pop\n      jump\t// out\n        /* \"@openzeppelin/contracts/utils/Context.sol\":640:736  function _msgSender() internal view virtual returns (address) {... */\n    tag_369:\n        /* \"@openzeppelin/contracts/utils/Context.sol\":693:700  address */\n      0x00\n        /* \"@openzeppelin/contracts/utils/Context.sol\":719:729  msg.sender */\n      caller\n        /* \"@openzeppelin/contracts/utils/Context.sol\":712:729  return msg.sender */\n      swap1\n      pop\n        /* \"@openzeppelin/contracts/utils/Context.sol\":640:736  function _msgSender() internal view virtual returns (address) {... */\n      swap1\n      jump\t// out\n    tag_108:\n      pop\n      dup1\n      sload\n      tag_376\n      swap1\n      tag_119\n      jump\t// in\n    tag_376:\n      0x00\n      dup3\n      sstore\n      dup1\n      0x1f\n      lt\n      tag_378\n      jumpi\n      pop\n      jump(tag_377)\n    tag_378:\n      0x1f\n      add\n      0x20\n      swap1\n      div\n      swap1\n      0x00\n      mstore\n      keccak256(0x00, 0x20)\n      swap1\n      dup2\n      add\n      swap1\n      tag_379\n      swap2\n      swap1\n      tag_380\n      jump\t// in\n    tag_379:\n    tag_377:\n      pop\n      jump\t// out\n    tag_259:\n      tag_381\n      tag_382\n      jump\t// in\n    tag_381:\n      jump\t// out\n    tag_380:\n    tag_383:\n      dup1\n      dup3\n      gt\n      iszero\n      tag_384\n      jumpi\n      0x00\n      dup2\n      0x00\n      swap1\n      sstore\n      pop\n      0x01\n      add\n      jump(tag_383)\n    tag_384:\n      pop\n      swap1\n      jump\t// out\n        /* \"#utility.yul\":88:205   */\n    tag_386:\n        /* \"#utility.yul\":197:198   */\n      0x00\n        /* \"#utility.yul\":194:195   */\n      dup1\n        /* \"#utility.yul\":187:199   */\n      revert\n        /* \"#utility.yul\":211:328   */\n    tag_387:\n        /* \"#utility.yul\":320:321   */\n      0x00\n        /* \"#utility.yul\":317:318   */\n      dup1\n        /* \"#utility.yul\":310:322   */\n      revert\n        /* \"#utility.yul\":334:411   */\n    tag_388:\n        /* \"#utility.yul\":371:378   */\n      0x00\n        /* \"#utility.yul\":400:405   */\n      dup2\n        /* \"#utility.yul\":389:405   */\n      swap1\n      pop\n        /* \"#utility.yul\":334:411   */\n      swap2\n      swap1\n      pop\n      jump\t// out\n        /* \"#utility.yul\":417:539   */\n    tag_389:\n        /* \"#utility.yul\":490:514   */\n      tag_472\n        /* \"#utility.yul\":508:513   */\n      dup2\n        /* \"#utility.yul\":490:514   */\n      tag_388\n      jump\t// in\n    tag_472:\n        /* \"#utility.yul\":483:488   */\n      dup2\n        /* \"#utility.yul\":480:515   */\n      eq\n        /* \"#utility.yul\":470:533   */\n      tag_473\n      jumpi\n        /* \"#utility.yul\":529:530   */\n      0x00\n        /* \"#utility.yul\":526:527   */\n      dup1\n        /* \"#utility.yul\":519:531   */\n      revert\n        /* \"#utility.yul\":470:533   */\n    tag_473:\n        /* \"#utility.yul\":417:539   */\n      pop\n      jump\t// out\n        /* \"#utility.yul\":545:684   */\n    tag_390:\n        /* \"#utility.yul\":591:596   */\n      0x00\n        /* \"#utility.yul\":629:635   */\n      dup2\n        /* \"#utility.yul\":616:636   */\n      calldataload\n        /* \"#utility.yul\":607:636   */\n      swap1\n      pop\n        /* \"#utility.yul\":645:678   */\n      tag_475\n        /* \"#utility.yul\":672:677   */\n      dup2\n        /* \"#utility.yul\":645:678   */\n      tag_389\n      jump\t// in\n    tag_475:\n        /* \"#utility.yul\":545:684   */\n      swap3\n      swap2\n      pop\n      pop\n      jump\t// out\n        /* \"#utility.yul\":690:780   */\n    tag_391:\n        /* \"#utility.yul\":724:731   */\n      0x00\n        /* \"#utility.yul\":767:772   */\n      dup2\n        /* \"#utility.yul\":760:773   */\n      iszero\n        /* \"#utility.yul\":753:774   */\n      iszero\n        /* \"#utility.yul\":742:774   */\n      swap1\n      pop\n        /* \"#utility.yul\":690:780   */\n      swap2\n      swap1\n      pop\n      jump\t// out\n        /* \"#utility.yul\":786:902   */\n    tag_392:\n        /* \"#utility.yul\":856:877   */\n      tag_478\n        /* \"#utility.yul\":871:876   */\n      dup2\n        /* \"#utility.yul\":856:877   */\n      tag_391\n      jump\t// in\n    tag_478:\n        /* \"#utility.yul\":849:854   */\n      dup2\n        /* \"#utility.yul\":846:878   */\n      eq\n        /* \"#utility.yul\":836:896   */\n      tag_479\n      jumpi\n        /* \"#utility.yul\":892:893   */\n      0x00\n        /* \"#utility.yul\":889:890   */\n      dup1\n        /* \"#utility.yul\":882:894   */\n      revert\n        /* \"#utility.yul\":836:896   */\n    tag_479:\n        /* \"#utility.yul\":786:902   */\n      pop\n      jump\t// out\n        /* \"#utility.yul\":908:1041   */\n    tag_393:\n        /* \"#utility.yul\":951:956   */\n      0x00\n        /* \"#utility.yul\":989:995   */\n      dup2\n        /* \"#utility.yul\":976:996   */\n      calldataload\n        /* \"#utility.yul\":967:996   */\n      swap1\n      pop\n        /* \"#utility.yul\":1005:1035   */\n      tag_481\n        /* \"#utility.yul\":1029:1034   */\n      dup2\n        /* \"#utility.yul\":1005:1035   */\n      tag_392\n      jump\t// in\n    tag_481:\n        /* \"#utility.yul\":908:1041   */\n      swap3\n      swap2\n      pop\n      pop\n      jump\t// out\n        /* \"#utility.yul\":1047:1515   */\n    tag_23:\n        /* \"#utility.yul\":1112:1118   */\n      0x00\n        /* \"#utility.yul\":1120:1126   */\n      dup1\n        /* \"#utility.yul\":1169:1171   */\n      0x40\n        /* \"#utility.yul\":1157:1166   */\n      dup4\n        /* \"#utility.yul\":1148:1155   */\n      dup6\n        /* \"#utility.yul\":1144:1167   */\n      sub\n        /* \"#utility.yul\":1140:1172   */\n      slt\n        /* \"#utility.yul\":1137:1256   */\n      iszero\n      tag_483\n      jumpi\n        /* \"#utility.yul\":1175:1254   */\n      tag_484\n      tag_386\n      jump\t// in\n    tag_484:\n        /* \"#utility.yul\":1137:1256   */\n    tag_483:\n        /* \"#utility.yul\":1295:1296   */\n      0x00\n        /* \"#utility.yul\":1320:1373   */\n      tag_485\n        /* \"#utility.yul\":1365:1372   */\n      dup6\n        /* \"#utility.yul\":1356:1362   */\n      dup3\n        /* \"#utility.yul\":1345:1354   */\n      dup7\n        /* \"#utility.yul\":1341:1363   */\n      add\n        /* \"#utility.yul\":1320:1373   */\n      tag_390\n      jump\t// in\n    tag_485:\n        /* \"#utility.yul\":1310:1373   */\n      swap3\n      pop\n        /* \"#utility.yul\":1266:1383   */\n      pop\n        /* \"#utility.yul\":1422:1424   */\n      0x20\n        /* \"#utility.yul\":1448:1498   */\n      tag_486\n        /* \"#utility.yul\":1490:1497   */\n      dup6\n        /* \"#utility.yul\":1481:1487   */\n      dup3\n        /* \"#utility.yul\":1470:1479   */\n      dup7\n        /* \"#utility.yul\":1466:1488   */\n      add\n        /* \"#utility.yul\":1448:1498   */\n      tag_393\n      jump\t// in\n    tag_486:\n        /* \"#utility.yul\":1438:1498   */\n      swap2\n      pop\n        /* \"#utility.yul\":1393:1508   */\n      pop\n        /* \"#utility.yul\":1047:1515   */\n      swap3\n      pop\n      swap3\n      swap1\n      pop\n      jump\t// out\n        /* \"#utility.yul\":1521:1850   */\n    tag_27:\n        /* \"#utility.yul\":1580:1586   */\n      0x00\n        /* \"#utility.yul\":1629:1631   */\n      0x20\n        /* \"#utility.yul\":1617:1626   */\n      dup3\n        /* \"#utility.yul\":1608:1615   */\n      dup5\n        /* \"#utility.yul\":1604:1627   */\n      sub\n        /* \"#utility.yul\":1600:1632   */\n      slt\n        /* \"#utility.yul\":1597:1716   */\n      iszero\n      tag_488\n      jumpi\n        /* \"#utility.yul\":1635:1714   */\n      tag_489\n      tag_386\n      jump\t// in\n    tag_489:\n        /* \"#utility.yul\":1597:1716   */\n    tag_488:\n        /* \"#utility.yul\":1755:1756   */\n      0x00\n        /* \"#utility.yul\":1780:1833   */\n      tag_490\n        /* \"#utility.yul\":1825:1832   */\n      dup5\n        /* \"#utility.yul\":1816:1822   */\n      dup3\n        /* \"#utility.yul\":1805:1814   */\n      dup6\n        /* \"#utility.yul\":1801:1823   */\n      add\n        /* \"#utility.yul\":1780:1833   */\n      tag_390\n      jump\t// in\n    tag_490:\n        /* \"#utility.yul\":1770:1833   */\n      swap2\n      pop\n        /* \"#utility.yul\":1726:1843   */\n      pop\n        /* \"#utility.yul\":1521:1850   */\n      swap3\n      swap2\n      pop\n      pop\n      jump\t// out\n        /* \"#utility.yul\":1856:1955   */\n    tag_394:\n        /* \"#utility.yul\":1908:1914   */\n      0x00\n        /* \"#utility.yul\":1942:1947   */\n      dup2\n        /* \"#utility.yul\":1936:1948   */\n      mload\n        /* \"#utility.yul\":1926:1948   */\n      swap1\n      pop\n        /* \"#utility.yul\":1856:1955   */\n      swap2\n      swap1\n      pop\n      jump\t// out\n        /* \"#utility.yul\":1961:2130   */\n    tag_395:\n        /* \"#utility.yul\":2045:2056   */\n      0x00\n        /* \"#utility.yul\":2079:2085   */\n      dup3\n        /* \"#utility.yul\":2074:2077   */\n      dup3\n        /* \"#utility.yul\":2067:2086   */\n      mstore\n        /* \"#utility.yul\":2119:2123   */\n      0x20\n        /* \"#utility.yul\":2114:2117   */\n      dup3\n        /* \"#utility.yul\":2110:2124   */\n      add\n        /* \"#utility.yul\":2095:2124   */\n      swap1\n      pop\n        /* \"#utility.yul\":1961:2130   */\n      swap3\n      swap2\n      pop\n      pop\n      jump\t// out\n        /* \"#utility.yul\":2136:2382   */\n    tag_396:\n        /* \"#utility.yul\":2217:2218   */\n      0x00\n        /* \"#utility.yul\":2227:2340   */\n    tag_494:\n        /* \"#utility.yul\":2241:2247   */\n      dup4\n        /* \"#utility.yul\":2238:2239   */\n      dup2\n        /* \"#utility.yul\":2235:2248   */\n      lt\n        /* \"#utility.yul\":2227:2340   */\n      iszero\n      tag_496\n      jumpi\n        /* \"#utility.yul\":2326:2327   */\n      dup1\n        /* \"#utility.yul\":2321:2324   */\n      dup3\n        /* \"#utility.yul\":2317:2328   */\n      add\n        /* \"#utility.yul\":2311:2329   */\n      mload\n        /* \"#utility.yul\":2307:2308   */\n      dup2\n        /* \"#utility.yul\":2302:2305   */\n      dup5\n        /* \"#utility.yul\":2298:2309   */\n      add\n        /* \"#utility.yul\":2291:2330   */\n      mstore\n        /* \"#utility.yul\":2263:2265   */\n      0x20\n        /* \"#utility.yul\":2260:2261   */\n      dup2\n        /* \"#utility.yul\":2256:2266   */\n      add\n        /* \"#utility.yul\":2251:2266   */\n      swap1\n      pop\n        /* \"#utility.yul\":2227:2340   */\n      jump(tag_494)\n    tag_496:\n        /* \"#utility.yul\":2374:2375   */\n      0x00\n        /* \"#utility.yul\":2365:2371   */\n      dup5\n        /* \"#utility.yul\":2360:2363   */\n      dup5\n        /* \"#utility.yul\":2356:2372   */\n      add\n        /* \"#utility.yul\":2349:2376   */\n      mstore\n        /* \"#utility.yul\":2198:2382   */\n      pop\n        /* \"#utility.yul\":2136:2382   */\n      pop\n      pop\n      pop\n      jump\t// out\n        /* \"#utility.yul\":2388:2490   */\n    tag_397:\n        /* \"#utility.yul\":2429:2435   */\n      0x00\n        /* \"#utility.yul\":2480:2482   */\n      0x1f\n        /* \"#utility.yul\":2476:2483   */\n      not\n        /* \"#utility.yul\":2471:2473   */\n      0x1f\n        /* \"#utility.yul\":2464:2469   */\n      dup4\n        /* \"#utility.yul\":2460:2474   */\n      add\n        /* \"#utility.yul\":2456:2484   */\n      and\n        /* \"#utility.yul\":2446:2484   */\n      swap1\n      pop\n        /* \"#utility.yul\":2388:2490   */\n      swap2\n      swap1\n      pop\n      jump\t// out\n        /* \"#utility.yul\":2496:2873   */\n    tag_398:\n        /* \"#utility.yul\":2584:2587   */\n      0x00\n        /* \"#utility.yul\":2612:2651   */\n      tag_499\n        /* \"#utility.yul\":2645:2650   */\n      dup3\n        /* \"#utility.yul\":2612:2651   */\n      tag_394\n      jump\t// in\n    tag_499:\n        /* \"#utility.yul\":2667:2738   */\n      tag_500\n        /* \"#utility.yul\":2731:2737   */\n      dup2\n        /* \"#utility.yul\":2726:2729   */\n      dup6\n        /* \"#utility.yul\":2667:2738   */\n      tag_395\n      jump\t// in\n    tag_500:\n        /* \"#utility.yul\":2660:2738   */\n      swap4\n      pop\n        /* \"#utility.yul\":2747:2812   */\n      tag_501\n        /* \"#utility.yul\":2805:2811   */\n      dup2\n        /* \"#utility.yul\":2800:2803   */\n      dup6\n        /* \"#utility.yul\":2793:2797   */\n      0x20\n        /* \"#utility.yul\":2786:2791   */\n      dup7\n        /* \"#utility.yul\":2782:2798   */\n      add\n        /* \"#utility.yul\":2747:2812   */\n      tag_396\n      jump\t// in\n    tag_501:\n        /* \"#utility.yul\":2837:2866   */\n      tag_502\n        /* \"#utility.yul\":2859:2865   */\n      dup2\n        /* \"#utility.yul\":2837:2866   */\n      tag_397\n      jump\t// in\n    tag_502:\n        /* \"#utility.yul\":2832:2835   */\n      dup5\n        /* \"#utility.yul\":2828:2867   */\n      add\n        /* \"#utility.yul\":2821:2867   */\n      swap2\n      pop\n        /* \"#utility.yul\":2588:2873   */\n      pop\n        /* \"#utility.yul\":2496:2873   */\n      swap3\n      swap2\n      pop\n      pop\n      jump\t// out\n        /* \"#utility.yul\":2879:2988   */\n    tag_399:\n        /* \"#utility.yul\":2960:2981   */\n      tag_504\n        /* \"#utility.yul\":2975:2980   */\n      dup2\n        /* \"#utility.yul\":2960:2981   */\n      tag_391\n      jump\t// in\n    tag_504:\n        /* \"#utility.yul\":2955:2958   */\n      dup3\n        /* \"#utility.yul\":2948:2982   */\n      mstore\n        /* \"#utility.yul\":2879:2988   */\n      pop\n      pop\n      jump\t// out\n        /* \"#utility.yul\":2994:3112   */\n    tag_400:\n        /* \"#utility.yul\":3081:3105   */\n      tag_506\n        /* \"#utility.yul\":3099:3104   */\n      dup2\n        /* \"#utility.yul\":3081:3105   */\n      tag_388\n      jump\t// in\n    tag_506:\n        /* \"#utility.yul\":3076:3079   */\n      dup3\n        /* \"#utility.yul\":3069:3106   */\n      mstore\n        /* \"#utility.yul\":2994:3112   */\n      pop\n      pop\n      jump\t// out\n        /* \"#utility.yul\":3118:3639   */\n    tag_30:\n        /* \"#utility.yul\":3281:3285   */\n      0x00\n        /* \"#utility.yul\":3319:3321   */\n      0x60\n        /* \"#utility.yul\":3308:3317   */\n      dup3\n        /* \"#utility.yul\":3304:3322   */\n      add\n        /* \"#utility.yul\":3296:3322   */\n      swap1\n      pop\n        /* \"#utility.yul\":3368:3377   */\n      dup2\n        /* \"#utility.yul\":3362:3366   */\n      dup2\n        /* \"#utility.yul\":3358:3378   */\n      sub\n        /* \"#utility.yul\":3354:3355   */\n      0x00\n        /* \"#utility.yul\":3343:3352   */\n      dup4\n        /* \"#utility.yul\":3339:3356   */\n      add\n        /* \"#utility.yul\":3332:3379   */\n      mstore\n        /* \"#utility.yul\":3396:3474   */\n      tag_508\n        /* \"#utility.yul\":3469:3473   */\n      dup2\n        /* \"#utility.yul\":3460:3466   */\n      dup7\n        /* \"#utility.yul\":3396:3474   */\n      tag_398\n      jump\t// in\n    tag_508:\n        /* \"#utility.yul\":3388:3474   */\n      swap1\n      pop\n        /* \"#utility.yul\":3484:3550   */\n      tag_509\n        /* \"#utility.yul\":3546:3548   */\n      0x20\n        /* \"#utility.yul\":3535:3544   */\n      dup4\n        /* \"#utility.yul\":3531:3549   */\n      add\n        /* \"#utility.yul\":3522:3528   */\n      dup6\n        /* \"#utility.yul\":3484:3550   */\n      tag_399\n      jump\t// in\n    tag_509:\n        /* \"#utility.yul\":3560:3632   */\n      tag_510\n        /* \"#utility.yul\":3628:3630   */\n      0x40\n        /* \"#utility.yul\":3617:3626   */\n      dup4\n        /* \"#utility.yul\":3613:3631   */\n      add\n        /* \"#utility.yul\":3604:3610   */\n      dup5\n        /* \"#utility.yul\":3560:3632   */\n      tag_400\n      jump\t// in\n    tag_510:\n        /* \"#utility.yul\":3118:3639   */\n      swap5\n      swap4\n      pop\n      pop\n      pop\n      pop\n      jump\t// out\n        /* \"#utility.yul\":3645:3731   */\n    tag_401:\n        /* \"#utility.yul\":3680:3687   */\n      0x00\n        /* \"#utility.yul\":3720:3724   */\n      0xff\n        /* \"#utility.yul\":3713:3718   */\n      dup3\n        /* \"#utility.yul\":3709:3725   */\n      and\n        /* \"#utility.yul\":3698:3725   */\n      swap1\n      pop\n        /* \"#utility.yul\":3645:3731   */\n      swap2\n      swap1\n      pop\n      jump\t// out\n        /* \"#utility.yul\":3737:3849   */\n    tag_402:\n        /* \"#utility.yul\":3820:3842   */\n      tag_513\n        /* \"#utility.yul\":3836:3841   */\n      dup2\n        /* \"#utility.yul\":3820:3842   */\n      tag_401\n      jump\t// in\n    tag_513:\n        /* \"#utility.yul\":3815:3818   */\n      dup3\n        /* \"#utility.yul\":3808:3843   */\n      mstore\n        /* \"#utility.yul\":3737:3849   */\n      pop\n      pop\n      jump\t// out\n        /* \"#utility.yul\":3855:4005   */\n    tag_403:\n        /* \"#utility.yul\":3892:3899   */\n      0x00\n        /* \"#utility.yul\":3932:3998   */\n      0xffffffffffffffffffffffffffffffffffffffff000000000000000000000000\n        /* \"#utility.yul\":3925:3930   */\n      dup3\n        /* \"#utility.yul\":3921:3999   */\n      and\n        /* \"#utility.yul\":3910:3999   */\n      swap1\n      pop\n        /* \"#utility.yul\":3855:4005   */\n      swap2\n      swap1\n      pop\n      jump\t// out\n        /* \"#utility.yul\":4011:4129   */\n    tag_404:\n        /* \"#utility.yul\":4098:4122   */\n      tag_516\n        /* \"#utility.yul\":4116:4121   */\n      dup2\n        /* \"#utility.yul\":4098:4122   */\n      tag_403\n      jump\t// in\n    tag_516:\n        /* \"#utility.yul\":4093:4096   */\n      dup3\n        /* \"#utility.yul\":4086:4123   */\n      mstore\n        /* \"#utility.yul\":4011:4129   */\n      pop\n      pop\n      jump\t// out\n        /* \"#utility.yul\":4135:4261   */\n    tag_405:\n        /* \"#utility.yul\":4172:4179   */\n      0x00\n        /* \"#utility.yul\":4212:4254   */\n      0xffffffffffffffffffffffffffffffffffffffff\n        /* \"#utility.yul\":4205:4210   */\n      dup3\n        /* \"#utility.yul\":4201:4255   */\n      and\n        /* \"#utility.yul\":4190:4255   */\n      swap1\n      pop\n        /* \"#utility.yul\":4135:4261   */\n      swap2\n      swap1\n      pop\n      jump\t// out\n        /* \"#utility.yul\":4267:4363   */\n    tag_406:\n        /* \"#utility.yul\":4304:4311   */\n      0x00\n        /* \"#utility.yul\":4333:4357   */\n      tag_519\n        /* \"#utility.yul\":4351:4356   */\n      dup3\n        /* \"#utility.yul\":4333:4357   */\n      tag_405\n      jump\t// in\n    tag_519:\n        /* \"#utility.yul\":4322:4357   */\n      swap1\n      pop\n        /* \"#utility.yul\":4267:4363   */\n      swap2\n      swap1\n      pop\n      jump\t// out\n        /* \"#utility.yul\":4369:4487   */\n    tag_407:\n        /* \"#utility.yul\":4456:4480   */\n      tag_521\n        /* \"#utility.yul\":4474:4479   */\n      dup2\n        /* \"#utility.yul\":4456:4480   */\n      tag_406\n      jump\t// in\n    tag_521:\n        /* \"#utility.yul\":4451:4454   */\n      dup3\n        /* \"#utility.yul\":4444:4481   */\n      mstore\n        /* \"#utility.yul\":4369:4487   */\n      pop\n      pop\n      jump\t// out\n        /* \"#utility.yul\":4493:4673   */\n    tag_92:\n        /* \"#utility.yul\":4541:4618   */\n      0x4e487b7100000000000000000000000000000000000000000000000000000000\n        /* \"#utility.yul\":4538:4539   */\n      0x00\n        /* \"#utility.yul\":4531:4619   */\n      mstore\n        /* \"#utility.yul\":4638:4642   */\n      0x21\n        /* \"#utility.yul\":4635:4636   */\n      0x04\n        /* \"#utility.yul\":4628:4643   */\n      mstore\n        /* \"#utility.yul\":4662:4666   */\n      0x24\n        /* \"#utility.yul\":4659:4660   */\n      0x00\n        /* \"#utility.yul\":4652:4667   */\n      revert\n        /* \"#utility.yul\":4679:4794   */\n    tag_408:\n        /* \"#utility.yul\":4762:4763   */\n      0x05\n        /* \"#utility.yul\":4755:4760   */\n      dup2\n        /* \"#utility.yul\":4752:4764   */\n      lt\n        /* \"#utility.yul\":4742:4788   */\n      tag_524\n      jumpi\n        /* \"#utility.yul\":4768:4786   */\n      tag_525\n      tag_92\n      jump\t// in\n    tag_525:\n        /* \"#utility.yul\":4742:4788   */\n    tag_524:\n        /* \"#utility.yul\":4679:4794   */\n      pop\n      jump\t// out\n        /* \"#utility.yul\":4800:4931   */\n    tag_409:\n        /* \"#utility.yul\":4847:4854   */\n      0x00\n        /* \"#utility.yul\":4876:4881   */\n      dup2\n        /* \"#utility.yul\":4865:4881   */\n      swap1\n      pop\n        /* \"#utility.yul\":4882:4925   */\n      tag_527\n        /* \"#utility.yul\":4919:4924   */\n      dup3\n        /* \"#utility.yul\":4882:4925   */\n      tag_408\n      jump\t// in\n    tag_527:\n        /* \"#utility.yul\":4800:4931   */\n      swap2\n      swap1\n      pop\n      jump\t// out\n        /* \"#utility.yul\":4937:5068   */\n    tag_410:\n        /* \"#utility.yul\":4995:5004   */\n      0x00\n        /* \"#utility.yul\":5028:5062   */\n      tag_529\n        /* \"#utility.yul\":5056:5061   */\n      dup3\n        /* \"#utility.yul\":5028:5062   */\n      tag_409\n      jump\t// in\n    tag_529:\n        /* \"#utility.yul\":5015:5062   */\n      swap1\n      pop\n        /* \"#utility.yul\":4937:5068   */\n      swap2\n      swap1\n      pop\n      jump\t// out\n        /* \"#utility.yul\":5074:5221   */\n    tag_411:\n        /* \"#utility.yul\":5169:5214   */\n      tag_531\n        /* \"#utility.yul\":5208:5213   */\n      dup2\n        /* \"#utility.yul\":5169:5214   */\n      tag_410\n      jump\t// in\n    tag_531:\n        /* \"#utility.yul\":5164:5167   */\n      dup3\n        /* \"#utility.yul\":5157:5215   */\n      mstore\n        /* \"#utility.yul\":5074:5221   */\n      pop\n      pop\n      jump\t// out\n        /* \"#utility.yul\":5227:6101   */\n    tag_35:\n        /* \"#utility.yul\":5484:5488   */\n      0x00\n        /* \"#utility.yul\":5522:5525   */\n      0xc0\n        /* \"#utility.yul\":5511:5520   */\n      dup3\n        /* \"#utility.yul\":5507:5526   */\n      add\n        /* \"#utility.yul\":5499:5526   */\n      swap1\n      pop\n        /* \"#utility.yul\":5536:5603   */\n      tag_533\n        /* \"#utility.yul\":5600:5601   */\n      0x00\n        /* \"#utility.yul\":5589:5598   */\n      dup4\n        /* \"#utility.yul\":5585:5602   */\n      add\n        /* \"#utility.yul\":5576:5582   */\n      dup10\n        /* \"#utility.yul\":5536:5603   */\n      tag_402\n      jump\t// in\n    tag_533:\n        /* \"#utility.yul\":5613:5685   */\n      tag_534\n        /* \"#utility.yul\":5681:5683   */\n      0x20\n        /* \"#utility.yul\":5670:5679   */\n      dup4\n        /* \"#utility.yul\":5666:5684   */\n      add\n        /* \"#utility.yul\":5657:5663   */\n      dup9\n        /* \"#utility.yul\":5613:5685   */\n      tag_404\n      jump\t// in\n    tag_534:\n        /* \"#utility.yul\":5732:5741   */\n      dup2\n        /* \"#utility.yul\":5726:5730   */\n      dup2\n        /* \"#utility.yul\":5722:5742   */\n      sub\n        /* \"#utility.yul\":5717:5719   */\n      0x40\n        /* \"#utility.yul\":5706:5715   */\n      dup4\n        /* \"#utility.yul\":5702:5720   */\n      add\n        /* \"#utility.yul\":5695:5743   */\n      mstore\n        /* \"#utility.yul\":5760:5838   */\n      tag_535\n        /* \"#utility.yul\":5833:5837   */\n      dup2\n        /* \"#utility.yul\":5824:5830   */\n      dup8\n        /* \"#utility.yul\":5760:5838   */\n      tag_398\n      jump\t// in\n    tag_535:\n        /* \"#utility.yul\":5752:5838   */\n      swap1\n      pop\n        /* \"#utility.yul\":5848:5920   */\n      tag_536\n        /* \"#utility.yul\":5916:5918   */\n      0x60\n        /* \"#utility.yul\":5905:5914   */\n      dup4\n        /* \"#utility.yul\":5901:5919   */\n      add\n        /* \"#utility.yul\":5892:5898   */\n      dup7\n        /* \"#utility.yul\":5848:5920   */\n      tag_407\n      jump\t// in\n    tag_536:\n        /* \"#utility.yul\":5930:6003   */\n      tag_537\n        /* \"#utility.yul\":5998:6001   */\n      0x80\n        /* \"#utility.yul\":5987:5996   */\n      dup4\n        /* \"#utility.yul\":5983:6002   */\n      add\n        /* \"#utility.yul\":5974:5980   */\n      dup6\n        /* \"#utility.yul\":5930:6003   */\n      tag_400\n      jump\t// in\n    tag_537:\n        /* \"#utility.yul\":6013:6094   */\n      tag_538\n        /* \"#utility.yul\":6089:6092   */\n      0xa0\n        /* \"#utility.yul\":6078:6087   */\n      dup4\n        /* \"#utility.yul\":6074:6093   */\n      add\n        /* \"#utility.yul\":6065:6071   */\n      dup5\n        /* \"#utility.yul\":6013:6094   */\n      tag_411\n      jump\t// in\n    tag_538:\n        /* \"#utility.yul\":5227:6101   */\n      swap8\n      swap7\n      pop\n      pop\n      pop\n      pop\n      pop\n      pop\n      pop\n      jump\t// out\n        /* \"#utility.yul\":6107:6224   */\n    tag_412:\n        /* \"#utility.yul\":6216:6217   */\n      0x00\n        /* \"#utility.yul\":6213:6214   */\n      dup1\n        /* \"#utility.yul\":6206:6218   */\n      revert\n        /* \"#utility.yul\":6230:6347   */\n    tag_413:\n        /* \"#utility.yul\":6339:6340   */\n      0x00\n        /* \"#utility.yul\":6336:6337   */\n      dup1\n        /* \"#utility.yul\":6329:6341   */\n      revert\n        /* \"#utility.yul\":6353:6470   */\n    tag_414:\n        /* \"#utility.yul\":6462:6463   */\n      0x00\n        /* \"#utility.yul\":6459:6460   */\n      dup1\n        /* \"#utility.yul\":6452:6464   */\n      revert\n        /* \"#utility.yul\":6490:7043   */\n    tag_415:\n        /* \"#utility.yul\":6548:6556   */\n      0x00\n        /* \"#utility.yul\":6558:6564   */\n      dup1\n        /* \"#utility.yul\":6608:6611   */\n      dup4\n        /* \"#utility.yul\":6601:6605   */\n      0x1f\n        /* \"#utility.yul\":6593:6599   */\n      dup5\n        /* \"#utility.yul\":6589:6606   */\n      add\n        /* \"#utility.yul\":6585:6612   */\n      slt\n        /* \"#utility.yul\":6575:6697   */\n      tag_543\n      jumpi\n        /* \"#utility.yul\":6616:6695   */\n      tag_544\n      tag_412\n      jump\t// in\n    tag_544:\n        /* \"#utility.yul\":6575:6697   */\n    tag_543:\n        /* \"#utility.yul\":6729:6735   */\n      dup3\n        /* \"#utility.yul\":6716:6736   */\n      calldataload\n        /* \"#utility.yul\":6706:6736   */\n      swap1\n      pop\n        /* \"#utility.yul\":6759:6777   */\n      0xffffffffffffffff\n        /* \"#utility.yul\":6751:6757   */\n      dup2\n        /* \"#utility.yul\":6748:6778   */\n      gt\n        /* \"#utility.yul\":6745:6862   */\n      iszero\n      tag_545\n      jumpi\n        /* \"#utility.yul\":6781:6860   */\n      tag_546\n      tag_413\n      jump\t// in\n    tag_546:\n        /* \"#utility.yul\":6745:6862   */\n    tag_545:\n        /* \"#utility.yul\":6895:6899   */\n      0x20\n        /* \"#utility.yul\":6887:6893   */\n      dup4\n        /* \"#utility.yul\":6883:6900   */\n      add\n        /* \"#utility.yul\":6871:6900   */\n      swap2\n      pop\n        /* \"#utility.yul\":6949:6952   */\n      dup4\n        /* \"#utility.yul\":6941:6945   */\n      0x01\n        /* \"#utility.yul\":6933:6939   */\n      dup3\n        /* \"#utility.yul\":6929:6946   */\n      mul\n        /* \"#utility.yul\":6919:6927   */\n      dup4\n        /* \"#utility.yul\":6915:6947   */\n      add\n        /* \"#utility.yul\":6912:6953   */\n      gt\n        /* \"#utility.yul\":6909:7037   */\n      iszero\n      tag_547\n      jumpi\n        /* \"#utility.yul\":6956:7035   */\n      tag_548\n      tag_414\n      jump\t// in\n    tag_548:\n        /* \"#utility.yul\":6909:7037   */\n    tag_547:\n        /* \"#utility.yul\":6490:7043   */\n      swap3\n      pop\n      swap3\n      swap1\n      pop\n      jump\t// out\n        /* \"#utility.yul\":7049:7717   */\n    tag_38:\n        /* \"#utility.yul\":7126:7132   */\n      0x00\n        /* \"#utility.yul\":7134:7140   */\n      dup1\n        /* \"#utility.yul\":7142:7148   */\n      0x00\n        /* \"#utility.yul\":7191:7193   */\n      0x40\n        /* \"#utility.yul\":7179:7188   */\n      dup5\n        /* \"#utility.yul\":7170:7177   */\n      dup7\n        /* \"#utility.yul\":7166:7189   */\n      sub\n        /* \"#utility.yul\":7162:7194   */\n      slt\n        /* \"#utility.yul\":7159:7278   */\n      iszero\n      tag_550\n      jumpi\n        /* \"#utility.yul\":7197:7276   */\n      tag_551\n      tag_386\n      jump\t// in\n    tag_551:\n        /* \"#utility.yul\":7159:7278   */\n    tag_550:\n        /* \"#utility.yul\":7345:7346   */\n      0x00\n        /* \"#utility.yul\":7334:7343   */\n      dup5\n        /* \"#utility.yul\":7330:7347   */\n      add\n        /* \"#utility.yul\":7317:7348   */\n      calldataload\n        /* \"#utility.yul\":7375:7393   */\n      0xffffffffffffffff\n        /* \"#utility.yul\":7367:7373   */\n      dup2\n        /* \"#utility.yul\":7364:7394   */\n      gt\n        /* \"#utility.yul\":7361:7478   */\n      iszero\n      tag_552\n      jumpi\n        /* \"#utility.yul\":7397:7476   */\n      tag_553\n      tag_387\n      jump\t// in\n    tag_553:\n        /* \"#utility.yul\":7361:7478   */\n    tag_552:\n        /* \"#utility.yul\":7510:7575   */\n      tag_554\n        /* \"#utility.yul\":7567:7574   */\n      dup7\n        /* \"#utility.yul\":7558:7564   */\n      dup3\n        /* \"#utility.yul\":7547:7556   */\n      dup8\n        /* \"#utility.yul\":7543:7565   */\n      add\n        /* \"#utility.yul\":7510:7575   */\n      tag_415\n      jump\t// in\n    tag_554:\n        /* \"#utility.yul\":7492:7575   */\n      swap4\n      pop\n      swap4\n      pop\n        /* \"#utility.yul\":7288:7585   */\n      pop\n        /* \"#utility.yul\":7624:7626   */\n      0x20\n        /* \"#utility.yul\":7650:7700   */\n      tag_555\n        /* \"#utility.yul\":7692:7699   */\n      dup7\n        /* \"#utility.yul\":7683:7689   */\n      dup3\n        /* \"#utility.yul\":7672:7681   */\n      dup8\n        /* \"#utility.yul\":7668:7690   */\n      add\n        /* \"#utility.yul\":7650:7700   */\n      tag_393\n      jump\t// in\n    tag_555:\n        /* \"#utility.yul\":7640:7700   */\n      swap2\n      pop\n        /* \"#utility.yul\":7595:7710   */\n      pop\n        /* \"#utility.yul\":7049:7717   */\n      swap3\n      pop\n      swap3\n      pop\n      swap3\n      jump\t// out\n        /* \"#utility.yul\":7723:7845   */\n    tag_416:\n        /* \"#utility.yul\":7796:7820   */\n      tag_557\n        /* \"#utility.yul\":7814:7819   */\n      dup2\n        /* \"#utility.yul\":7796:7820   */\n      tag_406\n      jump\t// in\n    tag_557:\n        /* \"#utility.yul\":7789:7794   */\n      dup2\n        /* \"#utility.yul\":7786:7821   */\n      eq\n        /* \"#utility.yul\":7776:7839   */\n      tag_558\n      jumpi\n        /* \"#utility.yul\":7835:7836   */\n      0x00\n        /* \"#utility.yul\":7832:7833   */\n      dup1\n        /* \"#utility.yul\":7825:7837   */\n      revert\n        /* \"#utility.yul\":7776:7839   */\n    tag_558:\n        /* \"#utility.yul\":7723:7845   */\n      pop\n      jump\t// out\n        /* \"#utility.yul\":7851:7990   */\n    tag_417:\n        /* \"#utility.yul\":7897:7902   */\n      0x00\n        /* \"#utility.yul\":7935:7941   */\n      dup2\n        /* \"#utility.yul\":7922:7942   */\n      calldataload\n        /* \"#utility.yul\":7913:7942   */\n      swap1\n      pop\n        /* \"#utility.yul\":7951:7984   */\n      tag_560\n        /* \"#utility.yul\":7978:7983   */\n      dup2\n        /* \"#utility.yul\":7951:7984   */\n      tag_416\n      jump\t// in\n    tag_560:\n        /* \"#utility.yul\":7851:7990   */\n      swap3\n      swap2\n      pop\n      pop\n      jump\t// out\n        /* \"#utility.yul\":7996:8325   */\n    tag_44:\n        /* \"#utility.yul\":8055:8061   */\n      0x00\n        /* \"#utility.yul\":8104:8106   */\n      0x20\n        /* \"#utility.yul\":8092:8101   */\n      dup3\n        /* \"#utility.yul\":8083:8090   */\n      dup5\n        /* \"#utility.yul\":8079:8102   */\n      sub\n        /* \"#utility.yul\":8075:8107   */\n      slt\n        /* \"#utility.yul\":8072:8191   */\n      iszero\n      tag_562\n      jumpi\n        /* \"#utility.yul\":8110:8189   */\n      tag_563\n      tag_386\n      jump\t// in\n    tag_563:\n        /* \"#utility.yul\":8072:8191   */\n    tag_562:\n        /* \"#utility.yul\":8230:8231   */\n      0x00\n        /* \"#utility.yul\":8255:8308   */\n      tag_564\n        /* \"#utility.yul\":8300:8307   */\n      dup5\n        /* \"#utility.yul\":8291:8297   */\n      dup3\n        /* \"#utility.yul\":8280:8289   */\n      dup6\n        /* \"#utility.yul\":8276:8298   */\n      add\n        /* \"#utility.yul\":8255:8308   */\n      tag_417\n      jump\t// in\n    tag_564:\n        /* \"#utility.yul\":8245:8308   */\n      swap2\n      pop\n        /* \"#utility.yul\":8201:8318   */\n      pop\n        /* \"#utility.yul\":7996:8325   */\n      swap3\n      swap2\n      pop\n      pop\n      jump\t// out\n        /* \"#utility.yul\":8331:8553   */\n    tag_49:\n        /* \"#utility.yul\":8424:8428   */\n      0x00\n        /* \"#utility.yul\":8462:8464   */\n      0x20\n        /* \"#utility.yul\":8451:8460   */\n      dup3\n        /* \"#utility.yul\":8447:8465   */\n      add\n        /* \"#utility.yul\":8439:8465   */\n      swap1\n      pop\n        /* \"#utility.yul\":8475:8546   */\n      tag_566\n        /* \"#utility.yul\":8543:8544   */\n      0x00\n        /* \"#utility.yul\":8532:8541   */\n      dup4\n        /* \"#utility.yul\":8528:8545   */\n      add\n        /* \"#utility.yul\":8519:8525   */\n      dup5\n        /* \"#utility.yul\":8475:8546   */\n      tag_400\n      jump\t// in\n    tag_566:\n        /* \"#utility.yul\":8331:8553   */\n      swap3\n      swap2\n      pop\n      pop\n      jump\t// out\n        /* \"#utility.yul\":8559:8781   */\n    tag_53:\n        /* \"#utility.yul\":8652:8656   */\n      0x00\n        /* \"#utility.yul\":8690:8692   */\n      0x20\n        /* \"#utility.yul\":8679:8688   */\n      dup3\n        /* \"#utility.yul\":8675:8693   */\n      add\n        /* \"#utility.yul\":8667:8693   */\n      swap1\n      pop\n        /* \"#utility.yul\":8703:8774   */\n      tag_568\n        /* \"#utility.yul\":8771:8772   */\n      0x00\n        /* \"#utility.yul\":8760:8769   */\n      dup4\n        /* \"#utility.yul\":8756:8773   */\n      add\n        /* \"#utility.yul\":8747:8753   */\n      dup5\n        /* \"#utility.yul\":8703:8774   */\n      tag_407\n      jump\t// in\n    tag_568:\n        /* \"#utility.yul\":8559:8781   */\n      swap3\n      swap2\n      pop\n      pop\n      jump\t// out\n        /* \"#utility.yul\":8787:8905   */\n    tag_418:\n        /* \"#utility.yul\":8858:8880   */\n      tag_570\n        /* \"#utility.yul\":8874:8879   */\n      dup2\n        /* \"#utility.yul\":8858:8880   */\n      tag_401\n      jump\t// in\n    tag_570:\n        /* \"#utility.yul\":8851:8856   */\n      dup2\n        /* \"#utility.yul\":8848:8881   */\n      eq\n        /* \"#utility.yul\":8838:8899   */\n      tag_571\n      jumpi\n        /* \"#utility.yul\":8895:8896   */\n      0x00\n        /* \"#utility.yul\":8892:8893   */\n      dup1\n        /* \"#utility.yul\":8885:8897   */\n      revert\n        /* \"#utility.yul\":8838:8899   */\n    tag_571:\n        /* \"#utility.yul\":8787:8905   */\n      pop\n      jump\t// out\n        /* \"#utility.yul\":8911:9046   */\n    tag_419:\n        /* \"#utility.yul\":8955:8960   */\n      0x00\n        /* \"#utility.yul\":8993:8999   */\n      dup2\n        /* \"#utility.yul\":8980:9000   */\n      calldataload\n        /* \"#utility.yul\":8971:9000   */\n      swap1\n      pop\n        /* \"#utility.yul\":9009:9040   */\n      tag_573\n        /* \"#utility.yul\":9034:9039   */\n      dup2\n        /* \"#utility.yul\":9009:9040   */\n      tag_418\n      jump\t// in\n    tag_573:\n        /* \"#utility.yul\":8911:9046   */\n      swap3\n      swap2\n      pop\n      pop\n      jump\t// out\n        /* \"#utility.yul\":9052:9377   */\n    tag_59:\n        /* \"#utility.yul\":9109:9115   */\n      0x00\n        /* \"#utility.yul\":9158:9160   */\n      0x20\n        /* \"#utility.yul\":9146:9155   */\n      dup3\n        /* \"#utility.yul\":9137:9144   */\n      dup5\n        /* \"#utility.yul\":9133:9156   */\n      sub\n        /* \"#utility.yul\":9129:9161   */\n      slt\n        /* \"#utility.yul\":9126:9245   */\n      iszero\n      tag_575\n      jumpi\n        /* \"#utility.yul\":9164:9243   */\n      tag_576\n      tag_386\n      jump\t// in\n    tag_576:\n        /* \"#utility.yul\":9126:9245   */\n    tag_575:\n        /* \"#utility.yul\":9284:9285   */\n      0x00\n        /* \"#utility.yul\":9309:9360   */\n      tag_577\n        /* \"#utility.yul\":9352:9359   */\n      dup5\n        /* \"#utility.yul\":9343:9349   */\n      dup3\n        /* \"#utility.yul\":9332:9341   */\n      dup6\n        /* \"#utility.yul\":9328:9350   */\n      add\n        /* \"#utility.yul\":9309:9360   */\n      tag_419\n      jump\t// in\n    tag_577:\n        /* \"#utility.yul\":9299:9360   */\n      swap2\n      pop\n        /* \"#utility.yul\":9255:9370   */\n      pop\n        /* \"#utility.yul\":9052:9377   */\n      swap3\n      swap2\n      pop\n      pop\n      jump\t// out\n        /* \"#utility.yul\":9383:9505   */\n    tag_420:\n        /* \"#utility.yul\":9456:9480   */\n      tag_579\n        /* \"#utility.yul\":9474:9479   */\n      dup2\n        /* \"#utility.yul\":9456:9480   */\n      tag_403\n      jump\t// in\n    tag_579:\n        /* \"#utility.yul\":9449:9454   */\n      dup2\n        /* \"#utility.yul\":9446:9481   */\n      eq\n        /* \"#utility.yul\":9436:9499   */\n      tag_580\n      jumpi\n        /* \"#utility.yul\":9495:9496   */\n      0x00\n        /* \"#utility.yul\":9492:9493   */\n      dup1\n        /* \"#utility.yul\":9485:9497   */\n      revert\n        /* \"#utility.yul\":9436:9499   */\n    tag_580:\n        /* \"#utility.yul\":9383:9505   */\n      pop\n      jump\t// out\n        /* \"#utility.yul\":9511:9650   */\n    tag_421:\n        /* \"#utility.yul\":9557:9562   */\n      0x00\n        /* \"#utility.yul\":9595:9601   */\n      dup2\n        /* \"#utility.yul\":9582:9602   */\n      calldataload\n        /* \"#utility.yul\":9573:9602   */\n      swap1\n      pop\n        /* \"#utility.yul\":9611:9644   */\n      tag_582\n        /* \"#utility.yul\":9638:9643   */\n      dup2\n        /* \"#utility.yul\":9611:9644   */\n      tag_420\n      jump\t// in\n    tag_582:\n        /* \"#utility.yul\":9511:9650   */\n      swap3\n      swap2\n      pop\n      pop\n      jump\t// out\n        /* \"#utility.yul\":9656:10475   */\n    tag_66:\n        /* \"#utility.yul\":9745:9751   */\n      0x00\n        /* \"#utility.yul\":9753:9759   */\n      dup1\n        /* \"#utility.yul\":9761:9767   */\n      0x00\n        /* \"#utility.yul\":9769:9775   */\n      dup1\n        /* \"#utility.yul\":9818:9820   */\n      0x60\n        /* \"#utility.yul\":9806:9815   */\n      dup6\n        /* \"#utility.yul\":9797:9804   */\n      dup8\n        /* \"#utility.yul\":9793:9816   */\n      sub\n        /* \"#utility.yul\":9789:9821   */\n      slt\n        /* \"#utility.yul\":9786:9905   */\n      iszero\n      tag_584\n      jumpi\n        /* \"#utility.yul\":9824:9903   */\n      tag_585\n      tag_386\n      jump\t// in\n    tag_585:\n        /* \"#utility.yul\":9786:9905   */\n    tag_584:\n        /* \"#utility.yul\":9944:9945   */\n      0x00\n        /* \"#utility.yul\":9969:10022   */\n      tag_586\n        /* \"#utility.yul\":10014:10021   */\n      dup8\n        /* \"#utility.yul\":10005:10011   */\n      dup3\n        /* \"#utility.yul\":9994:10003   */\n      dup9\n        /* \"#utility.yul\":9990:10012   */\n      add\n        /* \"#utility.yul\":9969:10022   */\n      tag_390\n      jump\t// in\n    tag_586:\n        /* \"#utility.yul\":9959:10022   */\n      swap5\n      pop\n        /* \"#utility.yul\":9915:10032   */\n      pop\n        /* \"#utility.yul\":10071:10073   */\n      0x20\n        /* \"#utility.yul\":10097:10150   */\n      tag_587\n        /* \"#utility.yul\":10142:10149   */\n      dup8\n        /* \"#utility.yul\":10133:10139   */\n      dup3\n        /* \"#utility.yul\":10122:10131   */\n      dup9\n        /* \"#utility.yul\":10118:10140   */\n      add\n        /* \"#utility.yul\":10097:10150   */\n      tag_421\n      jump\t// in\n    tag_587:\n        /* \"#utility.yul\":10087:10150   */\n      swap4\n      pop\n        /* \"#utility.yul\":10042:10160   */\n      pop\n        /* \"#utility.yul\":10227:10229   */\n      0x40\n        /* \"#utility.yul\":10216:10225   */\n      dup6\n        /* \"#utility.yul\":10212:10230   */\n      add\n        /* \"#utility.yul\":10199:10231   */\n      calldataload\n        /* \"#utility.yul\":10258:10276   */\n      0xffffffffffffffff\n        /* \"#utility.yul\":10250:10256   */\n      dup2\n        /* \"#utility.yul\":10247:10277   */\n      gt\n        /* \"#utility.yul\":10244:10361   */\n      iszero\n      tag_588\n      jumpi\n        /* \"#utility.yul\":10280:10359   */\n      tag_589\n      tag_387\n      jump\t// in\n    tag_589:\n        /* \"#utility.yul\":10244:10361   */\n    tag_588:\n        /* \"#utility.yul\":10393:10458   */\n      tag_590\n        /* \"#utility.yul\":10450:10457   */\n      dup8\n        /* \"#utility.yul\":10441:10447   */\n      dup3\n        /* \"#utility.yul\":10430:10439   */\n      dup9\n        /* \"#utility.yul\":10426:10448   */\n      add\n        /* \"#utility.yul\":10393:10458   */\n      tag_415\n      jump\t// in\n    tag_590:\n        /* \"#utility.yul\":10375:10458   */\n      swap3\n      pop\n      swap3\n      pop\n        /* \"#utility.yul\":10170:10468   */\n      pop\n        /* \"#utility.yul\":9656:10475   */\n      swap3\n      swap6\n      swap2\n      swap5\n      pop\n      swap3\n      pop\n      jump\t// out\n        /* \"#utility.yul\":10481:10904   */\n    tag_71:\n        /* \"#utility.yul\":10622:10626   */\n      0x00\n        /* \"#utility.yul\":10660:10662   */\n      0x40\n        /* \"#utility.yul\":10649:10658   */\n      dup3\n        /* \"#utility.yul\":10645:10663   */\n      add\n        /* \"#utility.yul\":10637:10663   */\n      swap1\n      pop\n        /* \"#utility.yul\":10673:10744   */\n      tag_592\n        /* \"#utility.yul\":10741:10742   */\n      0x00\n        /* \"#utility.yul\":10730:10739   */\n      dup4\n        /* \"#utility.yul\":10726:10743   */\n      add\n        /* \"#utility.yul\":10717:10723   */\n      dup6\n        /* \"#utility.yul\":10673:10744   */\n      tag_400\n      jump\t// in\n    tag_592:\n        /* \"#utility.yul\":10791:10800   */\n      dup2\n        /* \"#utility.yul\":10785:10789   */\n      dup2\n        /* \"#utility.yul\":10781:10801   */\n      sub\n        /* \"#utility.yul\":10776:10778   */\n      0x20\n        /* \"#utility.yul\":10765:10774   */\n      dup4\n        /* \"#utility.yul\":10761:10779   */\n      add\n        /* \"#utility.yul\":10754:10802   */\n      mstore\n        /* \"#utility.yul\":10819:10897   */\n      tag_593\n        /* \"#utility.yul\":10892:10896   */\n      dup2\n        /* \"#utility.yul\":10883:10889   */\n      dup5\n        /* \"#utility.yul\":10819:10897   */\n      tag_398\n      jump\t// in\n    tag_593:\n        /* \"#utility.yul\":10811:10897   */\n      swap1\n      pop\n        /* \"#utility.yul\":10481:10904   */\n      swap4\n      swap3\n      pop\n      pop\n      pop\n      jump\t// out\n        /* \"#utility.yul\":10910:11374   */\n    tag_77:\n        /* \"#utility.yul\":10973:10979   */\n      0x00\n        /* \"#utility.yul\":10981:10987   */\n      dup1\n        /* \"#utility.yul\":11030:11032   */\n      0x40\n        /* \"#utility.yul\":11018:11027   */\n      dup4\n        /* \"#utility.yul\":11009:11016   */\n      dup6\n        /* \"#utility.yul\":11005:11028   */\n      sub\n        /* \"#utility.yul\":11001:11033   */\n      slt\n        /* \"#utility.yul\":10998:11117   */\n      iszero\n      tag_595\n      jumpi\n        /* \"#utility.yul\":11036:11115   */\n      tag_596\n      tag_386\n      jump\t// in\n    tag_596:\n        /* \"#utility.yul\":10998:11117   */\n    tag_595:\n        /* \"#utility.yul\":11156:11157   */\n      0x00\n        /* \"#utility.yul\":11181:11232   */\n      tag_597\n        /* \"#utility.yul\":11224:11231   */\n      dup6\n        /* \"#utility.yul\":11215:11221   */\n      dup3\n        /* \"#utility.yul\":11204:11213   */\n      dup7\n        /* \"#utility.yul\":11200:11222   */\n      add\n        /* \"#utility.yul\":11181:11232   */\n      tag_419\n      jump\t// in\n    tag_597:\n        /* \"#utility.yul\":11171:11232   */\n      swap3\n      pop\n        /* \"#utility.yul\":11127:11242   */\n      pop\n        /* \"#utility.yul\":11281:11283   */\n      0x20\n        /* \"#utility.yul\":11307:11357   */\n      tag_598\n        /* \"#utility.yul\":11349:11356   */\n      dup6\n        /* \"#utility.yul\":11340:11346   */\n      dup3\n        /* \"#utility.yul\":11329:11338   */\n      dup7\n        /* \"#utility.yul\":11325:11347   */\n      add\n        /* \"#utility.yul\":11307:11357   */\n      tag_393\n      jump\t// in\n    tag_598:\n        /* \"#utility.yul\":11297:11357   */\n      swap2\n      pop\n        /* \"#utility.yul\":11252:11367   */\n      pop\n        /* \"#utility.yul\":10910:11374   */\n      swap3\n      pop\n      swap3\n      swap1\n      pop\n      jump\t// out\n        /* \"#utility.yul\":11380:11552   */\n    tag_422:\n        /* \"#utility.yul\":11520:11544   */\n      0x4f7261636c65206e6f7420696e697469616c697a656400000000000000000000\n        /* \"#utility.yul\":11516:11517   */\n      0x00\n        /* \"#utility.yul\":11508:11514   */\n      dup3\n        /* \"#utility.yul\":11504:11518   */\n      add\n        /* \"#utility.yul\":11497:11545   */\n      mstore\n        /* \"#utility.yul\":11380:11552   */\n      pop\n      jump\t// out\n        /* \"#utility.yul\":11558:11924   */\n    tag_423:\n        /* \"#utility.yul\":11700:11703   */\n      0x00\n        /* \"#utility.yul\":11721:11788   */\n      tag_601\n        /* \"#utility.yul\":11785:11787   */\n      0x16\n        /* \"#utility.yul\":11780:11783   */\n      dup4\n        /* \"#utility.yul\":11721:11788   */\n      tag_395\n      jump\t// in\n    tag_601:\n        /* \"#utility.yul\":11714:11788   */\n      swap2\n      pop\n        /* \"#utility.yul\":11797:11890   */\n      tag_602\n        /* \"#utility.yul\":11886:11889   */\n      dup3\n        /* \"#utility.yul\":11797:11890   */\n      tag_422\n      jump\t// in\n    tag_602:\n        /* \"#utility.yul\":11915:11917   */\n      0x20\n        /* \"#utility.yul\":11910:11913   */\n      dup3\n        /* \"#utility.yul\":11906:11918   */\n      add\n        /* \"#utility.yul\":11899:11918   */\n      swap1\n      pop\n        /* \"#utility.yul\":11558:11924   */\n      swap2\n      swap1\n      pop\n      jump\t// out\n        /* \"#utility.yul\":11930:12349   */\n    tag_84:\n        /* \"#utility.yul\":12096:12100   */\n      0x00\n        /* \"#utility.yul\":12134:12136   */\n      0x20\n        /* \"#utility.yul\":12123:12132   */\n      dup3\n        /* \"#utility.yul\":12119:12137   */\n      add\n        /* \"#utility.yul\":12111:12137   */\n      swap1\n      pop\n        /* \"#utility.yul\":12183:12192   */\n      dup2\n        /* \"#utility.yul\":12177:12181   */\n      dup2\n        /* \"#utility.yul\":12173:12193   */\n      sub\n        /* \"#utility.yul\":12169:12170   */\n      0x00\n        /* \"#utility.yul\":12158:12167   */\n      dup4\n        /* \"#utility.yul\":12154:12171   */\n      add\n        /* \"#utility.yul\":12147:12194   */\n      mstore\n        /* \"#utility.yul\":12211:12342   */\n      tag_604\n        /* \"#utility.yul\":12337:12341   */\n      dup2\n        /* \"#utility.yul\":12211:12342   */\n      tag_423\n      jump\t// in\n    tag_604:\n        /* \"#utility.yul\":12203:12342   */\n      swap1\n      pop\n        /* \"#utility.yul\":11930:12349   */\n      swap2\n      swap1\n      pop\n      jump\t// out\n        /* \"#utility.yul\":12355:12525   */\n    tag_424:\n        /* \"#utility.yul\":12495:12517   */\n      0x43616c6c6572206973206e6f74206f7261636c65000000000000000000000000\n        /* \"#utility.yul\":12491:12492   */\n      0x00\n        /* \"#utility.yul\":12483:12489   */\n      dup3\n        /* \"#utility.yul\":12479:12493   */\n      add\n        /* \"#utility.yul\":12472:12518   */\n      mstore\n        /* \"#utility.yul\":12355:12525   */\n      pop\n      jump\t// out\n        /* \"#utility.yul\":12531:12897   */\n    tag_425:\n        /* \"#utility.yul\":12673:12676   */\n      0x00\n        /* \"#utility.yul\":12694:12761   */\n      tag_607\n        /* \"#utility.yul\":12758:12760   */\n      0x14\n        /* \"#utility.yul\":12753:12756   */\n      dup4\n        /* \"#utility.yul\":12694:12761   */\n      tag_395\n      jump\t// in\n    tag_607:\n        /* \"#utility.yul\":12687:12761   */\n      swap2\n      pop\n        /* \"#utility.yul\":12770:12863   */\n      tag_608\n        /* \"#utility.yul\":12859:12862   */\n      dup3\n        /* \"#utility.yul\":12770:12863   */\n      tag_424\n      jump\t// in\n    tag_608:\n        /* \"#utility.yul\":12888:12890   */\n      0x20\n        /* \"#utility.yul\":12883:12886   */\n      dup3\n        /* \"#utility.yul\":12879:12891   */\n      add\n        /* \"#utility.yul\":12872:12891   */\n      swap1\n      pop\n        /* \"#utility.yul\":12531:12897   */\n      swap2\n      swap1\n      pop\n      jump\t// out\n        /* \"#utility.yul\":12903:13322   */\n    tag_88:\n        /* \"#utility.yul\":13069:13073   */\n      0x00\n        /* \"#utility.yul\":13107:13109   */\n      0x20\n        /* \"#utility.yul\":13096:13105   */\n      dup3\n        /* \"#utility.yul\":13092:13110   */\n      add\n        /* \"#utility.yul\":13084:13110   */\n      swap1\n      pop\n        /* \"#utility.yul\":13156:13165   */\n      dup2\n        /* \"#utility.yul\":13150:13154   */\n      dup2\n        /* \"#utility.yul\":13146:13166   */\n      sub\n        /* \"#utility.yul\":13142:13143   */\n      0x00\n        /* \"#utility.yul\":13131:13140   */\n      dup4\n        /* \"#utility.yul\":13127:13144   */\n      add\n        /* \"#utility.yul\":13120:13167   */\n      mstore\n        /* \"#utility.yul\":13184:13315   */\n      tag_610\n        /* \"#utility.yul\":13310:13314   */\n      dup2\n        /* \"#utility.yul\":13184:13315   */\n      tag_425\n      jump\t// in\n    tag_610:\n        /* \"#utility.yul\":13176:13315   */\n      swap1\n      pop\n        /* \"#utility.yul\":12903:13322   */\n      swap2\n      swap1\n      pop\n      jump\t// out\n        /* \"#utility.yul\":13328:13496   */\n    tag_426:\n        /* \"#utility.yul\":13468:13488   */\n      0x4465706c6f79207374617465206572726f720000000000000000000000000000\n        /* \"#utility.yul\":13464:13465   */\n      0x00\n        /* \"#utility.yul\":13456:13462   */\n      dup3\n        /* \"#utility.yul\":13452:13466   */\n      add\n        /* \"#utility.yul\":13445:13489   */\n      mstore\n        /* \"#utility.yul\":13328:13496   */\n      pop\n      jump\t// out\n        /* \"#utility.yul\":13502:13868   */\n    tag_427:\n        /* \"#utility.yul\":13644:13647   */\n      0x00\n        /* \"#utility.yul\":13665:13732   */\n      tag_613\n        /* \"#utility.yul\":13729:13731   */\n      0x12\n        /* \"#utility.yul\":13724:13727   */\n      dup4\n        /* \"#utility.yul\":13665:13732   */\n      tag_395\n      jump\t// in\n    tag_613:\n        /* \"#utility.yul\":13658:13732   */\n      swap2\n      pop\n        /* \"#utility.yul\":13741:13834   */\n      tag_614\n        /* \"#utility.yul\":13830:13833   */\n      dup3\n        /* \"#utility.yul\":13741:13834   */\n      tag_426\n      jump\t// in\n    tag_614:\n        /* \"#utility.yul\":13859:13861   */\n      0x20\n        /* \"#utility.yul\":13854:13857   */\n      dup3\n        /* \"#utility.yul\":13850:13862   */\n      add\n        /* \"#utility.yul\":13843:13862   */\n      swap1\n      pop\n        /* \"#utility.yul\":13502:13868   */\n      swap2\n      swap1\n      pop\n      jump\t// out\n        /* \"#utility.yul\":13874:14293   */\n    tag_97:\n        /* \"#utility.yul\":14040:14044   */\n      0x00\n        /* \"#utility.yul\":14078:14080   */\n      0x20\n        /* \"#utility.yul\":14067:14076   */\n      dup3\n        /* \"#utility.yul\":14063:14081   */\n      add\n        /* \"#utility.yul\":14055:14081   */\n      swap1\n      pop\n        /* \"#utility.yul\":14127:14136   */\n      dup2\n        /* \"#utility.yul\":14121:14125   */\n      dup2\n        /* \"#utility.yul\":14117:14137   */\n      sub\n        /* \"#utility.yul\":14113:14114   */\n      0x00\n        /* \"#utility.yul\":14102:14111   */\n      dup4\n        /* \"#utility.yul\":14098:14115   */\n      add\n        /* \"#utility.yul\":14091:14138   */\n      mstore\n        /* \"#utility.yul\":14155:14286   */\n      tag_616\n        /* \"#utility.yul\":14281:14285   */\n      dup2\n        /* \"#utility.yul\":14155:14286   */\n      tag_427\n      jump\t// in\n    tag_616:\n        /* \"#utility.yul\":14147:14286   */\n      swap1\n      pop\n        /* \"#utility.yul\":13874:14293   */\n      swap2\n      swap1\n      pop\n      jump\t// out\n        /* \"#utility.yul\":14299:15137   */\n    tag_105:\n        /* \"#utility.yul\":14540:14544   */\n      0x00\n        /* \"#utility.yul\":14578:14581   */\n      0xa0\n        /* \"#utility.yul\":14567:14576   */\n      dup3\n        /* \"#utility.yul\":14563:14582   */\n      add\n        /* \"#utility.yul\":14555:14582   */\n      swap1\n      pop\n        /* \"#utility.yul\":14592:14663   */\n      tag_618\n        /* \"#utility.yul\":14660:14661   */\n      0x00\n        /* \"#utility.yul\":14649:14658   */\n      dup4\n        /* \"#utility.yul\":14645:14662   */\n      add\n        /* \"#utility.yul\":14636:14642   */\n      dup9\n        /* \"#utility.yul\":14592:14663   */\n      tag_400\n      jump\t// in\n    tag_618:\n        /* \"#utility.yul\":14673:14741   */\n      tag_619\n        /* \"#utility.yul\":14737:14739   */\n      0x20\n        /* \"#utility.yul\":14726:14735   */\n      dup4\n        /* \"#utility.yul\":14722:14740   */\n      add\n        /* \"#utility.yul\":14713:14719   */\n      dup8\n        /* \"#utility.yul\":14673:14741   */\n      tag_402\n      jump\t// in\n    tag_619:\n        /* \"#utility.yul\":14788:14797   */\n      dup2\n        /* \"#utility.yul\":14782:14786   */\n      dup2\n        /* \"#utility.yul\":14778:14798   */\n      sub\n        /* \"#utility.yul\":14773:14775   */\n      0x40\n        /* \"#utility.yul\":14762:14771   */\n      dup4\n        /* \"#utility.yul\":14758:14776   */\n      add\n        /* \"#utility.yul\":14751:14799   */\n      mstore\n        /* \"#utility.yul\":14816:14894   */\n      tag_620\n        /* \"#utility.yul\":14889:14893   */\n      dup2\n        /* \"#utility.yul\":14880:14886   */\n      dup7\n        /* \"#utility.yul\":14816:14894   */\n      tag_398\n      jump\t// in\n    tag_620:\n        /* \"#utility.yul\":14808:14894   */\n      swap1\n      pop\n        /* \"#utility.yul\":14904:14976   */\n      tag_621\n        /* \"#utility.yul\":14972:14974   */\n      0x60\n        /* \"#utility.yul\":14961:14970   */\n      dup4\n        /* \"#utility.yul\":14957:14975   */\n      add\n        /* \"#utility.yul\":14948:14954   */\n      dup6\n        /* \"#utility.yul\":14904:14976   */\n      tag_404\n      jump\t// in\n    tag_621:\n        /* \"#utility.yul\":15024:15033   */\n      dup2\n        /* \"#utility.yul\":15018:15022   */\n      dup2\n        /* \"#utility.yul\":15014:15034   */\n      sub\n        /* \"#utility.yul\":15008:15011   */\n      0x80\n        /* \"#utility.yul\":14997:15006   */\n      dup4\n        /* \"#utility.yul\":14993:15012   */\n      add\n        /* \"#utility.yul\":14986:15035   */\n      mstore\n        /* \"#utility.yul\":15052:15130   */\n      tag_622\n        /* \"#utility.yul\":15125:15129   */\n      dup2\n        /* \"#utility.yul\":15116:15122   */\n      dup5\n        /* \"#utility.yul\":15052:15130   */\n      tag_398\n      jump\t// in\n    tag_622:\n        /* \"#utility.yul\":15044:15130   */\n      swap1\n      pop\n        /* \"#utility.yul\":14299:15137   */\n      swap7\n      swap6\n      pop\n      pop\n      pop\n      pop\n      pop\n      pop\n      jump\t// out\n        /* \"#utility.yul\":15143:15323   */\n    tag_111:\n        /* \"#utility.yul\":15191:15268   */\n      0x4e487b7100000000000000000000000000000000000000000000000000000000\n        /* \"#utility.yul\":15188:15189   */\n      0x00\n        /* \"#utility.yul\":15181:15269   */\n      mstore\n        /* \"#utility.yul\":15288:15292   */\n      0x32\n        /* \"#utility.yul\":15285:15286   */\n      0x04\n        /* \"#utility.yul\":15278:15293   */\n      mstore\n        /* \"#utility.yul\":15312:15316   */\n      0x24\n        /* \"#utility.yul\":15309:15310   */\n      0x00\n        /* \"#utility.yul\":15302:15317   */\n      revert\n        /* \"#utility.yul\":15329:15509   */\n    tag_428:\n        /* \"#utility.yul\":15377:15454   */\n      0x4e487b7100000000000000000000000000000000000000000000000000000000\n        /* \"#utility.yul\":15374:15375   */\n      0x00\n        /* \"#utility.yul\":15367:15455   */\n      mstore\n        /* \"#utility.yul\":15474:15478   */\n      0x11\n        /* \"#utility.yul\":15471:15472   */\n      0x04\n        /* \"#utility.yul\":15464:15479   */\n      mstore\n        /* \"#utility.yul\":15498:15502   */\n      0x24\n        /* \"#utility.yul\":15495:15496   */\n      0x00\n        /* \"#utility.yul\":15488:15503   */\n      revert\n        /* \"#utility.yul\":15515:15686   */\n    tag_114:\n        /* \"#utility.yul\":15554:15557   */\n      0x00\n        /* \"#utility.yul\":15577:15601   */\n      tag_626\n        /* \"#utility.yul\":15595:15600   */\n      dup3\n        /* \"#utility.yul\":15577:15601   */\n      tag_388\n      jump\t// in\n    tag_626:\n        /* \"#utility.yul\":15568:15601   */\n      swap2\n      pop\n        /* \"#utility.yul\":15623:15627   */\n      0x00\n        /* \"#utility.yul\":15616:15621   */\n      dup3\n        /* \"#utility.yul\":15613:15628   */\n      sub\n        /* \"#utility.yul\":15610:15651   */\n      tag_627\n      jumpi\n        /* \"#utility.yul\":15631:15649   */\n      tag_628\n      tag_428\n      jump\t// in\n    tag_628:\n        /* \"#utility.yul\":15610:15651   */\n    tag_627:\n        /* \"#utility.yul\":15678:15679   */\n      0x01\n        /* \"#utility.yul\":15671:15676   */\n      dup3\n        /* \"#utility.yul\":15667:15680   */\n      sub\n        /* \"#utility.yul\":15660:15680   */\n      swap1\n      pop\n        /* \"#utility.yul\":15515:15686   */\n      swap2\n      swap1\n      pop\n      jump\t// out\n        /* \"#utility.yul\":15692:15872   */\n    tag_429:\n        /* \"#utility.yul\":15740:15817   */\n      0x4e487b7100000000000000000000000000000000000000000000000000000000\n        /* \"#utility.yul\":15737:15738   */\n      0x00\n        /* \"#utility.yul\":15730:15818   */\n      mstore\n        /* \"#utility.yul\":15837:15841   */\n      0x22\n        /* \"#utility.yul\":15834:15835   */\n      0x04\n        /* \"#utility.yul\":15827:15842   */\n      mstore\n        /* \"#utility.yul\":15861:15865   */\n      0x24\n        /* \"#utility.yul\":15858:15859   */\n      0x00\n        /* \"#utility.yul\":15851:15866   */\n      revert\n        /* \"#utility.yul\":15878:16198   */\n    tag_119:\n        /* \"#utility.yul\":15922:15928   */\n      0x00\n        /* \"#utility.yul\":15959:15960   */\n      0x02\n        /* \"#utility.yul\":15953:15957   */\n      dup3\n        /* \"#utility.yul\":15949:15961   */\n      div\n        /* \"#utility.yul\":15939:15961   */\n      swap1\n      pop\n        /* \"#utility.yul\":16006:16007   */\n      0x01\n        /* \"#utility.yul\":16000:16004   */\n      dup3\n        /* \"#utility.yul\":15996:16008   */\n      and\n        /* \"#utility.yul\":16027:16045   */\n      dup1\n        /* \"#utility.yul\":16017:16098   */\n      tag_631\n      jumpi\n        /* \"#utility.yul\":16083:16087   */\n      0x7f\n        /* \"#utility.yul\":16075:16081   */\n      dup3\n        /* \"#utility.yul\":16071:16088   */\n      and\n        /* \"#utility.yul\":16061:16088   */\n      swap2\n      pop\n        /* \"#utility.yul\":16017:16098   */\n    tag_631:\n        /* \"#utility.yul\":16145:16147   */\n      0x20\n        /* \"#utility.yul\":16137:16143   */\n      dup3\n        /* \"#utility.yul\":16134:16148   */\n      lt\n        /* \"#utility.yul\":16114:16132   */\n      dup2\n        /* \"#utility.yul\":16111:16149   */\n      sub\n        /* \"#utility.yul\":16108:16192   */\n      tag_632\n      jumpi\n        /* \"#utility.yul\":16164:16182   */\n      tag_633\n      tag_429\n      jump\t// in\n    tag_633:\n        /* \"#utility.yul\":16108:16192   */\n    tag_632:\n        /* \"#utility.yul\":15929:16198   */\n      pop\n        /* \"#utility.yul\":15878:16198   */\n      swap2\n      swap1\n      pop\n      jump\t// out\n        /* \"#utility.yul\":16204:16380   */\n    tag_430:\n        /* \"#utility.yul\":16344:16372   */\n      0x4e6f206d6f72652073686172642063616e206265206164646564000000000000\n        /* \"#utility.yul\":16340:16341   */\n      0x00\n        /* \"#utility.yul\":16332:16338   */\n      dup3\n        /* \"#utility.yul\":16328:16342   */\n      add\n        /* \"#utility.yul\":16321:16373   */\n      mstore\n        /* \"#utility.yul\":16204:16380   */\n      pop\n      jump\t// out\n        /* \"#utility.yul\":16386:16752   */\n    tag_431:\n        /* \"#utility.yul\":16528:16531   */\n      0x00\n        /* \"#utility.yul\":16549:16616   */\n      tag_636\n        /* \"#utility.yul\":16613:16615   */\n      0x1a\n        /* \"#utility.yul\":16608:16611   */\n      dup4\n        /* \"#utility.yul\":16549:16616   */\n      tag_395\n      jump\t// in\n    tag_636:\n        /* \"#utility.yul\":16542:16616   */\n      swap2\n      pop\n        /* \"#utility.yul\":16625:16718   */\n      tag_637\n        /* \"#utility.yul\":16714:16717   */\n      dup3\n        /* \"#utility.yul\":16625:16718   */\n      tag_430\n      jump\t// in\n    tag_637:\n        /* \"#utility.yul\":16743:16745   */\n      0x20\n        /* \"#utility.yul\":16738:16741   */\n      dup3\n        /* \"#utility.yul\":16734:16746   */\n      add\n        /* \"#utility.yul\":16727:16746   */\n      swap1\n      pop\n        /* \"#utility.yul\":16386:16752   */\n      swap2\n      swap1\n      pop\n      jump\t// out\n        /* \"#utility.yul\":16758:17177   */\n    tag_135:\n        /* \"#utility.yul\":16924:16928   */\n      0x00\n        /* \"#utility.yul\":16962:16964   */\n      0x20\n        /* \"#utility.yul\":16951:16960   */\n      dup3\n        /* \"#utility.yul\":16947:16965   */\n      add\n        /* \"#utility.yul\":16939:16965   */\n      swap1\n      pop\n        /* \"#utility.yul\":17011:17020   */\n      dup2\n        /* \"#utility.yul\":17005:17009   */\n      dup2\n        /* \"#utility.yul\":17001:17021   */\n      sub\n        /* \"#utility.yul\":16997:16998   */\n      0x00\n        /* \"#utility.yul\":16986:16995   */\n      dup4\n        /* \"#utility.yul\":16982:16999   */\n      add\n        /* \"#utility.yul\":16975:17022   */\n      mstore\n        /* \"#utility.yul\":17039:17170   */\n      tag_639\n        /* \"#utility.yul\":17165:17169   */\n      dup2\n        /* \"#utility.yul\":17039:17170   */\n      tag_431\n      jump\t// in\n    tag_639:\n        /* \"#utility.yul\":17031:17170   */\n      swap1\n      pop\n        /* \"#utility.yul\":16758:17177   */\n      swap2\n      swap1\n      pop\n      jump\t// out\n        /* \"#utility.yul\":17183:17363   */\n    tag_432:\n        /* \"#utility.yul\":17231:17308   */\n      0x4e487b7100000000000000000000000000000000000000000000000000000000\n        /* \"#utility.yul\":17228:17229   */\n      0x00\n        /* \"#utility.yul\":17221:17309   */\n      mstore\n        /* \"#utility.yul\":17328:17332   */\n      0x41\n        /* \"#utility.yul\":17325:17326   */\n      0x04\n        /* \"#utility.yul\":17318:17333   */\n      mstore\n        /* \"#utility.yul\":17352:17356   */\n      0x24\n        /* \"#utility.yul\":17349:17350   */\n      0x00\n        /* \"#utility.yul\":17342:17357   */\n      revert\n        /* \"#utility.yul\":17369:17510   */\n    tag_433:\n        /* \"#utility.yul\":17418:17422   */\n      0x00\n        /* \"#utility.yul\":17441:17444   */\n      dup2\n        /* \"#utility.yul\":17433:17444   */\n      swap1\n      pop\n        /* \"#utility.yul\":17464:17467   */\n      dup2\n        /* \"#utility.yul\":17461:17462   */\n      0x00\n        /* \"#utility.yul\":17454:17468   */\n      mstore\n        /* \"#utility.yul\":17498:17502   */\n      0x20\n        /* \"#utility.yul\":17495:17496   */\n      0x00\n        /* \"#utility.yul\":17485:17503   */\n      keccak256\n        /* \"#utility.yul\":17477:17503   */\n      swap1\n      pop\n        /* \"#utility.yul\":17369:17510   */\n      swap2\n      swap1\n      pop\n      jump\t// out\n        /* \"#utility.yul\":17516:17609   */\n    tag_434:\n        /* \"#utility.yul\":17553:17559   */\n      0x00\n        /* \"#utility.yul\":17600:17602   */\n      0x20\n        /* \"#utility.yul\":17595:17597   */\n      0x1f\n        /* \"#utility.yul\":17588:17593   */\n      dup4\n        /* \"#utility.yul\":17584:17598   */\n      add\n        /* \"#utility.yul\":17580:17603   */\n      div\n        /* \"#utility.yul\":17570:17603   */\n      swap1\n      pop\n        /* \"#utility.yul\":17516:17609   */\n      swap2\n      swap1\n      pop\n      jump\t// out\n        /* \"#utility.yul\":17615:17722   */\n    tag_435:\n        /* \"#utility.yul\":17659:17667   */\n      0x00\n        /* \"#utility.yul\":17709:17714   */\n      dup3\n        /* \"#utility.yul\":17703:17707   */\n      dup3\n        /* \"#utility.yul\":17699:17715   */\n      shl\n        /* \"#utility.yul\":17678:17715   */\n      swap1\n      pop\n        /* \"#utility.yul\":17615:17722   */\n      swap3\n      swap2\n      pop\n      pop\n      jump\t// out\n        /* \"#utility.yul\":17728:18121   */\n    tag_436:\n        /* \"#utility.yul\":17797:17803   */\n      0x00\n        /* \"#utility.yul\":17847:17848   */\n      0x08\n        /* \"#utility.yul\":17835:17845   */\n      dup4\n        /* \"#utility.yul\":17831:17849   */\n      mul\n        /* \"#utility.yul\":17870:17967   */\n      tag_645\n        /* \"#utility.yul\":17900:17966   */\n      0xffffffffffffffffffffffffffffffffffffffffffffffffffffffffffffffff\n        /* \"#utility.yul\":17889:17898   */\n      dup3\n        /* \"#utility.yul\":17870:17967   */\n      tag_435\n      jump\t// in\n    tag_645:\n        /* \"#utility.yul\":17988:18027   */\n      tag_646\n        /* \"#utility.yul\":18018:18026   */\n      dup7\n        /* \"#utility.yul\":18007:18016   */\n      dup4\n        /* \"#utility.yul\":17988:18027   */\n      tag_435\n      jump\t// in\n    tag_646:\n        /* \"#utility.yul\":17976:18027   */\n      swap6\n      pop\n        /* \"#utility.yul\":18060:18064   */\n      dup1\n        /* \"#utility.yul\":18056:18065   */\n      not\n        /* \"#utility.yul\":18049:18054   */\n      dup5\n        /* \"#utility.yul\":18045:18066   */\n      and\n        /* \"#utility.yul\":18036:18066   */\n      swap4\n      pop\n        /* \"#utility.yul\":18109:18113   */\n      dup1\n        /* \"#utility.yul\":18099:18107   */\n      dup7\n        /* \"#utility.yul\":18095:18114   */\n      and\n        /* \"#utility.yul\":18088:18093   */\n      dup5\n        /* \"#utility.yul\":18085:18115   */\n      or\n        /* \"#utility.yul\":18075:18115   */\n      swap3\n      pop\n        /* \"#utility.yul\":17804:18121   */\n      pop\n      pop\n        /* \"#utility.yul\":17728:18121   */\n      swap4\n      swap3\n      pop\n      pop\n      pop\n      jump\t// out\n        /* \"#utility.yul\":18127:18187   */\n    tag_437:\n        /* \"#utility.yul\":18155:18158   */\n      0x00\n        /* \"#utility.yul\":18176:18181   */\n      dup2\n        /* \"#utility.yul\":18169:18181   */\n      swap1\n      pop\n        /* \"#utility.yul\":18127:18187   */\n      swap2\n      swap1\n      pop\n      jump\t// out\n        /* \"#utility.yul\":18193:18335   */\n    tag_438:\n        /* \"#utility.yul\":18243:18252   */\n      0x00\n        /* \"#utility.yul\":18276:18329   */\n      tag_649\n        /* \"#utility.yul\":18294:18328   */\n      tag_650\n        /* \"#utility.yul\":18303:18327   */\n      tag_651\n        /* \"#utility.yul\":18321:18326   */\n      dup5\n        /* \"#utility.yul\":18303:18327   */\n      tag_388\n      jump\t// in\n    tag_651:\n        /* \"#utility.yul\":18294:18328   */\n      tag_437\n      jump\t// in\n    tag_650:\n        /* \"#utility.yul\":18276:18329   */\n      tag_388\n      jump\t// in\n    tag_649:\n        /* \"#utility.yul\":18263:18329   */\n      swap1\n      pop\n        /* \"#utility.yul\":18193:18335   */\n      swap2\n      swap1\n      pop\n      jump\t// out\n        /* \"#utility.yul\":18341:18416   */\n    tag_439:\n        /* \"#utility.yul\":18384:18387   */\n      0x00\n        /* \"#utility.yul\":18405:18410   */\n      dup2\n        /* \"#utility.yul\":18398:18410   */\n      swap1\n      pop\n        /* \"#utility.yul\":18341:18416   */\n      swap2\n      swap1\n      pop\n      jump\t// out\n        /* \"#utility.yul\":18422:18691   */\n    tag_440:\n        /* \"#utility.yul\":18532:18571   */\n      tag_654\n        /* \"#utility.yul\":18563:18570   */\n      dup4\n        /* \"#utility.yul\":18532:18571   */\n      tag_438\n      jump\t// in\n    tag_654:\n        /* \"#utility.yul\":18593:18684   */\n      tag_655\n        /* \"#utility.yul\":18642:18683   */\n      tag_656\n        /* \"#utility.yul\":18666:18682   */\n      dup3\n        /* \"#utility.yul\":18642:18683   */\n      tag_439\n      jump\t// in\n    tag_656:\n        /* \"#utility.yul\":18634:18640   */\n      dup5\n        /* \"#utility.yul\":18627:18631   */\n      dup5\n        /* \"#utility.yul\":18621:18632   */\n      sload\n        /* \"#utility.yul\":18593:18684   */\n      tag_436\n      jump\t// in\n    tag_655:\n        /* \"#utility.yul\":18587:18591   */\n      dup3\n        /* \"#utility.yul\":18580:18685   */\n      sstore\n        /* \"#utility.yul\":18498:18691   */\n      pop\n        /* \"#utility.yul\":18422:18691   */\n      pop\n      pop\n      pop\n      jump\t// out\n        /* \"#utility.yul\":18697:18770   */\n    tag_441:\n        /* \"#utility.yul\":18742:18745   */\n      0x00\n        /* \"#utility.yul\":18697:18770   */\n      swap1\n      jump\t// out\n        /* \"#utility.yul\":18776:18965   */\n    tag_442:\n        /* \"#utility.yul\":18853:18885   */\n      tag_659\n      tag_441\n      jump\t// in\n    tag_659:\n        /* \"#utility.yul\":18894:18959   */\n      tag_660\n        /* \"#utility.yul\":18952:18958   */\n      dup2\n        /* \"#utility.yul\":18944:18950   */\n      dup5\n        /* \"#utility.yul\":18938:18942   */\n      dup5\n        /* \"#utility.yul\":18894:18959   */\n      tag_440\n      jump\t// in\n    tag_660:\n        /* \"#utility.yul\":18829:18965   */\n      pop\n        /* \"#utility.yul\":18776:18965   */\n      pop\n      pop\n      jump\t// out\n        /* \"#utility.yul\":18971:19157   */\n    tag_443:\n        /* \"#utility.yul\":19031:19151   */\n    tag_662:\n        /* \"#utility.yul\":19048:19051   */\n      dup2\n        /* \"#utility.yul\":19041:19046   */\n      dup2\n        /* \"#utility.yul\":19038:19052   */\n      lt\n        /* \"#utility.yul\":19031:19151   */\n      iszero\n      tag_664\n      jumpi\n        /* \"#utility.yul\":19102:19141   */\n      tag_665\n        /* \"#utility.yul\":19139:19140   */\n      0x00\n        /* \"#utility.yul\":19132:19137   */\n      dup3\n        /* \"#utility.yul\":19102:19141   */\n      tag_442\n      jump\t// in\n    tag_665:\n        /* \"#utility.yul\":19075:19076   */\n      0x01\n        /* \"#utility.yul\":19068:19073   */\n      dup2\n        /* \"#utility.yul\":19064:19077   */\n      add\n        /* \"#utility.yul\":19055:19077   */\n      swap1\n      pop\n        /* \"#utility.yul\":19031:19151   */\n      jump(tag_662)\n    tag_664:\n        /* \"#utility.yul\":18971:19157   */\n      pop\n      pop\n      jump\t// out\n        /* \"#utility.yul\":19163:19706   */\n    tag_444:\n        /* \"#utility.yul\":19264:19266   */\n      0x1f\n        /* \"#utility.yul\":19259:19262   */\n      dup3\n        /* \"#utility.yul\":19256:19267   */\n      gt\n        /* \"#utility.yul\":19253:19699   */\n      iszero\n      tag_667\n      jumpi\n        /* \"#utility.yul\":19298:19336   */\n      tag_668\n        /* \"#utility.yul\":19330:19335   */\n      dup2\n        /* \"#utility.yul\":19298:19336   */\n      tag_433\n      jump\t// in\n    tag_668:\n        /* \"#utility.yul\":19382:19411   */\n      tag_669\n        /* \"#utility.yul\":19400:19410   */\n      dup5\n        /* \"#utility.yul\":19382:19411   */\n      tag_434\n      jump\t// in\n    tag_669:\n        /* \"#utility.yul\":19372:19380   */\n      dup2\n        /* \"#utility.yul\":19368:19412   */\n      add\n        /* \"#utility.yul\":19565:19567   */\n      0x20\n        /* \"#utility.yul\":19553:19563   */\n      dup6\n        /* \"#utility.yul\":19550:19568   */\n      lt\n        /* \"#utility.yul\":19547:19596   */\n      iszero\n      tag_670\n      jumpi\n        /* \"#utility.yul\":19586:19594   */\n      dup2\n        /* \"#utility.yul\":19571:19594   */\n      swap1\n      pop\n        /* \"#utility.yul\":19547:19596   */\n    tag_670:\n        /* \"#utility.yul\":19609:19689   */\n      tag_671\n        /* \"#utility.yul\":19665:19687   */\n      tag_672\n        /* \"#utility.yul\":19683:19686   */\n      dup6\n        /* \"#utility.yul\":19665:19687   */\n      tag_434\n      jump\t// in\n    tag_672:\n        /* \"#utility.yul\":19655:19663   */\n      dup4\n        /* \"#utility.yul\":19651:19688   */\n      add\n        /* \"#utility.yul\":19638:19649   */\n      dup3\n        /* \"#utility.yul\":19609:19689   */\n      tag_443\n      jump\t// in\n    tag_671:\n        /* \"#utility.yul\":19268:19699   */\n      pop\n      pop\n        /* \"#utility.yul\":19253:19699   */\n    tag_667:\n        /* \"#utility.yul\":19163:19706   */\n      pop\n      pop\n      pop\n      jump\t// out\n        /* \"#utility.yul\":19712:19829   */\n    tag_445:\n        /* \"#utility.yul\":19766:19774   */\n      0x00\n        /* \"#utility.yul\":19816:19821   */\n      dup3\n        /* \"#utility.yul\":19810:19814   */\n      dup3\n        /* \"#utility.yul\":19806:19822   */\n      shr\n        /* \"#utility.yul\":19785:19822   */\n      swap1\n      pop\n        /* \"#utility.yul\":19712:19829   */\n      swap3\n      swap2\n      pop\n      pop\n      jump\t// out\n        /* \"#utility.yul\":19835:20004   */\n    tag_446:\n        /* \"#utility.yul\":19879:19885   */\n      0x00\n        /* \"#utility.yul\":19912:19963   */\n      tag_675\n        /* \"#utility.yul\":19960:19961   */\n      0x00\n        /* \"#utility.yul\":19956:19962   */\n      not\n        /* \"#utility.yul\":19948:19953   */\n      dup5\n        /* \"#utility.yul\":19945:19946   */\n      0x08\n        /* \"#utility.yul\":19941:19954   */\n      mul\n        /* \"#utility.yul\":19912:19963   */\n      tag_445\n      jump\t// in\n    tag_675:\n        /* \"#utility.yul\":19908:19964   */\n      not\n        /* \"#utility.yul\":19993:19997   */\n      dup1\n        /* \"#utility.yul\":19987:19991   */\n      dup4\n        /* \"#utility.yul\":19983:19998   */\n      and\n        /* \"#utility.yul\":19973:19998   */\n      swap2\n      pop\n        /* \"#utility.yul\":19886:20004   */\n      pop\n        /* \"#utility.yul\":19835:20004   */\n      swap3\n      swap2\n      pop\n      pop\n      jump\t// out\n        /* \"#utility.yul\":20009:20304   */\n    tag_447:\n        /* \"#utility.yul\":20085:20089   */\n      0x00\n        /* \"#utility.yul\":20231:20260   */\n      tag_677\n        /* \"#utility.yul\":20256:20259   */\n      dup4\n        /* \"#utility.yul\":20250:20254   */\n      dup4\n        /* \"#utility.yul\":20231:20260   */\n      tag_446\n      jump\t// in\n    tag_677:\n        /* \"#utility.yul\":20223:20260   */\n      swap2\n      pop\n        /* \"#utility.yul\":20293:20296   */\n      dup3\n        /* \"#utility.yul\":20290:20291   */\n      0x02\n        /* \"#utility.yul\":20286:20297   */\n      mul\n        /* \"#utility.yul\":20280:20284   */\n      dup3\n        /* \"#utility.yul\":20277:20298   */\n      or\n        /* \"#utility.yul\":20269:20298   */\n      swap1\n      pop\n        /* \"#utility.yul\":20009:20304   */\n      swap3\n      swap2\n      pop\n      pop\n      jump\t// out\n        /* \"#utility.yul\":20309:21704   */\n    tag_139:\n        /* \"#utility.yul\":20426:20463   */\n      tag_679\n        /* \"#utility.yul\":20459:20462   */\n      dup3\n        /* \"#utility.yul\":20426:20463   */\n      tag_394\n      jump\t// in\n    tag_679:\n        /* \"#utility.yul\":20528:20546   */\n      0xffffffffffffffff\n        /* \"#utility.yul\":20520:20526   */\n      dup2\n        /* \"#utility.yul\":20517:20547   */\n      gt\n        /* \"#utility.yul\":20514:20570   */\n      iszero\n      tag_680\n      jumpi\n        /* \"#utility.yul\":20550:20568   */\n      tag_681\n      tag_432\n      jump\t// in\n    tag_681:\n        /* \"#utility.yul\":20514:20570   */\n    tag_680:\n        /* \"#utility.yul\":20594:20632   */\n      tag_682\n        /* \"#utility.yul\":20626:20630   */\n      dup3\n        /* \"#utility.yul\":20620:20631   */\n      sload\n        /* \"#utility.yul\":20594:20632   */\n      tag_119\n      jump\t// in\n    tag_682:\n        /* \"#utility.yul\":20679:20746   */\n      tag_683\n        /* \"#utility.yul\":20739:20745   */\n      dup3\n        /* \"#utility.yul\":20731:20737   */\n      dup3\n        /* \"#utility.yul\":20725:20729   */\n      dup6\n        /* \"#utility.yul\":20679:20746   */\n      tag_444\n      jump\t// in\n    tag_683:\n        /* \"#utility.yul\":20773:20774   */\n      0x00\n        /* \"#utility.yul\":20797:20801   */\n      0x20\n        /* \"#utility.yul\":20784:20801   */\n      swap1\n      pop\n        /* \"#utility.yul\":20829:20831   */\n      0x1f\n        /* \"#utility.yul\":20821:20827   */\n      dup4\n        /* \"#utility.yul\":20818:20832   */\n      gt\n        /* \"#utility.yul\":20846:20847   */\n      0x01\n        /* \"#utility.yul\":20841:21459   */\n      dup2\n      eq\n      tag_685\n      jumpi\n        /* \"#utility.yul\":21503:21504   */\n      0x00\n        /* \"#utility.yul\":21520:21526   */\n      dup5\n        /* \"#utility.yul\":21517:21594   */\n      iszero\n      tag_686\n      jumpi\n        /* \"#utility.yul\":21569:21578   */\n      dup3\n        /* \"#utility.yul\":21564:21567   */\n      dup8\n        /* \"#utility.yul\":21560:21579   */\n      add\n        /* \"#utility.yul\":21554:21580   */\n      mload\n        /* \"#utility.yul\":21545:21580   */\n      swap1\n      pop\n        /* \"#utility.yul\":21517:21594   */\n    tag_686:\n        /* \"#utility.yul\":21620:21687   */\n      tag_687\n        /* \"#utility.yul\":21680:21686   */\n      dup6\n        /* \"#utility.yul\":21673:21678   */\n      dup3\n        /* \"#utility.yul\":21620:21687   */\n      tag_447\n      jump\t// in\n    tag_687:\n        /* \"#utility.yul\":21614:21618   */\n      dup7\n        /* \"#utility.yul\":21607:21688   */\n      sstore\n        /* \"#utility.yul\":21476:21698   */\n      pop\n        /* \"#utility.yul\":20811:21698   */\n      jump(tag_684)\n        /* \"#utility.yul\":20841:21459   */\n    tag_685:\n        /* \"#utility.yul\":20893:20897   */\n      0x1f\n        /* \"#utility.yul\":20889:20898   */\n      not\n        /* \"#utility.yul\":20881:20887   */\n      dup5\n        /* \"#utility.yul\":20877:20899   */\n      and\n        /* \"#utility.yul\":20927:20964   */\n      tag_688\n        /* \"#utility.yul\":20959:20963   */\n      dup7\n        /* \"#utility.yul\":20927:20964   */\n      tag_433\n      jump\t// in\n    tag_688:\n        /* \"#utility.yul\":20986:20987   */\n      0x00\n        /* \"#utility.yul\":21000:21208   */\n    tag_689:\n        /* \"#utility.yul\":21014:21021   */\n      dup3\n        /* \"#utility.yul\":21011:21012   */\n      dup2\n        /* \"#utility.yul\":21008:21022   */\n      lt\n        /* \"#utility.yul\":21000:21208   */\n      iszero\n      tag_691\n      jumpi\n        /* \"#utility.yul\":21093:21102   */\n      dup5\n        /* \"#utility.yul\":21088:21091   */\n      dup10\n        /* \"#utility.yul\":21084:21103   */\n      add\n        /* \"#utility.yul\":21078:21104   */\n      mload\n        /* \"#utility.yul\":21070:21076   */\n      dup3\n        /* \"#utility.yul\":21063:21105   */\n      sstore\n        /* \"#utility.yul\":21144:21145   */\n      0x01\n        /* \"#utility.yul\":21136:21142   */\n      dup3\n        /* \"#utility.yul\":21132:21146   */\n      add\n        /* \"#utility.yul\":21122:21146   */\n      swap2\n      pop\n        /* \"#utility.yul\":21191:21193   */\n      0x20\n        /* \"#utility.yul\":21180:21189   */\n      dup6\n        /* \"#utility.yul\":21176:21194   */\n      add\n        /* \"#utility.yul\":21163:21194   */\n      swap5\n      pop\n        /* \"#utility.yul\":21037:21041   */\n      0x20\n        /* \"#utility.yul\":21034:21035   */\n      dup2\n        /* \"#utility.yul\":21030:21042   */\n      add\n        /* \"#utility.yul\":21025:21042   */\n      swap1\n      pop\n        /* \"#utility.yul\":21000:21208   */\n      jump(tag_689)\n    tag_691:\n        /* \"#utility.yul\":21236:21242   */\n      dup7\n        /* \"#utility.yul\":21227:21234   */\n      dup4\n        /* \"#utility.yul\":21224:21243   */\n      lt\n        /* \"#utility.yul\":21221:21400   */\n      iszero\n      tag_692\n      jumpi\n        /* \"#utility.yul\":21294:21303   */\n      dup5\n        /* \"#utility.yul\":21289:21292   */\n      dup10\n        /* \"#utility.yul\":21285:21304   */\n      add\n        /* \"#utility.yul\":21279:21305   */\n      mload\n        /* \"#utility.yul\":21337:21385   */\n      tag_693\n        /* \"#utility.yul\":21379:21383   */\n      0x1f\n        /* \"#utility.yul\":21371:21377   */\n      dup10\n        /* \"#utility.yul\":21367:21384   */\n      and\n        /* \"#utility.yul\":21356:21365   */\n      dup3\n        /* \"#utility.yul\":21337:21385   */\n      tag_446\n      jump\t// in\n    tag_693:\n        /* \"#utility.yul\":21329:21335   */\n      dup4\n        /* \"#utility.yul\":21322:21386   */\n      sstore\n        /* \"#utility.yul\":21244:21400   */\n      pop\n        /* \"#utility.yul\":21221:21400   */\n    tag_692:\n        /* \"#utility.yul\":21446:21447   */\n      0x01\n        /* \"#utility.yul\":21442:21443   */\n      0x02\n        /* \"#utility.yul\":21434:21440   */\n      dup9\n        /* \"#utility.yul\":21430:21444   */\n      mul\n        /* \"#utility.yul\":21426:21448   */\n      add\n        /* \"#utility.yul\":21420:21424   */\n      dup9\n        /* \"#utility.yul\":21413:21449   */\n      sstore\n        /* \"#utility.yul\":20848:21459   */\n      pop\n      pop\n      pop\n        /* \"#utility.yul\":20811:21698   */\n    tag_684:\n      pop\n        /* \"#utility.yul\":20401:21704   */\n      pop\n      pop\n      pop\n        /* \"#utility.yul\":20309:21704   */\n      pop\n      pop\n      jump\t// out\n        /* \"#utility.yul\":21710:21904   */\n    tag_141:\n        /* \"#utility.yul\":21750:21754   */\n      0x00\n        /* \"#utility.yul\":21770:21790   */\n      tag_695\n        /* \"#utility.yul\":21788:21789   */\n      dup3\n        /* \"#utility.yul\":21770:21790   */\n      tag_388\n      jump\t// in\n    tag_695:\n        /* \"#utility.yul\":21765:21790   */\n      swap2\n      pop\n        /* \"#utility.yul\":21804:21824   */\n      tag_696\n        /* \"#utility.yul\":21822:21823   */\n      dup4\n        /* \"#utility.yul\":21804:21824   */\n      tag_388\n      jump\t// in\n    tag_696:\n        /* \"#utility.yul\":21799:21824   */\n      swap3\n      pop\n        /* \"#utility.yul\":21848:21849   */\n      dup3\n        /* \"#utility.yul\":21845:21846   */\n      dup3\n        /* \"#utility.yul\":21841:21850   */\n      sub\n        /* \"#utility.yul\":21833:21850   */\n      swap1\n      pop\n        /* \"#utility.yul\":21872:21873   */\n      dup2\n        /* \"#utility.yul\":21866:21870   */\n      dup2\n        /* \"#utility.yul\":21863:21874   */\n      gt\n        /* \"#utility.yul\":21860:21897   */\n      iszero\n      tag_697\n      jumpi\n        /* \"#utility.yul\":21877:21895   */\n      tag_698\n      tag_428\n      jump\t// in\n    tag_698:\n        /* \"#utility.yul\":21860:21897   */\n    tag_697:\n        /* \"#utility.yul\":21710:21904   */\n      swap3\n      swap2\n      pop\n      pop\n      jump\t// out\n        /* \"#utility.yul\":21910:22056   */\n    tag_448:\n        /* \"#utility.yul\":22007:22013   */\n      dup3\n        /* \"#utility.yul\":22002:22005   */\n      dup2\n        /* \"#utility.yul\":21997:22000   */\n      dup4\n        /* \"#utility.yul\":21984:22014   */\n      calldatacopy\n        /* \"#utility.yul\":22048:22049   */\n      0x00\n        /* \"#utility.yul\":22039:22045   */\n      dup4\n        /* \"#utility.yul\":22034:22037   */\n      dup4\n        /* \"#utility.yul\":22030:22046   */\n      add\n        /* \"#utility.yul\":22023:22050   */\n      mstore\n        /* \"#utility.yul\":21910:22056   */\n      pop\n      pop\n      pop\n      jump\t// out\n        /* \"#utility.yul\":22086:22403   */\n    tag_449:\n        /* \"#utility.yul\":22184:22187   */\n      0x00\n        /* \"#utility.yul\":22205:22276   */\n      tag_701\n        /* \"#utility.yul\":22269:22275   */\n      dup4\n        /* \"#utility.yul\":22264:22267   */\n      dup6\n        /* \"#utility.yul\":22205:22276   */\n      tag_395\n      jump\t// in\n    tag_701:\n        /* \"#utility.yul\":22198:22276   */\n      swap4\n      pop\n        /* \"#utility.yul\":22286:22342   */\n      tag_702\n        /* \"#utility.yul\":22335:22341   */\n      dup4\n        /* \"#utility.yul\":22330:22333   */\n      dup6\n        /* \"#utility.yul\":22323:22328   */\n      dup5\n        /* \"#utility.yul\":22286:22342   */\n      tag_448\n      jump\t// in\n    tag_702:\n        /* \"#utility.yul\":22367:22396   */\n      tag_703\n        /* \"#utility.yul\":22389:22395   */\n      dup4\n        /* \"#utility.yul\":22367:22396   */\n      tag_397\n      jump\t// in\n    tag_703:\n        /* \"#utility.yul\":22362:22365   */\n      dup5\n        /* \"#utility.yul\":22358:22397   */\n      add\n        /* \"#utility.yul\":22351:22397   */\n      swap1\n      pop\n        /* \"#utility.yul\":22086:22403   */\n      swap4\n      swap3\n      pop\n      pop\n      pop\n      jump\t// out\n        /* \"#utility.yul\":22409:22844   */\n    tag_143:\n        /* \"#utility.yul\":22556:22560   */\n      0x00\n        /* \"#utility.yul\":22594:22596   */\n      0x40\n        /* \"#utility.yul\":22583:22592   */\n      dup3\n        /* \"#utility.yul\":22579:22597   */\n      add\n        /* \"#utility.yul\":22571:22597   */\n      swap1\n      pop\n        /* \"#utility.yul\":22607:22674   */\n      tag_705\n        /* \"#utility.yul\":22671:22672   */\n      0x00\n        /* \"#utility.yul\":22660:22669   */\n      dup4\n        /* \"#utility.yul\":22656:22673   */\n      add\n        /* \"#utility.yul\":22647:22653   */\n      dup7\n        /* \"#utility.yul\":22607:22674   */\n      tag_402\n      jump\t// in\n    tag_705:\n        /* \"#utility.yul\":22721:22730   */\n      dup2\n        /* \"#utility.yul\":22715:22719   */\n      dup2\n        /* \"#utility.yul\":22711:22731   */\n      sub\n        /* \"#utility.yul\":22706:22708   */\n      0x20\n        /* \"#utility.yul\":22695:22704   */\n      dup4\n        /* \"#utility.yul\":22691:22709   */\n      add\n        /* \"#utility.yul\":22684:22732   */\n      mstore\n        /* \"#utility.yul\":22749:22837   */\n      tag_706\n        /* \"#utility.yul\":22832:22836   */\n      dup2\n        /* \"#utility.yul\":22823:22829   */\n      dup5\n        /* \"#utility.yul\":22815:22821   */\n      dup7\n        /* \"#utility.yul\":22749:22837   */\n      tag_449\n      jump\t// in\n    tag_706:\n        /* \"#utility.yul\":22741:22837   */\n      swap1\n      pop\n        /* \"#utility.yul\":22409:22844   */\n      swap5\n      swap4\n      pop\n      pop\n      pop\n      pop\n      jump\t// out\n        /* \"#utility.yul\":22850:23029   */\n    tag_450:\n        /* \"#utility.yul\":22990:23021   */\n      0x43616c6c6572206973206e6f74206465706c6f79207265736572766572000000\n        /* \"#utility.yul\":22986:22987   */\n      0x00\n        /* \"#utility.yul\":22978:22984   */\n      dup3\n        /* \"#utility.yul\":22974:22988   */\n      add\n        /* \"#utility.yul\":22967:23022   */\n      mstore\n        /* \"#utility.yul\":22850:23029   */\n      pop\n      jump\t// out\n        /* \"#utility.yul\":23035:23401   */\n    tag_451:\n        /* \"#utility.yul\":23177:23180   */\n      0x00\n        /* \"#utility.yul\":23198:23265   */\n      tag_709\n        /* \"#utility.yul\":23262:23264   */\n      0x1d\n        /* \"#utility.yul\":23257:23260   */\n      dup4\n        /* \"#utility.yul\":23198:23265   */\n      tag_395\n      jump\t// in\n    tag_709:\n        /* \"#utility.yul\":23191:23265   */\n      swap2\n      pop\n        /* \"#utility.yul\":23274:23367   */\n      tag_710\n        /* \"#utility.yul\":23363:23366   */\n      dup3\n        /* \"#utility.yul\":23274:23367   */\n      tag_450\n      jump\t// in\n    tag_710:\n        /* \"#utility.yul\":23392:23394   */\n      0x20\n        /* \"#utility.yul\":23387:23390   */\n      dup3\n        /* \"#utility.yul\":23383:23395   */\n      add\n        /* \"#utility.yul\":23376:23395   */\n      swap1\n      pop\n        /* \"#utility.yul\":23035:23401   */\n      swap2\n      swap1\n      pop\n      jump\t// out\n        /* \"#utility.yul\":23407:23826   */\n    tag_160:\n        /* \"#utility.yul\":23573:23577   */\n      0x00\n        /* \"#utility.yul\":23611:23613   */\n      0x20\n        /* \"#utility.yul\":23600:23609   */\n      dup3\n        /* \"#utility.yul\":23596:23614   */\n      add\n        /* \"#utility.yul\":23588:23614   */\n      swap1\n      pop\n        /* \"#utility.yul\":23660:23669   */\n      dup2\n        /* \"#utility.yul\":23654:23658   */\n      dup2\n        /* \"#utility.yul\":23650:23670   */\n      sub\n        /* \"#utility.yul\":23646:23647   */\n      0x00\n        /* \"#utility.yul\":23635:23644   */\n      dup4\n        /* \"#utility.yul\":23631:23648   */\n      add\n        /* \"#utility.yul\":23624:23671   */\n      mstore\n        /* \"#utility.yul\":23688:23819   */\n      tag_712\n        /* \"#utility.yul\":23814:23818   */\n      dup2\n        /* \"#utility.yul\":23688:23819   */\n      tag_451\n      jump\t// in\n    tag_712:\n        /* \"#utility.yul\":23680:23819   */\n      swap1\n      pop\n        /* \"#utility.yul\":23407:23826   */\n      swap2\n      swap1\n      pop\n      jump\t// out\n        /* \"#utility.yul\":23832:24365   */\n    tag_177:\n        /* \"#utility.yul\":24001:24005   */\n      0x00\n        /* \"#utility.yul\":24039:24041   */\n      0x60\n        /* \"#utility.yul\":24028:24037   */\n      dup3\n        /* \"#utility.yul\":24024:24042   */\n      add\n        /* \"#utility.yul\":24016:24042   */\n      swap1\n      pop\n        /* \"#utility.yul\":24052:24123   */\n      tag_714\n        /* \"#utility.yul\":24120:24121   */\n      0x00\n        /* \"#utility.yul\":24109:24118   */\n      dup4\n        /* \"#utility.yul\":24105:24122   */\n      add\n        /* \"#utility.yul\":24096:24102   */\n      dup7\n        /* \"#utility.yul\":24052:24123   */\n      tag_400\n      jump\t// in\n    tag_714:\n        /* \"#utility.yul\":24170:24179   */\n      dup2\n        /* \"#utility.yul\":24164:24168   */\n      dup2\n        /* \"#utility.yul\":24160:24180   */\n      sub\n        /* \"#utility.yul\":24155:24157   */\n      0x20\n        /* \"#utility.yul\":24144:24153   */\n      dup4\n        /* \"#utility.yul\":24140:24158   */\n      add\n        /* \"#utility.yul\":24133:24181   */\n      mstore\n        /* \"#utility.yul\":24198:24276   */\n      tag_715\n        /* \"#utility.yul\":24271:24275   */\n      dup2\n        /* \"#utility.yul\":24262:24268   */\n      dup6\n        /* \"#utility.yul\":24198:24276   */\n      tag_398\n      jump\t// in\n    tag_715:\n        /* \"#utility.yul\":24190:24276   */\n      swap1\n      pop\n        /* \"#utility.yul\":24286:24358   */\n      tag_716\n        /* \"#utility.yul\":24354:24356   */\n      0x40\n        /* \"#utility.yul\":24343:24352   */\n      dup4\n        /* \"#utility.yul\":24339:24357   */\n      add\n        /* \"#utility.yul\":24330:24336   */\n      dup5\n        /* \"#utility.yul\":24286:24358   */\n      tag_404\n      jump\t// in\n    tag_716:\n        /* \"#utility.yul\":23832:24365   */\n      swap5\n      swap4\n      pop\n      pop\n      pop\n      pop\n      jump\t// out\n        /* \"#utility.yul\":24371:24545   */\n    tag_452:\n        /* \"#utility.yul\":24511:24537   */\n      0x416c676f726974686d20646f6573206e6f742065786973740000000000000000\n        /* \"#utility.yul\":24507:24508   */\n      0x00\n        /* \"#utility.yul\":24499:24505   */\n      dup3\n        /* \"#utility.yul\":24495:24509   */\n      add\n        /* \"#utility.yul\":24488:24538   */\n      mstore\n        /* \"#utility.yul\":24371:24545   */\n      pop\n      jump\t// out\n        /* \"#utility.yul\":24551:24917   */\n    tag_453:\n        /* \"#utility.yul\":24693:24696   */\n      0x00\n        /* \"#utility.yul\":24714:24781   */\n      tag_719\n        /* \"#utility.yul\":24778:24780   */\n      0x18\n        /* \"#utility.yul\":24773:24776   */\n      dup4\n        /* \"#utility.yul\":24714:24781   */\n      tag_395\n      jump\t// in\n    tag_719:\n        /* \"#utility.yul\":24707:24781   */\n      swap2\n      pop\n        /* \"#utility.yul\":24790:24883   */\n      tag_720\n        /* \"#utility.yul\":24879:24882   */\n      dup3\n        /* \"#utility.yul\":24790:24883   */\n      tag_452\n      jump\t// in\n    tag_720:\n        /* \"#utility.yul\":24908:24910   */\n      0x20\n        /* \"#utility.yul\":24903:24906   */\n      dup3\n        /* \"#utility.yul\":24899:24911   */\n      add\n        /* \"#utility.yul\":24892:24911   */\n      swap1\n      pop\n        /* \"#utility.yul\":24551:24917   */\n      swap2\n      swap1\n      pop\n      jump\t// out\n        /* \"#utility.yul\":24923:25342   */\n    tag_187:\n        /* \"#utility.yul\":25089:25093   */\n      0x00\n        /* \"#utility.yul\":25127:25129   */\n      0x20\n        /* \"#utility.yul\":25116:25125   */\n      dup3\n        /* \"#utility.yul\":25112:25130   */\n      add\n        /* \"#utility.yul\":25104:25130   */\n      swap1\n      pop\n        /* \"#utility.yul\":25176:25185   */\n      dup2\n        /* \"#utility.yul\":25170:25174   */\n      dup2\n        /* \"#utility.yul\":25166:25186   */\n      sub\n        /* \"#utility.yul\":25162:25163   */\n      0x00\n        /* \"#utility.yul\":25151:25160   */\n      dup4\n        /* \"#utility.yul\":25147:25164   */\n      add\n        /* \"#utility.yul\":25140:25187   */\n      mstore\n        /* \"#utility.yul\":25204:25335   */\n      tag_722\n        /* \"#utility.yul\":25330:25334   */\n      dup2\n        /* \"#utility.yul\":25204:25335   */\n      tag_453\n      jump\t// in\n    tag_722:\n        /* \"#utility.yul\":25196:25335   */\n      swap1\n      pop\n        /* \"#utility.yul\":24923:25342   */\n      swap2\n      swap1\n      pop\n      jump\t// out\n        /* \"#utility.yul\":25348:25562   */\n    tag_190:\n        /* \"#utility.yul\":25437:25441   */\n      0x00\n        /* \"#utility.yul\":25475:25477   */\n      0x20\n        /* \"#utility.yul\":25464:25473   */\n      dup3\n        /* \"#utility.yul\":25460:25478   */\n      add\n        /* \"#utility.yul\":25452:25478   */\n      swap1\n      pop\n        /* \"#utility.yul\":25488:25555   */\n      tag_724\n        /* \"#utility.yul\":25552:25553   */\n      0x00\n        /* \"#utility.yul\":25541:25550   */\n      dup4\n        /* \"#utility.yul\":25537:25554   */\n      add\n        /* \"#utility.yul\":25528:25534   */\n      dup5\n        /* \"#utility.yul\":25488:25555   */\n      tag_402\n      jump\t// in\n    tag_724:\n        /* \"#utility.yul\":25348:25562   */\n      swap3\n      swap2\n      pop\n      pop\n      jump\t// out\n        /* \"#utility.yul\":25568:25801   */\n    tag_214:\n        /* \"#utility.yul\":25607:25610   */\n      0x00\n        /* \"#utility.yul\":25630:25654   */\n      tag_726\n        /* \"#utility.yul\":25648:25653   */\n      dup3\n        /* \"#utility.yul\":25630:25654   */\n      tag_388\n      jump\t// in\n    tag_726:\n        /* \"#utility.yul\":25621:25654   */\n      swap2\n      pop\n        /* \"#utility.yul\":25676:25742   */\n      0xffffffffffffffffffffffffffffffffffffffffffffffffffffffffffffffff\n        /* \"#utility.yul\":25669:25674   */\n      dup3\n        /* \"#utility.yul\":25666:25743   */\n      sub\n        /* \"#utility.yul\":25663:25766   */\n      tag_727\n      jumpi\n        /* \"#utility.yul\":25746:25764   */\n      tag_728\n      tag_428\n      jump\t// in\n    tag_728:\n        /* \"#utility.yul\":25663:25766   */\n    tag_727:\n        /* \"#utility.yul\":25793:25794   */\n      0x01\n        /* \"#utility.yul\":25786:25791   */\n      dup3\n        /* \"#utility.yul\":25782:25795   */\n      add\n        /* \"#utility.yul\":25775:25795   */\n      swap1\n      pop\n        /* \"#utility.yul\":25568:25801   */\n      swap2\n      swap1\n      pop\n      jump\t// out\n        /* \"#utility.yul\":25807:25904   */\n    tag_454:\n        /* \"#utility.yul\":25866:25872   */\n      0x00\n        /* \"#utility.yul\":25894:25897   */\n      dup3\n        /* \"#utility.yul\":25884:25897   */\n      swap1\n      pop\n        /* \"#utility.yul\":25807:25904   */\n      swap3\n      swap2\n      pop\n      pop\n      jump\t// out\n        /* \"#utility.yul\":25910:27313   */\n    tag_241:\n        /* \"#utility.yul\":26034:26078   */\n      tag_731\n        /* \"#utility.yul\":26074:26077   */\n      dup4\n        /* \"#utility.yul\":26069:26072   */\n      dup4\n        /* \"#utility.yul\":26034:26078   */\n      tag_454\n      jump\t// in\n    tag_731:\n        /* \"#utility.yul\":26143:26161   */\n      0xffffffffffffffff\n        /* \"#utility.yul\":26135:26141   */\n      dup2\n        /* \"#utility.yul\":26132:26162   */\n      gt\n        /* \"#utility.yul\":26129:26185   */\n      iszero\n      tag_732\n      jumpi\n        /* \"#utility.yul\":26165:26183   */\n      tag_733\n      tag_432\n      jump\t// in\n    tag_733:\n        /* \"#utility.yul\":26129:26185   */\n    tag_732:\n        /* \"#utility.yul\":26209:26247   */\n      tag_734\n        /* \"#utility.yul\":26241:26245   */\n      dup3\n        /* \"#utility.yul\":26235:26246   */\n      sload\n        /* \"#utility.yul\":26209:26247   */\n      tag_119\n      jump\t// in\n    tag_734:\n        /* \"#utility.yul\":26294:26361   */\n      tag_735\n        /* \"#utility.yul\":26354:26360   */\n      dup3\n        /* \"#utility.yul\":26346:26352   */\n      dup3\n        /* \"#utility.yul\":26340:26344   */\n      dup6\n        /* \"#utility.yul\":26294:26361   */\n      tag_444\n      jump\t// in\n    tag_735:\n        /* \"#utility.yul\":26388:26389   */\n      0x00\n        /* \"#utility.yul\":26417:26419   */\n      0x1f\n        /* \"#utility.yul\":26409:26415   */\n      dup4\n        /* \"#utility.yul\":26406:26420   */\n      gt\n        /* \"#utility.yul\":26434:26435   */\n      0x01\n        /* \"#utility.yul\":26429:27061   */\n      dup2\n      eq\n      tag_737\n      jumpi\n        /* \"#utility.yul\":27105:27106   */\n      0x00\n        /* \"#utility.yul\":27122:27128   */\n      dup5\n        /* \"#utility.yul\":27119:27203   */\n      iszero\n      tag_738\n      jumpi\n        /* \"#utility.yul\":27178:27187   */\n      dup3\n        /* \"#utility.yul\":27173:27176   */\n      dup8\n        /* \"#utility.yul\":27169:27188   */\n      add\n        /* \"#utility.yul\":27156:27189   */\n      calldataload\n        /* \"#utility.yul\":27147:27189   */\n      swap1\n      pop\n        /* \"#utility.yul\":27119:27203   */\n    tag_738:\n        /* \"#utility.yul\":27229:27296   */\n      tag_739\n        /* \"#utility.yul\":27289:27295   */\n      dup6\n        /* \"#utility.yul\":27282:27287   */\n      dup3\n        /* \"#utility.yul\":27229:27296   */\n      tag_447\n      jump\t// in\n    tag_739:\n        /* \"#utility.yul\":27223:27227   */\n      dup7\n        /* \"#utility.yul\":27216:27297   */\n      sstore\n        /* \"#utility.yul\":27078:27307   */\n      pop\n        /* \"#utility.yul\":26399:27307   */\n      jump(tag_736)\n        /* \"#utility.yul\":26429:27061   */\n    tag_737:\n        /* \"#utility.yul\":26481:26485   */\n      0x1f\n        /* \"#utility.yul\":26477:26486   */\n      not\n        /* \"#utility.yul\":26469:26475   */\n      dup5\n        /* \"#utility.yul\":26465:26487   */\n      and\n        /* \"#utility.yul\":26515:26552   */\n      tag_740\n        /* \"#utility.yul\":26547:26551   */\n      dup7\n        /* \"#utility.yul\":26515:26552   */\n      tag_433\n      jump\t// in\n    tag_740:\n        /* \"#utility.yul\":26574:26575   */\n      0x00\n        /* \"#utility.yul\":26588:26803   */\n    tag_741:\n        /* \"#utility.yul\":26602:26609   */\n      dup3\n        /* \"#utility.yul\":26599:26600   */\n      dup2\n        /* \"#utility.yul\":26596:26610   */\n      lt\n        /* \"#utility.yul\":26588:26803   */\n      iszero\n      tag_743\n      jumpi\n        /* \"#utility.yul\":26688:26697   */\n      dup5\n        /* \"#utility.yul\":26683:26686   */\n      dup10\n        /* \"#utility.yul\":26679:26698   */\n      add\n        /* \"#utility.yul\":26666:26699   */\n      calldataload\n        /* \"#utility.yul\":26658:26664   */\n      dup3\n        /* \"#utility.yul\":26651:26700   */\n      sstore\n        /* \"#utility.yul\":26739:26740   */\n      0x01\n        /* \"#utility.yul\":26731:26737   */\n      dup3\n        /* \"#utility.yul\":26727:26741   */\n      add\n        /* \"#utility.yul\":26717:26741   */\n      swap2\n      pop\n        /* \"#utility.yul\":26786:26788   */\n      0x20\n        /* \"#utility.yul\":26775:26784   */\n      dup6\n        /* \"#utility.yul\":26771:26789   */\n      add\n        /* \"#utility.yul\":26758:26789   */\n      swap5\n      pop\n        /* \"#utility.yul\":26625:26629   */\n      0x20\n        /* \"#utility.yul\":26622:26623   */\n      dup2\n        /* \"#utility.yul\":26618:26630   */\n      add\n        /* \"#utility.yul\":26613:26630   */\n      swap1\n      pop\n        /* \"#utility.yul\":26588:26803   */\n      jump(tag_741)\n    tag_743:\n        /* \"#utility.yul\":26831:26837   */\n      dup7\n        /* \"#utility.yul\":26822:26829   */\n      dup4\n        /* \"#utility.yul\":26819:26838   */\n      lt\n        /* \"#utility.yul\":26816:27002   */\n      iszero\n      tag_744\n      jumpi\n        /* \"#utility.yul\":26896:26905   */\n      dup5\n        /* \"#utility.yul\":26891:26894   */\n      dup10\n        /* \"#utility.yul\":26887:26906   */\n      add\n        /* \"#utility.yul\":26874:26907   */\n      calldataload\n        /* \"#utility.yul\":26939:26987   */\n      tag_745\n        /* \"#utility.yul\":26981:26985   */\n      0x1f\n        /* \"#utility.yul\":26973:26979   */\n      dup10\n        /* \"#utility.yul\":26969:26986   */\n      and\n        /* \"#utility.yul\":26958:26967   */\n      dup3\n        /* \"#utility.yul\":26939:26987   */\n      tag_446\n      jump\t// in\n    tag_745:\n        /* \"#utility.yul\":26931:26937   */\n      dup4\n        /* \"#utility.yul\":26924:26988   */\n      sstore\n        /* \"#utility.yul\":26839:27002   */\n      pop\n        /* \"#utility.yul\":26816:27002   */\n    tag_744:\n        /* \"#utility.yul\":27048:27049   */\n      0x01\n        /* \"#utility.yul\":27044:27045   */\n      0x02\n        /* \"#utility.yul\":27036:27042   */\n      dup9\n        /* \"#utility.yul\":27032:27046   */\n      mul\n        /* \"#utility.yul\":27028:27050   */\n      add\n        /* \"#utility.yul\":27022:27026   */\n      dup9\n        /* \"#utility.yul\":27015:27051   */\n      sstore\n        /* \"#utility.yul\":26436:27061   */\n      pop\n      pop\n      pop\n        /* \"#utility.yul\":26399:27307   */\n    tag_736:\n      pop\n        /* \"#utility.yul\":26009:27313   */\n      pop\n      pop\n      pop\n        /* \"#utility.yul\":25910:27313   */\n      pop\n      pop\n      pop\n      jump\t// out\n        /* \"#utility.yul\":27319:28177   */\n    tag_249:\n        /* \"#utility.yul\":27570:27574   */\n      0x00\n        /* \"#utility.yul\":27608:27611   */\n      0xa0\n        /* \"#utility.yul\":27597:27606   */\n      dup3\n        /* \"#utility.yul\":27593:27612   */\n      add\n        /* \"#utility.yul\":27585:27612   */\n      swap1\n      pop\n        /* \"#utility.yul\":27622:27693   */\n      tag_747\n        /* \"#utility.yul\":27690:27691   */\n      0x00\n        /* \"#utility.yul\":27679:27688   */\n      dup4\n        /* \"#utility.yul\":27675:27692   */\n      add\n        /* \"#utility.yul\":27666:27672   */\n      dup10\n        /* \"#utility.yul\":27622:27693   */\n      tag_400\n      jump\t// in\n    tag_747:\n        /* \"#utility.yul\":27703:27771   */\n      tag_748\n        /* \"#utility.yul\":27767:27769   */\n      0x20\n        /* \"#utility.yul\":27756:27765   */\n      dup4\n        /* \"#utility.yul\":27752:27770   */\n      add\n        /* \"#utility.yul\":27743:27749   */\n      dup9\n        /* \"#utility.yul\":27703:27771   */\n      tag_402\n      jump\t// in\n    tag_748:\n        /* \"#utility.yul\":27818:27827   */\n      dup2\n        /* \"#utility.yul\":27812:27816   */\n      dup2\n        /* \"#utility.yul\":27808:27828   */\n      sub\n        /* \"#utility.yul\":27803:27805   */\n      0x40\n        /* \"#utility.yul\":27792:27801   */\n      dup4\n        /* \"#utility.yul\":27788:27806   */\n      add\n        /* \"#utility.yul\":27781:27829   */\n      mstore\n        /* \"#utility.yul\":27846:27924   */\n      tag_749\n        /* \"#utility.yul\":27919:27923   */\n      dup2\n        /* \"#utility.yul\":27910:27916   */\n      dup8\n        /* \"#utility.yul\":27846:27924   */\n      tag_398\n      jump\t// in\n    tag_749:\n        /* \"#utility.yul\":27838:27924   */\n      swap1\n      pop\n        /* \"#utility.yul\":27934:28006   */\n      tag_750\n        /* \"#utility.yul\":28002:28004   */\n      0x60\n        /* \"#utility.yul\":27991:28000   */\n      dup4\n        /* \"#utility.yul\":27987:28005   */\n      add\n        /* \"#utility.yul\":27978:27984   */\n      dup7\n        /* \"#utility.yul\":27934:28006   */\n      tag_404\n      jump\t// in\n    tag_750:\n        /* \"#utility.yul\":28054:28063   */\n      dup2\n        /* \"#utility.yul\":28048:28052   */\n      dup2\n        /* \"#utility.yul\":28044:28064   */\n      sub\n        /* \"#utility.yul\":28038:28041   */\n      0x80\n        /* \"#utility.yul\":28027:28036   */\n      dup4\n        /* \"#utility.yul\":28023:28042   */\n      add\n        /* \"#utility.yul\":28016:28065   */\n      mstore\n        /* \"#utility.yul\":28082:28170   */\n      tag_751\n        /* \"#utility.yul\":28165:28169   */\n      dup2\n        /* \"#utility.yul\":28156:28162   */\n      dup5\n        /* \"#utility.yul\":28148:28154   */\n      dup7\n        /* \"#utility.yul\":28082:28170   */\n      tag_449\n      jump\t// in\n    tag_751:\n        /* \"#utility.yul\":28074:28170   */\n      swap1\n      pop\n        /* \"#utility.yul\":27319:28177   */\n      swap8\n      swap7\n      pop\n      pop\n      pop\n      pop\n      pop\n      pop\n      pop\n      jump\t// out\n        /* \"#utility.yul\":28183:28352   */\n    tag_455:\n        /* \"#utility.yul\":28323:28344   */\n      0x4e6f207368617264207265676973746572656400000000000000000000000000\n        /* \"#utility.yul\":28319:28320   */\n      0x00\n        /* \"#utility.yul\":28311:28317   */\n      dup3\n        /* \"#utility.yul\":28307:28321   */\n      add\n        /* \"#utility.yul\":28300:28345   */\n      mstore\n        /* \"#utility.yul\":28183:28352   */\n      pop\n      jump\t// out\n        /* \"#utility.yul\":28358:28724   */\n    tag_456:\n        /* \"#utility.yul\":28500:28503   */\n      0x00\n        /* \"#utility.yul\":28521:28588   */\n      tag_754\n        /* \"#utility.yul\":28585:28587   */\n      0x13\n        /* \"#utility.yul\":28580:28583   */\n      dup4\n        /* \"#utility.yul\":28521:28588   */\n      tag_395\n      jump\t// in\n    tag_754:\n        /* \"#utility.yul\":28514:28588   */\n      swap2\n      pop\n        /* \"#utility.yul\":28597:28690   */\n      tag_755\n        /* \"#utility.yul\":28686:28689   */\n      dup3\n        /* \"#utility.yul\":28597:28690   */\n      tag_455\n      jump\t// in\n    tag_755:\n        /* \"#utility.yul\":28715:28717   */\n      0x20\n        /* \"#utility.yul\":28710:28713   */\n      dup3\n        /* \"#utility.yul\":28706:28718   */\n      add\n        /* \"#utility.yul\":28699:28718   */\n      swap1\n      pop\n        /* \"#utility.yul\":28358:28724   */\n      swap2\n      swap1\n      pop\n      jump\t// out\n        /* \"#utility.yul\":28730:29149   */\n    tag_253:\n        /* \"#utility.yul\":28896:28900   */\n      0x00\n        /* \"#utility.yul\":28934:28936   */\n      0x20\n        /* \"#utility.yul\":28923:28932   */\n      dup3\n        /* \"#utility.yul\":28919:28937   */\n      add\n        /* \"#utility.yul\":28911:28937   */\n      swap1\n      pop\n        /* \"#utility.yul\":28983:28992   */\n      dup2\n        /* \"#utility.yul\":28977:28981   */\n      dup2\n        /* \"#utility.yul\":28973:28993   */\n      sub\n        /* \"#utility.yul\":28969:28970   */\n      0x00\n        /* \"#utility.yul\":28958:28967   */\n      dup4\n        /* \"#utility.yul\":28954:28971   */\n      add\n        /* \"#utility.yul\":28947:28994   */\n      mstore\n        /* \"#utility.yul\":29011:29142   */\n      tag_757\n        /* \"#utility.yul\":29137:29141   */\n      dup2\n        /* \"#utility.yul\":29011:29142   */\n      tag_456\n      jump\t// in\n    tag_757:\n        /* \"#utility.yul\":29003:29142   */\n      swap1\n      pop\n        /* \"#utility.yul\":28730:29149   */\n      swap2\n      swap1\n      pop\n      jump\t// out\n        /* \"#utility.yul\":29155:29680   */\n    tag_280:\n        /* \"#utility.yul\":29320:29324   */\n      0x00\n        /* \"#utility.yul\":29358:29360   */\n      0x60\n        /* \"#utility.yul\":29347:29356   */\n      dup3\n        /* \"#utility.yul\":29343:29361   */\n      add\n        /* \"#utility.yul\":29335:29361   */\n      swap1\n      pop\n        /* \"#utility.yul\":29371:29442   */\n      tag_759\n        /* \"#utility.yul\":29439:29440   */\n      0x00\n        /* \"#utility.yul\":29428:29437   */\n      dup4\n        /* \"#utility.yul\":29424:29441   */\n      add\n        /* \"#utility.yul\":29415:29421   */\n      dup7\n        /* \"#utility.yul\":29371:29442   */\n      tag_400\n      jump\t// in\n    tag_759:\n        /* \"#utility.yul\":29452:29520   */\n      tag_760\n        /* \"#utility.yul\":29516:29518   */\n      0x20\n        /* \"#utility.yul\":29505:29514   */\n      dup4\n        /* \"#utility.yul\":29501:29519   */\n      add\n        /* \"#utility.yul\":29492:29498   */\n      dup6\n        /* \"#utility.yul\":29452:29520   */\n      tag_402\n      jump\t// in\n    tag_760:\n        /* \"#utility.yul\":29567:29576   */\n      dup2\n        /* \"#utility.yul\":29561:29565   */\n      dup2\n        /* \"#utility.yul\":29557:29577   */\n      sub\n        /* \"#utility.yul\":29552:29554   */\n      0x40\n        /* \"#utility.yul\":29541:29550   */\n      dup4\n        /* \"#utility.yul\":29537:29555   */\n      add\n        /* \"#utility.yul\":29530:29578   */\n      mstore\n        /* \"#utility.yul\":29595:29673   */\n      tag_761\n        /* \"#utility.yul\":29668:29672   */\n      dup2\n        /* \"#utility.yul\":29659:29665   */\n      dup5\n        /* \"#utility.yul\":29595:29673   */\n      tag_398\n      jump\t// in\n    tag_761:\n        /* \"#utility.yul\":29587:29673   */\n      swap1\n      pop\n        /* \"#utility.yul\":29155:29680   */\n      swap5\n      swap4\n      pop\n      pop\n      pop\n      pop\n      jump\t// out\n        /* \"#utility.yul\":29686:29865   */\n    tag_457:\n        /* \"#utility.yul\":29826:29857   */\n      0x4e6f20736861726420617661696c61626c6520666f72206465706c6f79000000\n        /* \"#utility.yul\":29822:29823   */\n      0x00\n        /* \"#utility.yul\":29814:29820   */\n      dup3\n        /* \"#utility.yul\":29810:29824   */\n      add\n        /* \"#utility.yul\":29803:29858   */\n      mstore\n        /* \"#utility.yul\":29686:29865   */\n      pop\n      jump\t// out\n        /* \"#utility.yul\":29871:30237   */\n    tag_458:\n        /* \"#utility.yul\":30013:30016   */\n      0x00\n        /* \"#utility.yul\":30034:30101   */\n      tag_764\n        /* \"#utility.yul\":30098:30100   */\n      0x1d\n        /* \"#utility.yul\":30093:30096   */\n      dup4\n        /* \"#utility.yul\":30034:30101   */\n      tag_395\n      jump\t// in\n    tag_764:\n        /* \"#utility.yul\":30027:30101   */\n      swap2\n      pop\n        /* \"#utility.yul\":30110:30203   */\n      tag_765\n        /* \"#utility.yul\":30199:30202   */\n      dup3\n        /* \"#utility.yul\":30110:30203   */\n      tag_457\n      jump\t// in\n    tag_765:\n        /* \"#utility.yul\":30228:30230   */\n      0x20\n        /* \"#utility.yul\":30223:30226   */\n      dup3\n        /* \"#utility.yul\":30219:30231   */\n      add\n        /* \"#utility.yul\":30212:30231   */\n      swap1\n      pop\n        /* \"#utility.yul\":29871:30237   */\n      swap2\n      swap1\n      pop\n      jump\t// out\n        /* \"#utility.yul\":30243:30662   */\n    tag_283:\n        /* \"#utility.yul\":30409:30413   */\n      0x00\n        /* \"#utility.yul\":30447:30449   */\n      0x20\n        /* \"#utility.yul\":30436:30445   */\n      dup3\n        /* \"#utility.yul\":30432:30450   */\n      add\n        /* \"#utility.yul\":30424:30450   */\n      swap1\n      pop\n        /* \"#utility.yul\":30496:30505   */\n      dup2\n        /* \"#utility.yul\":30490:30494   */\n      dup2\n        /* \"#utility.yul\":30486:30506   */\n      sub\n        /* \"#utility.yul\":30482:30483   */\n      0x00\n        /* \"#utility.yul\":30471:30480   */\n      dup4\n        /* \"#utility.yul\":30467:30484   */\n      add\n        /* \"#utility.yul\":30460:30507   */\n      mstore\n        /* \"#utility.yul\":30524:30655   */\n      tag_767\n        /* \"#utility.yul\":30650:30654   */\n      dup2\n        /* \"#utility.yul\":30524:30655   */\n      tag_458\n      jump\t// in\n    tag_767:\n        /* \"#utility.yul\":30516:30655   */\n      swap1\n      pop\n        /* \"#utility.yul\":30243:30662   */\n      swap2\n      swap1\n      pop\n      jump\t// out\n        /* \"#utility.yul\":30668:30893   */\n    tag_459:\n        /* \"#utility.yul\":30808:30842   */\n      0x4f776e61626c653a206e6577206f776e657220697320746865207a65726f2061\n        /* \"#utility.yul\":30804:30805   */\n      0x00\n        /* \"#utility.yul\":30796:30802   */\n      dup3\n        /* \"#utility.yul\":30792:30806   */\n      add\n        /* \"#utility.yul\":30785:30843   */\n      mstore\n        /* \"#utility.yul\":30877:30885   */\n      0x6464726573730000000000000000000000000000000000000000000000000000\n        /* \"#utility.yul\":30872:30874   */\n      0x20\n        /* \"#utility.yul\":30864:30870   */\n      dup3\n        /* \"#utility.yul\":30860:30875   */\n      add\n        /* \"#utility.yul\":30853:30886   */\n      mstore\n        /* \"#utility.yul\":30668:30893   */\n      pop\n      jump\t// out\n        /* \"#utility.yul\":30899:31265   */\n    tag_460:\n        /* \"#utility.yul\":31041:31044   */\n      0x00\n        /* \"#utility.yul\":31062:31129   */\n      tag_770\n        /* \"#utility.yul\":31126:31128   */\n      0x26\n        /* \"#utility.yul\":31121:31124   */\n      dup4\n        /* \"#utility.yul\":31062:31129   */\n      tag_395\n      jump\t// in\n    tag_770:\n        /* \"#utility.yul\":31055:31129   */\n      swap2\n      pop\n        /* \"#utility.yul\":31138:31231   */\n      tag_771\n        /* \"#utility.yul\":31227:31230   */\n      dup3\n        /* \"#utility.yul\":31138:31231   */\n      tag_459\n      jump\t// in\n    tag_771:\n        /* \"#utility.yul\":31256:31258   */\n      0x40\n        /* \"#utility.yul\":31251:31254   */\n      dup3\n        /* \"#utility.yul\":31247:31259   */\n      add\n        /* \"#utility.yul\":31240:31259   */\n      swap1\n      pop\n        /* \"#utility.yul\":30899:31265   */\n      swap2\n      swap1\n      pop\n      jump\t// out\n        /* \"#utility.yul\":31271:31690   */\n    tag_289:\n        /* \"#utility.yul\":31437:31441   */\n      0x00\n        /* \"#utility.yul\":31475:31477   */\n      0x20\n        /* \"#utility.yul\":31464:31473   */\n      dup3\n        /* \"#utility.yul\":31460:31478   */\n      add\n        /* \"#utility.yul\":31452:31478   */\n      swap1\n      pop\n        /* \"#utility.yul\":31524:31533   */\n      dup2\n        /* \"#utility.yul\":31518:31522   */\n      dup2\n        /* \"#utility.yul\":31514:31534   */\n      sub\n        /* \"#utility.yul\":31510:31511   */\n      0x00\n        /* \"#utility.yul\":31499:31508   */\n      dup4\n        /* \"#utility.yul\":31495:31512   */\n      add\n        /* \"#utility.yul\":31488:31535   */\n      mstore\n        /* \"#utility.yul\":31552:31683   */\n      tag_773\n        /* \"#utility.yul\":31678:31682   */\n      dup2\n        /* \"#utility.yul\":31552:31683   */\n      tag_460\n      jump\t// in\n    tag_773:\n        /* \"#utility.yul\":31544:31683   */\n      swap1\n      pop\n        /* \"#utility.yul\":31271:31690   */\n      swap2\n      swap1\n      pop\n      jump\t// out\n        /* \"#utility.yul\":31696:31866   */\n    tag_461:\n        /* \"#utility.yul\":31836:31858   */\n      0x536861726420646f6573206e6f74206578697374000000000000000000000000\n        /* \"#utility.yul\":31832:31833   */\n      0x00\n        /* \"#utility.yul\":31824:31830   */\n      dup3\n        /* \"#utility.yul\":31820:31834   */\n      add\n        /* \"#utility.yul\":31813:31859   */\n      mstore\n        /* \"#utility.yul\":31696:31866   */\n      pop\n      jump\t// out\n        /* \"#utility.yul\":31872:32238   */\n    tag_462:\n        /* \"#utility.yul\":32014:32017   */\n      0x00\n        /* \"#utility.yul\":32035:32102   */\n      tag_776\n        /* \"#utility.yul\":32099:32101   */\n      0x14\n        /* \"#utility.yul\":32094:32097   */\n      dup4\n        /* \"#utility.yul\":32035:32102   */\n      tag_395\n      jump\t// in\n    tag_776:\n        /* \"#utility.yul\":32028:32102   */\n      swap2\n      pop\n        /* \"#utility.yul\":32111:32204   */\n      tag_777\n        /* \"#utility.yul\":32200:32203   */\n      dup3\n        /* \"#utility.yul\":32111:32204   */\n      tag_461\n      jump\t// in\n    tag_777:\n        /* \"#utility.yul\":32229:32231   */\n      0x20\n        /* \"#utility.yul\":32224:32227   */\n      dup3\n        /* \"#utility.yul\":32220:32232   */\n      add\n        /* \"#utility.yul\":32213:32232   */\n      swap1\n      pop\n        /* \"#utility.yul\":31872:32238   */\n      swap2\n      swap1\n      pop\n      jump\t// out\n        /* \"#utility.yul\":32244:32663   */\n    tag_296:\n        /* \"#utility.yul\":32410:32414   */\n      0x00\n        /* \"#utility.yul\":32448:32450   */\n      0x20\n        /* \"#utility.yul\":32437:32446   */\n      dup3\n        /* \"#utility.yul\":32433:32451   */\n      add\n        /* \"#utility.yul\":32425:32451   */\n      swap1\n      pop\n        /* \"#utility.yul\":32497:32506   */\n      dup2\n        /* \"#utility.yul\":32491:32495   */\n      dup2\n        /* \"#utility.yul\":32487:32507   */\n      sub\n        /* \"#utility.yul\":32483:32484   */\n      0x00\n        /* \"#utility.yul\":32472:32481   */\n      dup4\n        /* \"#utility.yul\":32468:32485   */\n      add\n        /* \"#utility.yul\":32461:32508   */\n      mstore\n        /* \"#utility.yul\":32525:32656   */\n      tag_779\n        /* \"#utility.yul\":32651:32655   */\n      dup2\n        /* \"#utility.yul\":32525:32656   */\n      tag_462\n      jump\t// in\n    tag_779:\n        /* \"#utility.yul\":32517:32656   */\n      swap1\n      pop\n        /* \"#utility.yul\":32244:32663   */\n      swap2\n      swap1\n      pop\n      jump\t// out\n        /* \"#utility.yul\":32669:32860   */\n    tag_303:\n        /* \"#utility.yul\":32709:32712   */\n      0x00\n        /* \"#utility.yul\":32728:32748   */\n      tag_781\n        /* \"#utility.yul\":32746:32747   */\n      dup3\n        /* \"#utility.yul\":32728:32748   */\n      tag_388\n      jump\t// in\n    tag_781:\n        /* \"#utility.yul\":32723:32748   */\n      swap2\n      pop\n        /* \"#utility.yul\":32762:32782   */\n      tag_782\n        /* \"#utility.yul\":32780:32781   */\n      dup4\n        /* \"#utility.yul\":32762:32782   */\n      tag_388\n      jump\t// in\n    tag_782:\n        /* \"#utility.yul\":32757:32782   */\n      swap3\n      pop\n        /* \"#utility.yul\":32805:32806   */\n      dup3\n        /* \"#utility.yul\":32802:32803   */\n      dup3\n        /* \"#utility.yul\":32798:32807   */\n      add\n        /* \"#utility.yul\":32791:32807   */\n      swap1\n      pop\n        /* \"#utility.yul\":32826:32829   */\n      dup1\n        /* \"#utility.yul\":32823:32824   */\n      dup3\n        /* \"#utility.yul\":32820:32830   */\n      gt\n        /* \"#utility.yul\":32817:32853   */\n      iszero\n      tag_783\n      jumpi\n        /* \"#utility.yul\":32833:32851   */\n      tag_784\n      tag_428\n      jump\t// in\n    tag_784:\n        /* \"#utility.yul\":32817:32853   */\n    tag_783:\n        /* \"#utility.yul\":32669:32860   */\n      swap3\n      swap2\n      pop\n      pop\n      jump\t// out\n        /* \"#utility.yul\":32866:33046   */\n    tag_463:\n        /* \"#utility.yul\":32914:32991   */\n      0x4e487b7100000000000000000000000000000000000000000000000000000000\n        /* \"#utility.yul\":32911:32912   */\n      0x00\n        /* \"#utility.yul\":32904:32992   */\n      mstore\n        /* \"#utility.yul\":33011:33015   */\n      0x12\n        /* \"#utility.yul\":33008:33009   */\n      0x04\n        /* \"#utility.yul\":33001:33016   */\n      mstore\n        /* \"#utility.yul\":33035:33039   */\n      0x24\n        /* \"#utility.yul\":33032:33033   */\n      0x00\n        /* \"#utility.yul\":33025:33040   */\n      revert\n        /* \"#utility.yul\":33052:33228   */\n    tag_306:\n        /* \"#utility.yul\":33084:33085   */\n      0x00\n        /* \"#utility.yul\":33101:33121   */\n      tag_787\n        /* \"#utility.yul\":33119:33120   */\n      dup3\n        /* \"#utility.yul\":33101:33121   */\n      tag_388\n      jump\t// in\n    tag_787:\n        /* \"#utility.yul\":33096:33121   */\n      swap2\n      pop\n        /* \"#utility.yul\":33135:33155   */\n      tag_788\n        /* \"#utility.yul\":33153:33154   */\n      dup4\n        /* \"#utility.yul\":33135:33155   */\n      tag_388\n      jump\t// in\n    tag_788:\n        /* \"#utility.yul\":33130:33155   */\n      swap3\n      pop\n        /* \"#utility.yul\":33174:33175   */\n      dup3\n        /* \"#utility.yul\":33164:33199   */\n      tag_789\n      jumpi\n        /* \"#utility.yul\":33179:33197   */\n      tag_790\n      tag_463\n      jump\t// in\n    tag_790:\n        /* \"#utility.yul\":33164:33199   */\n    tag_789:\n        /* \"#utility.yul\":33220:33221   */\n      dup3\n        /* \"#utility.yul\":33217:33218   */\n      dup3\n        /* \"#utility.yul\":33213:33222   */\n      mod\n        /* \"#utility.yul\":33208:33222   */\n      swap1\n      pop\n        /* \"#utility.yul\":33052:33228   */\n      swap3\n      swap2\n      pop\n      pop\n      jump\t// out\n        /* \"#utility.yul\":33234:33422   */\n    tag_314:\n        /* \"#utility.yul\":33272:33275   */\n      0x00\n        /* \"#utility.yul\":33291:33309   */\n      tag_792\n        /* \"#utility.yul\":33307:33308   */\n      dup3\n        /* \"#utility.yul\":33291:33309   */\n      tag_401\n      jump\t// in\n    tag_792:\n        /* \"#utility.yul\":33286:33309   */\n      swap2\n      pop\n        /* \"#utility.yul\":33323:33341   */\n      tag_793\n        /* \"#utility.yul\":33339:33340   */\n      dup4\n        /* \"#utility.yul\":33323:33341   */\n      tag_401\n      jump\t// in\n    tag_793:\n        /* \"#utility.yul\":33318:33341   */\n      swap3\n      pop\n        /* \"#utility.yul\":33364:33365   */\n      dup3\n        /* \"#utility.yul\":33361:33362   */\n      dup3\n        /* \"#utility.yul\":33357:33366   */\n      add\n        /* \"#utility.yul\":33350:33366   */\n      swap1\n      pop\n        /* \"#utility.yul\":33387:33391   */\n      0xff\n        /* \"#utility.yul\":33382:33385   */\n      dup2\n        /* \"#utility.yul\":33379:33392   */\n      gt\n        /* \"#utility.yul\":33376:33415   */\n      iszero\n      tag_794\n      jumpi\n        /* \"#utility.yul\":33395:33413   */\n      tag_795\n      tag_428\n      jump\t// in\n    tag_795:\n        /* \"#utility.yul\":33376:33415   */\n    tag_794:\n        /* \"#utility.yul\":33234:33422   */\n      swap3\n      swap2\n      pop\n      pop\n      jump\t// out\n        /* \"#utility.yul\":33428:33595   */\n    tag_332:\n        /* \"#utility.yul\":33465:33468   */\n      0x00\n        /* \"#utility.yul\":33488:33510   */\n      tag_797\n        /* \"#utility.yul\":33504:33509   */\n      dup3\n        /* \"#utility.yul\":33488:33510   */\n      tag_401\n      jump\t// in\n    tag_797:\n        /* \"#utility.yul\":33479:33510   */\n      swap2\n      pop\n        /* \"#utility.yul\":33532:33536   */\n      0xff\n        /* \"#utility.yul\":33525:33530   */\n      dup3\n        /* \"#utility.yul\":33522:33537   */\n      sub\n        /* \"#utility.yul\":33519:33560   */\n      tag_798\n      jumpi\n        /* \"#utility.yul\":33540:33558   */\n      tag_799\n      tag_428\n      jump\t// in\n    tag_799:\n        /* \"#utility.yul\":33519:33560   */\n    tag_798:\n        /* \"#utility.yul\":33587:33588   */\n      0x01\n        /* \"#utility.yul\":33580:33585   */\n      dup3\n        /* \"#utility.yul\":33576:33589   */\n      add\n        /* \"#utility.yul\":33569:33589   */\n      swap1\n      pop\n        /* \"#utility.yul\":33428:33595   */\n      swap2\n      swap1\n      pop\n      jump\t// out\n        /* \"#utility.yul\":33601:33783   */\n    tag_464:\n        /* \"#utility.yul\":33741:33775   */\n      0x4f776e61626c653a2063616c6c6572206973206e6f7420746865206f776e6572\n        /* \"#utility.yul\":33737:33738   */\n      0x00\n        /* \"#utility.yul\":33729:33735   */\n      dup3\n        /* \"#utility.yul\":33725:33739   */\n      add\n        /* \"#utility.yul\":33718:33776   */\n      mstore\n        /* \"#utility.yul\":33601:33783   */\n      pop\n      jump\t// out\n        /* \"#utility.yul\":33789:34155   */\n    tag_465:\n        /* \"#utility.yul\":33931:33934   */\n      0x00\n        /* \"#utility.yul\":33952:34019   */\n      tag_802\n        /* \"#utility.yul\":34016:34018   */\n      0x20\n        /* \"#utility.yul\":34011:34014   */\n      dup4\n        /* \"#utility.yul\":33952:34019   */\n      tag_395\n      jump\t// in\n    tag_802:\n        /* \"#utility.yul\":33945:34019   */\n      swap2\n      pop\n        /* \"#utility.yul\":34028:34121   */\n      tag_803\n        /* \"#utility.yul\":34117:34120   */\n      dup3\n        /* \"#utility.yul\":34028:34121   */\n      tag_464\n      jump\t// in\n    tag_803:\n        /* \"#utility.yul\":34146:34148   */\n      0x20\n        /* \"#utility.yul\":34141:34144   */\n      dup3\n        /* \"#utility.yul\":34137:34149   */\n      add\n        /* \"#utility.yul\":34130:34149   */\n      swap1\n      pop\n        /* \"#utility.yul\":33789:34155   */\n      swap2\n      swap1\n      pop\n      jump\t// out\n        /* \"#utility.yul\":34161:34580   */\n    tag_373:\n        /* \"#utility.yul\":34327:34331   */\n      0x00\n        /* \"#utility.yul\":34365:34367   */\n      0x20\n        /* \"#utility.yul\":34354:34363   */\n      dup3\n        /* \"#utility.yul\":34350:34368   */\n      add\n        /* \"#utility.yul\":34342:34368   */\n      swap1\n      pop\n        /* \"#utility.yul\":34414:34423   */\n      dup2\n        /* \"#utility.yul\":34408:34412   */\n      dup2\n        /* \"#utility.yul\":34404:34424   */\n      sub\n        /* \"#utility.yul\":34400:34401   */\n      0x00\n        /* \"#utility.yul\":34389:34398   */\n      dup4\n        /* \"#utility.yul\":34385:34402   */\n      add\n        /* \"#utility.yul\":34378:34425   */\n      mstore\n        /* \"#utility.yul\":34442:34573   */\n      tag_805\n        /* \"#utility.yul\":34568:34572   */\n      dup2\n        /* \"#utility.yul\":34442:34573   */\n      tag_465\n      jump\t// in\n    tag_805:\n        /* \"#utility.yul\":34434:34573   */\n      swap1\n      pop\n        /* \"#utility.yul\":34161:34580   */\n      swap2\n      swap1\n      pop\n      jump\t// out\n        /* \"#utility.yul\":34586:34766   */\n    tag_382:\n        /* \"#utility.yul\":34634:34711   */\n      0x4e487b7100000000000000000000000000000000000000000000000000000000\n        /* \"#utility.yul\":34631:34632   */\n      0x00\n        /* \"#utility.yul\":34624:34712   */\n      mstore\n        /* \"#utility.yul\":34731:34735   */\n      0x51\n        /* \"#utility.yul\":34728:34729   */\n      0x04\n        /* \"#utility.yul\":34721:34736   */\n      mstore\n        /* \"#utility.yul\":34755:34759   */\n      0x24\n        /* \"#utility.yul\":34752:34753   */\n      0x00\n        /* \"#utility.yul\":34745:34760   */\n      revert\n\n    auxdata: 0xa26469706673582212208e02eceb3b4c6b416a1194699734d73e827336ffabe12803076cd9650573bf0064736f6c63430008110033\n}\n",
				"bytecode": {
					"linkReferences": {},
					"object": "60806040523480156200001157600080fd5b5062000032620000266200013a60201b60201c565b6200014260201b60201c565b6000600360006101000a81548160ff021916908360ff1602179055506000600681905550600a600760006101000a81548160ff021916908360ff16021790555060046200020660201b62001b051790806001815401808255809150506001900390600052602060002090600491828204019190066008029091909190916101000a81548167ffffffffffffffff021916908367ffffffffffffffff1602179055506004620003e260201b62001cc81790806001815401808255809150506001900390600052602060002090600491828204019190066008029091909190916101000a81548167ffffffffffffffff021916908367ffffffffffffffff16021790555062000752565b600033905090565b60008060009054906101000a900473ffffffffffffffffffffffffffffffffffffffff169050816000806101000a81548173ffffffffffffffffffffffffffffffffffffffff021916908373ffffffffffffffffffffffffffffffffffffffff1602179055508173ffffffffffffffffffffffffffffffffffffffff168173ffffffffffffffffffffffffffffffffffffffff167f8be0079c531659141344cd1fd0a4f28419497f9722a3daafe3b4186f6b6457e060405160405180910390a35050565b6000806002805490506001600280549050600360019054906101000a900460ff1660ff16620002369190620005cf565b6200024291906200060a565b6200024e919062000674565b90505b8060ff16600360019054906101000a900460ff1660ff1614158015620002bc57506002600360019054906101000a900460ff1660ff16815481106200029b576200029a620006ac565b5b906000526020600020906003020160010160009054906101000a900460ff16155b1562000315576002805490506001600360019054906101000a900460ff16620002e69190620006e8565b60ff16620002f5919062000674565b600360016101000a81548160ff021916908360ff16021790555062000251565b60006002600360019054906101000a900460ff1660ff168154811062000340576200033f620006ac565b5b906000526020600020906003020160010160009054906101000a900460ff166200037a57600760009054906101000a900460ff166200038b565b600360019054906101000a900460ff165b90506002805490506001600360019054906101000a900460ff16620003b19190620006e8565b60ff16620003c0919062000674565b600360016101000a81548160ff021916908360ff160217905550809250505090565b6000806000600760009054906101000a900460ff16905060005b6002805490508160ff161080156200044a575060028160ff1681548110620004295762000428620006ac565b5b906000526020600020906003020160010160009054906101000a900460ff16155b15620004665780806200045d9062000724565b915050620003fc565b6002805490508160ff1610156200058d5780915060028160ff1681548110620004945762000493620006ac565b5b90600052602060002090600302016002015492506000600182620004b99190620006e8565b90505b6002805490508160ff1610156200058b5760028160ff1681548110620004e757620004e6620006ac565b5b906000526020600020906003020160010160009054906101000a900460ff1680156200053d57508360028260ff1681548110620005295762000528620006ac565b5b906000526020600020906003020160020154105b15620005755780925060028160ff168154811062000560576200055f620006ac565b5b90600052602060002090600302016002015493505b8080620005829062000724565b915050620004bc565b505b81935050505090565b6000819050919050565b7f4e487b7100000000000000000000000000000000000000000000000000000000600052601160045260246000fd5b6000620005dc8262000596565b9150620005e98362000596565b9250828201905080821115620006045762000603620005a0565b5b92915050565b6000620006178262000596565b9150620006248362000596565b92508282039050818111156200063f576200063e620005a0565b5b92915050565b7f4e487b7100000000000000000000000000000000000000000000000000000000600052601260045260246000fd5b6000620006818262000596565b91506200068e8362000596565b925082620006a157620006a062000645565b5b828206905092915050565b7f4e487b7100000000000000000000000000000000000000000000000000000000600052603260045260246000fd5b600060ff82169050919050565b6000620006f582620006db565b91506200070283620006db565b9250828201905060ff8111156200071e576200071d620005a0565b5b92915050565b60006200073182620006db565b915060ff8203620007475762000746620005a0565b5b600182019050919050565b6134b180620007626000396000f3fe608060405234801561001057600080fd5b50600436106100f55760003560e01c80638da5cb5b11610097578063c0981b2611610066578063c0981b261461024f578063ca9896591461026b578063f2fde38b1461028a578063f335f7ac146102a6576100f5565b80638da5cb5b146101dd5780639552bca7146101fb57806398c2054314610217578063a07ca63514610233576100f5565b806365a88003116100d357806365a880031461017d578063715018a6146101995780637adbf973146101a35780638291286c146101bf576100f5565b806319b4a0f9146100fa578063608c2db514610116578063613eb17d14610148575b600080fd5b610114600480360381019061010f919061224f565b6102c2565b005b610130600480360381019061012b919061228f565b61063b565b60405161013f9392919061236a565b60405180910390f35b610162600480360381019061015d919061228f565b61070a565b604051610174969594939291906124b7565b60405180910390f35b61019760048036038101906101929190612584565b610815565b005b6101a161099d565b005b6101bd60048036038101906101b89190612610565b6109b1565b005b6101c7610a34565b6040516101d4919061263d565b60405180910390f35b6101e5610a3a565b6040516101f29190612658565b60405180910390f35b6102156004803603810190610210919061228f565b610a63565b005b610231600480360381019061022c919061269f565b610d93565b005b61024d6004803603810190610248919061224f565b610e3c565b005b610269600480360381019061026491906126f8565b6111b5565b005b6102736115f3565b60405161028192919061276c565b60405180910390f35b6102a4600480360381019061029f9190612610565b6119ea565b005b6102c060048036038101906102bb919061279c565b611a6d565b005b600073ffffffffffffffffffffffffffffffffffffffff16600560009054906101000a900473ffffffffffffffffffffffffffffffffffffffff1673ffffffffffffffffffffffffffffffffffffffff1603610353576040517f08c379a000000000000000000000000000000000000000000000000000000000815260040161034a90612828565b60405180910390fd5b600560009054906101000a900473ffffffffffffffffffffffffffffffffffffffff1673ffffffffffffffffffffffffffffffffffffffff163373ffffffffffffffffffffffffffffffffffffffff16146103e3576040517f08c379a00000000000000000000000000000000000000000000000000000000081526004016103da90612894565b60405180910390fd5b8160028060048111156103f9576103f8612440565b5b6001600084815260200190815260200160002060040160009054906101000a900460ff16600481111561042f5761042e612440565b5b1461046f576040517f08c379a000000000000000000000000000000000000000000000000000000000815260040161046690612900565b60405180910390fd5b60008060008061047e88611e5f565b9350935093509350861561050f576003600160008a815260200190815260200160002060040160006101000a81548160ff021916908360048111156104c6576104c5612440565b5b02179055507ffc0e41f3f5d509cf16934162c0fb5020db934ae90a7498d8b479568589ffccd18885858585604051610502959493929190612920565b60405180910390a1610631565b60016000898152602001908152602001600020600080820160006101000a81549060ff02191690556000820160016101000a81549073ffffffffffffffffffffffffffffffffffffffff021916905560018201600061056e9190612170565b6002820160006101000a81549073ffffffffffffffffffffffffffffffffffffffff021916905560038201600090556004820160006101000a81549060ff0219169055505060028460ff16815481106105ca576105c9612981565b5b906000526020600020906003020160020160008154809291906105ec906129df565b91905055507f018740aef37e3c4899e9f4d59558109dd1e1dbeb955703c419beebde386965178885858585604051610628959493929190612920565b60405180910390a15b5050505050505050565b6002818154811061064b57600080fd5b906000526020600020906003020160009150905080600001805461066e90612a37565b80601f016020809104026020016040519081016040528092919081815260200182805461069a90612a37565b80156106e75780601f106106bc576101008083540402835291602001916106e7565b820191906000526020600020905b8154815290600101906020018083116106ca57829003601f168201915b5050505050908060010160009054906101000a900460ff16908060020154905083565b60016020528060005260406000206000915090508060000160009054906101000a900460ff16908060000160019054906101000a900460601b9080600101805461075390612a37565b80601f016020809104026020016040519081016040528092919081815260200182805461077f90612a37565b80156107cc5780601f106107a1576101008083540402835291602001916107cc565b820191906000526020600020905b8154815290600101906020018083116107af57829003601f168201915b5050505050908060020160009054906101000a900473ffffffffffffffffffffffffffffffffffffffff16908060030154908060040160009054906101000a900460ff16905086565b61081d612026565b600760009054906101000a900460ff1660ff166002805490501115610877576040517f08c379a000000000000000000000000000000000000000000000000000000000815260040161086e90612ab4565b60405180910390fd5b6002604051806060016040528085858080601f016020809104026020016040519081016040528093929190818152602001838380828437600081840152601f19601f82011690508083019250505050505050815260200183151581526020016000815250908060018154018082558091505060019003906000526020600020906003020160009091909190915060008201518160000190816109199190612caf565b5060208201518160010160006101000a81548160ff0219169083151502179055506040820151816002015550506000600160028054905061095a9190612d81565b90507f1def1861d5991921dae7e9520a9201fc401ee5942e01cb2ccffb1bc0c3f0d0c681858560405161098f93929190612df1565b60405180910390a150505050565b6109a5612026565b6109af60006120a4565b565b6109b9612026565b80600560006101000a81548173ffffffffffffffffffffffffffffffffffffffff021916908373ffffffffffffffffffffffffffffffffffffffff1602179055507f807dc19e171652591d023395bfc818727564b07291b9e0b9de995c9138d179f181604051610a299190612658565b60405180910390a150565b60065481565b60008060009054906101000a900473ffffffffffffffffffffffffffffffffffffffff16905090565b600073ffffffffffffffffffffffffffffffffffffffff16600560009054906101000a900473ffffffffffffffffffffffffffffffffffffffff1673ffffffffffffffffffffffffffffffffffffffff1603610af4576040517f08c379a0000000000000000000000000000000000000000000000000000000008152600401610aeb90612828565b60405180910390fd5b803373ffffffffffffffffffffffffffffffffffffffff166001600083815260200190815260200160002060020160009054906101000a900473ffffffffffffffffffffffffffffffffffffffff1673ffffffffffffffffffffffffffffffffffffffff1614610b99576040517f08c379a0000000000000000000000000000000000000000000000000000000008152600401610b9090612e6f565b60405180910390fd5b816003806004811115610baf57610bae612440565b5b6001600084815260200190815260200160002060040160009054906101000a900460ff166004811115610be557610be4612440565b5b14610c25576040517f08c379a0000000000000000000000000000000000000000000000000000000008152600401610c1c90612900565b60405180910390fd5b600080600080610c3488611e5f565b935093509350935060028460ff1681548110610c5357610c52612981565b5b90600052602060002090600302016002016000815480929190610c75906129df565b91905055506004600160008a815260200190815260200160002060040160006101000a81548160ff02191690836004811115610cb457610cb3612440565b5b0217905550600560009054906101000a900473ffffffffffffffffffffffffffffffffffffffff1673ffffffffffffffffffffffffffffffffffffffff1663f6159ce68985856040518463ffffffff1660e01b8152600401610d1893929190612e8f565b600060405180830381600087803b158015610d3257600080fd5b505af1158015610d46573d6000803e3d6000fd5b505050507f628abcdb4e4b579cc58315017cfc6a5853fdb6ac143fca00a6d0b28a73a0f5408885858585604051610d81959493929190612920565b60405180910390a15050505050505050565b610d9b612026565b806004805490508160ff1610610de6576040517f08c379a0000000000000000000000000000000000000000000000000000000008152600401610ddd90612f19565b60405180910390fd5b81600360006101000a81548160ff021916908360ff1602179055507f987a3408e00935d1eb359fd8812975019ac50bad81a9b01cddfa171579c848ba82604051610e309190612f39565b60405180910390a15050565b600073ffffffffffffffffffffffffffffffffffffffff16600560009054906101000a900473ffffffffffffffffffffffffffffffffffffffff1673ffffffffffffffffffffffffffffffffffffffff1603610ecd576040517f08c379a0000000000000000000000000000000000000000000000000000000008152600401610ec490612828565b60405180910390fd5b600560009054906101000a900473ffffffffffffffffffffffffffffffffffffffff1673ffffffffffffffffffffffffffffffffffffffff163373ffffffffffffffffffffffffffffffffffffffff1614610f5d576040517f08c379a0000000000000000000000000000000000000000000000000000000008152600401610f5490612894565b60405180910390fd5b816004806004811115610f7357610f72612440565b5b6001600084815260200190815260200160002060040160009054906101000a900460ff166004811115610fa957610fa8612440565b5b14610fe9576040517f08c379a0000000000000000000000000000000000000000000000000000000008152600401610fe090612900565b60405180910390fd5b600080600080610ff888611e5f565b935093509350935086156110ee5760016000898152602001908152602001600020600080820160006101000a81549060ff02191690556000820160016101000a81549073ffffffffffffffffffffffffffffffffffffffff02191690556001820160006110659190612170565b6002820160006101000a81549073ffffffffffffffffffffffffffffffffffffffff021916905560038201600090556004820160006101000a81549060ff021916905550507f34f974022181aae39aa96d8758f573cb067a8b910edc151f1c7e4227fda5a3d688858585856040516110e1959493929190612920565b60405180910390a16111ab565b60028460ff168154811061110557611104612981565b5b9060005260206000209060030201600201600081548092919061112790612f54565b91905055506003600160008a815260200190815260200160002060040160006101000a81548160ff0219169083600481111561116657611165612440565b5b02179055507f5d6d4a8afd86aeea9d8f976d1e848289b569d5dd41b052c21bbe97be23d2a33988858585856040516111a2959493929190612920565b60405180910390a15b5050505050505050565b600073ffffffffffffffffffffffffffffffffffffffff16600560009054906101000a900473ffffffffffffffffffffffffffffffffffffffff1673ffffffffffffffffffffffffffffffffffffffff1603611246576040517f08c379a000000000000000000000000000000000000000000000000000000000815260040161123d90612828565b60405180910390fd5b833373ffffffffffffffffffffffffffffffffffffffff166001600083815260200190815260200160002060020160009054906101000a900473ffffffffffffffffffffffffffffffffffffffff1673ffffffffffffffffffffffffffffffffffffffff16146112eb576040517f08c379a00000000000000000000000000000000000000000000000000000000081526004016112e290612e6f565b60405180910390fd5b84600180600481111561130157611300612440565b5b6001600084815260200190815260200160002060040160009054906101000a900460ff16600481111561133757611336612440565b5b14611377576040517f08c379a000000000000000000000000000000000000000000000000000000000815260040161136e90612900565b60405180910390fd5b60006001600089815260200190815260200160002060000160009054906101000a900460ff169050600060028260ff16815481106113b8576113b7612981565b5b906000526020600020906003020160000180546113d490612a37565b80601f016020809104026020016040519081016040528092919081815260200182805461140090612a37565b801561144d5780601f106114225761010080835404028352916020019161144d565b820191906000526020600020905b81548152906001019060200180831161143057829003601f168201915b5050505050905087600160008b815260200190815260200160002060000160016101000a81548173ffffffffffffffffffffffffffffffffffffffff021916908360601c02179055508686600160008c815260200190815260200160002060010191826114bb929190612fa7565b5042600160008b8152602001908152602001600020600301819055506002600160008b815260200190815260200160002060040160006101000a81548160ff0219169083600481111561151157611510612440565b5b0217905550600560009054906101000a900473ffffffffffffffffffffffffffffffffffffffff1673ffffffffffffffffffffffffffffffffffffffff16632b0d3a8e8a838b6040518463ffffffff1660e01b815260040161157593929190612e8f565b600060405180830381600087803b15801561158f57600080fd5b505af11580156115a3573d6000803e3d6000fd5b505050507f1c42c890f21ce8a67778dd4a7c3f65f9131aa60fb612e1bcf7a7b7482e88f4428983838b8b8b6040516115e096959493929190613077565b60405180910390a1505050505050505050565b6000606060006002805490501161163f576040517f08c379a000000000000000000000000000000000000000000000000000000000815260040161163690613126565b60405180910390fd5b60006116a36004600360009054906101000a900460ff1660ff168154811061166a57611669612981565b5b90600052602060002090600491828204019190066008029054906101000a900480156121b0021767ffffffffffffffff1663ffffffff16565b90506000604051806020016040528060008152509050600760009054906101000a900460ff1660ff168260ff1610156119a15760028260ff16815481106116ed576116ec612981565b5b9060005260206000209060030201600001805461170990612a37565b80601f016020809104026020016040519081016040528092919081815260200182805461173590612a37565b80156117825780601f1061175757610100808354040283529160200191611782565b820191906000526020600020905b81548152906001019060200180831161176557829003601f168201915b505050505090506006600081548092919061179c90612f54565b91905055506040518060c001604052808360ff168152602001600060601b6bffffffffffffffffffffffff191681526020016040518060200160405280600081525081526020013373ffffffffffffffffffffffffffffffffffffffff168152602001600081526020016001600481111561181a57611819612440565b5b81525060016000600654815260200190815260200160002060008201518160000160006101000a81548160ff021916908360ff16021790555060208201518160000160016101000a81548173ffffffffffffffffffffffffffffffffffffffff021916908360601c0217905550604082015181600101908161189c9190612caf565b5060608201518160020160006101000a81548173ffffffffffffffffffffffffffffffffffffffff021916908373ffffffffffffffffffffffffffffffffffffffff1602179055506080820151816003015560a08201518160040160006101000a81548160ff0219169083600481111561191957611918612440565b5b021790555090505060028260ff168154811061193857611937612981565b5b9060005260206000209060030201600201600081548092919061195a90612f54565b91905055507f7bddc540fb75cc1614fe9ca62cb4543cfd8b8e10f91ad21eac54e165e6892587600654838360405161199493929190613146565b60405180910390a16119dc565b6040517f08c379a00000000000000000000000000000000000000000000000000000000081526004016119d3906131d0565b60405180910390fd5b600654819350935050509091565b6119f2612026565b600073ffffffffffffffffffffffffffffffffffffffff168173ffffffffffffffffffffffffffffffffffffffff1603611a61576040517f08c379a0000000000000000000000000000000000000000000000000000000008152600401611a5890613262565b60405180910390fd5b611a6a816120a4565b50565b611a75612026565b816002805490508160ff1610611ac0576040517f08c379a0000000000000000000000000000000000000000000000000000000008152600401611ab7906132ce565b60405180910390fd5b8160028460ff1681548110611ad857611ad7612981565b5b906000526020600020906003020160010160006101000a81548160ff021916908315150217905550505050565b6000806002805490506001600280549050600360019054906101000a900460ff1660ff16611b3391906132ee565b611b3d9190612d81565b611b479190613351565b90505b8060ff16600360019054906101000a900460ff1660ff1614158015611bb157506002600360019054906101000a900460ff1660ff1681548110611b9057611b8f612981565b5b906000526020600020906003020160010160009054906101000a900460ff16155b15611c04576002805490506001600360019054906101000a900460ff16611bd89190613382565b60ff16611be59190613351565b600360016101000a81548160ff021916908360ff160217905550611b4a565b60006002600360019054906101000a900460ff1660ff1681548110611c2c57611c2b612981565b5b906000526020600020906003020160010160009054906101000a900460ff16611c6457600760009054906101000a900460ff16611c75565b600360019054906101000a900460ff165b90506002805490506001600360019054906101000a900460ff16611c999190613382565b60ff16611ca69190613351565b600360016101000a81548160ff021916908360ff160217905550809250505090565b6000806000600760009054906101000a900460ff16905060005b6002805490508160ff16108015611d2c575060028160ff1681548110611d0b57611d0a612981565b5b906000526020600020906003020160010160009054906101000a900460ff16155b15611d44578080611d3c906133b7565b915050611ce2565b6002805490508160ff161015611e565780915060028160ff1681548110611d6e57611d6d612981565b5b90600052602060002090600302016002015492506000600182611d919190613382565b90505b6002805490508160ff161015611e545760028160ff1681548110611dbb57611dba612981565b5b906000526020600020906003020160010160009054906101000a900460ff168015611e0d57508360028260ff1681548110611df957611df8612981565b5b906000526020600020906003020160020154105b15611e415780925060028160ff1681548110611e2c57611e2b612981565b5b90600052602060002090600302016002015493505b8080611e4c906133b7565b915050611d94565b505b81935050505090565b600060606000606060006001600087815260200190815260200160002060000160009054906101000a900460ff169050600060028260ff1681548110611ea857611ea7612981565b5b90600052602060002090600302016000018054611ec490612a37565b80601f0160208091040260200160405190810160405280929190818152602001828054611ef090612a37565b8015611f3d5780601f10611f1257610100808354040283529160200191611f3d565b820191906000526020600020905b815481529060010190602001808311611f2057829003601f168201915b5050505050905060006001600089815260200190815260200160002060000160019054906101000a900460601b90506000600160008a81526020019081526020016000206001018054611f8f90612a37565b80601f0160208091040260200160405190810160405280929190818152602001828054611fbb90612a37565b80156120085780601f10611fdd57610100808354040283529160200191612008565b820191906000526020600020905b815481529060010190602001808311611feb57829003601f168201915b50505050509050838383839750975097509750505050509193509193565b61202e612168565b73ffffffffffffffffffffffffffffffffffffffff1661204c610a3a565b73ffffffffffffffffffffffffffffffffffffffff16146120a2576040517f08c379a00000000000000000000000000000000000000000000000000000000081526004016120999061342c565b60405180910390fd5b565b60008060009054906101000a900473ffffffffffffffffffffffffffffffffffffffff169050816000806101000a81548173ffffffffffffffffffffffffffffffffffffffff021916908373ffffffffffffffffffffffffffffffffffffffff1602179055508173ffffffffffffffffffffffffffffffffffffffff168173ffffffffffffffffffffffffffffffffffffffff167f8be0079c531659141344cd1fd0a4f28419497f9722a3daafe3b4186f6b6457e060405160405180910390a35050565b600033905090565b50805461217c90612a37565b6000825580601f1061218e57506121ad565b601f0160209004906000526020600020908101906121ac91906121ba565b5b50565b6121b861344c565b565b5b808211156121d35760008160009055506001016121bb565b5090565b600080fd5b600080fd5b6000819050919050565b6121f4816121e1565b81146121ff57600080fd5b50565b600081359050612211816121eb565b92915050565b60008115159050919050565b61222c81612217565b811461223757600080fd5b50565b60008135905061224981612223565b92915050565b60008060408385031215612266576122656121d7565b5b600061227485828601612202565b92505060206122858582860161223a565b9150509250929050565b6000602082840312156122a5576122a46121d7565b5b60006122b384828501612202565b91505092915050565b600081519050919050565b600082825260208201905092915050565b60005b838110156122f65780820151818401526020810190506122db565b60008484015250505050565b6000601f19601f8301169050919050565b600061231e826122bc565b61232881856122c7565b93506123388185602086016122d8565b61234181612302565b840191505092915050565b61235581612217565b82525050565b612364816121e1565b82525050565b600060608201905081810360008301526123848186612313565b9050612393602083018561234c565b6123a0604083018461235b565b949350505050565b600060ff82169050919050565b6123be816123a8565b82525050565b60007fffffffffffffffffffffffffffffffffffffffff00000000000000000000000082169050919050565b6123f9816123c4565b82525050565b600073ffffffffffffffffffffffffffffffffffffffff82169050919050565b600061242a826123ff565b9050919050565b61243a8161241f565b82525050565b7f4e487b7100000000000000000000000000000000000000000000000000000000600052602160045260246000fd5b600581106124805761247f612440565b5b50565b60008190506124918261246f565b919050565b60006124a182612483565b9050919050565b6124b181612496565b82525050565b600060c0820190506124cc60008301896123b5565b6124d960208301886123f0565b81810360408301526124eb8187612313565b90506124fa6060830186612431565b612507608083018561235b565b61251460a08301846124a8565b979650505050505050565b600080fd5b600080fd5b600080fd5b60008083601f8401126125445761254361251f565b5b8235905067ffffffffffffffff81111561256157612560612524565b5b60208301915083600182028301111561257d5761257c612529565b5b9250929050565b60008060006040848603121561259d5761259c6121d7565b5b600084013567ffffffffffffffff8111156125bb576125ba6121dc565b5b6125c78682870161252e565b935093505060206125da8682870161223a565b9150509250925092565b6125ed8161241f565b81146125f857600080fd5b50565b60008135905061260a816125e4565b92915050565b600060208284031215612626576126256121d7565b5b6000612634848285016125fb565b91505092915050565b6000602082019050612652600083018461235b565b92915050565b600060208201905061266d6000830184612431565b92915050565b61267c816123a8565b811461268757600080fd5b50565b60008135905061269981612673565b92915050565b6000602082840312156126b5576126b46121d7565b5b60006126c38482850161268a565b91505092915050565b6126d5816123c4565b81146126e057600080fd5b50565b6000813590506126f2816126cc565b92915050565b60008060008060608587031215612712576127116121d7565b5b600061272087828801612202565b9450506020612731878288016126e3565b935050604085013567ffffffffffffffff811115612752576127516121dc565b5b61275e8782880161252e565b925092505092959194509250565b6000604082019050612781600083018561235b565b81810360208301526127938184612313565b90509392505050565b600080604083850312156127b3576127b26121d7565b5b60006127c18582860161268a565b92505060206127d28582860161223a565b9150509250929050565b7f4f7261636c65206e6f7420696e697469616c697a656400000000000000000000600082015250565b60006128126016836122c7565b915061281d826127dc565b602082019050919050565b6000602082019050818103600083015261284181612805565b9050919050565b7f43616c6c6572206973206e6f74206f7261636c65000000000000000000000000600082015250565b600061287e6014836122c7565b915061288982612848565b602082019050919050565b600060208201905081810360008301526128ad81612871565b9050919050565b7f4465706c6f79207374617465206572726f720000000000000000000000000000600082015250565b60006128ea6012836122c7565b91506128f5826128b4565b602082019050919050565b60006020820190508181036000830152612919816128dd565b9050919050565b600060a082019050612935600083018861235b565b61294260208301876123b5565b81810360408301526129548186612313565b905061296360608301856123f0565b81810360808301526129758184612313565b90509695505050505050565b7f4e487b7100000000000000000000000000000000000000000000000000000000600052603260045260246000fd5b7f4e487b7100000000000000000000000000000000000000000000000000000000600052601160045260246000fd5b60006129ea826121e1565b9150600082036129fd576129fc6129b0565b5b600182039050919050565b7f4e487b7100000000000000000000000000000000000000000000000000000000600052602260045260246000fd5b60006002820490506001821680612a4f57607f821691505b602082108103612a6257612a61612a08565b5b50919050565b7f4e6f206d6f72652073686172642063616e206265206164646564000000000000600082015250565b6000612a9e601a836122c7565b9150612aa982612a68565b602082019050919050565b60006020820190508181036000830152612acd81612a91565b9050919050565b7f4e487b7100000000000000000000000000000000000000000000000000000000600052604160045260246000fd5b60008190508160005260206000209050919050565b60006020601f8301049050919050565b600082821b905092915050565b600060088302612b657fffffffffffffffffffffffffffffffffffffffffffffffffffffffffffffffff82612b28565b612b6f8683612b28565b95508019841693508086168417925050509392505050565b6000819050919050565b6000612bac612ba7612ba2846121e1565b612b87565b6121e1565b9050919050565b6000819050919050565b612bc683612b91565b612bda612bd282612bb3565b848454612b35565b825550505050565b600090565b612bef612be2565b612bfa818484612bbd565b505050565b5b81811015612c1e57612c13600082612be7565b600181019050612c00565b5050565b601f821115612c6357612c3481612b03565b612c3d84612b18565b81016020851015612c4c578190505b612c60612c5885612b18565b830182612bff565b50505b505050565b600082821c905092915050565b6000612c8660001984600802612c68565b1980831691505092915050565b6000612c9f8383612c75565b9150826002028217905092915050565b612cb8826122bc565b67ffffffffffffffff811115612cd157612cd0612ad4565b5b612cdb8254612a37565b612ce6828285612c22565b600060209050601f831160018114612d195760008415612d07578287015190505b612d118582612c93565b865550612d79565b601f198416612d2786612b03565b60005b82811015612d4f57848901518255600182019150602085019450602081019050612d2a565b86831015612d6c5784890151612d68601f891682612c75565b8355505b6001600288020188555050505b505050505050565b6000612d8c826121e1565b9150612d97836121e1565b9250828203905081811115612daf57612dae6129b0565b5b92915050565b82818337600083830152505050565b6000612dd083856122c7565b9350612ddd838584612db5565b612de683612302565b840190509392505050565b6000604082019050612e0660008301866123b5565b8181036020830152612e19818486612dc4565b9050949350505050565b7f43616c6c6572206973206e6f74206465706c6f79207265736572766572000000600082015250565b6000612e59601d836122c7565b9150612e6482612e23565b602082019050919050565b60006020820190508181036000830152612e8881612e4c565b9050919050565b6000606082019050612ea4600083018661235b565b8181036020830152612eb68185612313565b9050612ec560408301846123f0565b949350505050565b7f416c676f726974686d20646f6573206e6f742065786973740000000000000000600082015250565b6000612f036018836122c7565b9150612f0e82612ecd565b602082019050919050565b60006020820190508181036000830152612f3281612ef6565b9050919050565b6000602082019050612f4e60008301846123b5565b92915050565b6000612f5f826121e1565b91507fffffffffffffffffffffffffffffffffffffffffffffffffffffffffffffffff8203612f9157612f906129b0565b5b600182019050919050565b600082905092915050565b612fb18383612f9c565b67ffffffffffffffff811115612fca57612fc9612ad4565b5b612fd48254612a37565b612fdf828285612c22565b6000601f83116001811461300e5760008415612ffc578287013590505b6130068582612c93565b86555061306e565b601f19841661301c86612b03565b60005b828110156130445784890135825560018201915060208501945060208101905061301f565b86831015613061578489013561305d601f891682612c75565b8355505b6001600288020188555050505b50505050505050565b600060a08201905061308c600083018961235b565b61309960208301886123b5565b81810360408301526130ab8187612313565b90506130ba60608301866123f0565b81810360808301526130cd818486612dc4565b9050979650505050505050565b7f4e6f207368617264207265676973746572656400000000000000000000000000600082015250565b60006131106013836122c7565b915061311b826130da565b602082019050919050565b6000602082019050818103600083015261313f81613103565b9050919050565b600060608201905061315b600083018661235b565b61316860208301856123b5565b818103604083015261317a8184612313565b9050949350505050565b7f4e6f20736861726420617661696c61626c6520666f72206465706c6f79000000600082015250565b60006131ba601d836122c7565b91506131c582613184565b602082019050919050565b600060208201905081810360008301526131e9816131ad565b9050919050565b7f4f776e61626c653a206e6577206f776e657220697320746865207a65726f206160008201527f6464726573730000000000000000000000000000000000000000000000000000602082015250565b600061324c6026836122c7565b9150613257826131f0565b604082019050919050565b6000602082019050818103600083015261327b8161323f565b9050919050565b7f536861726420646f6573206e6f74206578697374000000000000000000000000600082015250565b60006132b86014836122c7565b91506132c382613282565b602082019050919050565b600060208201905081810360008301526132e7816132ab565b9050919050565b60006132f9826121e1565b9150613304836121e1565b925082820190508082111561331c5761331b6129b0565b5b92915050565b7f4e487b7100000000000000000000000000000000000000000000000000000000600052601260045260246000fd5b600061335c826121e1565b9150613367836121e1565b92508261337757613376613322565b5b828206905092915050565b600061338d826123a8565b9150613398836123a8565b9250828201905060ff8111156133b1576133b06129b0565b5b92915050565b60006133c2826123a8565b915060ff82036133d5576133d46129b0565b5b600182019050919050565b7f4f776e61626c653a2063616c6c6572206973206e6f7420746865206f776e6572600082015250565b60006134166020836122c7565b9150613421826133e0565b602082019050919050565b6000602082019050818103600083015261344581613409565b9050919050565b7f4e487b7100000000000000000000000000000000000000000000000000000000600052605160045260246000fdfea26469706673582212208e02eceb3b4c6b416a1194699734d73e827336ffabe12803076cd9650573bf0064736f6c63430008110033",
					"opcodes": "PUSH1 0x80 PUSH1 0x40 MSTORE CALLVALUE DUP1 ISZERO PUSH3 0x11 JUMPI PUSH1 0x0 DUP1 REVERT JUMPDEST POP PUSH3 0x32 PUSH3 0x26 PUSH3 0x13A PUSH1 0x20 SHL PUSH1 0x20 SHR JUMP JUMPDEST PUSH3 0x142 PUSH1 0x20 SHL PUSH1 0x20 SHR JUMP JUMPDEST PUSH1 0x0 PUSH1 0x3 PUSH1 0x0 PUSH2 0x100 EXP DUP2 SLOAD DUP2 PUSH1 0xFF MUL NOT AND SWAP1 DUP4 PUSH1 0xFF AND MUL OR SWAP1 SSTORE POP PUSH1 0x0 PUSH1 0x6 DUP2 SWAP1 SSTORE POP PUSH1 0xA PUSH1 0x7 PUSH1 0x0 PUSH2 0x100 EXP DUP2 SLOAD DUP2 PUSH1 0xFF MUL NOT AND SWAP1 DUP4 PUSH1 0xFF AND MUL OR SWAP1 SSTORE POP PUSH1 0x4 PUSH3 0x206 PUSH1 0x20 SHL PUSH3 0x1B05 OR SWAP1 DUP1 PUSH1 0x1 DUP2 SLOAD ADD DUP1 DUP3 SSTORE DUP1 SWAP2 POP POP PUSH1 0x1 SWAP1 SUB SWAP1 PUSH1 0x0 MSTORE PUSH1 0x20 PUSH1 0x0 KECCAK256 SWAP1 PUSH1 0x4 SWAP2 DUP3 DUP3 DIV ADD SWAP2 SWAP1 MOD PUSH1 0x8 MUL SWAP1 SWAP2 SWAP1 SWAP2 SWAP1 SWAP2 PUSH2 0x100 EXP DUP2 SLOAD DUP2 PUSH8 0xFFFFFFFFFFFFFFFF MUL NOT AND SWAP1 DUP4 PUSH8 0xFFFFFFFFFFFFFFFF AND MUL OR SWAP1 SSTORE POP PUSH1 0x4 PUSH3 0x3E2 PUSH1 0x20 SHL PUSH3 0x1CC8 OR SWAP1 DUP1 PUSH1 0x1 DUP2 SLOAD ADD DUP1 DUP3 SSTORE DUP1 SWAP2 POP POP PUSH1 0x1 SWAP1 SUB SWAP1 PUSH1 0x0 MSTORE PUSH1 0x20 PUSH1 0x0 KECCAK256 SWAP1 PUSH1 0x4 SWAP2 DUP3 DUP3 DIV ADD SWAP2 SWAP1 MOD PUSH1 0x8 MUL SWAP1 SWAP2 SWAP1 SWAP2 SWAP1 SWAP2 PUSH2 0x100 EXP DUP2 SLOAD DUP2 PUSH8 0xFFFFFFFFFFFFFFFF MUL NOT AND SWAP1 DUP4 PUSH8 0xFFFFFFFFFFFFFFFF AND MUL OR SWAP1 SSTORE POP PUSH3 0x752 JUMP JUMPDEST PUSH1 0x0 CALLER SWAP1 POP SWAP1 JUMP JUMPDEST PUSH1 0x0 DUP1 PUSH1 0x0 SWAP1 SLOAD SWAP1 PUSH2 0x100 EXP SWAP1 DIV PUSH20 0xFFFFFFFFFFFFFFFFFFFFFFFFFFFFFFFFFFFFFFFF AND SWAP1 POP DUP2 PUSH1 0x0 DUP1 PUSH2 0x100 EXP DUP2 SLOAD DUP2 PUSH20 0xFFFFFFFFFFFFFFFFFFFFFFFFFFFFFFFFFFFFFFFF MUL NOT AND SWAP1 DUP4 PUSH20 0xFFFFFFFFFFFFFFFFFFFFFFFFFFFFFFFFFFFFFFFF AND MUL OR SWAP1 SSTORE POP DUP2 PUSH20 0xFFFFFFFFFFFFFFFFFFFFFFFFFFFFFFFFFFFFFFFF AND DUP2 PUSH20 0xFFFFFFFFFFFFFFFFFFFFFFFFFFFFFFFFFFFFFFFF AND PUSH32 0x8BE0079C531659141344CD1FD0A4F28419497F9722A3DAAFE3B4186F6B6457E0 PUSH1 0x40 MLOAD PUSH1 0x40 MLOAD DUP1 SWAP2 SUB SWAP1 LOG3 POP POP JUMP JUMPDEST PUSH1 0x0 DUP1 PUSH1 0x2 DUP1 SLOAD SWAP1 POP PUSH1 0x1 PUSH1 0x2 DUP1 SLOAD SWAP1 POP PUSH1 0x3 PUSH1 0x1 SWAP1 SLOAD SWAP1 PUSH2 0x100 EXP SWAP1 DIV PUSH1 0xFF AND PUSH1 0xFF AND PUSH3 0x236 SWAP2 SWAP1 PUSH3 0x5CF JUMP JUMPDEST PUSH3 0x242 SWAP2 SWAP1 PUSH3 0x60A JUMP JUMPDEST PUSH3 0x24E SWAP2 SWAP1 PUSH3 0x674 JUMP JUMPDEST SWAP1 POP JUMPDEST DUP1 PUSH1 0xFF AND PUSH1 0x3 PUSH1 0x1 SWAP1 SLOAD SWAP1 PUSH2 0x100 EXP SWAP1 DIV PUSH1 0xFF AND PUSH1 0xFF AND EQ ISZERO DUP1 ISZERO PUSH3 0x2BC JUMPI POP PUSH1 0x2 PUSH1 0x3 PUSH1 0x1 SWAP1 SLOAD SWAP1 PUSH2 0x100 EXP SWAP1 DIV PUSH1 0xFF AND PUSH1 0xFF AND DUP2 SLOAD DUP2 LT PUSH3 0x29B JUMPI PUSH3 0x29A PUSH3 0x6AC JUMP JUMPDEST JUMPDEST SWAP1 PUSH1 0x0 MSTORE PUSH1 0x20 PUSH1 0x0 KECCAK256 SWAP1 PUSH1 0x3 MUL ADD PUSH1 0x1 ADD PUSH1 0x0 SWAP1 SLOAD SWAP1 PUSH2 0x100 EXP SWAP1 DIV PUSH1 0xFF AND ISZERO JUMPDEST ISZERO PUSH3 0x315 JUMPI PUSH1 0x2 DUP1 SLOAD SWAP1 POP PUSH1 0x1 PUSH1 0x3 PUSH1 0x1 SWAP1 SLOAD SWAP1 PUSH2 0x100 EXP SWAP1 DIV PUSH1 0xFF AND PUSH3 0x2E6 SWAP2 SWAP1 PUSH3 0x6E8 JUMP JUMPDEST PUSH1 0xFF AND PUSH3 0x2F5 SWAP2 SWAP1 PUSH3 0x674 JUMP JUMPDEST PUSH1 0x3 PUSH1 0x1 PUSH2 0x100 EXP DUP2 SLOAD DUP2 PUSH1 0xFF MUL NOT AND SWAP1 DUP4 PUSH1 0xFF AND MUL OR SWAP1 SSTORE POP PUSH3 0x251 JUMP JUMPDEST PUSH1 0x0 PUSH1 0x2 PUSH1 0x3 PUSH1 0x1 SWAP1 SLOAD SWAP1 PUSH2 0x100 EXP SWAP1 DIV PUSH1 0xFF AND PUSH1 0xFF AND DUP2 SLOAD DUP2 LT PUSH3 0x340 JUMPI PUSH3 0x33F PUSH3 0x6AC JUMP JUMPDEST JUMPDEST SWAP1 PUSH1 0x0 MSTORE PUSH1 0x20 PUSH1 0x0 KECCAK256 SWAP1 PUSH1 0x3 MUL ADD PUSH1 0x1 ADD PUSH1 0x0 SWAP1 SLOAD SWAP1 PUSH2 0x100 EXP SWAP1 DIV PUSH1 0xFF AND PUSH3 0x37A JUMPI PUSH1 0x7 PUSH1 0x0 SWAP1 SLOAD SWAP1 PUSH2 0x100 EXP SWAP1 DIV PUSH1 0xFF AND PUSH3 0x38B JUMP JUMPDEST PUSH1 0x3 PUSH1 0x1 SWAP1 SLOAD SWAP1 PUSH2 0x100 EXP SWAP1 DIV PUSH1 0xFF AND JUMPDEST SWAP1 POP PUSH1 0x2 DUP1 SLOAD SWAP1 POP PUSH1 0x1 PUSH1 0x3 PUSH1 0x1 SWAP1 SLOAD SWAP1 PUSH2 0x100 EXP SWAP1 DIV PUSH1 0xFF AND PUSH3 0x3B1 SWAP2 SWAP1 PUSH3 0x6E8 JUMP JUMPDEST PUSH1 0xFF AND PUSH3 0x3C0 SWAP2 SWAP1 PUSH3 0x674 JUMP JUMPDEST PUSH1 0x3 PUSH1 0x1 PUSH2 0x100 EXP DUP2 SLOAD DUP2 PUSH1 0xFF MUL NOT AND SWAP1 DUP4 PUSH1 0xFF AND MUL OR SWAP1 SSTORE POP DUP1 SWAP3 POP POP POP SWAP1 JUMP JUMPDEST PUSH1 0x0 DUP1 PUSH1 0x0 PUSH1 0x7 PUSH1 0x0 SWAP1 SLOAD SWAP1 PUSH2 0x100 EXP SWAP1 DIV PUSH1 0xFF AND SWAP1 POP PUSH1 0x0 JUMPDEST PUSH1 0x2 DUP1 SLOAD SWAP1 POP DUP2 PUSH1 0xFF AND LT DUP1 ISZERO PUSH3 0x44A JUMPI POP PUSH1 0x2 DUP2 PUSH1 0xFF AND DUP2 SLOAD DUP2 LT PUSH3 0x429 JUMPI PUSH3 0x428 PUSH3 0x6AC JUMP JUMPDEST JUMPDEST SWAP1 PUSH1 0x0 MSTORE PUSH1 0x20 PUSH1 0x0 KECCAK256 SWAP1 PUSH1 0x3 MUL ADD PUSH1 0x1 ADD PUSH1 0x0 SWAP1 SLOAD SWAP1 PUSH2 0x100 EXP SWAP1 DIV PUSH1 0xFF AND ISZERO JUMPDEST ISZERO PUSH3 0x466 JUMPI DUP1 DUP1 PUSH3 0x45D SWAP1 PUSH3 0x724 JUMP JUMPDEST SWAP2 POP POP PUSH3 0x3FC JUMP JUMPDEST PUSH1 0x2 DUP1 SLOAD SWAP1 POP DUP2 PUSH1 0xFF AND LT ISZERO PUSH3 0x58D JUMPI DUP1 SWAP2 POP PUSH1 0x2 DUP2 PUSH1 0xFF AND DUP2 SLOAD DUP2 LT PUSH3 0x494 JUMPI PUSH3 0x493 PUSH3 0x6AC JUMP JUMPDEST JUMPDEST SWAP1 PUSH1 0x0 MSTORE PUSH1 0x20 PUSH1 0x0 KECCAK256 SWAP1 PUSH1 0x3 MUL ADD PUSH1 0x2 ADD SLOAD SWAP3 POP PUSH1 0x0 PUSH1 0x1 DUP3 PUSH3 0x4B9 SWAP2 SWAP1 PUSH3 0x6E8 JUMP JUMPDEST SWAP1 POP JUMPDEST PUSH1 0x2 DUP1 SLOAD SWAP1 POP DUP2 PUSH1 0xFF AND LT ISZERO PUSH3 0x58B JUMPI PUSH1 0x2 DUP2 PUSH1 0xFF AND DUP2 SLOAD DUP2 LT PUSH3 0x4E7 JUMPI PUSH3 0x4E6 PUSH3 0x6AC JUMP JUMPDEST JUMPDEST SWAP1 PUSH1 0x0 MSTORE PUSH1 0x20 PUSH1 0x0 KECCAK256 SWAP1 PUSH1 0x3 MUL ADD PUSH1 0x1 ADD PUSH1 0x0 SWAP1 SLOAD SWAP1 PUSH2 0x100 EXP SWAP1 DIV PUSH1 0xFF AND DUP1 ISZERO PUSH3 0x53D JUMPI POP DUP4 PUSH1 0x2 DUP3 PUSH1 0xFF AND DUP2 SLOAD DUP2 LT PUSH3 0x529 JUMPI PUSH3 0x528 PUSH3 0x6AC JUMP JUMPDEST JUMPDEST SWAP1 PUSH1 0x0 MSTORE PUSH1 0x20 PUSH1 0x0 KECCAK256 SWAP1 PUSH1 0x3 MUL ADD PUSH1 0x2 ADD SLOAD LT JUMPDEST ISZERO PUSH3 0x575 JUMPI DUP1 SWAP3 POP PUSH1 0x2 DUP2 PUSH1 0xFF AND DUP2 SLOAD DUP2 LT PUSH3 0x560 JUMPI PUSH3 0x55F PUSH3 0x6AC JUMP JUMPDEST JUMPDEST SWAP1 PUSH1 0x0 MSTORE PUSH1 0x20 PUSH1 0x0 KECCAK256 SWAP1 PUSH1 0x3 MUL ADD PUSH1 0x2 ADD SLOAD SWAP4 POP JUMPDEST DUP1 DUP1 PUSH3 0x582 SWAP1 PUSH3 0x724 JUMP JUMPDEST SWAP2 POP POP PUSH3 0x4BC JUMP JUMPDEST POP JUMPDEST DUP2 SWAP4 POP POP POP POP SWAP1 JUMP JUMPDEST PUSH1 0x0 DUP2 SWAP1 POP SWAP2 SWAP1 POP JUMP JUMPDEST PUSH32 0x4E487B7100000000000000000000000000000000000000000000000000000000 PUSH1 0x0 MSTORE PUSH1 0x11 PUSH1 0x4 MSTORE PUSH1 0x24 PUSH1 0x0 REVERT JUMPDEST PUSH1 0x0 PUSH3 0x5DC DUP3 PUSH3 0x596 JUMP JUMPDEST SWAP2 POP PUSH3 0x5E9 DUP4 PUSH3 0x596 JUMP JUMPDEST SWAP3 POP DUP3 DUP3 ADD SWAP1 POP DUP1 DUP3 GT ISZERO PUSH3 0x604 JUMPI PUSH3 0x603 PUSH3 0x5A0 JUMP JUMPDEST JUMPDEST SWAP3 SWAP2 POP POP JUMP JUMPDEST PUSH1 0x0 PUSH3 0x617 DUP3 PUSH3 0x596 JUMP JUMPDEST SWAP2 POP PUSH3 0x624 DUP4 PUSH3 0x596 JUMP JUMPDEST SWAP3 POP DUP3 DUP3 SUB SWAP1 POP DUP2 DUP2 GT ISZERO PUSH3 0x63F JUMPI PUSH3 0x63E PUSH3 0x5A0 JUMP JUMPDEST JUMPDEST SWAP3 SWAP2 POP POP JUMP JUMPDEST PUSH32 0x4E487B7100000000000000000000000000000000000000000000000000000000 PUSH1 0x0 MSTORE PUSH1 0x12 PUSH1 0x4 MSTORE PUSH1 0x24 PUSH1 0x0 REVERT JUMPDEST PUSH1 0x0 PUSH3 0x681 DUP3 PUSH3 0x596 JUMP JUMPDEST SWAP2 POP PUSH3 0x68E DUP4 PUSH3 0x596 JUMP JUMPDEST SWAP3 POP DUP3 PUSH3 0x6A1 JUMPI PUSH3 0x6A0 PUSH3 0x645 JUMP JUMPDEST JUMPDEST DUP3 DUP3 MOD SWAP1 POP SWAP3 SWAP2 POP POP JUMP JUMPDEST PUSH32 0x4E487B7100000000000000000000000000000000000000000000000000000000 PUSH1 0x0 MSTORE PUSH1 0x32 PUSH1 0x4 MSTORE PUSH1 0x24 PUSH1 0x0 REVERT JUMPDEST PUSH1 0x0 PUSH1 0xFF DUP3 AND SWAP1 POP SWAP2 SWAP1 POP JUMP JUMPDEST PUSH1 0x0 PUSH3 0x6F5 DUP3 PUSH3 0x6DB JUMP JUMPDEST SWAP2 POP PUSH3 0x702 DUP4 PUSH3 0x6DB JUMP JUMPDEST SWAP3 POP DUP3 DUP3 ADD SWAP1 POP PUSH1 0xFF DUP2 GT ISZERO PUSH3 0x71E JUMPI PUSH3 0x71D PUSH3 0x5A0 JUMP JUMPDEST JUMPDEST SWAP3 SWAP2 POP POP JUMP JUMPDEST PUSH1 0x0 PUSH3 0x731 DUP3 PUSH3 0x6DB JUMP JUMPDEST SWAP2 POP PUSH1 0xFF DUP3 SUB PUSH3 0x747 JUMPI PUSH3 0x746 PUSH3 0x5A0 JUMP JUMPDEST JUMPDEST PUSH1 0x1 DUP3 ADD SWAP1 POP SWAP2 SWAP1 POP JUMP JUMPDEST PUSH2 0x34B1 DUP1 PUSH3 0x762 PUSH1 0x0 CODECOPY PUSH1 0x0 RETURN INVALID PUSH1 0x80 PUSH1 0x40 MSTORE CALLVALUE DUP1 ISZERO PUSH2 0x10 JUMPI PUSH1 0x0 DUP1 REVERT JUMPDEST POP PUSH1 0x4 CALLDATASIZE LT PUSH2 0xF5 JUMPI PUSH1 0x0 CALLDATALOAD PUSH1 0xE0 SHR DUP1 PUSH4 0x8DA5CB5B GT PUSH2 0x97 JUMPI DUP1 PUSH4 0xC0981B26 GT PUSH2 0x66 JUMPI DUP1 PUSH4 0xC0981B26 EQ PUSH2 0x24F JUMPI DUP1 PUSH4 0xCA989659 EQ PUSH2 0x26B JUMPI DUP1 PUSH4 0xF2FDE38B EQ PUSH2 0x28A JUMPI DUP1 PUSH4 0xF335F7AC EQ PUSH2 0x2A6 JUMPI PUSH2 0xF5 JUMP JUMPDEST DUP1 PUSH4 0x8DA5CB5B EQ PUSH2 0x1DD JUMPI DUP1 PUSH4 0x9552BCA7 EQ PUSH2 0x1FB JUMPI DUP1 PUSH4 0x98C20543 EQ PUSH2 0x217 JUMPI DUP1 PUSH4 0xA07CA635 EQ PUSH2 0x233 JUMPI PUSH2 0xF5 JUMP JUMPDEST DUP1 PUSH4 0x65A88003 GT PUSH2 0xD3 JUMPI DUP1 PUSH4 0x65A88003 EQ PUSH2 0x17D JUMPI DUP1 PUSH4 0x715018A6 EQ PUSH2 0x199 JUMPI DUP1 PUSH4 0x7ADBF973 EQ PUSH2 0x1A3 JUMPI DUP1 PUSH4 0x8291286C EQ PUSH2 0x1BF JUMPI PUSH2 0xF5 JUMP JUMPDEST DUP1 PUSH4 0x19B4A0F9 EQ PUSH2 0xFA JUMPI DUP1 PUSH4 0x608C2DB5 EQ PUSH2 0x116 JUMPI DUP1 PUSH4 0x613EB17D EQ PUSH2 0x148 JUMPI JUMPDEST PUSH1 0x0 DUP1 REVERT JUMPDEST PUSH2 0x114 PUSH1 0x4 DUP1 CALLDATASIZE SUB DUP2 ADD SWAP1 PUSH2 0x10F SWAP2 SWAP1 PUSH2 0x224F JUMP JUMPDEST PUSH2 0x2C2 JUMP JUMPDEST STOP JUMPDEST PUSH2 0x130 PUSH1 0x4 DUP1 CALLDATASIZE SUB DUP2 ADD SWAP1 PUSH2 0x12B SWAP2 SWAP1 PUSH2 0x228F JUMP JUMPDEST PUSH2 0x63B JUMP JUMPDEST PUSH1 0x40 MLOAD PUSH2 0x13F SWAP4 SWAP3 SWAP2 SWAP1 PUSH2 0x236A JUMP JUMPDEST PUSH1 0x40 MLOAD DUP1 SWAP2 SUB SWAP1 RETURN JUMPDEST PUSH2 0x162 PUSH1 0x4 DUP1 CALLDATASIZE SUB DUP2 ADD SWAP1 PUSH2 0x15D SWAP2 SWAP1 PUSH2 0x228F JUMP JUMPDEST PUSH2 0x70A JUMP JUMPDEST PUSH1 0x40 MLOAD PUSH2 0x174 SWAP7 SWAP6 SWAP5 SWAP4 SWAP3 SWAP2 SWAP1 PUSH2 0x24B7 JUMP JUMPDEST PUSH1 0x40 MLOAD DUP1 SWAP2 SUB SWAP1 RETURN JUMPDEST PUSH2 0x197 PUSH1 0x4 DUP1 CALLDATASIZE SUB DUP2 ADD SWAP1 PUSH2 0x192 SWAP2 SWAP1 PUSH2 0x2584 JUMP JUMPDEST PUSH2 0x815 JUMP JUMPDEST STOP JUMPDEST PUSH2 0x1A1 PUSH2 0x99D JUMP JUMPDEST STOP JUMPDEST PUSH2 0x1BD PUSH1 0x4 DUP1 CALLDATASIZE SUB DUP2 ADD SWAP1 PUSH2 0x1B8 SWAP2 SWAP1 PUSH2 0x2610 JUMP JUMPDEST PUSH2 0x9B1 JUMP JUMPDEST STOP JUMPDEST PUSH2 0x1C7 PUSH2 0xA34 JUMP JUMPDEST PUSH1 0x40 MLOAD PUSH2 0x1D4 SWAP2 SWAP1 PUSH2 0x263D JUMP JUMPDEST PUSH1 0x40 MLOAD DUP1 SWAP2 SUB SWAP1 RETURN JUMPDEST PUSH2 0x1E5 PUSH2 0xA3A JUMP JUMPDEST PUSH1 0x40 MLOAD PUSH2 0x1F2 SWAP2 SWAP1 PUSH2 0x2658 JUMP JUMPDEST PUSH1 0x40 MLOAD DUP1 SWAP2 SUB SWAP1 RETURN JUMPDEST PUSH2 0x215 PUSH1 0x4 DUP1 CALLDATASIZE SUB DUP2 ADD SWAP1 PUSH2 0x210 SWAP2 SWAP1 PUSH2 0x228F JUMP JUMPDEST PUSH2 0xA63 JUMP JUMPDEST STOP JUMPDEST PUSH2 0x231 PUSH1 0x4 DUP1 CALLDATASIZE SUB DUP2 ADD SWAP1 PUSH2 0x22C SWAP2 SWAP1 PUSH2 0x269F JUMP JUMPDEST PUSH2 0xD93 JUMP JUMPDEST STOP JUMPDEST PUSH2 0x24D PUSH1 0x4 DUP1 CALLDATASIZE SUB DUP2 ADD SWAP1 PUSH2 0x248 SWAP2 SWAP1 PUSH2 0x224F JUMP JUMPDEST PUSH2 0xE3C JUMP JUMPDEST STOP JUMPDEST PUSH2 0x269 PUSH1 0x4 DUP1 CALLDATASIZE SUB DUP2 ADD SWAP1 PUSH2 0x264 SWAP2 SWAP1 PUSH2 0x26F8 JUMP JUMPDEST PUSH2 0x11B5 JUMP JUMPDEST STOP JUMPDEST PUSH2 0x273 PUSH2 0x15F3 JUMP JUMPDEST PUSH1 0x40 MLOAD PUSH2 0x281 SWAP3 SWAP2 SWAP1 PUSH2 0x276C JUMP JUMPDEST PUSH1 0x40 MLOAD DUP1 SWAP2 SUB SWAP1 RETURN JUMPDEST PUSH2 0x2A4 PUSH1 0x4 DUP1 CALLDATASIZE SUB DUP2 ADD SWAP1 PUSH2 0x29F SWAP2 SWAP1 PUSH2 0x2610 JUMP JUMPDEST PUSH2 0x19EA JUMP JUMPDEST STOP JUMPDEST PUSH2 0x2C0 PUSH1 0x4 DUP1 CALLDATASIZE SUB DUP2 ADD SWAP1 PUSH2 0x2BB SWAP2 SWAP1 PUSH2 0x279C JUMP JUMPDEST PUSH2 0x1A6D JUMP JUMPDEST STOP JUMPDEST PUSH1 0x0 PUSH20 0xFFFFFFFFFFFFFFFFFFFFFFFFFFFFFFFFFFFFFFFF AND PUSH1 0x5 PUSH1 0x0 SWAP1 SLOAD SWAP1 PUSH2 0x100 EXP SWAP1 DIV PUSH20 0xFFFFFFFFFFFFFFFFFFFFFFFFFFFFFFFFFFFFFFFF AND PUSH20 0xFFFFFFFFFFFFFFFFFFFFFFFFFFFFFFFFFFFFFFFF AND SUB PUSH2 0x353 JUMPI PUSH1 0x40 MLOAD PUSH32 0x8C379A000000000000000000000000000000000000000000000000000000000 DUP2 MSTORE PUSH1 0x4 ADD PUSH2 0x34A SWAP1 PUSH2 0x2828 JUMP JUMPDEST PUSH1 0x40 MLOAD DUP1 SWAP2 SUB SWAP1 REVERT JUMPDEST PUSH1 0x5 PUSH1 0x0 SWAP1 SLOAD SWAP1 PUSH2 0x100 EXP SWAP1 DIV PUSH20 0xFFFFFFFFFFFFFFFFFFFFFFFFFFFFFFFFFFFFFFFF AND PUSH20 0xFFFFFFFFFFFFFFFFFFFFFFFFFFFFFFFFFFFFFFFF AND CALLER PUSH20 0xFFFFFFFFFFFFFFFFFFFFFFFFFFFFFFFFFFFFFFFF AND EQ PUSH2 0x3E3 JUMPI PUSH1 0x40 MLOAD PUSH32 0x8C379A000000000000000000000000000000000000000000000000000000000 DUP2 MSTORE PUSH1 0x4 ADD PUSH2 0x3DA SWAP1 PUSH2 0x2894 JUMP JUMPDEST PUSH1 0x40 MLOAD DUP1 SWAP2 SUB SWAP1 REVERT JUMPDEST DUP2 PUSH1 0x2 DUP1 PUSH1 0x4 DUP2 GT ISZERO PUSH2 0x3F9 JUMPI PUSH2 0x3F8 PUSH2 0x2440 JUMP JUMPDEST JUMPDEST PUSH1 0x1 PUSH1 0x0 DUP5 DUP2 MSTORE PUSH1 0x20 ADD SWAP1 DUP2 MSTORE PUSH1 0x20 ADD PUSH1 0x0 KECCAK256 PUSH1 0x4 ADD PUSH1 0x0 SWAP1 SLOAD SWAP1 PUSH2 0x100 EXP SWAP1 DIV PUSH1 0xFF AND PUSH1 0x4 DUP2 GT ISZERO PUSH2 0x42F JUMPI PUSH2 0x42E PUSH2 0x2440 JUMP JUMPDEST JUMPDEST EQ PUSH2 0x46F JUMPI PUSH1 0x40 MLOAD PUSH32 0x8C379A000000000000000000000000000000000000000000000000000000000 DUP2 MSTORE PUSH1 0x4 ADD PUSH2 0x466 SWAP1 PUSH2 0x2900 JUMP JUMPDEST PUSH1 0x40 MLOAD DUP1 SWAP2 SUB SWAP1 REVERT JUMPDEST PUSH1 0x0 DUP1 PUSH1 0x0 DUP1 PUSH2 0x47E DUP9 PUSH2 0x1E5F JUMP JUMPDEST SWAP4 POP SWAP4 POP SWAP4 POP SWAP4 POP DUP7 ISZERO PUSH2 0x50F JUMPI PUSH1 0x3 PUSH1 0x1 PUSH1 0x0 DUP11 DUP2 MSTORE PUSH1 0x20 ADD SWAP1 DUP2 MSTORE PUSH1 0x20 ADD PUSH1 0x0 KECCAK256 PUSH1 0x4 ADD PUSH1 0x0 PUSH2 0x100 EXP DUP2 SLOAD DUP2 PUSH1 0xFF MUL NOT AND SWAP1 DUP4 PUSH1 0x4 DUP2 GT ISZERO PUSH2 0x4C6 JUMPI PUSH2 0x4C5 PUSH2 0x2440 JUMP JUMPDEST JUMPDEST MUL OR SWAP1 SSTORE POP PUSH32 0xFC0E41F3F5D509CF16934162C0FB5020DB934AE90A7498D8B479568589FFCCD1 DUP9 DUP6 DUP6 DUP6 DUP6 PUSH1 0x40 MLOAD PUSH2 0x502 SWAP6 SWAP5 SWAP4 SWAP3 SWAP2 SWAP1 PUSH2 0x2920 JUMP JUMPDEST PUSH1 0x40 MLOAD DUP1 SWAP2 SUB SWAP1 LOG1 PUSH2 0x631 JUMP JUMPDEST PUSH1 0x1 PUSH1 0x0 DUP10 DUP2 MSTORE PUSH1 0x20 ADD SWAP1 DUP2 MSTORE PUSH1 0x20 ADD PUSH1 0x0 KECCAK256 PUSH1 0x0 DUP1 DUP3 ADD PUSH1 0x0 PUSH2 0x100 EXP DUP2 SLOAD SWAP1 PUSH1 0xFF MUL NOT AND SWAP1 SSTORE PUSH1 0x0 DUP3 ADD PUSH1 0x1 PUSH2 0x100 EXP DUP2 SLOAD SWAP1 PUSH20 0xFFFFFFFFFFFFFFFFFFFFFFFFFFFFFFFFFFFFFFFF MUL NOT AND SWAP1 SSTORE PUSH1 0x1 DUP3 ADD PUSH1 0x0 PUSH2 0x56E SWAP2 SWAP1 PUSH2 0x2170 JUMP JUMPDEST PUSH1 0x2 DUP3 ADD PUSH1 0x0 PUSH2 0x100 EXP DUP2 SLOAD SWAP1 PUSH20 0xFFFFFFFFFFFFFFFFFFFFFFFFFFFFFFFFFFFFFFFF MUL NOT AND SWAP1 SSTORE PUSH1 0x3 DUP3 ADD PUSH1 0x0 SWAP1 SSTORE PUSH1 0x4 DUP3 ADD PUSH1 0x0 PUSH2 0x100 EXP DUP2 SLOAD SWAP1 PUSH1 0xFF MUL NOT AND SWAP1 SSTORE POP POP PUSH1 0x2 DUP5 PUSH1 0xFF AND DUP2 SLOAD DUP2 LT PUSH2 0x5CA JUMPI PUSH2 0x5C9 PUSH2 0x2981 JUMP JUMPDEST JUMPDEST SWAP1 PUSH1 0x0 MSTORE PUSH1 0x20 PUSH1 0x0 KECCAK256 SWAP1 PUSH1 0x3 MUL ADD PUSH1 0x2 ADD PUSH1 0x0 DUP2 SLOAD DUP1 SWAP3 SWAP2 SWAP1 PUSH2 0x5EC SWAP1 PUSH2 0x29DF JUMP JUMPDEST SWAP2 SWAP1 POP SSTORE POP PUSH32 0x18740AEF37E3C4899E9F4D59558109DD1E1DBEB955703C419BEEBDE38696517 DUP9 DUP6 DUP6 DUP6 DUP6 PUSH1 0x40 MLOAD PUSH2 0x628 SWAP6 SWAP5 SWAP4 SWAP3 SWAP2 SWAP1 PUSH2 0x2920 JUMP JUMPDEST PUSH1 0x40 MLOAD DUP1 SWAP2 SUB SWAP1 LOG1 JUMPDEST POP POP POP POP POP POP POP POP JUMP JUMPDEST PUSH1 0x2 DUP2 DUP2 SLOAD DUP2 LT PUSH2 0x64B JUMPI PUSH1 0x0 DUP1 REVERT JUMPDEST SWAP1 PUSH1 0x0 MSTORE PUSH1 0x20 PUSH1 0x0 KECCAK256 SWAP1 PUSH1 0x3 MUL ADD PUSH1 0x0 SWAP2 POP SWAP1 POP DUP1 PUSH1 0x0 ADD DUP1 SLOAD PUSH2 0x66E SWAP1 PUSH2 0x2A37 JUMP JUMPDEST DUP1 PUSH1 0x1F ADD PUSH1 0x20 DUP1 SWAP2 DIV MUL PUSH1 0x20 ADD PUSH1 0x40 MLOAD SWAP1 DUP2 ADD PUSH1 0x40 MSTORE DUP1 SWAP3 SWAP2 SWAP1 DUP2 DUP2 MSTORE PUSH1 0x20 ADD DUP3 DUP1 SLOAD PUSH2 0x69A SWAP1 PUSH2 0x2A37 JUMP JUMPDEST DUP1 ISZERO PUSH2 0x6E7 JUMPI DUP1 PUSH1 0x1F LT PUSH2 0x6BC JUMPI PUSH2 0x100 DUP1 DUP4 SLOAD DIV MUL DUP4 MSTORE SWAP2 PUSH1 0x20 ADD SWAP2 PUSH2 0x6E7 JUMP JUMPDEST DUP3 ADD SWAP2 SWAP1 PUSH1 0x0 MSTORE PUSH1 0x20 PUSH1 0x0 KECCAK256 SWAP1 JUMPDEST DUP2 SLOAD DUP2 MSTORE SWAP1 PUSH1 0x1 ADD SWAP1 PUSH1 0x20 ADD DUP1 DUP4 GT PUSH2 0x6CA JUMPI DUP3 SWAP1 SUB PUSH1 0x1F AND DUP3 ADD SWAP2 JUMPDEST POP POP POP POP POP SWAP1 DUP1 PUSH1 0x1 ADD PUSH1 0x0 SWAP1 SLOAD SWAP1 PUSH2 0x100 EXP SWAP1 DIV PUSH1 0xFF AND SWAP1 DUP1 PUSH1 0x2 ADD SLOAD SWAP1 POP DUP4 JUMP JUMPDEST PUSH1 0x1 PUSH1 0x20 MSTORE DUP1 PUSH1 0x0 MSTORE PUSH1 0x40 PUSH1 0x0 KECCAK256 PUSH1 0x0 SWAP2 POP SWAP1 POP DUP1 PUSH1 0x0 ADD PUSH1 0x0 SWAP1 SLOAD SWAP1 PUSH2 0x100 EXP SWAP1 DIV PUSH1 0xFF AND SWAP1 DUP1 PUSH1 0x0 ADD PUSH1 0x1 SWAP1 SLOAD SWAP1 PUSH2 0x100 EXP SWAP1 DIV PUSH1 0x60 SHL SWAP1 DUP1 PUSH1 0x1 ADD DUP1 SLOAD PUSH2 0x753 SWAP1 PUSH2 0x2A37 JUMP JUMPDEST DUP1 PUSH1 0x1F ADD PUSH1 0x20 DUP1 SWAP2 DIV MUL PUSH1 0x20 ADD PUSH1 0x40 MLOAD SWAP1 DUP2 ADD PUSH1 0x40 MSTORE DUP1 SWAP3 SWAP2 SWAP1 DUP2 DUP2 MSTORE PUSH1 0x20 ADD DUP3 DUP1 SLOAD PUSH2 0x77F SWAP1 PUSH2 0x2A37 JUMP JUMPDEST DUP1 ISZERO PUSH2 0x7CC JUMPI DUP1 PUSH1 0x1F LT PUSH2 0x7A1 JUMPI PUSH2 0x100 DUP1 DUP4 SLOAD DIV MUL DUP4 MSTORE SWAP2 PUSH1 0x20 ADD SWAP2 PUSH2 0x7CC JUMP JUMPDEST DUP3 ADD SWAP2 SWAP1 PUSH1 0x0 MSTORE PUSH1 0x20 PUSH1 0x0 KECCAK256 SWAP1 JUMPDEST DUP2 SLOAD DUP2 MSTORE SWAP1 PUSH1 0x1 ADD SWAP1 PUSH1 0x20 ADD DUP1 DUP4 GT PUSH2 0x7AF JUMPI DUP3 SWAP1 SUB PUSH1 0x1F AND DUP3 ADD SWAP2 JUMPDEST POP POP POP POP POP SWAP1 DUP1 PUSH1 0x2 ADD PUSH1 0x0 SWAP1 SLOAD SWAP1 PUSH2 0x100 EXP SWAP1 DIV PUSH20 0xFFFFFFFFFFFFFFFFFFFFFFFFFFFFFFFFFFFFFFFF AND SWAP1 DUP1 PUSH1 0x3 ADD SLOAD SWAP1 DUP1 PUSH1 0x4 ADD PUSH1 0x0 SWAP1 SLOAD SWAP1 PUSH2 0x100 EXP SWAP1 DIV PUSH1 0xFF AND SWAP1 POP DUP7 JUMP JUMPDEST PUSH2 0x81D PUSH2 0x2026 JUMP JUMPDEST PUSH1 0x7 PUSH1 0x0 SWAP1 SLOAD SWAP1 PUSH2 0x100 EXP SWAP1 DIV PUSH1 0xFF AND PUSH1 0xFF AND PUSH1 0x2 DUP1 SLOAD SWAP1 POP GT ISZERO PUSH2 0x877 JUMPI PUSH1 0x40 MLOAD PUSH32 0x8C379A000000000000000000000000000000000000000000000000000000000 DUP2 MSTORE PUSH1 0x4 ADD PUSH2 0x86E SWAP1 PUSH2 0x2AB4 JUMP JUMPDEST PUSH1 0x40 MLOAD DUP1 SWAP2 SUB SWAP1 REVERT JUMPDEST PUSH1 0x2 PUSH1 0x40 MLOAD DUP1 PUSH1 0x60 ADD PUSH1 0x40 MSTORE DUP1 DUP6 DUP6 DUP1 DUP1 PUSH1 0x1F ADD PUSH1 0x20 DUP1 SWAP2 DIV MUL PUSH1 0x20 ADD PUSH1 0x40 MLOAD SWAP1 DUP2 ADD PUSH1 0x40 MSTORE DUP1 SWAP4 SWAP3 SWAP2 SWAP1 DUP2 DUP2 MSTORE PUSH1 0x20 ADD DUP4 DUP4 DUP1 DUP3 DUP5 CALLDATACOPY PUSH1 0x0 DUP2 DUP5 ADD MSTORE PUSH1 0x1F NOT PUSH1 0x1F DUP3 ADD AND SWAP1 POP DUP1 DUP4 ADD SWAP3 POP POP POP POP POP POP POP DUP2 MSTORE PUSH1 0x20 ADD DUP4 ISZERO ISZERO DUP2 MSTORE PUSH1 0x20 ADD PUSH1 0x0 DUP2 MSTORE POP SWAP1 DUP1 PUSH1 0x1 DUP2 SLOAD ADD DUP1 DUP3 SSTORE DUP1 SWAP2 POP POP PUSH1 0x1 SWAP1 SUB SWAP1 PUSH1 0x0 MSTORE PUSH1 0x20 PUSH1 0x0 KECCAK256 SWAP1 PUSH1 0x3 MUL ADD PUSH1 0x0 SWAP1 SWAP2 SWAP1 SWAP2 SWAP1 SWAP2 POP PUSH1 0x0 DUP3 ADD MLOAD DUP2 PUSH1 0x0 ADD SWAP1 DUP2 PUSH2 0x919 SWAP2 SWAP1 PUSH2 0x2CAF JUMP JUMPDEST POP PUSH1 0x20 DUP3 ADD MLOAD DUP2 PUSH1 0x1 ADD PUSH1 0x0 PUSH2 0x100 EXP DUP2 SLOAD DUP2 PUSH1 0xFF MUL NOT AND SWAP1 DUP4 ISZERO ISZERO MUL OR SWAP1 SSTORE POP PUSH1 0x40 DUP3 ADD MLOAD DUP2 PUSH1 0x2 ADD SSTORE POP POP PUSH1 0x0 PUSH1 0x1 PUSH1 0x2 DUP1 SLOAD SWAP1 POP PUSH2 0x95A SWAP2 SWAP1 PUSH2 0x2D81 JUMP JUMPDEST SWAP1 POP PUSH32 0x1DEF1861D5991921DAE7E9520A9201FC401EE5942E01CB2CCFFB1BC0C3F0D0C6 DUP2 DUP6 DUP6 PUSH1 0x40 MLOAD PUSH2 0x98F SWAP4 SWAP3 SWAP2 SWAP1 PUSH2 0x2DF1 JUMP JUMPDEST PUSH1 0x40 MLOAD DUP1 SWAP2 SUB SWAP1 LOG1 POP POP POP POP JUMP JUMPDEST PUSH2 0x9A5 PUSH2 0x2026 JUMP JUMPDEST PUSH2 0x9AF PUSH1 0x0 PUSH2 0x20A4 JUMP JUMPDEST JUMP JUMPDEST PUSH2 0x9B9 PUSH2 0x2026 JUMP JUMPDEST DUP1 PUSH1 0x5 PUSH1 0x0 PUSH2 0x100 EXP DUP2 SLOAD DUP2 PUSH20 0xFFFFFFFFFFFFFFFFFFFFFFFFFFFFFFFFFFFFFFFF MUL NOT AND SWAP1 DUP4 PUSH20 0xFFFFFFFFFFFFFFFFFFFFFFFFFFFFFFFFFFFFFFFF AND MUL OR SWAP1 SSTORE POP PUSH32 0x807DC19E171652591D023395BFC818727564B07291B9E0B9DE995C9138D179F1 DUP2 PUSH1 0x40 MLOAD PUSH2 0xA29 SWAP2 SWAP1 PUSH2 0x2658 JUMP JUMPDEST PUSH1 0x40 MLOAD DUP1 SWAP2 SUB SWAP1 LOG1 POP JUMP JUMPDEST PUSH1 0x6 SLOAD DUP2 JUMP JUMPDEST PUSH1 0x0 DUP1 PUSH1 0x0 SWAP1 SLOAD SWAP1 PUSH2 0x100 EXP SWAP1 DIV PUSH20 0xFFFFFFFFFFFFFFFFFFFFFFFFFFFFFFFFFFFFFFFF AND SWAP1 POP SWAP1 JUMP JUMPDEST PUSH1 0x0 PUSH20 0xFFFFFFFFFFFFFFFFFFFFFFFFFFFFFFFFFFFFFFFF AND PUSH1 0x5 PUSH1 0x0 SWAP1 SLOAD SWAP1 PUSH2 0x100 EXP SWAP1 DIV PUSH20 0xFFFFFFFFFFFFFFFFFFFFFFFFFFFFFFFFFFFFFFFF AND PUSH20 0xFFFFFFFFFFFFFFFFFFFFFFFFFFFFFFFFFFFFFFFF AND SUB PUSH2 0xAF4 JUMPI PUSH1 0x40 MLOAD PUSH32 0x8C379A000000000000000000000000000000000000000000000000000000000 DUP2 MSTORE PUSH1 0x4 ADD PUSH2 0xAEB SWAP1 PUSH2 0x2828 JUMP JUMPDEST PUSH1 0x40 MLOAD DUP1 SWAP2 SUB SWAP1 REVERT JUMPDEST DUP1 CALLER PUSH20 0xFFFFFFFFFFFFFFFFFFFFFFFFFFFFFFFFFFFFFFFF AND PUSH1 0x1 PUSH1 0x0 DUP4 DUP2 MSTORE PUSH1 0x20 ADD SWAP1 DUP2 MSTORE PUSH1 0x20 ADD PUSH1 0x0 KECCAK256 PUSH1 0x2 ADD PUSH1 0x0 SWAP1 SLOAD SWAP1 PUSH2 0x100 EXP SWAP1 DIV PUSH20 0xFFFFFFFFFFFFFFFFFFFFFFFFFFFFFFFFFFFFFFFF AND PUSH20 0xFFFFFFFFFFFFFFFFFFFFFFFFFFFFFFFFFFFFFFFF AND EQ PUSH2 0xB99 JUMPI PUSH1 0x40 MLOAD PUSH32 0x8C379A000000000000000000000000000000000000000000000000000000000 DUP2 MSTORE PUSH1 0x4 ADD PUSH2 0xB90 SWAP1 PUSH2 0x2E6F JUMP JUMPDEST PUSH1 0x40 MLOAD DUP1 SWAP2 SUB SWAP1 REVERT JUMPDEST DUP2 PUSH1 0x3 DUP1 PUSH1 0x4 DUP2 GT ISZERO PUSH2 0xBAF JUMPI PUSH2 0xBAE PUSH2 0x2440 JUMP JUMPDEST JUMPDEST PUSH1 0x1 PUSH1 0x0 DUP5 DUP2 MSTORE PUSH1 0x20 ADD SWAP1 DUP2 MSTORE PUSH1 0x20 ADD PUSH1 0x0 KECCAK256 PUSH1 0x4 ADD PUSH1 0x0 SWAP1 SLOAD SWAP1 PUSH2 0x100 EXP SWAP1 DIV PUSH1 0xFF AND PUSH1 0x4 DUP2 GT ISZERO PUSH2 0xBE5 JUMPI PUSH2 0xBE4 PUSH2 0x2440 JUMP JUMPDEST JUMPDEST EQ PUSH2 0xC25 JUMPI PUSH1 0x40 MLOAD PUSH32 0x8C379A000000000000000000000000000000000000000000000000000000000 DUP2 MSTORE PUSH1 0x4 ADD PUSH2 0xC1C SWAP1 PUSH2 0x2900 JUMP JUMPDEST PUSH1 0x40 MLOAD DUP1 SWAP2 SUB SWAP1 REVERT JUMPDEST PUSH1 0x0 DUP1 PUSH1 0x0 DUP1 PUSH2 0xC34 DUP9 PUSH2 0x1E5F JUMP JUMPDEST SWAP4 POP SWAP4 POP SWAP4 POP SWAP4 POP PUSH1 0x2 DUP5 PUSH1 0xFF AND DUP2 SLOAD DUP2 LT PUSH2 0xC53 JUMPI PUSH2 0xC52 PUSH2 0x2981 JUMP JUMPDEST JUMPDEST SWAP1 PUSH1 0x0 MSTORE PUSH1 0x20 PUSH1 0x0 KECCAK256 SWAP1 PUSH1 0x3 MUL ADD PUSH1 0x2 ADD PUSH1 0x0 DUP2 SLOAD DUP1 SWAP3 SWAP2 SWAP1 PUSH2 0xC75 SWAP1 PUSH2 0x29DF JUMP JUMPDEST SWAP2 SWAP1 POP SSTORE POP PUSH1 0x4 PUSH1 0x1 PUSH1 0x0 DUP11 DUP2 MSTORE PUSH1 0x20 ADD SWAP1 DUP2 MSTORE PUSH1 0x20 ADD PUSH1 0x0 KECCAK256 PUSH1 0x4 ADD PUSH1 0x0 PUSH2 0x100 EXP DUP2 SLOAD DUP2 PUSH1 0xFF MUL NOT AND SWAP1 DUP4 PUSH1 0x4 DUP2 GT ISZERO PUSH2 0xCB4 JUMPI PUSH2 0xCB3 PUSH2 0x2440 JUMP JUMPDEST JUMPDEST MUL OR SWAP1 SSTORE POP PUSH1 0x5 PUSH1 0x0 SWAP1 SLOAD SWAP1 PUSH2 0x100 EXP SWAP1 DIV PUSH20 0xFFFFFFFFFFFFFFFFFFFFFFFFFFFFFFFFFFFFFFFF AND PUSH20 0xFFFFFFFFFFFFFFFFFFFFFFFFFFFFFFFFFFFFFFFF AND PUSH4 0xF6159CE6 DUP10 DUP6 DUP6 PUSH1 0x40 MLOAD DUP5 PUSH4 0xFFFFFFFF AND PUSH1 0xE0 SHL DUP2 MSTORE PUSH1 0x4 ADD PUSH2 0xD18 SWAP4 SWAP3 SWAP2 SWAP1 PUSH2 0x2E8F JUMP JUMPDEST PUSH1 0x0 PUSH1 0x40 MLOAD DUP1 DUP4 SUB DUP2 PUSH1 0x0 DUP8 DUP1 EXTCODESIZE ISZERO DUP1 ISZERO PUSH2 0xD32 JUMPI PUSH1 0x0 DUP1 REVERT JUMPDEST POP GAS CALL ISZERO DUP1 ISZERO PUSH2 0xD46 JUMPI RETURNDATASIZE PUSH1 0x0 DUP1 RETURNDATACOPY RETURNDATASIZE PUSH1 0x0 REVERT JUMPDEST POP POP POP POP PUSH32 0x628ABCDB4E4B579CC58315017CFC6A5853FDB6AC143FCA00A6D0B28A73A0F540 DUP9 DUP6 DUP6 DUP6 DUP6 PUSH1 0x40 MLOAD PUSH2 0xD81 SWAP6 SWAP5 SWAP4 SWAP3 SWAP2 SWAP1 PUSH2 0x2920 JUMP JUMPDEST PUSH1 0x40 MLOAD DUP1 SWAP2 SUB SWAP1 LOG1 POP POP POP POP POP POP POP POP JUMP JUMPDEST PUSH2 0xD9B PUSH2 0x2026 JUMP JUMPDEST DUP1 PUSH1 0x4 DUP1 SLOAD SWAP1 POP DUP2 PUSH1 0xFF AND LT PUSH2 0xDE6 JUMPI PUSH1 0x40 MLOAD PUSH32 0x8C379A000000000000000000000000000000000000000000000000000000000 DUP2 MSTORE PUSH1 0x4 ADD PUSH2 0xDDD SWAP1 PUSH2 0x2F19 JUMP JUMPDEST PUSH1 0x40 MLOAD DUP1 SWAP2 SUB SWAP1 REVERT JUMPDEST DUP2 PUSH1 0x3 PUSH1 0x0 PUSH2 0x100 EXP DUP2 SLOAD DUP2 PUSH1 0xFF MUL NOT AND SWAP1 DUP4 PUSH1 0xFF AND MUL OR SWAP1 SSTORE POP PUSH32 0x987A3408E00935D1EB359FD8812975019AC50BAD81A9B01CDDFA171579C848BA DUP3 PUSH1 0x40 MLOAD PUSH2 0xE30 SWAP2 SWAP1 PUSH2 0x2F39 JUMP JUMPDEST PUSH1 0x40 MLOAD DUP1 SWAP2 SUB SWAP1 LOG1 POP POP JUMP JUMPDEST PUSH1 0x0 PUSH20 0xFFFFFFFFFFFFFFFFFFFFFFFFFFFFFFFFFFFFFFFF AND PUSH1 0x5 PUSH1 0x0 SWAP1 SLOAD SWAP1 PUSH2 0x100 EXP SWAP1 DIV PUSH20 0xFFFFFFFFFFFFFFFFFFFFFFFFFFFFFFFFFFFFFFFF AND PUSH20 0xFFFFFFFFFFFFFFFFFFFFFFFFFFFFFFFFFFFFFFFF AND SUB PUSH2 0xECD JUMPI PUSH1 0x40 MLOAD PUSH32 0x8C379A000000000000000000000000000000000000000000000000000000000 DUP2 MSTORE PUSH1 0x4 ADD PUSH2 0xEC4 SWAP1 PUSH2 0x2828 JUMP JUMPDEST PUSH1 0x40 MLOAD DUP1 SWAP2 SUB SWAP1 REVERT JUMPDEST PUSH1 0x5 PUSH1 0x0 SWAP1 SLOAD SWAP1 PUSH2 0x100 EXP SWAP1 DIV PUSH20 0xFFFFFFFFFFFFFFFFFFFFFFFFFFFFFFFFFFFFFFFF AND PUSH20 0xFFFFFFFFFFFFFFFFFFFFFFFFFFFFFFFFFFFFFFFF AND CALLER PUSH20 0xFFFFFFFFFFFFFFFFFFFFFFFFFFFFFFFFFFFFFFFF AND EQ PUSH2 0xF5D JUMPI PUSH1 0x40 MLOAD PUSH32 0x8C379A000000000000000000000000000000000000000000000000000000000 DUP2 MSTORE PUSH1 0x4 ADD PUSH2 0xF54 SWAP1 PUSH2 0x2894 JUMP JUMPDEST PUSH1 0x40 MLOAD DUP1 SWAP2 SUB SWAP1 REVERT JUMPDEST DUP2 PUSH1 0x4 DUP1 PUSH1 0x4 DUP2 GT ISZERO PUSH2 0xF73 JUMPI PUSH2 0xF72 PUSH2 0x2440 JUMP JUMPDEST JUMPDEST PUSH1 0x1 PUSH1 0x0 DUP5 DUP2 MSTORE PUSH1 0x20 ADD SWAP1 DUP2 MSTORE PUSH1 0x20 ADD PUSH1 0x0 KECCAK256 PUSH1 0x4 ADD PUSH1 0x0 SWAP1 SLOAD SWAP1 PUSH2 0x100 EXP SWAP1 DIV PUSH1 0xFF AND PUSH1 0x4 DUP2 GT ISZERO PUSH2 0xFA9 JUMPI PUSH2 0xFA8 PUSH2 0x2440 JUMP JUMPDEST JUMPDEST EQ PUSH2 0xFE9 JUMPI PUSH1 0x40 MLOAD PUSH32 0x8C379A000000000000000000000000000000000000000000000000000000000 DUP2 MSTORE PUSH1 0x4 ADD PUSH2 0xFE0 SWAP1 PUSH2 0x2900 JUMP JUMPDEST PUSH1 0x40 MLOAD DUP1 SWAP2 SUB SWAP1 REVERT JUMPDEST PUSH1 0x0 DUP1 PUSH1 0x0 DUP1 PUSH2 0xFF8 DUP9 PUSH2 0x1E5F JUMP JUMPDEST SWAP4 POP SWAP4 POP SWAP4 POP SWAP4 POP DUP7 ISZERO PUSH2 0x10EE JUMPI PUSH1 0x1 PUSH1 0x0 DUP10 DUP2 MSTORE PUSH1 0x20 ADD SWAP1 DUP2 MSTORE PUSH1 0x20 ADD PUSH1 0x0 KECCAK256 PUSH1 0x0 DUP1 DUP3 ADD PUSH1 0x0 PUSH2 0x100 EXP DUP2 SLOAD SWAP1 PUSH1 0xFF MUL NOT AND SWAP1 SSTORE PUSH1 0x0 DUP3 ADD PUSH1 0x1 PUSH2 0x100 EXP DUP2 SLOAD SWAP1 PUSH20 0xFFFFFFFFFFFFFFFFFFFFFFFFFFFFFFFFFFFFFFFF MUL NOT AND SWAP1 SSTORE PUSH1 0x1 DUP3 ADD PUSH1 0x0 PUSH2 0x1065 SWAP2 SWAP1 PUSH2 0x2170 JUMP JUMPDEST PUSH1 0x2 DUP3 ADD PUSH1 0x0 PUSH2 0x100 EXP DUP2 SLOAD SWAP1 PUSH20 0xFFFFFFFFFFFFFFFFFFFFFFFFFFFFFFFFFFFFFFFF MUL NOT AND SWAP1 SSTORE PUSH1 0x3 DUP3 ADD PUSH1 0x0 SWAP1 SSTORE PUSH1 0x4 DUP3 ADD PUSH1 0x0 PUSH2 0x100 EXP DUP2 SLOAD SWAP1 PUSH1 0xFF MUL NOT AND SWAP1 SSTORE POP POP PUSH32 0x34F974022181AAE39AA96D8758F573CB067A8B910EDC151F1C7E4227FDA5A3D6 DUP9 DUP6 DUP6 DUP6 DUP6 PUSH1 0x40 MLOAD PUSH2 0x10E1 SWAP6 SWAP5 SWAP4 SWAP3 SWAP2 SWAP1 PUSH2 0x2920 JUMP JUMPDEST PUSH1 0x40 MLOAD DUP1 SWAP2 SUB SWAP1 LOG1 PUSH2 0x11AB JUMP JUMPDEST PUSH1 0x2 DUP5 PUSH1 0xFF AND DUP2 SLOAD DUP2 LT PUSH2 0x1105 JUMPI PUSH2 0x1104 PUSH2 0x2981 JUMP JUMPDEST JUMPDEST SWAP1 PUSH1 0x0 MSTORE PUSH1 0x20 PUSH1 0x0 KECCAK256 SWAP1 PUSH1 0x3 MUL ADD PUSH1 0x2 ADD PUSH1 0x0 DUP2 SLOAD DUP1 SWAP3 SWAP2 SWAP1 PUSH2 0x1127 SWAP1 PUSH2 0x2F54 JUMP JUMPDEST SWAP2 SWAP1 POP SSTORE POP PUSH1 0x3 PUSH1 0x1 PUSH1 0x0 DUP11 DUP2 MSTORE PUSH1 0x20 ADD SWAP1 DUP2 MSTORE PUSH1 0x20 ADD PUSH1 0x0 KECCAK256 PUSH1 0x4 ADD PUSH1 0x0 PUSH2 0x100 EXP DUP2 SLOAD DUP2 PUSH1 0xFF MUL NOT AND SWAP1 DUP4 PUSH1 0x4 DUP2 GT ISZERO PUSH2 0x1166 JUMPI PUSH2 0x1165 PUSH2 0x2440 JUMP JUMPDEST JUMPDEST MUL OR SWAP1 SSTORE POP PUSH32 0x5D6D4A8AFD86AEEA9D8F976D1E848289B569D5DD41B052C21BBE97BE23D2A339 DUP9 DUP6 DUP6 DUP6 DUP6 PUSH1 0x40 MLOAD PUSH2 0x11A2 SWAP6 SWAP5 SWAP4 SWAP3 SWAP2 SWAP1 PUSH2 0x2920 JUMP JUMPDEST PUSH1 0x40 MLOAD DUP1 SWAP2 SUB SWAP1 LOG1 JUMPDEST POP POP POP POP POP POP POP POP JUMP JUMPDEST PUSH1 0x0 PUSH20 0xFFFFFFFFFFFFFFFFFFFFFFFFFFFFFFFFFFFFFFFF AND PUSH1 0x5 PUSH1 0x0 SWAP1 SLOAD SWAP1 PUSH2 0x100 EXP SWAP1 DIV PUSH20 0xFFFFFFFFFFFFFFFFFFFFFFFFFFFFFFFFFFFFFFFF AND PUSH20 0xFFFFFFFFFFFFFFFFFFFFFFFFFFFFFFFFFFFFFFFF AND SUB PUSH2 0x1246 JUMPI PUSH1 0x40 MLOAD PUSH32 0x8C379A000000000000000000000000000000000000000000000000000000000 DUP2 MSTORE PUSH1 0x4 ADD PUSH2 0x123D SWAP1 PUSH2 0x2828 JUMP JUMPDEST PUSH1 0x40 MLOAD DUP1 SWAP2 SUB SWAP1 REVERT JUMPDEST DUP4 CALLER PUSH20 0xFFFFFFFFFFFFFFFFFFFFFFFFFFFFFFFFFFFFFFFF AND PUSH1 0x1 PUSH1 0x0 DUP4 DUP2 MSTORE PUSH1 0x20 ADD SWAP1 DUP2 MSTORE PUSH1 0x20 ADD PUSH1 0x0 KECCAK256 PUSH1 0x2 ADD PUSH1 0x0 SWAP1 SLOAD SWAP1 PUSH2 0x100 EXP SWAP1 DIV PUSH20 0xFFFFFFFFFFFFFFFFFFFFFFFFFFFFFFFFFFFFFFFF AND PUSH20 0xFFFFFFFFFFFFFFFFFFFFFFFFFFFFFFFFFFFFFFFF AND EQ PUSH2 0x12EB JUMPI PUSH1 0x40 MLOAD PUSH32 0x8C379A000000000000000000000000000000000000000000000000000000000 DUP2 MSTORE PUSH1 0x4 ADD PUSH2 0x12E2 SWAP1 PUSH2 0x2E6F JUMP JUMPDEST PUSH1 0x40 MLOAD DUP1 SWAP2 SUB SWAP1 REVERT JUMPDEST DUP5 PUSH1 0x1 DUP1 PUSH1 0x4 DUP2 GT ISZERO PUSH2 0x1301 JUMPI PUSH2 0x1300 PUSH2 0x2440 JUMP JUMPDEST JUMPDEST PUSH1 0x1 PUSH1 0x0 DUP5 DUP2 MSTORE PUSH1 0x20 ADD SWAP1 DUP2 MSTORE PUSH1 0x20 ADD PUSH1 0x0 KECCAK256 PUSH1 0x4 ADD PUSH1 0x0 SWAP1 SLOAD SWAP1 PUSH2 0x100 EXP SWAP1 DIV PUSH1 0xFF AND PUSH1 0x4 DUP2 GT ISZERO PUSH2 0x1337 JUMPI PUSH2 0x1336 PUSH2 0x2440 JUMP JUMPDEST JUMPDEST EQ PUSH2 0x1377 JUMPI PUSH1 0x40 MLOAD PUSH32 0x8C379A000000000000000000000000000000000000000000000000000000000 DUP2 MSTORE PUSH1 0x4 ADD PUSH2 0x136E SWAP1 PUSH2 0x2900 JUMP JUMPDEST PUSH1 0x40 MLOAD DUP1 SWAP2 SUB SWAP1 REVERT JUMPDEST PUSH1 0x0 PUSH1 0x1 PUSH1 0x0 DUP10 DUP2 MSTORE PUSH1 0x20 ADD SWAP1 DUP2 MSTORE PUSH1 0x20 ADD PUSH1 0x0 KECCAK256 PUSH1 0x0 ADD PUSH1 0x0 SWAP1 SLOAD SWAP1 PUSH2 0x100 EXP SWAP1 DIV PUSH1 0xFF AND SWAP1 POP PUSH1 0x0 PUSH1 0x2 DUP3 PUSH1 0xFF AND DUP2 SLOAD DUP2 LT PUSH2 0x13B8 JUMPI PUSH2 0x13B7 PUSH2 0x2981 JUMP JUMPDEST JUMPDEST SWAP1 PUSH1 0x0 MSTORE PUSH1 0x20 PUSH1 0x0 KECCAK256 SWAP1 PUSH1 0x3 MUL ADD PUSH1 0x0 ADD DUP1 SLOAD PUSH2 0x13D4 SWAP1 PUSH2 0x2A37 JUMP JUMPDEST DUP1 PUSH1 0x1F ADD PUSH1 0x20 DUP1 SWAP2 DIV MUL PUSH1 0x20 ADD PUSH1 0x40 MLOAD SWAP1 DUP2 ADD PUSH1 0x40 MSTORE DUP1 SWAP3 SWAP2 SWAP1 DUP2 DUP2 MSTORE PUSH1 0x20 ADD DUP3 DUP1 SLOAD PUSH2 0x1400 SWAP1 PUSH2 0x2A37 JUMP JUMPDEST DUP1 ISZERO PUSH2 0x144D JUMPI DUP1 PUSH1 0x1F LT PUSH2 0x1422 JUMPI PUSH2 0x100 DUP1 DUP4 SLOAD DIV MUL DUP4 MSTORE SWAP2 PUSH1 0x20 ADD SWAP2 PUSH2 0x144D JUMP JUMPDEST DUP3 ADD SWAP2 SWAP1 PUSH1 0x0 MSTORE PUSH1 0x20 PUSH1 0x0 KECCAK256 SWAP1 JUMPDEST DUP2 SLOAD DUP2 MSTORE SWAP1 PUSH1 0x1 ADD SWAP1 PUSH1 0x20 ADD DUP1 DUP4 GT PUSH2 0x1430 JUMPI DUP3 SWAP1 SUB PUSH1 0x1F AND DUP3 ADD SWAP2 JUMPDEST POP POP POP POP POP SWAP1 POP DUP8 PUSH1 0x1 PUSH1 0x0 DUP12 DUP2 MSTORE PUSH1 0x20 ADD SWAP1 DUP2 MSTORE PUSH1 0x20 ADD PUSH1 0x0 KECCAK256 PUSH1 0x0 ADD PUSH1 0x1 PUSH2 0x100 EXP DUP2 SLOAD DUP2 PUSH20 0xFFFFFFFFFFFFFFFFFFFFFFFFFFFFFFFFFFFFFFFF MUL NOT AND SWAP1 DUP4 PUSH1 0x60 SHR MUL OR SWAP1 SSTORE POP DUP7 DUP7 PUSH1 0x1 PUSH1 0x0 DUP13 DUP2 MSTORE PUSH1 0x20 ADD SWAP1 DUP2 MSTORE PUSH1 0x20 ADD PUSH1 0x0 KECCAK256 PUSH1 0x1 ADD SWAP2 DUP3 PUSH2 0x14BB SWAP3 SWAP2 SWAP1 PUSH2 0x2FA7 JUMP JUMPDEST POP TIMESTAMP PUSH1 0x1 PUSH1 0x0 DUP12 DUP2 MSTORE PUSH1 0x20 ADD SWAP1 DUP2 MSTORE PUSH1 0x20 ADD PUSH1 0x0 KECCAK256 PUSH1 0x3 ADD DUP2 SWAP1 SSTORE POP PUSH1 0x2 PUSH1 0x1 PUSH1 0x0 DUP12 DUP2 MSTORE PUSH1 0x20 ADD SWAP1 DUP2 MSTORE PUSH1 0x20 ADD PUSH1 0x0 KECCAK256 PUSH1 0x4 ADD PUSH1 0x0 PUSH2 0x100 EXP DUP2 SLOAD DUP2 PUSH1 0xFF MUL NOT AND SWAP1 DUP4 PUSH1 0x4 DUP2 GT ISZERO PUSH2 0x1511 JUMPI PUSH2 0x1510 PUSH2 0x2440 JUMP JUMPDEST JUMPDEST MUL OR SWAP1 SSTORE POP PUSH1 0x5 PUSH1 0x0 SWAP1 SLOAD SWAP1 PUSH2 0x100 EXP SWAP1 DIV PUSH20 0xFFFFFFFFFFFFFFFFFFFFFFFFFFFFFFFFFFFFFFFF AND PUSH20 0xFFFFFFFFFFFFFFFFFFFFFFFFFFFFFFFFFFFFFFFF AND PUSH4 0x2B0D3A8E DUP11 DUP4 DUP12 PUSH1 0x40 MLOAD DUP5 PUSH4 0xFFFFFFFF AND PUSH1 0xE0 SHL DUP2 MSTORE PUSH1 0x4 ADD PUSH2 0x1575 SWAP4 SWAP3 SWAP2 SWAP1 PUSH2 0x2E8F JUMP JUMPDEST PUSH1 0x0 PUSH1 0x40 MLOAD DUP1 DUP4 SUB DUP2 PUSH1 0x0 DUP8 DUP1 EXTCODESIZE ISZERO DUP1 ISZERO PUSH2 0x158F JUMPI PUSH1 0x0 DUP1 REVERT JUMPDEST POP GAS CALL ISZERO DUP1 ISZERO PUSH2 0x15A3 JUMPI RETURNDATASIZE PUSH1 0x0 DUP1 RETURNDATACOPY RETURNDATASIZE PUSH1 0x0 REVERT JUMPDEST POP POP POP POP PUSH32 0x1C42C890F21CE8A67778DD4A7C3F65F9131AA60FB612E1BCF7A7B7482E88F442 DUP10 DUP4 DUP4 DUP12 DUP12 DUP12 PUSH1 0x40 MLOAD PUSH2 0x15E0 SWAP7 SWAP6 SWAP5 SWAP4 SWAP3 SWAP2 SWAP1 PUSH2 0x3077 JUMP JUMPDEST PUSH1 0x40 MLOAD DUP1 SWAP2 SUB SWAP1 LOG1 POP POP POP POP POP POP POP POP POP JUMP JUMPDEST PUSH1 0x0 PUSH1 0x60 PUSH1 0x0 PUSH1 0x2 DUP1 SLOAD SWAP1 POP GT PUSH2 0x163F JUMPI PUSH1 0x40 MLOAD PUSH32 0x8C379A000000000000000000000000000000000000000000000000000000000 DUP2 MSTORE PUSH1 0x4 ADD PUSH2 0x1636 SWAP1 PUSH2 0x3126 JUMP JUMPDEST PUSH1 0x40 MLOAD DUP1 SWAP2 SUB SWAP1 REVERT JUMPDEST PUSH1 0x0 PUSH2 0x16A3 PUSH1 0x4 PUSH1 0x3 PUSH1 0x0 SWAP1 SLOAD SWAP1 PUSH2 0x100 EXP SWAP1 DIV PUSH1 0xFF AND PUSH1 0xFF AND DUP2 SLOAD DUP2 LT PUSH2 0x166A JUMPI PUSH2 0x1669 PUSH2 0x2981 JUMP JUMPDEST JUMPDEST SWAP1 PUSH1 0x0 MSTORE PUSH1 0x20 PUSH1 0x0 KECCAK256 SWAP1 PUSH1 0x4 SWAP2 DUP3 DUP3 DIV ADD SWAP2 SWAP1 MOD PUSH1 0x8 MUL SWAP1 SLOAD SWAP1 PUSH2 0x100 EXP SWAP1 DIV DUP1 ISZERO PUSH2 0x21B0 MUL OR PUSH8 0xFFFFFFFFFFFFFFFF AND PUSH4 0xFFFFFFFF AND JUMP JUMPDEST SWAP1 POP PUSH1 0x0 PUSH1 0x40 MLOAD DUP1 PUSH1 0x20 ADD PUSH1 0x40 MSTORE DUP1 PUSH1 0x0 DUP2 MSTORE POP SWAP1 POP PUSH1 0x7 PUSH1 0x0 SWAP1 SLOAD SWAP1 PUSH2 0x100 EXP SWAP1 DIV PUSH1 0xFF AND PUSH1 0xFF AND DUP3 PUSH1 0xFF AND LT ISZERO PUSH2 0x19A1 JUMPI PUSH1 0x2 DUP3 PUSH1 0xFF AND DUP2 SLOAD DUP2 LT PUSH2 0x16ED JUMPI PUSH2 0x16EC PUSH2 0x2981 JUMP JUMPDEST JUMPDEST SWAP1 PUSH1 0x0 MSTORE PUSH1 0x20 PUSH1 0x0 KECCAK256 SWAP1 PUSH1 0x3 MUL ADD PUSH1 0x0 ADD DUP1 SLOAD PUSH2 0x1709 SWAP1 PUSH2 0x2A37 JUMP JUMPDEST DUP1 PUSH1 0x1F ADD PUSH1 0x20 DUP1 SWAP2 DIV MUL PUSH1 0x20 ADD PUSH1 0x40 MLOAD SWAP1 DUP2 ADD PUSH1 0x40 MSTORE DUP1 SWAP3 SWAP2 SWAP1 DUP2 DUP2 MSTORE PUSH1 0x20 ADD DUP3 DUP1 SLOAD PUSH2 0x1735 SWAP1 PUSH2 0x2A37 JUMP JUMPDEST DUP1 ISZERO PUSH2 0x1782 JUMPI DUP1 PUSH1 0x1F LT PUSH2 0x1757 JUMPI PUSH2 0x100 DUP1 DUP4 SLOAD DIV MUL DUP4 MSTORE SWAP2 PUSH1 0x20 ADD SWAP2 PUSH2 0x1782 JUMP JUMPDEST DUP3 ADD SWAP2 SWAP1 PUSH1 0x0 MSTORE PUSH1 0x20 PUSH1 0x0 KECCAK256 SWAP1 JUMPDEST DUP2 SLOAD DUP2 MSTORE SWAP1 PUSH1 0x1 ADD SWAP1 PUSH1 0x20 ADD DUP1 DUP4 GT PUSH2 0x1765 JUMPI DUP3 SWAP1 SUB PUSH1 0x1F AND DUP3 ADD SWAP2 JUMPDEST POP POP POP POP POP SWAP1 POP PUSH1 0x6 PUSH1 0x0 DUP2 SLOAD DUP1 SWAP3 SWAP2 SWAP1 PUSH2 0x179C SWAP1 PUSH2 0x2F54 JUMP JUMPDEST SWAP2 SWAP1 POP SSTORE POP PUSH1 0x40 MLOAD DUP1 PUSH1 0xC0 ADD PUSH1 0x40 MSTORE DUP1 DUP4 PUSH1 0xFF AND DUP2 MSTORE PUSH1 0x20 ADD PUSH1 0x0 PUSH1 0x60 SHL PUSH12 0xFFFFFFFFFFFFFFFFFFFFFFFF NOT AND DUP2 MSTORE PUSH1 0x20 ADD PUSH1 0x40 MLOAD DUP1 PUSH1 0x20 ADD PUSH1 0x40 MSTORE DUP1 PUSH1 0x0 DUP2 MSTORE POP DUP2 MSTORE PUSH1 0x20 ADD CALLER PUSH20 0xFFFFFFFFFFFFFFFFFFFFFFFFFFFFFFFFFFFFFFFF AND DUP2 MSTORE PUSH1 0x20 ADD PUSH1 0x0 DUP2 MSTORE PUSH1 0x20 ADD PUSH1 0x1 PUSH1 0x4 DUP2 GT ISZERO PUSH2 0x181A JUMPI PUSH2 0x1819 PUSH2 0x2440 JUMP JUMPDEST JUMPDEST DUP2 MSTORE POP PUSH1 0x1 PUSH1 0x0 PUSH1 0x6 SLOAD DUP2 MSTORE PUSH1 0x20 ADD SWAP1 DUP2 MSTORE PUSH1 0x20 ADD PUSH1 0x0 KECCAK256 PUSH1 0x0 DUP3 ADD MLOAD DUP2 PUSH1 0x0 ADD PUSH1 0x0 PUSH2 0x100 EXP DUP2 SLOAD DUP2 PUSH1 0xFF MUL NOT AND SWAP1 DUP4 PUSH1 0xFF AND MUL OR SWAP1 SSTORE POP PUSH1 0x20 DUP3 ADD MLOAD DUP2 PUSH1 0x0 ADD PUSH1 0x1 PUSH2 0x100 EXP DUP2 SLOAD DUP2 PUSH20 0xFFFFFFFFFFFFFFFFFFFFFFFFFFFFFFFFFFFFFFFF MUL NOT AND SWAP1 DUP4 PUSH1 0x60 SHR MUL OR SWAP1 SSTORE POP PUSH1 0x40 DUP3 ADD MLOAD DUP2 PUSH1 0x1 ADD SWAP1 DUP2 PUSH2 0x189C SWAP2 SWAP1 PUSH2 0x2CAF JUMP JUMPDEST POP PUSH1 0x60 DUP3 ADD MLOAD DUP2 PUSH1 0x2 ADD PUSH1 0x0 PUSH2 0x100 EXP DUP2 SLOAD DUP2 PUSH20 0xFFFFFFFFFFFFFFFFFFFFFFFFFFFFFFFFFFFFFFFF MUL NOT AND SWAP1 DUP4 PUSH20 0xFFFFFFFFFFFFFFFFFFFFFFFFFFFFFFFFFFFFFFFF AND MUL OR SWAP1 SSTORE POP PUSH1 0x80 DUP3 ADD MLOAD DUP2 PUSH1 0x3 ADD SSTORE PUSH1 0xA0 DUP3 ADD MLOAD DUP2 PUSH1 0x4 ADD PUSH1 0x0 PUSH2 0x100 EXP DUP2 SLOAD DUP2 PUSH1 0xFF MUL NOT AND SWAP1 DUP4 PUSH1 0x4 DUP2 GT ISZERO PUSH2 0x1919 JUMPI PUSH2 0x1918 PUSH2 0x2440 JUMP JUMPDEST JUMPDEST MUL OR SWAP1 SSTORE POP SWAP1 POP POP PUSH1 0x2 DUP3 PUSH1 0xFF AND DUP2 SLOAD DUP2 LT PUSH2 0x1938 JUMPI PUSH2 0x1937 PUSH2 0x2981 JUMP JUMPDEST JUMPDEST SWAP1 PUSH1 0x0 MSTORE PUSH1 0x20 PUSH1 0x0 KECCAK256 SWAP1 PUSH1 0x3 MUL ADD PUSH1 0x2 ADD PUSH1 0x0 DUP2 SLOAD DUP1 SWAP3 SWAP2 SWAP1 PUSH2 0x195A SWAP1 PUSH2 0x2F54 JUMP JUMPDEST SWAP2 SWAP1 POP SSTORE POP PUSH32 0x7BDDC540FB75CC1614FE9CA62CB4543CFD8B8E10F91AD21EAC54E165E6892587 PUSH1 0x6 SLOAD DUP4 DUP4 PUSH1 0x40 MLOAD PUSH2 0x1994 SWAP4 SWAP3 SWAP2 SWAP1 PUSH2 0x3146 JUMP JUMPDEST PUSH1 0x40 MLOAD DUP1 SWAP2 SUB SWAP1 LOG1 PUSH2 0x19DC JUMP JUMPDEST PUSH1 0x40 MLOAD PUSH32 0x8C379A000000000000000000000000000000000000000000000000000000000 DUP2 MSTORE PUSH1 0x4 ADD PUSH2 0x19D3 SWAP1 PUSH2 0x31D0 JUMP JUMPDEST PUSH1 0x40 MLOAD DUP1 SWAP2 SUB SWAP1 REVERT JUMPDEST PUSH1 0x6 SLOAD DUP2 SWAP4 POP SWAP4 POP POP POP SWAP1 SWAP2 JUMP JUMPDEST PUSH2 0x19F2 PUSH2 0x2026 JUMP JUMPDEST PUSH1 0x0 PUSH20 0xFFFFFFFFFFFFFFFFFFFFFFFFFFFFFFFFFFFFFFFF AND DUP2 PUSH20 0xFFFFFFFFFFFFFFFFFFFFFFFFFFFFFFFFFFFFFFFF AND SUB PUSH2 0x1A61 JUMPI PUSH1 0x40 MLOAD PUSH32 0x8C379A000000000000000000000000000000000000000000000000000000000 DUP2 MSTORE PUSH1 0x4 ADD PUSH2 0x1A58 SWAP1 PUSH2 0x3262 JUMP JUMPDEST PUSH1 0x40 MLOAD DUP1 SWAP2 SUB SWAP1 REVERT JUMPDEST PUSH2 0x1A6A DUP2 PUSH2 0x20A4 JUMP JUMPDEST POP JUMP JUMPDEST PUSH2 0x1A75 PUSH2 0x2026 JUMP JUMPDEST DUP2 PUSH1 0x2 DUP1 SLOAD SWAP1 POP DUP2 PUSH1 0xFF AND LT PUSH2 0x1AC0 JUMPI PUSH1 0x40 MLOAD PUSH32 0x8C379A000000000000000000000000000000000000000000000000000000000 DUP2 MSTORE PUSH1 0x4 ADD PUSH2 0x1AB7 SWAP1 PUSH2 0x32CE JUMP JUMPDEST PUSH1 0x40 MLOAD DUP1 SWAP2 SUB SWAP1 REVERT JUMPDEST DUP2 PUSH1 0x2 DUP5 PUSH1 0xFF AND DUP2 SLOAD DUP2 LT PUSH2 0x1AD8 JUMPI PUSH2 0x1AD7 PUSH2 0x2981 JUMP JUMPDEST JUMPDEST SWAP1 PUSH1 0x0 MSTORE PUSH1 0x20 PUSH1 0x0 KECCAK256 SWAP1 PUSH1 0x3 MUL ADD PUSH1 0x1 ADD PUSH1 0x0 PUSH2 0x100 EXP DUP2 SLOAD DUP2 PUSH1 0xFF MUL NOT AND SWAP1 DUP4 ISZERO ISZERO MUL OR SWAP1 SSTORE POP POP POP POP JUMP JUMPDEST PUSH1 0x0 DUP1 PUSH1 0x2 DUP1 SLOAD SWAP1 POP PUSH1 0x1 PUSH1 0x2 DUP1 SLOAD SWAP1 POP PUSH1 0x3 PUSH1 0x1 SWAP1 SLOAD SWAP1 PUSH2 0x100 EXP SWAP1 DIV PUSH1 0xFF AND PUSH1 0xFF AND PUSH2 0x1B33 SWAP2 SWAP1 PUSH2 0x32EE JUMP JUMPDEST PUSH2 0x1B3D SWAP2 SWAP1 PUSH2 0x2D81 JUMP JUMPDEST PUSH2 0x1B47 SWAP2 SWAP1 PUSH2 0x3351 JUMP JUMPDEST SWAP1 POP JUMPDEST DUP1 PUSH1 0xFF AND PUSH1 0x3 PUSH1 0x1 SWAP1 SLOAD SWAP1 PUSH2 0x100 EXP SWAP1 DIV PUSH1 0xFF AND PUSH1 0xFF AND EQ ISZERO DUP1 ISZERO PUSH2 0x1BB1 JUMPI POP PUSH1 0x2 PUSH1 0x3 PUSH1 0x1 SWAP1 SLOAD SWAP1 PUSH2 0x100 EXP SWAP1 DIV PUSH1 0xFF AND PUSH1 0xFF AND DUP2 SLOAD DUP2 LT PUSH2 0x1B90 JUMPI PUSH2 0x1B8F PUSH2 0x2981 JUMP JUMPDEST JUMPDEST SWAP1 PUSH1 0x0 MSTORE PUSH1 0x20 PUSH1 0x0 KECCAK256 SWAP1 PUSH1 0x3 MUL ADD PUSH1 0x1 ADD PUSH1 0x0 SWAP1 SLOAD SWAP1 PUSH2 0x100 EXP SWAP1 DIV PUSH1 0xFF AND ISZERO JUMPDEST ISZERO PUSH2 0x1C04 JUMPI PUSH1 0x2 DUP1 SLOAD SWAP1 POP PUSH1 0x1 PUSH1 0x3 PUSH1 0x1 SWAP1 SLOAD SWAP1 PUSH2 0x100 EXP SWAP1 DIV PUSH1 0xFF AND PUSH2 0x1BD8 SWAP2 SWAP1 PUSH2 0x3382 JUMP JUMPDEST PUSH1 0xFF AND PUSH2 0x1BE5 SWAP2 SWAP1 PUSH2 0x3351 JUMP JUMPDEST PUSH1 0x3 PUSH1 0x1 PUSH2 0x100 EXP DUP2 SLOAD DUP2 PUSH1 0xFF MUL NOT AND SWAP1 DUP4 PUSH1 0xFF AND MUL OR SWAP1 SSTORE POP PUSH2 0x1B4A JUMP JUMPDEST PUSH1 0x0 PUSH1 0x2 PUSH1 0x3 PUSH1 0x1 SWAP1 SLOAD SWAP1 PUSH2 0x100 EXP SWAP1 DIV PUSH1 0xFF AND PUSH1 0xFF AND DUP2 SLOAD DUP2 LT PUSH2 0x1C2C JUMPI PUSH2 0x1C2B PUSH2 0x2981 JUMP JUMPDEST JUMPDEST SWAP1 PUSH1 0x0 MSTORE PUSH1 0x20 PUSH1 0x0 KECCAK256 SWAP1 PUSH1 0x3 MUL ADD PUSH1 0x1 ADD PUSH1 0x0 SWAP1 SLOAD SWAP1 PUSH2 0x100 EXP SWAP1 DIV PUSH1 0xFF AND PUSH2 0x1C64 JUMPI PUSH1 0x7 PUSH1 0x0 SWAP1 SLOAD SWAP1 PUSH2 0x100 EXP SWAP1 DIV PUSH1 0xFF AND PUSH2 0x1C75 JUMP JUMPDEST PUSH1 0x3 PUSH1 0x1 SWAP1 SLOAD SWAP1 PUSH2 0x100 EXP SWAP1 DIV PUSH1 0xFF AND JUMPDEST SWAP1 POP PUSH1 0x2 DUP1 SLOAD SWAP1 POP PUSH1 0x1 PUSH1 0x3 PUSH1 0x1 SWAP1 SLOAD SWAP1 PUSH2 0x100 EXP SWAP1 DIV PUSH1 0xFF AND PUSH2 0x1C99 SWAP2 SWAP1 PUSH2 0x3382 JUMP JUMPDEST PUSH1 0xFF AND PUSH2 0x1CA6 SWAP2 SWAP1 PUSH2 0x3351 JUMP JUMPDEST PUSH1 0x3 PUSH1 0x1 PUSH2 0x100 EXP DUP2 SLOAD DUP2 PUSH1 0xFF MUL NOT AND SWAP1 DUP4 PUSH1 0xFF AND MUL OR SWAP1 SSTORE POP DUP1 SWAP3 POP POP POP SWAP1 JUMP JUMPDEST PUSH1 0x0 DUP1 PUSH1 0x0 PUSH1 0x7 PUSH1 0x0 SWAP1 SLOAD SWAP1 PUSH2 0x100 EXP SWAP1 DIV PUSH1 0xFF AND SWAP1 POP PUSH1 0x0 JUMPDEST PUSH1 0x2 DUP1 SLOAD SWAP1 POP DUP2 PUSH1 0xFF AND LT DUP1 ISZERO PUSH2 0x1D2C JUMPI POP PUSH1 0x2 DUP2 PUSH1 0xFF AND DUP2 SLOAD DUP2 LT PUSH2 0x1D0B JUMPI PUSH2 0x1D0A PUSH2 0x2981 JUMP JUMPDEST JUMPDEST SWAP1 PUSH1 0x0 MSTORE PUSH1 0x20 PUSH1 0x0 KECCAK256 SWAP1 PUSH1 0x3 MUL ADD PUSH1 0x1 ADD PUSH1 0x0 SWAP1 SLOAD SWAP1 PUSH2 0x100 EXP SWAP1 DIV PUSH1 0xFF AND ISZERO JUMPDEST ISZERO PUSH2 0x1D44 JUMPI DUP1 DUP1 PUSH2 0x1D3C SWAP1 PUSH2 0x33B7 JUMP JUMPDEST SWAP2 POP POP PUSH2 0x1CE2 JUMP JUMPDEST PUSH1 0x2 DUP1 SLOAD SWAP1 POP DUP2 PUSH1 0xFF AND LT ISZERO PUSH2 0x1E56 JUMPI DUP1 SWAP2 POP PUSH1 0x2 DUP2 PUSH1 0xFF AND DUP2 SLOAD DUP2 LT PUSH2 0x1D6E JUMPI PUSH2 0x1D6D PUSH2 0x2981 JUMP JUMPDEST JUMPDEST SWAP1 PUSH1 0x0 MSTORE PUSH1 0x20 PUSH1 0x0 KECCAK256 SWAP1 PUSH1 0x3 MUL ADD PUSH1 0x2 ADD SLOAD SWAP3 POP PUSH1 0x0 PUSH1 0x1 DUP3 PUSH2 0x1D91 SWAP2 SWAP1 PUSH2 0x3382 JUMP JUMPDEST SWAP1 POP JUMPDEST PUSH1 0x2 DUP1 SLOAD SWAP1 POP DUP2 PUSH1 0xFF AND LT ISZERO PUSH2 0x1E54 JUMPI PUSH1 0x2 DUP2 PUSH1 0xFF AND DUP2 SLOAD DUP2 LT PUSH2 0x1DBB JUMPI PUSH2 0x1DBA PUSH2 0x2981 JUMP JUMPDEST JUMPDEST SWAP1 PUSH1 0x0 MSTORE PUSH1 0x20 PUSH1 0x0 KECCAK256 SWAP1 PUSH1 0x3 MUL ADD PUSH1 0x1 ADD PUSH1 0x0 SWAP1 SLOAD SWAP1 PUSH2 0x100 EXP SWAP1 DIV PUSH1 0xFF AND DUP1 ISZERO PUSH2 0x1E0D JUMPI POP DUP4 PUSH1 0x2 DUP3 PUSH1 0xFF AND DUP2 SLOAD DUP2 LT PUSH2 0x1DF9 JUMPI PUSH2 0x1DF8 PUSH2 0x2981 JUMP JUMPDEST JUMPDEST SWAP1 PUSH1 0x0 MSTORE PUSH1 0x20 PUSH1 0x0 KECCAK256 SWAP1 PUSH1 0x3 MUL ADD PUSH1 0x2 ADD SLOAD LT JUMPDEST ISZERO PUSH2 0x1E41 JUMPI DUP1 SWAP3 POP PUSH1 0x2 DUP2 PUSH1 0xFF AND DUP2 SLOAD DUP2 LT PUSH2 0x1E2C JUMPI PUSH2 0x1E2B PUSH2 0x2981 JUMP JUMPDEST JUMPDEST SWAP1 PUSH1 0x0 MSTORE PUSH1 0x20 PUSH1 0x0 KECCAK256 SWAP1 PUSH1 0x3 MUL ADD PUSH1 0x2 ADD SLOAD SWAP4 POP JUMPDEST DUP1 DUP1 PUSH2 0x1E4C SWAP1 PUSH2 0x33B7 JUMP JUMPDEST SWAP2 POP POP PUSH2 0x1D94 JUMP JUMPDEST POP JUMPDEST DUP2 SWAP4 POP POP POP POP SWAP1 JUMP JUMPDEST PUSH1 0x0 PUSH1 0x60 PUSH1 0x0 PUSH1 0x60 PUSH1 0x0 PUSH1 0x1 PUSH1 0x0 DUP8 DUP2 MSTORE PUSH1 0x20 ADD SWAP1 DUP2 MSTORE PUSH1 0x20 ADD PUSH1 0x0 KECCAK256 PUSH1 0x0 ADD PUSH1 0x0 SWAP1 SLOAD SWAP1 PUSH2 0x100 EXP SWAP1 DIV PUSH1 0xFF AND SWAP1 POP PUSH1 0x0 PUSH1 0x2 DUP3 PUSH1 0xFF AND DUP2 SLOAD DUP2 LT PUSH2 0x1EA8 JUMPI PUSH2 0x1EA7 PUSH2 0x2981 JUMP JUMPDEST JUMPDEST SWAP1 PUSH1 0x0 MSTORE PUSH1 0x20 PUSH1 0x0 KECCAK256 SWAP1 PUSH1 0x3 MUL ADD PUSH1 0x0 ADD DUP1 SLOAD PUSH2 0x1EC4 SWAP1 PUSH2 0x2A37 JUMP JUMPDEST DUP1 PUSH1 0x1F ADD PUSH1 0x20 DUP1 SWAP2 DIV MUL PUSH1 0x20 ADD PUSH1 0x40 MLOAD SWAP1 DUP2 ADD PUSH1 0x40 MSTORE DUP1 SWAP3 SWAP2 SWAP1 DUP2 DUP2 MSTORE PUSH1 0x20 ADD DUP3 DUP1 SLOAD PUSH2 0x1EF0 SWAP1 PUSH2 0x2A37 JUMP JUMPDEST DUP1 ISZERO PUSH2 0x1F3D JUMPI DUP1 PUSH1 0x1F LT PUSH2 0x1F12 JUMPI PUSH2 0x100 DUP1 DUP4 SLOAD DIV MUL DUP4 MSTORE SWAP2 PUSH1 0x20 ADD SWAP2 PUSH2 0x1F3D JUMP JUMPDEST DUP3 ADD SWAP2 SWAP1 PUSH1 0x0 MSTORE PUSH1 0x20 PUSH1 0x0 KECCAK256 SWAP1 JUMPDEST DUP2 SLOAD DUP2 MSTORE SWAP1 PUSH1 0x1 ADD SWAP1 PUSH1 0x20 ADD DUP1 DUP4 GT PUSH2 0x1F20 JUMPI DUP3 SWAP1 SUB PUSH1 0x1F AND DUP3 ADD SWAP2 JUMPDEST POP POP POP POP POP SWAP1 POP PUSH1 0x0 PUSH1 0x1 PUSH1 0x0 DUP10 DUP2 MSTORE PUSH1 0x20 ADD SWAP1 DUP2 MSTORE PUSH1 0x20 ADD PUSH1 0x0 KECCAK256 PUSH1 0x0 ADD PUSH1 0x1 SWAP1 SLOAD SWAP1 PUSH2 0x100 EXP SWAP1 DIV PUSH1 0x60 SHL SWAP1 POP PUSH1 0x0 PUSH1 0x1 PUSH1 0x0 DUP11 DUP2 MSTORE PUSH1 0x20 ADD SWAP1 DUP2 MSTORE PUSH1 0x20 ADD PUSH1 0x0 KECCAK256 PUSH1 0x1 ADD DUP1 SLOAD PUSH2 0x1F8F SWAP1 PUSH2 0x2A37 JUMP JUMPDEST DUP1 PUSH1 0x1F ADD PUSH1 0x20 DUP1 SWAP2 DIV MUL PUSH1 0x20 ADD PUSH1 0x40 MLOAD SWAP1 DUP2 ADD PUSH1 0x40 MSTORE DUP1 SWAP3 SWAP2 SWAP1 DUP2 DUP2 MSTORE PUSH1 0x20 ADD DUP3 DUP1 SLOAD PUSH2 0x1FBB SWAP1 PUSH2 0x2A37 JUMP JUMPDEST DUP1 ISZERO PUSH2 0x2008 JUMPI DUP1 PUSH1 0x1F LT PUSH2 0x1FDD JUMPI PUSH2 0x100 DUP1 DUP4 SLOAD DIV MUL DUP4 MSTORE SWAP2 PUSH1 0x20 ADD SWAP2 PUSH2 0x2008 JUMP JUMPDEST DUP3 ADD SWAP2 SWAP1 PUSH1 0x0 MSTORE PUSH1 0x20 PUSH1 0x0 KECCAK256 SWAP1 JUMPDEST DUP2 SLOAD DUP2 MSTORE SWAP1 PUSH1 0x1 ADD SWAP1 PUSH1 0x20 ADD DUP1 DUP4 GT PUSH2 0x1FEB JUMPI DUP3 SWAP1 SUB PUSH1 0x1F AND DUP3 ADD SWAP2 JUMPDEST POP POP POP POP POP SWAP1 POP DUP4 DUP4 DUP4 DUP4 SWAP8 POP SWAP8 POP SWAP8 POP SWAP8 POP POP POP POP POP SWAP2 SWAP4 POP SWAP2 SWAP4 JUMP JUMPDEST PUSH2 0x202E PUSH2 0x2168 JUMP JUMPDEST PUSH20 0xFFFFFFFFFFFFFFFFFFFFFFFFFFFFFFFFFFFFFFFF AND PUSH2 0x204C PUSH2 0xA3A JUMP JUMPDEST PUSH20 0xFFFFFFFFFFFFFFFFFFFFFFFFFFFFFFFFFFFFFFFF AND EQ PUSH2 0x20A2 JUMPI PUSH1 0x40 MLOAD PUSH32 0x8C379A000000000000000000000000000000000000000000000000000000000 DUP2 MSTORE PUSH1 0x4 ADD PUSH2 0x2099 SWAP1 PUSH2 0x342C JUMP JUMPDEST PUSH1 0x40 MLOAD DUP1 SWAP2 SUB SWAP1 REVERT JUMPDEST JUMP JUMPDEST PUSH1 0x0 DUP1 PUSH1 0x0 SWAP1 SLOAD SWAP1 PUSH2 0x100 EXP SWAP1 DIV PUSH20 0xFFFFFFFFFFFFFFFFFFFFFFFFFFFFFFFFFFFFFFFF AND SWAP1 POP DUP2 PUSH1 0x0 DUP1 PUSH2 0x100 EXP DUP2 SLOAD DUP2 PUSH20 0xFFFFFFFFFFFFFFFFFFFFFFFFFFFFFFFFFFFFFFFF MUL NOT AND SWAP1 DUP4 PUSH20 0xFFFFFFFFFFFFFFFFFFFFFFFFFFFFFFFFFFFFFFFF AND MUL OR SWAP1 SSTORE POP DUP2 PUSH20 0xFFFFFFFFFFFFFFFFFFFFFFFFFFFFFFFFFFFFFFFF AND DUP2 PUSH20 0xFFFFFFFFFFFFFFFFFFFFFFFFFFFFFFFFFFFFFFFF AND PUSH32 0x8BE0079C531659141344CD1FD0A4F28419497F9722A3DAAFE3B4186F6B6457E0 PUSH1 0x40 MLOAD PUSH1 0x40 MLOAD DUP1 SWAP2 SUB SWAP1 LOG3 POP POP JUMP JUMPDEST PUSH1 0x0 CALLER SWAP1 POP SWAP1 JUMP JUMPDEST POP DUP1 SLOAD PUSH2 0x217C SWAP1 PUSH2 0x2A37 JUMP JUMPDEST PUSH1 0x0 DUP3 SSTORE DUP1 PUSH1 0x1F LT PUSH2 0x218E JUMPI POP PUSH2 0x21AD JUMP JUMPDEST PUSH1 0x1F ADD PUSH1 0x20 SWAP1 DIV SWAP1 PUSH1 0x0 MSTORE PUSH1 0x20 PUSH1 0x0 KECCAK256 SWAP1 DUP2 ADD SWAP1 PUSH2 0x21AC SWAP2 SWAP1 PUSH2 0x21BA JUMP JUMPDEST JUMPDEST POP JUMP JUMPDEST PUSH2 0x21B8 PUSH2 0x344C JUMP JUMPDEST JUMP JUMPDEST JUMPDEST DUP1 DUP3 GT ISZERO PUSH2 0x21D3 JUMPI PUSH1 0x0 DUP2 PUSH1 0x0 SWAP1 SSTORE POP PUSH1 0x1 ADD PUSH2 0x21BB JUMP JUMPDEST POP SWAP1 JUMP JUMPDEST PUSH1 0x0 DUP1 REVERT JUMPDEST PUSH1 0x0 DUP1 REVERT JUMPDEST PUSH1 0x0 DUP2 SWAP1 POP SWAP2 SWAP1 POP JUMP JUMPDEST PUSH2 0x21F4 DUP2 PUSH2 0x21E1 JUMP JUMPDEST DUP2 EQ PUSH2 0x21FF JUMPI PUSH1 0x0 DUP1 REVERT JUMPDEST POP JUMP JUMPDEST PUSH1 0x0 DUP2 CALLDATALOAD SWAP1 POP PUSH2 0x2211 DUP2 PUSH2 0x21EB JUMP JUMPDEST SWAP3 SWAP2 POP POP JUMP JUMPDEST PUSH1 0x0 DUP2 ISZERO ISZERO SWAP1 POP SWAP2 SWAP1 POP JUMP JUMPDEST PUSH2 0x222C DUP2 PUSH2 0x2217 JUMP JUMPDEST DUP2 EQ PUSH2 0x2237 JUMPI PUSH1 0x0 DUP1 REVERT JUMPDEST POP JUMP JUMPDEST PUSH1 0x0 DUP2 CALLDATALOAD SWAP1 POP PUSH2 0x2249 DUP2 PUSH2 0x2223 JUMP JUMPDEST SWAP3 SWAP2 POP POP JUMP JUMPDEST PUSH1 0x0 DUP1 PUSH1 0x40 DUP4 DUP6 SUB SLT ISZERO PUSH2 0x2266 JUMPI PUSH2 0x2265 PUSH2 0x21D7 JUMP JUMPDEST JUMPDEST PUSH1 0x0 PUSH2 0x2274 DUP6 DUP3 DUP7 ADD PUSH2 0x2202 JUMP JUMPDEST SWAP3 POP POP PUSH1 0x20 PUSH2 0x2285 DUP6 DUP3 DUP7 ADD PUSH2 0x223A JUMP JUMPDEST SWAP2 POP POP SWAP3 POP SWAP3 SWAP1 POP JUMP JUMPDEST PUSH1 0x0 PUSH1 0x20 DUP3 DUP5 SUB SLT ISZERO PUSH2 0x22A5 JUMPI PUSH2 0x22A4 PUSH2 0x21D7 JUMP JUMPDEST JUMPDEST PUSH1 0x0 PUSH2 0x22B3 DUP5 DUP3 DUP6 ADD PUSH2 0x2202 JUMP JUMPDEST SWAP2 POP POP SWAP3 SWAP2 POP POP JUMP JUMPDEST PUSH1 0x0 DUP2 MLOAD SWAP1 POP SWAP2 SWAP1 POP JUMP JUMPDEST PUSH1 0x0 DUP3 DUP3 MSTORE PUSH1 0x20 DUP3 ADD SWAP1 POP SWAP3 SWAP2 POP POP JUMP JUMPDEST PUSH1 0x0 JUMPDEST DUP4 DUP2 LT ISZERO PUSH2 0x22F6 JUMPI DUP1 DUP3 ADD MLOAD DUP2 DUP5 ADD MSTORE PUSH1 0x20 DUP2 ADD SWAP1 POP PUSH2 0x22DB JUMP JUMPDEST PUSH1 0x0 DUP5 DUP5 ADD MSTORE POP POP POP POP JUMP JUMPDEST PUSH1 0x0 PUSH1 0x1F NOT PUSH1 0x1F DUP4 ADD AND SWAP1 POP SWAP2 SWAP1 POP JUMP JUMPDEST PUSH1 0x0 PUSH2 0x231E DUP3 PUSH2 0x22BC JUMP JUMPDEST PUSH2 0x2328 DUP2 DUP6 PUSH2 0x22C7 JUMP JUMPDEST SWAP4 POP PUSH2 0x2338 DUP2 DUP6 PUSH1 0x20 DUP7 ADD PUSH2 0x22D8 JUMP JUMPDEST PUSH2 0x2341 DUP2 PUSH2 0x2302 JUMP JUMPDEST DUP5 ADD SWAP2 POP POP SWAP3 SWAP2 POP POP JUMP JUMPDEST PUSH2 0x2355 DUP2 PUSH2 0x2217 JUMP JUMPDEST DUP3 MSTORE POP POP JUMP JUMPDEST PUSH2 0x2364 DUP2 PUSH2 0x21E1 JUMP JUMPDEST DUP3 MSTORE POP POP JUMP JUMPDEST PUSH1 0x0 PUSH1 0x60 DUP3 ADD SWAP1 POP DUP2 DUP2 SUB PUSH1 0x0 DUP4 ADD MSTORE PUSH2 0x2384 DUP2 DUP7 PUSH2 0x2313 JUMP JUMPDEST SWAP1 POP PUSH2 0x2393 PUSH1 0x20 DUP4 ADD DUP6 PUSH2 0x234C JUMP JUMPDEST PUSH2 0x23A0 PUSH1 0x40 DUP4 ADD DUP5 PUSH2 0x235B JUMP JUMPDEST SWAP5 SWAP4 POP POP POP POP JUMP JUMPDEST PUSH1 0x0 PUSH1 0xFF DUP3 AND SWAP1 POP SWAP2 SWAP1 POP JUMP JUMPDEST PUSH2 0x23BE DUP2 PUSH2 0x23A8 JUMP JUMPDEST DUP3 MSTORE POP POP JUMP JUMPDEST PUSH1 0x0 PUSH32 0xFFFFFFFFFFFFFFFFFFFFFFFFFFFFFFFFFFFFFFFF000000000000000000000000 DUP3 AND SWAP1 POP SWAP2 SWAP1 POP JUMP JUMPDEST PUSH2 0x23F9 DUP2 PUSH2 0x23C4 JUMP JUMPDEST DUP3 MSTORE POP POP JUMP JUMPDEST PUSH1 0x0 PUSH20 0xFFFFFFFFFFFFFFFFFFFFFFFFFFFFFFFFFFFFFFFF DUP3 AND SWAP1 POP SWAP2 SWAP1 POP JUMP JUMPDEST PUSH1 0x0 PUSH2 0x242A DUP3 PUSH2 0x23FF JUMP JUMPDEST SWAP1 POP SWAP2 SWAP1 POP JUMP JUMPDEST PUSH2 0x243A DUP2 PUSH2 0x241F JUMP JUMPDEST DUP3 MSTORE POP POP JUMP JUMPDEST PUSH32 0x4E487B7100000000000000000000000000000000000000000000000000000000 PUSH1 0x0 MSTORE PUSH1 0x21 PUSH1 0x4 MSTORE PUSH1 0x24 PUSH1 0x0 REVERT JUMPDEST PUSH1 0x5 DUP2 LT PUSH2 0x2480 JUMPI PUSH2 0x247F PUSH2 0x2440 JUMP JUMPDEST JUMPDEST POP JUMP JUMPDEST PUSH1 0x0 DUP2 SWAP1 POP PUSH2 0x2491 DUP3 PUSH2 0x246F JUMP JUMPDEST SWAP2 SWAP1 POP JUMP JUMPDEST PUSH1 0x0 PUSH2 0x24A1 DUP3 PUSH2 0x2483 JUMP JUMPDEST SWAP1 POP SWAP2 SWAP1 POP JUMP JUMPDEST PUSH2 0x24B1 DUP2 PUSH2 0x2496 JUMP JUMPDEST DUP3 MSTORE POP POP JUMP JUMPDEST PUSH1 0x0 PUSH1 0xC0 DUP3 ADD SWAP1 POP PUSH2 0x24CC PUSH1 0x0 DUP4 ADD DUP10 PUSH2 0x23B5 JUMP JUMPDEST PUSH2 0x24D9 PUSH1 0x20 DUP4 ADD DUP9 PUSH2 0x23F0 JUMP JUMPDEST DUP2 DUP2 SUB PUSH1 0x40 DUP4 ADD MSTORE PUSH2 0x24EB DUP2 DUP8 PUSH2 0x2313 JUMP JUMPDEST SWAP1 POP PUSH2 0x24FA PUSH1 0x60 DUP4 ADD DUP7 PUSH2 0x2431 JUMP JUMPDEST PUSH2 0x2507 PUSH1 0x80 DUP4 ADD DUP6 PUSH2 0x235B JUMP JUMPDEST PUSH2 0x2514 PUSH1 0xA0 DUP4 ADD DUP5 PUSH2 0x24A8 JUMP JUMPDEST SWAP8 SWAP7 POP POP POP POP POP POP POP JUMP JUMPDEST PUSH1 0x0 DUP1 REVERT JUMPDEST PUSH1 0x0 DUP1 REVERT JUMPDEST PUSH1 0x0 DUP1 REVERT JUMPDEST PUSH1 0x0 DUP1 DUP4 PUSH1 0x1F DUP5 ADD SLT PUSH2 0x2544 JUMPI PUSH2 0x2543 PUSH2 0x251F JUMP JUMPDEST JUMPDEST DUP3 CALLDATALOAD SWAP1 POP PUSH8 0xFFFFFFFFFFFFFFFF DUP2 GT ISZERO PUSH2 0x2561 JUMPI PUSH2 0x2560 PUSH2 0x2524 JUMP JUMPDEST JUMPDEST PUSH1 0x20 DUP4 ADD SWAP2 POP DUP4 PUSH1 0x1 DUP3 MUL DUP4 ADD GT ISZERO PUSH2 0x257D JUMPI PUSH2 0x257C PUSH2 0x2529 JUMP JUMPDEST JUMPDEST SWAP3 POP SWAP3 SWAP1 POP JUMP JUMPDEST PUSH1 0x0 DUP1 PUSH1 0x0 PUSH1 0x40 DUP5 DUP7 SUB SLT ISZERO PUSH2 0x259D JUMPI PUSH2 0x259C PUSH2 0x21D7 JUMP JUMPDEST JUMPDEST PUSH1 0x0 DUP5 ADD CALLDATALOAD PUSH8 0xFFFFFFFFFFFFFFFF DUP2 GT ISZERO PUSH2 0x25BB JUMPI PUSH2 0x25BA PUSH2 0x21DC JUMP JUMPDEST JUMPDEST PUSH2 0x25C7 DUP7 DUP3 DUP8 ADD PUSH2 0x252E JUMP JUMPDEST SWAP4 POP SWAP4 POP POP PUSH1 0x20 PUSH2 0x25DA DUP7 DUP3 DUP8 ADD PUSH2 0x223A JUMP JUMPDEST SWAP2 POP POP SWAP3 POP SWAP3 POP SWAP3 JUMP JUMPDEST PUSH2 0x25ED DUP2 PUSH2 0x241F JUMP JUMPDEST DUP2 EQ PUSH2 0x25F8 JUMPI PUSH1 0x0 DUP1 REVERT JUMPDEST POP JUMP JUMPDEST PUSH1 0x0 DUP2 CALLDATALOAD SWAP1 POP PUSH2 0x260A DUP2 PUSH2 0x25E4 JUMP JUMPDEST SWAP3 SWAP2 POP POP JUMP JUMPDEST PUSH1 0x0 PUSH1 0x20 DUP3 DUP5 SUB SLT ISZERO PUSH2 0x2626 JUMPI PUSH2 0x2625 PUSH2 0x21D7 JUMP JUMPDEST JUMPDEST PUSH1 0x0 PUSH2 0x2634 DUP5 DUP3 DUP6 ADD PUSH2 0x25FB JUMP JUMPDEST SWAP2 POP POP SWAP3 SWAP2 POP POP JUMP JUMPDEST PUSH1 0x0 PUSH1 0x20 DUP3 ADD SWAP1 POP PUSH2 0x2652 PUSH1 0x0 DUP4 ADD DUP5 PUSH2 0x235B JUMP JUMPDEST SWAP3 SWAP2 POP POP JUMP JUMPDEST PUSH1 0x0 PUSH1 0x20 DUP3 ADD SWAP1 POP PUSH2 0x266D PUSH1 0x0 DUP4 ADD DUP5 PUSH2 0x2431 JUMP JUMPDEST SWAP3 SWAP2 POP POP JUMP JUMPDEST PUSH2 0x267C DUP2 PUSH2 0x23A8 JUMP JUMPDEST DUP2 EQ PUSH2 0x2687 JUMPI PUSH1 0x0 DUP1 REVERT JUMPDEST POP JUMP JUMPDEST PUSH1 0x0 DUP2 CALLDATALOAD SWAP1 POP PUSH2 0x2699 DUP2 PUSH2 0x2673 JUMP JUMPDEST SWAP3 SWAP2 POP POP JUMP JUMPDEST PUSH1 0x0 PUSH1 0x20 DUP3 DUP5 SUB SLT ISZERO PUSH2 0x26B5 JUMPI PUSH2 0x26B4 PUSH2 0x21D7 JUMP JUMPDEST JUMPDEST PUSH1 0x0 PUSH2 0x26C3 DUP5 DUP3 DUP6 ADD PUSH2 0x268A JUMP JUMPDEST SWAP2 POP POP SWAP3 SWAP2 POP POP JUMP JUMPDEST PUSH2 0x26D5 DUP2 PUSH2 0x23C4 JUMP JUMPDEST DUP2 EQ PUSH2 0x26E0 JUMPI PUSH1 0x0 DUP1 REVERT JUMPDEST POP JUMP JUMPDEST PUSH1 0x0 DUP2 CALLDATALOAD SWAP1 POP PUSH2 0x26F2 DUP2 PUSH2 0x26CC JUMP JUMPDEST SWAP3 SWAP2 POP POP JUMP JUMPDEST PUSH1 0x0 DUP1 PUSH1 0x0 DUP1 PUSH1 0x60 DUP6 DUP8 SUB SLT ISZERO PUSH2 0x2712 JUMPI PUSH2 0x2711 PUSH2 0x21D7 JUMP JUMPDEST JUMPDEST PUSH1 0x0 PUSH2 0x2720 DUP8 DUP3 DUP9 ADD PUSH2 0x2202 JUMP JUMPDEST SWAP5 POP POP PUSH1 0x20 PUSH2 0x2731 DUP8 DUP3 DUP9 ADD PUSH2 0x26E3 JUMP JUMPDEST SWAP4 POP POP PUSH1 0x40 DUP6 ADD CALLDATALOAD PUSH8 0xFFFFFFFFFFFFFFFF DUP2 GT ISZERO PUSH2 0x2752 JUMPI PUSH2 0x2751 PUSH2 0x21DC JUMP JUMPDEST JUMPDEST PUSH2 0x275E DUP8 DUP3 DUP9 ADD PUSH2 0x252E JUMP JUMPDEST SWAP3 POP SWAP3 POP POP SWAP3 SWAP6 SWAP2 SWAP5 POP SWAP3 POP JUMP JUMPDEST PUSH1 0x0 PUSH1 0x40 DUP3 ADD SWAP1 POP PUSH2 0x2781 PUSH1 0x0 DUP4 ADD DUP6 PUSH2 0x235B JUMP JUMPDEST DUP2 DUP2 SUB PUSH1 0x20 DUP4 ADD MSTORE PUSH2 0x2793 DUP2 DUP5 PUSH2 0x2313 JUMP JUMPDEST SWAP1 POP SWAP4 SWAP3 POP POP POP JUMP JUMPDEST PUSH1 0x0 DUP1 PUSH1 0x40 DUP4 DUP6 SUB SLT ISZERO PUSH2 0x27B3 JUMPI PUSH2 0x27B2 PUSH2 0x21D7 JUMP JUMPDEST JUMPDEST PUSH1 0x0 PUSH2 0x27C1 DUP6 DUP3 DUP7 ADD PUSH2 0x268A JUMP JUMPDEST SWAP3 POP POP PUSH1 0x20 PUSH2 0x27D2 DUP6 DUP3 DUP7 ADD PUSH2 0x223A JUMP JUMPDEST SWAP2 POP POP SWAP3 POP SWAP3 SWAP1 POP JUMP JUMPDEST PUSH32 0x4F7261636C65206E6F7420696E697469616C697A656400000000000000000000 PUSH1 0x0 DUP3 ADD MSTORE POP JUMP JUMPDEST PUSH1 0x0 PUSH2 0x2812 PUSH1 0x16 DUP4 PUSH2 0x22C7 JUMP JUMPDEST SWAP2 POP PUSH2 0x281D DUP3 PUSH2 0x27DC JUMP JUMPDEST PUSH1 0x20 DUP3 ADD SWAP1 POP SWAP2 SWAP1 POP JUMP JUMPDEST PUSH1 0x0 PUSH1 0x20 DUP3 ADD SWAP1 POP DUP2 DUP2 SUB PUSH1 0x0 DUP4 ADD MSTORE PUSH2 0x2841 DUP2 PUSH2 0x2805 JUMP JUMPDEST SWAP1 POP SWAP2 SWAP1 POP JUMP JUMPDEST PUSH32 0x43616C6C6572206973206E6F74206F7261636C65000000000000000000000000 PUSH1 0x0 DUP3 ADD MSTORE POP JUMP JUMPDEST PUSH1 0x0 PUSH2 0x287E PUSH1 0x14 DUP4 PUSH2 0x22C7 JUMP JUMPDEST SWAP2 POP PUSH2 0x2889 DUP3 PUSH2 0x2848 JUMP JUMPDEST PUSH1 0x20 DUP3 ADD SWAP1 POP SWAP2 SWAP1 POP JUMP JUMPDEST PUSH1 0x0 PUSH1 0x20 DUP3 ADD SWAP1 POP DUP2 DUP2 SUB PUSH1 0x0 DUP4 ADD MSTORE PUSH2 0x28AD DUP2 PUSH2 0x2871 JUMP JUMPDEST SWAP1 POP SWAP2 SWAP1 POP JUMP JUMPDEST PUSH32 0x4465706C6F79207374617465206572726F720000000000000000000000000000 PUSH1 0x0 DUP3 ADD MSTORE POP JUMP JUMPDEST PUSH1 0x0 PUSH2 0x28EA PUSH1 0x12 DUP4 PUSH2 0x22C7 JUMP JUMPDEST SWAP2 POP PUSH2 0x28F5 DUP3 PUSH2 0x28B4 JUMP JUMPDEST PUSH1 0x20 DUP3 ADD SWAP1 POP SWAP2 SWAP1 POP JUMP JUMPDEST PUSH1 0x0 PUSH1 0x20 DUP3 ADD SWAP1 POP DUP2 DUP2 SUB PUSH1 0x0 DUP4 ADD MSTORE PUSH2 0x2919 DUP2 PUSH2 0x28DD JUMP JUMPDEST SWAP1 POP SWAP2 SWAP1 POP JUMP JUMPDEST PUSH1 0x0 PUSH1 0xA0 DUP3 ADD SWAP1 POP PUSH2 0x2935 PUSH1 0x0 DUP4 ADD DUP9 PUSH2 0x235B JUMP JUMPDEST PUSH2 0x2942 PUSH1 0x20 DUP4 ADD DUP8 PUSH2 0x23B5 JUMP JUMPDEST DUP2 DUP2 SUB PUSH1 0x40 DUP4 ADD MSTORE PUSH2 0x2954 DUP2 DUP7 PUSH2 0x2313 JUMP JUMPDEST SWAP1 POP PUSH2 0x2963 PUSH1 0x60 DUP4 ADD DUP6 PUSH2 0x23F0 JUMP JUMPDEST DUP2 DUP2 SUB PUSH1 0x80 DUP4 ADD MSTORE PUSH2 0x2975 DUP2 DUP5 PUSH2 0x2313 JUMP JUMPDEST SWAP1 POP SWAP7 SWAP6 POP POP POP POP POP POP JUMP JUMPDEST PUSH32 0x4E487B7100000000000000000000000000000000000000000000000000000000 PUSH1 0x0 MSTORE PUSH1 0x32 PUSH1 0x4 MSTORE PUSH1 0x24 PUSH1 0x0 REVERT JUMPDEST PUSH32 0x4E487B7100000000000000000000000000000000000000000000000000000000 PUSH1 0x0 MSTORE PUSH1 0x11 PUSH1 0x4 MSTORE PUSH1 0x24 PUSH1 0x0 REVERT JUMPDEST PUSH1 0x0 PUSH2 0x29EA DUP3 PUSH2 0x21E1 JUMP JUMPDEST SWAP2 POP PUSH1 0x0 DUP3 SUB PUSH2 0x29FD JUMPI PUSH2 0x29FC PUSH2 0x29B0 JUMP JUMPDEST JUMPDEST PUSH1 0x1 DUP3 SUB SWAP1 POP SWAP2 SWAP1 POP JUMP JUMPDEST PUSH32 0x4E487B7100000000000000000000000000000000000000000000000000000000 PUSH1 0x0 MSTORE PUSH1 0x22 PUSH1 0x4 MSTORE PUSH1 0x24 PUSH1 0x0 REVERT JUMPDEST PUSH1 0x0 PUSH1 0x2 DUP3 DIV SWAP1 POP PUSH1 0x1 DUP3 AND DUP1 PUSH2 0x2A4F JUMPI PUSH1 0x7F DUP3 AND SWAP2 POP JUMPDEST PUSH1 0x20 DUP3 LT DUP2 SUB PUSH2 0x2A62 JUMPI PUSH2 0x2A61 PUSH2 0x2A08 JUMP JUMPDEST JUMPDEST POP SWAP2 SWAP1 POP JUMP JUMPDEST PUSH32 0x4E6F206D6F72652073686172642063616E206265206164646564000000000000 PUSH1 0x0 DUP3 ADD MSTORE POP JUMP JUMPDEST PUSH1 0x0 PUSH2 0x2A9E PUSH1 0x1A DUP4 PUSH2 0x22C7 JUMP JUMPDEST SWAP2 POP PUSH2 0x2AA9 DUP3 PUSH2 0x2A68 JUMP JUMPDEST PUSH1 0x20 DUP3 ADD SWAP1 POP SWAP2 SWAP1 POP JUMP JUMPDEST PUSH1 0x0 PUSH1 0x20 DUP3 ADD SWAP1 POP DUP2 DUP2 SUB PUSH1 0x0 DUP4 ADD MSTORE PUSH2 0x2ACD DUP2 PUSH2 0x2A91 JUMP JUMPDEST SWAP1 POP SWAP2 SWAP1 POP JUMP JUMPDEST PUSH32 0x4E487B7100000000000000000000000000000000000000000000000000000000 PUSH1 0x0 MSTORE PUSH1 0x41 PUSH1 0x4 MSTORE PUSH1 0x24 PUSH1 0x0 REVERT JUMPDEST PUSH1 0x0 DUP2 SWAP1 POP DUP2 PUSH1 0x0 MSTORE PUSH1 0x20 PUSH1 0x0 KECCAK256 SWAP1 POP SWAP2 SWAP1 POP JUMP JUMPDEST PUSH1 0x0 PUSH1 0x20 PUSH1 0x1F DUP4 ADD DIV SWAP1 POP SWAP2 SWAP1 POP JUMP JUMPDEST PUSH1 0x0 DUP3 DUP3 SHL SWAP1 POP SWAP3 SWAP2 POP POP JUMP JUMPDEST PUSH1 0x0 PUSH1 0x8 DUP4 MUL PUSH2 0x2B65 PUSH32 0xFFFFFFFFFFFFFFFFFFFFFFFFFFFFFFFFFFFFFFFFFFFFFFFFFFFFFFFFFFFFFFFF DUP3 PUSH2 0x2B28 JUMP JUMPDEST PUSH2 0x2B6F DUP7 DUP4 PUSH2 0x2B28 JUMP JUMPDEST SWAP6 POP DUP1 NOT DUP5 AND SWAP4 POP DUP1 DUP7 AND DUP5 OR SWAP3 POP POP POP SWAP4 SWAP3 POP POP POP JUMP JUMPDEST PUSH1 0x0 DUP2 SWAP1 POP SWAP2 SWAP1 POP JUMP JUMPDEST PUSH1 0x0 PUSH2 0x2BAC PUSH2 0x2BA7 PUSH2 0x2BA2 DUP5 PUSH2 0x21E1 JUMP JUMPDEST PUSH2 0x2B87 JUMP JUMPDEST PUSH2 0x21E1 JUMP JUMPDEST SWAP1 POP SWAP2 SWAP1 POP JUMP JUMPDEST PUSH1 0x0 DUP2 SWAP1 POP SWAP2 SWAP1 POP JUMP JUMPDEST PUSH2 0x2BC6 DUP4 PUSH2 0x2B91 JUMP JUMPDEST PUSH2 0x2BDA PUSH2 0x2BD2 DUP3 PUSH2 0x2BB3 JUMP JUMPDEST DUP5 DUP5 SLOAD PUSH2 0x2B35 JUMP JUMPDEST DUP3 SSTORE POP POP POP POP JUMP JUMPDEST PUSH1 0x0 SWAP1 JUMP JUMPDEST PUSH2 0x2BEF PUSH2 0x2BE2 JUMP JUMPDEST PUSH2 0x2BFA DUP2 DUP5 DUP5 PUSH2 0x2BBD JUMP JUMPDEST POP POP POP JUMP JUMPDEST JUMPDEST DUP2 DUP2 LT ISZERO PUSH2 0x2C1E JUMPI PUSH2 0x2C13 PUSH1 0x0 DUP3 PUSH2 0x2BE7 JUMP JUMPDEST PUSH1 0x1 DUP2 ADD SWAP1 POP PUSH2 0x2C00 JUMP JUMPDEST POP POP JUMP JUMPDEST PUSH1 0x1F DUP3 GT ISZERO PUSH2 0x2C63 JUMPI PUSH2 0x2C34 DUP2 PUSH2 0x2B03 JUMP JUMPDEST PUSH2 0x2C3D DUP5 PUSH2 0x2B18 JUMP JUMPDEST DUP2 ADD PUSH1 0x20 DUP6 LT ISZERO PUSH2 0x2C4C JUMPI DUP2 SWAP1 POP JUMPDEST PUSH2 0x2C60 PUSH2 0x2C58 DUP6 PUSH2 0x2B18 JUMP JUMPDEST DUP4 ADD DUP3 PUSH2 0x2BFF JUMP JUMPDEST POP POP JUMPDEST POP POP POP JUMP JUMPDEST PUSH1 0x0 DUP3 DUP3 SHR SWAP1 POP SWAP3 SWAP2 POP POP JUMP JUMPDEST PUSH1 0x0 PUSH2 0x2C86 PUSH1 0x0 NOT DUP5 PUSH1 0x8 MUL PUSH2 0x2C68 JUMP JUMPDEST NOT DUP1 DUP4 AND SWAP2 POP POP SWAP3 SWAP2 POP POP JUMP JUMPDEST PUSH1 0x0 PUSH2 0x2C9F DUP4 DUP4 PUSH2 0x2C75 JUMP JUMPDEST SWAP2 POP DUP3 PUSH1 0x2 MUL DUP3 OR SWAP1 POP SWAP3 SWAP2 POP POP JUMP JUMPDEST PUSH2 0x2CB8 DUP3 PUSH2 0x22BC JUMP JUMPDEST PUSH8 0xFFFFFFFFFFFFFFFF DUP2 GT ISZERO PUSH2 0x2CD1 JUMPI PUSH2 0x2CD0 PUSH2 0x2AD4 JUMP JUMPDEST JUMPDEST PUSH2 0x2CDB DUP3 SLOAD PUSH2 0x2A37 JUMP JUMPDEST PUSH2 0x2CE6 DUP3 DUP3 DUP6 PUSH2 0x2C22 JUMP JUMPDEST PUSH1 0x0 PUSH1 0x20 SWAP1 POP PUSH1 0x1F DUP4 GT PUSH1 0x1 DUP2 EQ PUSH2 0x2D19 JUMPI PUSH1 0x0 DUP5 ISZERO PUSH2 0x2D07 JUMPI DUP3 DUP8 ADD MLOAD SWAP1 POP JUMPDEST PUSH2 0x2D11 DUP6 DUP3 PUSH2 0x2C93 JUMP JUMPDEST DUP7 SSTORE POP PUSH2 0x2D79 JUMP JUMPDEST PUSH1 0x1F NOT DUP5 AND PUSH2 0x2D27 DUP7 PUSH2 0x2B03 JUMP JUMPDEST PUSH1 0x0 JUMPDEST DUP3 DUP2 LT ISZERO PUSH2 0x2D4F JUMPI DUP5 DUP10 ADD MLOAD DUP3 SSTORE PUSH1 0x1 DUP3 ADD SWAP2 POP PUSH1 0x20 DUP6 ADD SWAP5 POP PUSH1 0x20 DUP2 ADD SWAP1 POP PUSH2 0x2D2A JUMP JUMPDEST DUP7 DUP4 LT ISZERO PUSH2 0x2D6C JUMPI DUP5 DUP10 ADD MLOAD PUSH2 0x2D68 PUSH1 0x1F DUP10 AND DUP3 PUSH2 0x2C75 JUMP JUMPDEST DUP4 SSTORE POP JUMPDEST PUSH1 0x1 PUSH1 0x2 DUP9 MUL ADD DUP9 SSTORE POP POP POP JUMPDEST POP POP POP POP POP POP JUMP JUMPDEST PUSH1 0x0 PUSH2 0x2D8C DUP3 PUSH2 0x21E1 JUMP JUMPDEST SWAP2 POP PUSH2 0x2D97 DUP4 PUSH2 0x21E1 JUMP JUMPDEST SWAP3 POP DUP3 DUP3 SUB SWAP1 POP DUP2 DUP2 GT ISZERO PUSH2 0x2DAF JUMPI PUSH2 0x2DAE PUSH2 0x29B0 JUMP JUMPDEST JUMPDEST SWAP3 SWAP2 POP POP JUMP JUMPDEST DUP3 DUP2 DUP4 CALLDATACOPY PUSH1 0x0 DUP4 DUP4 ADD MSTORE POP POP POP JUMP JUMPDEST PUSH1 0x0 PUSH2 0x2DD0 DUP4 DUP6 PUSH2 0x22C7 JUMP JUMPDEST SWAP4 POP PUSH2 0x2DDD DUP4 DUP6 DUP5 PUSH2 0x2DB5 JUMP JUMPDEST PUSH2 0x2DE6 DUP4 PUSH2 0x2302 JUMP JUMPDEST DUP5 ADD SWAP1 POP SWAP4 SWAP3 POP POP POP JUMP JUMPDEST PUSH1 0x0 PUSH1 0x40 DUP3 ADD SWAP1 POP PUSH2 0x2E06 PUSH1 0x0 DUP4 ADD DUP7 PUSH2 0x23B5 JUMP JUMPDEST DUP2 DUP2 SUB PUSH1 0x20 DUP4 ADD MSTORE PUSH2 0x2E19 DUP2 DUP5 DUP7 PUSH2 0x2DC4 JUMP JUMPDEST SWAP1 POP SWAP5 SWAP4 POP POP POP POP JUMP JUMPDEST PUSH32 0x43616C6C6572206973206E6F74206465706C6F79207265736572766572000000 PUSH1 0x0 DUP3 ADD MSTORE POP JUMP JUMPDEST PUSH1 0x0 PUSH2 0x2E59 PUSH1 0x1D DUP4 PUSH2 0x22C7 JUMP JUMPDEST SWAP2 POP PUSH2 0x2E64 DUP3 PUSH2 0x2E23 JUMP JUMPDEST PUSH1 0x20 DUP3 ADD SWAP1 POP SWAP2 SWAP1 POP JUMP JUMPDEST PUSH1 0x0 PUSH1 0x20 DUP3 ADD SWAP1 POP DUP2 DUP2 SUB PUSH1 0x0 DUP4 ADD MSTORE PUSH2 0x2E88 DUP2 PUSH2 0x2E4C JUMP JUMPDEST SWAP1 POP SWAP2 SWAP1 POP JUMP JUMPDEST PUSH1 0x0 PUSH1 0x60 DUP3 ADD SWAP1 POP PUSH2 0x2EA4 PUSH1 0x0 DUP4 ADD DUP7 PUSH2 0x235B JUMP JUMPDEST DUP2 DUP2 SUB PUSH1 0x20 DUP4 ADD MSTORE PUSH2 0x2EB6 DUP2 DUP6 PUSH2 0x2313 JUMP JUMPDEST SWAP1 POP PUSH2 0x2EC5 PUSH1 0x40 DUP4 ADD DUP5 PUSH2 0x23F0 JUMP JUMPDEST SWAP5 SWAP4 POP POP POP POP JUMP JUMPDEST PUSH32 0x416C676F726974686D20646F6573206E6F742065786973740000000000000000 PUSH1 0x0 DUP3 ADD MSTORE POP JUMP JUMPDEST PUSH1 0x0 PUSH2 0x2F03 PUSH1 0x18 DUP4 PUSH2 0x22C7 JUMP JUMPDEST SWAP2 POP PUSH2 0x2F0E DUP3 PUSH2 0x2ECD JUMP JUMPDEST PUSH1 0x20 DUP3 ADD SWAP1 POP SWAP2 SWAP1 POP JUMP JUMPDEST PUSH1 0x0 PUSH1 0x20 DUP3 ADD SWAP1 POP DUP2 DUP2 SUB PUSH1 0x0 DUP4 ADD MSTORE PUSH2 0x2F32 DUP2 PUSH2 0x2EF6 JUMP JUMPDEST SWAP1 POP SWAP2 SWAP1 POP JUMP JUMPDEST PUSH1 0x0 PUSH1 0x20 DUP3 ADD SWAP1 POP PUSH2 0x2F4E PUSH1 0x0 DUP4 ADD DUP5 PUSH2 0x23B5 JUMP JUMPDEST SWAP3 SWAP2 POP POP JUMP JUMPDEST PUSH1 0x0 PUSH2 0x2F5F DUP3 PUSH2 0x21E1 JUMP JUMPDEST SWAP2 POP PUSH32 0xFFFFFFFFFFFFFFFFFFFFFFFFFFFFFFFFFFFFFFFFFFFFFFFFFFFFFFFFFFFFFFFF DUP3 SUB PUSH2 0x2F91 JUMPI PUSH2 0x2F90 PUSH2 0x29B0 JUMP JUMPDEST JUMPDEST PUSH1 0x1 DUP3 ADD SWAP1 POP SWAP2 SWAP1 POP JUMP JUMPDEST PUSH1 0x0 DUP3 SWAP1 POP SWAP3 SWAP2 POP POP JUMP JUMPDEST PUSH2 0x2FB1 DUP4 DUP4 PUSH2 0x2F9C JUMP JUMPDEST PUSH8 0xFFFFFFFFFFFFFFFF DUP2 GT ISZERO PUSH2 0x2FCA JUMPI PUSH2 0x2FC9 PUSH2 0x2AD4 JUMP JUMPDEST JUMPDEST PUSH2 0x2FD4 DUP3 SLOAD PUSH2 0x2A37 JUMP JUMPDEST PUSH2 0x2FDF DUP3 DUP3 DUP6 PUSH2 0x2C22 JUMP JUMPDEST PUSH1 0x0 PUSH1 0x1F DUP4 GT PUSH1 0x1 DUP2 EQ PUSH2 0x300E JUMPI PUSH1 0x0 DUP5 ISZERO PUSH2 0x2FFC JUMPI DUP3 DUP8 ADD CALLDATALOAD SWAP1 POP JUMPDEST PUSH2 0x3006 DUP6 DUP3 PUSH2 0x2C93 JUMP JUMPDEST DUP7 SSTORE POP PUSH2 0x306E JUMP JUMPDEST PUSH1 0x1F NOT DUP5 AND PUSH2 0x301C DUP7 PUSH2 0x2B03 JUMP JUMPDEST PUSH1 0x0 JUMPDEST DUP3 DUP2 LT ISZERO PUSH2 0x3044 JUMPI DUP5 DUP10 ADD CALLDATALOAD DUP3 SSTORE PUSH1 0x1 DUP3 ADD SWAP2 POP PUSH1 0x20 DUP6 ADD SWAP5 POP PUSH1 0x20 DUP2 ADD SWAP1 POP PUSH2 0x301F JUMP JUMPDEST DUP7 DUP4 LT ISZERO PUSH2 0x3061 JUMPI DUP5 DUP10 ADD CALLDATALOAD PUSH2 0x305D PUSH1 0x1F DUP10 AND DUP3 PUSH2 0x2C75 JUMP JUMPDEST DUP4 SSTORE POP JUMPDEST PUSH1 0x1 PUSH1 0x2 DUP9 MUL ADD DUP9 SSTORE POP POP POP JUMPDEST POP POP POP POP POP POP POP JUMP JUMPDEST PUSH1 0x0 PUSH1 0xA0 DUP3 ADD SWAP1 POP PUSH2 0x308C PUSH1 0x0 DUP4 ADD DUP10 PUSH2 0x235B JUMP JUMPDEST PUSH2 0x3099 PUSH1 0x20 DUP4 ADD DUP9 PUSH2 0x23B5 JUMP JUMPDEST DUP2 DUP2 SUB PUSH1 0x40 DUP4 ADD MSTORE PUSH2 0x30AB DUP2 DUP8 PUSH2 0x2313 JUMP JUMPDEST SWAP1 POP PUSH2 0x30BA PUSH1 0x60 DUP4 ADD DUP7 PUSH2 0x23F0 JUMP JUMPDEST DUP2 DUP2 SUB PUSH1 0x80 DUP4 ADD MSTORE PUSH2 0x30CD DUP2 DUP5 DUP7 PUSH2 0x2DC4 JUMP JUMPDEST SWAP1 POP SWAP8 SWAP7 POP POP POP POP POP POP POP JUMP JUMPDEST PUSH32 0x4E6F207368617264207265676973746572656400000000000000000000000000 PUSH1 0x0 DUP3 ADD MSTORE POP JUMP JUMPDEST PUSH1 0x0 PUSH2 0x3110 PUSH1 0x13 DUP4 PUSH2 0x22C7 JUMP JUMPDEST SWAP2 POP PUSH2 0x311B DUP3 PUSH2 0x30DA JUMP JUMPDEST PUSH1 0x20 DUP3 ADD SWAP1 POP SWAP2 SWAP1 POP JUMP JUMPDEST PUSH1 0x0 PUSH1 0x20 DUP3 ADD SWAP1 POP DUP2 DUP2 SUB PUSH1 0x0 DUP4 ADD MSTORE PUSH2 0x313F DUP2 PUSH2 0x3103 JUMP JUMPDEST SWAP1 POP SWAP2 SWAP1 POP JUMP JUMPDEST PUSH1 0x0 PUSH1 0x60 DUP3 ADD SWAP1 POP PUSH2 0x315B PUSH1 0x0 DUP4 ADD DUP7 PUSH2 0x235B JUMP JUMPDEST PUSH2 0x3168 PUSH1 0x20 DUP4 ADD DUP6 PUSH2 0x23B5 JUMP JUMPDEST DUP2 DUP2 SUB PUSH1 0x40 DUP4 ADD MSTORE PUSH2 0x317A DUP2 DUP5 PUSH2 0x2313 JUMP JUMPDEST SWAP1 POP SWAP5 SWAP4 POP POP POP POP JUMP JUMPDEST PUSH32 0x4E6F20736861726420617661696C61626C6520666F72206465706C6F79000000 PUSH1 0x0 DUP3 ADD MSTORE POP JUMP JUMPDEST PUSH1 0x0 PUSH2 0x31BA PUSH1 0x1D DUP4 PUSH2 0x22C7 JUMP JUMPDEST SWAP2 POP PUSH2 0x31C5 DUP3 PUSH2 0x3184 JUMP JUMPDEST PUSH1 0x20 DUP3 ADD SWAP1 POP SWAP2 SWAP1 POP JUMP JUMPDEST PUSH1 0x0 PUSH1 0x20 DUP3 ADD SWAP1 POP DUP2 DUP2 SUB PUSH1 0x0 DUP4 ADD MSTORE PUSH2 0x31E9 DUP2 PUSH2 0x31AD JUMP JUMPDEST SWAP1 POP SWAP2 SWAP1 POP JUMP JUMPDEST PUSH32 0x4F776E61626C653A206E6577206F776E657220697320746865207A65726F2061 PUSH1 0x0 DUP3 ADD MSTORE PUSH32 0x6464726573730000000000000000000000000000000000000000000000000000 PUSH1 0x20 DUP3 ADD MSTORE POP JUMP JUMPDEST PUSH1 0x0 PUSH2 0x324C PUSH1 0x26 DUP4 PUSH2 0x22C7 JUMP JUMPDEST SWAP2 POP PUSH2 0x3257 DUP3 PUSH2 0x31F0 JUMP JUMPDEST PUSH1 0x40 DUP3 ADD SWAP1 POP SWAP2 SWAP1 POP JUMP JUMPDEST PUSH1 0x0 PUSH1 0x20 DUP3 ADD SWAP1 POP DUP2 DUP2 SUB PUSH1 0x0 DUP4 ADD MSTORE PUSH2 0x327B DUP2 PUSH2 0x323F JUMP JUMPDEST SWAP1 POP SWAP2 SWAP1 POP JUMP JUMPDEST PUSH32 0x536861726420646F6573206E6F74206578697374000000000000000000000000 PUSH1 0x0 DUP3 ADD MSTORE POP JUMP JUMPDEST PUSH1 0x0 PUSH2 0x32B8 PUSH1 0x14 DUP4 PUSH2 0x22C7 JUMP JUMPDEST SWAP2 POP PUSH2 0x32C3 DUP3 PUSH2 0x3282 JUMP JUMPDEST PUSH1 0x20 DUP3 ADD SWAP1 POP SWAP2 SWAP1 POP JUMP JUMPDEST PUSH1 0x0 PUSH1 0x20 DUP3 ADD SWAP1 POP DUP2 DUP2 SUB PUSH1 0x0 DUP4 ADD MSTORE PUSH2 0x32E7 DUP2 PUSH2 0x32AB JUMP JUMPDEST SWAP1 POP SWAP2 SWAP1 POP JUMP JUMPDEST PUSH1 0x0 PUSH2 0x32F9 DUP3 PUSH2 0x21E1 JUMP JUMPDEST SWAP2 POP PUSH2 0x3304 DUP4 PUSH2 0x21E1 JUMP JUMPDEST SWAP3 POP DUP3 DUP3 ADD SWAP1 POP DUP1 DUP3 GT ISZERO PUSH2 0x331C JUMPI PUSH2 0x331B PUSH2 0x29B0 JUMP JUMPDEST JUMPDEST SWAP3 SWAP2 POP POP JUMP JUMPDEST PUSH32 0x4E487B7100000000000000000000000000000000000000000000000000000000 PUSH1 0x0 MSTORE PUSH1 0x12 PUSH1 0x4 MSTORE PUSH1 0x24 PUSH1 0x0 REVERT JUMPDEST PUSH1 0x0 PUSH2 0x335C DUP3 PUSH2 0x21E1 JUMP JUMPDEST SWAP2 POP PUSH2 0x3367 DUP4 PUSH2 0x21E1 JUMP JUMPDEST SWAP3 POP DUP3 PUSH2 0x3377 JUMPI PUSH2 0x3376 PUSH2 0x3322 JUMP JUMPDEST JUMPDEST DUP3 DUP3 MOD SWAP1 POP SWAP3 SWAP2 POP POP JUMP JUMPDEST PUSH1 0x0 PUSH2 0x338D DUP3 PUSH2 0x23A8 JUMP JUMPDEST SWAP2 POP PUSH2 0x3398 DUP4 PUSH2 0x23A8 JUMP JUMPDEST SWAP3 POP DUP3 DUP3 ADD SWAP1 POP PUSH1 0xFF DUP2 GT ISZERO PUSH2 0x33B1 JUMPI PUSH2 0x33B0 PUSH2 0x29B0 JUMP JUMPDEST JUMPDEST SWAP3 SWAP2 POP POP JUMP JUMPDEST PUSH1 0x0 PUSH2 0x33C2 DUP3 PUSH2 0x23A8 JUMP JUMPDEST SWAP2 POP PUSH1 0xFF DUP3 SUB PUSH2 0x33D5 JUMPI PUSH2 0x33D4 PUSH2 0x29B0 JUMP JUMPDEST JUMPDEST PUSH1 0x1 DUP3 ADD SWAP1 POP SWAP2 SWAP1 POP JUMP JUMPDEST PUSH32 0x4F776E61626C653A2063616C6C6572206973206E6F7420746865206F776E6572 PUSH1 0x0 DUP3 ADD MSTORE POP JUMP JUMPDEST PUSH1 0x0 PUSH2 0x3416 PUSH1 0x20 DUP4 PUSH2 0x22C7 JUMP JUMPDEST SWAP2 POP PUSH2 0x3421 DUP3 PUSH2 0x33E0 JUMP JUMPDEST PUSH1 0x20 DUP3 ADD SWAP1 POP SWAP2 SWAP1 POP JUMP JUMPDEST PUSH1 0x0 PUSH1 0x20 DUP3 ADD SWAP1 POP DUP2 DUP2 SUB PUSH1 0x0 DUP4 ADD MSTORE PUSH2 0x3445 DUP2 PUSH2 0x3409 JUMP JUMPDEST SWAP1 POP SWAP2 SWAP1 POP JUMP JUMPDEST PUSH32 0x4E487B7100000000000000000000000000000000000000000000000000000000 PUSH1 0x0 MSTORE PUSH1 0x51 PUSH1 0x4 MSTORE PUSH1 0x24 PUSH1 0x0 REVERT INVALID LOG2 PUSH5 0x6970667358 0x22 SLT KECCAK256 DUP15 MUL 0xEC 0xEB EXTCODESIZE 0x4C PUSH12 0x416A1194699734D73E827336 SELFDESTRUCT 0xAB 0xE1 0x28 SUB SMOD PUSH13 0xD9650573BF0064736F6C634300 ADDMOD GT STOP CALLER "
				},
				"gasEstimates": {
					"creation": {
						"codeDepositCost": "2697800",
						"executionCost": "infinite",
						"totalCost": "infinite"
					},
					"external": {
						"addShard(string,bool)": "infinite",
						"contractId()": "2518",
						"declareDel(uint256)": "infinite",
						"declareDeploy(uint256,bytes20,string)": "infinite",
						"deployMap(uint256)": "infinite",
						"fullfillDelete(uint256,bool)": "infinite",
						"fullfillDeploy(uint256,bool)": "infinite",
						"owner()": "2545",
						"renounceOwnership()": "30443",
						"reserveDeploy()": "infinite",
						"setAlg(uint8)": "infinite",
						"setOracle(address)": "infinite",
						"setShardStatus(uint8,bool)": "31555",
						"shardList(uint256)": "infinite",
						"transferOwnership(address)": "30810"
					},
					"internal": {
						"defaultAlg()": "infinite",
						"minDeployAlg()": "infinite"
					}
				},
				"methodIdentifiers": {
					"addShard(string,bool)": "65a88003",
					"contractId()": "8291286c",
					"declareDel(uint256)": "9552bca7",
					"declareDeploy(uint256,bytes20,string)": "c0981b26",
					"deployMap(uint256)": "613eb17d",
					"fullfillDelete(uint256,bool)": "a07ca635",
					"fullfillDeploy(uint256,bool)": "19b4a0f9",
					"owner()": "8da5cb5b",
					"renounceOwnership()": "715018a6",
					"reserveDeploy()": "ca989659",
					"setAlg(uint8)": "98c20543",
					"setOracle(address)": "7adbf973",
					"setShardStatus(uint8,bool)": "f335f7ac",
					"shardList(uint256)": "608c2db5",
					"transferOwnership(address)": "f2fde38b"
				}
			},
			"storageLayout": {
				"storage": [
					{
						"astId": 7,
						"contract": "contracts/on_chain_manager/Manager.sol:Manager",
						"label": "_owner",
						"offset": 0,
						"slot": "0",
						"type": "t_address"
					},
					{
						"astId": 172,
						"contract": "contracts/on_chain_manager/Manager.sol:Manager",
						"label": "deployMap",
						"offset": 0,
						"slot": "1",
						"type": "t_mapping(t_uint256,t_struct(Contract)160_storage)"
					},
					{
						"astId": 176,
						"contract": "contracts/on_chain_manager/Manager.sol:Manager",
						"label": "shardList",
						"offset": 0,
						"slot": "2",
						"type": "t_array(t_struct(Shard)167_storage)dyn_storage"
					},
					{
						"astId": 178,
						"contract": "contracts/on_chain_manager/Manager.sol:Manager",
						"label": "currentAlg",
						"offset": 0,
						"slot": "3",
						"type": "t_uint8"
					},
					{
						"astId": 180,
						"contract": "contracts/on_chain_manager/Manager.sol:Manager",
						"label": "currentShard",
						"offset": 1,
						"slot": "3",
						"type": "t_uint8"
					},
					{
						"astId": 187,
						"contract": "contracts/on_chain_manager/Manager.sol:Manager",
						"label": "algs",
						"offset": 0,
						"slot": "4",
						"type": "t_array(t_function_internal_nonpayable()returns(t_uint8))dyn_storage"
					},
					{
						"astId": 190,
						"contract": "contracts/on_chain_manager/Manager.sol:Manager",
						"label": "oracle",
						"offset": 0,
						"slot": "5",
						"type": "t_contract(AbstractOracle)952"
					},
					{
						"astId": 192,
						"contract": "contracts/on_chain_manager/Manager.sol:Manager",
						"label": "contractId",
						"offset": 0,
						"slot": "6",
						"type": "t_uint256"
					},
					{
						"astId": 194,
						"contract": "contracts/on_chain_manager/Manager.sol:Manager",
						"label": "maxShard",
						"offset": 0,
						"slot": "7",
						"type": "t_uint8"
					}
				],
				"types": {
					"t_address": {
						"encoding": "inplace",
						"label": "address",
						"numberOfBytes": "20"
					},
					"t_array(t_function_internal_nonpayable()returns(t_uint8))dyn_storage": {
						"base": "t_function_internal_nonpayable()returns(t_uint8)",
						"encoding": "dynamic_array",
						"label": "function () returns (uint8)[]",
						"numberOfBytes": "32"
					},
					"t_array(t_struct(Shard)167_storage)dyn_storage": {
						"base": "t_struct(Shard)167_storage",
						"encoding": "dynamic_array",
						"label": "struct AbstractManager.Shard[]",
						"numberOfBytes": "32"
					},
					"t_bool": {
						"encoding": "inplace",
						"label": "bool",
						"numberOfBytes": "1"
					},
					"t_bytes20": {
						"encoding": "inplace",
						"label": "bytes20",
						"numberOfBytes": "20"
					},
					"t_contract(AbstractOracle)952": {
						"encoding": "inplace",
						"label": "contract AbstractOracle",
						"numberOfBytes": "20"
					},
					"t_enum(Status)146": {
						"encoding": "inplace",
						"label": "enum AbstractManager.Status",
						"numberOfBytes": "1"
					},
					"t_function_internal_nonpayable()returns(t_uint8)": {
						"encoding": "inplace",
						"label": "function () returns (uint8)",
						"numberOfBytes": "8"
					},
					"t_mapping(t_uint256,t_struct(Contract)160_storage)": {
						"encoding": "mapping",
						"key": "t_uint256",
						"label": "mapping(uint256 => struct AbstractManager.Contract)",
						"numberOfBytes": "32",
						"value": "t_struct(Contract)160_storage"
					},
					"t_string_storage": {
						"encoding": "bytes",
						"label": "string",
						"numberOfBytes": "32"
					},
					"t_struct(Contract)160_storage": {
						"encoding": "inplace",
						"label": "struct AbstractManager.Contract",
						"members": [
							{
								"astId": 148,
								"contract": "contracts/on_chain_manager/Manager.sol:Manager",
								"label": "shardId",
								"offset": 0,
								"slot": "0",
								"type": "t_uint8"
							},
							{
								"astId": 150,
								"contract": "contracts/on_chain_manager/Manager.sol:Manager",
								"label": "addr",
								"offset": 1,
								"slot": "0",
								"type": "t_bytes20"
							},
							{
								"astId": 152,
								"contract": "contracts/on_chain_manager/Manager.sol:Manager",
								"label": "name",
								"offset": 0,
								"slot": "1",
								"type": "t_string_storage"
							},
							{
								"astId": 154,
								"contract": "contracts/on_chain_manager/Manager.sol:Manager",
								"label": "user",
								"offset": 0,
								"slot": "2",
								"type": "t_address"
							},
							{
								"astId": 156,
								"contract": "contracts/on_chain_manager/Manager.sol:Manager",
								"label": "deployTime",
								"offset": 0,
								"slot": "3",
								"type": "t_uint256"
							},
							{
								"astId": 159,
								"contract": "contracts/on_chain_manager/Manager.sol:Manager",
								"label": "status",
								"offset": 0,
								"slot": "4",
								"type": "t_enum(Status)146"
							}
						],
						"numberOfBytes": "160"
					},
					"t_struct(Shard)167_storage": {
						"encoding": "inplace",
						"label": "struct AbstractManager.Shard",
						"members": [
							{
								"astId": 162,
								"contract": "contracts/on_chain_manager/Manager.sol:Manager",
								"label": "url",
								"offset": 0,
								"slot": "0",
								"type": "t_string_storage"
							},
							{
								"astId": 164,
								"contract": "contracts/on_chain_manager/Manager.sol:Manager",
								"label": "active",
								"offset": 0,
								"slot": "1",
								"type": "t_bool"
							},
							{
								"astId": 166,
								"contract": "contracts/on_chain_manager/Manager.sol:Manager",
								"label": "numDeploy",
								"offset": 0,
								"slot": "2",
								"type": "t_uint256"
							}
						],
						"numberOfBytes": "96"
					},
					"t_uint256": {
						"encoding": "inplace",
						"label": "uint256",
						"numberOfBytes": "32"
					},
					"t_uint8": {
						"encoding": "inplace",
						"label": "uint8",
						"numberOfBytes": "1"
					}
				}
			},
			"userdoc": {
				"kind": "user",
				"methods": {},
				"version": 1
			}
		}
	}
}